{
	"contracts/test.sol": {
		"Main": {
			"abi": [
				{
					"inputs": [
						{
							"internalType": "address",
							"name": "_owner",
							"type": "address"
						},
						{
							"internalType": "string",
							"name": "_name",
							"type": "string"
						},
						{
							"internalType": "string",
							"name": "_symbol",
							"type": "string"
						},
						{
							"internalType": "uint256",
							"name": "__totalSupply",
							"type": "uint256"
						}
					],
					"stateMutability": "nonpayable",
					"type": "constructor"
				},
				{
					"inputs": [
						{
							"internalType": "address",
							"name": "spender",
							"type": "address"
						},
						{
							"internalType": "uint256",
							"name": "allowance",
							"type": "uint256"
						},
						{
							"internalType": "uint256",
							"name": "needed",
							"type": "uint256"
						}
					],
					"name": "ERC20InsufficientAllowance",
					"type": "error"
				},
				{
					"inputs": [
						{
							"internalType": "address",
							"name": "sender",
							"type": "address"
						},
						{
							"internalType": "uint256",
							"name": "balance",
							"type": "uint256"
						},
						{
							"internalType": "uint256",
							"name": "needed",
							"type": "uint256"
						}
					],
					"name": "ERC20InsufficientBalance",
					"type": "error"
				},
				{
					"inputs": [
						{
							"internalType": "address",
							"name": "approver",
							"type": "address"
						}
					],
					"name": "ERC20InvalidApprover",
					"type": "error"
				},
				{
					"inputs": [
						{
							"internalType": "address",
							"name": "receiver",
							"type": "address"
						}
					],
					"name": "ERC20InvalidReceiver",
					"type": "error"
				},
				{
					"inputs": [
						{
							"internalType": "address",
							"name": "sender",
							"type": "address"
						}
					],
					"name": "ERC20InvalidSender",
					"type": "error"
				},
				{
					"inputs": [
						{
							"internalType": "address",
							"name": "spender",
							"type": "address"
						}
					],
					"name": "ERC20InvalidSpender",
					"type": "error"
				},
				{
					"anonymous": false,
					"inputs": [
						{
							"indexed": true,
							"internalType": "address",
							"name": "owner",
							"type": "address"
						},
						{
							"indexed": true,
							"internalType": "address",
							"name": "spender",
							"type": "address"
						},
						{
							"indexed": false,
							"internalType": "uint256",
							"name": "value",
							"type": "uint256"
						}
					],
					"name": "Approval",
					"type": "event"
				},
				{
					"anonymous": false,
					"inputs": [
						{
							"indexed": true,
							"internalType": "address",
							"name": "from",
							"type": "address"
						},
						{
							"indexed": true,
							"internalType": "address",
							"name": "to",
							"type": "address"
						},
						{
							"indexed": false,
							"internalType": "uint256",
							"name": "value",
							"type": "uint256"
						}
					],
					"name": "Transfer",
					"type": "event"
				},
				{
					"inputs": [],
					"name": "_adminLockTime",
					"outputs": [
						{
							"internalType": "uint256",
							"name": "",
							"type": "uint256"
						}
					],
					"stateMutability": "view",
					"type": "function"
				},
				{
					"inputs": [
						{
							"internalType": "address",
							"name": "owner",
							"type": "address"
						},
						{
							"internalType": "address",
							"name": "spender",
							"type": "address"
						}
					],
					"name": "allowance",
					"outputs": [
						{
							"internalType": "uint256",
							"name": "",
							"type": "uint256"
						}
					],
					"stateMutability": "view",
					"type": "function"
				},
				{
					"inputs": [
						{
							"internalType": "address",
							"name": "spender",
							"type": "address"
						},
						{
							"internalType": "uint256",
							"name": "value",
							"type": "uint256"
						}
					],
					"name": "approve",
					"outputs": [
						{
							"internalType": "bool",
							"name": "",
							"type": "bool"
						}
					],
					"stateMutability": "nonpayable",
					"type": "function"
				},
				{
					"inputs": [
						{
							"internalType": "address",
							"name": "account",
							"type": "address"
						}
					],
					"name": "balanceOf",
					"outputs": [
						{
							"internalType": "uint256",
							"name": "",
							"type": "uint256"
						}
					],
					"stateMutability": "view",
					"type": "function"
				},
				{
					"inputs": [],
					"name": "decimals",
					"outputs": [
						{
							"internalType": "uint8",
							"name": "",
							"type": "uint8"
						}
					],
					"stateMutability": "view",
					"type": "function"
				},
				{
					"inputs": [],
					"name": "name",
					"outputs": [
						{
							"internalType": "string",
							"name": "",
							"type": "string"
						}
					],
					"stateMutability": "view",
					"type": "function"
				},
				{
					"inputs": [],
					"name": "symbol",
					"outputs": [
						{
							"internalType": "string",
							"name": "",
							"type": "string"
						}
					],
					"stateMutability": "view",
					"type": "function"
				},
				{
					"inputs": [],
					"name": "totalSupply",
					"outputs": [
						{
							"internalType": "uint256",
							"name": "",
							"type": "uint256"
						}
					],
					"stateMutability": "view",
					"type": "function"
				},
				{
					"inputs": [
						{
							"internalType": "address",
							"name": "to",
							"type": "address"
						},
						{
							"internalType": "uint256",
							"name": "amount",
							"type": "uint256"
						}
					],
					"name": "transfer",
					"outputs": [
						{
							"internalType": "bool",
							"name": "",
							"type": "bool"
						}
					],
					"stateMutability": "nonpayable",
					"type": "function"
				},
				{
					"inputs": [
						{
							"internalType": "address",
							"name": "from",
							"type": "address"
						},
						{
							"internalType": "address",
							"name": "to",
							"type": "address"
						},
						{
							"internalType": "uint256",
							"name": "value",
							"type": "uint256"
						}
					],
					"name": "transferFrom",
					"outputs": [
						{
							"internalType": "bool",
							"name": "",
							"type": "bool"
						}
					],
					"stateMutability": "nonpayable",
					"type": "function"
				}
			],
			"devdoc": {
				"errors": {
					"ERC20InsufficientAllowance(address,uint256,uint256)": [
						{
							"details": "Indicates a failure with the `spender`’s `allowance`. Used in transfers.",
							"params": {
								"allowance": "Amount of tokens a `spender` is allowed to operate with.",
								"needed": "Minimum amount required to perform a transfer.",
								"spender": "Address that may be allowed to operate on tokens without being their owner."
							}
						}
					],
					"ERC20InsufficientBalance(address,uint256,uint256)": [
						{
							"details": "Indicates an error related to the current `balance` of a `sender`. Used in transfers.",
							"params": {
								"balance": "Current balance for the interacting account.",
								"needed": "Minimum amount required to perform a transfer.",
								"sender": "Address whose tokens are being transferred."
							}
						}
					],
					"ERC20InvalidApprover(address)": [
						{
							"details": "Indicates a failure with the `approver` of a token to be approved. Used in approvals.",
							"params": {
								"approver": "Address initiating an approval operation."
							}
						}
					],
					"ERC20InvalidReceiver(address)": [
						{
							"details": "Indicates a failure with the token `receiver`. Used in transfers.",
							"params": {
								"receiver": "Address to which tokens are being transferred."
							}
						}
					],
					"ERC20InvalidSender(address)": [
						{
							"details": "Indicates a failure with the token `sender`. Used in transfers.",
							"params": {
								"sender": "Address whose tokens are being transferred."
							}
						}
					],
					"ERC20InvalidSpender(address)": [
						{
							"details": "Indicates a failure with the `spender` to be approved. Used in approvals.",
							"params": {
								"spender": "Address that may be allowed to operate on tokens without being their owner."
							}
						}
					]
				},
				"events": {
					"Approval(address,address,uint256)": {
						"details": "Emitted when the allowance of a `spender` for an `owner` is set by a call to {approve}. `value` is the new allowance."
					},
					"Transfer(address,address,uint256)": {
						"details": "Emitted when `value` tokens are moved from one account (`from`) to another (`to`). Note that `value` may be zero."
					}
				},
				"kind": "dev",
				"methods": {
					"allowance(address,address)": {
						"details": "See {IERC20-allowance}."
					},
					"approve(address,uint256)": {
						"details": "See {IERC20-approve}. NOTE: If `value` is the maximum `uint256`, the allowance is not updated on `transferFrom`. This is semantically equivalent to an infinite approval. Requirements: - `spender` cannot be the zero address."
					},
					"balanceOf(address)": {
						"details": "See {IERC20-balanceOf}."
					},
					"decimals()": {
						"details": "Returns the number of decimals used to get its user representation. For example, if `decimals` equals `2`, a balance of `505` tokens should be displayed to a user as `5.05` (`505 / 10 ** 2`). Tokens usually opt for a value of 18, imitating the relationship between Ether and Wei. This is the default value returned by this function, unless it's overridden. NOTE: This information is only used for _display_ purposes: it in no way affects any of the arithmetic of the contract, including {IERC20-balanceOf} and {IERC20-transfer}."
					},
					"name()": {
						"details": "Returns the name of the token."
					},
					"symbol()": {
						"details": "Returns the symbol of the token, usually a shorter version of the name."
					},
					"totalSupply()": {
						"details": "See {IERC20-totalSupply}."
					},
					"transferFrom(address,address,uint256)": {
						"details": "See {IERC20-transferFrom}. Emits an {Approval} event indicating the updated allowance. This is not required by the EIP. See the note at the beginning of {ERC20}. NOTE: Does not update the allowance if the current allowance is the maximum `uint256`. Requirements: - `from` and `to` cannot be the zero address. - `from` must have a balance of at least `value`. - the caller must have allowance for ``from``'s tokens of at least `value`."
					}
				},
				"version": 1
			},
			"evm": {
				"assembly": "    /* \"contracts/test.sol\":131:867  contract Main is ERC20 {... */\n  mstore(0x40, 0x80)\n    /* \"contracts/test.sol\":295:710  constructor(... */\n  callvalue\n  dup1\n  iszero\n  tag_1\n  jumpi\n  0x00\n  dup1\n  revert\ntag_1:\n  pop\n  mload(0x40)\n  sub(codesize, bytecodeSize)\n  dup1\n  bytecodeSize\n  dup4\n  codecopy\n  dup2\n  dup2\n  add\n  0x40\n  mstore\n  dup2\n  add\n  swap1\n  tag_2\n  swap2\n  swap1\n  tag_3\n  jump\t// in\ntag_2:\n    /* \"contracts/test.sol\":434:439  _name */\n  dup3\n    /* \"contracts/test.sol\":441:448  _symbol */\n  dup3\n    /* \"node_modules/@openzeppelin/contracts/token/ERC20/ERC20.sol\":1970:1975  name_ */\n  dup2\n    /* \"node_modules/@openzeppelin/contracts/token/ERC20/ERC20.sol\":1962:1967  _name */\n  0x03\n    /* \"node_modules/@openzeppelin/contracts/token/ERC20/ERC20.sol\":1962:1975  _name = name_ */\n  swap1\n  dup2\n  tag_7\n  swap2\n  swap1\n  tag_8\n  jump\t// in\ntag_7:\n  pop\n    /* \"node_modules/@openzeppelin/contracts/token/ERC20/ERC20.sol\":1995:2002  symbol_ */\n  dup1\n    /* \"node_modules/@openzeppelin/contracts/token/ERC20/ERC20.sol\":1985:1992  _symbol */\n  0x04\n    /* \"node_modules/@openzeppelin/contracts/token/ERC20/ERC20.sol\":1985:2002  _symbol = symbol_ */\n  swap1\n  dup2\n  tag_9\n  swap2\n  swap1\n  tag_8\n  jump\t// in\ntag_9:\n  pop\n    /* \"node_modules/@openzeppelin/contracts/token/ERC20/ERC20.sol\":1896:2009  constructor(string memory name_, string memory symbol_) {... */\n  pop\n  pop\n    /* \"contracts/test.sol\":475:488  __totalSupply */\n  dup1\n    /* \"contracts/test.sol\":460:472  _totalSupply */\n  0x06\n    /* \"contracts/test.sol\":460:488  _totalSupply = __totalSupply */\n  dup2\n  swap1\n  sstore\n  pop\n    /* \"contracts/test.sol\":499:521  uint256 remainedTokens */\n  0x00\n    /* \"contracts/test.sol\":539:551  _totalMinted */\n  sload(0x05)\n    /* \"contracts/test.sol\":524:536  _totalSupply */\n  sload(0x06)\n    /* \"contracts/test.sol\":524:551  _totalSupply - _totalMinted */\n  tag_11\n  swap2\n  swap1\n  tag_12\n  jump\t// in\ntag_11:\n    /* \"contracts/test.sol\":499:551  uint256 remainedTokens = _totalSupply - _totalMinted */\n  swap1\n  pop\n    /* \"contracts/test.sol\":582:583  0 */\n  0x00\n    /* \"contracts/test.sol\":565:579  remainedTokens */\n  dup2\n    /* \"contracts/test.sol\":565:583  remainedTokens > 0 */\n  gt\n    /* \"contracts/test.sol\":561:704  if (remainedTokens > 0) {... */\n  iszero\n  tag_13\n  jumpi\n    /* \"contracts/test.sol\":599:628  _mint(_owner, remainedTokens) */\n  tag_14\n    /* \"contracts/test.sol\":605:611  _owner */\n  dup6\n    /* \"contracts/test.sol\":613:627  remainedTokens */\n  dup3\n    /* \"contracts/test.sol\":599:604  _mint */\n  shl(0x20, tag_15)\n    /* \"contracts/test.sol\":599:628  _mint(_owner, remainedTokens) */\n  0x20\n  shr\n  jump\t// in\ntag_14:\n    /* \"contracts/test.sol\":677:685  31536000 */\n  0x01e13380\n    /* \"contracts/test.sol\":659:674  block.timestamp */\n  timestamp\n    /* \"contracts/test.sol\":659:685  block.timestamp + 31536000 */\n  tag_16\n  swap2\n  swap1\n  tag_17\n  jump\t// in\ntag_16:\n    /* \"contracts/test.sol\":642:656  _adminLockTime */\n  0x08\n    /* \"contracts/test.sol\":642:685  _adminLockTime = block.timestamp + 31536000 */\n  dup2\n  swap1\n  sstore\n  pop\n    /* \"contracts/test.sol\":561:704  if (remainedTokens > 0) {... */\ntag_13:\n    /* \"contracts/test.sol\":450:710  {... */\n  pop\n    /* \"contracts/test.sol\":295:710  constructor(... */\n  pop\n  pop\n  pop\n  pop\n    /* \"contracts/test.sol\":131:867  contract Main is ERC20 {... */\n  jump(tag_18)\n    /* \"node_modules/@openzeppelin/contracts/token/ERC20/ERC20.sol\":7721:7929  function _mint(address account, uint256 value) internal {... */\ntag_15:\n    /* \"node_modules/@openzeppelin/contracts/token/ERC20/ERC20.sol\":7810:7811  0 */\n  0x00\n    /* \"node_modules/@openzeppelin/contracts/token/ERC20/ERC20.sol\":7791:7812  account == address(0) */\n  0xffffffffffffffffffffffffffffffffffffffff\n  and\n    /* \"node_modules/@openzeppelin/contracts/token/ERC20/ERC20.sol\":7791:7798  account */\n  dup3\n    /* \"node_modules/@openzeppelin/contracts/token/ERC20/ERC20.sol\":7791:7812  account == address(0) */\n  0xffffffffffffffffffffffffffffffffffffffff\n  and\n  sub\n    /* \"node_modules/@openzeppelin/contracts/token/ERC20/ERC20.sol\":7787:7878  if (account == address(0)) {... */\n  tag_20\n  jumpi\n    /* \"node_modules/@openzeppelin/contracts/token/ERC20/ERC20.sol\":7864:7865  0 */\n  0x00\n    /* \"node_modules/@openzeppelin/contracts/token/ERC20/ERC20.sol\":7835:7867  ERC20InvalidReceiver(address(0)) */\n  mload(0x40)\n  0xec442f0500000000000000000000000000000000000000000000000000000000\n  dup2\n  mstore\n  0x04\n  add\n  tag_21\n  swap2\n  swap1\n  tag_22\n  jump\t// in\ntag_21:\n  mload(0x40)\n  dup1\n  swap2\n  sub\n  swap1\n  revert\n    /* \"node_modules/@openzeppelin/contracts/token/ERC20/ERC20.sol\":7787:7878  if (account == address(0)) {... */\ntag_20:\n    /* \"node_modules/@openzeppelin/contracts/token/ERC20/ERC20.sol\":7887:7922  _update(address(0), account, value) */\n  tag_23\n    /* \"node_modules/@openzeppelin/contracts/token/ERC20/ERC20.sol\":7903:7904  0 */\n  0x00\n    /* \"node_modules/@openzeppelin/contracts/token/ERC20/ERC20.sol\":7907:7914  account */\n  dup4\n    /* \"node_modules/@openzeppelin/contracts/token/ERC20/ERC20.sol\":7916:7921  value */\n  dup4\n    /* \"node_modules/@openzeppelin/contracts/token/ERC20/ERC20.sol\":7887:7894  _update */\n  shl(0x20, tag_24)\n    /* \"node_modules/@openzeppelin/contracts/token/ERC20/ERC20.sol\":7887:7922  _update(address(0), account, value) */\n  0x20\n  shr\n  jump\t// in\ntag_23:\n    /* \"node_modules/@openzeppelin/contracts/token/ERC20/ERC20.sol\":7721:7929  function _mint(address account, uint256 value) internal {... */\n  pop\n  pop\n  jump\t// out\n    /* \"node_modules/@openzeppelin/contracts/token/ERC20/ERC20.sol\":6271:7378  function _update(address from, address to, uint256 value) internal virtual {... */\ntag_24:\n    /* \"node_modules/@openzeppelin/contracts/token/ERC20/ERC20.sol\":6376:6377  0 */\n  0x00\n    /* \"node_modules/@openzeppelin/contracts/token/ERC20/ERC20.sol\":6360:6378  from == address(0) */\n  0xffffffffffffffffffffffffffffffffffffffff\n  and\n    /* \"node_modules/@openzeppelin/contracts/token/ERC20/ERC20.sol\":6360:6364  from */\n  dup4\n    /* \"node_modules/@openzeppelin/contracts/token/ERC20/ERC20.sol\":6360:6378  from == address(0) */\n  0xffffffffffffffffffffffffffffffffffffffff\n  and\n  sub\n    /* \"node_modules/@openzeppelin/contracts/token/ERC20/ERC20.sol\":6356:6896  if (from == address(0)) {... */\n  tag_26\n  jumpi\n    /* \"node_modules/@openzeppelin/contracts/token/ERC20/ERC20.sol\":6512:6517  value */\n  dup1\n    /* \"node_modules/@openzeppelin/contracts/token/ERC20/ERC20.sol\":6496:6508  _totalSupply */\n  0x02\n  0x00\n    /* \"node_modules/@openzeppelin/contracts/token/ERC20/ERC20.sol\":6496:6517  _totalSupply += value */\n  dup3\n  dup3\n  sload\n  tag_27\n  swap2\n  swap1\n  tag_17\n  jump\t// in\ntag_27:\n  swap3\n  pop\n  pop\n  dup2\n  swap1\n  sstore\n  pop\n    /* \"node_modules/@openzeppelin/contracts/token/ERC20/ERC20.sol\":6356:6896  if (from == address(0)) {... */\n  jump(tag_28)\ntag_26:\n    /* \"node_modules/@openzeppelin/contracts/token/ERC20/ERC20.sol\":6548:6567  uint256 fromBalance */\n  0x00\n    /* \"node_modules/@openzeppelin/contracts/token/ERC20/ERC20.sol\":6570:6579  _balances */\n  dup1\n    /* \"node_modules/@openzeppelin/contracts/token/ERC20/ERC20.sol\":6570:6585  _balances[from] */\n  0x00\n    /* \"node_modules/@openzeppelin/contracts/token/ERC20/ERC20.sol\":6580:6584  from */\n  dup6\n    /* \"node_modules/@openzeppelin/contracts/token/ERC20/ERC20.sol\":6570:6585  _balances[from] */\n  0xffffffffffffffffffffffffffffffffffffffff\n  and\n  0xffffffffffffffffffffffffffffffffffffffff\n  and\n  dup2\n  mstore\n  0x20\n  add\n  swap1\n  dup2\n  mstore\n  0x20\n  add\n  0x00\n  keccak256\n  sload\n    /* \"node_modules/@openzeppelin/contracts/token/ERC20/ERC20.sol\":6548:6585  uint256 fromBalance = _balances[from] */\n  swap1\n  pop\n    /* \"node_modules/@openzeppelin/contracts/token/ERC20/ERC20.sol\":6617:6622  value */\n  dup2\n    /* \"node_modules/@openzeppelin/contracts/token/ERC20/ERC20.sol\":6603:6614  fromBalance */\n  dup2\n    /* \"node_modules/@openzeppelin/contracts/token/ERC20/ERC20.sol\":6603:6622  fromBalance < value */\n  lt\n    /* \"node_modules/@openzeppelin/contracts/token/ERC20/ERC20.sol\":6599:6714  if (fromBalance < value) {... */\n  iszero\n  tag_29\n  jumpi\n    /* \"node_modules/@openzeppelin/contracts/token/ERC20/ERC20.sol\":6674:6678  from */\n  dup4\n    /* \"node_modules/@openzeppelin/contracts/token/ERC20/ERC20.sol\":6680:6691  fromBalance */\n  dup2\n    /* \"node_modules/@openzeppelin/contracts/token/ERC20/ERC20.sol\":6693:6698  value */\n  dup4\n    /* \"node_modules/@openzeppelin/contracts/token/ERC20/ERC20.sol\":6649:6699  ERC20InsufficientBalance(from, fromBalance, value) */\n  mload(0x40)\n  0xe450d38c00000000000000000000000000000000000000000000000000000000\n  dup2\n  mstore\n  0x04\n  add\n  tag_30\n  swap4\n  swap3\n  swap2\n  swap1\n  tag_31\n  jump\t// in\ntag_30:\n  mload(0x40)\n  dup1\n  swap2\n  sub\n  swap1\n  revert\n    /* \"node_modules/@openzeppelin/contracts/token/ERC20/ERC20.sol\":6599:6714  if (fromBalance < value) {... */\ntag_29:\n    /* \"node_modules/@openzeppelin/contracts/token/ERC20/ERC20.sol\":6866:6871  value */\n  dup2\n    /* \"node_modules/@openzeppelin/contracts/token/ERC20/ERC20.sol\":6852:6863  fromBalance */\n  dup2\n    /* \"node_modules/@openzeppelin/contracts/token/ERC20/ERC20.sol\":6852:6871  fromBalance - value */\n  sub\n    /* \"node_modules/@openzeppelin/contracts/token/ERC20/ERC20.sol\":6834:6843  _balances */\n  0x00\n    /* \"node_modules/@openzeppelin/contracts/token/ERC20/ERC20.sol\":6834:6849  _balances[from] */\n  dup1\n    /* \"node_modules/@openzeppelin/contracts/token/ERC20/ERC20.sol\":6844:6848  from */\n  dup7\n    /* \"node_modules/@openzeppelin/contracts/token/ERC20/ERC20.sol\":6834:6849  _balances[from] */\n  0xffffffffffffffffffffffffffffffffffffffff\n  and\n  0xffffffffffffffffffffffffffffffffffffffff\n  and\n  dup2\n  mstore\n  0x20\n  add\n  swap1\n  dup2\n  mstore\n  0x20\n  add\n  0x00\n  keccak256\n    /* \"node_modules/@openzeppelin/contracts/token/ERC20/ERC20.sol\":6834:6871  _balances[from] = fromBalance - value */\n  dup2\n  swap1\n  sstore\n  pop\n    /* \"node_modules/@openzeppelin/contracts/token/ERC20/ERC20.sol\":6534:6896  {... */\n  pop\n    /* \"node_modules/@openzeppelin/contracts/token/ERC20/ERC20.sol\":6356:6896  if (from == address(0)) {... */\ntag_28:\n    /* \"node_modules/@openzeppelin/contracts/token/ERC20/ERC20.sol\":6924:6925  0 */\n  0x00\n    /* \"node_modules/@openzeppelin/contracts/token/ERC20/ERC20.sol\":6910:6926  to == address(0) */\n  0xffffffffffffffffffffffffffffffffffffffff\n  and\n    /* \"node_modules/@openzeppelin/contracts/token/ERC20/ERC20.sol\":6910:6912  to */\n  dup3\n    /* \"node_modules/@openzeppelin/contracts/token/ERC20/ERC20.sol\":6910:6926  to == address(0) */\n  0xffffffffffffffffffffffffffffffffffffffff\n  and\n  sub\n    /* \"node_modules/@openzeppelin/contracts/token/ERC20/ERC20.sol\":6906:7331  if (to == address(0)) {... */\n  tag_32\n  jumpi\n    /* \"node_modules/@openzeppelin/contracts/token/ERC20/ERC20.sol\":7089:7094  value */\n  dup1\n    /* \"node_modules/@openzeppelin/contracts/token/ERC20/ERC20.sol\":7073:7085  _totalSupply */\n  0x02\n  0x00\n    /* \"node_modules/@openzeppelin/contracts/token/ERC20/ERC20.sol\":7073:7094  _totalSupply -= value */\n  dup3\n  dup3\n  sload\n  sub\n  swap3\n  pop\n  pop\n  dup2\n  swap1\n  sstore\n  pop\n    /* \"node_modules/@openzeppelin/contracts/token/ERC20/ERC20.sol\":6906:7331  if (to == address(0)) {... */\n  jump(tag_33)\ntag_32:\n    /* \"node_modules/@openzeppelin/contracts/token/ERC20/ERC20.sol\":7301:7306  value */\n  dup1\n    /* \"node_modules/@openzeppelin/contracts/token/ERC20/ERC20.sol\":7284:7293  _balances */\n  0x00\n    /* \"node_modules/@openzeppelin/contracts/token/ERC20/ERC20.sol\":7284:7297  _balances[to] */\n  dup1\n    /* \"node_modules/@openzeppelin/contracts/token/ERC20/ERC20.sol\":7294:7296  to */\n  dup5\n    /* \"node_modules/@openzeppelin/contracts/token/ERC20/ERC20.sol\":7284:7297  _balances[to] */\n  0xffffffffffffffffffffffffffffffffffffffff\n  and\n  0xffffffffffffffffffffffffffffffffffffffff\n  and\n  dup2\n  mstore\n  0x20\n  add\n  swap1\n  dup2\n  mstore\n  0x20\n  add\n  0x00\n  keccak256\n  0x00\n    /* \"node_modules/@openzeppelin/contracts/token/ERC20/ERC20.sol\":7284:7306  _balances[to] += value */\n  dup3\n  dup3\n  sload\n  add\n  swap3\n  pop\n  pop\n  dup2\n  swap1\n  sstore\n  pop\n    /* \"node_modules/@openzeppelin/contracts/token/ERC20/ERC20.sol\":6906:7331  if (to == address(0)) {... */\ntag_33:\n    /* \"node_modules/@openzeppelin/contracts/token/ERC20/ERC20.sol\":7361:7363  to */\n  dup2\n    /* \"node_modules/@openzeppelin/contracts/token/ERC20/ERC20.sol\":7346:7371  Transfer(from, to, value) */\n  0xffffffffffffffffffffffffffffffffffffffff\n  and\n    /* \"node_modules/@openzeppelin/contracts/token/ERC20/ERC20.sol\":7355:7359  from */\n  dup4\n    /* \"node_modules/@openzeppelin/contracts/token/ERC20/ERC20.sol\":7346:7371  Transfer(from, to, value) */\n  0xffffffffffffffffffffffffffffffffffffffff\n  and\n  0xddf252ad1be2c89b69c2b068fc378daa952ba7f163c4a11628f55a4df523b3ef\n    /* \"node_modules/@openzeppelin/contracts/token/ERC20/ERC20.sol\":7365:7370  value */\n  dup4\n    /* \"node_modules/@openzeppelin/contracts/token/ERC20/ERC20.sol\":7346:7371  Transfer(from, to, value) */\n  mload(0x40)\n  tag_34\n  swap2\n  swap1\n  tag_35\n  jump\t// in\ntag_34:\n  mload(0x40)\n  dup1\n  swap2\n  sub\n  swap1\n  log3\n    /* \"node_modules/@openzeppelin/contracts/token/ERC20/ERC20.sol\":6271:7378  function _update(address from, address to, uint256 value) internal virtual {... */\n  pop\n  pop\n  pop\n  jump\t// out\n    /* \"#utility.yul\":7:82   */\ntag_36:\n    /* \"#utility.yul\":40:46   */\n  0x00\n    /* \"#utility.yul\":73:75   */\n  0x40\n    /* \"#utility.yul\":67:76   */\n  mload\n    /* \"#utility.yul\":57:76   */\n  swap1\n  pop\n    /* \"#utility.yul\":7:82   */\n  swap1\n  jump\t// out\n    /* \"#utility.yul\":88:205   */\ntag_37:\n    /* \"#utility.yul\":197:198   */\n  0x00\n    /* \"#utility.yul\":194:195   */\n  dup1\n    /* \"#utility.yul\":187:199   */\n  revert\n    /* \"#utility.yul\":211:328   */\ntag_38:\n    /* \"#utility.yul\":320:321   */\n  0x00\n    /* \"#utility.yul\":317:318   */\n  dup1\n    /* \"#utility.yul\":310:322   */\n  revert\n    /* \"#utility.yul\":334:460   */\ntag_39:\n    /* \"#utility.yul\":371:378   */\n  0x00\n    /* \"#utility.yul\":411:453   */\n  0xffffffffffffffffffffffffffffffffffffffff\n    /* \"#utility.yul\":404:409   */\n  dup3\n    /* \"#utility.yul\":400:454   */\n  and\n    /* \"#utility.yul\":389:454   */\n  swap1\n  pop\n    /* \"#utility.yul\":334:460   */\n  swap2\n  swap1\n  pop\n  jump\t// out\n    /* \"#utility.yul\":466:562   */\ntag_40:\n    /* \"#utility.yul\":503:510   */\n  0x00\n    /* \"#utility.yul\":532:556   */\n  tag_83\n    /* \"#utility.yul\":550:555   */\n  dup3\n    /* \"#utility.yul\":532:556   */\n  tag_39\n  jump\t// in\ntag_83:\n    /* \"#utility.yul\":521:556   */\n  swap1\n  pop\n    /* \"#utility.yul\":466:562   */\n  swap2\n  swap1\n  pop\n  jump\t// out\n    /* \"#utility.yul\":568:690   */\ntag_41:\n    /* \"#utility.yul\":641:665   */\n  tag_85\n    /* \"#utility.yul\":659:664   */\n  dup2\n    /* \"#utility.yul\":641:665   */\n  tag_40\n  jump\t// in\ntag_85:\n    /* \"#utility.yul\":634:639   */\n  dup2\n    /* \"#utility.yul\":631:666   */\n  eq\n    /* \"#utility.yul\":621:684   */\n  tag_86\n  jumpi\n    /* \"#utility.yul\":680:681   */\n  0x00\n    /* \"#utility.yul\":677:678   */\n  dup1\n    /* \"#utility.yul\":670:682   */\n  revert\n    /* \"#utility.yul\":621:684   */\ntag_86:\n    /* \"#utility.yul\":568:690   */\n  pop\n  jump\t// out\n    /* \"#utility.yul\":696:839   */\ntag_42:\n    /* \"#utility.yul\":753:758   */\n  0x00\n    /* \"#utility.yul\":784:790   */\n  dup2\n    /* \"#utility.yul\":778:791   */\n  mload\n    /* \"#utility.yul\":769:791   */\n  swap1\n  pop\n    /* \"#utility.yul\":800:833   */\n  tag_88\n    /* \"#utility.yul\":827:832   */\n  dup2\n    /* \"#utility.yul\":800:833   */\n  tag_41\n  jump\t// in\ntag_88:\n    /* \"#utility.yul\":696:839   */\n  swap3\n  swap2\n  pop\n  pop\n  jump\t// out\n    /* \"#utility.yul\":845:962   */\ntag_43:\n    /* \"#utility.yul\":954:955   */\n  0x00\n    /* \"#utility.yul\":951:952   */\n  dup1\n    /* \"#utility.yul\":944:956   */\n  revert\n    /* \"#utility.yul\":968:1085   */\ntag_44:\n    /* \"#utility.yul\":1077:1078   */\n  0x00\n    /* \"#utility.yul\":1074:1075   */\n  dup1\n    /* \"#utility.yul\":1067:1079   */\n  revert\n    /* \"#utility.yul\":1091:1193   */\ntag_45:\n    /* \"#utility.yul\":1132:1138   */\n  0x00\n    /* \"#utility.yul\":1183:1185   */\n  0x1f\n    /* \"#utility.yul\":1179:1186   */\n  not\n    /* \"#utility.yul\":1174:1176   */\n  0x1f\n    /* \"#utility.yul\":1167:1172   */\n  dup4\n    /* \"#utility.yul\":1163:1177   */\n  add\n    /* \"#utility.yul\":1159:1187   */\n  and\n    /* \"#utility.yul\":1149:1187   */\n  swap1\n  pop\n    /* \"#utility.yul\":1091:1193   */\n  swap2\n  swap1\n  pop\n  jump\t// out\n    /* \"#utility.yul\":1199:1379   */\ntag_46:\n    /* \"#utility.yul\":1247:1324   */\n  0x4e487b7100000000000000000000000000000000000000000000000000000000\n    /* \"#utility.yul\":1244:1245   */\n  0x00\n    /* \"#utility.yul\":1237:1325   */\n  mstore\n    /* \"#utility.yul\":1344:1348   */\n  0x41\n    /* \"#utility.yul\":1341:1342   */\n  0x04\n    /* \"#utility.yul\":1334:1349   */\n  mstore\n    /* \"#utility.yul\":1368:1372   */\n  0x24\n    /* \"#utility.yul\":1365:1366   */\n  0x00\n    /* \"#utility.yul\":1358:1373   */\n  revert\n    /* \"#utility.yul\":1385:1666   */\ntag_47:\n    /* \"#utility.yul\":1468:1495   */\n  tag_94\n    /* \"#utility.yul\":1490:1494   */\n  dup3\n    /* \"#utility.yul\":1468:1495   */\n  tag_45\n  jump\t// in\ntag_94:\n    /* \"#utility.yul\":1460:1466   */\n  dup2\n    /* \"#utility.yul\":1456:1496   */\n  add\n    /* \"#utility.yul\":1598:1604   */\n  dup2\n    /* \"#utility.yul\":1586:1596   */\n  dup2\n    /* \"#utility.yul\":1583:1605   */\n  lt\n    /* \"#utility.yul\":1562:1580   */\n  0xffffffffffffffff\n    /* \"#utility.yul\":1550:1560   */\n  dup3\n    /* \"#utility.yul\":1547:1581   */\n  gt\n    /* \"#utility.yul\":1544:1606   */\n  or\n    /* \"#utility.yul\":1541:1629   */\n  iszero\n  tag_95\n  jumpi\n    /* \"#utility.yul\":1609:1627   */\n  tag_96\n  tag_46\n  jump\t// in\ntag_96:\n    /* \"#utility.yul\":1541:1629   */\ntag_95:\n    /* \"#utility.yul\":1649:1659   */\n  dup1\n    /* \"#utility.yul\":1645:1647   */\n  0x40\n    /* \"#utility.yul\":1638:1660   */\n  mstore\n    /* \"#utility.yul\":1428:1666   */\n  pop\n    /* \"#utility.yul\":1385:1666   */\n  pop\n  pop\n  jump\t// out\n    /* \"#utility.yul\":1672:1801   */\ntag_48:\n    /* \"#utility.yul\":1706:1712   */\n  0x00\n    /* \"#utility.yul\":1733:1753   */\n  tag_98\n  tag_36\n  jump\t// in\ntag_98:\n    /* \"#utility.yul\":1723:1753   */\n  swap1\n  pop\n    /* \"#utility.yul\":1762:1795   */\n  tag_99\n    /* \"#utility.yul\":1790:1794   */\n  dup3\n    /* \"#utility.yul\":1782:1788   */\n  dup3\n    /* \"#utility.yul\":1762:1795   */\n  tag_47\n  jump\t// in\ntag_99:\n    /* \"#utility.yul\":1672:1801   */\n  swap2\n  swap1\n  pop\n  jump\t// out\n    /* \"#utility.yul\":1807:2115   */\ntag_49:\n    /* \"#utility.yul\":1869:1873   */\n  0x00\n    /* \"#utility.yul\":1959:1977   */\n  0xffffffffffffffff\n    /* \"#utility.yul\":1951:1957   */\n  dup3\n    /* \"#utility.yul\":1948:1978   */\n  gt\n    /* \"#utility.yul\":1945:2001   */\n  iszero\n  tag_101\n  jumpi\n    /* \"#utility.yul\":1981:1999   */\n  tag_102\n  tag_46\n  jump\t// in\ntag_102:\n    /* \"#utility.yul\":1945:2001   */\ntag_101:\n    /* \"#utility.yul\":2019:2048   */\n  tag_103\n    /* \"#utility.yul\":2041:2047   */\n  dup3\n    /* \"#utility.yul\":2019:2048   */\n  tag_45\n  jump\t// in\ntag_103:\n    /* \"#utility.yul\":2011:2048   */\n  swap1\n  pop\n    /* \"#utility.yul\":2103:2107   */\n  0x20\n    /* \"#utility.yul\":2097:2101   */\n  dup2\n    /* \"#utility.yul\":2093:2108   */\n  add\n    /* \"#utility.yul\":2085:2108   */\n  swap1\n  pop\n    /* \"#utility.yul\":1807:2115   */\n  swap2\n  swap1\n  pop\n  jump\t// out\n    /* \"#utility.yul\":2121:2367   */\ntag_50:\n    /* \"#utility.yul\":2202:2203   */\n  0x00\n    /* \"#utility.yul\":2212:2325   */\ntag_105:\n    /* \"#utility.yul\":2226:2232   */\n  dup4\n    /* \"#utility.yul\":2223:2224   */\n  dup2\n    /* \"#utility.yul\":2220:2233   */\n  lt\n    /* \"#utility.yul\":2212:2325   */\n  iszero\n  tag_107\n  jumpi\n    /* \"#utility.yul\":2311:2312   */\n  dup1\n    /* \"#utility.yul\":2306:2309   */\n  dup3\n    /* \"#utility.yul\":2302:2313   */\n  add\n    /* \"#utility.yul\":2296:2314   */\n  mload\n    /* \"#utility.yul\":2292:2293   */\n  dup2\n    /* \"#utility.yul\":2287:2290   */\n  dup5\n    /* \"#utility.yul\":2283:2294   */\n  add\n    /* \"#utility.yul\":2276:2315   */\n  mstore\n    /* \"#utility.yul\":2248:2250   */\n  0x20\n    /* \"#utility.yul\":2245:2246   */\n  dup2\n    /* \"#utility.yul\":2241:2251   */\n  add\n    /* \"#utility.yul\":2236:2251   */\n  swap1\n  pop\n    /* \"#utility.yul\":2212:2325   */\n  jump(tag_105)\ntag_107:\n    /* \"#utility.yul\":2359:2360   */\n  0x00\n    /* \"#utility.yul\":2350:2356   */\n  dup5\n    /* \"#utility.yul\":2345:2348   */\n  dup5\n    /* \"#utility.yul\":2341:2357   */\n  add\n    /* \"#utility.yul\":2334:2361   */\n  mstore\n    /* \"#utility.yul\":2183:2367   */\n  pop\n    /* \"#utility.yul\":2121:2367   */\n  pop\n  pop\n  pop\n  jump\t// out\n    /* \"#utility.yul\":2373:2807   */\ntag_51:\n    /* \"#utility.yul\":2462:2467   */\n  0x00\n    /* \"#utility.yul\":2487:2553   */\n  tag_109\n    /* \"#utility.yul\":2503:2552   */\n  tag_110\n    /* \"#utility.yul\":2545:2551   */\n  dup5\n    /* \"#utility.yul\":2503:2552   */\n  tag_49\n  jump\t// in\ntag_110:\n    /* \"#utility.yul\":2487:2553   */\n  tag_48\n  jump\t// in\ntag_109:\n    /* \"#utility.yul\":2478:2553   */\n  swap1\n  pop\n    /* \"#utility.yul\":2576:2582   */\n  dup3\n    /* \"#utility.yul\":2569:2574   */\n  dup2\n    /* \"#utility.yul\":2562:2583   */\n  mstore\n    /* \"#utility.yul\":2614:2618   */\n  0x20\n    /* \"#utility.yul\":2607:2612   */\n  dup2\n    /* \"#utility.yul\":2603:2619   */\n  add\n    /* \"#utility.yul\":2652:2655   */\n  dup5\n    /* \"#utility.yul\":2643:2649   */\n  dup5\n    /* \"#utility.yul\":2638:2641   */\n  dup5\n    /* \"#utility.yul\":2634:2650   */\n  add\n    /* \"#utility.yul\":2631:2656   */\n  gt\n    /* \"#utility.yul\":2628:2740   */\n  iszero\n  tag_111\n  jumpi\n    /* \"#utility.yul\":2659:2738   */\n  tag_112\n  tag_44\n  jump\t// in\ntag_112:\n    /* \"#utility.yul\":2628:2740   */\ntag_111:\n    /* \"#utility.yul\":2749:2801   */\n  tag_113\n    /* \"#utility.yul\":2794:2800   */\n  dup5\n    /* \"#utility.yul\":2789:2792   */\n  dup3\n    /* \"#utility.yul\":2784:2787   */\n  dup6\n    /* \"#utility.yul\":2749:2801   */\n  tag_50\n  jump\t// in\ntag_113:\n    /* \"#utility.yul\":2468:2807   */\n  pop\n    /* \"#utility.yul\":2373:2807   */\n  swap4\n  swap3\n  pop\n  pop\n  pop\n  jump\t// out\n    /* \"#utility.yul\":2827:3182   */\ntag_52:\n    /* \"#utility.yul\":2894:2899   */\n  0x00\n    /* \"#utility.yul\":2943:2946   */\n  dup3\n    /* \"#utility.yul\":2936:2940   */\n  0x1f\n    /* \"#utility.yul\":2928:2934   */\n  dup4\n    /* \"#utility.yul\":2924:2941   */\n  add\n    /* \"#utility.yul\":2920:2947   */\n  slt\n    /* \"#utility.yul\":2910:3032   */\n  tag_115\n  jumpi\n    /* \"#utility.yul\":2951:3030   */\n  tag_116\n  tag_43\n  jump\t// in\ntag_116:\n    /* \"#utility.yul\":2910:3032   */\ntag_115:\n    /* \"#utility.yul\":3061:3067   */\n  dup2\n    /* \"#utility.yul\":3055:3068   */\n  mload\n    /* \"#utility.yul\":3086:3176   */\n  tag_117\n    /* \"#utility.yul\":3172:3175   */\n  dup5\n    /* \"#utility.yul\":3164:3170   */\n  dup3\n    /* \"#utility.yul\":3157:3161   */\n  0x20\n    /* \"#utility.yul\":3149:3155   */\n  dup7\n    /* \"#utility.yul\":3145:3162   */\n  add\n    /* \"#utility.yul\":3086:3176   */\n  tag_51\n  jump\t// in\ntag_117:\n    /* \"#utility.yul\":3077:3176   */\n  swap2\n  pop\n    /* \"#utility.yul\":2900:3182   */\n  pop\n    /* \"#utility.yul\":2827:3182   */\n  swap3\n  swap2\n  pop\n  pop\n  jump\t// out\n    /* \"#utility.yul\":3188:3265   */\ntag_53:\n    /* \"#utility.yul\":3225:3232   */\n  0x00\n    /* \"#utility.yul\":3254:3259   */\n  dup2\n    /* \"#utility.yul\":3243:3259   */\n  swap1\n  pop\n    /* \"#utility.yul\":3188:3265   */\n  swap2\n  swap1\n  pop\n  jump\t// out\n    /* \"#utility.yul\":3271:3393   */\ntag_54:\n    /* \"#utility.yul\":3344:3368   */\n  tag_120\n    /* \"#utility.yul\":3362:3367   */\n  dup2\n    /* \"#utility.yul\":3344:3368   */\n  tag_53\n  jump\t// in\ntag_120:\n    /* \"#utility.yul\":3337:3342   */\n  dup2\n    /* \"#utility.yul\":3334:3369   */\n  eq\n    /* \"#utility.yul\":3324:3387   */\n  tag_121\n  jumpi\n    /* \"#utility.yul\":3383:3384   */\n  0x00\n    /* \"#utility.yul\":3380:3381   */\n  dup1\n    /* \"#utility.yul\":3373:3385   */\n  revert\n    /* \"#utility.yul\":3324:3387   */\ntag_121:\n    /* \"#utility.yul\":3271:3393   */\n  pop\n  jump\t// out\n    /* \"#utility.yul\":3399:3542   */\ntag_55:\n    /* \"#utility.yul\":3456:3461   */\n  0x00\n    /* \"#utility.yul\":3487:3493   */\n  dup2\n    /* \"#utility.yul\":3481:3494   */\n  mload\n    /* \"#utility.yul\":3472:3494   */\n  swap1\n  pop\n    /* \"#utility.yul\":3503:3536   */\n  tag_123\n    /* \"#utility.yul\":3530:3535   */\n  dup2\n    /* \"#utility.yul\":3503:3536   */\n  tag_54\n  jump\t// in\ntag_123:\n    /* \"#utility.yul\":3399:3542   */\n  swap3\n  swap2\n  pop\n  pop\n  jump\t// out\n    /* \"#utility.yul\":3548:4714   */\ntag_3:\n    /* \"#utility.yul\":3665:3671   */\n  0x00\n    /* \"#utility.yul\":3673:3679   */\n  dup1\n    /* \"#utility.yul\":3681:3687   */\n  0x00\n    /* \"#utility.yul\":3689:3695   */\n  dup1\n    /* \"#utility.yul\":3738:3741   */\n  0x80\n    /* \"#utility.yul\":3726:3735   */\n  dup6\n    /* \"#utility.yul\":3717:3724   */\n  dup8\n    /* \"#utility.yul\":3713:3736   */\n  sub\n    /* \"#utility.yul\":3709:3742   */\n  slt\n    /* \"#utility.yul\":3706:3826   */\n  iszero\n  tag_125\n  jumpi\n    /* \"#utility.yul\":3745:3824   */\n  tag_126\n  tag_37\n  jump\t// in\ntag_126:\n    /* \"#utility.yul\":3706:3826   */\ntag_125:\n    /* \"#utility.yul\":3865:3866   */\n  0x00\n    /* \"#utility.yul\":3890:3954   */\n  tag_127\n    /* \"#utility.yul\":3946:3953   */\n  dup8\n    /* \"#utility.yul\":3937:3943   */\n  dup3\n    /* \"#utility.yul\":3926:3935   */\n  dup9\n    /* \"#utility.yul\":3922:3944   */\n  add\n    /* \"#utility.yul\":3890:3954   */\n  tag_42\n  jump\t// in\ntag_127:\n    /* \"#utility.yul\":3880:3954   */\n  swap5\n  pop\n    /* \"#utility.yul\":3836:3964   */\n  pop\n    /* \"#utility.yul\":4024:4026   */\n  0x20\n    /* \"#utility.yul\":4013:4022   */\n  dup6\n    /* \"#utility.yul\":4009:4027   */\n  add\n    /* \"#utility.yul\":4003:4028   */\n  mload\n    /* \"#utility.yul\":4055:4073   */\n  0xffffffffffffffff\n    /* \"#utility.yul\":4047:4053   */\n  dup2\n    /* \"#utility.yul\":4044:4074   */\n  gt\n    /* \"#utility.yul\":4041:4158   */\n  iszero\n  tag_128\n  jumpi\n    /* \"#utility.yul\":4077:4156   */\n  tag_129\n  tag_38\n  jump\t// in\ntag_129:\n    /* \"#utility.yul\":4041:4158   */\ntag_128:\n    /* \"#utility.yul\":4182:4256   */\n  tag_130\n    /* \"#utility.yul\":4248:4255   */\n  dup8\n    /* \"#utility.yul\":4239:4245   */\n  dup3\n    /* \"#utility.yul\":4228:4237   */\n  dup9\n    /* \"#utility.yul\":4224:4246   */\n  add\n    /* \"#utility.yul\":4182:4256   */\n  tag_52\n  jump\t// in\ntag_130:\n    /* \"#utility.yul\":4172:4256   */\n  swap4\n  pop\n    /* \"#utility.yul\":3974:4266   */\n  pop\n    /* \"#utility.yul\":4326:4328   */\n  0x40\n    /* \"#utility.yul\":4315:4324   */\n  dup6\n    /* \"#utility.yul\":4311:4329   */\n  add\n    /* \"#utility.yul\":4305:4330   */\n  mload\n    /* \"#utility.yul\":4357:4375   */\n  0xffffffffffffffff\n    /* \"#utility.yul\":4349:4355   */\n  dup2\n    /* \"#utility.yul\":4346:4376   */\n  gt\n    /* \"#utility.yul\":4343:4460   */\n  iszero\n  tag_131\n  jumpi\n    /* \"#utility.yul\":4379:4458   */\n  tag_132\n  tag_38\n  jump\t// in\ntag_132:\n    /* \"#utility.yul\":4343:4460   */\ntag_131:\n    /* \"#utility.yul\":4484:4558   */\n  tag_133\n    /* \"#utility.yul\":4550:4557   */\n  dup8\n    /* \"#utility.yul\":4541:4547   */\n  dup3\n    /* \"#utility.yul\":4530:4539   */\n  dup9\n    /* \"#utility.yul\":4526:4548   */\n  add\n    /* \"#utility.yul\":4484:4558   */\n  tag_52\n  jump\t// in\ntag_133:\n    /* \"#utility.yul\":4474:4558   */\n  swap3\n  pop\n    /* \"#utility.yul\":4276:4568   */\n  pop\n    /* \"#utility.yul\":4607:4609   */\n  0x60\n    /* \"#utility.yul\":4633:4697   */\n  tag_134\n    /* \"#utility.yul\":4689:4696   */\n  dup8\n    /* \"#utility.yul\":4680:4686   */\n  dup3\n    /* \"#utility.yul\":4669:4678   */\n  dup9\n    /* \"#utility.yul\":4665:4687   */\n  add\n    /* \"#utility.yul\":4633:4697   */\n  tag_55\n  jump\t// in\ntag_134:\n    /* \"#utility.yul\":4623:4697   */\n  swap2\n  pop\n    /* \"#utility.yul\":4578:4707   */\n  pop\n    /* \"#utility.yul\":3548:4714   */\n  swap3\n  swap6\n  swap2\n  swap5\n  pop\n  swap3\n  pop\n  jump\t// out\n    /* \"#utility.yul\":4720:4819   */\ntag_56:\n    /* \"#utility.yul\":4772:4778   */\n  0x00\n    /* \"#utility.yul\":4806:4811   */\n  dup2\n    /* \"#utility.yul\":4800:4812   */\n  mload\n    /* \"#utility.yul\":4790:4812   */\n  swap1\n  pop\n    /* \"#utility.yul\":4720:4819   */\n  swap2\n  swap1\n  pop\n  jump\t// out\n    /* \"#utility.yul\":4825:5005   */\ntag_57:\n    /* \"#utility.yul\":4873:4950   */\n  0x4e487b7100000000000000000000000000000000000000000000000000000000\n    /* \"#utility.yul\":4870:4871   */\n  0x00\n    /* \"#utility.yul\":4863:4951   */\n  mstore\n    /* \"#utility.yul\":4970:4974   */\n  0x22\n    /* \"#utility.yul\":4967:4968   */\n  0x04\n    /* \"#utility.yul\":4960:4975   */\n  mstore\n    /* \"#utility.yul\":4994:4998   */\n  0x24\n    /* \"#utility.yul\":4991:4992   */\n  0x00\n    /* \"#utility.yul\":4984:4999   */\n  revert\n    /* \"#utility.yul\":5011:5331   */\ntag_58:\n    /* \"#utility.yul\":5055:5061   */\n  0x00\n    /* \"#utility.yul\":5092:5093   */\n  0x02\n    /* \"#utility.yul\":5086:5090   */\n  dup3\n    /* \"#utility.yul\":5082:5094   */\n  div\n    /* \"#utility.yul\":5072:5094   */\n  swap1\n  pop\n    /* \"#utility.yul\":5139:5140   */\n  0x01\n    /* \"#utility.yul\":5133:5137   */\n  dup3\n    /* \"#utility.yul\":5129:5141   */\n  and\n    /* \"#utility.yul\":5160:5178   */\n  dup1\n    /* \"#utility.yul\":5150:5231   */\n  tag_138\n  jumpi\n    /* \"#utility.yul\":5216:5220   */\n  0x7f\n    /* \"#utility.yul\":5208:5214   */\n  dup3\n    /* \"#utility.yul\":5204:5221   */\n  and\n    /* \"#utility.yul\":5194:5221   */\n  swap2\n  pop\n    /* \"#utility.yul\":5150:5231   */\ntag_138:\n    /* \"#utility.yul\":5278:5280   */\n  0x20\n    /* \"#utility.yul\":5270:5276   */\n  dup3\n    /* \"#utility.yul\":5267:5281   */\n  lt\n    /* \"#utility.yul\":5247:5265   */\n  dup2\n    /* \"#utility.yul\":5244:5282   */\n  sub\n    /* \"#utility.yul\":5241:5325   */\n  tag_139\n  jumpi\n    /* \"#utility.yul\":5297:5315   */\n  tag_140\n  tag_57\n  jump\t// in\ntag_140:\n    /* \"#utility.yul\":5241:5325   */\ntag_139:\n    /* \"#utility.yul\":5062:5331   */\n  pop\n    /* \"#utility.yul\":5011:5331   */\n  swap2\n  swap1\n  pop\n  jump\t// out\n    /* \"#utility.yul\":5337:5478   */\ntag_59:\n    /* \"#utility.yul\":5386:5390   */\n  0x00\n    /* \"#utility.yul\":5409:5412   */\n  dup2\n    /* \"#utility.yul\":5401:5412   */\n  swap1\n  pop\n    /* \"#utility.yul\":5432:5435   */\n  dup2\n    /* \"#utility.yul\":5429:5430   */\n  0x00\n    /* \"#utility.yul\":5422:5436   */\n  mstore\n    /* \"#utility.yul\":5466:5470   */\n  0x20\n    /* \"#utility.yul\":5463:5464   */\n  0x00\n    /* \"#utility.yul\":5453:5471   */\n  keccak256\n    /* \"#utility.yul\":5445:5471   */\n  swap1\n  pop\n    /* \"#utility.yul\":5337:5478   */\n  swap2\n  swap1\n  pop\n  jump\t// out\n    /* \"#utility.yul\":5484:5577   */\ntag_60:\n    /* \"#utility.yul\":5521:5527   */\n  0x00\n    /* \"#utility.yul\":5568:5570   */\n  0x20\n    /* \"#utility.yul\":5563:5565   */\n  0x1f\n    /* \"#utility.yul\":5556:5561   */\n  dup4\n    /* \"#utility.yul\":5552:5566   */\n  add\n    /* \"#utility.yul\":5548:5571   */\n  div\n    /* \"#utility.yul\":5538:5571   */\n  swap1\n  pop\n    /* \"#utility.yul\":5484:5577   */\n  swap2\n  swap1\n  pop\n  jump\t// out\n    /* \"#utility.yul\":5583:5690   */\ntag_61:\n    /* \"#utility.yul\":5627:5635   */\n  0x00\n    /* \"#utility.yul\":5677:5682   */\n  dup3\n    /* \"#utility.yul\":5671:5675   */\n  dup3\n    /* \"#utility.yul\":5667:5683   */\n  shl\n    /* \"#utility.yul\":5646:5683   */\n  swap1\n  pop\n    /* \"#utility.yul\":5583:5690   */\n  swap3\n  swap2\n  pop\n  pop\n  jump\t// out\n    /* \"#utility.yul\":5696:6089   */\ntag_62:\n    /* \"#utility.yul\":5765:5771   */\n  0x00\n    /* \"#utility.yul\":5815:5816   */\n  0x08\n    /* \"#utility.yul\":5803:5813   */\n  dup4\n    /* \"#utility.yul\":5799:5817   */\n  mul\n    /* \"#utility.yul\":5838:5935   */\n  tag_145\n    /* \"#utility.yul\":5868:5934   */\n  0xffffffffffffffffffffffffffffffffffffffffffffffffffffffffffffffff\n    /* \"#utility.yul\":5857:5866   */\n  dup3\n    /* \"#utility.yul\":5838:5935   */\n  tag_61\n  jump\t// in\ntag_145:\n    /* \"#utility.yul\":5956:5995   */\n  tag_146\n    /* \"#utility.yul\":5986:5994   */\n  dup7\n    /* \"#utility.yul\":5975:5984   */\n  dup4\n    /* \"#utility.yul\":5956:5995   */\n  tag_61\n  jump\t// in\ntag_146:\n    /* \"#utility.yul\":5944:5995   */\n  swap6\n  pop\n    /* \"#utility.yul\":6028:6032   */\n  dup1\n    /* \"#utility.yul\":6024:6033   */\n  not\n    /* \"#utility.yul\":6017:6022   */\n  dup5\n    /* \"#utility.yul\":6013:6034   */\n  and\n    /* \"#utility.yul\":6004:6034   */\n  swap4\n  pop\n    /* \"#utility.yul\":6077:6081   */\n  dup1\n    /* \"#utility.yul\":6067:6075   */\n  dup7\n    /* \"#utility.yul\":6063:6082   */\n  and\n    /* \"#utility.yul\":6056:6061   */\n  dup5\n    /* \"#utility.yul\":6053:6083   */\n  or\n    /* \"#utility.yul\":6043:6083   */\n  swap3\n  pop\n    /* \"#utility.yul\":5772:6089   */\n  pop\n  pop\n    /* \"#utility.yul\":5696:6089   */\n  swap4\n  swap3\n  pop\n  pop\n  pop\n  jump\t// out\n    /* \"#utility.yul\":6095:6155   */\ntag_63:\n    /* \"#utility.yul\":6123:6126   */\n  0x00\n    /* \"#utility.yul\":6144:6149   */\n  dup2\n    /* \"#utility.yul\":6137:6149   */\n  swap1\n  pop\n    /* \"#utility.yul\":6095:6155   */\n  swap2\n  swap1\n  pop\n  jump\t// out\n    /* \"#utility.yul\":6161:6303   */\ntag_64:\n    /* \"#utility.yul\":6211:6220   */\n  0x00\n    /* \"#utility.yul\":6244:6297   */\n  tag_149\n    /* \"#utility.yul\":6262:6296   */\n  tag_150\n    /* \"#utility.yul\":6271:6295   */\n  tag_151\n    /* \"#utility.yul\":6289:6294   */\n  dup5\n    /* \"#utility.yul\":6271:6295   */\n  tag_53\n  jump\t// in\ntag_151:\n    /* \"#utility.yul\":6262:6296   */\n  tag_63\n  jump\t// in\ntag_150:\n    /* \"#utility.yul\":6244:6297   */\n  tag_53\n  jump\t// in\ntag_149:\n    /* \"#utility.yul\":6231:6297   */\n  swap1\n  pop\n    /* \"#utility.yul\":6161:6303   */\n  swap2\n  swap1\n  pop\n  jump\t// out\n    /* \"#utility.yul\":6309:6384   */\ntag_65:\n    /* \"#utility.yul\":6352:6355   */\n  0x00\n    /* \"#utility.yul\":6373:6378   */\n  dup2\n    /* \"#utility.yul\":6366:6378   */\n  swap1\n  pop\n    /* \"#utility.yul\":6309:6384   */\n  swap2\n  swap1\n  pop\n  jump\t// out\n    /* \"#utility.yul\":6390:6659   */\ntag_66:\n    /* \"#utility.yul\":6500:6539   */\n  tag_154\n    /* \"#utility.yul\":6531:6538   */\n  dup4\n    /* \"#utility.yul\":6500:6539   */\n  tag_64\n  jump\t// in\ntag_154:\n    /* \"#utility.yul\":6561:6652   */\n  tag_155\n    /* \"#utility.yul\":6610:6651   */\n  tag_156\n    /* \"#utility.yul\":6634:6650   */\n  dup3\n    /* \"#utility.yul\":6610:6651   */\n  tag_65\n  jump\t// in\ntag_156:\n    /* \"#utility.yul\":6602:6608   */\n  dup5\n    /* \"#utility.yul\":6595:6599   */\n  dup5\n    /* \"#utility.yul\":6589:6600   */\n  sload\n    /* \"#utility.yul\":6561:6652   */\n  tag_62\n  jump\t// in\ntag_155:\n    /* \"#utility.yul\":6555:6559   */\n  dup3\n    /* \"#utility.yul\":6548:6653   */\n  sstore\n    /* \"#utility.yul\":6466:6659   */\n  pop\n    /* \"#utility.yul\":6390:6659   */\n  pop\n  pop\n  pop\n  jump\t// out\n    /* \"#utility.yul\":6665:6738   */\ntag_67:\n    /* \"#utility.yul\":6710:6713   */\n  0x00\n    /* \"#utility.yul\":6665:6738   */\n  swap1\n  jump\t// out\n    /* \"#utility.yul\":6744:6933   */\ntag_68:\n    /* \"#utility.yul\":6821:6853   */\n  tag_159\n  tag_67\n  jump\t// in\ntag_159:\n    /* \"#utility.yul\":6862:6927   */\n  tag_160\n    /* \"#utility.yul\":6920:6926   */\n  dup2\n    /* \"#utility.yul\":6912:6918   */\n  dup5\n    /* \"#utility.yul\":6906:6910   */\n  dup5\n    /* \"#utility.yul\":6862:6927   */\n  tag_66\n  jump\t// in\ntag_160:\n    /* \"#utility.yul\":6797:6933   */\n  pop\n    /* \"#utility.yul\":6744:6933   */\n  pop\n  pop\n  jump\t// out\n    /* \"#utility.yul\":6939:7125   */\ntag_69:\n    /* \"#utility.yul\":6999:7119   */\ntag_162:\n    /* \"#utility.yul\":7016:7019   */\n  dup2\n    /* \"#utility.yul\":7009:7014   */\n  dup2\n    /* \"#utility.yul\":7006:7020   */\n  lt\n    /* \"#utility.yul\":6999:7119   */\n  iszero\n  tag_164\n  jumpi\n    /* \"#utility.yul\":7070:7109   */\n  tag_165\n    /* \"#utility.yul\":7107:7108   */\n  0x00\n    /* \"#utility.yul\":7100:7105   */\n  dup3\n    /* \"#utility.yul\":7070:7109   */\n  tag_68\n  jump\t// in\ntag_165:\n    /* \"#utility.yul\":7043:7044   */\n  0x01\n    /* \"#utility.yul\":7036:7041   */\n  dup2\n    /* \"#utility.yul\":7032:7045   */\n  add\n    /* \"#utility.yul\":7023:7045   */\n  swap1\n  pop\n    /* \"#utility.yul\":6999:7119   */\n  jump(tag_162)\ntag_164:\n    /* \"#utility.yul\":6939:7125   */\n  pop\n  pop\n  jump\t// out\n    /* \"#utility.yul\":7131:7674   */\ntag_70:\n    /* \"#utility.yul\":7232:7234   */\n  0x1f\n    /* \"#utility.yul\":7227:7230   */\n  dup3\n    /* \"#utility.yul\":7224:7235   */\n  gt\n    /* \"#utility.yul\":7221:7667   */\n  iszero\n  tag_167\n  jumpi\n    /* \"#utility.yul\":7266:7304   */\n  tag_168\n    /* \"#utility.yul\":7298:7303   */\n  dup2\n    /* \"#utility.yul\":7266:7304   */\n  tag_59\n  jump\t// in\ntag_168:\n    /* \"#utility.yul\":7350:7379   */\n  tag_169\n    /* \"#utility.yul\":7368:7378   */\n  dup5\n    /* \"#utility.yul\":7350:7379   */\n  tag_60\n  jump\t// in\ntag_169:\n    /* \"#utility.yul\":7340:7348   */\n  dup2\n    /* \"#utility.yul\":7336:7380   */\n  add\n    /* \"#utility.yul\":7533:7535   */\n  0x20\n    /* \"#utility.yul\":7521:7531   */\n  dup6\n    /* \"#utility.yul\":7518:7536   */\n  lt\n    /* \"#utility.yul\":7515:7564   */\n  iszero\n  tag_170\n  jumpi\n    /* \"#utility.yul\":7554:7562   */\n  dup2\n    /* \"#utility.yul\":7539:7562   */\n  swap1\n  pop\n    /* \"#utility.yul\":7515:7564   */\ntag_170:\n    /* \"#utility.yul\":7577:7657   */\n  tag_171\n    /* \"#utility.yul\":7633:7655   */\n  tag_172\n    /* \"#utility.yul\":7651:7654   */\n  dup6\n    /* \"#utility.yul\":7633:7655   */\n  tag_60\n  jump\t// in\ntag_172:\n    /* \"#utility.yul\":7623:7631   */\n  dup4\n    /* \"#utility.yul\":7619:7656   */\n  add\n    /* \"#utility.yul\":7606:7617   */\n  dup3\n    /* \"#utility.yul\":7577:7657   */\n  tag_69\n  jump\t// in\ntag_171:\n    /* \"#utility.yul\":7236:7667   */\n  pop\n  pop\n    /* \"#utility.yul\":7221:7667   */\ntag_167:\n    /* \"#utility.yul\":7131:7674   */\n  pop\n  pop\n  pop\n  jump\t// out\n    /* \"#utility.yul\":7680:7797   */\ntag_71:\n    /* \"#utility.yul\":7734:7742   */\n  0x00\n    /* \"#utility.yul\":7784:7789   */\n  dup3\n    /* \"#utility.yul\":7778:7782   */\n  dup3\n    /* \"#utility.yul\":7774:7790   */\n  shr\n    /* \"#utility.yul\":7753:7790   */\n  swap1\n  pop\n    /* \"#utility.yul\":7680:7797   */\n  swap3\n  swap2\n  pop\n  pop\n  jump\t// out\n    /* \"#utility.yul\":7803:7972   */\ntag_72:\n    /* \"#utility.yul\":7847:7853   */\n  0x00\n    /* \"#utility.yul\":7880:7931   */\n  tag_175\n    /* \"#utility.yul\":7928:7929   */\n  0x00\n    /* \"#utility.yul\":7924:7930   */\n  not\n    /* \"#utility.yul\":7916:7921   */\n  dup5\n    /* \"#utility.yul\":7913:7914   */\n  0x08\n    /* \"#utility.yul\":7909:7922   */\n  mul\n    /* \"#utility.yul\":7880:7931   */\n  tag_71\n  jump\t// in\ntag_175:\n    /* \"#utility.yul\":7876:7932   */\n  not\n    /* \"#utility.yul\":7961:7965   */\n  dup1\n    /* \"#utility.yul\":7955:7959   */\n  dup4\n    /* \"#utility.yul\":7951:7966   */\n  and\n    /* \"#utility.yul\":7941:7966   */\n  swap2\n  pop\n    /* \"#utility.yul\":7854:7972   */\n  pop\n    /* \"#utility.yul\":7803:7972   */\n  swap3\n  swap2\n  pop\n  pop\n  jump\t// out\n    /* \"#utility.yul\":7977:8272   */\ntag_73:\n    /* \"#utility.yul\":8053:8057   */\n  0x00\n    /* \"#utility.yul\":8199:8228   */\n  tag_177\n    /* \"#utility.yul\":8224:8227   */\n  dup4\n    /* \"#utility.yul\":8218:8222   */\n  dup4\n    /* \"#utility.yul\":8199:8228   */\n  tag_72\n  jump\t// in\ntag_177:\n    /* \"#utility.yul\":8191:8228   */\n  swap2\n  pop\n    /* \"#utility.yul\":8261:8264   */\n  dup3\n    /* \"#utility.yul\":8258:8259   */\n  0x02\n    /* \"#utility.yul\":8254:8265   */\n  mul\n    /* \"#utility.yul\":8248:8252   */\n  dup3\n    /* \"#utility.yul\":8245:8266   */\n  or\n    /* \"#utility.yul\":8237:8266   */\n  swap1\n  pop\n    /* \"#utility.yul\":7977:8272   */\n  swap3\n  swap2\n  pop\n  pop\n  jump\t// out\n    /* \"#utility.yul\":8277:9672   */\ntag_8:\n    /* \"#utility.yul\":8394:8431   */\n  tag_179\n    /* \"#utility.yul\":8427:8430   */\n  dup3\n    /* \"#utility.yul\":8394:8431   */\n  tag_56\n  jump\t// in\ntag_179:\n    /* \"#utility.yul\":8496:8514   */\n  0xffffffffffffffff\n    /* \"#utility.yul\":8488:8494   */\n  dup2\n    /* \"#utility.yul\":8485:8515   */\n  gt\n    /* \"#utility.yul\":8482:8538   */\n  iszero\n  tag_180\n  jumpi\n    /* \"#utility.yul\":8518:8536   */\n  tag_181\n  tag_46\n  jump\t// in\ntag_181:\n    /* \"#utility.yul\":8482:8538   */\ntag_180:\n    /* \"#utility.yul\":8562:8600   */\n  tag_182\n    /* \"#utility.yul\":8594:8598   */\n  dup3\n    /* \"#utility.yul\":8588:8599   */\n  sload\n    /* \"#utility.yul\":8562:8600   */\n  tag_58\n  jump\t// in\ntag_182:\n    /* \"#utility.yul\":8647:8714   */\n  tag_183\n    /* \"#utility.yul\":8707:8713   */\n  dup3\n    /* \"#utility.yul\":8699:8705   */\n  dup3\n    /* \"#utility.yul\":8693:8697   */\n  dup6\n    /* \"#utility.yul\":8647:8714   */\n  tag_70\n  jump\t// in\ntag_183:\n    /* \"#utility.yul\":8741:8742   */\n  0x00\n    /* \"#utility.yul\":8765:8769   */\n  0x20\n    /* \"#utility.yul\":8752:8769   */\n  swap1\n  pop\n    /* \"#utility.yul\":8797:8799   */\n  0x1f\n    /* \"#utility.yul\":8789:8795   */\n  dup4\n    /* \"#utility.yul\":8786:8800   */\n  gt\n    /* \"#utility.yul\":8814:8815   */\n  0x01\n    /* \"#utility.yul\":8809:9427   */\n  dup2\n  eq\n  tag_185\n  jumpi\n    /* \"#utility.yul\":9471:9472   */\n  0x00\n    /* \"#utility.yul\":9488:9494   */\n  dup5\n    /* \"#utility.yul\":9485:9562   */\n  iszero\n  tag_186\n  jumpi\n    /* \"#utility.yul\":9537:9546   */\n  dup3\n    /* \"#utility.yul\":9532:9535   */\n  dup8\n    /* \"#utility.yul\":9528:9547   */\n  add\n    /* \"#utility.yul\":9522:9548   */\n  mload\n    /* \"#utility.yul\":9513:9548   */\n  swap1\n  pop\n    /* \"#utility.yul\":9485:9562   */\ntag_186:\n    /* \"#utility.yul\":9588:9655   */\n  tag_187\n    /* \"#utility.yul\":9648:9654   */\n  dup6\n    /* \"#utility.yul\":9641:9646   */\n  dup3\n    /* \"#utility.yul\":9588:9655   */\n  tag_73\n  jump\t// in\ntag_187:\n    /* \"#utility.yul\":9582:9586   */\n  dup7\n    /* \"#utility.yul\":9575:9656   */\n  sstore\n    /* \"#utility.yul\":9444:9666   */\n  pop\n    /* \"#utility.yul\":8779:9666   */\n  jump(tag_184)\n    /* \"#utility.yul\":8809:9427   */\ntag_185:\n    /* \"#utility.yul\":8861:8865   */\n  0x1f\n    /* \"#utility.yul\":8857:8866   */\n  not\n    /* \"#utility.yul\":8849:8855   */\n  dup5\n    /* \"#utility.yul\":8845:8867   */\n  and\n    /* \"#utility.yul\":8895:8932   */\n  tag_188\n    /* \"#utility.yul\":8927:8931   */\n  dup7\n    /* \"#utility.yul\":8895:8932   */\n  tag_59\n  jump\t// in\ntag_188:\n    /* \"#utility.yul\":8954:8955   */\n  0x00\n    /* \"#utility.yul\":8968:9176   */\ntag_189:\n    /* \"#utility.yul\":8982:8989   */\n  dup3\n    /* \"#utility.yul\":8979:8980   */\n  dup2\n    /* \"#utility.yul\":8976:8990   */\n  lt\n    /* \"#utility.yul\":8968:9176   */\n  iszero\n  tag_191\n  jumpi\n    /* \"#utility.yul\":9061:9070   */\n  dup5\n    /* \"#utility.yul\":9056:9059   */\n  dup10\n    /* \"#utility.yul\":9052:9071   */\n  add\n    /* \"#utility.yul\":9046:9072   */\n  mload\n    /* \"#utility.yul\":9038:9044   */\n  dup3\n    /* \"#utility.yul\":9031:9073   */\n  sstore\n    /* \"#utility.yul\":9112:9113   */\n  0x01\n    /* \"#utility.yul\":9104:9110   */\n  dup3\n    /* \"#utility.yul\":9100:9114   */\n  add\n    /* \"#utility.yul\":9090:9114   */\n  swap2\n  pop\n    /* \"#utility.yul\":9159:9161   */\n  0x20\n    /* \"#utility.yul\":9148:9157   */\n  dup6\n    /* \"#utility.yul\":9144:9162   */\n  add\n    /* \"#utility.yul\":9131:9162   */\n  swap5\n  pop\n    /* \"#utility.yul\":9005:9009   */\n  0x20\n    /* \"#utility.yul\":9002:9003   */\n  dup2\n    /* \"#utility.yul\":8998:9010   */\n  add\n    /* \"#utility.yul\":8993:9010   */\n  swap1\n  pop\n    /* \"#utility.yul\":8968:9176   */\n  jump(tag_189)\ntag_191:\n    /* \"#utility.yul\":9204:9210   */\n  dup7\n    /* \"#utility.yul\":9195:9202   */\n  dup4\n    /* \"#utility.yul\":9192:9211   */\n  lt\n    /* \"#utility.yul\":9189:9368   */\n  iszero\n  tag_192\n  jumpi\n    /* \"#utility.yul\":9262:9271   */\n  dup5\n    /* \"#utility.yul\":9257:9260   */\n  dup10\n    /* \"#utility.yul\":9253:9272   */\n  add\n    /* \"#utility.yul\":9247:9273   */\n  mload\n    /* \"#utility.yul\":9305:9353   */\n  tag_193\n    /* \"#utility.yul\":9347:9351   */\n  0x1f\n    /* \"#utility.yul\":9339:9345   */\n  dup10\n    /* \"#utility.yul\":9335:9352   */\n  and\n    /* \"#utility.yul\":9324:9333   */\n  dup3\n    /* \"#utility.yul\":9305:9353   */\n  tag_72\n  jump\t// in\ntag_193:\n    /* \"#utility.yul\":9297:9303   */\n  dup4\n    /* \"#utility.yul\":9290:9354   */\n  sstore\n    /* \"#utility.yul\":9212:9368   */\n  pop\n    /* \"#utility.yul\":9189:9368   */\ntag_192:\n    /* \"#utility.yul\":9414:9415   */\n  0x01\n    /* \"#utility.yul\":9410:9411   */\n  0x02\n    /* \"#utility.yul\":9402:9408   */\n  dup9\n    /* \"#utility.yul\":9398:9412   */\n  mul\n    /* \"#utility.yul\":9394:9416   */\n  add\n    /* \"#utility.yul\":9388:9392   */\n  dup9\n    /* \"#utility.yul\":9381:9417   */\n  sstore\n    /* \"#utility.yul\":8816:9427   */\n  pop\n  pop\n  pop\n    /* \"#utility.yul\":8779:9666   */\ntag_184:\n  pop\n    /* \"#utility.yul\":8369:9672   */\n  pop\n  pop\n  pop\n    /* \"#utility.yul\":8277:9672   */\n  pop\n  pop\n  jump\t// out\n    /* \"#utility.yul\":9678:9858   */\ntag_74:\n    /* \"#utility.yul\":9726:9803   */\n  0x4e487b7100000000000000000000000000000000000000000000000000000000\n    /* \"#utility.yul\":9723:9724   */\n  0x00\n    /* \"#utility.yul\":9716:9804   */\n  mstore\n    /* \"#utility.yul\":9823:9827   */\n  0x11\n    /* \"#utility.yul\":9820:9821   */\n  0x04\n    /* \"#utility.yul\":9813:9828   */\n  mstore\n    /* \"#utility.yul\":9847:9851   */\n  0x24\n    /* \"#utility.yul\":9844:9845   */\n  0x00\n    /* \"#utility.yul\":9837:9852   */\n  revert\n    /* \"#utility.yul\":9864:10058   */\ntag_12:\n    /* \"#utility.yul\":9904:9908   */\n  0x00\n    /* \"#utility.yul\":9924:9944   */\n  tag_196\n    /* \"#utility.yul\":9942:9943   */\n  dup3\n    /* \"#utility.yul\":9924:9944   */\n  tag_53\n  jump\t// in\ntag_196:\n    /* \"#utility.yul\":9919:9944   */\n  swap2\n  pop\n    /* \"#utility.yul\":9958:9978   */\n  tag_197\n    /* \"#utility.yul\":9976:9977   */\n  dup4\n    /* \"#utility.yul\":9958:9978   */\n  tag_53\n  jump\t// in\ntag_197:\n    /* \"#utility.yul\":9953:9978   */\n  swap3\n  pop\n    /* \"#utility.yul\":10002:10003   */\n  dup3\n    /* \"#utility.yul\":9999:10000   */\n  dup3\n    /* \"#utility.yul\":9995:10004   */\n  sub\n    /* \"#utility.yul\":9987:10004   */\n  swap1\n  pop\n    /* \"#utility.yul\":10026:10027   */\n  dup2\n    /* \"#utility.yul\":10020:10024   */\n  dup2\n    /* \"#utility.yul\":10017:10028   */\n  gt\n    /* \"#utility.yul\":10014:10051   */\n  iszero\n  tag_198\n  jumpi\n    /* \"#utility.yul\":10031:10049   */\n  tag_199\n  tag_74\n  jump\t// in\ntag_199:\n    /* \"#utility.yul\":10014:10051   */\ntag_198:\n    /* \"#utility.yul\":9864:10058   */\n  swap3\n  swap2\n  pop\n  pop\n  jump\t// out\n    /* \"#utility.yul\":10064:10255   */\ntag_17:\n    /* \"#utility.yul\":10104:10107   */\n  0x00\n    /* \"#utility.yul\":10123:10143   */\n  tag_201\n    /* \"#utility.yul\":10141:10142   */\n  dup3\n    /* \"#utility.yul\":10123:10143   */\n  tag_53\n  jump\t// in\ntag_201:\n    /* \"#utility.yul\":10118:10143   */\n  swap2\n  pop\n    /* \"#utility.yul\":10157:10177   */\n  tag_202\n    /* \"#utility.yul\":10175:10176   */\n  dup4\n    /* \"#utility.yul\":10157:10177   */\n  tag_53\n  jump\t// in\ntag_202:\n    /* \"#utility.yul\":10152:10177   */\n  swap3\n  pop\n    /* \"#utility.yul\":10200:10201   */\n  dup3\n    /* \"#utility.yul\":10197:10198   */\n  dup3\n    /* \"#utility.yul\":10193:10202   */\n  add\n    /* \"#utility.yul\":10186:10202   */\n  swap1\n  pop\n    /* \"#utility.yul\":10221:10224   */\n  dup1\n    /* \"#utility.yul\":10218:10219   */\n  dup3\n    /* \"#utility.yul\":10215:10225   */\n  gt\n    /* \"#utility.yul\":10212:10248   */\n  iszero\n  tag_203\n  jumpi\n    /* \"#utility.yul\":10228:10246   */\n  tag_204\n  tag_74\n  jump\t// in\ntag_204:\n    /* \"#utility.yul\":10212:10248   */\ntag_203:\n    /* \"#utility.yul\":10064:10255   */\n  swap3\n  swap2\n  pop\n  pop\n  jump\t// out\n    /* \"#utility.yul\":10261:10379   */\ntag_75:\n    /* \"#utility.yul\":10348:10372   */\n  tag_206\n    /* \"#utility.yul\":10366:10371   */\n  dup2\n    /* \"#utility.yul\":10348:10372   */\n  tag_40\n  jump\t// in\ntag_206:\n    /* \"#utility.yul\":10343:10346   */\n  dup3\n    /* \"#utility.yul\":10336:10373   */\n  mstore\n    /* \"#utility.yul\":10261:10379   */\n  pop\n  pop\n  jump\t// out\n    /* \"#utility.yul\":10385:10607   */\ntag_22:\n    /* \"#utility.yul\":10478:10482   */\n  0x00\n    /* \"#utility.yul\":10516:10518   */\n  0x20\n    /* \"#utility.yul\":10505:10514   */\n  dup3\n    /* \"#utility.yul\":10501:10519   */\n  add\n    /* \"#utility.yul\":10493:10519   */\n  swap1\n  pop\n    /* \"#utility.yul\":10529:10600   */\n  tag_208\n    /* \"#utility.yul\":10597:10598   */\n  0x00\n    /* \"#utility.yul\":10586:10595   */\n  dup4\n    /* \"#utility.yul\":10582:10599   */\n  add\n    /* \"#utility.yul\":10573:10579   */\n  dup5\n    /* \"#utility.yul\":10529:10600   */\n  tag_75\n  jump\t// in\ntag_208:\n    /* \"#utility.yul\":10385:10607   */\n  swap3\n  swap2\n  pop\n  pop\n  jump\t// out\n    /* \"#utility.yul\":10613:10731   */\ntag_76:\n    /* \"#utility.yul\":10700:10724   */\n  tag_210\n    /* \"#utility.yul\":10718:10723   */\n  dup2\n    /* \"#utility.yul\":10700:10724   */\n  tag_53\n  jump\t// in\ntag_210:\n    /* \"#utility.yul\":10695:10698   */\n  dup3\n    /* \"#utility.yul\":10688:10725   */\n  mstore\n    /* \"#utility.yul\":10613:10731   */\n  pop\n  pop\n  jump\t// out\n    /* \"#utility.yul\":10737:11179   */\ntag_31:\n    /* \"#utility.yul\":10886:10890   */\n  0x00\n    /* \"#utility.yul\":10924:10926   */\n  0x60\n    /* \"#utility.yul\":10913:10922   */\n  dup3\n    /* \"#utility.yul\":10909:10927   */\n  add\n    /* \"#utility.yul\":10901:10927   */\n  swap1\n  pop\n    /* \"#utility.yul\":10937:11008   */\n  tag_212\n    /* \"#utility.yul\":11005:11006   */\n  0x00\n    /* \"#utility.yul\":10994:11003   */\n  dup4\n    /* \"#utility.yul\":10990:11007   */\n  add\n    /* \"#utility.yul\":10981:10987   */\n  dup7\n    /* \"#utility.yul\":10937:11008   */\n  tag_75\n  jump\t// in\ntag_212:\n    /* \"#utility.yul\":11018:11090   */\n  tag_213\n    /* \"#utility.yul\":11086:11088   */\n  0x20\n    /* \"#utility.yul\":11075:11084   */\n  dup4\n    /* \"#utility.yul\":11071:11089   */\n  add\n    /* \"#utility.yul\":11062:11068   */\n  dup6\n    /* \"#utility.yul\":11018:11090   */\n  tag_76\n  jump\t// in\ntag_213:\n    /* \"#utility.yul\":11100:11172   */\n  tag_214\n    /* \"#utility.yul\":11168:11170   */\n  0x40\n    /* \"#utility.yul\":11157:11166   */\n  dup4\n    /* \"#utility.yul\":11153:11171   */\n  add\n    /* \"#utility.yul\":11144:11150   */\n  dup5\n    /* \"#utility.yul\":11100:11172   */\n  tag_76\n  jump\t// in\ntag_214:\n    /* \"#utility.yul\":10737:11179   */\n  swap5\n  swap4\n  pop\n  pop\n  pop\n  pop\n  jump\t// out\n    /* \"#utility.yul\":11185:11407   */\ntag_35:\n    /* \"#utility.yul\":11278:11282   */\n  0x00\n    /* \"#utility.yul\":11316:11318   */\n  0x20\n    /* \"#utility.yul\":11305:11314   */\n  dup3\n    /* \"#utility.yul\":11301:11319   */\n  add\n    /* \"#utility.yul\":11293:11319   */\n  swap1\n  pop\n    /* \"#utility.yul\":11329:11400   */\n  tag_216\n    /* \"#utility.yul\":11397:11398   */\n  0x00\n    /* \"#utility.yul\":11386:11395   */\n  dup4\n    /* \"#utility.yul\":11382:11399   */\n  add\n    /* \"#utility.yul\":11373:11379   */\n  dup5\n    /* \"#utility.yul\":11329:11400   */\n  tag_76\n  jump\t// in\ntag_216:\n    /* \"#utility.yul\":11185:11407   */\n  swap3\n  swap2\n  pop\n  pop\n  jump\t// out\n    /* \"contracts/test.sol\":131:867  contract Main is ERC20 {... */\ntag_18:\n  dataSize(sub_0)\n  dup1\n  dataOffset(sub_0)\n  0x00\n  codecopy\n  0x00\n  return\nstop\n\nsub_0: assembly {\n        /* \"contracts/test.sol\":131:867  contract Main is ERC20 {... */\n      mstore(0x40, 0x80)\n      callvalue\n      dup1\n      iszero\n      tag_1\n      jumpi\n      0x00\n      dup1\n      revert\n    tag_1:\n      pop\n      jumpi(tag_2, lt(calldatasize, 0x04))\n      shr(0xe0, calldataload(0x00))\n      dup1\n      0x70a08231\n      gt\n      tag_13\n      jumpi\n      dup1\n      0x70a08231\n      eq\n      tag_8\n      jumpi\n      dup1\n      0x95d89b41\n      eq\n      tag_9\n      jumpi\n      dup1\n      0x9f3adb0e\n      eq\n      tag_10\n      jumpi\n      dup1\n      0xa9059cbb\n      eq\n      tag_11\n      jumpi\n      dup1\n      0xdd62ed3e\n      eq\n      tag_12\n      jumpi\n      jump(tag_2)\n    tag_13:\n      dup1\n      0x06fdde03\n      eq\n      tag_3\n      jumpi\n      dup1\n      0x095ea7b3\n      eq\n      tag_4\n      jumpi\n      dup1\n      0x18160ddd\n      eq\n      tag_5\n      jumpi\n      dup1\n      0x23b872dd\n      eq\n      tag_6\n      jumpi\n      dup1\n      0x313ce567\n      eq\n      tag_7\n      jumpi\n    tag_2:\n      0x00\n      dup1\n      revert\n        /* \"node_modules/@openzeppelin/contracts/token/ERC20/ERC20.sol\":2074:2163  function name() public view virtual returns (string memory) {... */\n    tag_3:\n      tag_14\n      tag_15\n      jump\t// in\n    tag_14:\n      mload(0x40)\n      tag_16\n      swap2\n      swap1\n      tag_17\n      jump\t// in\n    tag_16:\n      mload(0x40)\n      dup1\n      swap2\n      sub\n      swap1\n      return\n        /* \"node_modules/@openzeppelin/contracts/token/ERC20/ERC20.sol\":4293:4479  function approve(address spender, uint256 value) public virtual returns (bool) {... */\n    tag_4:\n      tag_18\n      0x04\n      dup1\n      calldatasize\n      sub\n      dup2\n      add\n      swap1\n      tag_19\n      swap2\n      swap1\n      tag_20\n      jump\t// in\n    tag_19:\n      tag_21\n      jump\t// in\n    tag_18:\n      mload(0x40)\n      tag_22\n      swap2\n      swap1\n      tag_23\n      jump\t// in\n    tag_22:\n      mload(0x40)\n      dup1\n      swap2\n      sub\n      swap1\n      return\n        /* \"node_modules/@openzeppelin/contracts/token/ERC20/ERC20.sol\":3144:3241  function totalSupply() public view virtual returns (uint256) {... */\n    tag_5:\n      tag_24\n      tag_25\n      jump\t// in\n    tag_24:\n      mload(0x40)\n      tag_26\n      swap2\n      swap1\n      tag_27\n      jump\t// in\n    tag_26:\n      mload(0x40)\n      dup1\n      swap2\n      sub\n      swap1\n      return\n        /* \"node_modules/@openzeppelin/contracts/token/ERC20/ERC20.sol\":5039:5283  function transferFrom(address from, address to, uint256 value) public virtual returns (bool) {... */\n    tag_6:\n      tag_28\n      0x04\n      dup1\n      calldatasize\n      sub\n      dup2\n      add\n      swap1\n      tag_29\n      swap2\n      swap1\n      tag_30\n      jump\t// in\n    tag_29:\n      tag_31\n      jump\t// in\n    tag_28:\n      mload(0x40)\n      tag_32\n      swap2\n      swap1\n      tag_23\n      jump\t// in\n    tag_32:\n      mload(0x40)\n      dup1\n      swap2\n      sub\n      swap1\n      return\n        /* \"node_modules/@openzeppelin/contracts/token/ERC20/ERC20.sol\":3002:3084  function decimals() public view virtual returns (uint8) {... */\n    tag_7:\n      tag_33\n      tag_34\n      jump\t// in\n    tag_33:\n      mload(0x40)\n      tag_35\n      swap2\n      swap1\n      tag_36\n      jump\t// in\n    tag_35:\n      mload(0x40)\n      dup1\n      swap2\n      sub\n      swap1\n      return\n        /* \"node_modules/@openzeppelin/contracts/token/ERC20/ERC20.sol\":3299:3415  function balanceOf(address account) public view virtual returns (uint256) {... */\n    tag_8:\n      tag_37\n      0x04\n      dup1\n      calldatasize\n      sub\n      dup2\n      add\n      swap1\n      tag_38\n      swap2\n      swap1\n      tag_39\n      jump\t// in\n    tag_38:\n      tag_40\n      jump\t// in\n    tag_37:\n      mload(0x40)\n      tag_41\n      swap2\n      swap1\n      tag_27\n      jump\t// in\n    tag_41:\n      mload(0x40)\n      dup1\n      swap2\n      sub\n      swap1\n      return\n        /* \"node_modules/@openzeppelin/contracts/token/ERC20/ERC20.sol\":2276:2369  function symbol() public view virtual returns (string memory) {... */\n    tag_9:\n      tag_42\n      tag_43\n      jump\t// in\n    tag_42:\n      mload(0x40)\n      tag_44\n      swap2\n      swap1\n      tag_17\n      jump\t// in\n    tag_44:\n      mload(0x40)\n      dup1\n      swap2\n      sub\n      swap1\n      return\n        /* \"contracts/test.sol\":259:288  uint256 public _adminLockTime */\n    tag_10:\n      tag_45\n      tag_46\n      jump\t// in\n    tag_45:\n      mload(0x40)\n      tag_47\n      swap2\n      swap1\n      tag_27\n      jump\t// in\n    tag_47:\n      mload(0x40)\n      dup1\n      swap2\n      sub\n      swap1\n      return\n        /* \"contracts/test.sol\":716:865  function transfer(... */\n    tag_11:\n      tag_48\n      0x04\n      dup1\n      calldatasize\n      sub\n      dup2\n      add\n      swap1\n      tag_49\n      swap2\n      swap1\n      tag_20\n      jump\t// in\n    tag_49:\n      tag_50\n      jump\t// in\n    tag_48:\n      mload(0x40)\n      tag_51\n      swap2\n      swap1\n      tag_23\n      jump\t// in\n    tag_51:\n      mload(0x40)\n      dup1\n      swap2\n      sub\n      swap1\n      return\n        /* \"node_modules/@openzeppelin/contracts/token/ERC20/ERC20.sol\":3846:3986  function allowance(address owner, address spender) public view virtual returns (uint256) {... */\n    tag_12:\n      tag_52\n      0x04\n      dup1\n      calldatasize\n      sub\n      dup2\n      add\n      swap1\n      tag_53\n      swap2\n      swap1\n      tag_54\n      jump\t// in\n    tag_53:\n      tag_55\n      jump\t// in\n    tag_52:\n      mload(0x40)\n      tag_56\n      swap2\n      swap1\n      tag_27\n      jump\t// in\n    tag_56:\n      mload(0x40)\n      dup1\n      swap2\n      sub\n      swap1\n      return\n        /* \"node_modules/@openzeppelin/contracts/token/ERC20/ERC20.sol\":2074:2163  function name() public view virtual returns (string memory) {... */\n    tag_15:\n        /* \"node_modules/@openzeppelin/contracts/token/ERC20/ERC20.sol\":2119:2132  string memory */\n      0x60\n        /* \"node_modules/@openzeppelin/contracts/token/ERC20/ERC20.sol\":2151:2156  _name */\n      0x03\n        /* \"node_modules/@openzeppelin/contracts/token/ERC20/ERC20.sol\":2144:2156  return _name */\n      dup1\n      sload\n      tag_58\n      swap1\n      tag_59\n      jump\t// in\n    tag_58:\n      dup1\n      0x1f\n      add\n      0x20\n      dup1\n      swap2\n      div\n      mul\n      0x20\n      add\n      mload(0x40)\n      swap1\n      dup2\n      add\n      0x40\n      mstore\n      dup1\n      swap3\n      swap2\n      swap1\n      dup2\n      dup2\n      mstore\n      0x20\n      add\n      dup3\n      dup1\n      sload\n      tag_60\n      swap1\n      tag_59\n      jump\t// in\n    tag_60:\n      dup1\n      iszero\n      tag_61\n      jumpi\n      dup1\n      0x1f\n      lt\n      tag_62\n      jumpi\n      0x0100\n      dup1\n      dup4\n      sload\n      div\n      mul\n      dup4\n      mstore\n      swap2\n      0x20\n      add\n      swap2\n      jump(tag_61)\n    tag_62:\n      dup3\n      add\n      swap2\n      swap1\n      0x00\n      mstore\n      keccak256(0x00, 0x20)\n      swap1\n    tag_63:\n      dup2\n      sload\n      dup2\n      mstore\n      swap1\n      0x01\n      add\n      swap1\n      0x20\n      add\n      dup1\n      dup4\n      gt\n      tag_63\n      jumpi\n      dup3\n      swap1\n      sub\n      0x1f\n      and\n      dup3\n      add\n      swap2\n    tag_61:\n      pop\n      pop\n      pop\n      pop\n      pop\n      swap1\n      pop\n        /* \"node_modules/@openzeppelin/contracts/token/ERC20/ERC20.sol\":2074:2163  function name() public view virtual returns (string memory) {... */\n      swap1\n      jump\t// out\n        /* \"node_modules/@openzeppelin/contracts/token/ERC20/ERC20.sol\":4293:4479  function approve(address spender, uint256 value) public virtual returns (bool) {... */\n    tag_21:\n        /* \"node_modules/@openzeppelin/contracts/token/ERC20/ERC20.sol\":4366:4370  bool */\n      0x00\n        /* \"node_modules/@openzeppelin/contracts/token/ERC20/ERC20.sol\":4382:4395  address owner */\n      dup1\n        /* \"node_modules/@openzeppelin/contracts/token/ERC20/ERC20.sol\":4398:4410  _msgSender() */\n      tag_65\n        /* \"node_modules/@openzeppelin/contracts/token/ERC20/ERC20.sol\":4398:4408  _msgSender */\n      tag_66\n        /* \"node_modules/@openzeppelin/contracts/token/ERC20/ERC20.sol\":4398:4410  _msgSender() */\n      jump\t// in\n    tag_65:\n        /* \"node_modules/@openzeppelin/contracts/token/ERC20/ERC20.sol\":4382:4410  address owner = _msgSender() */\n      swap1\n      pop\n        /* \"node_modules/@openzeppelin/contracts/token/ERC20/ERC20.sol\":4420:4451  _approve(owner, spender, value) */\n      tag_67\n        /* \"node_modules/@openzeppelin/contracts/token/ERC20/ERC20.sol\":4429:4434  owner */\n      dup2\n        /* \"node_modules/@openzeppelin/contracts/token/ERC20/ERC20.sol\":4436:4443  spender */\n      dup6\n        /* \"node_modules/@openzeppelin/contracts/token/ERC20/ERC20.sol\":4445:4450  value */\n      dup6\n        /* \"node_modules/@openzeppelin/contracts/token/ERC20/ERC20.sol\":4420:4428  _approve */\n      tag_68\n        /* \"node_modules/@openzeppelin/contracts/token/ERC20/ERC20.sol\":4420:4451  _approve(owner, spender, value) */\n      jump\t// in\n    tag_67:\n        /* \"node_modules/@openzeppelin/contracts/token/ERC20/ERC20.sol\":4468:4472  true */\n      0x01\n        /* \"node_modules/@openzeppelin/contracts/token/ERC20/ERC20.sol\":4461:4472  return true */\n      swap2\n      pop\n      pop\n        /* \"node_modules/@openzeppelin/contracts/token/ERC20/ERC20.sol\":4293:4479  function approve(address spender, uint256 value) public virtual returns (bool) {... */\n      swap3\n      swap2\n      pop\n      pop\n      jump\t// out\n        /* \"node_modules/@openzeppelin/contracts/token/ERC20/ERC20.sol\":3144:3241  function totalSupply() public view virtual returns (uint256) {... */\n    tag_25:\n        /* \"node_modules/@openzeppelin/contracts/token/ERC20/ERC20.sol\":3196:3203  uint256 */\n      0x00\n        /* \"node_modules/@openzeppelin/contracts/token/ERC20/ERC20.sol\":3222:3234  _totalSupply */\n      sload(0x02)\n        /* \"node_modules/@openzeppelin/contracts/token/ERC20/ERC20.sol\":3215:3234  return _totalSupply */\n      swap1\n      pop\n        /* \"node_modules/@openzeppelin/contracts/token/ERC20/ERC20.sol\":3144:3241  function totalSupply() public view virtual returns (uint256) {... */\n      swap1\n      jump\t// out\n        /* \"node_modules/@openzeppelin/contracts/token/ERC20/ERC20.sol\":5039:5283  function transferFrom(address from, address to, uint256 value) public virtual returns (bool) {... */\n    tag_31:\n        /* \"node_modules/@openzeppelin/contracts/token/ERC20/ERC20.sol\":5126:5130  bool */\n      0x00\n        /* \"node_modules/@openzeppelin/contracts/token/ERC20/ERC20.sol\":5142:5157  address spender */\n      dup1\n        /* \"node_modules/@openzeppelin/contracts/token/ERC20/ERC20.sol\":5160:5172  _msgSender() */\n      tag_71\n        /* \"node_modules/@openzeppelin/contracts/token/ERC20/ERC20.sol\":5160:5170  _msgSender */\n      tag_66\n        /* \"node_modules/@openzeppelin/contracts/token/ERC20/ERC20.sol\":5160:5172  _msgSender() */\n      jump\t// in\n    tag_71:\n        /* \"node_modules/@openzeppelin/contracts/token/ERC20/ERC20.sol\":5142:5172  address spender = _msgSender() */\n      swap1\n      pop\n        /* \"node_modules/@openzeppelin/contracts/token/ERC20/ERC20.sol\":5182:5219  _spendAllowance(from, spender, value) */\n      tag_72\n        /* \"node_modules/@openzeppelin/contracts/token/ERC20/ERC20.sol\":5198:5202  from */\n      dup6\n        /* \"node_modules/@openzeppelin/contracts/token/ERC20/ERC20.sol\":5204:5211  spender */\n      dup3\n        /* \"node_modules/@openzeppelin/contracts/token/ERC20/ERC20.sol\":5213:5218  value */\n      dup6\n        /* \"node_modules/@openzeppelin/contracts/token/ERC20/ERC20.sol\":5182:5197  _spendAllowance */\n      tag_73\n        /* \"node_modules/@openzeppelin/contracts/token/ERC20/ERC20.sol\":5182:5219  _spendAllowance(from, spender, value) */\n      jump\t// in\n    tag_72:\n        /* \"node_modules/@openzeppelin/contracts/token/ERC20/ERC20.sol\":5229:5255  _transfer(from, to, value) */\n      tag_74\n        /* \"node_modules/@openzeppelin/contracts/token/ERC20/ERC20.sol\":5239:5243  from */\n      dup6\n        /* \"node_modules/@openzeppelin/contracts/token/ERC20/ERC20.sol\":5245:5247  to */\n      dup6\n        /* \"node_modules/@openzeppelin/contracts/token/ERC20/ERC20.sol\":5249:5254  value */\n      dup6\n        /* \"node_modules/@openzeppelin/contracts/token/ERC20/ERC20.sol\":5229:5238  _transfer */\n      tag_75\n        /* \"node_modules/@openzeppelin/contracts/token/ERC20/ERC20.sol\":5229:5255  _transfer(from, to, value) */\n      jump\t// in\n    tag_74:\n        /* \"node_modules/@openzeppelin/contracts/token/ERC20/ERC20.sol\":5272:5276  true */\n      0x01\n        /* \"node_modules/@openzeppelin/contracts/token/ERC20/ERC20.sol\":5265:5276  return true */\n      swap2\n      pop\n      pop\n        /* \"node_modules/@openzeppelin/contracts/token/ERC20/ERC20.sol\":5039:5283  function transferFrom(address from, address to, uint256 value) public virtual returns (bool) {... */\n      swap4\n      swap3\n      pop\n      pop\n      pop\n      jump\t// out\n        /* \"node_modules/@openzeppelin/contracts/token/ERC20/ERC20.sol\":3002:3084  function decimals() public view virtual returns (uint8) {... */\n    tag_34:\n        /* \"node_modules/@openzeppelin/contracts/token/ERC20/ERC20.sol\":3051:3056  uint8 */\n      0x00\n        /* \"node_modules/@openzeppelin/contracts/token/ERC20/ERC20.sol\":3075:3077  18 */\n      0x12\n        /* \"node_modules/@openzeppelin/contracts/token/ERC20/ERC20.sol\":3068:3077  return 18 */\n      swap1\n      pop\n        /* \"node_modules/@openzeppelin/contracts/token/ERC20/ERC20.sol\":3002:3084  function decimals() public view virtual returns (uint8) {... */\n      swap1\n      jump\t// out\n        /* \"node_modules/@openzeppelin/contracts/token/ERC20/ERC20.sol\":3299:3415  function balanceOf(address account) public view virtual returns (uint256) {... */\n    tag_40:\n        /* \"node_modules/@openzeppelin/contracts/token/ERC20/ERC20.sol\":3364:3371  uint256 */\n      0x00\n        /* \"node_modules/@openzeppelin/contracts/token/ERC20/ERC20.sol\":3390:3399  _balances */\n      dup1\n        /* \"node_modules/@openzeppelin/contracts/token/ERC20/ERC20.sol\":3390:3408  _balances[account] */\n      0x00\n        /* \"node_modules/@openzeppelin/contracts/token/ERC20/ERC20.sol\":3400:3407  account */\n      dup4\n        /* \"node_modules/@openzeppelin/contracts/token/ERC20/ERC20.sol\":3390:3408  _balances[account] */\n      0xffffffffffffffffffffffffffffffffffffffff\n      and\n      0xffffffffffffffffffffffffffffffffffffffff\n      and\n      dup2\n      mstore\n      0x20\n      add\n      swap1\n      dup2\n      mstore\n      0x20\n      add\n      0x00\n      keccak256\n      sload\n        /* \"node_modules/@openzeppelin/contracts/token/ERC20/ERC20.sol\":3383:3408  return _balances[account] */\n      swap1\n      pop\n        /* \"node_modules/@openzeppelin/contracts/token/ERC20/ERC20.sol\":3299:3415  function balanceOf(address account) public view virtual returns (uint256) {... */\n      swap2\n      swap1\n      pop\n      jump\t// out\n        /* \"node_modules/@openzeppelin/contracts/token/ERC20/ERC20.sol\":2276:2369  function symbol() public view virtual returns (string memory) {... */\n    tag_43:\n        /* \"node_modules/@openzeppelin/contracts/token/ERC20/ERC20.sol\":2323:2336  string memory */\n      0x60\n        /* \"node_modules/@openzeppelin/contracts/token/ERC20/ERC20.sol\":2355:2362  _symbol */\n      0x04\n        /* \"node_modules/@openzeppelin/contracts/token/ERC20/ERC20.sol\":2348:2362  return _symbol */\n      dup1\n      sload\n      tag_79\n      swap1\n      tag_59\n      jump\t// in\n    tag_79:\n      dup1\n      0x1f\n      add\n      0x20\n      dup1\n      swap2\n      div\n      mul\n      0x20\n      add\n      mload(0x40)\n      swap1\n      dup2\n      add\n      0x40\n      mstore\n      dup1\n      swap3\n      swap2\n      swap1\n      dup2\n      dup2\n      mstore\n      0x20\n      add\n      dup3\n      dup1\n      sload\n      tag_80\n      swap1\n      tag_59\n      jump\t// in\n    tag_80:\n      dup1\n      iszero\n      tag_81\n      jumpi\n      dup1\n      0x1f\n      lt\n      tag_82\n      jumpi\n      0x0100\n      dup1\n      dup4\n      sload\n      div\n      mul\n      dup4\n      mstore\n      swap2\n      0x20\n      add\n      swap2\n      jump(tag_81)\n    tag_82:\n      dup3\n      add\n      swap2\n      swap1\n      0x00\n      mstore\n      keccak256(0x00, 0x20)\n      swap1\n    tag_83:\n      dup2\n      sload\n      dup2\n      mstore\n      swap1\n      0x01\n      add\n      swap1\n      0x20\n      add\n      dup1\n      dup4\n      gt\n      tag_83\n      jumpi\n      dup3\n      swap1\n      sub\n      0x1f\n      and\n      dup3\n      add\n      swap2\n    tag_81:\n      pop\n      pop\n      pop\n      pop\n      pop\n      swap1\n      pop\n        /* \"node_modules/@openzeppelin/contracts/token/ERC20/ERC20.sol\":2276:2369  function symbol() public view virtual returns (string memory) {... */\n      swap1\n      jump\t// out\n        /* \"contracts/test.sol\":259:288  uint256 public _adminLockTime */\n    tag_46:\n      sload(0x08)\n      dup2\n      jump\t// out\n        /* \"contracts/test.sol\":716:865  function transfer(... */\n    tag_50:\n        /* \"contracts/test.sol\":809:813  bool */\n      0x00\n        /* \"contracts/test.sol\":832:858  super.transfer(to, amount) */\n      tag_85\n        /* \"contracts/test.sol\":847:849  to */\n      dup4\n        /* \"contracts/test.sol\":851:857  amount */\n      dup4\n        /* \"contracts/test.sol\":832:846  super.transfer */\n      tag_86\n        /* \"contracts/test.sol\":832:858  super.transfer(to, amount) */\n      jump\t// in\n    tag_85:\n        /* \"contracts/test.sol\":825:858  return super.transfer(to, amount) */\n      swap1\n      pop\n        /* \"contracts/test.sol\":716:865  function transfer(... */\n      swap3\n      swap2\n      pop\n      pop\n      jump\t// out\n        /* \"node_modules/@openzeppelin/contracts/token/ERC20/ERC20.sol\":3846:3986  function allowance(address owner, address spender) public view virtual returns (uint256) {... */\n    tag_55:\n        /* \"node_modules/@openzeppelin/contracts/token/ERC20/ERC20.sol\":3926:3933  uint256 */\n      0x00\n        /* \"node_modules/@openzeppelin/contracts/token/ERC20/ERC20.sol\":3952:3963  _allowances */\n      0x01\n        /* \"node_modules/@openzeppelin/contracts/token/ERC20/ERC20.sol\":3952:3970  _allowances[owner] */\n      0x00\n        /* \"node_modules/@openzeppelin/contracts/token/ERC20/ERC20.sol\":3964:3969  owner */\n      dup5\n        /* \"node_modules/@openzeppelin/contracts/token/ERC20/ERC20.sol\":3952:3970  _allowances[owner] */\n      0xffffffffffffffffffffffffffffffffffffffff\n      and\n      0xffffffffffffffffffffffffffffffffffffffff\n      and\n      dup2\n      mstore\n      0x20\n      add\n      swap1\n      dup2\n      mstore\n      0x20\n      add\n      0x00\n      keccak256\n        /* \"node_modules/@openzeppelin/contracts/token/ERC20/ERC20.sol\":3952:3979  _allowances[owner][spender] */\n      0x00\n        /* \"node_modules/@openzeppelin/contracts/token/ERC20/ERC20.sol\":3971:3978  spender */\n      dup4\n        /* \"node_modules/@openzeppelin/contracts/token/ERC20/ERC20.sol\":3952:3979  _allowances[owner][spender] */\n      0xffffffffffffffffffffffffffffffffffffffff\n      and\n      0xffffffffffffffffffffffffffffffffffffffff\n      and\n      dup2\n      mstore\n      0x20\n      add\n      swap1\n      dup2\n      mstore\n      0x20\n      add\n      0x00\n      keccak256\n      sload\n        /* \"node_modules/@openzeppelin/contracts/token/ERC20/ERC20.sol\":3945:3979  return _allowances[owner][spender] */\n      swap1\n      pop\n        /* \"node_modules/@openzeppelin/contracts/token/ERC20/ERC20.sol\":3846:3986  function allowance(address owner, address spender) public view virtual returns (uint256) {... */\n      swap3\n      swap2\n      pop\n      pop\n      jump\t// out\n        /* \"node_modules/@openzeppelin/contracts/utils/Context.sol\":656:752  function _msgSender() internal view virtual returns (address) {... */\n    tag_66:\n        /* \"node_modules/@openzeppelin/contracts/utils/Context.sol\":709:716  address */\n      0x00\n        /* \"node_modules/@openzeppelin/contracts/utils/Context.sol\":735:745  msg.sender */\n      caller\n        /* \"node_modules/@openzeppelin/contracts/utils/Context.sol\":728:745  return msg.sender */\n      swap1\n      pop\n        /* \"node_modules/@openzeppelin/contracts/utils/Context.sol\":656:752  function _msgSender() internal view virtual returns (address) {... */\n      swap1\n      jump\t// out\n        /* \"node_modules/@openzeppelin/contracts/token/ERC20/ERC20.sol\":8989:9117  function _approve(address owner, address spender, uint256 value) internal {... */\n    tag_68:\n        /* \"node_modules/@openzeppelin/contracts/token/ERC20/ERC20.sol\":9073:9110  _approve(owner, spender, value, true) */\n      tag_90\n        /* \"node_modules/@openzeppelin/contracts/token/ERC20/ERC20.sol\":9082:9087  owner */\n      dup4\n        /* \"node_modules/@openzeppelin/contracts/token/ERC20/ERC20.sol\":9089:9096  spender */\n      dup4\n        /* \"node_modules/@openzeppelin/contracts/token/ERC20/ERC20.sol\":9098:9103  value */\n      dup4\n        /* \"node_modules/@openzeppelin/contracts/token/ERC20/ERC20.sol\":9105:9109  true */\n      0x01\n        /* \"node_modules/@openzeppelin/contracts/token/ERC20/ERC20.sol\":9073:9081  _approve */\n      tag_91\n        /* \"node_modules/@openzeppelin/contracts/token/ERC20/ERC20.sol\":9073:9110  _approve(owner, spender, value, true) */\n      jump\t// in\n    tag_90:\n        /* \"node_modules/@openzeppelin/contracts/token/ERC20/ERC20.sol\":8989:9117  function _approve(address owner, address spender, uint256 value) internal {... */\n      pop\n      pop\n      pop\n      jump\t// out\n        /* \"node_modules/@openzeppelin/contracts/token/ERC20/ERC20.sol\":10663:11140  function _spendAllowance(address owner, address spender, uint256 value) internal virtual {... */\n    tag_73:\n        /* \"node_modules/@openzeppelin/contracts/token/ERC20/ERC20.sol\":10762:10786  uint256 currentAllowance */\n      0x00\n        /* \"node_modules/@openzeppelin/contracts/token/ERC20/ERC20.sol\":10789:10814  allowance(owner, spender) */\n      tag_93\n        /* \"node_modules/@openzeppelin/contracts/token/ERC20/ERC20.sol\":10799:10804  owner */\n      dup5\n        /* \"node_modules/@openzeppelin/contracts/token/ERC20/ERC20.sol\":10806:10813  spender */\n      dup5\n        /* \"node_modules/@openzeppelin/contracts/token/ERC20/ERC20.sol\":10789:10798  allowance */\n      tag_55\n        /* \"node_modules/@openzeppelin/contracts/token/ERC20/ERC20.sol\":10789:10814  allowance(owner, spender) */\n      jump\t// in\n    tag_93:\n        /* \"node_modules/@openzeppelin/contracts/token/ERC20/ERC20.sol\":10762:10814  uint256 currentAllowance = allowance(owner, spender) */\n      swap1\n      pop\n        /* \"node_modules/@openzeppelin/contracts/token/ERC20/ERC20.sol\":10848:10865  type(uint256).max */\n      0xffffffffffffffffffffffffffffffffffffffffffffffffffffffffffffffff\n        /* \"node_modules/@openzeppelin/contracts/token/ERC20/ERC20.sol\":10828:10844  currentAllowance */\n      dup2\n        /* \"node_modules/@openzeppelin/contracts/token/ERC20/ERC20.sol\":10828:10865  currentAllowance != type(uint256).max */\n      eq\n        /* \"node_modules/@openzeppelin/contracts/token/ERC20/ERC20.sol\":10824:11134  if (currentAllowance != type(uint256).max) {... */\n      tag_94\n      jumpi\n        /* \"node_modules/@openzeppelin/contracts/token/ERC20/ERC20.sol\":10904:10909  value */\n      dup2\n        /* \"node_modules/@openzeppelin/contracts/token/ERC20/ERC20.sol\":10885:10901  currentAllowance */\n      dup2\n        /* \"node_modules/@openzeppelin/contracts/token/ERC20/ERC20.sol\":10885:10909  currentAllowance < value */\n      lt\n        /* \"node_modules/@openzeppelin/contracts/token/ERC20/ERC20.sol\":10881:11011  if (currentAllowance < value) {... */\n      iszero\n      tag_95\n      jumpi\n        /* \"node_modules/@openzeppelin/contracts/token/ERC20/ERC20.sol\":10963:10970  spender */\n      dup3\n        /* \"node_modules/@openzeppelin/contracts/token/ERC20/ERC20.sol\":10972:10988  currentAllowance */\n      dup2\n        /* \"node_modules/@openzeppelin/contracts/token/ERC20/ERC20.sol\":10990:10995  value */\n      dup4\n        /* \"node_modules/@openzeppelin/contracts/token/ERC20/ERC20.sol\":10936:10996  ERC20InsufficientAllowance(spender, currentAllowance, value) */\n      mload(0x40)\n      0xfb8f41b200000000000000000000000000000000000000000000000000000000\n      dup2\n      mstore\n      0x04\n      add\n      tag_96\n      swap4\n      swap3\n      swap2\n      swap1\n      tag_97\n      jump\t// in\n    tag_96:\n      mload(0x40)\n      dup1\n      swap2\n      sub\n      swap1\n      revert\n        /* \"node_modules/@openzeppelin/contracts/token/ERC20/ERC20.sol\":10881:11011  if (currentAllowance < value) {... */\n    tag_95:\n        /* \"node_modules/@openzeppelin/contracts/token/ERC20/ERC20.sol\":11052:11109  _approve(owner, spender, currentAllowance - value, false) */\n      tag_98\n        /* \"node_modules/@openzeppelin/contracts/token/ERC20/ERC20.sol\":11061:11066  owner */\n      dup5\n        /* \"node_modules/@openzeppelin/contracts/token/ERC20/ERC20.sol\":11068:11075  spender */\n      dup5\n        /* \"node_modules/@openzeppelin/contracts/token/ERC20/ERC20.sol\":11096:11101  value */\n      dup5\n        /* \"node_modules/@openzeppelin/contracts/token/ERC20/ERC20.sol\":11077:11093  currentAllowance */\n      dup5\n        /* \"node_modules/@openzeppelin/contracts/token/ERC20/ERC20.sol\":11077:11101  currentAllowance - value */\n      sub\n        /* \"node_modules/@openzeppelin/contracts/token/ERC20/ERC20.sol\":11103:11108  false */\n      0x00\n        /* \"node_modules/@openzeppelin/contracts/token/ERC20/ERC20.sol\":11052:11060  _approve */\n      tag_91\n        /* \"node_modules/@openzeppelin/contracts/token/ERC20/ERC20.sol\":11052:11109  _approve(owner, spender, currentAllowance - value, false) */\n      jump\t// in\n    tag_98:\n        /* \"node_modules/@openzeppelin/contracts/token/ERC20/ERC20.sol\":10824:11134  if (currentAllowance != type(uint256).max) {... */\n    tag_94:\n        /* \"node_modules/@openzeppelin/contracts/token/ERC20/ERC20.sol\":10752:11140  {... */\n      pop\n        /* \"node_modules/@openzeppelin/contracts/token/ERC20/ERC20.sol\":10663:11140  function _spendAllowance(address owner, address spender, uint256 value) internal virtual {... */\n      pop\n      pop\n      pop\n      jump\t// out\n        /* \"node_modules/@openzeppelin/contracts/token/ERC20/ERC20.sol\":5656:5956  function _transfer(address from, address to, uint256 value) internal {... */\n    tag_75:\n        /* \"node_modules/@openzeppelin/contracts/token/ERC20/ERC20.sol\":5755:5756  0 */\n      0x00\n        /* \"node_modules/@openzeppelin/contracts/token/ERC20/ERC20.sol\":5739:5757  from == address(0) */\n      0xffffffffffffffffffffffffffffffffffffffff\n      and\n        /* \"node_modules/@openzeppelin/contracts/token/ERC20/ERC20.sol\":5739:5743  from */\n      dup4\n        /* \"node_modules/@openzeppelin/contracts/token/ERC20/ERC20.sol\":5739:5757  from == address(0) */\n      0xffffffffffffffffffffffffffffffffffffffff\n      and\n      sub\n        /* \"node_modules/@openzeppelin/contracts/token/ERC20/ERC20.sol\":5735:5821  if (from == address(0)) {... */\n      tag_100\n      jumpi\n        /* \"node_modules/@openzeppelin/contracts/token/ERC20/ERC20.sol\":5807:5808  0 */\n      0x00\n        /* \"node_modules/@openzeppelin/contracts/token/ERC20/ERC20.sol\":5780:5810  ERC20InvalidSender(address(0)) */\n      mload(0x40)\n      0x96c6fd1e00000000000000000000000000000000000000000000000000000000\n      dup2\n      mstore\n      0x04\n      add\n      tag_101\n      swap2\n      swap1\n      tag_102\n      jump\t// in\n    tag_101:\n      mload(0x40)\n      dup1\n      swap2\n      sub\n      swap1\n      revert\n        /* \"node_modules/@openzeppelin/contracts/token/ERC20/ERC20.sol\":5735:5821  if (from == address(0)) {... */\n    tag_100:\n        /* \"node_modules/@openzeppelin/contracts/token/ERC20/ERC20.sol\":5848:5849  0 */\n      0x00\n        /* \"node_modules/@openzeppelin/contracts/token/ERC20/ERC20.sol\":5834:5850  to == address(0) */\n      0xffffffffffffffffffffffffffffffffffffffff\n      and\n        /* \"node_modules/@openzeppelin/contracts/token/ERC20/ERC20.sol\":5834:5836  to */\n      dup3\n        /* \"node_modules/@openzeppelin/contracts/token/ERC20/ERC20.sol\":5834:5850  to == address(0) */\n      0xffffffffffffffffffffffffffffffffffffffff\n      and\n      sub\n        /* \"node_modules/@openzeppelin/contracts/token/ERC20/ERC20.sol\":5830:5916  if (to == address(0)) {... */\n      tag_103\n      jumpi\n        /* \"node_modules/@openzeppelin/contracts/token/ERC20/ERC20.sol\":5902:5903  0 */\n      0x00\n        /* \"node_modules/@openzeppelin/contracts/token/ERC20/ERC20.sol\":5873:5905  ERC20InvalidReceiver(address(0)) */\n      mload(0x40)\n      0xec442f0500000000000000000000000000000000000000000000000000000000\n      dup2\n      mstore\n      0x04\n      add\n      tag_104\n      swap2\n      swap1\n      tag_102\n      jump\t// in\n    tag_104:\n      mload(0x40)\n      dup1\n      swap2\n      sub\n      swap1\n      revert\n        /* \"node_modules/@openzeppelin/contracts/token/ERC20/ERC20.sol\":5830:5916  if (to == address(0)) {... */\n    tag_103:\n        /* \"node_modules/@openzeppelin/contracts/token/ERC20/ERC20.sol\":5925:5949  _update(from, to, value) */\n      tag_105\n        /* \"node_modules/@openzeppelin/contracts/token/ERC20/ERC20.sol\":5933:5937  from */\n      dup4\n        /* \"node_modules/@openzeppelin/contracts/token/ERC20/ERC20.sol\":5939:5941  to */\n      dup4\n        /* \"node_modules/@openzeppelin/contracts/token/ERC20/ERC20.sol\":5943:5948  value */\n      dup4\n        /* \"node_modules/@openzeppelin/contracts/token/ERC20/ERC20.sol\":5925:5932  _update */\n      tag_106\n        /* \"node_modules/@openzeppelin/contracts/token/ERC20/ERC20.sol\":5925:5949  _update(from, to, value) */\n      jump\t// in\n    tag_105:\n        /* \"node_modules/@openzeppelin/contracts/token/ERC20/ERC20.sol\":5656:5956  function _transfer(address from, address to, uint256 value) internal {... */\n      pop\n      pop\n      pop\n      jump\t// out\n        /* \"node_modules/@openzeppelin/contracts/token/ERC20/ERC20.sol\":3610:3788  function transfer(address to, uint256 value) public virtual returns (bool) {... */\n    tag_86:\n        /* \"node_modules/@openzeppelin/contracts/token/ERC20/ERC20.sol\":3679:3683  bool */\n      0x00\n        /* \"node_modules/@openzeppelin/contracts/token/ERC20/ERC20.sol\":3695:3708  address owner */\n      dup1\n        /* \"node_modules/@openzeppelin/contracts/token/ERC20/ERC20.sol\":3711:3723  _msgSender() */\n      tag_108\n        /* \"node_modules/@openzeppelin/contracts/token/ERC20/ERC20.sol\":3711:3721  _msgSender */\n      tag_66\n        /* \"node_modules/@openzeppelin/contracts/token/ERC20/ERC20.sol\":3711:3723  _msgSender() */\n      jump\t// in\n    tag_108:\n        /* \"node_modules/@openzeppelin/contracts/token/ERC20/ERC20.sol\":3695:3723  address owner = _msgSender() */\n      swap1\n      pop\n        /* \"node_modules/@openzeppelin/contracts/token/ERC20/ERC20.sol\":3733:3760  _transfer(owner, to, value) */\n      tag_109\n        /* \"node_modules/@openzeppelin/contracts/token/ERC20/ERC20.sol\":3743:3748  owner */\n      dup2\n        /* \"node_modules/@openzeppelin/contracts/token/ERC20/ERC20.sol\":3750:3752  to */\n      dup6\n        /* \"node_modules/@openzeppelin/contracts/token/ERC20/ERC20.sol\":3754:3759  value */\n      dup6\n        /* \"node_modules/@openzeppelin/contracts/token/ERC20/ERC20.sol\":3733:3742  _transfer */\n      tag_75\n        /* \"node_modules/@openzeppelin/contracts/token/ERC20/ERC20.sol\":3733:3760  _transfer(owner, to, value) */\n      jump\t// in\n    tag_109:\n        /* \"node_modules/@openzeppelin/contracts/token/ERC20/ERC20.sol\":3777:3781  true */\n      0x01\n        /* \"node_modules/@openzeppelin/contracts/token/ERC20/ERC20.sol\":3770:3781  return true */\n      swap2\n      pop\n      pop\n        /* \"node_modules/@openzeppelin/contracts/token/ERC20/ERC20.sol\":3610:3788  function transfer(address to, uint256 value) public virtual returns (bool) {... */\n      swap3\n      swap2\n      pop\n      pop\n      jump\t// out\n        /* \"node_modules/@openzeppelin/contracts/token/ERC20/ERC20.sol\":9949:10381  function _approve(address owner, address spender, uint256 value, bool emitEvent) internal virtual {... */\n    tag_91:\n        /* \"node_modules/@openzeppelin/contracts/token/ERC20/ERC20.sol\":10078:10079  0 */\n      0x00\n        /* \"node_modules/@openzeppelin/contracts/token/ERC20/ERC20.sol\":10061:10080  owner == address(0) */\n      0xffffffffffffffffffffffffffffffffffffffff\n      and\n        /* \"node_modules/@openzeppelin/contracts/token/ERC20/ERC20.sol\":10061:10066  owner */\n      dup5\n        /* \"node_modules/@openzeppelin/contracts/token/ERC20/ERC20.sol\":10061:10080  owner == address(0) */\n      0xffffffffffffffffffffffffffffffffffffffff\n      and\n      sub\n        /* \"node_modules/@openzeppelin/contracts/token/ERC20/ERC20.sol\":10057:10146  if (owner == address(0)) {... */\n      tag_111\n      jumpi\n        /* \"node_modules/@openzeppelin/contracts/token/ERC20/ERC20.sol\":10132:10133  0 */\n      0x00\n        /* \"node_modules/@openzeppelin/contracts/token/ERC20/ERC20.sol\":10103:10135  ERC20InvalidApprover(address(0)) */\n      mload(0x40)\n      0xe602df0500000000000000000000000000000000000000000000000000000000\n      dup2\n      mstore\n      0x04\n      add\n      tag_112\n      swap2\n      swap1\n      tag_102\n      jump\t// in\n    tag_112:\n      mload(0x40)\n      dup1\n      swap2\n      sub\n      swap1\n      revert\n        /* \"node_modules/@openzeppelin/contracts/token/ERC20/ERC20.sol\":10057:10146  if (owner == address(0)) {... */\n    tag_111:\n        /* \"node_modules/@openzeppelin/contracts/token/ERC20/ERC20.sol\":10178:10179  0 */\n      0x00\n        /* \"node_modules/@openzeppelin/contracts/token/ERC20/ERC20.sol\":10159:10180  spender == address(0) */\n      0xffffffffffffffffffffffffffffffffffffffff\n      and\n        /* \"node_modules/@openzeppelin/contracts/token/ERC20/ERC20.sol\":10159:10166  spender */\n      dup4\n        /* \"node_modules/@openzeppelin/contracts/token/ERC20/ERC20.sol\":10159:10180  spender == address(0) */\n      0xffffffffffffffffffffffffffffffffffffffff\n      and\n      sub\n        /* \"node_modules/@openzeppelin/contracts/token/ERC20/ERC20.sol\":10155:10245  if (spender == address(0)) {... */\n      tag_113\n      jumpi\n        /* \"node_modules/@openzeppelin/contracts/token/ERC20/ERC20.sol\":10231:10232  0 */\n      0x00\n        /* \"node_modules/@openzeppelin/contracts/token/ERC20/ERC20.sol\":10203:10234  ERC20InvalidSpender(address(0)) */\n      mload(0x40)\n      0x94280d6200000000000000000000000000000000000000000000000000000000\n      dup2\n      mstore\n      0x04\n      add\n      tag_114\n      swap2\n      swap1\n      tag_102\n      jump\t// in\n    tag_114:\n      mload(0x40)\n      dup1\n      swap2\n      sub\n      swap1\n      revert\n        /* \"node_modules/@openzeppelin/contracts/token/ERC20/ERC20.sol\":10155:10245  if (spender == address(0)) {... */\n    tag_113:\n        /* \"node_modules/@openzeppelin/contracts/token/ERC20/ERC20.sol\":10284:10289  value */\n      dup2\n        /* \"node_modules/@openzeppelin/contracts/token/ERC20/ERC20.sol\":10254:10265  _allowances */\n      0x01\n        /* \"node_modules/@openzeppelin/contracts/token/ERC20/ERC20.sol\":10254:10272  _allowances[owner] */\n      0x00\n        /* \"node_modules/@openzeppelin/contracts/token/ERC20/ERC20.sol\":10266:10271  owner */\n      dup7\n        /* \"node_modules/@openzeppelin/contracts/token/ERC20/ERC20.sol\":10254:10272  _allowances[owner] */\n      0xffffffffffffffffffffffffffffffffffffffff\n      and\n      0xffffffffffffffffffffffffffffffffffffffff\n      and\n      dup2\n      mstore\n      0x20\n      add\n      swap1\n      dup2\n      mstore\n      0x20\n      add\n      0x00\n      keccak256\n        /* \"node_modules/@openzeppelin/contracts/token/ERC20/ERC20.sol\":10254:10281  _allowances[owner][spender] */\n      0x00\n        /* \"node_modules/@openzeppelin/contracts/token/ERC20/ERC20.sol\":10273:10280  spender */\n      dup6\n        /* \"node_modules/@openzeppelin/contracts/token/ERC20/ERC20.sol\":10254:10281  _allowances[owner][spender] */\n      0xffffffffffffffffffffffffffffffffffffffff\n      and\n      0xffffffffffffffffffffffffffffffffffffffff\n      and\n      dup2\n      mstore\n      0x20\n      add\n      swap1\n      dup2\n      mstore\n      0x20\n      add\n      0x00\n      keccak256\n        /* \"node_modules/@openzeppelin/contracts/token/ERC20/ERC20.sol\":10254:10289  _allowances[owner][spender] = value */\n      dup2\n      swap1\n      sstore\n      pop\n        /* \"node_modules/@openzeppelin/contracts/token/ERC20/ERC20.sol\":10303:10312  emitEvent */\n      dup1\n        /* \"node_modules/@openzeppelin/contracts/token/ERC20/ERC20.sol\":10299:10375  if (emitEvent) {... */\n      iszero\n      tag_115\n      jumpi\n        /* \"node_modules/@openzeppelin/contracts/token/ERC20/ERC20.sol\":10349:10356  spender */\n      dup3\n        /* \"node_modules/@openzeppelin/contracts/token/ERC20/ERC20.sol\":10333:10364  Approval(owner, spender, value) */\n      0xffffffffffffffffffffffffffffffffffffffff\n      and\n        /* \"node_modules/@openzeppelin/contracts/token/ERC20/ERC20.sol\":10342:10347  owner */\n      dup5\n        /* \"node_modules/@openzeppelin/contracts/token/ERC20/ERC20.sol\":10333:10364  Approval(owner, spender, value) */\n      0xffffffffffffffffffffffffffffffffffffffff\n      and\n      0x8c5be1e5ebec7d5bd14f71427d1e84f3dd0314c0f7b2291e5b200ac8c7c3b925\n        /* \"node_modules/@openzeppelin/contracts/token/ERC20/ERC20.sol\":10358:10363  value */\n      dup5\n        /* \"node_modules/@openzeppelin/contracts/token/ERC20/ERC20.sol\":10333:10364  Approval(owner, spender, value) */\n      mload(0x40)\n      tag_116\n      swap2\n      swap1\n      tag_27\n      jump\t// in\n    tag_116:\n      mload(0x40)\n      dup1\n      swap2\n      sub\n      swap1\n      log3\n        /* \"node_modules/@openzeppelin/contracts/token/ERC20/ERC20.sol\":10299:10375  if (emitEvent) {... */\n    tag_115:\n        /* \"node_modules/@openzeppelin/contracts/token/ERC20/ERC20.sol\":9949:10381  function _approve(address owner, address spender, uint256 value, bool emitEvent) internal virtual {... */\n      pop\n      pop\n      pop\n      pop\n      jump\t// out\n        /* \"node_modules/@openzeppelin/contracts/token/ERC20/ERC20.sol\":6271:7378  function _update(address from, address to, uint256 value) internal virtual {... */\n    tag_106:\n        /* \"node_modules/@openzeppelin/contracts/token/ERC20/ERC20.sol\":6376:6377  0 */\n      0x00\n        /* \"node_modules/@openzeppelin/contracts/token/ERC20/ERC20.sol\":6360:6378  from == address(0) */\n      0xffffffffffffffffffffffffffffffffffffffff\n      and\n        /* \"node_modules/@openzeppelin/contracts/token/ERC20/ERC20.sol\":6360:6364  from */\n      dup4\n        /* \"node_modules/@openzeppelin/contracts/token/ERC20/ERC20.sol\":6360:6378  from == address(0) */\n      0xffffffffffffffffffffffffffffffffffffffff\n      and\n      sub\n        /* \"node_modules/@openzeppelin/contracts/token/ERC20/ERC20.sol\":6356:6896  if (from == address(0)) {... */\n      tag_118\n      jumpi\n        /* \"node_modules/@openzeppelin/contracts/token/ERC20/ERC20.sol\":6512:6517  value */\n      dup1\n        /* \"node_modules/@openzeppelin/contracts/token/ERC20/ERC20.sol\":6496:6508  _totalSupply */\n      0x02\n      0x00\n        /* \"node_modules/@openzeppelin/contracts/token/ERC20/ERC20.sol\":6496:6517  _totalSupply += value */\n      dup3\n      dup3\n      sload\n      tag_119\n      swap2\n      swap1\n      tag_120\n      jump\t// in\n    tag_119:\n      swap3\n      pop\n      pop\n      dup2\n      swap1\n      sstore\n      pop\n        /* \"node_modules/@openzeppelin/contracts/token/ERC20/ERC20.sol\":6356:6896  if (from == address(0)) {... */\n      jump(tag_121)\n    tag_118:\n        /* \"node_modules/@openzeppelin/contracts/token/ERC20/ERC20.sol\":6548:6567  uint256 fromBalance */\n      0x00\n        /* \"node_modules/@openzeppelin/contracts/token/ERC20/ERC20.sol\":6570:6579  _balances */\n      dup1\n        /* \"node_modules/@openzeppelin/contracts/token/ERC20/ERC20.sol\":6570:6585  _balances[from] */\n      0x00\n        /* \"node_modules/@openzeppelin/contracts/token/ERC20/ERC20.sol\":6580:6584  from */\n      dup6\n        /* \"node_modules/@openzeppelin/contracts/token/ERC20/ERC20.sol\":6570:6585  _balances[from] */\n      0xffffffffffffffffffffffffffffffffffffffff\n      and\n      0xffffffffffffffffffffffffffffffffffffffff\n      and\n      dup2\n      mstore\n      0x20\n      add\n      swap1\n      dup2\n      mstore\n      0x20\n      add\n      0x00\n      keccak256\n      sload\n        /* \"node_modules/@openzeppelin/contracts/token/ERC20/ERC20.sol\":6548:6585  uint256 fromBalance = _balances[from] */\n      swap1\n      pop\n        /* \"node_modules/@openzeppelin/contracts/token/ERC20/ERC20.sol\":6617:6622  value */\n      dup2\n        /* \"node_modules/@openzeppelin/contracts/token/ERC20/ERC20.sol\":6603:6614  fromBalance */\n      dup2\n        /* \"node_modules/@openzeppelin/contracts/token/ERC20/ERC20.sol\":6603:6622  fromBalance < value */\n      lt\n        /* \"node_modules/@openzeppelin/contracts/token/ERC20/ERC20.sol\":6599:6714  if (fromBalance < value) {... */\n      iszero\n      tag_122\n      jumpi\n        /* \"node_modules/@openzeppelin/contracts/token/ERC20/ERC20.sol\":6674:6678  from */\n      dup4\n        /* \"node_modules/@openzeppelin/contracts/token/ERC20/ERC20.sol\":6680:6691  fromBalance */\n      dup2\n        /* \"node_modules/@openzeppelin/contracts/token/ERC20/ERC20.sol\":6693:6698  value */\n      dup4\n        /* \"node_modules/@openzeppelin/contracts/token/ERC20/ERC20.sol\":6649:6699  ERC20InsufficientBalance(from, fromBalance, value) */\n      mload(0x40)\n      0xe450d38c00000000000000000000000000000000000000000000000000000000\n      dup2\n      mstore\n      0x04\n      add\n      tag_123\n      swap4\n      swap3\n      swap2\n      swap1\n      tag_97\n      jump\t// in\n    tag_123:\n      mload(0x40)\n      dup1\n      swap2\n      sub\n      swap1\n      revert\n        /* \"node_modules/@openzeppelin/contracts/token/ERC20/ERC20.sol\":6599:6714  if (fromBalance < value) {... */\n    tag_122:\n        /* \"node_modules/@openzeppelin/contracts/token/ERC20/ERC20.sol\":6866:6871  value */\n      dup2\n        /* \"node_modules/@openzeppelin/contracts/token/ERC20/ERC20.sol\":6852:6863  fromBalance */\n      dup2\n        /* \"node_modules/@openzeppelin/contracts/token/ERC20/ERC20.sol\":6852:6871  fromBalance - value */\n      sub\n        /* \"node_modules/@openzeppelin/contracts/token/ERC20/ERC20.sol\":6834:6843  _balances */\n      0x00\n        /* \"node_modules/@openzeppelin/contracts/token/ERC20/ERC20.sol\":6834:6849  _balances[from] */\n      dup1\n        /* \"node_modules/@openzeppelin/contracts/token/ERC20/ERC20.sol\":6844:6848  from */\n      dup7\n        /* \"node_modules/@openzeppelin/contracts/token/ERC20/ERC20.sol\":6834:6849  _balances[from] */\n      0xffffffffffffffffffffffffffffffffffffffff\n      and\n      0xffffffffffffffffffffffffffffffffffffffff\n      and\n      dup2\n      mstore\n      0x20\n      add\n      swap1\n      dup2\n      mstore\n      0x20\n      add\n      0x00\n      keccak256\n        /* \"node_modules/@openzeppelin/contracts/token/ERC20/ERC20.sol\":6834:6871  _balances[from] = fromBalance - value */\n      dup2\n      swap1\n      sstore\n      pop\n        /* \"node_modules/@openzeppelin/contracts/token/ERC20/ERC20.sol\":6534:6896  {... */\n      pop\n        /* \"node_modules/@openzeppelin/contracts/token/ERC20/ERC20.sol\":6356:6896  if (from == address(0)) {... */\n    tag_121:\n        /* \"node_modules/@openzeppelin/contracts/token/ERC20/ERC20.sol\":6924:6925  0 */\n      0x00\n        /* \"node_modules/@openzeppelin/contracts/token/ERC20/ERC20.sol\":6910:6926  to == address(0) */\n      0xffffffffffffffffffffffffffffffffffffffff\n      and\n        /* \"node_modules/@openzeppelin/contracts/token/ERC20/ERC20.sol\":6910:6912  to */\n      dup3\n        /* \"node_modules/@openzeppelin/contracts/token/ERC20/ERC20.sol\":6910:6926  to == address(0) */\n      0xffffffffffffffffffffffffffffffffffffffff\n      and\n      sub\n        /* \"node_modules/@openzeppelin/contracts/token/ERC20/ERC20.sol\":6906:7331  if (to == address(0)) {... */\n      tag_124\n      jumpi\n        /* \"node_modules/@openzeppelin/contracts/token/ERC20/ERC20.sol\":7089:7094  value */\n      dup1\n        /* \"node_modules/@openzeppelin/contracts/token/ERC20/ERC20.sol\":7073:7085  _totalSupply */\n      0x02\n      0x00\n        /* \"node_modules/@openzeppelin/contracts/token/ERC20/ERC20.sol\":7073:7094  _totalSupply -= value */\n      dup3\n      dup3\n      sload\n      sub\n      swap3\n      pop\n      pop\n      dup2\n      swap1\n      sstore\n      pop\n        /* \"node_modules/@openzeppelin/contracts/token/ERC20/ERC20.sol\":6906:7331  if (to == address(0)) {... */\n      jump(tag_125)\n    tag_124:\n        /* \"node_modules/@openzeppelin/contracts/token/ERC20/ERC20.sol\":7301:7306  value */\n      dup1\n        /* \"node_modules/@openzeppelin/contracts/token/ERC20/ERC20.sol\":7284:7293  _balances */\n      0x00\n        /* \"node_modules/@openzeppelin/contracts/token/ERC20/ERC20.sol\":7284:7297  _balances[to] */\n      dup1\n        /* \"node_modules/@openzeppelin/contracts/token/ERC20/ERC20.sol\":7294:7296  to */\n      dup5\n        /* \"node_modules/@openzeppelin/contracts/token/ERC20/ERC20.sol\":7284:7297  _balances[to] */\n      0xffffffffffffffffffffffffffffffffffffffff\n      and\n      0xffffffffffffffffffffffffffffffffffffffff\n      and\n      dup2\n      mstore\n      0x20\n      add\n      swap1\n      dup2\n      mstore\n      0x20\n      add\n      0x00\n      keccak256\n      0x00\n        /* \"node_modules/@openzeppelin/contracts/token/ERC20/ERC20.sol\":7284:7306  _balances[to] += value */\n      dup3\n      dup3\n      sload\n      add\n      swap3\n      pop\n      pop\n      dup2\n      swap1\n      sstore\n      pop\n        /* \"node_modules/@openzeppelin/contracts/token/ERC20/ERC20.sol\":6906:7331  if (to == address(0)) {... */\n    tag_125:\n        /* \"node_modules/@openzeppelin/contracts/token/ERC20/ERC20.sol\":7361:7363  to */\n      dup2\n        /* \"node_modules/@openzeppelin/contracts/token/ERC20/ERC20.sol\":7346:7371  Transfer(from, to, value) */\n      0xffffffffffffffffffffffffffffffffffffffff\n      and\n        /* \"node_modules/@openzeppelin/contracts/token/ERC20/ERC20.sol\":7355:7359  from */\n      dup4\n        /* \"node_modules/@openzeppelin/contracts/token/ERC20/ERC20.sol\":7346:7371  Transfer(from, to, value) */\n      0xffffffffffffffffffffffffffffffffffffffff\n      and\n      0xddf252ad1be2c89b69c2b068fc378daa952ba7f163c4a11628f55a4df523b3ef\n        /* \"node_modules/@openzeppelin/contracts/token/ERC20/ERC20.sol\":7365:7370  value */\n      dup4\n        /* \"node_modules/@openzeppelin/contracts/token/ERC20/ERC20.sol\":7346:7371  Transfer(from, to, value) */\n      mload(0x40)\n      tag_126\n      swap2\n      swap1\n      tag_27\n      jump\t// in\n    tag_126:\n      mload(0x40)\n      dup1\n      swap2\n      sub\n      swap1\n      log3\n        /* \"node_modules/@openzeppelin/contracts/token/ERC20/ERC20.sol\":6271:7378  function _update(address from, address to, uint256 value) internal virtual {... */\n      pop\n      pop\n      pop\n      jump\t// out\n        /* \"#utility.yul\":7:106   */\n    tag_127:\n        /* \"#utility.yul\":59:65   */\n      0x00\n        /* \"#utility.yul\":93:98   */\n      dup2\n        /* \"#utility.yul\":87:99   */\n      mload\n        /* \"#utility.yul\":77:99   */\n      swap1\n      pop\n        /* \"#utility.yul\":7:106   */\n      swap2\n      swap1\n      pop\n      jump\t// out\n        /* \"#utility.yul\":112:281   */\n    tag_128:\n        /* \"#utility.yul\":196:207   */\n      0x00\n        /* \"#utility.yul\":230:236   */\n      dup3\n        /* \"#utility.yul\":225:228   */\n      dup3\n        /* \"#utility.yul\":218:237   */\n      mstore\n        /* \"#utility.yul\":270:274   */\n      0x20\n        /* \"#utility.yul\":265:268   */\n      dup3\n        /* \"#utility.yul\":261:275   */\n      add\n        /* \"#utility.yul\":246:275   */\n      swap1\n      pop\n        /* \"#utility.yul\":112:281   */\n      swap3\n      swap2\n      pop\n      pop\n      jump\t// out\n        /* \"#utility.yul\":287:533   */\n    tag_129:\n        /* \"#utility.yul\":368:369   */\n      0x00\n        /* \"#utility.yul\":378:491   */\n    tag_154:\n        /* \"#utility.yul\":392:398   */\n      dup4\n        /* \"#utility.yul\":389:390   */\n      dup2\n        /* \"#utility.yul\":386:399   */\n      lt\n        /* \"#utility.yul\":378:491   */\n      iszero\n      tag_156\n      jumpi\n        /* \"#utility.yul\":477:478   */\n      dup1\n        /* \"#utility.yul\":472:475   */\n      dup3\n        /* \"#utility.yul\":468:479   */\n      add\n        /* \"#utility.yul\":462:480   */\n      mload\n        /* \"#utility.yul\":458:459   */\n      dup2\n        /* \"#utility.yul\":453:456   */\n      dup5\n        /* \"#utility.yul\":449:460   */\n      add\n        /* \"#utility.yul\":442:481   */\n      mstore\n        /* \"#utility.yul\":414:416   */\n      0x20\n        /* \"#utility.yul\":411:412   */\n      dup2\n        /* \"#utility.yul\":407:417   */\n      add\n        /* \"#utility.yul\":402:417   */\n      swap1\n      pop\n        /* \"#utility.yul\":378:491   */\n      jump(tag_154)\n    tag_156:\n        /* \"#utility.yul\":525:526   */\n      0x00\n        /* \"#utility.yul\":516:522   */\n      dup5\n        /* \"#utility.yul\":511:514   */\n      dup5\n        /* \"#utility.yul\":507:523   */\n      add\n        /* \"#utility.yul\":500:527   */\n      mstore\n        /* \"#utility.yul\":349:533   */\n      pop\n        /* \"#utility.yul\":287:533   */\n      pop\n      pop\n      pop\n      jump\t// out\n        /* \"#utility.yul\":539:641   */\n    tag_130:\n        /* \"#utility.yul\":580:586   */\n      0x00\n        /* \"#utility.yul\":631:633   */\n      0x1f\n        /* \"#utility.yul\":627:634   */\n      not\n        /* \"#utility.yul\":622:624   */\n      0x1f\n        /* \"#utility.yul\":615:620   */\n      dup4\n        /* \"#utility.yul\":611:625   */\n      add\n        /* \"#utility.yul\":607:635   */\n      and\n        /* \"#utility.yul\":597:635   */\n      swap1\n      pop\n        /* \"#utility.yul\":539:641   */\n      swap2\n      swap1\n      pop\n      jump\t// out\n        /* \"#utility.yul\":647:1024   */\n    tag_131:\n        /* \"#utility.yul\":735:738   */\n      0x00\n        /* \"#utility.yul\":763:802   */\n      tag_159\n        /* \"#utility.yul\":796:801   */\n      dup3\n        /* \"#utility.yul\":763:802   */\n      tag_127\n      jump\t// in\n    tag_159:\n        /* \"#utility.yul\":818:889   */\n      tag_160\n        /* \"#utility.yul\":882:888   */\n      dup2\n        /* \"#utility.yul\":877:880   */\n      dup6\n        /* \"#utility.yul\":818:889   */\n      tag_128\n      jump\t// in\n    tag_160:\n        /* \"#utility.yul\":811:889   */\n      swap4\n      pop\n        /* \"#utility.yul\":898:963   */\n      tag_161\n        /* \"#utility.yul\":956:962   */\n      dup2\n        /* \"#utility.yul\":951:954   */\n      dup6\n        /* \"#utility.yul\":944:948   */\n      0x20\n        /* \"#utility.yul\":937:942   */\n      dup7\n        /* \"#utility.yul\":933:949   */\n      add\n        /* \"#utility.yul\":898:963   */\n      tag_129\n      jump\t// in\n    tag_161:\n        /* \"#utility.yul\":988:1017   */\n      tag_162\n        /* \"#utility.yul\":1010:1016   */\n      dup2\n        /* \"#utility.yul\":988:1017   */\n      tag_130\n      jump\t// in\n    tag_162:\n        /* \"#utility.yul\":983:986   */\n      dup5\n        /* \"#utility.yul\":979:1018   */\n      add\n        /* \"#utility.yul\":972:1018   */\n      swap2\n      pop\n        /* \"#utility.yul\":739:1024   */\n      pop\n        /* \"#utility.yul\":647:1024   */\n      swap3\n      swap2\n      pop\n      pop\n      jump\t// out\n        /* \"#utility.yul\":1030:1343   */\n    tag_17:\n        /* \"#utility.yul\":1143:1147   */\n      0x00\n        /* \"#utility.yul\":1181:1183   */\n      0x20\n        /* \"#utility.yul\":1170:1179   */\n      dup3\n        /* \"#utility.yul\":1166:1184   */\n      add\n        /* \"#utility.yul\":1158:1184   */\n      swap1\n      pop\n        /* \"#utility.yul\":1230:1239   */\n      dup2\n        /* \"#utility.yul\":1224:1228   */\n      dup2\n        /* \"#utility.yul\":1220:1240   */\n      sub\n        /* \"#utility.yul\":1216:1217   */\n      0x00\n        /* \"#utility.yul\":1205:1214   */\n      dup4\n        /* \"#utility.yul\":1201:1218   */\n      add\n        /* \"#utility.yul\":1194:1241   */\n      mstore\n        /* \"#utility.yul\":1258:1336   */\n      tag_164\n        /* \"#utility.yul\":1331:1335   */\n      dup2\n        /* \"#utility.yul\":1322:1328   */\n      dup5\n        /* \"#utility.yul\":1258:1336   */\n      tag_131\n      jump\t// in\n    tag_164:\n        /* \"#utility.yul\":1250:1336   */\n      swap1\n      pop\n        /* \"#utility.yul\":1030:1343   */\n      swap3\n      swap2\n      pop\n      pop\n      jump\t// out\n        /* \"#utility.yul\":1430:1547   */\n    tag_133:\n        /* \"#utility.yul\":1539:1540   */\n      0x00\n        /* \"#utility.yul\":1536:1537   */\n      dup1\n        /* \"#utility.yul\":1529:1541   */\n      revert\n        /* \"#utility.yul\":1676:1802   */\n    tag_135:\n        /* \"#utility.yul\":1713:1720   */\n      0x00\n        /* \"#utility.yul\":1753:1795   */\n      0xffffffffffffffffffffffffffffffffffffffff\n        /* \"#utility.yul\":1746:1751   */\n      dup3\n        /* \"#utility.yul\":1742:1796   */\n      and\n        /* \"#utility.yul\":1731:1796   */\n      swap1\n      pop\n        /* \"#utility.yul\":1676:1802   */\n      swap2\n      swap1\n      pop\n      jump\t// out\n        /* \"#utility.yul\":1808:1904   */\n    tag_136:\n        /* \"#utility.yul\":1845:1852   */\n      0x00\n        /* \"#utility.yul\":1874:1898   */\n      tag_170\n        /* \"#utility.yul\":1892:1897   */\n      dup3\n        /* \"#utility.yul\":1874:1898   */\n      tag_135\n      jump\t// in\n    tag_170:\n        /* \"#utility.yul\":1863:1898   */\n      swap1\n      pop\n        /* \"#utility.yul\":1808:1904   */\n      swap2\n      swap1\n      pop\n      jump\t// out\n        /* \"#utility.yul\":1910:2032   */\n    tag_137:\n        /* \"#utility.yul\":1983:2007   */\n      tag_172\n        /* \"#utility.yul\":2001:2006   */\n      dup2\n        /* \"#utility.yul\":1983:2007   */\n      tag_136\n      jump\t// in\n    tag_172:\n        /* \"#utility.yul\":1976:1981   */\n      dup2\n        /* \"#utility.yul\":1973:2008   */\n      eq\n        /* \"#utility.yul\":1963:2026   */\n      tag_173\n      jumpi\n        /* \"#utility.yul\":2022:2023   */\n      0x00\n        /* \"#utility.yul\":2019:2020   */\n      dup1\n        /* \"#utility.yul\":2012:2024   */\n      revert\n        /* \"#utility.yul\":1963:2026   */\n    tag_173:\n        /* \"#utility.yul\":1910:2032   */\n      pop\n      jump\t// out\n        /* \"#utility.yul\":2038:2177   */\n    tag_138:\n        /* \"#utility.yul\":2084:2089   */\n      0x00\n        /* \"#utility.yul\":2122:2128   */\n      dup2\n        /* \"#utility.yul\":2109:2129   */\n      calldataload\n        /* \"#utility.yul\":2100:2129   */\n      swap1\n      pop\n        /* \"#utility.yul\":2138:2171   */\n      tag_175\n        /* \"#utility.yul\":2165:2170   */\n      dup2\n        /* \"#utility.yul\":2138:2171   */\n      tag_137\n      jump\t// in\n    tag_175:\n        /* \"#utility.yul\":2038:2177   */\n      swap3\n      swap2\n      pop\n      pop\n      jump\t// out\n        /* \"#utility.yul\":2183:2260   */\n    tag_139:\n        /* \"#utility.yul\":2220:2227   */\n      0x00\n        /* \"#utility.yul\":2249:2254   */\n      dup2\n        /* \"#utility.yul\":2238:2254   */\n      swap1\n      pop\n        /* \"#utility.yul\":2183:2260   */\n      swap2\n      swap1\n      pop\n      jump\t// out\n        /* \"#utility.yul\":2266:2388   */\n    tag_140:\n        /* \"#utility.yul\":2339:2363   */\n      tag_178\n        /* \"#utility.yul\":2357:2362   */\n      dup2\n        /* \"#utility.yul\":2339:2363   */\n      tag_139\n      jump\t// in\n    tag_178:\n        /* \"#utility.yul\":2332:2337   */\n      dup2\n        /* \"#utility.yul\":2329:2364   */\n      eq\n        /* \"#utility.yul\":2319:2382   */\n      tag_179\n      jumpi\n        /* \"#utility.yul\":2378:2379   */\n      0x00\n        /* \"#utility.yul\":2375:2376   */\n      dup1\n        /* \"#utility.yul\":2368:2380   */\n      revert\n        /* \"#utility.yul\":2319:2382   */\n    tag_179:\n        /* \"#utility.yul\":2266:2388   */\n      pop\n      jump\t// out\n        /* \"#utility.yul\":2394:2533   */\n    tag_141:\n        /* \"#utility.yul\":2440:2445   */\n      0x00\n        /* \"#utility.yul\":2478:2484   */\n      dup2\n        /* \"#utility.yul\":2465:2485   */\n      calldataload\n        /* \"#utility.yul\":2456:2485   */\n      swap1\n      pop\n        /* \"#utility.yul\":2494:2527   */\n      tag_181\n        /* \"#utility.yul\":2521:2526   */\n      dup2\n        /* \"#utility.yul\":2494:2527   */\n      tag_140\n      jump\t// in\n    tag_181:\n        /* \"#utility.yul\":2394:2533   */\n      swap3\n      swap2\n      pop\n      pop\n      jump\t// out\n        /* \"#utility.yul\":2539:3013   */\n    tag_20:\n        /* \"#utility.yul\":2607:2613   */\n      0x00\n        /* \"#utility.yul\":2615:2621   */\n      dup1\n        /* \"#utility.yul\":2664:2666   */\n      0x40\n        /* \"#utility.yul\":2652:2661   */\n      dup4\n        /* \"#utility.yul\":2643:2650   */\n      dup6\n        /* \"#utility.yul\":2639:2662   */\n      sub\n        /* \"#utility.yul\":2635:2667   */\n      slt\n        /* \"#utility.yul\":2632:2751   */\n      iszero\n      tag_183\n      jumpi\n        /* \"#utility.yul\":2670:2749   */\n      tag_184\n      tag_133\n      jump\t// in\n    tag_184:\n        /* \"#utility.yul\":2632:2751   */\n    tag_183:\n        /* \"#utility.yul\":2790:2791   */\n      0x00\n        /* \"#utility.yul\":2815:2868   */\n      tag_185\n        /* \"#utility.yul\":2860:2867   */\n      dup6\n        /* \"#utility.yul\":2851:2857   */\n      dup3\n        /* \"#utility.yul\":2840:2849   */\n      dup7\n        /* \"#utility.yul\":2836:2858   */\n      add\n        /* \"#utility.yul\":2815:2868   */\n      tag_138\n      jump\t// in\n    tag_185:\n        /* \"#utility.yul\":2805:2868   */\n      swap3\n      pop\n        /* \"#utility.yul\":2761:2878   */\n      pop\n        /* \"#utility.yul\":2917:2919   */\n      0x20\n        /* \"#utility.yul\":2943:2996   */\n      tag_186\n        /* \"#utility.yul\":2988:2995   */\n      dup6\n        /* \"#utility.yul\":2979:2985   */\n      dup3\n        /* \"#utility.yul\":2968:2977   */\n      dup7\n        /* \"#utility.yul\":2964:2986   */\n      add\n        /* \"#utility.yul\":2943:2996   */\n      tag_141\n      jump\t// in\n    tag_186:\n        /* \"#utility.yul\":2933:2996   */\n      swap2\n      pop\n        /* \"#utility.yul\":2888:3006   */\n      pop\n        /* \"#utility.yul\":2539:3013   */\n      swap3\n      pop\n      swap3\n      swap1\n      pop\n      jump\t// out\n        /* \"#utility.yul\":3019:3109   */\n    tag_142:\n        /* \"#utility.yul\":3053:3060   */\n      0x00\n        /* \"#utility.yul\":3096:3101   */\n      dup2\n        /* \"#utility.yul\":3089:3102   */\n      iszero\n        /* \"#utility.yul\":3082:3103   */\n      iszero\n        /* \"#utility.yul\":3071:3103   */\n      swap1\n      pop\n        /* \"#utility.yul\":3019:3109   */\n      swap2\n      swap1\n      pop\n      jump\t// out\n        /* \"#utility.yul\":3115:3224   */\n    tag_143:\n        /* \"#utility.yul\":3196:3217   */\n      tag_189\n        /* \"#utility.yul\":3211:3216   */\n      dup2\n        /* \"#utility.yul\":3196:3217   */\n      tag_142\n      jump\t// in\n    tag_189:\n        /* \"#utility.yul\":3191:3194   */\n      dup3\n        /* \"#utility.yul\":3184:3218   */\n      mstore\n        /* \"#utility.yul\":3115:3224   */\n      pop\n      pop\n      jump\t// out\n        /* \"#utility.yul\":3230:3440   */\n    tag_23:\n        /* \"#utility.yul\":3317:3321   */\n      0x00\n        /* \"#utility.yul\":3355:3357   */\n      0x20\n        /* \"#utility.yul\":3344:3353   */\n      dup3\n        /* \"#utility.yul\":3340:3358   */\n      add\n        /* \"#utility.yul\":3332:3358   */\n      swap1\n      pop\n        /* \"#utility.yul\":3368:3433   */\n      tag_191\n        /* \"#utility.yul\":3430:3431   */\n      0x00\n        /* \"#utility.yul\":3419:3428   */\n      dup4\n        /* \"#utility.yul\":3415:3432   */\n      add\n        /* \"#utility.yul\":3406:3412   */\n      dup5\n        /* \"#utility.yul\":3368:3433   */\n      tag_143\n      jump\t// in\n    tag_191:\n        /* \"#utility.yul\":3230:3440   */\n      swap3\n      swap2\n      pop\n      pop\n      jump\t// out\n        /* \"#utility.yul\":3446:3564   */\n    tag_144:\n        /* \"#utility.yul\":3533:3557   */\n      tag_193\n        /* \"#utility.yul\":3551:3556   */\n      dup2\n        /* \"#utility.yul\":3533:3557   */\n      tag_139\n      jump\t// in\n    tag_193:\n        /* \"#utility.yul\":3528:3531   */\n      dup3\n        /* \"#utility.yul\":3521:3558   */\n      mstore\n        /* \"#utility.yul\":3446:3564   */\n      pop\n      pop\n      jump\t// out\n        /* \"#utility.yul\":3570:3792   */\n    tag_27:\n        /* \"#utility.yul\":3663:3667   */\n      0x00\n        /* \"#utility.yul\":3701:3703   */\n      0x20\n        /* \"#utility.yul\":3690:3699   */\n      dup3\n        /* \"#utility.yul\":3686:3704   */\n      add\n        /* \"#utility.yul\":3678:3704   */\n      swap1\n      pop\n        /* \"#utility.yul\":3714:3785   */\n      tag_195\n        /* \"#utility.yul\":3782:3783   */\n      0x00\n        /* \"#utility.yul\":3771:3780   */\n      dup4\n        /* \"#utility.yul\":3767:3784   */\n      add\n        /* \"#utility.yul\":3758:3764   */\n      dup5\n        /* \"#utility.yul\":3714:3785   */\n      tag_144\n      jump\t// in\n    tag_195:\n        /* \"#utility.yul\":3570:3792   */\n      swap3\n      swap2\n      pop\n      pop\n      jump\t// out\n        /* \"#utility.yul\":3798:4417   */\n    tag_30:\n        /* \"#utility.yul\":3875:3881   */\n      0x00\n        /* \"#utility.yul\":3883:3889   */\n      dup1\n        /* \"#utility.yul\":3891:3897   */\n      0x00\n        /* \"#utility.yul\":3940:3942   */\n      0x60\n        /* \"#utility.yul\":3928:3937   */\n      dup5\n        /* \"#utility.yul\":3919:3926   */\n      dup7\n        /* \"#utility.yul\":3915:3938   */\n      sub\n        /* \"#utility.yul\":3911:3943   */\n      slt\n        /* \"#utility.yul\":3908:4027   */\n      iszero\n      tag_197\n      jumpi\n        /* \"#utility.yul\":3946:4025   */\n      tag_198\n      tag_133\n      jump\t// in\n    tag_198:\n        /* \"#utility.yul\":3908:4027   */\n    tag_197:\n        /* \"#utility.yul\":4066:4067   */\n      0x00\n        /* \"#utility.yul\":4091:4144   */\n      tag_199\n        /* \"#utility.yul\":4136:4143   */\n      dup7\n        /* \"#utility.yul\":4127:4133   */\n      dup3\n        /* \"#utility.yul\":4116:4125   */\n      dup8\n        /* \"#utility.yul\":4112:4134   */\n      add\n        /* \"#utility.yul\":4091:4144   */\n      tag_138\n      jump\t// in\n    tag_199:\n        /* \"#utility.yul\":4081:4144   */\n      swap4\n      pop\n        /* \"#utility.yul\":4037:4154   */\n      pop\n        /* \"#utility.yul\":4193:4195   */\n      0x20\n        /* \"#utility.yul\":4219:4272   */\n      tag_200\n        /* \"#utility.yul\":4264:4271   */\n      dup7\n        /* \"#utility.yul\":4255:4261   */\n      dup3\n        /* \"#utility.yul\":4244:4253   */\n      dup8\n        /* \"#utility.yul\":4240:4262   */\n      add\n        /* \"#utility.yul\":4219:4272   */\n      tag_138\n      jump\t// in\n    tag_200:\n        /* \"#utility.yul\":4209:4272   */\n      swap3\n      pop\n        /* \"#utility.yul\":4164:4282   */\n      pop\n        /* \"#utility.yul\":4321:4323   */\n      0x40\n        /* \"#utility.yul\":4347:4400   */\n      tag_201\n        /* \"#utility.yul\":4392:4399   */\n      dup7\n        /* \"#utility.yul\":4383:4389   */\n      dup3\n        /* \"#utility.yul\":4372:4381   */\n      dup8\n        /* \"#utility.yul\":4368:4390   */\n      add\n        /* \"#utility.yul\":4347:4400   */\n      tag_141\n      jump\t// in\n    tag_201:\n        /* \"#utility.yul\":4337:4400   */\n      swap2\n      pop\n        /* \"#utility.yul\":4292:4410   */\n      pop\n        /* \"#utility.yul\":3798:4417   */\n      swap3\n      pop\n      swap3\n      pop\n      swap3\n      jump\t// out\n        /* \"#utility.yul\":4423:4509   */\n    tag_145:\n        /* \"#utility.yul\":4458:4465   */\n      0x00\n        /* \"#utility.yul\":4498:4502   */\n      0xff\n        /* \"#utility.yul\":4491:4496   */\n      dup3\n        /* \"#utility.yul\":4487:4503   */\n      and\n        /* \"#utility.yul\":4476:4503   */\n      swap1\n      pop\n        /* \"#utility.yul\":4423:4509   */\n      swap2\n      swap1\n      pop\n      jump\t// out\n        /* \"#utility.yul\":4515:4627   */\n    tag_146:\n        /* \"#utility.yul\":4598:4620   */\n      tag_204\n        /* \"#utility.yul\":4614:4619   */\n      dup2\n        /* \"#utility.yul\":4598:4620   */\n      tag_145\n      jump\t// in\n    tag_204:\n        /* \"#utility.yul\":4593:4596   */\n      dup3\n        /* \"#utility.yul\":4586:4621   */\n      mstore\n        /* \"#utility.yul\":4515:4627   */\n      pop\n      pop\n      jump\t// out\n        /* \"#utility.yul\":4633:4847   */\n    tag_36:\n        /* \"#utility.yul\":4722:4726   */\n      0x00\n        /* \"#utility.yul\":4760:4762   */\n      0x20\n        /* \"#utility.yul\":4749:4758   */\n      dup3\n        /* \"#utility.yul\":4745:4763   */\n      add\n        /* \"#utility.yul\":4737:4763   */\n      swap1\n      pop\n        /* \"#utility.yul\":4773:4840   */\n      tag_206\n        /* \"#utility.yul\":4837:4838   */\n      0x00\n        /* \"#utility.yul\":4826:4835   */\n      dup4\n        /* \"#utility.yul\":4822:4839   */\n      add\n        /* \"#utility.yul\":4813:4819   */\n      dup5\n        /* \"#utility.yul\":4773:4840   */\n      tag_146\n      jump\t// in\n    tag_206:\n        /* \"#utility.yul\":4633:4847   */\n      swap3\n      swap2\n      pop\n      pop\n      jump\t// out\n        /* \"#utility.yul\":4853:5182   */\n    tag_39:\n        /* \"#utility.yul\":4912:4918   */\n      0x00\n        /* \"#utility.yul\":4961:4963   */\n      0x20\n        /* \"#utility.yul\":4949:4958   */\n      dup3\n        /* \"#utility.yul\":4940:4947   */\n      dup5\n        /* \"#utility.yul\":4936:4959   */\n      sub\n        /* \"#utility.yul\":4932:4964   */\n      slt\n        /* \"#utility.yul\":4929:5048   */\n      iszero\n      tag_208\n      jumpi\n        /* \"#utility.yul\":4967:5046   */\n      tag_209\n      tag_133\n      jump\t// in\n    tag_209:\n        /* \"#utility.yul\":4929:5048   */\n    tag_208:\n        /* \"#utility.yul\":5087:5088   */\n      0x00\n        /* \"#utility.yul\":5112:5165   */\n      tag_210\n        /* \"#utility.yul\":5157:5164   */\n      dup5\n        /* \"#utility.yul\":5148:5154   */\n      dup3\n        /* \"#utility.yul\":5137:5146   */\n      dup6\n        /* \"#utility.yul\":5133:5155   */\n      add\n        /* \"#utility.yul\":5112:5165   */\n      tag_138\n      jump\t// in\n    tag_210:\n        /* \"#utility.yul\":5102:5165   */\n      swap2\n      pop\n        /* \"#utility.yul\":5058:5175   */\n      pop\n        /* \"#utility.yul\":4853:5182   */\n      swap3\n      swap2\n      pop\n      pop\n      jump\t// out\n        /* \"#utility.yul\":5188:5662   */\n    tag_54:\n        /* \"#utility.yul\":5256:5262   */\n      0x00\n        /* \"#utility.yul\":5264:5270   */\n      dup1\n        /* \"#utility.yul\":5313:5315   */\n      0x40\n        /* \"#utility.yul\":5301:5310   */\n      dup4\n        /* \"#utility.yul\":5292:5299   */\n      dup6\n        /* \"#utility.yul\":5288:5311   */\n      sub\n        /* \"#utility.yul\":5284:5316   */\n      slt\n        /* \"#utility.yul\":5281:5400   */\n      iszero\n      tag_212\n      jumpi\n        /* \"#utility.yul\":5319:5398   */\n      tag_213\n      tag_133\n      jump\t// in\n    tag_213:\n        /* \"#utility.yul\":5281:5400   */\n    tag_212:\n        /* \"#utility.yul\":5439:5440   */\n      0x00\n        /* \"#utility.yul\":5464:5517   */\n      tag_214\n        /* \"#utility.yul\":5509:5516   */\n      dup6\n        /* \"#utility.yul\":5500:5506   */\n      dup3\n        /* \"#utility.yul\":5489:5498   */\n      dup7\n        /* \"#utility.yul\":5485:5507   */\n      add\n        /* \"#utility.yul\":5464:5517   */\n      tag_138\n      jump\t// in\n    tag_214:\n        /* \"#utility.yul\":5454:5517   */\n      swap3\n      pop\n        /* \"#utility.yul\":5410:5527   */\n      pop\n        /* \"#utility.yul\":5566:5568   */\n      0x20\n        /* \"#utility.yul\":5592:5645   */\n      tag_215\n        /* \"#utility.yul\":5637:5644   */\n      dup6\n        /* \"#utility.yul\":5628:5634   */\n      dup3\n        /* \"#utility.yul\":5617:5626   */\n      dup7\n        /* \"#utility.yul\":5613:5635   */\n      add\n        /* \"#utility.yul\":5592:5645   */\n      tag_138\n      jump\t// in\n    tag_215:\n        /* \"#utility.yul\":5582:5645   */\n      swap2\n      pop\n        /* \"#utility.yul\":5537:5655   */\n      pop\n        /* \"#utility.yul\":5188:5662   */\n      swap3\n      pop\n      swap3\n      swap1\n      pop\n      jump\t// out\n        /* \"#utility.yul\":5668:5848   */\n    tag_147:\n        /* \"#utility.yul\":5716:5793   */\n      0x4e487b7100000000000000000000000000000000000000000000000000000000\n        /* \"#utility.yul\":5713:5714   */\n      0x00\n        /* \"#utility.yul\":5706:5794   */\n      mstore\n        /* \"#utility.yul\":5813:5817   */\n      0x22\n        /* \"#utility.yul\":5810:5811   */\n      0x04\n        /* \"#utility.yul\":5803:5818   */\n      mstore\n        /* \"#utility.yul\":5837:5841   */\n      0x24\n        /* \"#utility.yul\":5834:5835   */\n      0x00\n        /* \"#utility.yul\":5827:5842   */\n      revert\n        /* \"#utility.yul\":5854:6174   */\n    tag_59:\n        /* \"#utility.yul\":5898:5904   */\n      0x00\n        /* \"#utility.yul\":5935:5936   */\n      0x02\n        /* \"#utility.yul\":5929:5933   */\n      dup3\n        /* \"#utility.yul\":5925:5937   */\n      div\n        /* \"#utility.yul\":5915:5937   */\n      swap1\n      pop\n        /* \"#utility.yul\":5982:5983   */\n      0x01\n        /* \"#utility.yul\":5976:5980   */\n      dup3\n        /* \"#utility.yul\":5972:5984   */\n      and\n        /* \"#utility.yul\":6003:6021   */\n      dup1\n        /* \"#utility.yul\":5993:6074   */\n      tag_218\n      jumpi\n        /* \"#utility.yul\":6059:6063   */\n      0x7f\n        /* \"#utility.yul\":6051:6057   */\n      dup3\n        /* \"#utility.yul\":6047:6064   */\n      and\n        /* \"#utility.yul\":6037:6064   */\n      swap2\n      pop\n        /* \"#utility.yul\":5993:6074   */\n    tag_218:\n        /* \"#utility.yul\":6121:6123   */\n      0x20\n        /* \"#utility.yul\":6113:6119   */\n      dup3\n        /* \"#utility.yul\":6110:6124   */\n      lt\n        /* \"#utility.yul\":6090:6108   */\n      dup2\n        /* \"#utility.yul\":6087:6125   */\n      sub\n        /* \"#utility.yul\":6084:6168   */\n      tag_219\n      jumpi\n        /* \"#utility.yul\":6140:6158   */\n      tag_220\n      tag_147\n      jump\t// in\n    tag_220:\n        /* \"#utility.yul\":6084:6168   */\n    tag_219:\n        /* \"#utility.yul\":5905:6174   */\n      pop\n        /* \"#utility.yul\":5854:6174   */\n      swap2\n      swap1\n      pop\n      jump\t// out\n        /* \"#utility.yul\":6180:6298   */\n    tag_148:\n        /* \"#utility.yul\":6267:6291   */\n      tag_222\n        /* \"#utility.yul\":6285:6290   */\n      dup2\n        /* \"#utility.yul\":6267:6291   */\n      tag_136\n      jump\t// in\n    tag_222:\n        /* \"#utility.yul\":6262:6265   */\n      dup3\n        /* \"#utility.yul\":6255:6292   */\n      mstore\n        /* \"#utility.yul\":6180:6298   */\n      pop\n      pop\n      jump\t// out\n        /* \"#utility.yul\":6304:6746   */\n    tag_97:\n        /* \"#utility.yul\":6453:6457   */\n      0x00\n        /* \"#utility.yul\":6491:6493   */\n      0x60\n        /* \"#utility.yul\":6480:6489   */\n      dup3\n        /* \"#utility.yul\":6476:6494   */\n      add\n        /* \"#utility.yul\":6468:6494   */\n      swap1\n      pop\n        /* \"#utility.yul\":6504:6575   */\n      tag_224\n        /* \"#utility.yul\":6572:6573   */\n      0x00\n        /* \"#utility.yul\":6561:6570   */\n      dup4\n        /* \"#utility.yul\":6557:6574   */\n      add\n        /* \"#utility.yul\":6548:6554   */\n      dup7\n        /* \"#utility.yul\":6504:6575   */\n      tag_148\n      jump\t// in\n    tag_224:\n        /* \"#utility.yul\":6585:6657   */\n      tag_225\n        /* \"#utility.yul\":6653:6655   */\n      0x20\n        /* \"#utility.yul\":6642:6651   */\n      dup4\n        /* \"#utility.yul\":6638:6656   */\n      add\n        /* \"#utility.yul\":6629:6635   */\n      dup6\n        /* \"#utility.yul\":6585:6657   */\n      tag_144\n      jump\t// in\n    tag_225:\n        /* \"#utility.yul\":6667:6739   */\n      tag_226\n        /* \"#utility.yul\":6735:6737   */\n      0x40\n        /* \"#utility.yul\":6724:6733   */\n      dup4\n        /* \"#utility.yul\":6720:6738   */\n      add\n        /* \"#utility.yul\":6711:6717   */\n      dup5\n        /* \"#utility.yul\":6667:6739   */\n      tag_144\n      jump\t// in\n    tag_226:\n        /* \"#utility.yul\":6304:6746   */\n      swap5\n      swap4\n      pop\n      pop\n      pop\n      pop\n      jump\t// out\n        /* \"#utility.yul\":6752:6974   */\n    tag_102:\n        /* \"#utility.yul\":6845:6849   */\n      0x00\n        /* \"#utility.yul\":6883:6885   */\n      0x20\n        /* \"#utility.yul\":6872:6881   */\n      dup3\n        /* \"#utility.yul\":6868:6886   */\n      add\n        /* \"#utility.yul\":6860:6886   */\n      swap1\n      pop\n        /* \"#utility.yul\":6896:6967   */\n      tag_228\n        /* \"#utility.yul\":6964:6965   */\n      0x00\n        /* \"#utility.yul\":6953:6962   */\n      dup4\n        /* \"#utility.yul\":6949:6966   */\n      add\n        /* \"#utility.yul\":6940:6946   */\n      dup5\n        /* \"#utility.yul\":6896:6967   */\n      tag_148\n      jump\t// in\n    tag_228:\n        /* \"#utility.yul\":6752:6974   */\n      swap3\n      swap2\n      pop\n      pop\n      jump\t// out\n        /* \"#utility.yul\":6980:7160   */\n    tag_149:\n        /* \"#utility.yul\":7028:7105   */\n      0x4e487b7100000000000000000000000000000000000000000000000000000000\n        /* \"#utility.yul\":7025:7026   */\n      0x00\n        /* \"#utility.yul\":7018:7106   */\n      mstore\n        /* \"#utility.yul\":7125:7129   */\n      0x11\n        /* \"#utility.yul\":7122:7123   */\n      0x04\n        /* \"#utility.yul\":7115:7130   */\n      mstore\n        /* \"#utility.yul\":7149:7153   */\n      0x24\n        /* \"#utility.yul\":7146:7147   */\n      0x00\n        /* \"#utility.yul\":7139:7154   */\n      revert\n        /* \"#utility.yul\":7166:7357   */\n    tag_120:\n        /* \"#utility.yul\":7206:7209   */\n      0x00\n        /* \"#utility.yul\":7225:7245   */\n      tag_231\n        /* \"#utility.yul\":7243:7244   */\n      dup3\n        /* \"#utility.yul\":7225:7245   */\n      tag_139\n      jump\t// in\n    tag_231:\n        /* \"#utility.yul\":7220:7245   */\n      swap2\n      pop\n        /* \"#utility.yul\":7259:7279   */\n      tag_232\n        /* \"#utility.yul\":7277:7278   */\n      dup4\n        /* \"#utility.yul\":7259:7279   */\n      tag_139\n      jump\t// in\n    tag_232:\n        /* \"#utility.yul\":7254:7279   */\n      swap3\n      pop\n        /* \"#utility.yul\":7302:7303   */\n      dup3\n        /* \"#utility.yul\":7299:7300   */\n      dup3\n        /* \"#utility.yul\":7295:7304   */\n      add\n        /* \"#utility.yul\":7288:7304   */\n      swap1\n      pop\n        /* \"#utility.yul\":7323:7326   */\n      dup1\n        /* \"#utility.yul\":7320:7321   */\n      dup3\n        /* \"#utility.yul\":7317:7327   */\n      gt\n        /* \"#utility.yul\":7314:7350   */\n      iszero\n      tag_233\n      jumpi\n        /* \"#utility.yul\":7330:7348   */\n      tag_234\n      tag_149\n      jump\t// in\n    tag_234:\n        /* \"#utility.yul\":7314:7350   */\n    tag_233:\n        /* \"#utility.yul\":7166:7357   */\n      swap3\n      swap2\n      pop\n      pop\n      jump\t// out\n\n    auxdata: 0xa26469706673582212205eb91ec28a70984eaa743a446fd0e7b3a796c3318090e6467c4e8ba41897ee9f64736f6c63430008140033\n}\n",
				"bytecode": {
					"linkReferences": {},
					"object": "608060405234801562000010575f80fd5b50604051620018c3380380620018c3833981810160405281019062000036919062000585565b8282816003908162000049919062000860565b5080600490816200005b919062000860565b505050806006819055505f60055460065462000078919062000971565b90505f811115620000ae57620000958582620000b960201b60201c565b6301e1338042620000a79190620009ab565b6008819055505b505050505062000a78565b5f73ffffffffffffffffffffffffffffffffffffffff168273ffffffffffffffffffffffffffffffffffffffff16036200012c575f6040517fec442f05000000000000000000000000000000000000000000000000000000008152600401620001239190620009f6565b60405180910390fd5b6200013f5f83836200014360201b60201c565b5050565b5f73ffffffffffffffffffffffffffffffffffffffff168373ffffffffffffffffffffffffffffffffffffffff160362000197578060025f8282546200018a9190620009ab565b9250508190555062000268565b5f805f8573ffffffffffffffffffffffffffffffffffffffff1673ffffffffffffffffffffffffffffffffffffffff1681526020019081526020015f205490508181101562000223578381836040517fe450d38c0000000000000000000000000000000000000000000000000000000081526004016200021a9392919062000a22565b60405180910390fd5b8181035f808673ffffffffffffffffffffffffffffffffffffffff1673ffffffffffffffffffffffffffffffffffffffff1681526020019081526020015f2081905550505b5f73ffffffffffffffffffffffffffffffffffffffff168273ffffffffffffffffffffffffffffffffffffffff1603620002b1578060025f8282540392505081905550620002fb565b805f808473ffffffffffffffffffffffffffffffffffffffff1673ffffffffffffffffffffffffffffffffffffffff1681526020019081526020015f205f82825401925050819055505b8173ffffffffffffffffffffffffffffffffffffffff168373ffffffffffffffffffffffffffffffffffffffff167fddf252ad1be2c89b69c2b068fc378daa952ba7f163c4a11628f55a4df523b3ef836040516200035a919062000a5d565b60405180910390a3505050565b5f604051905090565b5f80fd5b5f80fd5b5f73ffffffffffffffffffffffffffffffffffffffff82169050919050565b5f620003a38262000378565b9050919050565b620003b58162000397565b8114620003c0575f80fd5b50565b5f81519050620003d381620003aa565b92915050565b5f80fd5b5f80fd5b5f601f19601f8301169050919050565b7f4e487b71000000000000000000000000000000000000000000000000000000005f52604160045260245ffd5b6200042982620003e1565b810181811067ffffffffffffffff821117156200044b576200044a620003f1565b5b80604052505050565b5f6200045f62000367565b90506200046d82826200041e565b919050565b5f67ffffffffffffffff8211156200048f576200048e620003f1565b5b6200049a82620003e1565b9050602081019050919050565b5f5b83811015620004c6578082015181840152602081019050620004a9565b5f8484015250505050565b5f620004e7620004e18462000472565b62000454565b905082815260208101848484011115620005065762000505620003dd565b5b62000513848285620004a7565b509392505050565b5f82601f830112620005325762000531620003d9565b5b815162000544848260208601620004d1565b91505092915050565b5f819050919050565b62000561816200054d565b81146200056c575f80fd5b50565b5f815190506200057f8162000556565b92915050565b5f805f8060808587031215620005a0576200059f62000370565b5b5f620005af87828801620003c3565b945050602085015167ffffffffffffffff811115620005d357620005d262000374565b5b620005e1878288016200051b565b935050604085015167ffffffffffffffff81111562000605576200060462000374565b5b62000613878288016200051b565b925050606062000626878288016200056f565b91505092959194509250565b5f81519050919050565b7f4e487b71000000000000000000000000000000000000000000000000000000005f52602260045260245ffd5b5f60028204905060018216806200068157607f821691505b6020821081036200069757620006966200063c565b5b50919050565b5f819050815f5260205f209050919050565b5f6020601f8301049050919050565b5f82821b905092915050565b5f60088302620006fb7fffffffffffffffffffffffffffffffffffffffffffffffffffffffffffffffff82620006be565b620007078683620006be565b95508019841693508086168417925050509392505050565b5f819050919050565b5f62000748620007426200073c846200054d565b6200071f565b6200054d565b9050919050565b5f819050919050565b620007638362000728565b6200077b62000772826200074f565b848454620006ca565b825550505050565b5f90565b6200079162000783565b6200079e81848462000758565b505050565b5b81811015620007c557620007b95f8262000787565b600181019050620007a4565b5050565b601f8211156200081457620007de816200069d565b620007e984620006af565b81016020851015620007f9578190505b620008116200080885620006af565b830182620007a3565b50505b505050565b5f82821c905092915050565b5f620008365f198460080262000819565b1980831691505092915050565b5f62000850838362000825565b9150826002028217905092915050565b6200086b8262000632565b67ffffffffffffffff811115620008875762000886620003f1565b5b62000893825462000669565b620008a0828285620007c9565b5f60209050601f831160018114620008d6575f8415620008c1578287015190505b620008cd858262000843565b8655506200093c565b601f198416620008e6866200069d565b5f5b828110156200090f57848901518255600182019150602085019450602081019050620008e8565b868310156200092f57848901516200092b601f89168262000825565b8355505b6001600288020188555050505b505050505050565b7f4e487b71000000000000000000000000000000000000000000000000000000005f52601160045260245ffd5b5f6200097d826200054d565b91506200098a836200054d565b9250828203905081811115620009a557620009a462000944565b5b92915050565b5f620009b7826200054d565b9150620009c4836200054d565b9250828201905080821115620009df57620009de62000944565b5b92915050565b620009f08162000397565b82525050565b5f60208201905062000a0b5f830184620009e5565b92915050565b62000a1c816200054d565b82525050565b5f60608201905062000a375f830186620009e5565b62000a46602083018562000a11565b62000a55604083018462000a11565b949350505050565b5f60208201905062000a725f83018462000a11565b92915050565b610e3d8062000a865f395ff3fe608060405234801561000f575f80fd5b506004361061009c575f3560e01c806370a082311161006457806370a082311461015a57806395d89b411461018a5780639f3adb0e146101a8578063a9059cbb146101c6578063dd62ed3e146101f65761009c565b806306fdde03146100a0578063095ea7b3146100be57806318160ddd146100ee57806323b872dd1461010c578063313ce5671461013c575b5f80fd5b6100a8610226565b6040516100b59190610ab6565b60405180910390f35b6100d860048036038101906100d39190610b67565b6102b6565b6040516100e59190610bbf565b60405180910390f35b6100f66102d8565b6040516101039190610be7565b60405180910390f35b61012660048036038101906101219190610c00565b6102e1565b6040516101339190610bbf565b60405180910390f35b61014461030f565b6040516101519190610c6b565b60405180910390f35b610174600480360381019061016f9190610c84565b610317565b6040516101819190610be7565b60405180910390f35b61019261035c565b60405161019f9190610ab6565b60405180910390f35b6101b06103ec565b6040516101bd9190610be7565b60405180910390f35b6101e060048036038101906101db9190610b67565b6103f2565b6040516101ed9190610bbf565b60405180910390f35b610210600480360381019061020b9190610caf565b610405565b60405161021d9190610be7565b60405180910390f35b60606003805461023590610d1a565b80601f016020809104026020016040519081016040528092919081815260200182805461026190610d1a565b80156102ac5780601f10610283576101008083540402835291602001916102ac565b820191905f5260205f20905b81548152906001019060200180831161028f57829003601f168201915b5050505050905090565b5f806102c0610487565b90506102cd81858561048e565b600191505092915050565b5f600254905090565b5f806102eb610487565b90506102f88582856104a0565b610303858585610532565b60019150509392505050565b5f6012905090565b5f805f8373ffffffffffffffffffffffffffffffffffffffff1673ffffffffffffffffffffffffffffffffffffffff1681526020019081526020015f20549050919050565b60606004805461036b90610d1a565b80601f016020809104026020016040519081016040528092919081815260200182805461039790610d1a565b80156103e25780601f106103b9576101008083540402835291602001916103e2565b820191905f5260205f20905b8154815290600101906020018083116103c557829003601f168201915b5050505050905090565b60085481565b5f6103fd8383610622565b905092915050565b5f60015f8473ffffffffffffffffffffffffffffffffffffffff1673ffffffffffffffffffffffffffffffffffffffff1681526020019081526020015f205f8373ffffffffffffffffffffffffffffffffffffffff1673ffffffffffffffffffffffffffffffffffffffff1681526020019081526020015f2054905092915050565b5f33905090565b61049b8383836001610644565b505050565b5f6104ab8484610405565b90507fffffffffffffffffffffffffffffffffffffffffffffffffffffffffffffffff811461052c578181101561051d578281836040517ffb8f41b200000000000000000000000000000000000000000000000000000000815260040161051493929190610d59565b60405180910390fd5b61052b84848484035f610644565b5b50505050565b5f73ffffffffffffffffffffffffffffffffffffffff168373ffffffffffffffffffffffffffffffffffffffff16036105a2575f6040517f96c6fd1e0000000000000000000000000000000000000000000000000000000081526004016105999190610d8e565b60405180910390fd5b5f73ffffffffffffffffffffffffffffffffffffffff168273ffffffffffffffffffffffffffffffffffffffff1603610612575f6040517fec442f050000000000000000000000000000000000000000000000000000000081526004016106099190610d8e565b60405180910390fd5b61061d838383610813565b505050565b5f8061062c610487565b9050610639818585610532565b600191505092915050565b5f73ffffffffffffffffffffffffffffffffffffffff168473ffffffffffffffffffffffffffffffffffffffff16036106b4575f6040517fe602df050000000000000000000000000000000000000000000000000000000081526004016106ab9190610d8e565b60405180910390fd5b5f73ffffffffffffffffffffffffffffffffffffffff168373ffffffffffffffffffffffffffffffffffffffff1603610724575f6040517f94280d6200000000000000000000000000000000000000000000000000000000815260040161071b9190610d8e565b60405180910390fd5b8160015f8673ffffffffffffffffffffffffffffffffffffffff1673ffffffffffffffffffffffffffffffffffffffff1681526020019081526020015f205f8573ffffffffffffffffffffffffffffffffffffffff1673ffffffffffffffffffffffffffffffffffffffff1681526020019081526020015f2081905550801561080d578273ffffffffffffffffffffffffffffffffffffffff168473ffffffffffffffffffffffffffffffffffffffff167f8c5be1e5ebec7d5bd14f71427d1e84f3dd0314c0f7b2291e5b200ac8c7c3b925846040516108049190610be7565b60405180910390a35b50505050565b5f73ffffffffffffffffffffffffffffffffffffffff168373ffffffffffffffffffffffffffffffffffffffff1603610863578060025f8282546108579190610dd4565b92505081905550610931565b5f805f8573ffffffffffffffffffffffffffffffffffffffff1673ffffffffffffffffffffffffffffffffffffffff1681526020019081526020015f20549050818110156108ec578381836040517fe450d38c0000000000000000000000000000000000000000000000000000000081526004016108e393929190610d59565b60405180910390fd5b8181035f808673ffffffffffffffffffffffffffffffffffffffff1673ffffffffffffffffffffffffffffffffffffffff1681526020019081526020015f2081905550505b5f73ffffffffffffffffffffffffffffffffffffffff168273ffffffffffffffffffffffffffffffffffffffff1603610978578060025f82825403925050819055506109c2565b805f808473ffffffffffffffffffffffffffffffffffffffff1673ffffffffffffffffffffffffffffffffffffffff1681526020019081526020015f205f82825401925050819055505b8173ffffffffffffffffffffffffffffffffffffffff168373ffffffffffffffffffffffffffffffffffffffff167fddf252ad1be2c89b69c2b068fc378daa952ba7f163c4a11628f55a4df523b3ef83604051610a1f9190610be7565b60405180910390a3505050565b5f81519050919050565b5f82825260208201905092915050565b5f5b83811015610a63578082015181840152602081019050610a48565b5f8484015250505050565b5f601f19601f8301169050919050565b5f610a8882610a2c565b610a928185610a36565b9350610aa2818560208601610a46565b610aab81610a6e565b840191505092915050565b5f6020820190508181035f830152610ace8184610a7e565b905092915050565b5f80fd5b5f73ffffffffffffffffffffffffffffffffffffffff82169050919050565b5f610b0382610ada565b9050919050565b610b1381610af9565b8114610b1d575f80fd5b50565b5f81359050610b2e81610b0a565b92915050565b5f819050919050565b610b4681610b34565b8114610b50575f80fd5b50565b5f81359050610b6181610b3d565b92915050565b5f8060408385031215610b7d57610b7c610ad6565b5b5f610b8a85828601610b20565b9250506020610b9b85828601610b53565b9150509250929050565b5f8115159050919050565b610bb981610ba5565b82525050565b5f602082019050610bd25f830184610bb0565b92915050565b610be181610b34565b82525050565b5f602082019050610bfa5f830184610bd8565b92915050565b5f805f60608486031215610c1757610c16610ad6565b5b5f610c2486828701610b20565b9350506020610c3586828701610b20565b9250506040610c4686828701610b53565b9150509250925092565b5f60ff82169050919050565b610c6581610c50565b82525050565b5f602082019050610c7e5f830184610c5c565b92915050565b5f60208284031215610c9957610c98610ad6565b5b5f610ca684828501610b20565b91505092915050565b5f8060408385031215610cc557610cc4610ad6565b5b5f610cd285828601610b20565b9250506020610ce385828601610b20565b9150509250929050565b7f4e487b71000000000000000000000000000000000000000000000000000000005f52602260045260245ffd5b5f6002820490506001821680610d3157607f821691505b602082108103610d4457610d43610ced565b5b50919050565b610d5381610af9565b82525050565b5f606082019050610d6c5f830186610d4a565b610d796020830185610bd8565b610d866040830184610bd8565b949350505050565b5f602082019050610da15f830184610d4a565b92915050565b7f4e487b71000000000000000000000000000000000000000000000000000000005f52601160045260245ffd5b5f610dde82610b34565b9150610de983610b34565b9250828201905080821115610e0157610e00610da7565b5b9291505056fea26469706673582212205eb91ec28a70984eaa743a446fd0e7b3a796c3318090e6467c4e8ba41897ee9f64736f6c63430008140033",
					"opcodes": "PUSH1 0x80 PUSH1 0x40 MSTORE CALLVALUE DUP1 ISZERO PUSH3 0x10 JUMPI PUSH0 DUP1 REVERT JUMPDEST POP PUSH1 0x40 MLOAD PUSH3 0x18C3 CODESIZE SUB DUP1 PUSH3 0x18C3 DUP4 CODECOPY DUP2 DUP2 ADD PUSH1 0x40 MSTORE DUP2 ADD SWAP1 PUSH3 0x36 SWAP2 SWAP1 PUSH3 0x585 JUMP JUMPDEST DUP3 DUP3 DUP2 PUSH1 0x3 SWAP1 DUP2 PUSH3 0x49 SWAP2 SWAP1 PUSH3 0x860 JUMP JUMPDEST POP DUP1 PUSH1 0x4 SWAP1 DUP2 PUSH3 0x5B SWAP2 SWAP1 PUSH3 0x860 JUMP JUMPDEST POP POP POP DUP1 PUSH1 0x6 DUP2 SWAP1 SSTORE POP PUSH0 PUSH1 0x5 SLOAD PUSH1 0x6 SLOAD PUSH3 0x78 SWAP2 SWAP1 PUSH3 0x971 JUMP JUMPDEST SWAP1 POP PUSH0 DUP2 GT ISZERO PUSH3 0xAE JUMPI PUSH3 0x95 DUP6 DUP3 PUSH3 0xB9 PUSH1 0x20 SHL PUSH1 0x20 SHR JUMP JUMPDEST PUSH4 0x1E13380 TIMESTAMP PUSH3 0xA7 SWAP2 SWAP1 PUSH3 0x9AB JUMP JUMPDEST PUSH1 0x8 DUP2 SWAP1 SSTORE POP JUMPDEST POP POP POP POP POP PUSH3 0xA78 JUMP JUMPDEST PUSH0 PUSH20 0xFFFFFFFFFFFFFFFFFFFFFFFFFFFFFFFFFFFFFFFF AND DUP3 PUSH20 0xFFFFFFFFFFFFFFFFFFFFFFFFFFFFFFFFFFFFFFFF AND SUB PUSH3 0x12C JUMPI PUSH0 PUSH1 0x40 MLOAD PUSH32 0xEC442F0500000000000000000000000000000000000000000000000000000000 DUP2 MSTORE PUSH1 0x4 ADD PUSH3 0x123 SWAP2 SWAP1 PUSH3 0x9F6 JUMP JUMPDEST PUSH1 0x40 MLOAD DUP1 SWAP2 SUB SWAP1 REVERT JUMPDEST PUSH3 0x13F PUSH0 DUP4 DUP4 PUSH3 0x143 PUSH1 0x20 SHL PUSH1 0x20 SHR JUMP JUMPDEST POP POP JUMP JUMPDEST PUSH0 PUSH20 0xFFFFFFFFFFFFFFFFFFFFFFFFFFFFFFFFFFFFFFFF AND DUP4 PUSH20 0xFFFFFFFFFFFFFFFFFFFFFFFFFFFFFFFFFFFFFFFF AND SUB PUSH3 0x197 JUMPI DUP1 PUSH1 0x2 PUSH0 DUP3 DUP3 SLOAD PUSH3 0x18A SWAP2 SWAP1 PUSH3 0x9AB JUMP JUMPDEST SWAP3 POP POP DUP2 SWAP1 SSTORE POP PUSH3 0x268 JUMP JUMPDEST PUSH0 DUP1 PUSH0 DUP6 PUSH20 0xFFFFFFFFFFFFFFFFFFFFFFFFFFFFFFFFFFFFFFFF AND PUSH20 0xFFFFFFFFFFFFFFFFFFFFFFFFFFFFFFFFFFFFFFFF AND DUP2 MSTORE PUSH1 0x20 ADD SWAP1 DUP2 MSTORE PUSH1 0x20 ADD PUSH0 KECCAK256 SLOAD SWAP1 POP DUP2 DUP2 LT ISZERO PUSH3 0x223 JUMPI DUP4 DUP2 DUP4 PUSH1 0x40 MLOAD PUSH32 0xE450D38C00000000000000000000000000000000000000000000000000000000 DUP2 MSTORE PUSH1 0x4 ADD PUSH3 0x21A SWAP4 SWAP3 SWAP2 SWAP1 PUSH3 0xA22 JUMP JUMPDEST PUSH1 0x40 MLOAD DUP1 SWAP2 SUB SWAP1 REVERT JUMPDEST DUP2 DUP2 SUB PUSH0 DUP1 DUP7 PUSH20 0xFFFFFFFFFFFFFFFFFFFFFFFFFFFFFFFFFFFFFFFF AND PUSH20 0xFFFFFFFFFFFFFFFFFFFFFFFFFFFFFFFFFFFFFFFF AND DUP2 MSTORE PUSH1 0x20 ADD SWAP1 DUP2 MSTORE PUSH1 0x20 ADD PUSH0 KECCAK256 DUP2 SWAP1 SSTORE POP POP JUMPDEST PUSH0 PUSH20 0xFFFFFFFFFFFFFFFFFFFFFFFFFFFFFFFFFFFFFFFF AND DUP3 PUSH20 0xFFFFFFFFFFFFFFFFFFFFFFFFFFFFFFFFFFFFFFFF AND SUB PUSH3 0x2B1 JUMPI DUP1 PUSH1 0x2 PUSH0 DUP3 DUP3 SLOAD SUB SWAP3 POP POP DUP2 SWAP1 SSTORE POP PUSH3 0x2FB JUMP JUMPDEST DUP1 PUSH0 DUP1 DUP5 PUSH20 0xFFFFFFFFFFFFFFFFFFFFFFFFFFFFFFFFFFFFFFFF AND PUSH20 0xFFFFFFFFFFFFFFFFFFFFFFFFFFFFFFFFFFFFFFFF AND DUP2 MSTORE PUSH1 0x20 ADD SWAP1 DUP2 MSTORE PUSH1 0x20 ADD PUSH0 KECCAK256 PUSH0 DUP3 DUP3 SLOAD ADD SWAP3 POP POP DUP2 SWAP1 SSTORE POP JUMPDEST DUP2 PUSH20 0xFFFFFFFFFFFFFFFFFFFFFFFFFFFFFFFFFFFFFFFF AND DUP4 PUSH20 0xFFFFFFFFFFFFFFFFFFFFFFFFFFFFFFFFFFFFFFFF AND PUSH32 0xDDF252AD1BE2C89B69C2B068FC378DAA952BA7F163C4A11628F55A4DF523B3EF DUP4 PUSH1 0x40 MLOAD PUSH3 0x35A SWAP2 SWAP1 PUSH3 0xA5D JUMP JUMPDEST PUSH1 0x40 MLOAD DUP1 SWAP2 SUB SWAP1 LOG3 POP POP POP JUMP JUMPDEST PUSH0 PUSH1 0x40 MLOAD SWAP1 POP SWAP1 JUMP JUMPDEST PUSH0 DUP1 REVERT JUMPDEST PUSH0 DUP1 REVERT JUMPDEST PUSH0 PUSH20 0xFFFFFFFFFFFFFFFFFFFFFFFFFFFFFFFFFFFFFFFF DUP3 AND SWAP1 POP SWAP2 SWAP1 POP JUMP JUMPDEST PUSH0 PUSH3 0x3A3 DUP3 PUSH3 0x378 JUMP JUMPDEST SWAP1 POP SWAP2 SWAP1 POP JUMP JUMPDEST PUSH3 0x3B5 DUP2 PUSH3 0x397 JUMP JUMPDEST DUP2 EQ PUSH3 0x3C0 JUMPI PUSH0 DUP1 REVERT JUMPDEST POP JUMP JUMPDEST PUSH0 DUP2 MLOAD SWAP1 POP PUSH3 0x3D3 DUP2 PUSH3 0x3AA JUMP JUMPDEST SWAP3 SWAP2 POP POP JUMP JUMPDEST PUSH0 DUP1 REVERT JUMPDEST PUSH0 DUP1 REVERT JUMPDEST PUSH0 PUSH1 0x1F NOT PUSH1 0x1F DUP4 ADD AND SWAP1 POP SWAP2 SWAP1 POP JUMP JUMPDEST PUSH32 0x4E487B7100000000000000000000000000000000000000000000000000000000 PUSH0 MSTORE PUSH1 0x41 PUSH1 0x4 MSTORE PUSH1 0x24 PUSH0 REVERT JUMPDEST PUSH3 0x429 DUP3 PUSH3 0x3E1 JUMP JUMPDEST DUP2 ADD DUP2 DUP2 LT PUSH8 0xFFFFFFFFFFFFFFFF DUP3 GT OR ISZERO PUSH3 0x44B JUMPI PUSH3 0x44A PUSH3 0x3F1 JUMP JUMPDEST JUMPDEST DUP1 PUSH1 0x40 MSTORE POP POP POP JUMP JUMPDEST PUSH0 PUSH3 0x45F PUSH3 0x367 JUMP JUMPDEST SWAP1 POP PUSH3 0x46D DUP3 DUP3 PUSH3 0x41E JUMP JUMPDEST SWAP2 SWAP1 POP JUMP JUMPDEST PUSH0 PUSH8 0xFFFFFFFFFFFFFFFF DUP3 GT ISZERO PUSH3 0x48F JUMPI PUSH3 0x48E PUSH3 0x3F1 JUMP JUMPDEST JUMPDEST PUSH3 0x49A DUP3 PUSH3 0x3E1 JUMP JUMPDEST SWAP1 POP PUSH1 0x20 DUP2 ADD SWAP1 POP SWAP2 SWAP1 POP JUMP JUMPDEST PUSH0 JUMPDEST DUP4 DUP2 LT ISZERO PUSH3 0x4C6 JUMPI DUP1 DUP3 ADD MLOAD DUP2 DUP5 ADD MSTORE PUSH1 0x20 DUP2 ADD SWAP1 POP PUSH3 0x4A9 JUMP JUMPDEST PUSH0 DUP5 DUP5 ADD MSTORE POP POP POP POP JUMP JUMPDEST PUSH0 PUSH3 0x4E7 PUSH3 0x4E1 DUP5 PUSH3 0x472 JUMP JUMPDEST PUSH3 0x454 JUMP JUMPDEST SWAP1 POP DUP3 DUP2 MSTORE PUSH1 0x20 DUP2 ADD DUP5 DUP5 DUP5 ADD GT ISZERO PUSH3 0x506 JUMPI PUSH3 0x505 PUSH3 0x3DD JUMP JUMPDEST JUMPDEST PUSH3 0x513 DUP5 DUP3 DUP6 PUSH3 0x4A7 JUMP JUMPDEST POP SWAP4 SWAP3 POP POP POP JUMP JUMPDEST PUSH0 DUP3 PUSH1 0x1F DUP4 ADD SLT PUSH3 0x532 JUMPI PUSH3 0x531 PUSH3 0x3D9 JUMP JUMPDEST JUMPDEST DUP2 MLOAD PUSH3 0x544 DUP5 DUP3 PUSH1 0x20 DUP7 ADD PUSH3 0x4D1 JUMP JUMPDEST SWAP2 POP POP SWAP3 SWAP2 POP POP JUMP JUMPDEST PUSH0 DUP2 SWAP1 POP SWAP2 SWAP1 POP JUMP JUMPDEST PUSH3 0x561 DUP2 PUSH3 0x54D JUMP JUMPDEST DUP2 EQ PUSH3 0x56C JUMPI PUSH0 DUP1 REVERT JUMPDEST POP JUMP JUMPDEST PUSH0 DUP2 MLOAD SWAP1 POP PUSH3 0x57F DUP2 PUSH3 0x556 JUMP JUMPDEST SWAP3 SWAP2 POP POP JUMP JUMPDEST PUSH0 DUP1 PUSH0 DUP1 PUSH1 0x80 DUP6 DUP8 SUB SLT ISZERO PUSH3 0x5A0 JUMPI PUSH3 0x59F PUSH3 0x370 JUMP JUMPDEST JUMPDEST PUSH0 PUSH3 0x5AF DUP8 DUP3 DUP9 ADD PUSH3 0x3C3 JUMP JUMPDEST SWAP5 POP POP PUSH1 0x20 DUP6 ADD MLOAD PUSH8 0xFFFFFFFFFFFFFFFF DUP2 GT ISZERO PUSH3 0x5D3 JUMPI PUSH3 0x5D2 PUSH3 0x374 JUMP JUMPDEST JUMPDEST PUSH3 0x5E1 DUP8 DUP3 DUP9 ADD PUSH3 0x51B JUMP JUMPDEST SWAP4 POP POP PUSH1 0x40 DUP6 ADD MLOAD PUSH8 0xFFFFFFFFFFFFFFFF DUP2 GT ISZERO PUSH3 0x605 JUMPI PUSH3 0x604 PUSH3 0x374 JUMP JUMPDEST JUMPDEST PUSH3 0x613 DUP8 DUP3 DUP9 ADD PUSH3 0x51B JUMP JUMPDEST SWAP3 POP POP PUSH1 0x60 PUSH3 0x626 DUP8 DUP3 DUP9 ADD PUSH3 0x56F JUMP JUMPDEST SWAP2 POP POP SWAP3 SWAP6 SWAP2 SWAP5 POP SWAP3 POP JUMP JUMPDEST PUSH0 DUP2 MLOAD SWAP1 POP SWAP2 SWAP1 POP JUMP JUMPDEST PUSH32 0x4E487B7100000000000000000000000000000000000000000000000000000000 PUSH0 MSTORE PUSH1 0x22 PUSH1 0x4 MSTORE PUSH1 0x24 PUSH0 REVERT JUMPDEST PUSH0 PUSH1 0x2 DUP3 DIV SWAP1 POP PUSH1 0x1 DUP3 AND DUP1 PUSH3 0x681 JUMPI PUSH1 0x7F DUP3 AND SWAP2 POP JUMPDEST PUSH1 0x20 DUP3 LT DUP2 SUB PUSH3 0x697 JUMPI PUSH3 0x696 PUSH3 0x63C JUMP JUMPDEST JUMPDEST POP SWAP2 SWAP1 POP JUMP JUMPDEST PUSH0 DUP2 SWAP1 POP DUP2 PUSH0 MSTORE PUSH1 0x20 PUSH0 KECCAK256 SWAP1 POP SWAP2 SWAP1 POP JUMP JUMPDEST PUSH0 PUSH1 0x20 PUSH1 0x1F DUP4 ADD DIV SWAP1 POP SWAP2 SWAP1 POP JUMP JUMPDEST PUSH0 DUP3 DUP3 SHL SWAP1 POP SWAP3 SWAP2 POP POP JUMP JUMPDEST PUSH0 PUSH1 0x8 DUP4 MUL PUSH3 0x6FB PUSH32 0xFFFFFFFFFFFFFFFFFFFFFFFFFFFFFFFFFFFFFFFFFFFFFFFFFFFFFFFFFFFFFFFF DUP3 PUSH3 0x6BE JUMP JUMPDEST PUSH3 0x707 DUP7 DUP4 PUSH3 0x6BE JUMP JUMPDEST SWAP6 POP DUP1 NOT DUP5 AND SWAP4 POP DUP1 DUP7 AND DUP5 OR SWAP3 POP POP POP SWAP4 SWAP3 POP POP POP JUMP JUMPDEST PUSH0 DUP2 SWAP1 POP SWAP2 SWAP1 POP JUMP JUMPDEST PUSH0 PUSH3 0x748 PUSH3 0x742 PUSH3 0x73C DUP5 PUSH3 0x54D JUMP JUMPDEST PUSH3 0x71F JUMP JUMPDEST PUSH3 0x54D JUMP JUMPDEST SWAP1 POP SWAP2 SWAP1 POP JUMP JUMPDEST PUSH0 DUP2 SWAP1 POP SWAP2 SWAP1 POP JUMP JUMPDEST PUSH3 0x763 DUP4 PUSH3 0x728 JUMP JUMPDEST PUSH3 0x77B PUSH3 0x772 DUP3 PUSH3 0x74F JUMP JUMPDEST DUP5 DUP5 SLOAD PUSH3 0x6CA JUMP JUMPDEST DUP3 SSTORE POP POP POP POP JUMP JUMPDEST PUSH0 SWAP1 JUMP JUMPDEST PUSH3 0x791 PUSH3 0x783 JUMP JUMPDEST PUSH3 0x79E DUP2 DUP5 DUP5 PUSH3 0x758 JUMP JUMPDEST POP POP POP JUMP JUMPDEST JUMPDEST DUP2 DUP2 LT ISZERO PUSH3 0x7C5 JUMPI PUSH3 0x7B9 PUSH0 DUP3 PUSH3 0x787 JUMP JUMPDEST PUSH1 0x1 DUP2 ADD SWAP1 POP PUSH3 0x7A4 JUMP JUMPDEST POP POP JUMP JUMPDEST PUSH1 0x1F DUP3 GT ISZERO PUSH3 0x814 JUMPI PUSH3 0x7DE DUP2 PUSH3 0x69D JUMP JUMPDEST PUSH3 0x7E9 DUP5 PUSH3 0x6AF JUMP JUMPDEST DUP2 ADD PUSH1 0x20 DUP6 LT ISZERO PUSH3 0x7F9 JUMPI DUP2 SWAP1 POP JUMPDEST PUSH3 0x811 PUSH3 0x808 DUP6 PUSH3 0x6AF JUMP JUMPDEST DUP4 ADD DUP3 PUSH3 0x7A3 JUMP JUMPDEST POP POP JUMPDEST POP POP POP JUMP JUMPDEST PUSH0 DUP3 DUP3 SHR SWAP1 POP SWAP3 SWAP2 POP POP JUMP JUMPDEST PUSH0 PUSH3 0x836 PUSH0 NOT DUP5 PUSH1 0x8 MUL PUSH3 0x819 JUMP JUMPDEST NOT DUP1 DUP4 AND SWAP2 POP POP SWAP3 SWAP2 POP POP JUMP JUMPDEST PUSH0 PUSH3 0x850 DUP4 DUP4 PUSH3 0x825 JUMP JUMPDEST SWAP2 POP DUP3 PUSH1 0x2 MUL DUP3 OR SWAP1 POP SWAP3 SWAP2 POP POP JUMP JUMPDEST PUSH3 0x86B DUP3 PUSH3 0x632 JUMP JUMPDEST PUSH8 0xFFFFFFFFFFFFFFFF DUP2 GT ISZERO PUSH3 0x887 JUMPI PUSH3 0x886 PUSH3 0x3F1 JUMP JUMPDEST JUMPDEST PUSH3 0x893 DUP3 SLOAD PUSH3 0x669 JUMP JUMPDEST PUSH3 0x8A0 DUP3 DUP3 DUP6 PUSH3 0x7C9 JUMP JUMPDEST PUSH0 PUSH1 0x20 SWAP1 POP PUSH1 0x1F DUP4 GT PUSH1 0x1 DUP2 EQ PUSH3 0x8D6 JUMPI PUSH0 DUP5 ISZERO PUSH3 0x8C1 JUMPI DUP3 DUP8 ADD MLOAD SWAP1 POP JUMPDEST PUSH3 0x8CD DUP6 DUP3 PUSH3 0x843 JUMP JUMPDEST DUP7 SSTORE POP PUSH3 0x93C JUMP JUMPDEST PUSH1 0x1F NOT DUP5 AND PUSH3 0x8E6 DUP7 PUSH3 0x69D JUMP JUMPDEST PUSH0 JUMPDEST DUP3 DUP2 LT ISZERO PUSH3 0x90F JUMPI DUP5 DUP10 ADD MLOAD DUP3 SSTORE PUSH1 0x1 DUP3 ADD SWAP2 POP PUSH1 0x20 DUP6 ADD SWAP5 POP PUSH1 0x20 DUP2 ADD SWAP1 POP PUSH3 0x8E8 JUMP JUMPDEST DUP7 DUP4 LT ISZERO PUSH3 0x92F JUMPI DUP5 DUP10 ADD MLOAD PUSH3 0x92B PUSH1 0x1F DUP10 AND DUP3 PUSH3 0x825 JUMP JUMPDEST DUP4 SSTORE POP JUMPDEST PUSH1 0x1 PUSH1 0x2 DUP9 MUL ADD DUP9 SSTORE POP POP POP JUMPDEST POP POP POP POP POP POP JUMP JUMPDEST PUSH32 0x4E487B7100000000000000000000000000000000000000000000000000000000 PUSH0 MSTORE PUSH1 0x11 PUSH1 0x4 MSTORE PUSH1 0x24 PUSH0 REVERT JUMPDEST PUSH0 PUSH3 0x97D DUP3 PUSH3 0x54D JUMP JUMPDEST SWAP2 POP PUSH3 0x98A DUP4 PUSH3 0x54D JUMP JUMPDEST SWAP3 POP DUP3 DUP3 SUB SWAP1 POP DUP2 DUP2 GT ISZERO PUSH3 0x9A5 JUMPI PUSH3 0x9A4 PUSH3 0x944 JUMP JUMPDEST JUMPDEST SWAP3 SWAP2 POP POP JUMP JUMPDEST PUSH0 PUSH3 0x9B7 DUP3 PUSH3 0x54D JUMP JUMPDEST SWAP2 POP PUSH3 0x9C4 DUP4 PUSH3 0x54D JUMP JUMPDEST SWAP3 POP DUP3 DUP3 ADD SWAP1 POP DUP1 DUP3 GT ISZERO PUSH3 0x9DF JUMPI PUSH3 0x9DE PUSH3 0x944 JUMP JUMPDEST JUMPDEST SWAP3 SWAP2 POP POP JUMP JUMPDEST PUSH3 0x9F0 DUP2 PUSH3 0x397 JUMP JUMPDEST DUP3 MSTORE POP POP JUMP JUMPDEST PUSH0 PUSH1 0x20 DUP3 ADD SWAP1 POP PUSH3 0xA0B PUSH0 DUP4 ADD DUP5 PUSH3 0x9E5 JUMP JUMPDEST SWAP3 SWAP2 POP POP JUMP JUMPDEST PUSH3 0xA1C DUP2 PUSH3 0x54D JUMP JUMPDEST DUP3 MSTORE POP POP JUMP JUMPDEST PUSH0 PUSH1 0x60 DUP3 ADD SWAP1 POP PUSH3 0xA37 PUSH0 DUP4 ADD DUP7 PUSH3 0x9E5 JUMP JUMPDEST PUSH3 0xA46 PUSH1 0x20 DUP4 ADD DUP6 PUSH3 0xA11 JUMP JUMPDEST PUSH3 0xA55 PUSH1 0x40 DUP4 ADD DUP5 PUSH3 0xA11 JUMP JUMPDEST SWAP5 SWAP4 POP POP POP POP JUMP JUMPDEST PUSH0 PUSH1 0x20 DUP3 ADD SWAP1 POP PUSH3 0xA72 PUSH0 DUP4 ADD DUP5 PUSH3 0xA11 JUMP JUMPDEST SWAP3 SWAP2 POP POP JUMP JUMPDEST PUSH2 0xE3D DUP1 PUSH3 0xA86 PUSH0 CODECOPY PUSH0 RETURN INVALID PUSH1 0x80 PUSH1 0x40 MSTORE CALLVALUE DUP1 ISZERO PUSH2 0xF JUMPI PUSH0 DUP1 REVERT JUMPDEST POP PUSH1 0x4 CALLDATASIZE LT PUSH2 0x9C JUMPI PUSH0 CALLDATALOAD PUSH1 0xE0 SHR DUP1 PUSH4 0x70A08231 GT PUSH2 0x64 JUMPI DUP1 PUSH4 0x70A08231 EQ PUSH2 0x15A JUMPI DUP1 PUSH4 0x95D89B41 EQ PUSH2 0x18A JUMPI DUP1 PUSH4 0x9F3ADB0E EQ PUSH2 0x1A8 JUMPI DUP1 PUSH4 0xA9059CBB EQ PUSH2 0x1C6 JUMPI DUP1 PUSH4 0xDD62ED3E EQ PUSH2 0x1F6 JUMPI PUSH2 0x9C JUMP JUMPDEST DUP1 PUSH4 0x6FDDE03 EQ PUSH2 0xA0 JUMPI DUP1 PUSH4 0x95EA7B3 EQ PUSH2 0xBE JUMPI DUP1 PUSH4 0x18160DDD EQ PUSH2 0xEE JUMPI DUP1 PUSH4 0x23B872DD EQ PUSH2 0x10C JUMPI DUP1 PUSH4 0x313CE567 EQ PUSH2 0x13C JUMPI JUMPDEST PUSH0 DUP1 REVERT JUMPDEST PUSH2 0xA8 PUSH2 0x226 JUMP JUMPDEST PUSH1 0x40 MLOAD PUSH2 0xB5 SWAP2 SWAP1 PUSH2 0xAB6 JUMP JUMPDEST PUSH1 0x40 MLOAD DUP1 SWAP2 SUB SWAP1 RETURN JUMPDEST PUSH2 0xD8 PUSH1 0x4 DUP1 CALLDATASIZE SUB DUP2 ADD SWAP1 PUSH2 0xD3 SWAP2 SWAP1 PUSH2 0xB67 JUMP JUMPDEST PUSH2 0x2B6 JUMP JUMPDEST PUSH1 0x40 MLOAD PUSH2 0xE5 SWAP2 SWAP1 PUSH2 0xBBF JUMP JUMPDEST PUSH1 0x40 MLOAD DUP1 SWAP2 SUB SWAP1 RETURN JUMPDEST PUSH2 0xF6 PUSH2 0x2D8 JUMP JUMPDEST PUSH1 0x40 MLOAD PUSH2 0x103 SWAP2 SWAP1 PUSH2 0xBE7 JUMP JUMPDEST PUSH1 0x40 MLOAD DUP1 SWAP2 SUB SWAP1 RETURN JUMPDEST PUSH2 0x126 PUSH1 0x4 DUP1 CALLDATASIZE SUB DUP2 ADD SWAP1 PUSH2 0x121 SWAP2 SWAP1 PUSH2 0xC00 JUMP JUMPDEST PUSH2 0x2E1 JUMP JUMPDEST PUSH1 0x40 MLOAD PUSH2 0x133 SWAP2 SWAP1 PUSH2 0xBBF JUMP JUMPDEST PUSH1 0x40 MLOAD DUP1 SWAP2 SUB SWAP1 RETURN JUMPDEST PUSH2 0x144 PUSH2 0x30F JUMP JUMPDEST PUSH1 0x40 MLOAD PUSH2 0x151 SWAP2 SWAP1 PUSH2 0xC6B JUMP JUMPDEST PUSH1 0x40 MLOAD DUP1 SWAP2 SUB SWAP1 RETURN JUMPDEST PUSH2 0x174 PUSH1 0x4 DUP1 CALLDATASIZE SUB DUP2 ADD SWAP1 PUSH2 0x16F SWAP2 SWAP1 PUSH2 0xC84 JUMP JUMPDEST PUSH2 0x317 JUMP JUMPDEST PUSH1 0x40 MLOAD PUSH2 0x181 SWAP2 SWAP1 PUSH2 0xBE7 JUMP JUMPDEST PUSH1 0x40 MLOAD DUP1 SWAP2 SUB SWAP1 RETURN JUMPDEST PUSH2 0x192 PUSH2 0x35C JUMP JUMPDEST PUSH1 0x40 MLOAD PUSH2 0x19F SWAP2 SWAP1 PUSH2 0xAB6 JUMP JUMPDEST PUSH1 0x40 MLOAD DUP1 SWAP2 SUB SWAP1 RETURN JUMPDEST PUSH2 0x1B0 PUSH2 0x3EC JUMP JUMPDEST PUSH1 0x40 MLOAD PUSH2 0x1BD SWAP2 SWAP1 PUSH2 0xBE7 JUMP JUMPDEST PUSH1 0x40 MLOAD DUP1 SWAP2 SUB SWAP1 RETURN JUMPDEST PUSH2 0x1E0 PUSH1 0x4 DUP1 CALLDATASIZE SUB DUP2 ADD SWAP1 PUSH2 0x1DB SWAP2 SWAP1 PUSH2 0xB67 JUMP JUMPDEST PUSH2 0x3F2 JUMP JUMPDEST PUSH1 0x40 MLOAD PUSH2 0x1ED SWAP2 SWAP1 PUSH2 0xBBF JUMP JUMPDEST PUSH1 0x40 MLOAD DUP1 SWAP2 SUB SWAP1 RETURN JUMPDEST PUSH2 0x210 PUSH1 0x4 DUP1 CALLDATASIZE SUB DUP2 ADD SWAP1 PUSH2 0x20B SWAP2 SWAP1 PUSH2 0xCAF JUMP JUMPDEST PUSH2 0x405 JUMP JUMPDEST PUSH1 0x40 MLOAD PUSH2 0x21D SWAP2 SWAP1 PUSH2 0xBE7 JUMP JUMPDEST PUSH1 0x40 MLOAD DUP1 SWAP2 SUB SWAP1 RETURN JUMPDEST PUSH1 0x60 PUSH1 0x3 DUP1 SLOAD PUSH2 0x235 SWAP1 PUSH2 0xD1A JUMP JUMPDEST DUP1 PUSH1 0x1F ADD PUSH1 0x20 DUP1 SWAP2 DIV MUL PUSH1 0x20 ADD PUSH1 0x40 MLOAD SWAP1 DUP2 ADD PUSH1 0x40 MSTORE DUP1 SWAP3 SWAP2 SWAP1 DUP2 DUP2 MSTORE PUSH1 0x20 ADD DUP3 DUP1 SLOAD PUSH2 0x261 SWAP1 PUSH2 0xD1A JUMP JUMPDEST DUP1 ISZERO PUSH2 0x2AC JUMPI DUP1 PUSH1 0x1F LT PUSH2 0x283 JUMPI PUSH2 0x100 DUP1 DUP4 SLOAD DIV MUL DUP4 MSTORE SWAP2 PUSH1 0x20 ADD SWAP2 PUSH2 0x2AC JUMP JUMPDEST DUP3 ADD SWAP2 SWAP1 PUSH0 MSTORE PUSH1 0x20 PUSH0 KECCAK256 SWAP1 JUMPDEST DUP2 SLOAD DUP2 MSTORE SWAP1 PUSH1 0x1 ADD SWAP1 PUSH1 0x20 ADD DUP1 DUP4 GT PUSH2 0x28F JUMPI DUP3 SWAP1 SUB PUSH1 0x1F AND DUP3 ADD SWAP2 JUMPDEST POP POP POP POP POP SWAP1 POP SWAP1 JUMP JUMPDEST PUSH0 DUP1 PUSH2 0x2C0 PUSH2 0x487 JUMP JUMPDEST SWAP1 POP PUSH2 0x2CD DUP2 DUP6 DUP6 PUSH2 0x48E JUMP JUMPDEST PUSH1 0x1 SWAP2 POP POP SWAP3 SWAP2 POP POP JUMP JUMPDEST PUSH0 PUSH1 0x2 SLOAD SWAP1 POP SWAP1 JUMP JUMPDEST PUSH0 DUP1 PUSH2 0x2EB PUSH2 0x487 JUMP JUMPDEST SWAP1 POP PUSH2 0x2F8 DUP6 DUP3 DUP6 PUSH2 0x4A0 JUMP JUMPDEST PUSH2 0x303 DUP6 DUP6 DUP6 PUSH2 0x532 JUMP JUMPDEST PUSH1 0x1 SWAP2 POP POP SWAP4 SWAP3 POP POP POP JUMP JUMPDEST PUSH0 PUSH1 0x12 SWAP1 POP SWAP1 JUMP JUMPDEST PUSH0 DUP1 PUSH0 DUP4 PUSH20 0xFFFFFFFFFFFFFFFFFFFFFFFFFFFFFFFFFFFFFFFF AND PUSH20 0xFFFFFFFFFFFFFFFFFFFFFFFFFFFFFFFFFFFFFFFF AND DUP2 MSTORE PUSH1 0x20 ADD SWAP1 DUP2 MSTORE PUSH1 0x20 ADD PUSH0 KECCAK256 SLOAD SWAP1 POP SWAP2 SWAP1 POP JUMP JUMPDEST PUSH1 0x60 PUSH1 0x4 DUP1 SLOAD PUSH2 0x36B SWAP1 PUSH2 0xD1A JUMP JUMPDEST DUP1 PUSH1 0x1F ADD PUSH1 0x20 DUP1 SWAP2 DIV MUL PUSH1 0x20 ADD PUSH1 0x40 MLOAD SWAP1 DUP2 ADD PUSH1 0x40 MSTORE DUP1 SWAP3 SWAP2 SWAP1 DUP2 DUP2 MSTORE PUSH1 0x20 ADD DUP3 DUP1 SLOAD PUSH2 0x397 SWAP1 PUSH2 0xD1A JUMP JUMPDEST DUP1 ISZERO PUSH2 0x3E2 JUMPI DUP1 PUSH1 0x1F LT PUSH2 0x3B9 JUMPI PUSH2 0x100 DUP1 DUP4 SLOAD DIV MUL DUP4 MSTORE SWAP2 PUSH1 0x20 ADD SWAP2 PUSH2 0x3E2 JUMP JUMPDEST DUP3 ADD SWAP2 SWAP1 PUSH0 MSTORE PUSH1 0x20 PUSH0 KECCAK256 SWAP1 JUMPDEST DUP2 SLOAD DUP2 MSTORE SWAP1 PUSH1 0x1 ADD SWAP1 PUSH1 0x20 ADD DUP1 DUP4 GT PUSH2 0x3C5 JUMPI DUP3 SWAP1 SUB PUSH1 0x1F AND DUP3 ADD SWAP2 JUMPDEST POP POP POP POP POP SWAP1 POP SWAP1 JUMP JUMPDEST PUSH1 0x8 SLOAD DUP2 JUMP JUMPDEST PUSH0 PUSH2 0x3FD DUP4 DUP4 PUSH2 0x622 JUMP JUMPDEST SWAP1 POP SWAP3 SWAP2 POP POP JUMP JUMPDEST PUSH0 PUSH1 0x1 PUSH0 DUP5 PUSH20 0xFFFFFFFFFFFFFFFFFFFFFFFFFFFFFFFFFFFFFFFF AND PUSH20 0xFFFFFFFFFFFFFFFFFFFFFFFFFFFFFFFFFFFFFFFF AND DUP2 MSTORE PUSH1 0x20 ADD SWAP1 DUP2 MSTORE PUSH1 0x20 ADD PUSH0 KECCAK256 PUSH0 DUP4 PUSH20 0xFFFFFFFFFFFFFFFFFFFFFFFFFFFFFFFFFFFFFFFF AND PUSH20 0xFFFFFFFFFFFFFFFFFFFFFFFFFFFFFFFFFFFFFFFF AND DUP2 MSTORE PUSH1 0x20 ADD SWAP1 DUP2 MSTORE PUSH1 0x20 ADD PUSH0 KECCAK256 SLOAD SWAP1 POP SWAP3 SWAP2 POP POP JUMP JUMPDEST PUSH0 CALLER SWAP1 POP SWAP1 JUMP JUMPDEST PUSH2 0x49B DUP4 DUP4 DUP4 PUSH1 0x1 PUSH2 0x644 JUMP JUMPDEST POP POP POP JUMP JUMPDEST PUSH0 PUSH2 0x4AB DUP5 DUP5 PUSH2 0x405 JUMP JUMPDEST SWAP1 POP PUSH32 0xFFFFFFFFFFFFFFFFFFFFFFFFFFFFFFFFFFFFFFFFFFFFFFFFFFFFFFFFFFFFFFFF DUP2 EQ PUSH2 0x52C JUMPI DUP2 DUP2 LT ISZERO PUSH2 0x51D JUMPI DUP3 DUP2 DUP4 PUSH1 0x40 MLOAD PUSH32 0xFB8F41B200000000000000000000000000000000000000000000000000000000 DUP2 MSTORE PUSH1 0x4 ADD PUSH2 0x514 SWAP4 SWAP3 SWAP2 SWAP1 PUSH2 0xD59 JUMP JUMPDEST PUSH1 0x40 MLOAD DUP1 SWAP2 SUB SWAP1 REVERT JUMPDEST PUSH2 0x52B DUP5 DUP5 DUP5 DUP5 SUB PUSH0 PUSH2 0x644 JUMP JUMPDEST JUMPDEST POP POP POP POP JUMP JUMPDEST PUSH0 PUSH20 0xFFFFFFFFFFFFFFFFFFFFFFFFFFFFFFFFFFFFFFFF AND DUP4 PUSH20 0xFFFFFFFFFFFFFFFFFFFFFFFFFFFFFFFFFFFFFFFF AND SUB PUSH2 0x5A2 JUMPI PUSH0 PUSH1 0x40 MLOAD PUSH32 0x96C6FD1E00000000000000000000000000000000000000000000000000000000 DUP2 MSTORE PUSH1 0x4 ADD PUSH2 0x599 SWAP2 SWAP1 PUSH2 0xD8E JUMP JUMPDEST PUSH1 0x40 MLOAD DUP1 SWAP2 SUB SWAP1 REVERT JUMPDEST PUSH0 PUSH20 0xFFFFFFFFFFFFFFFFFFFFFFFFFFFFFFFFFFFFFFFF AND DUP3 PUSH20 0xFFFFFFFFFFFFFFFFFFFFFFFFFFFFFFFFFFFFFFFF AND SUB PUSH2 0x612 JUMPI PUSH0 PUSH1 0x40 MLOAD PUSH32 0xEC442F0500000000000000000000000000000000000000000000000000000000 DUP2 MSTORE PUSH1 0x4 ADD PUSH2 0x609 SWAP2 SWAP1 PUSH2 0xD8E JUMP JUMPDEST PUSH1 0x40 MLOAD DUP1 SWAP2 SUB SWAP1 REVERT JUMPDEST PUSH2 0x61D DUP4 DUP4 DUP4 PUSH2 0x813 JUMP JUMPDEST POP POP POP JUMP JUMPDEST PUSH0 DUP1 PUSH2 0x62C PUSH2 0x487 JUMP JUMPDEST SWAP1 POP PUSH2 0x639 DUP2 DUP6 DUP6 PUSH2 0x532 JUMP JUMPDEST PUSH1 0x1 SWAP2 POP POP SWAP3 SWAP2 POP POP JUMP JUMPDEST PUSH0 PUSH20 0xFFFFFFFFFFFFFFFFFFFFFFFFFFFFFFFFFFFFFFFF AND DUP5 PUSH20 0xFFFFFFFFFFFFFFFFFFFFFFFFFFFFFFFFFFFFFFFF AND SUB PUSH2 0x6B4 JUMPI PUSH0 PUSH1 0x40 MLOAD PUSH32 0xE602DF0500000000000000000000000000000000000000000000000000000000 DUP2 MSTORE PUSH1 0x4 ADD PUSH2 0x6AB SWAP2 SWAP1 PUSH2 0xD8E JUMP JUMPDEST PUSH1 0x40 MLOAD DUP1 SWAP2 SUB SWAP1 REVERT JUMPDEST PUSH0 PUSH20 0xFFFFFFFFFFFFFFFFFFFFFFFFFFFFFFFFFFFFFFFF AND DUP4 PUSH20 0xFFFFFFFFFFFFFFFFFFFFFFFFFFFFFFFFFFFFFFFF AND SUB PUSH2 0x724 JUMPI PUSH0 PUSH1 0x40 MLOAD PUSH32 0x94280D6200000000000000000000000000000000000000000000000000000000 DUP2 MSTORE PUSH1 0x4 ADD PUSH2 0x71B SWAP2 SWAP1 PUSH2 0xD8E JUMP JUMPDEST PUSH1 0x40 MLOAD DUP1 SWAP2 SUB SWAP1 REVERT JUMPDEST DUP2 PUSH1 0x1 PUSH0 DUP7 PUSH20 0xFFFFFFFFFFFFFFFFFFFFFFFFFFFFFFFFFFFFFFFF AND PUSH20 0xFFFFFFFFFFFFFFFFFFFFFFFFFFFFFFFFFFFFFFFF AND DUP2 MSTORE PUSH1 0x20 ADD SWAP1 DUP2 MSTORE PUSH1 0x20 ADD PUSH0 KECCAK256 PUSH0 DUP6 PUSH20 0xFFFFFFFFFFFFFFFFFFFFFFFFFFFFFFFFFFFFFFFF AND PUSH20 0xFFFFFFFFFFFFFFFFFFFFFFFFFFFFFFFFFFFFFFFF AND DUP2 MSTORE PUSH1 0x20 ADD SWAP1 DUP2 MSTORE PUSH1 0x20 ADD PUSH0 KECCAK256 DUP2 SWAP1 SSTORE POP DUP1 ISZERO PUSH2 0x80D JUMPI DUP3 PUSH20 0xFFFFFFFFFFFFFFFFFFFFFFFFFFFFFFFFFFFFFFFF AND DUP5 PUSH20 0xFFFFFFFFFFFFFFFFFFFFFFFFFFFFFFFFFFFFFFFF AND PUSH32 0x8C5BE1E5EBEC7D5BD14F71427D1E84F3DD0314C0F7B2291E5B200AC8C7C3B925 DUP5 PUSH1 0x40 MLOAD PUSH2 0x804 SWAP2 SWAP1 PUSH2 0xBE7 JUMP JUMPDEST PUSH1 0x40 MLOAD DUP1 SWAP2 SUB SWAP1 LOG3 JUMPDEST POP POP POP POP JUMP JUMPDEST PUSH0 PUSH20 0xFFFFFFFFFFFFFFFFFFFFFFFFFFFFFFFFFFFFFFFF AND DUP4 PUSH20 0xFFFFFFFFFFFFFFFFFFFFFFFFFFFFFFFFFFFFFFFF AND SUB PUSH2 0x863 JUMPI DUP1 PUSH1 0x2 PUSH0 DUP3 DUP3 SLOAD PUSH2 0x857 SWAP2 SWAP1 PUSH2 0xDD4 JUMP JUMPDEST SWAP3 POP POP DUP2 SWAP1 SSTORE POP PUSH2 0x931 JUMP JUMPDEST PUSH0 DUP1 PUSH0 DUP6 PUSH20 0xFFFFFFFFFFFFFFFFFFFFFFFFFFFFFFFFFFFFFFFF AND PUSH20 0xFFFFFFFFFFFFFFFFFFFFFFFFFFFFFFFFFFFFFFFF AND DUP2 MSTORE PUSH1 0x20 ADD SWAP1 DUP2 MSTORE PUSH1 0x20 ADD PUSH0 KECCAK256 SLOAD SWAP1 POP DUP2 DUP2 LT ISZERO PUSH2 0x8EC JUMPI DUP4 DUP2 DUP4 PUSH1 0x40 MLOAD PUSH32 0xE450D38C00000000000000000000000000000000000000000000000000000000 DUP2 MSTORE PUSH1 0x4 ADD PUSH2 0x8E3 SWAP4 SWAP3 SWAP2 SWAP1 PUSH2 0xD59 JUMP JUMPDEST PUSH1 0x40 MLOAD DUP1 SWAP2 SUB SWAP1 REVERT JUMPDEST DUP2 DUP2 SUB PUSH0 DUP1 DUP7 PUSH20 0xFFFFFFFFFFFFFFFFFFFFFFFFFFFFFFFFFFFFFFFF AND PUSH20 0xFFFFFFFFFFFFFFFFFFFFFFFFFFFFFFFFFFFFFFFF AND DUP2 MSTORE PUSH1 0x20 ADD SWAP1 DUP2 MSTORE PUSH1 0x20 ADD PUSH0 KECCAK256 DUP2 SWAP1 SSTORE POP POP JUMPDEST PUSH0 PUSH20 0xFFFFFFFFFFFFFFFFFFFFFFFFFFFFFFFFFFFFFFFF AND DUP3 PUSH20 0xFFFFFFFFFFFFFFFFFFFFFFFFFFFFFFFFFFFFFFFF AND SUB PUSH2 0x978 JUMPI DUP1 PUSH1 0x2 PUSH0 DUP3 DUP3 SLOAD SUB SWAP3 POP POP DUP2 SWAP1 SSTORE POP PUSH2 0x9C2 JUMP JUMPDEST DUP1 PUSH0 DUP1 DUP5 PUSH20 0xFFFFFFFFFFFFFFFFFFFFFFFFFFFFFFFFFFFFFFFF AND PUSH20 0xFFFFFFFFFFFFFFFFFFFFFFFFFFFFFFFFFFFFFFFF AND DUP2 MSTORE PUSH1 0x20 ADD SWAP1 DUP2 MSTORE PUSH1 0x20 ADD PUSH0 KECCAK256 PUSH0 DUP3 DUP3 SLOAD ADD SWAP3 POP POP DUP2 SWAP1 SSTORE POP JUMPDEST DUP2 PUSH20 0xFFFFFFFFFFFFFFFFFFFFFFFFFFFFFFFFFFFFFFFF AND DUP4 PUSH20 0xFFFFFFFFFFFFFFFFFFFFFFFFFFFFFFFFFFFFFFFF AND PUSH32 0xDDF252AD1BE2C89B69C2B068FC378DAA952BA7F163C4A11628F55A4DF523B3EF DUP4 PUSH1 0x40 MLOAD PUSH2 0xA1F SWAP2 SWAP1 PUSH2 0xBE7 JUMP JUMPDEST PUSH1 0x40 MLOAD DUP1 SWAP2 SUB SWAP1 LOG3 POP POP POP JUMP JUMPDEST PUSH0 DUP2 MLOAD SWAP1 POP SWAP2 SWAP1 POP JUMP JUMPDEST PUSH0 DUP3 DUP3 MSTORE PUSH1 0x20 DUP3 ADD SWAP1 POP SWAP3 SWAP2 POP POP JUMP JUMPDEST PUSH0 JUMPDEST DUP4 DUP2 LT ISZERO PUSH2 0xA63 JUMPI DUP1 DUP3 ADD MLOAD DUP2 DUP5 ADD MSTORE PUSH1 0x20 DUP2 ADD SWAP1 POP PUSH2 0xA48 JUMP JUMPDEST PUSH0 DUP5 DUP5 ADD MSTORE POP POP POP POP JUMP JUMPDEST PUSH0 PUSH1 0x1F NOT PUSH1 0x1F DUP4 ADD AND SWAP1 POP SWAP2 SWAP1 POP JUMP JUMPDEST PUSH0 PUSH2 0xA88 DUP3 PUSH2 0xA2C JUMP JUMPDEST PUSH2 0xA92 DUP2 DUP6 PUSH2 0xA36 JUMP JUMPDEST SWAP4 POP PUSH2 0xAA2 DUP2 DUP6 PUSH1 0x20 DUP7 ADD PUSH2 0xA46 JUMP JUMPDEST PUSH2 0xAAB DUP2 PUSH2 0xA6E JUMP JUMPDEST DUP5 ADD SWAP2 POP POP SWAP3 SWAP2 POP POP JUMP JUMPDEST PUSH0 PUSH1 0x20 DUP3 ADD SWAP1 POP DUP2 DUP2 SUB PUSH0 DUP4 ADD MSTORE PUSH2 0xACE DUP2 DUP5 PUSH2 0xA7E JUMP JUMPDEST SWAP1 POP SWAP3 SWAP2 POP POP JUMP JUMPDEST PUSH0 DUP1 REVERT JUMPDEST PUSH0 PUSH20 0xFFFFFFFFFFFFFFFFFFFFFFFFFFFFFFFFFFFFFFFF DUP3 AND SWAP1 POP SWAP2 SWAP1 POP JUMP JUMPDEST PUSH0 PUSH2 0xB03 DUP3 PUSH2 0xADA JUMP JUMPDEST SWAP1 POP SWAP2 SWAP1 POP JUMP JUMPDEST PUSH2 0xB13 DUP2 PUSH2 0xAF9 JUMP JUMPDEST DUP2 EQ PUSH2 0xB1D JUMPI PUSH0 DUP1 REVERT JUMPDEST POP JUMP JUMPDEST PUSH0 DUP2 CALLDATALOAD SWAP1 POP PUSH2 0xB2E DUP2 PUSH2 0xB0A JUMP JUMPDEST SWAP3 SWAP2 POP POP JUMP JUMPDEST PUSH0 DUP2 SWAP1 POP SWAP2 SWAP1 POP JUMP JUMPDEST PUSH2 0xB46 DUP2 PUSH2 0xB34 JUMP JUMPDEST DUP2 EQ PUSH2 0xB50 JUMPI PUSH0 DUP1 REVERT JUMPDEST POP JUMP JUMPDEST PUSH0 DUP2 CALLDATALOAD SWAP1 POP PUSH2 0xB61 DUP2 PUSH2 0xB3D JUMP JUMPDEST SWAP3 SWAP2 POP POP JUMP JUMPDEST PUSH0 DUP1 PUSH1 0x40 DUP4 DUP6 SUB SLT ISZERO PUSH2 0xB7D JUMPI PUSH2 0xB7C PUSH2 0xAD6 JUMP JUMPDEST JUMPDEST PUSH0 PUSH2 0xB8A DUP6 DUP3 DUP7 ADD PUSH2 0xB20 JUMP JUMPDEST SWAP3 POP POP PUSH1 0x20 PUSH2 0xB9B DUP6 DUP3 DUP7 ADD PUSH2 0xB53 JUMP JUMPDEST SWAP2 POP POP SWAP3 POP SWAP3 SWAP1 POP JUMP JUMPDEST PUSH0 DUP2 ISZERO ISZERO SWAP1 POP SWAP2 SWAP1 POP JUMP JUMPDEST PUSH2 0xBB9 DUP2 PUSH2 0xBA5 JUMP JUMPDEST DUP3 MSTORE POP POP JUMP JUMPDEST PUSH0 PUSH1 0x20 DUP3 ADD SWAP1 POP PUSH2 0xBD2 PUSH0 DUP4 ADD DUP5 PUSH2 0xBB0 JUMP JUMPDEST SWAP3 SWAP2 POP POP JUMP JUMPDEST PUSH2 0xBE1 DUP2 PUSH2 0xB34 JUMP JUMPDEST DUP3 MSTORE POP POP JUMP JUMPDEST PUSH0 PUSH1 0x20 DUP3 ADD SWAP1 POP PUSH2 0xBFA PUSH0 DUP4 ADD DUP5 PUSH2 0xBD8 JUMP JUMPDEST SWAP3 SWAP2 POP POP JUMP JUMPDEST PUSH0 DUP1 PUSH0 PUSH1 0x60 DUP5 DUP7 SUB SLT ISZERO PUSH2 0xC17 JUMPI PUSH2 0xC16 PUSH2 0xAD6 JUMP JUMPDEST JUMPDEST PUSH0 PUSH2 0xC24 DUP7 DUP3 DUP8 ADD PUSH2 0xB20 JUMP JUMPDEST SWAP4 POP POP PUSH1 0x20 PUSH2 0xC35 DUP7 DUP3 DUP8 ADD PUSH2 0xB20 JUMP JUMPDEST SWAP3 POP POP PUSH1 0x40 PUSH2 0xC46 DUP7 DUP3 DUP8 ADD PUSH2 0xB53 JUMP JUMPDEST SWAP2 POP POP SWAP3 POP SWAP3 POP SWAP3 JUMP JUMPDEST PUSH0 PUSH1 0xFF DUP3 AND SWAP1 POP SWAP2 SWAP1 POP JUMP JUMPDEST PUSH2 0xC65 DUP2 PUSH2 0xC50 JUMP JUMPDEST DUP3 MSTORE POP POP JUMP JUMPDEST PUSH0 PUSH1 0x20 DUP3 ADD SWAP1 POP PUSH2 0xC7E PUSH0 DUP4 ADD DUP5 PUSH2 0xC5C JUMP JUMPDEST SWAP3 SWAP2 POP POP JUMP JUMPDEST PUSH0 PUSH1 0x20 DUP3 DUP5 SUB SLT ISZERO PUSH2 0xC99 JUMPI PUSH2 0xC98 PUSH2 0xAD6 JUMP JUMPDEST JUMPDEST PUSH0 PUSH2 0xCA6 DUP5 DUP3 DUP6 ADD PUSH2 0xB20 JUMP JUMPDEST SWAP2 POP POP SWAP3 SWAP2 POP POP JUMP JUMPDEST PUSH0 DUP1 PUSH1 0x40 DUP4 DUP6 SUB SLT ISZERO PUSH2 0xCC5 JUMPI PUSH2 0xCC4 PUSH2 0xAD6 JUMP JUMPDEST JUMPDEST PUSH0 PUSH2 0xCD2 DUP6 DUP3 DUP7 ADD PUSH2 0xB20 JUMP JUMPDEST SWAP3 POP POP PUSH1 0x20 PUSH2 0xCE3 DUP6 DUP3 DUP7 ADD PUSH2 0xB20 JUMP JUMPDEST SWAP2 POP POP SWAP3 POP SWAP3 SWAP1 POP JUMP JUMPDEST PUSH32 0x4E487B7100000000000000000000000000000000000000000000000000000000 PUSH0 MSTORE PUSH1 0x22 PUSH1 0x4 MSTORE PUSH1 0x24 PUSH0 REVERT JUMPDEST PUSH0 PUSH1 0x2 DUP3 DIV SWAP1 POP PUSH1 0x1 DUP3 AND DUP1 PUSH2 0xD31 JUMPI PUSH1 0x7F DUP3 AND SWAP2 POP JUMPDEST PUSH1 0x20 DUP3 LT DUP2 SUB PUSH2 0xD44 JUMPI PUSH2 0xD43 PUSH2 0xCED JUMP JUMPDEST JUMPDEST POP SWAP2 SWAP1 POP JUMP JUMPDEST PUSH2 0xD53 DUP2 PUSH2 0xAF9 JUMP JUMPDEST DUP3 MSTORE POP POP JUMP JUMPDEST PUSH0 PUSH1 0x60 DUP3 ADD SWAP1 POP PUSH2 0xD6C PUSH0 DUP4 ADD DUP7 PUSH2 0xD4A JUMP JUMPDEST PUSH2 0xD79 PUSH1 0x20 DUP4 ADD DUP6 PUSH2 0xBD8 JUMP JUMPDEST PUSH2 0xD86 PUSH1 0x40 DUP4 ADD DUP5 PUSH2 0xBD8 JUMP JUMPDEST SWAP5 SWAP4 POP POP POP POP JUMP JUMPDEST PUSH0 PUSH1 0x20 DUP3 ADD SWAP1 POP PUSH2 0xDA1 PUSH0 DUP4 ADD DUP5 PUSH2 0xD4A JUMP JUMPDEST SWAP3 SWAP2 POP POP JUMP JUMPDEST PUSH32 0x4E487B7100000000000000000000000000000000000000000000000000000000 PUSH0 MSTORE PUSH1 0x11 PUSH1 0x4 MSTORE PUSH1 0x24 PUSH0 REVERT JUMPDEST PUSH0 PUSH2 0xDDE DUP3 PUSH2 0xB34 JUMP JUMPDEST SWAP2 POP PUSH2 0xDE9 DUP4 PUSH2 0xB34 JUMP JUMPDEST SWAP3 POP DUP3 DUP3 ADD SWAP1 POP DUP1 DUP3 GT ISZERO PUSH2 0xE01 JUMPI PUSH2 0xE00 PUSH2 0xDA7 JUMP JUMPDEST JUMPDEST SWAP3 SWAP2 POP POP JUMP INVALID LOG2 PUSH5 0x6970667358 0x22 SLT KECCAK256 0x5E 0xB9 0x1E 0xC2 DUP11 PUSH17 0x984EAA743A446FD0E7B3A796C3318090E6 CHAINID PUSH29 0x4E8BA41897EE9F64736F6C634300081400330000000000000000000000 "
				},
				"gasEstimates": {
					"creation": {
						"codeDepositCost": "729000",
						"executionCost": "infinite",
						"totalCost": "infinite"
					},
					"external": {
						"_adminLockTime()": "2469",
						"allowance(address,address)": "infinite",
						"approve(address,uint256)": "infinite",
						"balanceOf(address)": "2829",
						"decimals()": "427",
						"name()": "infinite",
						"symbol()": "infinite",
						"totalSupply()": "2477",
						"transfer(address,uint256)": "infinite",
						"transferFrom(address,address,uint256)": "infinite"
					}
				},
				"methodIdentifiers": {
					"_adminLockTime()": "9f3adb0e",
					"allowance(address,address)": "dd62ed3e",
					"approve(address,uint256)": "095ea7b3",
					"balanceOf(address)": "70a08231",
					"decimals()": "313ce567",
					"name()": "06fdde03",
					"symbol()": "95d89b41",
					"totalSupply()": "18160ddd",
					"transfer(address,uint256)": "a9059cbb",
					"transferFrom(address,address,uint256)": "23b872dd"
				}
			},
			"storageLayout": {
				"storage": [
					{
						"astId": 233,
						"contract": "contracts/test.sol:Main",
						"label": "_balances",
						"offset": 0,
						"slot": "0",
						"type": "t_mapping(t_address,t_uint256)"
					},
					{
						"astId": 239,
						"contract": "contracts/test.sol:Main",
						"label": "_allowances",
						"offset": 0,
						"slot": "1",
						"type": "t_mapping(t_address,t_mapping(t_address,t_uint256))"
					},
					{
						"astId": 241,
						"contract": "contracts/test.sol:Main",
						"label": "_totalSupply",
						"offset": 0,
						"slot": "2",
						"type": "t_uint256"
					},
					{
						"astId": 243,
						"contract": "contracts/test.sol:Main",
						"label": "_name",
						"offset": 0,
						"slot": "3",
						"type": "t_string_storage"
					},
					{
						"astId": 245,
						"contract": "contracts/test.sol:Main",
						"label": "_symbol",
						"offset": 0,
						"slot": "4",
						"type": "t_string_storage"
					},
					{
						"astId": 6,
						"contract": "contracts/test.sol:Main",
						"label": "_totalMinted",
						"offset": 0,
						"slot": "5",
						"type": "t_uint256"
					},
					{
						"astId": 8,
						"contract": "contracts/test.sol:Main",
						"label": "_totalSupply",
						"offset": 0,
						"slot": "6",
						"type": "t_uint256"
					},
					{
						"astId": 10,
						"contract": "contracts/test.sol:Main",
						"label": "_lockTime",
						"offset": 0,
						"slot": "7",
						"type": "t_uint256"
					},
					{
						"astId": 12,
						"contract": "contracts/test.sol:Main",
						"label": "_adminLockTime",
						"offset": 0,
						"slot": "8",
						"type": "t_uint256"
					}
				],
				"types": {
					"t_address": {
						"encoding": "inplace",
						"label": "address",
						"numberOfBytes": "20"
					},
					"t_mapping(t_address,t_mapping(t_address,t_uint256))": {
						"encoding": "mapping",
						"key": "t_address",
						"label": "mapping(address => mapping(address => uint256))",
						"numberOfBytes": "32",
						"value": "t_mapping(t_address,t_uint256)"
					},
					"t_mapping(t_address,t_uint256)": {
						"encoding": "mapping",
						"key": "t_address",
						"label": "mapping(address => uint256)",
						"numberOfBytes": "32",
						"value": "t_uint256"
					},
					"t_string_storage": {
						"encoding": "bytes",
						"label": "string",
						"numberOfBytes": "32"
					},
					"t_uint256": {
						"encoding": "inplace",
						"label": "uint256",
						"numberOfBytes": "32"
					}
				}
			},
			"userdoc": {
				"kind": "user",
				"methods": {},
				"version": 1
			}
		}
	}
}