{
	"userfrontend/contracts/ERC20subscription.sol": {
		"ERC20subscription": {
			"abi": [
				{
					"inputs": [
						{
							"internalType": "address",
							"name": "_owner",
							"type": "address"
						},
						{
							"internalType": "string",
							"name": "_name",
							"type": "string"
						},
						{
							"internalType": "string",
							"name": "_symbol",
							"type": "string"
						},
						{
							"internalType": "uint256",
							"name": "__totalSupply",
							"type": "uint256"
						},
						{
							"internalType": "address[]",
							"name": "subscribers",
							"type": "address[]"
						},
						{
							"internalType": "uint256[]",
							"name": "amounts",
							"type": "uint256[]"
						},
						{
							"internalType": "uint256",
							"name": "__lockTime",
							"type": "uint256"
						}
					],
					"stateMutability": "nonpayable",
					"type": "constructor"
				},
				{
					"inputs": [
						{
							"internalType": "address",
							"name": "spender",
							"type": "address"
						},
						{
							"internalType": "uint256",
							"name": "allowance",
							"type": "uint256"
						},
						{
							"internalType": "uint256",
							"name": "needed",
							"type": "uint256"
						}
					],
					"name": "ERC20InsufficientAllowance",
					"type": "error"
				},
				{
					"inputs": [
						{
							"internalType": "address",
							"name": "sender",
							"type": "address"
						},
						{
							"internalType": "uint256",
							"name": "balance",
							"type": "uint256"
						},
						{
							"internalType": "uint256",
							"name": "needed",
							"type": "uint256"
						}
					],
					"name": "ERC20InsufficientBalance",
					"type": "error"
				},
				{
					"inputs": [
						{
							"internalType": "address",
							"name": "approver",
							"type": "address"
						}
					],
					"name": "ERC20InvalidApprover",
					"type": "error"
				},
				{
					"inputs": [
						{
							"internalType": "address",
							"name": "receiver",
							"type": "address"
						}
					],
					"name": "ERC20InvalidReceiver",
					"type": "error"
				},
				{
					"inputs": [
						{
							"internalType": "address",
							"name": "sender",
							"type": "address"
						}
					],
					"name": "ERC20InvalidSender",
					"type": "error"
				},
				{
					"inputs": [
						{
							"internalType": "address",
							"name": "spender",
							"type": "address"
						}
					],
					"name": "ERC20InvalidSpender",
					"type": "error"
				},
				{
					"inputs": [
						{
							"internalType": "address",
							"name": "owner",
							"type": "address"
						}
					],
					"name": "OwnableInvalidOwner",
					"type": "error"
				},
				{
					"inputs": [
						{
							"internalType": "address",
							"name": "account",
							"type": "address"
						}
					],
					"name": "OwnableUnauthorizedAccount",
					"type": "error"
				},
				{
					"anonymous": false,
					"inputs": [
						{
							"indexed": true,
							"internalType": "address",
							"name": "owner",
							"type": "address"
						},
						{
							"indexed": true,
							"internalType": "address",
							"name": "spender",
							"type": "address"
						},
						{
							"indexed": false,
							"internalType": "uint256",
							"name": "value",
							"type": "uint256"
						}
					],
					"name": "Approval",
					"type": "event"
				},
				{
					"anonymous": false,
					"inputs": [
						{
							"indexed": true,
							"internalType": "address",
							"name": "previousOwner",
							"type": "address"
						},
						{
							"indexed": true,
							"internalType": "address",
							"name": "newOwner",
							"type": "address"
						}
					],
					"name": "OwnershipTransferred",
					"type": "event"
				},
				{
					"anonymous": false,
					"inputs": [
						{
							"indexed": true,
							"internalType": "address",
							"name": "from",
							"type": "address"
						},
						{
							"indexed": true,
							"internalType": "address",
							"name": "to",
							"type": "address"
						},
						{
							"indexed": false,
							"internalType": "uint256",
							"name": "value",
							"type": "uint256"
						}
					],
					"name": "Transfer",
					"type": "event"
				},
				{
					"anonymous": false,
					"inputs": [
						{
							"indexed": false,
							"internalType": "address",
							"name": "from",
							"type": "address"
						},
						{
							"indexed": false,
							"internalType": "address",
							"name": "to",
							"type": "address"
						},
						{
							"indexed": false,
							"internalType": "uint256",
							"name": "value",
							"type": "uint256"
						},
						{
							"indexed": false,
							"internalType": "string",
							"name": "symbol",
							"type": "string"
						}
					],
					"name": "TransferWithSymbol",
					"type": "event"
				},
				{
					"inputs": [
						{
							"internalType": "address",
							"name": "_useraddress",
							"type": "address"
						},
						{
							"internalType": "uint256",
							"name": "amount",
							"type": "uint256"
						}
					],
					"name": "ForceBurn",
					"outputs": [],
					"stateMutability": "nonpayable",
					"type": "function"
				},
				{
					"inputs": [
						{
							"internalType": "address",
							"name": "_useraddress",
							"type": "address"
						},
						{
							"internalType": "uint256",
							"name": "amount",
							"type": "uint256"
						}
					],
					"name": "ForceMint",
					"outputs": [],
					"stateMutability": "nonpayable",
					"type": "function"
				},
				{
					"inputs": [],
					"name": "_adminLockTime",
					"outputs": [
						{
							"internalType": "uint256",
							"name": "",
							"type": "uint256"
						}
					],
					"stateMutability": "view",
					"type": "function"
				},
				{
					"inputs": [
						{
							"internalType": "address",
							"name": "owner",
							"type": "address"
						},
						{
							"internalType": "address",
							"name": "spender",
							"type": "address"
						}
					],
					"name": "allowance",
					"outputs": [
						{
							"internalType": "uint256",
							"name": "",
							"type": "uint256"
						}
					],
					"stateMutability": "view",
					"type": "function"
				},
				{
					"inputs": [
						{
							"internalType": "address",
							"name": "spender",
							"type": "address"
						},
						{
							"internalType": "uint256",
							"name": "value",
							"type": "uint256"
						}
					],
					"name": "approve",
					"outputs": [
						{
							"internalType": "bool",
							"name": "",
							"type": "bool"
						}
					],
					"stateMutability": "nonpayable",
					"type": "function"
				},
				{
					"inputs": [
						{
							"internalType": "address",
							"name": "account",
							"type": "address"
						}
					],
					"name": "balanceOf",
					"outputs": [
						{
							"internalType": "uint256",
							"name": "",
							"type": "uint256"
						}
					],
					"stateMutability": "view",
					"type": "function"
				},
				{
					"inputs": [],
					"name": "decimals",
					"outputs": [
						{
							"internalType": "uint8",
							"name": "",
							"type": "uint8"
						}
					],
					"stateMutability": "pure",
					"type": "function"
				},
				{
					"inputs": [],
					"name": "getDocumentURI",
					"outputs": [
						{
							"internalType": "string",
							"name": "",
							"type": "string"
						}
					],
					"stateMutability": "view",
					"type": "function"
				},
				{
					"inputs": [],
					"name": "getLockTime",
					"outputs": [
						{
							"internalType": "uint256",
							"name": "",
							"type": "uint256"
						}
					],
					"stateMutability": "view",
					"type": "function"
				},
				{
					"inputs": [],
					"name": "name",
					"outputs": [
						{
							"internalType": "string",
							"name": "",
							"type": "string"
						}
					],
					"stateMutability": "view",
					"type": "function"
				},
				{
					"inputs": [],
					"name": "owner",
					"outputs": [
						{
							"internalType": "address",
							"name": "",
							"type": "address"
						}
					],
					"stateMutability": "view",
					"type": "function"
				},
				{
					"inputs": [],
					"name": "renounceOwnership",
					"outputs": [],
					"stateMutability": "nonpayable",
					"type": "function"
				},
				{
					"inputs": [
						{
							"internalType": "string",
							"name": "__documentURI",
							"type": "string"
						}
					],
					"name": "setDocumentURI",
					"outputs": [],
					"stateMutability": "nonpayable",
					"type": "function"
				},
				{
					"inputs": [],
					"name": "symbol",
					"outputs": [
						{
							"internalType": "string",
							"name": "",
							"type": "string"
						}
					],
					"stateMutability": "view",
					"type": "function"
				},
				{
					"inputs": [],
					"name": "totalSupply",
					"outputs": [
						{
							"internalType": "uint256",
							"name": "",
							"type": "uint256"
						}
					],
					"stateMutability": "view",
					"type": "function"
				},
				{
					"inputs": [
						{
							"internalType": "address",
							"name": "to",
							"type": "address"
						},
						{
							"internalType": "uint256",
							"name": "amount",
							"type": "uint256"
						}
					],
					"name": "transfer",
					"outputs": [
						{
							"internalType": "bool",
							"name": "",
							"type": "bool"
						}
					],
					"stateMutability": "nonpayable",
					"type": "function"
				},
				{
					"inputs": [
						{
							"internalType": "address",
							"name": "from",
							"type": "address"
						},
						{
							"internalType": "address",
							"name": "to",
							"type": "address"
						},
						{
							"internalType": "uint256",
							"name": "amount",
							"type": "uint256"
						}
					],
					"name": "transferFrom",
					"outputs": [
						{
							"internalType": "bool",
							"name": "",
							"type": "bool"
						}
					],
					"stateMutability": "nonpayable",
					"type": "function"
				},
				{
					"inputs": [
						{
							"internalType": "address",
							"name": "newOwner",
							"type": "address"
						}
					],
					"name": "transferOwnership",
					"outputs": [],
					"stateMutability": "nonpayable",
					"type": "function"
				}
			],
			"devdoc": {
				"errors": {
					"ERC20InsufficientAllowance(address,uint256,uint256)": [
						{
							"details": "Indicates a failure with the `spender`’s `allowance`. Used in transfers.",
							"params": {
								"allowance": "Amount of tokens a `spender` is allowed to operate with.",
								"needed": "Minimum amount required to perform a transfer.",
								"spender": "Address that may be allowed to operate on tokens without being their owner."
							}
						}
					],
					"ERC20InsufficientBalance(address,uint256,uint256)": [
						{
							"details": "Indicates an error related to the current `balance` of a `sender`. Used in transfers.",
							"params": {
								"balance": "Current balance for the interacting account.",
								"needed": "Minimum amount required to perform a transfer.",
								"sender": "Address whose tokens are being transferred."
							}
						}
					],
					"ERC20InvalidApprover(address)": [
						{
							"details": "Indicates a failure with the `approver` of a token to be approved. Used in approvals.",
							"params": {
								"approver": "Address initiating an approval operation."
							}
						}
					],
					"ERC20InvalidReceiver(address)": [
						{
							"details": "Indicates a failure with the token `receiver`. Used in transfers.",
							"params": {
								"receiver": "Address to which tokens are being transferred."
							}
						}
					],
					"ERC20InvalidSender(address)": [
						{
							"details": "Indicates a failure with the token `sender`. Used in transfers.",
							"params": {
								"sender": "Address whose tokens are being transferred."
							}
						}
					],
					"ERC20InvalidSpender(address)": [
						{
							"details": "Indicates a failure with the `spender` to be approved. Used in approvals.",
							"params": {
								"spender": "Address that may be allowed to operate on tokens without being their owner."
							}
						}
					],
					"OwnableInvalidOwner(address)": [
						{
							"details": "The owner is not a valid owner account. (eg. `address(0)`)"
						}
					],
					"OwnableUnauthorizedAccount(address)": [
						{
							"details": "The caller account is not authorized to perform an operation."
						}
					]
				},
				"events": {
					"Approval(address,address,uint256)": {
						"details": "Emitted when the allowance of a `spender` for an `owner` is set by a call to {approve}. `value` is the new allowance."
					},
					"Transfer(address,address,uint256)": {
						"details": "Emitted when `value` tokens are moved from one account (`from`) to another (`to`). Note that `value` may be zero."
					}
				},
				"kind": "dev",
				"methods": {
					"allowance(address,address)": {
						"details": "See {IERC20-allowance}."
					},
					"approve(address,uint256)": {
						"details": "See {IERC20-approve}. NOTE: If `value` is the maximum `uint256`, the allowance is not updated on `transferFrom`. This is semantically equivalent to an infinite approval. Requirements: - `spender` cannot be the zero address."
					},
					"balanceOf(address)": {
						"details": "See {IERC20-balanceOf}."
					},
					"decimals()": {
						"details": "Returns the number of decimals used to get its user representation. For example, if `decimals` equals `2`, a balance of `505` tokens should be displayed to a user as `5.05` (`505 / 10 ** 2`). Tokens usually opt for a value of 18, imitating the relationship between Ether and Wei. This is the default value returned by this function, unless it's overridden. NOTE: This information is only used for _display_ purposes: it in no way affects any of the arithmetic of the contract, including {IERC20-balanceOf} and {IERC20-transfer}."
					},
					"name()": {
						"details": "Returns the name of the token."
					},
					"owner()": {
						"details": "Returns the address of the current owner."
					},
					"renounceOwnership()": {
						"details": "Leaves the contract without owner. It will not be possible to call `onlyOwner` functions. Can only be called by the current owner. NOTE: Renouncing ownership will leave the contract without an owner, thereby disabling any functionality that is only available to the owner."
					},
					"symbol()": {
						"details": "Returns the symbol of the token, usually a shorter version of the name."
					},
					"totalSupply()": {
						"details": "See {IERC20-totalSupply}."
					},
					"transferOwnership(address)": {
						"details": "Transfers ownership of the contract to a new account (`newOwner`). Can only be called by the current owner."
					}
				},
				"version": 1
			},
			"evm": {
				"assembly": "    /* \"userfrontend/contracts/ERC20subscription.sol\":206:3775  contract ERC20subscription is ERC20, Ownable {... */\n  mstore(0x40, 0x80)\n    /* \"userfrontend/contracts/ERC20subscription.sol\":890:1816  constructor(... */\n  callvalue\n  dup1\n  iszero\n  tag_1\n  jumpi\n  0x00\n  dup1\n  revert\ntag_1:\n  pop\n  mload(0x40)\n  sub(codesize, bytecodeSize)\n  dup1\n  bytecodeSize\n  dup4\n  codecopy\n  dup2\n  dup2\n  add\n  0x40\n  mstore\n  dup2\n  add\n  swap1\n  tag_2\n  swap2\n  swap1\n  tag_3\n  jump\t// in\ntag_2:\n    /* \"userfrontend/contracts/ERC20subscription.sol\":1161:1167  _owner */\n  dup7\n    /* \"userfrontend/contracts/ERC20subscription.sol\":1138:1143  _name */\n  dup7\n    /* \"userfrontend/contracts/ERC20subscription.sol\":1144:1151  _symbol */\n  dup7\n    /* \"userfrontend/node_modules/@openzeppelin/contracts/token/ERC20/ERC20.sol\":1970:1975  name_ */\n  dup2\n    /* \"userfrontend/node_modules/@openzeppelin/contracts/token/ERC20/ERC20.sol\":1962:1967  _name */\n  0x03\n    /* \"userfrontend/node_modules/@openzeppelin/contracts/token/ERC20/ERC20.sol\":1962:1975  _name = name_ */\n  swap1\n  dup2\n  tag_8\n  swap2\n  swap1\n  tag_9\n  jump\t// in\ntag_8:\n  pop\n    /* \"userfrontend/node_modules/@openzeppelin/contracts/token/ERC20/ERC20.sol\":1995:2002  symbol_ */\n  dup1\n    /* \"userfrontend/node_modules/@openzeppelin/contracts/token/ERC20/ERC20.sol\":1985:1992  _symbol */\n  0x04\n    /* \"userfrontend/node_modules/@openzeppelin/contracts/token/ERC20/ERC20.sol\":1985:2002  _symbol = symbol_ */\n  swap1\n  dup2\n  tag_10\n  swap2\n  swap1\n  tag_9\n  jump\t// in\ntag_10:\n  pop\n    /* \"userfrontend/node_modules/@openzeppelin/contracts/token/ERC20/ERC20.sol\":1896:2009  constructor(string memory name_, string memory symbol_) {... */\n  pop\n  pop\n    /* \"userfrontend/node_modules/@openzeppelin/contracts/access/Ownable.sol\":1297:1298  0 */\n  0x00\n    /* \"userfrontend/node_modules/@openzeppelin/contracts/access/Ownable.sol\":1273:1299  initialOwner == address(0) */\n  0xffffffffffffffffffffffffffffffffffffffff\n  and\n    /* \"userfrontend/node_modules/@openzeppelin/contracts/access/Ownable.sol\":1273:1285  initialOwner */\n  dup2\n    /* \"userfrontend/node_modules/@openzeppelin/contracts/access/Ownable.sol\":1273:1299  initialOwner == address(0) */\n  0xffffffffffffffffffffffffffffffffffffffff\n  and\n  sub\n    /* \"userfrontend/node_modules/@openzeppelin/contracts/access/Ownable.sol\":1269:1364  if (initialOwner == address(0)) {... */\n  tag_12\n  jumpi\n    /* \"userfrontend/node_modules/@openzeppelin/contracts/access/Ownable.sol\":1350:1351  0 */\n  0x00\n    /* \"userfrontend/node_modules/@openzeppelin/contracts/access/Ownable.sol\":1322:1353  OwnableInvalidOwner(address(0)) */\n  mload(0x40)\n  0x1e4fbdf700000000000000000000000000000000000000000000000000000000\n  dup2\n  mstore\n  0x04\n  add\n  tag_13\n  swap2\n  swap1\n  tag_14\n  jump\t// in\ntag_13:\n  mload(0x40)\n  dup1\n  swap2\n  sub\n  swap1\n  revert\n    /* \"userfrontend/node_modules/@openzeppelin/contracts/access/Ownable.sol\":1269:1364  if (initialOwner == address(0)) {... */\ntag_12:\n    /* \"userfrontend/node_modules/@openzeppelin/contracts/access/Ownable.sol\":1373:1405  _transferOwnership(initialOwner) */\n  tag_15\n    /* \"userfrontend/node_modules/@openzeppelin/contracts/access/Ownable.sol\":1392:1404  initialOwner */\n  dup2\n    /* \"userfrontend/node_modules/@openzeppelin/contracts/access/Ownable.sol\":1373:1391  _transferOwnership */\n  shl(0x20, tag_16)\n    /* \"userfrontend/node_modules/@openzeppelin/contracts/access/Ownable.sol\":1373:1405  _transferOwnership(initialOwner) */\n  0x20\n  shr\n  jump\t// in\ntag_15:\n    /* \"userfrontend/node_modules/@openzeppelin/contracts/access/Ownable.sol\":1225:1412  constructor(address initialOwner) {... */\n  pop\n    /* \"userfrontend/contracts/ERC20subscription.sol\":1209:1216  amounts */\n  dup2\n    /* \"userfrontend/contracts/ERC20subscription.sol\":1209:1223  amounts.length */\n  mload\n    /* \"userfrontend/contracts/ERC20subscription.sol\":1187:1198  subscribers */\n  dup4\n    /* \"userfrontend/contracts/ERC20subscription.sol\":1187:1205  subscribers.length */\n  mload\n    /* \"userfrontend/contracts/ERC20subscription.sol\":1187:1223  subscribers.length == amounts.length */\n  eq\n    /* \"userfrontend/contracts/ERC20subscription.sol\":1179:1270  require(subscribers.length == amounts.length, \"subscribers and their amounts do not match\") */\n  tag_18\n  jumpi\n  mload(0x40)\n  0x08c379a000000000000000000000000000000000000000000000000000000000\n  dup2\n  mstore\n  0x04\n  add\n  tag_19\n  swap1\n  tag_20\n  jump\t// in\ntag_19:\n  mload(0x40)\n  dup1\n  swap2\n  sub\n  swap1\n  revert\ntag_18:\n    /* \"userfrontend/contracts/ERC20subscription.sol\":1296:1309  __totalSupply */\n  dup4\n    /* \"userfrontend/contracts/ERC20subscription.sol\":1281:1293  _totalSupply */\n  0x07\n    /* \"userfrontend/contracts/ERC20subscription.sol\":1281:1309  _totalSupply = __totalSupply */\n  dup2\n  swap1\n  sstore\n  pop\n    /* \"userfrontend/contracts/ERC20subscription.sol\":1350:1360  __lockTime */\n  dup1\n    /* \"userfrontend/contracts/ERC20subscription.sol\":1332:1347  block.timestamp */\n  timestamp\n    /* \"userfrontend/contracts/ERC20subscription.sol\":1332:1360  block.timestamp + __lockTime */\n  tag_21\n  swap2\n  swap1\n  tag_22\n  jump\t// in\ntag_21:\n    /* \"userfrontend/contracts/ERC20subscription.sol\":1320:1329  _lockTime */\n  0x08\n    /* \"userfrontend/contracts/ERC20subscription.sol\":1320:1360  _lockTime = block.timestamp + __lockTime */\n  dup2\n  swap1\n  sstore\n  pop\n    /* \"userfrontend/contracts/ERC20subscription.sol\":1378:1387  uint256 i */\n  0x00\n    /* \"userfrontend/contracts/ERC20subscription.sol\":1373:1588  for (uint256 i = 0; i < subscribers.length; i++) {... */\ntag_23:\n    /* \"userfrontend/contracts/ERC20subscription.sol\":1397:1408  subscribers */\n  dup4\n    /* \"userfrontend/contracts/ERC20subscription.sol\":1397:1415  subscribers.length */\n  mload\n    /* \"userfrontend/contracts/ERC20subscription.sol\":1393:1394  i */\n  dup2\n    /* \"userfrontend/contracts/ERC20subscription.sol\":1393:1415  i < subscribers.length */\n  lt\n    /* \"userfrontend/contracts/ERC20subscription.sol\":1373:1588  for (uint256 i = 0; i < subscribers.length; i++) {... */\n  iszero\n  tag_24\n  jumpi\n    /* \"userfrontend/contracts/ERC20subscription.sol\":1474:1486  _totalSupply */\n  sload(0x07)\n    /* \"userfrontend/contracts/ERC20subscription.sol\":1458:1470  _totalMinted */\n  sload(0x06)\n    /* \"userfrontend/contracts/ERC20subscription.sol\":1445:1452  amounts */\n  dup5\n    /* \"userfrontend/contracts/ERC20subscription.sol\":1453:1454  i */\n  dup4\n    /* \"userfrontend/contracts/ERC20subscription.sol\":1445:1455  amounts[i] */\n  dup2\n  mload\n  dup2\n  lt\n  tag_26\n  jumpi\n  tag_27\n  tag_28\n  jump\t// in\ntag_27:\ntag_26:\n  0x20\n  mul\n  0x20\n  add\n  add\n  mload\n    /* \"userfrontend/contracts/ERC20subscription.sol\":1445:1470  amounts[i] + _totalMinted */\n  tag_29\n  swap2\n  swap1\n  tag_22\n  jump\t// in\ntag_29:\n    /* \"userfrontend/contracts/ERC20subscription.sol\":1445:1486  amounts[i] + _totalMinted <= _totalSupply */\n  gt\n  iszero\n    /* \"userfrontend/contracts/ERC20subscription.sol\":1437:1487  require(amounts[i] + _totalMinted <= _totalSupply) */\n  tag_30\n  jumpi\n  0x00\n  dup1\n  revert\ntag_30:\n    /* \"userfrontend/contracts/ERC20subscription.sol\":1502:1535  _mint(subscribers[i], amounts[i]) */\n  tag_31\n    /* \"userfrontend/contracts/ERC20subscription.sol\":1508:1519  subscribers */\n  dup5\n    /* \"userfrontend/contracts/ERC20subscription.sol\":1520:1521  i */\n  dup3\n    /* \"userfrontend/contracts/ERC20subscription.sol\":1508:1522  subscribers[i] */\n  dup2\n  mload\n  dup2\n  lt\n  tag_32\n  jumpi\n  tag_33\n  tag_28\n  jump\t// in\ntag_33:\ntag_32:\n  0x20\n  mul\n  0x20\n  add\n  add\n  mload\n    /* \"userfrontend/contracts/ERC20subscription.sol\":1524:1531  amounts */\n  dup5\n    /* \"userfrontend/contracts/ERC20subscription.sol\":1532:1533  i */\n  dup4\n    /* \"userfrontend/contracts/ERC20subscription.sol\":1524:1534  amounts[i] */\n  dup2\n  mload\n  dup2\n  lt\n  tag_34\n  jumpi\n  tag_35\n  tag_28\n  jump\t// in\ntag_35:\ntag_34:\n  0x20\n  mul\n  0x20\n  add\n  add\n  mload\n    /* \"userfrontend/contracts/ERC20subscription.sol\":1502:1507  _mint */\n  shl(0x20, tag_36)\n    /* \"userfrontend/contracts/ERC20subscription.sol\":1502:1535  _mint(subscribers[i], amounts[i]) */\n  0x20\n  shr\n  jump\t// in\ntag_31:\n    /* \"userfrontend/contracts/ERC20subscription.sol\":1566:1573  amounts */\n  dup3\n    /* \"userfrontend/contracts/ERC20subscription.sol\":1574:1575  i */\n  dup2\n    /* \"userfrontend/contracts/ERC20subscription.sol\":1566:1576  amounts[i] */\n  dup2\n  mload\n  dup2\n  lt\n  tag_37\n  jumpi\n  tag_38\n  tag_28\n  jump\t// in\ntag_38:\ntag_37:\n  0x20\n  mul\n  0x20\n  add\n  add\n  mload\n    /* \"userfrontend/contracts/ERC20subscription.sol\":1550:1562  _totalMinted */\n  0x06\n  0x00\n    /* \"userfrontend/contracts/ERC20subscription.sol\":1550:1576  _totalMinted += amounts[i] */\n  dup3\n  dup3\n  sload\n  tag_39\n  swap2\n  swap1\n  tag_22\n  jump\t// in\ntag_39:\n  swap3\n  pop\n  pop\n  dup2\n  swap1\n  sstore\n  pop\n    /* \"userfrontend/contracts/ERC20subscription.sol\":1417:1420  i++ */\n  dup1\n  dup1\n  tag_40\n  swap1\n  tag_41\n  jump\t// in\ntag_40:\n  swap2\n  pop\n  pop\n    /* \"userfrontend/contracts/ERC20subscription.sol\":1373:1588  for (uint256 i = 0; i < subscribers.length; i++) {... */\n  jump(tag_23)\ntag_24:\n  pop\n    /* \"userfrontend/contracts/ERC20subscription.sol\":1600:1622  uint256 remainedTokens */\n  0x00\n    /* \"userfrontend/contracts/ERC20subscription.sol\":1640:1652  _totalMinted */\n  sload(0x06)\n    /* \"userfrontend/contracts/ERC20subscription.sol\":1625:1637  _totalSupply */\n  sload(0x07)\n    /* \"userfrontend/contracts/ERC20subscription.sol\":1625:1652  _totalSupply - _totalMinted */\n  tag_42\n  swap2\n  swap1\n  tag_43\n  jump\t// in\ntag_42:\n    /* \"userfrontend/contracts/ERC20subscription.sol\":1600:1652  uint256 remainedTokens = _totalSupply - _totalMinted */\n  swap1\n  pop\n    /* \"userfrontend/contracts/ERC20subscription.sol\":1684:1685  0 */\n  0x00\n    /* \"userfrontend/contracts/ERC20subscription.sol\":1667:1681  remainedTokens */\n  dup2\n    /* \"userfrontend/contracts/ERC20subscription.sol\":1667:1685  remainedTokens > 0 */\n  gt\n    /* \"userfrontend/contracts/ERC20subscription.sol\":1663:1809  if (remainedTokens > 0) {... */\n  iszero\n  tag_44\n  jumpi\n    /* \"userfrontend/contracts/ERC20subscription.sol\":1702:1731  _mint(_owner, remainedTokens) */\n  tag_45\n    /* \"userfrontend/contracts/ERC20subscription.sol\":1708:1714  _owner */\n  dup9\n    /* \"userfrontend/contracts/ERC20subscription.sol\":1716:1730  remainedTokens */\n  dup3\n    /* \"userfrontend/contracts/ERC20subscription.sol\":1702:1707  _mint */\n  shl(0x20, tag_36)\n    /* \"userfrontend/contracts/ERC20subscription.sol\":1702:1731  _mint(_owner, remainedTokens) */\n  0x20\n  shr\n  jump\t// in\ntag_45:\n    /* \"userfrontend/contracts/ERC20subscription.sol\":1781:1789  31536000 */\n  0x01e13380\n    /* \"userfrontend/contracts/ERC20subscription.sol\":1763:1778  block.timestamp */\n  timestamp\n    /* \"userfrontend/contracts/ERC20subscription.sol\":1763:1789  block.timestamp + 31536000 */\n  tag_46\n  swap2\n  swap1\n  tag_22\n  jump\t// in\ntag_46:\n    /* \"userfrontend/contracts/ERC20subscription.sol\":1746:1760  _adminLockTime */\n  0x09\n    /* \"userfrontend/contracts/ERC20subscription.sol\":1746:1789  _adminLockTime = block.timestamp + 31536000 */\n  dup2\n  swap1\n  sstore\n  pop\n    /* \"userfrontend/contracts/ERC20subscription.sol\":1663:1809  if (remainedTokens > 0) {... */\ntag_44:\n    /* \"userfrontend/contracts/ERC20subscription.sol\":1168:1816  {... */\n  pop\n    /* \"userfrontend/contracts/ERC20subscription.sol\":890:1816  constructor(... */\n  pop\n  pop\n  pop\n  pop\n  pop\n  pop\n  pop\n    /* \"userfrontend/contracts/ERC20subscription.sol\":206:3775  contract ERC20subscription is ERC20, Ownable {... */\n  jump(tag_47)\n    /* \"userfrontend/node_modules/@openzeppelin/contracts/access/Ownable.sol\":2912:3099  function _transferOwnership(address newOwner) internal virtual {... */\ntag_16:\n    /* \"userfrontend/node_modules/@openzeppelin/contracts/access/Ownable.sol\":2985:3001  address oldOwner */\n  0x00\n    /* \"userfrontend/node_modules/@openzeppelin/contracts/access/Ownable.sol\":3004:3010  _owner */\n  0x05\n  0x00\n  swap1\n  sload\n  swap1\n  0x0100\n  exp\n  swap1\n  div\n  0xffffffffffffffffffffffffffffffffffffffff\n  and\n    /* \"userfrontend/node_modules/@openzeppelin/contracts/access/Ownable.sol\":2985:3010  address oldOwner = _owner */\n  swap1\n  pop\n    /* \"userfrontend/node_modules/@openzeppelin/contracts/access/Ownable.sol\":3029:3037  newOwner */\n  dup2\n    /* \"userfrontend/node_modules/@openzeppelin/contracts/access/Ownable.sol\":3020:3026  _owner */\n  0x05\n  0x00\n    /* \"userfrontend/node_modules/@openzeppelin/contracts/access/Ownable.sol\":3020:3037  _owner = newOwner */\n  0x0100\n  exp\n  dup2\n  sload\n  dup2\n  0xffffffffffffffffffffffffffffffffffffffff\n  mul\n  not\n  and\n  swap1\n  dup4\n  0xffffffffffffffffffffffffffffffffffffffff\n  and\n  mul\n  or\n  swap1\n  sstore\n  pop\n    /* \"userfrontend/node_modules/@openzeppelin/contracts/access/Ownable.sol\":3083:3091  newOwner */\n  dup2\n    /* \"userfrontend/node_modules/@openzeppelin/contracts/access/Ownable.sol\":3052:3092  OwnershipTransferred(oldOwner, newOwner) */\n  0xffffffffffffffffffffffffffffffffffffffff\n  and\n    /* \"userfrontend/node_modules/@openzeppelin/contracts/access/Ownable.sol\":3073:3081  oldOwner */\n  dup2\n    /* \"userfrontend/node_modules/@openzeppelin/contracts/access/Ownable.sol\":3052:3092  OwnershipTransferred(oldOwner, newOwner) */\n  0xffffffffffffffffffffffffffffffffffffffff\n  and\n  0x8be0079c531659141344cd1fd0a4f28419497f9722a3daafe3b4186f6b6457e0\n  mload(0x40)\n  mload(0x40)\n  dup1\n  swap2\n  sub\n  swap1\n  log3\n    /* \"userfrontend/node_modules/@openzeppelin/contracts/access/Ownable.sol\":2975:3099  {... */\n  pop\n    /* \"userfrontend/node_modules/@openzeppelin/contracts/access/Ownable.sol\":2912:3099  function _transferOwnership(address newOwner) internal virtual {... */\n  pop\n  jump\t// out\n    /* \"userfrontend/node_modules/@openzeppelin/contracts/token/ERC20/ERC20.sol\":7721:7929  function _mint(address account, uint256 value) internal {... */\ntag_36:\n    /* \"userfrontend/node_modules/@openzeppelin/contracts/token/ERC20/ERC20.sol\":7810:7811  0 */\n  0x00\n    /* \"userfrontend/node_modules/@openzeppelin/contracts/token/ERC20/ERC20.sol\":7791:7812  account == address(0) */\n  0xffffffffffffffffffffffffffffffffffffffff\n  and\n    /* \"userfrontend/node_modules/@openzeppelin/contracts/token/ERC20/ERC20.sol\":7791:7798  account */\n  dup3\n    /* \"userfrontend/node_modules/@openzeppelin/contracts/token/ERC20/ERC20.sol\":7791:7812  account == address(0) */\n  0xffffffffffffffffffffffffffffffffffffffff\n  and\n  sub\n    /* \"userfrontend/node_modules/@openzeppelin/contracts/token/ERC20/ERC20.sol\":7787:7878  if (account == address(0)) {... */\n  tag_50\n  jumpi\n    /* \"userfrontend/node_modules/@openzeppelin/contracts/token/ERC20/ERC20.sol\":7864:7865  0 */\n  0x00\n    /* \"userfrontend/node_modules/@openzeppelin/contracts/token/ERC20/ERC20.sol\":7835:7867  ERC20InvalidReceiver(address(0)) */\n  mload(0x40)\n  0xec442f0500000000000000000000000000000000000000000000000000000000\n  dup2\n  mstore\n  0x04\n  add\n  tag_51\n  swap2\n  swap1\n  tag_14\n  jump\t// in\ntag_51:\n  mload(0x40)\n  dup1\n  swap2\n  sub\n  swap1\n  revert\n    /* \"userfrontend/node_modules/@openzeppelin/contracts/token/ERC20/ERC20.sol\":7787:7878  if (account == address(0)) {... */\ntag_50:\n    /* \"userfrontend/node_modules/@openzeppelin/contracts/token/ERC20/ERC20.sol\":7887:7922  _update(address(0), account, value) */\n  tag_52\n    /* \"userfrontend/node_modules/@openzeppelin/contracts/token/ERC20/ERC20.sol\":7903:7904  0 */\n  0x00\n    /* \"userfrontend/node_modules/@openzeppelin/contracts/token/ERC20/ERC20.sol\":7907:7914  account */\n  dup4\n    /* \"userfrontend/node_modules/@openzeppelin/contracts/token/ERC20/ERC20.sol\":7916:7921  value */\n  dup4\n    /* \"userfrontend/node_modules/@openzeppelin/contracts/token/ERC20/ERC20.sol\":7887:7894  _update */\n  shl(0x20, tag_53)\n    /* \"userfrontend/node_modules/@openzeppelin/contracts/token/ERC20/ERC20.sol\":7887:7922  _update(address(0), account, value) */\n  0x20\n  shr\n  jump\t// in\ntag_52:\n    /* \"userfrontend/node_modules/@openzeppelin/contracts/token/ERC20/ERC20.sol\":7721:7929  function _mint(address account, uint256 value) internal {... */\n  pop\n  pop\n  jump\t// out\n    /* \"userfrontend/node_modules/@openzeppelin/contracts/token/ERC20/ERC20.sol\":6271:7378  function _update(address from, address to, uint256 value) internal virtual {... */\ntag_53:\n    /* \"userfrontend/node_modules/@openzeppelin/contracts/token/ERC20/ERC20.sol\":6376:6377  0 */\n  0x00\n    /* \"userfrontend/node_modules/@openzeppelin/contracts/token/ERC20/ERC20.sol\":6360:6378  from == address(0) */\n  0xffffffffffffffffffffffffffffffffffffffff\n  and\n    /* \"userfrontend/node_modules/@openzeppelin/contracts/token/ERC20/ERC20.sol\":6360:6364  from */\n  dup4\n    /* \"userfrontend/node_modules/@openzeppelin/contracts/token/ERC20/ERC20.sol\":6360:6378  from == address(0) */\n  0xffffffffffffffffffffffffffffffffffffffff\n  and\n  sub\n    /* \"userfrontend/node_modules/@openzeppelin/contracts/token/ERC20/ERC20.sol\":6356:6896  if (from == address(0)) {... */\n  tag_55\n  jumpi\n    /* \"userfrontend/node_modules/@openzeppelin/contracts/token/ERC20/ERC20.sol\":6512:6517  value */\n  dup1\n    /* \"userfrontend/node_modules/@openzeppelin/contracts/token/ERC20/ERC20.sol\":6496:6508  _totalSupply */\n  0x02\n  0x00\n    /* \"userfrontend/node_modules/@openzeppelin/contracts/token/ERC20/ERC20.sol\":6496:6517  _totalSupply += value */\n  dup3\n  dup3\n  sload\n  tag_56\n  swap2\n  swap1\n  tag_22\n  jump\t// in\ntag_56:\n  swap3\n  pop\n  pop\n  dup2\n  swap1\n  sstore\n  pop\n    /* \"userfrontend/node_modules/@openzeppelin/contracts/token/ERC20/ERC20.sol\":6356:6896  if (from == address(0)) {... */\n  jump(tag_57)\ntag_55:\n    /* \"userfrontend/node_modules/@openzeppelin/contracts/token/ERC20/ERC20.sol\":6548:6567  uint256 fromBalance */\n  0x00\n    /* \"userfrontend/node_modules/@openzeppelin/contracts/token/ERC20/ERC20.sol\":6570:6579  _balances */\n  dup1\n    /* \"userfrontend/node_modules/@openzeppelin/contracts/token/ERC20/ERC20.sol\":6570:6585  _balances[from] */\n  0x00\n    /* \"userfrontend/node_modules/@openzeppelin/contracts/token/ERC20/ERC20.sol\":6580:6584  from */\n  dup6\n    /* \"userfrontend/node_modules/@openzeppelin/contracts/token/ERC20/ERC20.sol\":6570:6585  _balances[from] */\n  0xffffffffffffffffffffffffffffffffffffffff\n  and\n  0xffffffffffffffffffffffffffffffffffffffff\n  and\n  dup2\n  mstore\n  0x20\n  add\n  swap1\n  dup2\n  mstore\n  0x20\n  add\n  0x00\n  keccak256\n  sload\n    /* \"userfrontend/node_modules/@openzeppelin/contracts/token/ERC20/ERC20.sol\":6548:6585  uint256 fromBalance = _balances[from] */\n  swap1\n  pop\n    /* \"userfrontend/node_modules/@openzeppelin/contracts/token/ERC20/ERC20.sol\":6617:6622  value */\n  dup2\n    /* \"userfrontend/node_modules/@openzeppelin/contracts/token/ERC20/ERC20.sol\":6603:6614  fromBalance */\n  dup2\n    /* \"userfrontend/node_modules/@openzeppelin/contracts/token/ERC20/ERC20.sol\":6603:6622  fromBalance < value */\n  lt\n    /* \"userfrontend/node_modules/@openzeppelin/contracts/token/ERC20/ERC20.sol\":6599:6714  if (fromBalance < value) {... */\n  iszero\n  tag_58\n  jumpi\n    /* \"userfrontend/node_modules/@openzeppelin/contracts/token/ERC20/ERC20.sol\":6674:6678  from */\n  dup4\n    /* \"userfrontend/node_modules/@openzeppelin/contracts/token/ERC20/ERC20.sol\":6680:6691  fromBalance */\n  dup2\n    /* \"userfrontend/node_modules/@openzeppelin/contracts/token/ERC20/ERC20.sol\":6693:6698  value */\n  dup4\n    /* \"userfrontend/node_modules/@openzeppelin/contracts/token/ERC20/ERC20.sol\":6649:6699  ERC20InsufficientBalance(from, fromBalance, value) */\n  mload(0x40)\n  0xe450d38c00000000000000000000000000000000000000000000000000000000\n  dup2\n  mstore\n  0x04\n  add\n  tag_59\n  swap4\n  swap3\n  swap2\n  swap1\n  tag_60\n  jump\t// in\ntag_59:\n  mload(0x40)\n  dup1\n  swap2\n  sub\n  swap1\n  revert\n    /* \"userfrontend/node_modules/@openzeppelin/contracts/token/ERC20/ERC20.sol\":6599:6714  if (fromBalance < value) {... */\ntag_58:\n    /* \"userfrontend/node_modules/@openzeppelin/contracts/token/ERC20/ERC20.sol\":6866:6871  value */\n  dup2\n    /* \"userfrontend/node_modules/@openzeppelin/contracts/token/ERC20/ERC20.sol\":6852:6863  fromBalance */\n  dup2\n    /* \"userfrontend/node_modules/@openzeppelin/contracts/token/ERC20/ERC20.sol\":6852:6871  fromBalance - value */\n  sub\n    /* \"userfrontend/node_modules/@openzeppelin/contracts/token/ERC20/ERC20.sol\":6834:6843  _balances */\n  0x00\n    /* \"userfrontend/node_modules/@openzeppelin/contracts/token/ERC20/ERC20.sol\":6834:6849  _balances[from] */\n  dup1\n    /* \"userfrontend/node_modules/@openzeppelin/contracts/token/ERC20/ERC20.sol\":6844:6848  from */\n  dup7\n    /* \"userfrontend/node_modules/@openzeppelin/contracts/token/ERC20/ERC20.sol\":6834:6849  _balances[from] */\n  0xffffffffffffffffffffffffffffffffffffffff\n  and\n  0xffffffffffffffffffffffffffffffffffffffff\n  and\n  dup2\n  mstore\n  0x20\n  add\n  swap1\n  dup2\n  mstore\n  0x20\n  add\n  0x00\n  keccak256\n    /* \"userfrontend/node_modules/@openzeppelin/contracts/token/ERC20/ERC20.sol\":6834:6871  _balances[from] = fromBalance - value */\n  dup2\n  swap1\n  sstore\n  pop\n    /* \"userfrontend/node_modules/@openzeppelin/contracts/token/ERC20/ERC20.sol\":6534:6896  {... */\n  pop\n    /* \"userfrontend/node_modules/@openzeppelin/contracts/token/ERC20/ERC20.sol\":6356:6896  if (from == address(0)) {... */\ntag_57:\n    /* \"userfrontend/node_modules/@openzeppelin/contracts/token/ERC20/ERC20.sol\":6924:6925  0 */\n  0x00\n    /* \"userfrontend/node_modules/@openzeppelin/contracts/token/ERC20/ERC20.sol\":6910:6926  to == address(0) */\n  0xffffffffffffffffffffffffffffffffffffffff\n  and\n    /* \"userfrontend/node_modules/@openzeppelin/contracts/token/ERC20/ERC20.sol\":6910:6912  to */\n  dup3\n    /* \"userfrontend/node_modules/@openzeppelin/contracts/token/ERC20/ERC20.sol\":6910:6926  to == address(0) */\n  0xffffffffffffffffffffffffffffffffffffffff\n  and\n  sub\n    /* \"userfrontend/node_modules/@openzeppelin/contracts/token/ERC20/ERC20.sol\":6906:7331  if (to == address(0)) {... */\n  tag_61\n  jumpi\n    /* \"userfrontend/node_modules/@openzeppelin/contracts/token/ERC20/ERC20.sol\":7089:7094  value */\n  dup1\n    /* \"userfrontend/node_modules/@openzeppelin/contracts/token/ERC20/ERC20.sol\":7073:7085  _totalSupply */\n  0x02\n  0x00\n    /* \"userfrontend/node_modules/@openzeppelin/contracts/token/ERC20/ERC20.sol\":7073:7094  _totalSupply -= value */\n  dup3\n  dup3\n  sload\n  sub\n  swap3\n  pop\n  pop\n  dup2\n  swap1\n  sstore\n  pop\n    /* \"userfrontend/node_modules/@openzeppelin/contracts/token/ERC20/ERC20.sol\":6906:7331  if (to == address(0)) {... */\n  jump(tag_62)\ntag_61:\n    /* \"userfrontend/node_modules/@openzeppelin/contracts/token/ERC20/ERC20.sol\":7301:7306  value */\n  dup1\n    /* \"userfrontend/node_modules/@openzeppelin/contracts/token/ERC20/ERC20.sol\":7284:7293  _balances */\n  0x00\n    /* \"userfrontend/node_modules/@openzeppelin/contracts/token/ERC20/ERC20.sol\":7284:7297  _balances[to] */\n  dup1\n    /* \"userfrontend/node_modules/@openzeppelin/contracts/token/ERC20/ERC20.sol\":7294:7296  to */\n  dup5\n    /* \"userfrontend/node_modules/@openzeppelin/contracts/token/ERC20/ERC20.sol\":7284:7297  _balances[to] */\n  0xffffffffffffffffffffffffffffffffffffffff\n  and\n  0xffffffffffffffffffffffffffffffffffffffff\n  and\n  dup2\n  mstore\n  0x20\n  add\n  swap1\n  dup2\n  mstore\n  0x20\n  add\n  0x00\n  keccak256\n  0x00\n    /* \"userfrontend/node_modules/@openzeppelin/contracts/token/ERC20/ERC20.sol\":7284:7306  _balances[to] += value */\n  dup3\n  dup3\n  sload\n  add\n  swap3\n  pop\n  pop\n  dup2\n  swap1\n  sstore\n  pop\n    /* \"userfrontend/node_modules/@openzeppelin/contracts/token/ERC20/ERC20.sol\":6906:7331  if (to == address(0)) {... */\ntag_62:\n    /* \"userfrontend/node_modules/@openzeppelin/contracts/token/ERC20/ERC20.sol\":7361:7363  to */\n  dup2\n    /* \"userfrontend/node_modules/@openzeppelin/contracts/token/ERC20/ERC20.sol\":7346:7371  Transfer(from, to, value) */\n  0xffffffffffffffffffffffffffffffffffffffff\n  and\n    /* \"userfrontend/node_modules/@openzeppelin/contracts/token/ERC20/ERC20.sol\":7355:7359  from */\n  dup4\n    /* \"userfrontend/node_modules/@openzeppelin/contracts/token/ERC20/ERC20.sol\":7346:7371  Transfer(from, to, value) */\n  0xffffffffffffffffffffffffffffffffffffffff\n  and\n  0xddf252ad1be2c89b69c2b068fc378daa952ba7f163c4a11628f55a4df523b3ef\n    /* \"userfrontend/node_modules/@openzeppelin/contracts/token/ERC20/ERC20.sol\":7365:7370  value */\n  dup4\n    /* \"userfrontend/node_modules/@openzeppelin/contracts/token/ERC20/ERC20.sol\":7346:7371  Transfer(from, to, value) */\n  mload(0x40)\n  tag_63\n  swap2\n  swap1\n  tag_64\n  jump\t// in\ntag_63:\n  mload(0x40)\n  dup1\n  swap2\n  sub\n  swap1\n  log3\n    /* \"userfrontend/node_modules/@openzeppelin/contracts/token/ERC20/ERC20.sol\":6271:7378  function _update(address from, address to, uint256 value) internal virtual {... */\n  pop\n  pop\n  pop\n  jump\t// out\n    /* \"#utility.yul\":7:82   */\ntag_65:\n    /* \"#utility.yul\":40:46   */\n  0x00\n    /* \"#utility.yul\":73:75   */\n  0x40\n    /* \"#utility.yul\":67:76   */\n  mload\n    /* \"#utility.yul\":57:76   */\n  swap1\n  pop\n    /* \"#utility.yul\":7:82   */\n  swap1\n  jump\t// out\n    /* \"#utility.yul\":88:205   */\ntag_66:\n    /* \"#utility.yul\":197:198   */\n  0x00\n    /* \"#utility.yul\":194:195   */\n  dup1\n    /* \"#utility.yul\":187:199   */\n  revert\n    /* \"#utility.yul\":211:328   */\ntag_67:\n    /* \"#utility.yul\":320:321   */\n  0x00\n    /* \"#utility.yul\":317:318   */\n  dup1\n    /* \"#utility.yul\":310:322   */\n  revert\n    /* \"#utility.yul\":334:460   */\ntag_68:\n    /* \"#utility.yul\":371:378   */\n  0x00\n    /* \"#utility.yul\":411:453   */\n  0xffffffffffffffffffffffffffffffffffffffff\n    /* \"#utility.yul\":404:409   */\n  dup3\n    /* \"#utility.yul\":400:454   */\n  and\n    /* \"#utility.yul\":389:454   */\n  swap1\n  pop\n    /* \"#utility.yul\":334:460   */\n  swap2\n  swap1\n  pop\n  jump\t// out\n    /* \"#utility.yul\":466:562   */\ntag_69:\n    /* \"#utility.yul\":503:510   */\n  0x00\n    /* \"#utility.yul\":532:556   */\n  tag_122\n    /* \"#utility.yul\":550:555   */\n  dup3\n    /* \"#utility.yul\":532:556   */\n  tag_68\n  jump\t// in\ntag_122:\n    /* \"#utility.yul\":521:556   */\n  swap1\n  pop\n    /* \"#utility.yul\":466:562   */\n  swap2\n  swap1\n  pop\n  jump\t// out\n    /* \"#utility.yul\":568:690   */\ntag_70:\n    /* \"#utility.yul\":641:665   */\n  tag_124\n    /* \"#utility.yul\":659:664   */\n  dup2\n    /* \"#utility.yul\":641:665   */\n  tag_69\n  jump\t// in\ntag_124:\n    /* \"#utility.yul\":634:639   */\n  dup2\n    /* \"#utility.yul\":631:666   */\n  eq\n    /* \"#utility.yul\":621:684   */\n  tag_125\n  jumpi\n    /* \"#utility.yul\":680:681   */\n  0x00\n    /* \"#utility.yul\":677:678   */\n  dup1\n    /* \"#utility.yul\":670:682   */\n  revert\n    /* \"#utility.yul\":621:684   */\ntag_125:\n    /* \"#utility.yul\":568:690   */\n  pop\n  jump\t// out\n    /* \"#utility.yul\":696:839   */\ntag_71:\n    /* \"#utility.yul\":753:758   */\n  0x00\n    /* \"#utility.yul\":784:790   */\n  dup2\n    /* \"#utility.yul\":778:791   */\n  mload\n    /* \"#utility.yul\":769:791   */\n  swap1\n  pop\n    /* \"#utility.yul\":800:833   */\n  tag_127\n    /* \"#utility.yul\":827:832   */\n  dup2\n    /* \"#utility.yul\":800:833   */\n  tag_70\n  jump\t// in\ntag_127:\n    /* \"#utility.yul\":696:839   */\n  swap3\n  swap2\n  pop\n  pop\n  jump\t// out\n    /* \"#utility.yul\":845:962   */\ntag_72:\n    /* \"#utility.yul\":954:955   */\n  0x00\n    /* \"#utility.yul\":951:952   */\n  dup1\n    /* \"#utility.yul\":944:956   */\n  revert\n    /* \"#utility.yul\":968:1085   */\ntag_73:\n    /* \"#utility.yul\":1077:1078   */\n  0x00\n    /* \"#utility.yul\":1074:1075   */\n  dup1\n    /* \"#utility.yul\":1067:1079   */\n  revert\n    /* \"#utility.yul\":1091:1193   */\ntag_74:\n    /* \"#utility.yul\":1132:1138   */\n  0x00\n    /* \"#utility.yul\":1183:1185   */\n  0x1f\n    /* \"#utility.yul\":1179:1186   */\n  not\n    /* \"#utility.yul\":1174:1176   */\n  0x1f\n    /* \"#utility.yul\":1167:1172   */\n  dup4\n    /* \"#utility.yul\":1163:1177   */\n  add\n    /* \"#utility.yul\":1159:1187   */\n  and\n    /* \"#utility.yul\":1149:1187   */\n  swap1\n  pop\n    /* \"#utility.yul\":1091:1193   */\n  swap2\n  swap1\n  pop\n  jump\t// out\n    /* \"#utility.yul\":1199:1379   */\ntag_75:\n    /* \"#utility.yul\":1247:1324   */\n  0x4e487b7100000000000000000000000000000000000000000000000000000000\n    /* \"#utility.yul\":1244:1245   */\n  0x00\n    /* \"#utility.yul\":1237:1325   */\n  mstore\n    /* \"#utility.yul\":1344:1348   */\n  0x41\n    /* \"#utility.yul\":1341:1342   */\n  0x04\n    /* \"#utility.yul\":1334:1349   */\n  mstore\n    /* \"#utility.yul\":1368:1372   */\n  0x24\n    /* \"#utility.yul\":1365:1366   */\n  0x00\n    /* \"#utility.yul\":1358:1373   */\n  revert\n    /* \"#utility.yul\":1385:1666   */\ntag_76:\n    /* \"#utility.yul\":1468:1495   */\n  tag_133\n    /* \"#utility.yul\":1490:1494   */\n  dup3\n    /* \"#utility.yul\":1468:1495   */\n  tag_74\n  jump\t// in\ntag_133:\n    /* \"#utility.yul\":1460:1466   */\n  dup2\n    /* \"#utility.yul\":1456:1496   */\n  add\n    /* \"#utility.yul\":1598:1604   */\n  dup2\n    /* \"#utility.yul\":1586:1596   */\n  dup2\n    /* \"#utility.yul\":1583:1605   */\n  lt\n    /* \"#utility.yul\":1562:1580   */\n  0xffffffffffffffff\n    /* \"#utility.yul\":1550:1560   */\n  dup3\n    /* \"#utility.yul\":1547:1581   */\n  gt\n    /* \"#utility.yul\":1544:1606   */\n  or\n    /* \"#utility.yul\":1541:1629   */\n  iszero\n  tag_134\n  jumpi\n    /* \"#utility.yul\":1609:1627   */\n  tag_135\n  tag_75\n  jump\t// in\ntag_135:\n    /* \"#utility.yul\":1541:1629   */\ntag_134:\n    /* \"#utility.yul\":1649:1659   */\n  dup1\n    /* \"#utility.yul\":1645:1647   */\n  0x40\n    /* \"#utility.yul\":1638:1660   */\n  mstore\n    /* \"#utility.yul\":1428:1666   */\n  pop\n    /* \"#utility.yul\":1385:1666   */\n  pop\n  pop\n  jump\t// out\n    /* \"#utility.yul\":1672:1801   */\ntag_77:\n    /* \"#utility.yul\":1706:1712   */\n  0x00\n    /* \"#utility.yul\":1733:1753   */\n  tag_137\n  tag_65\n  jump\t// in\ntag_137:\n    /* \"#utility.yul\":1723:1753   */\n  swap1\n  pop\n    /* \"#utility.yul\":1762:1795   */\n  tag_138\n    /* \"#utility.yul\":1790:1794   */\n  dup3\n    /* \"#utility.yul\":1782:1788   */\n  dup3\n    /* \"#utility.yul\":1762:1795   */\n  tag_76\n  jump\t// in\ntag_138:\n    /* \"#utility.yul\":1672:1801   */\n  swap2\n  swap1\n  pop\n  jump\t// out\n    /* \"#utility.yul\":1807:2115   */\ntag_78:\n    /* \"#utility.yul\":1869:1873   */\n  0x00\n    /* \"#utility.yul\":1959:1977   */\n  0xffffffffffffffff\n    /* \"#utility.yul\":1951:1957   */\n  dup3\n    /* \"#utility.yul\":1948:1978   */\n  gt\n    /* \"#utility.yul\":1945:2001   */\n  iszero\n  tag_140\n  jumpi\n    /* \"#utility.yul\":1981:1999   */\n  tag_141\n  tag_75\n  jump\t// in\ntag_141:\n    /* \"#utility.yul\":1945:2001   */\ntag_140:\n    /* \"#utility.yul\":2019:2048   */\n  tag_142\n    /* \"#utility.yul\":2041:2047   */\n  dup3\n    /* \"#utility.yul\":2019:2048   */\n  tag_74\n  jump\t// in\ntag_142:\n    /* \"#utility.yul\":2011:2048   */\n  swap1\n  pop\n    /* \"#utility.yul\":2103:2107   */\n  0x20\n    /* \"#utility.yul\":2097:2101   */\n  dup2\n    /* \"#utility.yul\":2093:2108   */\n  add\n    /* \"#utility.yul\":2085:2108   */\n  swap1\n  pop\n    /* \"#utility.yul\":1807:2115   */\n  swap2\n  swap1\n  pop\n  jump\t// out\n    /* \"#utility.yul\":2121:2367   */\ntag_79:\n    /* \"#utility.yul\":2202:2203   */\n  0x00\n    /* \"#utility.yul\":2212:2325   */\ntag_144:\n    /* \"#utility.yul\":2226:2232   */\n  dup4\n    /* \"#utility.yul\":2223:2224   */\n  dup2\n    /* \"#utility.yul\":2220:2233   */\n  lt\n    /* \"#utility.yul\":2212:2325   */\n  iszero\n  tag_146\n  jumpi\n    /* \"#utility.yul\":2311:2312   */\n  dup1\n    /* \"#utility.yul\":2306:2309   */\n  dup3\n    /* \"#utility.yul\":2302:2313   */\n  add\n    /* \"#utility.yul\":2296:2314   */\n  mload\n    /* \"#utility.yul\":2292:2293   */\n  dup2\n    /* \"#utility.yul\":2287:2290   */\n  dup5\n    /* \"#utility.yul\":2283:2294   */\n  add\n    /* \"#utility.yul\":2276:2315   */\n  mstore\n    /* \"#utility.yul\":2248:2250   */\n  0x20\n    /* \"#utility.yul\":2245:2246   */\n  dup2\n    /* \"#utility.yul\":2241:2251   */\n  add\n    /* \"#utility.yul\":2236:2251   */\n  swap1\n  pop\n    /* \"#utility.yul\":2212:2325   */\n  jump(tag_144)\ntag_146:\n    /* \"#utility.yul\":2359:2360   */\n  0x00\n    /* \"#utility.yul\":2350:2356   */\n  dup5\n    /* \"#utility.yul\":2345:2348   */\n  dup5\n    /* \"#utility.yul\":2341:2357   */\n  add\n    /* \"#utility.yul\":2334:2361   */\n  mstore\n    /* \"#utility.yul\":2183:2367   */\n  pop\n    /* \"#utility.yul\":2121:2367   */\n  pop\n  pop\n  pop\n  jump\t// out\n    /* \"#utility.yul\":2373:2807   */\ntag_80:\n    /* \"#utility.yul\":2462:2467   */\n  0x00\n    /* \"#utility.yul\":2487:2553   */\n  tag_148\n    /* \"#utility.yul\":2503:2552   */\n  tag_149\n    /* \"#utility.yul\":2545:2551   */\n  dup5\n    /* \"#utility.yul\":2503:2552   */\n  tag_78\n  jump\t// in\ntag_149:\n    /* \"#utility.yul\":2487:2553   */\n  tag_77\n  jump\t// in\ntag_148:\n    /* \"#utility.yul\":2478:2553   */\n  swap1\n  pop\n    /* \"#utility.yul\":2576:2582   */\n  dup3\n    /* \"#utility.yul\":2569:2574   */\n  dup2\n    /* \"#utility.yul\":2562:2583   */\n  mstore\n    /* \"#utility.yul\":2614:2618   */\n  0x20\n    /* \"#utility.yul\":2607:2612   */\n  dup2\n    /* \"#utility.yul\":2603:2619   */\n  add\n    /* \"#utility.yul\":2652:2655   */\n  dup5\n    /* \"#utility.yul\":2643:2649   */\n  dup5\n    /* \"#utility.yul\":2638:2641   */\n  dup5\n    /* \"#utility.yul\":2634:2650   */\n  add\n    /* \"#utility.yul\":2631:2656   */\n  gt\n    /* \"#utility.yul\":2628:2740   */\n  iszero\n  tag_150\n  jumpi\n    /* \"#utility.yul\":2659:2738   */\n  tag_151\n  tag_73\n  jump\t// in\ntag_151:\n    /* \"#utility.yul\":2628:2740   */\ntag_150:\n    /* \"#utility.yul\":2749:2801   */\n  tag_152\n    /* \"#utility.yul\":2794:2800   */\n  dup5\n    /* \"#utility.yul\":2789:2792   */\n  dup3\n    /* \"#utility.yul\":2784:2787   */\n  dup6\n    /* \"#utility.yul\":2749:2801   */\n  tag_79\n  jump\t// in\ntag_152:\n    /* \"#utility.yul\":2468:2807   */\n  pop\n    /* \"#utility.yul\":2373:2807   */\n  swap4\n  swap3\n  pop\n  pop\n  pop\n  jump\t// out\n    /* \"#utility.yul\":2827:3182   */\ntag_81:\n    /* \"#utility.yul\":2894:2899   */\n  0x00\n    /* \"#utility.yul\":2943:2946   */\n  dup3\n    /* \"#utility.yul\":2936:2940   */\n  0x1f\n    /* \"#utility.yul\":2928:2934   */\n  dup4\n    /* \"#utility.yul\":2924:2941   */\n  add\n    /* \"#utility.yul\":2920:2947   */\n  slt\n    /* \"#utility.yul\":2910:3032   */\n  tag_154\n  jumpi\n    /* \"#utility.yul\":2951:3030   */\n  tag_155\n  tag_72\n  jump\t// in\ntag_155:\n    /* \"#utility.yul\":2910:3032   */\ntag_154:\n    /* \"#utility.yul\":3061:3067   */\n  dup2\n    /* \"#utility.yul\":3055:3068   */\n  mload\n    /* \"#utility.yul\":3086:3176   */\n  tag_156\n    /* \"#utility.yul\":3172:3175   */\n  dup5\n    /* \"#utility.yul\":3164:3170   */\n  dup3\n    /* \"#utility.yul\":3157:3161   */\n  0x20\n    /* \"#utility.yul\":3149:3155   */\n  dup7\n    /* \"#utility.yul\":3145:3162   */\n  add\n    /* \"#utility.yul\":3086:3176   */\n  tag_80\n  jump\t// in\ntag_156:\n    /* \"#utility.yul\":3077:3176   */\n  swap2\n  pop\n    /* \"#utility.yul\":2900:3182   */\n  pop\n    /* \"#utility.yul\":2827:3182   */\n  swap3\n  swap2\n  pop\n  pop\n  jump\t// out\n    /* \"#utility.yul\":3188:3265   */\ntag_82:\n    /* \"#utility.yul\":3225:3232   */\n  0x00\n    /* \"#utility.yul\":3254:3259   */\n  dup2\n    /* \"#utility.yul\":3243:3259   */\n  swap1\n  pop\n    /* \"#utility.yul\":3188:3265   */\n  swap2\n  swap1\n  pop\n  jump\t// out\n    /* \"#utility.yul\":3271:3393   */\ntag_83:\n    /* \"#utility.yul\":3344:3368   */\n  tag_159\n    /* \"#utility.yul\":3362:3367   */\n  dup2\n    /* \"#utility.yul\":3344:3368   */\n  tag_82\n  jump\t// in\ntag_159:\n    /* \"#utility.yul\":3337:3342   */\n  dup2\n    /* \"#utility.yul\":3334:3369   */\n  eq\n    /* \"#utility.yul\":3324:3387   */\n  tag_160\n  jumpi\n    /* \"#utility.yul\":3383:3384   */\n  0x00\n    /* \"#utility.yul\":3380:3381   */\n  dup1\n    /* \"#utility.yul\":3373:3385   */\n  revert\n    /* \"#utility.yul\":3324:3387   */\ntag_160:\n    /* \"#utility.yul\":3271:3393   */\n  pop\n  jump\t// out\n    /* \"#utility.yul\":3399:3542   */\ntag_84:\n    /* \"#utility.yul\":3456:3461   */\n  0x00\n    /* \"#utility.yul\":3487:3493   */\n  dup2\n    /* \"#utility.yul\":3481:3494   */\n  mload\n    /* \"#utility.yul\":3472:3494   */\n  swap1\n  pop\n    /* \"#utility.yul\":3503:3536   */\n  tag_162\n    /* \"#utility.yul\":3530:3535   */\n  dup2\n    /* \"#utility.yul\":3503:3536   */\n  tag_83\n  jump\t// in\ntag_162:\n    /* \"#utility.yul\":3399:3542   */\n  swap3\n  swap2\n  pop\n  pop\n  jump\t// out\n    /* \"#utility.yul\":3548:3859   */\ntag_85:\n    /* \"#utility.yul\":3625:3629   */\n  0x00\n    /* \"#utility.yul\":3715:3733   */\n  0xffffffffffffffff\n    /* \"#utility.yul\":3707:3713   */\n  dup3\n    /* \"#utility.yul\":3704:3734   */\n  gt\n    /* \"#utility.yul\":3701:3757   */\n  iszero\n  tag_164\n  jumpi\n    /* \"#utility.yul\":3737:3755   */\n  tag_165\n  tag_75\n  jump\t// in\ntag_165:\n    /* \"#utility.yul\":3701:3757   */\ntag_164:\n    /* \"#utility.yul\":3787:3791   */\n  0x20\n    /* \"#utility.yul\":3779:3785   */\n  dup3\n    /* \"#utility.yul\":3775:3792   */\n  mul\n    /* \"#utility.yul\":3767:3792   */\n  swap1\n  pop\n    /* \"#utility.yul\":3847:3851   */\n  0x20\n    /* \"#utility.yul\":3841:3845   */\n  dup2\n    /* \"#utility.yul\":3837:3852   */\n  add\n    /* \"#utility.yul\":3829:3852   */\n  swap1\n  pop\n    /* \"#utility.yul\":3548:3859   */\n  swap2\n  swap1\n  pop\n  jump\t// out\n    /* \"#utility.yul\":3865:3982   */\ntag_86:\n    /* \"#utility.yul\":3974:3975   */\n  0x00\n    /* \"#utility.yul\":3971:3972   */\n  dup1\n    /* \"#utility.yul\":3964:3976   */\n  revert\n    /* \"#utility.yul\":4005:4737   */\ntag_87:\n    /* \"#utility.yul\":4112:4117   */\n  0x00\n    /* \"#utility.yul\":4137:4218   */\n  tag_168\n    /* \"#utility.yul\":4153:4217   */\n  tag_169\n    /* \"#utility.yul\":4210:4216   */\n  dup5\n    /* \"#utility.yul\":4153:4217   */\n  tag_85\n  jump\t// in\ntag_169:\n    /* \"#utility.yul\":4137:4218   */\n  tag_77\n  jump\t// in\ntag_168:\n    /* \"#utility.yul\":4128:4218   */\n  swap1\n  pop\n    /* \"#utility.yul\":4238:4243   */\n  dup1\n    /* \"#utility.yul\":4267:4273   */\n  dup4\n    /* \"#utility.yul\":4260:4265   */\n  dup3\n    /* \"#utility.yul\":4253:4274   */\n  mstore\n    /* \"#utility.yul\":4301:4305   */\n  0x20\n    /* \"#utility.yul\":4294:4299   */\n  dup3\n    /* \"#utility.yul\":4290:4306   */\n  add\n    /* \"#utility.yul\":4283:4306   */\n  swap1\n  pop\n    /* \"#utility.yul\":4354:4358   */\n  0x20\n    /* \"#utility.yul\":4346:4352   */\n  dup5\n    /* \"#utility.yul\":4342:4359   */\n  mul\n    /* \"#utility.yul\":4334:4340   */\n  dup4\n    /* \"#utility.yul\":4330:4360   */\n  add\n    /* \"#utility.yul\":4383:4386   */\n  dup6\n    /* \"#utility.yul\":4375:4381   */\n  dup2\n    /* \"#utility.yul\":4372:4387   */\n  gt\n    /* \"#utility.yul\":4369:4491   */\n  iszero\n  tag_170\n  jumpi\n    /* \"#utility.yul\":4402:4481   */\n  tag_171\n  tag_86\n  jump\t// in\ntag_171:\n    /* \"#utility.yul\":4369:4491   */\ntag_170:\n    /* \"#utility.yul\":4517:4523   */\n  dup4\n    /* \"#utility.yul\":4500:4731   */\ntag_172:\n    /* \"#utility.yul\":4534:4540   */\n  dup2\n    /* \"#utility.yul\":4529:4532   */\n  dup2\n    /* \"#utility.yul\":4526:4541   */\n  lt\n    /* \"#utility.yul\":4500:4731   */\n  iszero\n  tag_174\n  jumpi\n    /* \"#utility.yul\":4609:4612   */\n  dup1\n    /* \"#utility.yul\":4638:4686   */\n  tag_175\n    /* \"#utility.yul\":4682:4685   */\n  dup9\n    /* \"#utility.yul\":4670:4680   */\n  dup3\n    /* \"#utility.yul\":4638:4686   */\n  tag_71\n  jump\t// in\ntag_175:\n    /* \"#utility.yul\":4633:4636   */\n  dup5\n    /* \"#utility.yul\":4626:4687   */\n  mstore\n    /* \"#utility.yul\":4716:4720   */\n  0x20\n    /* \"#utility.yul\":4711:4714   */\n  dup5\n    /* \"#utility.yul\":4707:4721   */\n  add\n    /* \"#utility.yul\":4700:4721   */\n  swap4\n  pop\n    /* \"#utility.yul\":4576:4731   */\n  pop\n    /* \"#utility.yul\":4560:4564   */\n  0x20\n    /* \"#utility.yul\":4555:4558   */\n  dup2\n    /* \"#utility.yul\":4551:4565   */\n  add\n    /* \"#utility.yul\":4544:4565   */\n  swap1\n  pop\n    /* \"#utility.yul\":4500:4731   */\n  jump(tag_172)\ntag_174:\n    /* \"#utility.yul\":4504:4525   */\n  pop\n    /* \"#utility.yul\":4118:4737   */\n  pop\n  pop\n    /* \"#utility.yul\":4005:4737   */\n  swap4\n  swap3\n  pop\n  pop\n  pop\n  jump\t// out\n    /* \"#utility.yul\":4760:5145   */\ntag_88:\n    /* \"#utility.yul\":4842:4847   */\n  0x00\n    /* \"#utility.yul\":4891:4894   */\n  dup3\n    /* \"#utility.yul\":4884:4888   */\n  0x1f\n    /* \"#utility.yul\":4876:4882   */\n  dup4\n    /* \"#utility.yul\":4872:4889   */\n  add\n    /* \"#utility.yul\":4868:4895   */\n  slt\n    /* \"#utility.yul\":4858:4980   */\n  tag_177\n  jumpi\n    /* \"#utility.yul\":4899:4978   */\n  tag_178\n  tag_72\n  jump\t// in\ntag_178:\n    /* \"#utility.yul\":4858:4980   */\ntag_177:\n    /* \"#utility.yul\":5009:5015   */\n  dup2\n    /* \"#utility.yul\":5003:5016   */\n  mload\n    /* \"#utility.yul\":5034:5139   */\n  tag_179\n    /* \"#utility.yul\":5135:5138   */\n  dup5\n    /* \"#utility.yul\":5127:5133   */\n  dup3\n    /* \"#utility.yul\":5120:5124   */\n  0x20\n    /* \"#utility.yul\":5112:5118   */\n  dup7\n    /* \"#utility.yul\":5108:5125   */\n  add\n    /* \"#utility.yul\":5034:5139   */\n  tag_87\n  jump\t// in\ntag_179:\n    /* \"#utility.yul\":5025:5139   */\n  swap2\n  pop\n    /* \"#utility.yul\":4848:5145   */\n  pop\n    /* \"#utility.yul\":4760:5145   */\n  swap3\n  swap2\n  pop\n  pop\n  jump\t// out\n    /* \"#utility.yul\":5151:5462   */\ntag_89:\n    /* \"#utility.yul\":5228:5232   */\n  0x00\n    /* \"#utility.yul\":5318:5336   */\n  0xffffffffffffffff\n    /* \"#utility.yul\":5310:5316   */\n  dup3\n    /* \"#utility.yul\":5307:5337   */\n  gt\n    /* \"#utility.yul\":5304:5360   */\n  iszero\n  tag_181\n  jumpi\n    /* \"#utility.yul\":5340:5358   */\n  tag_182\n  tag_75\n  jump\t// in\ntag_182:\n    /* \"#utility.yul\":5304:5360   */\ntag_181:\n    /* \"#utility.yul\":5390:5394   */\n  0x20\n    /* \"#utility.yul\":5382:5388   */\n  dup3\n    /* \"#utility.yul\":5378:5395   */\n  mul\n    /* \"#utility.yul\":5370:5395   */\n  swap1\n  pop\n    /* \"#utility.yul\":5450:5454   */\n  0x20\n    /* \"#utility.yul\":5444:5448   */\n  dup2\n    /* \"#utility.yul\":5440:5455   */\n  add\n    /* \"#utility.yul\":5432:5455   */\n  swap1\n  pop\n    /* \"#utility.yul\":5151:5462   */\n  swap2\n  swap1\n  pop\n  jump\t// out\n    /* \"#utility.yul\":5485:6217   */\ntag_90:\n    /* \"#utility.yul\":5592:5597   */\n  0x00\n    /* \"#utility.yul\":5617:5698   */\n  tag_184\n    /* \"#utility.yul\":5633:5697   */\n  tag_185\n    /* \"#utility.yul\":5690:5696   */\n  dup5\n    /* \"#utility.yul\":5633:5697   */\n  tag_89\n  jump\t// in\ntag_185:\n    /* \"#utility.yul\":5617:5698   */\n  tag_77\n  jump\t// in\ntag_184:\n    /* \"#utility.yul\":5608:5698   */\n  swap1\n  pop\n    /* \"#utility.yul\":5718:5723   */\n  dup1\n    /* \"#utility.yul\":5747:5753   */\n  dup4\n    /* \"#utility.yul\":5740:5745   */\n  dup3\n    /* \"#utility.yul\":5733:5754   */\n  mstore\n    /* \"#utility.yul\":5781:5785   */\n  0x20\n    /* \"#utility.yul\":5774:5779   */\n  dup3\n    /* \"#utility.yul\":5770:5786   */\n  add\n    /* \"#utility.yul\":5763:5786   */\n  swap1\n  pop\n    /* \"#utility.yul\":5834:5838   */\n  0x20\n    /* \"#utility.yul\":5826:5832   */\n  dup5\n    /* \"#utility.yul\":5822:5839   */\n  mul\n    /* \"#utility.yul\":5814:5820   */\n  dup4\n    /* \"#utility.yul\":5810:5840   */\n  add\n    /* \"#utility.yul\":5863:5866   */\n  dup6\n    /* \"#utility.yul\":5855:5861   */\n  dup2\n    /* \"#utility.yul\":5852:5867   */\n  gt\n    /* \"#utility.yul\":5849:5971   */\n  iszero\n  tag_186\n  jumpi\n    /* \"#utility.yul\":5882:5961   */\n  tag_187\n  tag_86\n  jump\t// in\ntag_187:\n    /* \"#utility.yul\":5849:5971   */\ntag_186:\n    /* \"#utility.yul\":5997:6003   */\n  dup4\n    /* \"#utility.yul\":5980:6211   */\ntag_188:\n    /* \"#utility.yul\":6014:6020   */\n  dup2\n    /* \"#utility.yul\":6009:6012   */\n  dup2\n    /* \"#utility.yul\":6006:6021   */\n  lt\n    /* \"#utility.yul\":5980:6211   */\n  iszero\n  tag_190\n  jumpi\n    /* \"#utility.yul\":6089:6092   */\n  dup1\n    /* \"#utility.yul\":6118:6166   */\n  tag_191\n    /* \"#utility.yul\":6162:6165   */\n  dup9\n    /* \"#utility.yul\":6150:6160   */\n  dup3\n    /* \"#utility.yul\":6118:6166   */\n  tag_84\n  jump\t// in\ntag_191:\n    /* \"#utility.yul\":6113:6116   */\n  dup5\n    /* \"#utility.yul\":6106:6167   */\n  mstore\n    /* \"#utility.yul\":6196:6200   */\n  0x20\n    /* \"#utility.yul\":6191:6194   */\n  dup5\n    /* \"#utility.yul\":6187:6201   */\n  add\n    /* \"#utility.yul\":6180:6201   */\n  swap4\n  pop\n    /* \"#utility.yul\":6056:6211   */\n  pop\n    /* \"#utility.yul\":6040:6044   */\n  0x20\n    /* \"#utility.yul\":6035:6038   */\n  dup2\n    /* \"#utility.yul\":6031:6045   */\n  add\n    /* \"#utility.yul\":6024:6045   */\n  swap1\n  pop\n    /* \"#utility.yul\":5980:6211   */\n  jump(tag_188)\ntag_190:\n    /* \"#utility.yul\":5984:6005   */\n  pop\n    /* \"#utility.yul\":5598:6217   */\n  pop\n  pop\n    /* \"#utility.yul\":5485:6217   */\n  swap4\n  swap3\n  pop\n  pop\n  pop\n  jump\t// out\n    /* \"#utility.yul\":6240:6625   */\ntag_91:\n    /* \"#utility.yul\":6322:6327   */\n  0x00\n    /* \"#utility.yul\":6371:6374   */\n  dup3\n    /* \"#utility.yul\":6364:6368   */\n  0x1f\n    /* \"#utility.yul\":6356:6362   */\n  dup4\n    /* \"#utility.yul\":6352:6369   */\n  add\n    /* \"#utility.yul\":6348:6375   */\n  slt\n    /* \"#utility.yul\":6338:6460   */\n  tag_193\n  jumpi\n    /* \"#utility.yul\":6379:6458   */\n  tag_194\n  tag_72\n  jump\t// in\ntag_194:\n    /* \"#utility.yul\":6338:6460   */\ntag_193:\n    /* \"#utility.yul\":6489:6495   */\n  dup2\n    /* \"#utility.yul\":6483:6496   */\n  mload\n    /* \"#utility.yul\":6514:6619   */\n  tag_195\n    /* \"#utility.yul\":6615:6618   */\n  dup5\n    /* \"#utility.yul\":6607:6613   */\n  dup3\n    /* \"#utility.yul\":6600:6604   */\n  0x20\n    /* \"#utility.yul\":6592:6598   */\n  dup7\n    /* \"#utility.yul\":6588:6605   */\n  add\n    /* \"#utility.yul\":6514:6619   */\n  tag_90\n  jump\t// in\ntag_195:\n    /* \"#utility.yul\":6505:6619   */\n  swap2\n  pop\n    /* \"#utility.yul\":6328:6625   */\n  pop\n    /* \"#utility.yul\":6240:6625   */\n  swap3\n  swap2\n  pop\n  pop\n  jump\t// out\n    /* \"#utility.yul\":6631:8674   */\ntag_3:\n    /* \"#utility.yul\":6825:6831   */\n  0x00\n    /* \"#utility.yul\":6833:6839   */\n  dup1\n    /* \"#utility.yul\":6841:6847   */\n  0x00\n    /* \"#utility.yul\":6849:6855   */\n  dup1\n    /* \"#utility.yul\":6857:6863   */\n  0x00\n    /* \"#utility.yul\":6865:6871   */\n  dup1\n    /* \"#utility.yul\":6873:6879   */\n  0x00\n    /* \"#utility.yul\":6922:6925   */\n  0xe0\n    /* \"#utility.yul\":6910:6919   */\n  dup9\n    /* \"#utility.yul\":6901:6908   */\n  dup11\n    /* \"#utility.yul\":6897:6920   */\n  sub\n    /* \"#utility.yul\":6893:6926   */\n  slt\n    /* \"#utility.yul\":6890:7010   */\n  iszero\n  tag_197\n  jumpi\n    /* \"#utility.yul\":6929:7008   */\n  tag_198\n  tag_66\n  jump\t// in\ntag_198:\n    /* \"#utility.yul\":6890:7010   */\ntag_197:\n    /* \"#utility.yul\":7049:7050   */\n  0x00\n    /* \"#utility.yul\":7074:7138   */\n  tag_199\n    /* \"#utility.yul\":7130:7137   */\n  dup11\n    /* \"#utility.yul\":7121:7127   */\n  dup3\n    /* \"#utility.yul\":7110:7119   */\n  dup12\n    /* \"#utility.yul\":7106:7128   */\n  add\n    /* \"#utility.yul\":7074:7138   */\n  tag_71\n  jump\t// in\ntag_199:\n    /* \"#utility.yul\":7064:7138   */\n  swap8\n  pop\n    /* \"#utility.yul\":7020:7148   */\n  pop\n    /* \"#utility.yul\":7208:7210   */\n  0x20\n    /* \"#utility.yul\":7197:7206   */\n  dup9\n    /* \"#utility.yul\":7193:7211   */\n  add\n    /* \"#utility.yul\":7187:7212   */\n  mload\n    /* \"#utility.yul\":7239:7257   */\n  0xffffffffffffffff\n    /* \"#utility.yul\":7231:7237   */\n  dup2\n    /* \"#utility.yul\":7228:7258   */\n  gt\n    /* \"#utility.yul\":7225:7342   */\n  iszero\n  tag_200\n  jumpi\n    /* \"#utility.yul\":7261:7340   */\n  tag_201\n  tag_67\n  jump\t// in\ntag_201:\n    /* \"#utility.yul\":7225:7342   */\ntag_200:\n    /* \"#utility.yul\":7366:7440   */\n  tag_202\n    /* \"#utility.yul\":7432:7439   */\n  dup11\n    /* \"#utility.yul\":7423:7429   */\n  dup3\n    /* \"#utility.yul\":7412:7421   */\n  dup12\n    /* \"#utility.yul\":7408:7430   */\n  add\n    /* \"#utility.yul\":7366:7440   */\n  tag_81\n  jump\t// in\ntag_202:\n    /* \"#utility.yul\":7356:7440   */\n  swap7\n  pop\n    /* \"#utility.yul\":7158:7450   */\n  pop\n    /* \"#utility.yul\":7510:7512   */\n  0x40\n    /* \"#utility.yul\":7499:7508   */\n  dup9\n    /* \"#utility.yul\":7495:7513   */\n  add\n    /* \"#utility.yul\":7489:7514   */\n  mload\n    /* \"#utility.yul\":7541:7559   */\n  0xffffffffffffffff\n    /* \"#utility.yul\":7533:7539   */\n  dup2\n    /* \"#utility.yul\":7530:7560   */\n  gt\n    /* \"#utility.yul\":7527:7644   */\n  iszero\n  tag_203\n  jumpi\n    /* \"#utility.yul\":7563:7642   */\n  tag_204\n  tag_67\n  jump\t// in\ntag_204:\n    /* \"#utility.yul\":7527:7644   */\ntag_203:\n    /* \"#utility.yul\":7668:7742   */\n  tag_205\n    /* \"#utility.yul\":7734:7741   */\n  dup11\n    /* \"#utility.yul\":7725:7731   */\n  dup3\n    /* \"#utility.yul\":7714:7723   */\n  dup12\n    /* \"#utility.yul\":7710:7732   */\n  add\n    /* \"#utility.yul\":7668:7742   */\n  tag_81\n  jump\t// in\ntag_205:\n    /* \"#utility.yul\":7658:7742   */\n  swap6\n  pop\n    /* \"#utility.yul\":7460:7752   */\n  pop\n    /* \"#utility.yul\":7791:7793   */\n  0x60\n    /* \"#utility.yul\":7817:7881   */\n  tag_206\n    /* \"#utility.yul\":7873:7880   */\n  dup11\n    /* \"#utility.yul\":7864:7870   */\n  dup3\n    /* \"#utility.yul\":7853:7862   */\n  dup12\n    /* \"#utility.yul\":7849:7871   */\n  add\n    /* \"#utility.yul\":7817:7881   */\n  tag_84\n  jump\t// in\ntag_206:\n    /* \"#utility.yul\":7807:7881   */\n  swap5\n  pop\n    /* \"#utility.yul\":7762:7891   */\n  pop\n    /* \"#utility.yul\":7951:7954   */\n  0x80\n    /* \"#utility.yul\":7940:7949   */\n  dup9\n    /* \"#utility.yul\":7936:7955   */\n  add\n    /* \"#utility.yul\":7930:7956   */\n  mload\n    /* \"#utility.yul\":7983:8001   */\n  0xffffffffffffffff\n    /* \"#utility.yul\":7975:7981   */\n  dup2\n    /* \"#utility.yul\":7972:8002   */\n  gt\n    /* \"#utility.yul\":7969:8086   */\n  iszero\n  tag_207\n  jumpi\n    /* \"#utility.yul\":8005:8084   */\n  tag_208\n  tag_67\n  jump\t// in\ntag_208:\n    /* \"#utility.yul\":7969:8086   */\ntag_207:\n    /* \"#utility.yul\":8110:8199   */\n  tag_209\n    /* \"#utility.yul\":8191:8198   */\n  dup11\n    /* \"#utility.yul\":8182:8188   */\n  dup3\n    /* \"#utility.yul\":8171:8180   */\n  dup12\n    /* \"#utility.yul\":8167:8189   */\n  add\n    /* \"#utility.yul\":8110:8199   */\n  tag_88\n  jump\t// in\ntag_209:\n    /* \"#utility.yul\":8100:8199   */\n  swap4\n  pop\n    /* \"#utility.yul\":7901:8209   */\n  pop\n    /* \"#utility.yul\":8269:8272   */\n  0xa0\n    /* \"#utility.yul\":8258:8267   */\n  dup9\n    /* \"#utility.yul\":8254:8273   */\n  add\n    /* \"#utility.yul\":8248:8274   */\n  mload\n    /* \"#utility.yul\":8301:8319   */\n  0xffffffffffffffff\n    /* \"#utility.yul\":8293:8299   */\n  dup2\n    /* \"#utility.yul\":8290:8320   */\n  gt\n    /* \"#utility.yul\":8287:8404   */\n  iszero\n  tag_210\n  jumpi\n    /* \"#utility.yul\":8323:8402   */\n  tag_211\n  tag_67\n  jump\t// in\ntag_211:\n    /* \"#utility.yul\":8287:8404   */\ntag_210:\n    /* \"#utility.yul\":8428:8517   */\n  tag_212\n    /* \"#utility.yul\":8509:8516   */\n  dup11\n    /* \"#utility.yul\":8500:8506   */\n  dup3\n    /* \"#utility.yul\":8489:8498   */\n  dup12\n    /* \"#utility.yul\":8485:8507   */\n  add\n    /* \"#utility.yul\":8428:8517   */\n  tag_91\n  jump\t// in\ntag_212:\n    /* \"#utility.yul\":8418:8517   */\n  swap3\n  pop\n    /* \"#utility.yul\":8219:8527   */\n  pop\n    /* \"#utility.yul\":8566:8569   */\n  0xc0\n    /* \"#utility.yul\":8593:8657   */\n  tag_213\n    /* \"#utility.yul\":8649:8656   */\n  dup11\n    /* \"#utility.yul\":8640:8646   */\n  dup3\n    /* \"#utility.yul\":8629:8638   */\n  dup12\n    /* \"#utility.yul\":8625:8647   */\n  add\n    /* \"#utility.yul\":8593:8657   */\n  tag_84\n  jump\t// in\ntag_213:\n    /* \"#utility.yul\":8583:8657   */\n  swap2\n  pop\n    /* \"#utility.yul\":8537:8667   */\n  pop\n    /* \"#utility.yul\":6631:8674   */\n  swap3\n  swap6\n  swap9\n  swap2\n  swap5\n  swap8\n  pop\n  swap3\n  swap6\n  pop\n  jump\t// out\n    /* \"#utility.yul\":8680:8779   */\ntag_92:\n    /* \"#utility.yul\":8732:8738   */\n  0x00\n    /* \"#utility.yul\":8766:8771   */\n  dup2\n    /* \"#utility.yul\":8760:8772   */\n  mload\n    /* \"#utility.yul\":8750:8772   */\n  swap1\n  pop\n    /* \"#utility.yul\":8680:8779   */\n  swap2\n  swap1\n  pop\n  jump\t// out\n    /* \"#utility.yul\":8785:8965   */\ntag_93:\n    /* \"#utility.yul\":8833:8910   */\n  0x4e487b7100000000000000000000000000000000000000000000000000000000\n    /* \"#utility.yul\":8830:8831   */\n  0x00\n    /* \"#utility.yul\":8823:8911   */\n  mstore\n    /* \"#utility.yul\":8930:8934   */\n  0x22\n    /* \"#utility.yul\":8927:8928   */\n  0x04\n    /* \"#utility.yul\":8920:8935   */\n  mstore\n    /* \"#utility.yul\":8954:8958   */\n  0x24\n    /* \"#utility.yul\":8951:8952   */\n  0x00\n    /* \"#utility.yul\":8944:8959   */\n  revert\n    /* \"#utility.yul\":8971:9291   */\ntag_94:\n    /* \"#utility.yul\":9015:9021   */\n  0x00\n    /* \"#utility.yul\":9052:9053   */\n  0x02\n    /* \"#utility.yul\":9046:9050   */\n  dup3\n    /* \"#utility.yul\":9042:9054   */\n  div\n    /* \"#utility.yul\":9032:9054   */\n  swap1\n  pop\n    /* \"#utility.yul\":9099:9100   */\n  0x01\n    /* \"#utility.yul\":9093:9097   */\n  dup3\n    /* \"#utility.yul\":9089:9101   */\n  and\n    /* \"#utility.yul\":9120:9138   */\n  dup1\n    /* \"#utility.yul\":9110:9191   */\n  tag_217\n  jumpi\n    /* \"#utility.yul\":9176:9180   */\n  0x7f\n    /* \"#utility.yul\":9168:9174   */\n  dup3\n    /* \"#utility.yul\":9164:9181   */\n  and\n    /* \"#utility.yul\":9154:9181   */\n  swap2\n  pop\n    /* \"#utility.yul\":9110:9191   */\ntag_217:\n    /* \"#utility.yul\":9238:9240   */\n  0x20\n    /* \"#utility.yul\":9230:9236   */\n  dup3\n    /* \"#utility.yul\":9227:9241   */\n  lt\n    /* \"#utility.yul\":9207:9225   */\n  dup2\n    /* \"#utility.yul\":9204:9242   */\n  sub\n    /* \"#utility.yul\":9201:9285   */\n  tag_218\n  jumpi\n    /* \"#utility.yul\":9257:9275   */\n  tag_219\n  tag_93\n  jump\t// in\ntag_219:\n    /* \"#utility.yul\":9201:9285   */\ntag_218:\n    /* \"#utility.yul\":9022:9291   */\n  pop\n    /* \"#utility.yul\":8971:9291   */\n  swap2\n  swap1\n  pop\n  jump\t// out\n    /* \"#utility.yul\":9297:9438   */\ntag_95:\n    /* \"#utility.yul\":9346:9350   */\n  0x00\n    /* \"#utility.yul\":9369:9372   */\n  dup2\n    /* \"#utility.yul\":9361:9372   */\n  swap1\n  pop\n    /* \"#utility.yul\":9392:9395   */\n  dup2\n    /* \"#utility.yul\":9389:9390   */\n  0x00\n    /* \"#utility.yul\":9382:9396   */\n  mstore\n    /* \"#utility.yul\":9426:9430   */\n  0x20\n    /* \"#utility.yul\":9423:9424   */\n  0x00\n    /* \"#utility.yul\":9413:9431   */\n  keccak256\n    /* \"#utility.yul\":9405:9431   */\n  swap1\n  pop\n    /* \"#utility.yul\":9297:9438   */\n  swap2\n  swap1\n  pop\n  jump\t// out\n    /* \"#utility.yul\":9444:9537   */\ntag_96:\n    /* \"#utility.yul\":9481:9487   */\n  0x00\n    /* \"#utility.yul\":9528:9530   */\n  0x20\n    /* \"#utility.yul\":9523:9525   */\n  0x1f\n    /* \"#utility.yul\":9516:9521   */\n  dup4\n    /* \"#utility.yul\":9512:9526   */\n  add\n    /* \"#utility.yul\":9508:9531   */\n  div\n    /* \"#utility.yul\":9498:9531   */\n  swap1\n  pop\n    /* \"#utility.yul\":9444:9537   */\n  swap2\n  swap1\n  pop\n  jump\t// out\n    /* \"#utility.yul\":9543:9650   */\ntag_97:\n    /* \"#utility.yul\":9587:9595   */\n  0x00\n    /* \"#utility.yul\":9637:9642   */\n  dup3\n    /* \"#utility.yul\":9631:9635   */\n  dup3\n    /* \"#utility.yul\":9627:9643   */\n  shl\n    /* \"#utility.yul\":9606:9643   */\n  swap1\n  pop\n    /* \"#utility.yul\":9543:9650   */\n  swap3\n  swap2\n  pop\n  pop\n  jump\t// out\n    /* \"#utility.yul\":9656:10049   */\ntag_98:\n    /* \"#utility.yul\":9725:9731   */\n  0x00\n    /* \"#utility.yul\":9775:9776   */\n  0x08\n    /* \"#utility.yul\":9763:9773   */\n  dup4\n    /* \"#utility.yul\":9759:9777   */\n  mul\n    /* \"#utility.yul\":9798:9895   */\n  tag_224\n    /* \"#utility.yul\":9828:9894   */\n  0xffffffffffffffffffffffffffffffffffffffffffffffffffffffffffffffff\n    /* \"#utility.yul\":9817:9826   */\n  dup3\n    /* \"#utility.yul\":9798:9895   */\n  tag_97\n  jump\t// in\ntag_224:\n    /* \"#utility.yul\":9916:9955   */\n  tag_225\n    /* \"#utility.yul\":9946:9954   */\n  dup7\n    /* \"#utility.yul\":9935:9944   */\n  dup4\n    /* \"#utility.yul\":9916:9955   */\n  tag_97\n  jump\t// in\ntag_225:\n    /* \"#utility.yul\":9904:9955   */\n  swap6\n  pop\n    /* \"#utility.yul\":9988:9992   */\n  dup1\n    /* \"#utility.yul\":9984:9993   */\n  not\n    /* \"#utility.yul\":9977:9982   */\n  dup5\n    /* \"#utility.yul\":9973:9994   */\n  and\n    /* \"#utility.yul\":9964:9994   */\n  swap4\n  pop\n    /* \"#utility.yul\":10037:10041   */\n  dup1\n    /* \"#utility.yul\":10027:10035   */\n  dup7\n    /* \"#utility.yul\":10023:10042   */\n  and\n    /* \"#utility.yul\":10016:10021   */\n  dup5\n    /* \"#utility.yul\":10013:10043   */\n  or\n    /* \"#utility.yul\":10003:10043   */\n  swap3\n  pop\n    /* \"#utility.yul\":9732:10049   */\n  pop\n  pop\n    /* \"#utility.yul\":9656:10049   */\n  swap4\n  swap3\n  pop\n  pop\n  pop\n  jump\t// out\n    /* \"#utility.yul\":10055:10115   */\ntag_99:\n    /* \"#utility.yul\":10083:10086   */\n  0x00\n    /* \"#utility.yul\":10104:10109   */\n  dup2\n    /* \"#utility.yul\":10097:10109   */\n  swap1\n  pop\n    /* \"#utility.yul\":10055:10115   */\n  swap2\n  swap1\n  pop\n  jump\t// out\n    /* \"#utility.yul\":10121:10263   */\ntag_100:\n    /* \"#utility.yul\":10171:10180   */\n  0x00\n    /* \"#utility.yul\":10204:10257   */\n  tag_228\n    /* \"#utility.yul\":10222:10256   */\n  tag_229\n    /* \"#utility.yul\":10231:10255   */\n  tag_230\n    /* \"#utility.yul\":10249:10254   */\n  dup5\n    /* \"#utility.yul\":10231:10255   */\n  tag_82\n  jump\t// in\ntag_230:\n    /* \"#utility.yul\":10222:10256   */\n  tag_99\n  jump\t// in\ntag_229:\n    /* \"#utility.yul\":10204:10257   */\n  tag_82\n  jump\t// in\ntag_228:\n    /* \"#utility.yul\":10191:10257   */\n  swap1\n  pop\n    /* \"#utility.yul\":10121:10263   */\n  swap2\n  swap1\n  pop\n  jump\t// out\n    /* \"#utility.yul\":10269:10344   */\ntag_101:\n    /* \"#utility.yul\":10312:10315   */\n  0x00\n    /* \"#utility.yul\":10333:10338   */\n  dup2\n    /* \"#utility.yul\":10326:10338   */\n  swap1\n  pop\n    /* \"#utility.yul\":10269:10344   */\n  swap2\n  swap1\n  pop\n  jump\t// out\n    /* \"#utility.yul\":10350:10619   */\ntag_102:\n    /* \"#utility.yul\":10460:10499   */\n  tag_233\n    /* \"#utility.yul\":10491:10498   */\n  dup4\n    /* \"#utility.yul\":10460:10499   */\n  tag_100\n  jump\t// in\ntag_233:\n    /* \"#utility.yul\":10521:10612   */\n  tag_234\n    /* \"#utility.yul\":10570:10611   */\n  tag_235\n    /* \"#utility.yul\":10594:10610   */\n  dup3\n    /* \"#utility.yul\":10570:10611   */\n  tag_101\n  jump\t// in\ntag_235:\n    /* \"#utility.yul\":10562:10568   */\n  dup5\n    /* \"#utility.yul\":10555:10559   */\n  dup5\n    /* \"#utility.yul\":10549:10560   */\n  sload\n    /* \"#utility.yul\":10521:10612   */\n  tag_98\n  jump\t// in\ntag_234:\n    /* \"#utility.yul\":10515:10519   */\n  dup3\n    /* \"#utility.yul\":10508:10613   */\n  sstore\n    /* \"#utility.yul\":10426:10619   */\n  pop\n    /* \"#utility.yul\":10350:10619   */\n  pop\n  pop\n  pop\n  jump\t// out\n    /* \"#utility.yul\":10625:10698   */\ntag_103:\n    /* \"#utility.yul\":10670:10673   */\n  0x00\n    /* \"#utility.yul\":10625:10698   */\n  swap1\n  jump\t// out\n    /* \"#utility.yul\":10704:10893   */\ntag_104:\n    /* \"#utility.yul\":10781:10813   */\n  tag_238\n  tag_103\n  jump\t// in\ntag_238:\n    /* \"#utility.yul\":10822:10887   */\n  tag_239\n    /* \"#utility.yul\":10880:10886   */\n  dup2\n    /* \"#utility.yul\":10872:10878   */\n  dup5\n    /* \"#utility.yul\":10866:10870   */\n  dup5\n    /* \"#utility.yul\":10822:10887   */\n  tag_102\n  jump\t// in\ntag_239:\n    /* \"#utility.yul\":10757:10893   */\n  pop\n    /* \"#utility.yul\":10704:10893   */\n  pop\n  pop\n  jump\t// out\n    /* \"#utility.yul\":10899:11085   */\ntag_105:\n    /* \"#utility.yul\":10959:11079   */\ntag_241:\n    /* \"#utility.yul\":10976:10979   */\n  dup2\n    /* \"#utility.yul\":10969:10974   */\n  dup2\n    /* \"#utility.yul\":10966:10980   */\n  lt\n    /* \"#utility.yul\":10959:11079   */\n  iszero\n  tag_243\n  jumpi\n    /* \"#utility.yul\":11030:11069   */\n  tag_244\n    /* \"#utility.yul\":11067:11068   */\n  0x00\n    /* \"#utility.yul\":11060:11065   */\n  dup3\n    /* \"#utility.yul\":11030:11069   */\n  tag_104\n  jump\t// in\ntag_244:\n    /* \"#utility.yul\":11003:11004   */\n  0x01\n    /* \"#utility.yul\":10996:11001   */\n  dup2\n    /* \"#utility.yul\":10992:11005   */\n  add\n    /* \"#utility.yul\":10983:11005   */\n  swap1\n  pop\n    /* \"#utility.yul\":10959:11079   */\n  jump(tag_241)\ntag_243:\n    /* \"#utility.yul\":10899:11085   */\n  pop\n  pop\n  jump\t// out\n    /* \"#utility.yul\":11091:11634   */\ntag_106:\n    /* \"#utility.yul\":11192:11194   */\n  0x1f\n    /* \"#utility.yul\":11187:11190   */\n  dup3\n    /* \"#utility.yul\":11184:11195   */\n  gt\n    /* \"#utility.yul\":11181:11627   */\n  iszero\n  tag_246\n  jumpi\n    /* \"#utility.yul\":11226:11264   */\n  tag_247\n    /* \"#utility.yul\":11258:11263   */\n  dup2\n    /* \"#utility.yul\":11226:11264   */\n  tag_95\n  jump\t// in\ntag_247:\n    /* \"#utility.yul\":11310:11339   */\n  tag_248\n    /* \"#utility.yul\":11328:11338   */\n  dup5\n    /* \"#utility.yul\":11310:11339   */\n  tag_96\n  jump\t// in\ntag_248:\n    /* \"#utility.yul\":11300:11308   */\n  dup2\n    /* \"#utility.yul\":11296:11340   */\n  add\n    /* \"#utility.yul\":11493:11495   */\n  0x20\n    /* \"#utility.yul\":11481:11491   */\n  dup6\n    /* \"#utility.yul\":11478:11496   */\n  lt\n    /* \"#utility.yul\":11475:11524   */\n  iszero\n  tag_249\n  jumpi\n    /* \"#utility.yul\":11514:11522   */\n  dup2\n    /* \"#utility.yul\":11499:11522   */\n  swap1\n  pop\n    /* \"#utility.yul\":11475:11524   */\ntag_249:\n    /* \"#utility.yul\":11537:11617   */\n  tag_250\n    /* \"#utility.yul\":11593:11615   */\n  tag_251\n    /* \"#utility.yul\":11611:11614   */\n  dup6\n    /* \"#utility.yul\":11593:11615   */\n  tag_96\n  jump\t// in\ntag_251:\n    /* \"#utility.yul\":11583:11591   */\n  dup4\n    /* \"#utility.yul\":11579:11616   */\n  add\n    /* \"#utility.yul\":11566:11577   */\n  dup3\n    /* \"#utility.yul\":11537:11617   */\n  tag_105\n  jump\t// in\ntag_250:\n    /* \"#utility.yul\":11196:11627   */\n  pop\n  pop\n    /* \"#utility.yul\":11181:11627   */\ntag_246:\n    /* \"#utility.yul\":11091:11634   */\n  pop\n  pop\n  pop\n  jump\t// out\n    /* \"#utility.yul\":11640:11757   */\ntag_107:\n    /* \"#utility.yul\":11694:11702   */\n  0x00\n    /* \"#utility.yul\":11744:11749   */\n  dup3\n    /* \"#utility.yul\":11738:11742   */\n  dup3\n    /* \"#utility.yul\":11734:11750   */\n  shr\n    /* \"#utility.yul\":11713:11750   */\n  swap1\n  pop\n    /* \"#utility.yul\":11640:11757   */\n  swap3\n  swap2\n  pop\n  pop\n  jump\t// out\n    /* \"#utility.yul\":11763:11932   */\ntag_108:\n    /* \"#utility.yul\":11807:11813   */\n  0x00\n    /* \"#utility.yul\":11840:11891   */\n  tag_254\n    /* \"#utility.yul\":11888:11889   */\n  0x00\n    /* \"#utility.yul\":11884:11890   */\n  not\n    /* \"#utility.yul\":11876:11881   */\n  dup5\n    /* \"#utility.yul\":11873:11874   */\n  0x08\n    /* \"#utility.yul\":11869:11882   */\n  mul\n    /* \"#utility.yul\":11840:11891   */\n  tag_107\n  jump\t// in\ntag_254:\n    /* \"#utility.yul\":11836:11892   */\n  not\n    /* \"#utility.yul\":11921:11925   */\n  dup1\n    /* \"#utility.yul\":11915:11919   */\n  dup4\n    /* \"#utility.yul\":11911:11926   */\n  and\n    /* \"#utility.yul\":11901:11926   */\n  swap2\n  pop\n    /* \"#utility.yul\":11814:11932   */\n  pop\n    /* \"#utility.yul\":11763:11932   */\n  swap3\n  swap2\n  pop\n  pop\n  jump\t// out\n    /* \"#utility.yul\":11937:12232   */\ntag_109:\n    /* \"#utility.yul\":12013:12017   */\n  0x00\n    /* \"#utility.yul\":12159:12188   */\n  tag_256\n    /* \"#utility.yul\":12184:12187   */\n  dup4\n    /* \"#utility.yul\":12178:12182   */\n  dup4\n    /* \"#utility.yul\":12159:12188   */\n  tag_108\n  jump\t// in\ntag_256:\n    /* \"#utility.yul\":12151:12188   */\n  swap2\n  pop\n    /* \"#utility.yul\":12221:12224   */\n  dup3\n    /* \"#utility.yul\":12218:12219   */\n  0x02\n    /* \"#utility.yul\":12214:12225   */\n  mul\n    /* \"#utility.yul\":12208:12212   */\n  dup3\n    /* \"#utility.yul\":12205:12226   */\n  or\n    /* \"#utility.yul\":12197:12226   */\n  swap1\n  pop\n    /* \"#utility.yul\":11937:12232   */\n  swap3\n  swap2\n  pop\n  pop\n  jump\t// out\n    /* \"#utility.yul\":12237:13632   */\ntag_9:\n    /* \"#utility.yul\":12354:12391   */\n  tag_258\n    /* \"#utility.yul\":12387:12390   */\n  dup3\n    /* \"#utility.yul\":12354:12391   */\n  tag_92\n  jump\t// in\ntag_258:\n    /* \"#utility.yul\":12456:12474   */\n  0xffffffffffffffff\n    /* \"#utility.yul\":12448:12454   */\n  dup2\n    /* \"#utility.yul\":12445:12475   */\n  gt\n    /* \"#utility.yul\":12442:12498   */\n  iszero\n  tag_259\n  jumpi\n    /* \"#utility.yul\":12478:12496   */\n  tag_260\n  tag_75\n  jump\t// in\ntag_260:\n    /* \"#utility.yul\":12442:12498   */\ntag_259:\n    /* \"#utility.yul\":12522:12560   */\n  tag_261\n    /* \"#utility.yul\":12554:12558   */\n  dup3\n    /* \"#utility.yul\":12548:12559   */\n  sload\n    /* \"#utility.yul\":12522:12560   */\n  tag_94\n  jump\t// in\ntag_261:\n    /* \"#utility.yul\":12607:12674   */\n  tag_262\n    /* \"#utility.yul\":12667:12673   */\n  dup3\n    /* \"#utility.yul\":12659:12665   */\n  dup3\n    /* \"#utility.yul\":12653:12657   */\n  dup6\n    /* \"#utility.yul\":12607:12674   */\n  tag_106\n  jump\t// in\ntag_262:\n    /* \"#utility.yul\":12701:12702   */\n  0x00\n    /* \"#utility.yul\":12725:12729   */\n  0x20\n    /* \"#utility.yul\":12712:12729   */\n  swap1\n  pop\n    /* \"#utility.yul\":12757:12759   */\n  0x1f\n    /* \"#utility.yul\":12749:12755   */\n  dup4\n    /* \"#utility.yul\":12746:12760   */\n  gt\n    /* \"#utility.yul\":12774:12775   */\n  0x01\n    /* \"#utility.yul\":12769:13387   */\n  dup2\n  eq\n  tag_264\n  jumpi\n    /* \"#utility.yul\":13431:13432   */\n  0x00\n    /* \"#utility.yul\":13448:13454   */\n  dup5\n    /* \"#utility.yul\":13445:13522   */\n  iszero\n  tag_265\n  jumpi\n    /* \"#utility.yul\":13497:13506   */\n  dup3\n    /* \"#utility.yul\":13492:13495   */\n  dup8\n    /* \"#utility.yul\":13488:13507   */\n  add\n    /* \"#utility.yul\":13482:13508   */\n  mload\n    /* \"#utility.yul\":13473:13508   */\n  swap1\n  pop\n    /* \"#utility.yul\":13445:13522   */\ntag_265:\n    /* \"#utility.yul\":13548:13615   */\n  tag_266\n    /* \"#utility.yul\":13608:13614   */\n  dup6\n    /* \"#utility.yul\":13601:13606   */\n  dup3\n    /* \"#utility.yul\":13548:13615   */\n  tag_109\n  jump\t// in\ntag_266:\n    /* \"#utility.yul\":13542:13546   */\n  dup7\n    /* \"#utility.yul\":13535:13616   */\n  sstore\n    /* \"#utility.yul\":13404:13626   */\n  pop\n    /* \"#utility.yul\":12739:13626   */\n  jump(tag_263)\n    /* \"#utility.yul\":12769:13387   */\ntag_264:\n    /* \"#utility.yul\":12821:12825   */\n  0x1f\n    /* \"#utility.yul\":12817:12826   */\n  not\n    /* \"#utility.yul\":12809:12815   */\n  dup5\n    /* \"#utility.yul\":12805:12827   */\n  and\n    /* \"#utility.yul\":12855:12892   */\n  tag_267\n    /* \"#utility.yul\":12887:12891   */\n  dup7\n    /* \"#utility.yul\":12855:12892   */\n  tag_95\n  jump\t// in\ntag_267:\n    /* \"#utility.yul\":12914:12915   */\n  0x00\n    /* \"#utility.yul\":12928:13136   */\ntag_268:\n    /* \"#utility.yul\":12942:12949   */\n  dup3\n    /* \"#utility.yul\":12939:12940   */\n  dup2\n    /* \"#utility.yul\":12936:12950   */\n  lt\n    /* \"#utility.yul\":12928:13136   */\n  iszero\n  tag_270\n  jumpi\n    /* \"#utility.yul\":13021:13030   */\n  dup5\n    /* \"#utility.yul\":13016:13019   */\n  dup10\n    /* \"#utility.yul\":13012:13031   */\n  add\n    /* \"#utility.yul\":13006:13032   */\n  mload\n    /* \"#utility.yul\":12998:13004   */\n  dup3\n    /* \"#utility.yul\":12991:13033   */\n  sstore\n    /* \"#utility.yul\":13072:13073   */\n  0x01\n    /* \"#utility.yul\":13064:13070   */\n  dup3\n    /* \"#utility.yul\":13060:13074   */\n  add\n    /* \"#utility.yul\":13050:13074   */\n  swap2\n  pop\n    /* \"#utility.yul\":13119:13121   */\n  0x20\n    /* \"#utility.yul\":13108:13117   */\n  dup6\n    /* \"#utility.yul\":13104:13122   */\n  add\n    /* \"#utility.yul\":13091:13122   */\n  swap5\n  pop\n    /* \"#utility.yul\":12965:12969   */\n  0x20\n    /* \"#utility.yul\":12962:12963   */\n  dup2\n    /* \"#utility.yul\":12958:12970   */\n  add\n    /* \"#utility.yul\":12953:12970   */\n  swap1\n  pop\n    /* \"#utility.yul\":12928:13136   */\n  jump(tag_268)\ntag_270:\n    /* \"#utility.yul\":13164:13170   */\n  dup7\n    /* \"#utility.yul\":13155:13162   */\n  dup4\n    /* \"#utility.yul\":13152:13171   */\n  lt\n    /* \"#utility.yul\":13149:13328   */\n  iszero\n  tag_271\n  jumpi\n    /* \"#utility.yul\":13222:13231   */\n  dup5\n    /* \"#utility.yul\":13217:13220   */\n  dup10\n    /* \"#utility.yul\":13213:13232   */\n  add\n    /* \"#utility.yul\":13207:13233   */\n  mload\n    /* \"#utility.yul\":13265:13313   */\n  tag_272\n    /* \"#utility.yul\":13307:13311   */\n  0x1f\n    /* \"#utility.yul\":13299:13305   */\n  dup10\n    /* \"#utility.yul\":13295:13312   */\n  and\n    /* \"#utility.yul\":13284:13293   */\n  dup3\n    /* \"#utility.yul\":13265:13313   */\n  tag_108\n  jump\t// in\ntag_272:\n    /* \"#utility.yul\":13257:13263   */\n  dup4\n    /* \"#utility.yul\":13250:13314   */\n  sstore\n    /* \"#utility.yul\":13172:13328   */\n  pop\n    /* \"#utility.yul\":13149:13328   */\ntag_271:\n    /* \"#utility.yul\":13374:13375   */\n  0x01\n    /* \"#utility.yul\":13370:13371   */\n  0x02\n    /* \"#utility.yul\":13362:13368   */\n  dup9\n    /* \"#utility.yul\":13358:13372   */\n  mul\n    /* \"#utility.yul\":13354:13376   */\n  add\n    /* \"#utility.yul\":13348:13352   */\n  dup9\n    /* \"#utility.yul\":13341:13377   */\n  sstore\n    /* \"#utility.yul\":12776:13387   */\n  pop\n  pop\n  pop\n    /* \"#utility.yul\":12739:13626   */\ntag_263:\n  pop\n    /* \"#utility.yul\":12329:13632   */\n  pop\n  pop\n  pop\n    /* \"#utility.yul\":12237:13632   */\n  pop\n  pop\n  jump\t// out\n    /* \"#utility.yul\":13638:13756   */\ntag_110:\n    /* \"#utility.yul\":13725:13749   */\n  tag_274\n    /* \"#utility.yul\":13743:13748   */\n  dup2\n    /* \"#utility.yul\":13725:13749   */\n  tag_69\n  jump\t// in\ntag_274:\n    /* \"#utility.yul\":13720:13723   */\n  dup3\n    /* \"#utility.yul\":13713:13750   */\n  mstore\n    /* \"#utility.yul\":13638:13756   */\n  pop\n  pop\n  jump\t// out\n    /* \"#utility.yul\":13762:13984   */\ntag_14:\n    /* \"#utility.yul\":13855:13859   */\n  0x00\n    /* \"#utility.yul\":13893:13895   */\n  0x20\n    /* \"#utility.yul\":13882:13891   */\n  dup3\n    /* \"#utility.yul\":13878:13896   */\n  add\n    /* \"#utility.yul\":13870:13896   */\n  swap1\n  pop\n    /* \"#utility.yul\":13906:13977   */\n  tag_276\n    /* \"#utility.yul\":13974:13975   */\n  0x00\n    /* \"#utility.yul\":13963:13972   */\n  dup4\n    /* \"#utility.yul\":13959:13976   */\n  add\n    /* \"#utility.yul\":13950:13956   */\n  dup5\n    /* \"#utility.yul\":13906:13977   */\n  tag_110\n  jump\t// in\ntag_276:\n    /* \"#utility.yul\":13762:13984   */\n  swap3\n  swap2\n  pop\n  pop\n  jump\t// out\n    /* \"#utility.yul\":13990:14159   */\ntag_111:\n    /* \"#utility.yul\":14074:14085   */\n  0x00\n    /* \"#utility.yul\":14108:14114   */\n  dup3\n    /* \"#utility.yul\":14103:14106   */\n  dup3\n    /* \"#utility.yul\":14096:14115   */\n  mstore\n    /* \"#utility.yul\":14148:14152   */\n  0x20\n    /* \"#utility.yul\":14143:14146   */\n  dup3\n    /* \"#utility.yul\":14139:14153   */\n  add\n    /* \"#utility.yul\":14124:14153   */\n  swap1\n  pop\n    /* \"#utility.yul\":13990:14159   */\n  swap3\n  swap2\n  pop\n  pop\n  jump\t// out\n    /* \"#utility.yul\":14165:14394   */\ntag_112:\n    /* \"#utility.yul\":14305:14339   */\n  0x737562736372696265727320616e6420746865697220616d6f756e747320646f\n    /* \"#utility.yul\":14301:14302   */\n  0x00\n    /* \"#utility.yul\":14293:14299   */\n  dup3\n    /* \"#utility.yul\":14289:14303   */\n  add\n    /* \"#utility.yul\":14282:14340   */\n  mstore\n    /* \"#utility.yul\":14374:14386   */\n  0x206e6f74206d6174636800000000000000000000000000000000000000000000\n    /* \"#utility.yul\":14369:14371   */\n  0x20\n    /* \"#utility.yul\":14361:14367   */\n  dup3\n    /* \"#utility.yul\":14357:14372   */\n  add\n    /* \"#utility.yul\":14350:14387   */\n  mstore\n    /* \"#utility.yul\":14165:14394   */\n  pop\n  jump\t// out\n    /* \"#utility.yul\":14400:14766   */\ntag_113:\n    /* \"#utility.yul\":14542:14545   */\n  0x00\n    /* \"#utility.yul\":14563:14630   */\n  tag_280\n    /* \"#utility.yul\":14627:14629   */\n  0x2a\n    /* \"#utility.yul\":14622:14625   */\n  dup4\n    /* \"#utility.yul\":14563:14630   */\n  tag_111\n  jump\t// in\ntag_280:\n    /* \"#utility.yul\":14556:14630   */\n  swap2\n  pop\n    /* \"#utility.yul\":14639:14732   */\n  tag_281\n    /* \"#utility.yul\":14728:14731   */\n  dup3\n    /* \"#utility.yul\":14639:14732   */\n  tag_112\n  jump\t// in\ntag_281:\n    /* \"#utility.yul\":14757:14759   */\n  0x40\n    /* \"#utility.yul\":14752:14755   */\n  dup3\n    /* \"#utility.yul\":14748:14760   */\n  add\n    /* \"#utility.yul\":14741:14760   */\n  swap1\n  pop\n    /* \"#utility.yul\":14400:14766   */\n  swap2\n  swap1\n  pop\n  jump\t// out\n    /* \"#utility.yul\":14772:15191   */\ntag_20:\n    /* \"#utility.yul\":14938:14942   */\n  0x00\n    /* \"#utility.yul\":14976:14978   */\n  0x20\n    /* \"#utility.yul\":14965:14974   */\n  dup3\n    /* \"#utility.yul\":14961:14979   */\n  add\n    /* \"#utility.yul\":14953:14979   */\n  swap1\n  pop\n    /* \"#utility.yul\":15025:15034   */\n  dup2\n    /* \"#utility.yul\":15019:15023   */\n  dup2\n    /* \"#utility.yul\":15015:15035   */\n  sub\n    /* \"#utility.yul\":15011:15012   */\n  0x00\n    /* \"#utility.yul\":15000:15009   */\n  dup4\n    /* \"#utility.yul\":14996:15013   */\n  add\n    /* \"#utility.yul\":14989:15036   */\n  mstore\n    /* \"#utility.yul\":15053:15184   */\n  tag_283\n    /* \"#utility.yul\":15179:15183   */\n  dup2\n    /* \"#utility.yul\":15053:15184   */\n  tag_113\n  jump\t// in\ntag_283:\n    /* \"#utility.yul\":15045:15184   */\n  swap1\n  pop\n    /* \"#utility.yul\":14772:15191   */\n  swap2\n  swap1\n  pop\n  jump\t// out\n    /* \"#utility.yul\":15197:15377   */\ntag_114:\n    /* \"#utility.yul\":15245:15322   */\n  0x4e487b7100000000000000000000000000000000000000000000000000000000\n    /* \"#utility.yul\":15242:15243   */\n  0x00\n    /* \"#utility.yul\":15235:15323   */\n  mstore\n    /* \"#utility.yul\":15342:15346   */\n  0x11\n    /* \"#utility.yul\":15339:15340   */\n  0x04\n    /* \"#utility.yul\":15332:15347   */\n  mstore\n    /* \"#utility.yul\":15366:15370   */\n  0x24\n    /* \"#utility.yul\":15363:15364   */\n  0x00\n    /* \"#utility.yul\":15356:15371   */\n  revert\n    /* \"#utility.yul\":15383:15574   */\ntag_22:\n    /* \"#utility.yul\":15423:15426   */\n  0x00\n    /* \"#utility.yul\":15442:15462   */\n  tag_286\n    /* \"#utility.yul\":15460:15461   */\n  dup3\n    /* \"#utility.yul\":15442:15462   */\n  tag_82\n  jump\t// in\ntag_286:\n    /* \"#utility.yul\":15437:15462   */\n  swap2\n  pop\n    /* \"#utility.yul\":15476:15496   */\n  tag_287\n    /* \"#utility.yul\":15494:15495   */\n  dup4\n    /* \"#utility.yul\":15476:15496   */\n  tag_82\n  jump\t// in\ntag_287:\n    /* \"#utility.yul\":15471:15496   */\n  swap3\n  pop\n    /* \"#utility.yul\":15519:15520   */\n  dup3\n    /* \"#utility.yul\":15516:15517   */\n  dup3\n    /* \"#utility.yul\":15512:15521   */\n  add\n    /* \"#utility.yul\":15505:15521   */\n  swap1\n  pop\n    /* \"#utility.yul\":15540:15543   */\n  dup1\n    /* \"#utility.yul\":15537:15538   */\n  dup3\n    /* \"#utility.yul\":15534:15544   */\n  gt\n    /* \"#utility.yul\":15531:15567   */\n  iszero\n  tag_288\n  jumpi\n    /* \"#utility.yul\":15547:15565   */\n  tag_289\n  tag_114\n  jump\t// in\ntag_289:\n    /* \"#utility.yul\":15531:15567   */\ntag_288:\n    /* \"#utility.yul\":15383:15574   */\n  swap3\n  swap2\n  pop\n  pop\n  jump\t// out\n    /* \"#utility.yul\":15580:15760   */\ntag_28:\n    /* \"#utility.yul\":15628:15705   */\n  0x4e487b7100000000000000000000000000000000000000000000000000000000\n    /* \"#utility.yul\":15625:15626   */\n  0x00\n    /* \"#utility.yul\":15618:15706   */\n  mstore\n    /* \"#utility.yul\":15725:15729   */\n  0x32\n    /* \"#utility.yul\":15722:15723   */\n  0x04\n    /* \"#utility.yul\":15715:15730   */\n  mstore\n    /* \"#utility.yul\":15749:15753   */\n  0x24\n    /* \"#utility.yul\":15746:15747   */\n  0x00\n    /* \"#utility.yul\":15739:15754   */\n  revert\n    /* \"#utility.yul\":15766:15999   */\ntag_41:\n    /* \"#utility.yul\":15805:15808   */\n  0x00\n    /* \"#utility.yul\":15828:15852   */\n  tag_292\n    /* \"#utility.yul\":15846:15851   */\n  dup3\n    /* \"#utility.yul\":15828:15852   */\n  tag_82\n  jump\t// in\ntag_292:\n    /* \"#utility.yul\":15819:15852   */\n  swap2\n  pop\n    /* \"#utility.yul\":15874:15940   */\n  0xffffffffffffffffffffffffffffffffffffffffffffffffffffffffffffffff\n    /* \"#utility.yul\":15867:15872   */\n  dup3\n    /* \"#utility.yul\":15864:15941   */\n  sub\n    /* \"#utility.yul\":15861:15964   */\n  tag_293\n  jumpi\n    /* \"#utility.yul\":15944:15962   */\n  tag_294\n  tag_114\n  jump\t// in\ntag_294:\n    /* \"#utility.yul\":15861:15964   */\ntag_293:\n    /* \"#utility.yul\":15991:15992   */\n  0x01\n    /* \"#utility.yul\":15984:15989   */\n  dup3\n    /* \"#utility.yul\":15980:15993   */\n  add\n    /* \"#utility.yul\":15973:15993   */\n  swap1\n  pop\n    /* \"#utility.yul\":15766:15999   */\n  swap2\n  swap1\n  pop\n  jump\t// out\n    /* \"#utility.yul\":16005:16199   */\ntag_43:\n    /* \"#utility.yul\":16045:16049   */\n  0x00\n    /* \"#utility.yul\":16065:16085   */\n  tag_296\n    /* \"#utility.yul\":16083:16084   */\n  dup3\n    /* \"#utility.yul\":16065:16085   */\n  tag_82\n  jump\t// in\ntag_296:\n    /* \"#utility.yul\":16060:16085   */\n  swap2\n  pop\n    /* \"#utility.yul\":16099:16119   */\n  tag_297\n    /* \"#utility.yul\":16117:16118   */\n  dup4\n    /* \"#utility.yul\":16099:16119   */\n  tag_82\n  jump\t// in\ntag_297:\n    /* \"#utility.yul\":16094:16119   */\n  swap3\n  pop\n    /* \"#utility.yul\":16143:16144   */\n  dup3\n    /* \"#utility.yul\":16140:16141   */\n  dup3\n    /* \"#utility.yul\":16136:16145   */\n  sub\n    /* \"#utility.yul\":16128:16145   */\n  swap1\n  pop\n    /* \"#utility.yul\":16167:16168   */\n  dup2\n    /* \"#utility.yul\":16161:16165   */\n  dup2\n    /* \"#utility.yul\":16158:16169   */\n  gt\n    /* \"#utility.yul\":16155:16192   */\n  iszero\n  tag_298\n  jumpi\n    /* \"#utility.yul\":16172:16190   */\n  tag_299\n  tag_114\n  jump\t// in\ntag_299:\n    /* \"#utility.yul\":16155:16192   */\ntag_298:\n    /* \"#utility.yul\":16005:16199   */\n  swap3\n  swap2\n  pop\n  pop\n  jump\t// out\n    /* \"#utility.yul\":16205:16323   */\ntag_115:\n    /* \"#utility.yul\":16292:16316   */\n  tag_301\n    /* \"#utility.yul\":16310:16315   */\n  dup2\n    /* \"#utility.yul\":16292:16316   */\n  tag_82\n  jump\t// in\ntag_301:\n    /* \"#utility.yul\":16287:16290   */\n  dup3\n    /* \"#utility.yul\":16280:16317   */\n  mstore\n    /* \"#utility.yul\":16205:16323   */\n  pop\n  pop\n  jump\t// out\n    /* \"#utility.yul\":16329:16771   */\ntag_60:\n    /* \"#utility.yul\":16478:16482   */\n  0x00\n    /* \"#utility.yul\":16516:16518   */\n  0x60\n    /* \"#utility.yul\":16505:16514   */\n  dup3\n    /* \"#utility.yul\":16501:16519   */\n  add\n    /* \"#utility.yul\":16493:16519   */\n  swap1\n  pop\n    /* \"#utility.yul\":16529:16600   */\n  tag_303\n    /* \"#utility.yul\":16597:16598   */\n  0x00\n    /* \"#utility.yul\":16586:16595   */\n  dup4\n    /* \"#utility.yul\":16582:16599   */\n  add\n    /* \"#utility.yul\":16573:16579   */\n  dup7\n    /* \"#utility.yul\":16529:16600   */\n  tag_110\n  jump\t// in\ntag_303:\n    /* \"#utility.yul\":16610:16682   */\n  tag_304\n    /* \"#utility.yul\":16678:16680   */\n  0x20\n    /* \"#utility.yul\":16667:16676   */\n  dup4\n    /* \"#utility.yul\":16663:16681   */\n  add\n    /* \"#utility.yul\":16654:16660   */\n  dup6\n    /* \"#utility.yul\":16610:16682   */\n  tag_115\n  jump\t// in\ntag_304:\n    /* \"#utility.yul\":16692:16764   */\n  tag_305\n    /* \"#utility.yul\":16760:16762   */\n  0x40\n    /* \"#utility.yul\":16749:16758   */\n  dup4\n    /* \"#utility.yul\":16745:16763   */\n  add\n    /* \"#utility.yul\":16736:16742   */\n  dup5\n    /* \"#utility.yul\":16692:16764   */\n  tag_115\n  jump\t// in\ntag_305:\n    /* \"#utility.yul\":16329:16771   */\n  swap5\n  swap4\n  pop\n  pop\n  pop\n  pop\n  jump\t// out\n    /* \"#utility.yul\":16777:16999   */\ntag_64:\n    /* \"#utility.yul\":16870:16874   */\n  0x00\n    /* \"#utility.yul\":16908:16910   */\n  0x20\n    /* \"#utility.yul\":16897:16906   */\n  dup3\n    /* \"#utility.yul\":16893:16911   */\n  add\n    /* \"#utility.yul\":16885:16911   */\n  swap1\n  pop\n    /* \"#utility.yul\":16921:16992   */\n  tag_307\n    /* \"#utility.yul\":16989:16990   */\n  0x00\n    /* \"#utility.yul\":16978:16987   */\n  dup4\n    /* \"#utility.yul\":16974:16991   */\n  add\n    /* \"#utility.yul\":16965:16971   */\n  dup5\n    /* \"#utility.yul\":16921:16992   */\n  tag_115\n  jump\t// in\ntag_307:\n    /* \"#utility.yul\":16777:16999   */\n  swap3\n  swap2\n  pop\n  pop\n  jump\t// out\n    /* \"userfrontend/contracts/ERC20subscription.sol\":206:3775  contract ERC20subscription is ERC20, Ownable {... */\ntag_47:\n  dataSize(sub_0)\n  dup1\n  dataOffset(sub_0)\n  0x00\n  codecopy\n  0x00\n  return\nstop\n\nsub_0: assembly {\n        /* \"userfrontend/contracts/ERC20subscription.sol\":206:3775  contract ERC20subscription is ERC20, Ownable {... */\n      mstore(0x40, 0x80)\n      callvalue\n      dup1\n      iszero\n      tag_1\n      jumpi\n      0x00\n      dup1\n      revert\n    tag_1:\n      pop\n      jumpi(tag_2, lt(calldatasize, 0x04))\n      shr(0xe0, calldataload(0x00))\n      dup1\n      0x95d89b41\n      gt\n      tag_21\n      jumpi\n      dup1\n      0xb93a5396\n      gt\n      tag_22\n      jumpi\n      dup1\n      0xb93a5396\n      eq\n      tag_16\n      jumpi\n      dup1\n      0xbd7dac92\n      eq\n      tag_17\n      jumpi\n      dup1\n      0xc0a4d64d\n      eq\n      tag_18\n      jumpi\n      dup1\n      0xdd62ed3e\n      eq\n      tag_19\n      jumpi\n      dup1\n      0xf2fde38b\n      eq\n      tag_20\n      jumpi\n      jump(tag_2)\n    tag_22:\n      dup1\n      0x95d89b41\n      eq\n      tag_12\n      jumpi\n      dup1\n      0x9f3adb0e\n      eq\n      tag_13\n      jumpi\n      dup1\n      0xa9059cbb\n      eq\n      tag_14\n      jumpi\n      dup1\n      0xae84827a\n      eq\n      tag_15\n      jumpi\n      jump(tag_2)\n    tag_21:\n      dup1\n      0x23b872dd\n      gt\n      tag_23\n      jumpi\n      dup1\n      0x23b872dd\n      eq\n      tag_7\n      jumpi\n      dup1\n      0x313ce567\n      eq\n      tag_8\n      jumpi\n      dup1\n      0x70a08231\n      eq\n      tag_9\n      jumpi\n      dup1\n      0x715018a6\n      eq\n      tag_10\n      jumpi\n      dup1\n      0x8da5cb5b\n      eq\n      tag_11\n      jumpi\n      jump(tag_2)\n    tag_23:\n      dup1\n      0x06fdde03\n      eq\n      tag_3\n      jumpi\n      dup1\n      0x095ea7b3\n      eq\n      tag_4\n      jumpi\n      dup1\n      0x0de65a44\n      eq\n      tag_5\n      jumpi\n      dup1\n      0x18160ddd\n      eq\n      tag_6\n      jumpi\n    tag_2:\n      0x00\n      dup1\n      revert\n        /* \"userfrontend/node_modules/@openzeppelin/contracts/token/ERC20/ERC20.sol\":2074:2163  function name() public view virtual returns (string memory) {... */\n    tag_3:\n      tag_24\n      tag_25\n      jump\t// in\n    tag_24:\n      mload(0x40)\n      tag_26\n      swap2\n      swap1\n      tag_27\n      jump\t// in\n    tag_26:\n      mload(0x40)\n      dup1\n      swap2\n      sub\n      swap1\n      return\n        /* \"userfrontend/node_modules/@openzeppelin/contracts/token/ERC20/ERC20.sol\":4293:4479  function approve(address spender, uint256 value) public virtual returns (bool) {... */\n    tag_4:\n      tag_28\n      0x04\n      dup1\n      calldatasize\n      sub\n      dup2\n      add\n      swap1\n      tag_29\n      swap2\n      swap1\n      tag_30\n      jump\t// in\n    tag_29:\n      tag_31\n      jump\t// in\n    tag_28:\n      mload(0x40)\n      tag_32\n      swap2\n      swap1\n      tag_33\n      jump\t// in\n    tag_32:\n      mload(0x40)\n      dup1\n      swap2\n      sub\n      swap1\n      return\n        /* \"userfrontend/contracts/ERC20subscription.sol\":3399:3516  function setDocumentURI (string memory __documentURI) public onlyOwner{... */\n    tag_5:\n      tag_34\n      0x04\n      dup1\n      calldatasize\n      sub\n      dup2\n      add\n      swap1\n      tag_35\n      swap2\n      swap1\n      tag_36\n      jump\t// in\n    tag_35:\n      tag_37\n      jump\t// in\n    tag_34:\n      stop\n        /* \"userfrontend/node_modules/@openzeppelin/contracts/token/ERC20/ERC20.sol\":3144:3241  function totalSupply() public view virtual returns (uint256) {... */\n    tag_6:\n      tag_38\n      tag_39\n      jump\t// in\n    tag_38:\n      mload(0x40)\n      tag_40\n      swap2\n      swap1\n      tag_41\n      jump\t// in\n    tag_40:\n      mload(0x40)\n      dup1\n      swap2\n      sub\n      swap1\n      return\n        /* \"userfrontend/contracts/ERC20subscription.sol\":2610:3283  function transferFrom(... */\n    tag_7:\n      tag_42\n      0x04\n      dup1\n      calldatasize\n      sub\n      dup2\n      add\n      swap1\n      tag_43\n      swap2\n      swap1\n      tag_44\n      jump\t// in\n    tag_43:\n      tag_45\n      jump\t// in\n    tag_42:\n      mload(0x40)\n      tag_46\n      swap2\n      swap1\n      tag_33\n      jump\t// in\n    tag_46:\n      mload(0x40)\n      dup1\n      swap2\n      sub\n      swap1\n      return\n        /* \"userfrontend/contracts/ERC20subscription.sol\":1956:2040  function decimals() public pure override returns (uint8) {... */\n    tag_8:\n      tag_47\n      tag_48\n      jump\t// in\n    tag_47:\n      mload(0x40)\n      tag_49\n      swap2\n      swap1\n      tag_50\n      jump\t// in\n    tag_49:\n      mload(0x40)\n      dup1\n      swap2\n      sub\n      swap1\n      return\n        /* \"userfrontend/node_modules/@openzeppelin/contracts/token/ERC20/ERC20.sol\":3299:3415  function balanceOf(address account) public view virtual returns (uint256) {... */\n    tag_9:\n      tag_51\n      0x04\n      dup1\n      calldatasize\n      sub\n      dup2\n      add\n      swap1\n      tag_52\n      swap2\n      swap1\n      tag_53\n      jump\t// in\n    tag_52:\n      tag_54\n      jump\t// in\n    tag_51:\n      mload(0x40)\n      tag_55\n      swap2\n      swap1\n      tag_41\n      jump\t// in\n    tag_55:\n      mload(0x40)\n      dup1\n      swap2\n      sub\n      swap1\n      return\n        /* \"userfrontend/node_modules/@openzeppelin/contracts/access/Ownable.sol\":2293:2394  function renounceOwnership() public virtual onlyOwner {... */\n    tag_10:\n      tag_56\n      tag_57\n      jump\t// in\n    tag_56:\n      stop\n        /* \"userfrontend/node_modules/@openzeppelin/contracts/access/Ownable.sol\":1638:1723  function owner() public view virtual returns (address) {... */\n    tag_11:\n      tag_58\n      tag_59\n      jump\t// in\n    tag_58:\n      mload(0x40)\n      tag_60\n      swap2\n      swap1\n      tag_61\n      jump\t// in\n    tag_60:\n      mload(0x40)\n      dup1\n      swap2\n      sub\n      swap1\n      return\n        /* \"userfrontend/node_modules/@openzeppelin/contracts/token/ERC20/ERC20.sol\":2276:2369  function symbol() public view virtual returns (string memory) {... */\n    tag_12:\n      tag_62\n      tag_63\n      jump\t// in\n    tag_62:\n      mload(0x40)\n      tag_64\n      swap2\n      swap1\n      tag_27\n      jump\t// in\n    tag_64:\n      mload(0x40)\n      dup1\n      swap2\n      sub\n      swap1\n      return\n        /* \"userfrontend/contracts/ERC20subscription.sol\":360:389  uint256 public _adminLockTime */\n    tag_13:\n      tag_65\n      tag_66\n      jump\t// in\n    tag_65:\n      mload(0x40)\n      tag_67\n      swap2\n      swap1\n      tag_41\n      jump\t// in\n    tag_67:\n      mload(0x40)\n      dup1\n      swap2\n      sub\n      swap1\n      return\n        /* \"userfrontend/contracts/ERC20subscription.sol\":2048:2506  function transfer(... */\n    tag_14:\n      tag_68\n      0x04\n      dup1\n      calldatasize\n      sub\n      dup2\n      add\n      swap1\n      tag_69\n      swap2\n      swap1\n      tag_30\n      jump\t// in\n    tag_69:\n      tag_70\n      jump\t// in\n    tag_68:\n      mload(0x40)\n      tag_71\n      swap2\n      swap1\n      tag_33\n      jump\t// in\n    tag_71:\n      mload(0x40)\n      dup1\n      swap2\n      sub\n      swap1\n      return\n        /* \"userfrontend/contracts/ERC20subscription.sol\":3652:3772  function ForceBurn(address _useraddress, uint256 amount) public onlyOwner {... */\n    tag_15:\n      tag_72\n      0x04\n      dup1\n      calldatasize\n      sub\n      dup2\n      add\n      swap1\n      tag_73\n      swap2\n      swap1\n      tag_30\n      jump\t// in\n    tag_73:\n      tag_74\n      jump\t// in\n    tag_72:\n      stop\n        /* \"userfrontend/contracts/ERC20subscription.sol\":3524:3644  function ForceMint(address _useraddress, uint256 amount) public onlyOwner {... */\n    tag_16:\n      tag_75\n      0x04\n      dup1\n      calldatasize\n      sub\n      dup2\n      add\n      swap1\n      tag_76\n      swap2\n      swap1\n      tag_30\n      jump\t// in\n    tag_76:\n      tag_77\n      jump\t// in\n    tag_75:\n      stop\n        /* \"userfrontend/contracts/ERC20subscription.sol\":3291:3391  function getDocumentURI() public view returns (string memory) {... */\n    tag_17:\n      tag_78\n      tag_79\n      jump\t// in\n    tag_78:\n      mload(0x40)\n      tag_80\n      swap2\n      swap1\n      tag_27\n      jump\t// in\n    tag_80:\n      mload(0x40)\n      dup1\n      swap2\n      sub\n      swap1\n      return\n        /* \"userfrontend/contracts/ERC20subscription.sol\":2514:2602  function getLockTime() public view returns (uint256) {... */\n    tag_18:\n      tag_81\n      tag_82\n      jump\t// in\n    tag_81:\n      mload(0x40)\n      tag_83\n      swap2\n      swap1\n      tag_41\n      jump\t// in\n    tag_83:\n      mload(0x40)\n      dup1\n      swap2\n      sub\n      swap1\n      return\n        /* \"userfrontend/node_modules/@openzeppelin/contracts/token/ERC20/ERC20.sol\":3846:3986  function allowance(address owner, address spender) public view virtual returns (uint256) {... */\n    tag_19:\n      tag_84\n      0x04\n      dup1\n      calldatasize\n      sub\n      dup2\n      add\n      swap1\n      tag_85\n      swap2\n      swap1\n      tag_86\n      jump\t// in\n    tag_85:\n      tag_87\n      jump\t// in\n    tag_84:\n      mload(0x40)\n      tag_88\n      swap2\n      swap1\n      tag_41\n      jump\t// in\n    tag_88:\n      mload(0x40)\n      dup1\n      swap2\n      sub\n      swap1\n      return\n        /* \"userfrontend/node_modules/@openzeppelin/contracts/access/Ownable.sol\":2543:2758  function transferOwnership(address newOwner) public virtual onlyOwner {... */\n    tag_20:\n      tag_89\n      0x04\n      dup1\n      calldatasize\n      sub\n      dup2\n      add\n      swap1\n      tag_90\n      swap2\n      swap1\n      tag_53\n      jump\t// in\n    tag_90:\n      tag_91\n      jump\t// in\n    tag_89:\n      stop\n        /* \"userfrontend/node_modules/@openzeppelin/contracts/token/ERC20/ERC20.sol\":2074:2163  function name() public view virtual returns (string memory) {... */\n    tag_25:\n        /* \"userfrontend/node_modules/@openzeppelin/contracts/token/ERC20/ERC20.sol\":2119:2132  string memory */\n      0x60\n        /* \"userfrontend/node_modules/@openzeppelin/contracts/token/ERC20/ERC20.sol\":2151:2156  _name */\n      0x03\n        /* \"userfrontend/node_modules/@openzeppelin/contracts/token/ERC20/ERC20.sol\":2144:2156  return _name */\n      dup1\n      sload\n      tag_93\n      swap1\n      tag_94\n      jump\t// in\n    tag_93:\n      dup1\n      0x1f\n      add\n      0x20\n      dup1\n      swap2\n      div\n      mul\n      0x20\n      add\n      mload(0x40)\n      swap1\n      dup2\n      add\n      0x40\n      mstore\n      dup1\n      swap3\n      swap2\n      swap1\n      dup2\n      dup2\n      mstore\n      0x20\n      add\n      dup3\n      dup1\n      sload\n      tag_95\n      swap1\n      tag_94\n      jump\t// in\n    tag_95:\n      dup1\n      iszero\n      tag_96\n      jumpi\n      dup1\n      0x1f\n      lt\n      tag_97\n      jumpi\n      0x0100\n      dup1\n      dup4\n      sload\n      div\n      mul\n      dup4\n      mstore\n      swap2\n      0x20\n      add\n      swap2\n      jump(tag_96)\n    tag_97:\n      dup3\n      add\n      swap2\n      swap1\n      0x00\n      mstore\n      keccak256(0x00, 0x20)\n      swap1\n    tag_98:\n      dup2\n      sload\n      dup2\n      mstore\n      swap1\n      0x01\n      add\n      swap1\n      0x20\n      add\n      dup1\n      dup4\n      gt\n      tag_98\n      jumpi\n      dup3\n      swap1\n      sub\n      0x1f\n      and\n      dup3\n      add\n      swap2\n    tag_96:\n      pop\n      pop\n      pop\n      pop\n      pop\n      swap1\n      pop\n        /* \"userfrontend/node_modules/@openzeppelin/contracts/token/ERC20/ERC20.sol\":2074:2163  function name() public view virtual returns (string memory) {... */\n      swap1\n      jump\t// out\n        /* \"userfrontend/node_modules/@openzeppelin/contracts/token/ERC20/ERC20.sol\":4293:4479  function approve(address spender, uint256 value) public virtual returns (bool) {... */\n    tag_31:\n        /* \"userfrontend/node_modules/@openzeppelin/contracts/token/ERC20/ERC20.sol\":4366:4370  bool */\n      0x00\n        /* \"userfrontend/node_modules/@openzeppelin/contracts/token/ERC20/ERC20.sol\":4382:4395  address owner */\n      dup1\n        /* \"userfrontend/node_modules/@openzeppelin/contracts/token/ERC20/ERC20.sol\":4398:4410  _msgSender() */\n      tag_100\n        /* \"userfrontend/node_modules/@openzeppelin/contracts/token/ERC20/ERC20.sol\":4398:4408  _msgSender */\n      tag_101\n        /* \"userfrontend/node_modules/@openzeppelin/contracts/token/ERC20/ERC20.sol\":4398:4410  _msgSender() */\n      jump\t// in\n    tag_100:\n        /* \"userfrontend/node_modules/@openzeppelin/contracts/token/ERC20/ERC20.sol\":4382:4410  address owner = _msgSender() */\n      swap1\n      pop\n        /* \"userfrontend/node_modules/@openzeppelin/contracts/token/ERC20/ERC20.sol\":4420:4451  _approve(owner, spender, value) */\n      tag_102\n        /* \"userfrontend/node_modules/@openzeppelin/contracts/token/ERC20/ERC20.sol\":4429:4434  owner */\n      dup2\n        /* \"userfrontend/node_modules/@openzeppelin/contracts/token/ERC20/ERC20.sol\":4436:4443  spender */\n      dup6\n        /* \"userfrontend/node_modules/@openzeppelin/contracts/token/ERC20/ERC20.sol\":4445:4450  value */\n      dup6\n        /* \"userfrontend/node_modules/@openzeppelin/contracts/token/ERC20/ERC20.sol\":4420:4428  _approve */\n      tag_103\n        /* \"userfrontend/node_modules/@openzeppelin/contracts/token/ERC20/ERC20.sol\":4420:4451  _approve(owner, spender, value) */\n      jump\t// in\n    tag_102:\n        /* \"userfrontend/node_modules/@openzeppelin/contracts/token/ERC20/ERC20.sol\":4468:4472  true */\n      0x01\n        /* \"userfrontend/node_modules/@openzeppelin/contracts/token/ERC20/ERC20.sol\":4461:4472  return true */\n      swap2\n      pop\n      pop\n        /* \"userfrontend/node_modules/@openzeppelin/contracts/token/ERC20/ERC20.sol\":4293:4479  function approve(address spender, uint256 value) public virtual returns (bool) {... */\n      swap3\n      swap2\n      pop\n      pop\n      jump\t// out\n        /* \"userfrontend/contracts/ERC20subscription.sol\":3399:3516  function setDocumentURI (string memory __documentURI) public onlyOwner{... */\n    tag_37:\n        /* \"userfrontend/node_modules/@openzeppelin/contracts/access/Ownable.sol\":1531:1544  _checkOwner() */\n      tag_105\n        /* \"userfrontend/node_modules/@openzeppelin/contracts/access/Ownable.sol\":1531:1542  _checkOwner */\n      tag_106\n        /* \"userfrontend/node_modules/@openzeppelin/contracts/access/Ownable.sol\":1531:1544  _checkOwner() */\n      jump\t// in\n    tag_105:\n        /* \"userfrontend/contracts/ERC20subscription.sol\":3495:3508  __documentURI */\n      dup1\n        /* \"userfrontend/contracts/ERC20subscription.sol\":3480:3492  _documentURI */\n      0x0a\n        /* \"userfrontend/contracts/ERC20subscription.sol\":3480:3508  _documentURI = __documentURI */\n      swap1\n      dup2\n      tag_108\n      swap2\n      swap1\n      tag_109\n      jump\t// in\n    tag_108:\n      pop\n        /* \"userfrontend/contracts/ERC20subscription.sol\":3399:3516  function setDocumentURI (string memory __documentURI) public onlyOwner{... */\n      pop\n      jump\t// out\n        /* \"userfrontend/node_modules/@openzeppelin/contracts/token/ERC20/ERC20.sol\":3144:3241  function totalSupply() public view virtual returns (uint256) {... */\n    tag_39:\n        /* \"userfrontend/node_modules/@openzeppelin/contracts/token/ERC20/ERC20.sol\":3196:3203  uint256 */\n      0x00\n        /* \"userfrontend/node_modules/@openzeppelin/contracts/token/ERC20/ERC20.sol\":3222:3234  _totalSupply */\n      sload(0x02)\n        /* \"userfrontend/node_modules/@openzeppelin/contracts/token/ERC20/ERC20.sol\":3215:3234  return _totalSupply */\n      swap1\n      pop\n        /* \"userfrontend/node_modules/@openzeppelin/contracts/token/ERC20/ERC20.sol\":3144:3241  function totalSupply() public view virtual returns (uint256) {... */\n      swap1\n      jump\t// out\n        /* \"userfrontend/contracts/ERC20subscription.sol\":2610:3283  function transferFrom(... */\n    tag_45:\n        /* \"userfrontend/contracts/ERC20subscription.sol\":2730:2734  bool */\n      0x00\n        /* \"userfrontend/contracts/ERC20subscription.sol\":2759:2766  owner() */\n      tag_112\n        /* \"userfrontend/contracts/ERC20subscription.sol\":2759:2764  owner */\n      tag_59\n        /* \"userfrontend/contracts/ERC20subscription.sol\":2759:2766  owner() */\n      jump\t// in\n    tag_112:\n        /* \"userfrontend/contracts/ERC20subscription.sol\":2751:2766  from == owner() */\n      0xffffffffffffffffffffffffffffffffffffffff\n      and\n        /* \"userfrontend/contracts/ERC20subscription.sol\":2751:2755  from */\n      dup5\n        /* \"userfrontend/contracts/ERC20subscription.sol\":2751:2766  from == owner() */\n      0xffffffffffffffffffffffffffffffffffffffff\n      and\n      sub\n        /* \"userfrontend/contracts/ERC20subscription.sol\":2747:3006  if (from == owner()) {... */\n      tag_113\n      jumpi\n        /* \"userfrontend/contracts/ERC20subscription.sol\":2828:2842  _adminLockTime */\n      sload(0x09)\n        /* \"userfrontend/contracts/ERC20subscription.sol\":2809:2824  block.timestamp */\n      timestamp\n        /* \"userfrontend/contracts/ERC20subscription.sol\":2809:2842  block.timestamp >= _adminLockTime */\n      lt\n      iszero\n        /* \"userfrontend/contracts/ERC20subscription.sol\":2783:2903  require(... */\n      tag_114\n      jumpi\n      mload(0x40)\n      0x08c379a000000000000000000000000000000000000000000000000000000000\n      dup2\n      mstore\n      0x04\n      add\n      tag_115\n      swap1\n      tag_116\n      jump\t// in\n    tag_115:\n      mload(0x40)\n      dup1\n      swap2\n      sub\n      swap1\n      revert\n    tag_114:\n        /* \"userfrontend/contracts/ERC20subscription.sol\":2747:3006  if (from == owner()) {... */\n      jump(tag_117)\n    tag_113:\n        /* \"userfrontend/contracts/ERC20subscription.sol\":2963:2972  _lockTime */\n      sload(0x08)\n        /* \"userfrontend/contracts/ERC20subscription.sol\":2944:2959  block.timestamp */\n      timestamp\n        /* \"userfrontend/contracts/ERC20subscription.sol\":2944:2972  block.timestamp >= _lockTime */\n      lt\n      iszero\n        /* \"userfrontend/contracts/ERC20subscription.sol\":2936:2994  require(block.timestamp >= _lockTime, \"Tokens are locked\") */\n      tag_118\n      jumpi\n      mload(0x40)\n      0x08c379a000000000000000000000000000000000000000000000000000000000\n      dup2\n      mstore\n      0x04\n      add\n      tag_119\n      swap1\n      tag_120\n      jump\t// in\n    tag_119:\n      mload(0x40)\n      dup1\n      swap2\n      sub\n      swap1\n      revert\n    tag_118:\n        /* \"userfrontend/contracts/ERC20subscription.sol\":2747:3006  if (from == owner()) {... */\n    tag_117:\n        /* \"userfrontend/contracts/ERC20subscription.sol\":3016:3039  uint256 newTotalBalance */\n      0x00\n        /* \"userfrontend/contracts/ERC20subscription.sol\":3058:3064  amount */\n      dup3\n        /* \"userfrontend/contracts/ERC20subscription.sol\":3042:3055  balanceOf(to) */\n      tag_121\n        /* \"userfrontend/contracts/ERC20subscription.sol\":3052:3054  to */\n      dup6\n        /* \"userfrontend/contracts/ERC20subscription.sol\":3042:3051  balanceOf */\n      tag_54\n        /* \"userfrontend/contracts/ERC20subscription.sol\":3042:3055  balanceOf(to) */\n      jump\t// in\n    tag_121:\n        /* \"userfrontend/contracts/ERC20subscription.sol\":3042:3064  balanceOf(to) + amount */\n      tag_122\n      swap2\n      swap1\n      tag_123\n      jump\t// in\n    tag_122:\n        /* \"userfrontend/contracts/ERC20subscription.sol\":3016:3064  uint256 newTotalBalance = balanceOf(to) + amount */\n      swap1\n      pop\n        /* \"userfrontend/contracts/ERC20subscription.sol\":3138:3141  100 */\n      0x64\n        /* \"userfrontend/contracts/ERC20subscription.sol\":3121:3134  totalSupply() */\n      tag_124\n        /* \"userfrontend/contracts/ERC20subscription.sol\":3121:3132  totalSupply */\n      tag_39\n        /* \"userfrontend/contracts/ERC20subscription.sol\":3121:3134  totalSupply() */\n      jump\t// in\n    tag_124:\n        /* \"userfrontend/contracts/ERC20subscription.sol\":3116:3118  20 */\n      0x14\n        /* \"userfrontend/contracts/ERC20subscription.sol\":3116:3134  20 * totalSupply() */\n      tag_125\n      swap2\n      swap1\n      tag_126\n      jump\t// in\n    tag_125:\n        /* \"userfrontend/contracts/ERC20subscription.sol\":3115:3141  (20 * totalSupply()) / 100 */\n      tag_127\n      swap2\n      swap1\n      tag_128\n      jump\t// in\n    tag_127:\n        /* \"userfrontend/contracts/ERC20subscription.sol\":3097:3112  newTotalBalance */\n      dup2\n        /* \"userfrontend/contracts/ERC20subscription.sol\":3097:3141  newTotalBalance < (20 * totalSupply()) / 100 */\n      lt\n        /* \"userfrontend/contracts/ERC20subscription.sol\":3075:3219  require(... */\n      tag_129\n      jumpi\n      mload(0x40)\n      0x08c379a000000000000000000000000000000000000000000000000000000000\n      dup2\n      mstore\n      0x04\n      add\n      tag_130\n      swap1\n      tag_131\n      jump\t// in\n    tag_130:\n      mload(0x40)\n      dup1\n      swap2\n      sub\n      swap1\n      revert\n    tag_129:\n        /* \"userfrontend/contracts/ERC20subscription.sol\":3239:3275  super.transferFrom(from, to, amount) */\n      tag_132\n        /* \"userfrontend/contracts/ERC20subscription.sol\":3258:3262  from */\n      dup6\n        /* \"userfrontend/contracts/ERC20subscription.sol\":3264:3266  to */\n      dup6\n        /* \"userfrontend/contracts/ERC20subscription.sol\":3268:3274  amount */\n      dup6\n        /* \"userfrontend/contracts/ERC20subscription.sol\":3239:3257  super.transferFrom */\n      tag_133\n        /* \"userfrontend/contracts/ERC20subscription.sol\":3239:3275  super.transferFrom(from, to, amount) */\n      jump\t// in\n    tag_132:\n        /* \"userfrontend/contracts/ERC20subscription.sol\":3232:3275  return super.transferFrom(from, to, amount) */\n      swap2\n      pop\n      pop\n        /* \"userfrontend/contracts/ERC20subscription.sol\":2610:3283  function transferFrom(... */\n      swap4\n      swap3\n      pop\n      pop\n      pop\n      jump\t// out\n        /* \"userfrontend/contracts/ERC20subscription.sol\":1956:2040  function decimals() public pure override returns (uint8) {... */\n    tag_48:\n        /* \"userfrontend/contracts/ERC20subscription.sol\":2006:2011  uint8 */\n      0x00\n        /* \"userfrontend/contracts/ERC20subscription.sol\":1956:2040  function decimals() public pure override returns (uint8) {... */\n      swap1\n      jump\t// out\n        /* \"userfrontend/node_modules/@openzeppelin/contracts/token/ERC20/ERC20.sol\":3299:3415  function balanceOf(address account) public view virtual returns (uint256) {... */\n    tag_54:\n        /* \"userfrontend/node_modules/@openzeppelin/contracts/token/ERC20/ERC20.sol\":3364:3371  uint256 */\n      0x00\n        /* \"userfrontend/node_modules/@openzeppelin/contracts/token/ERC20/ERC20.sol\":3390:3399  _balances */\n      dup1\n        /* \"userfrontend/node_modules/@openzeppelin/contracts/token/ERC20/ERC20.sol\":3390:3408  _balances[account] */\n      0x00\n        /* \"userfrontend/node_modules/@openzeppelin/contracts/token/ERC20/ERC20.sol\":3400:3407  account */\n      dup4\n        /* \"userfrontend/node_modules/@openzeppelin/contracts/token/ERC20/ERC20.sol\":3390:3408  _balances[account] */\n      0xffffffffffffffffffffffffffffffffffffffff\n      and\n      0xffffffffffffffffffffffffffffffffffffffff\n      and\n      dup2\n      mstore\n      0x20\n      add\n      swap1\n      dup2\n      mstore\n      0x20\n      add\n      0x00\n      keccak256\n      sload\n        /* \"userfrontend/node_modules/@openzeppelin/contracts/token/ERC20/ERC20.sol\":3383:3408  return _balances[account] */\n      swap1\n      pop\n        /* \"userfrontend/node_modules/@openzeppelin/contracts/token/ERC20/ERC20.sol\":3299:3415  function balanceOf(address account) public view virtual returns (uint256) {... */\n      swap2\n      swap1\n      pop\n      jump\t// out\n        /* \"userfrontend/node_modules/@openzeppelin/contracts/access/Ownable.sol\":2293:2394  function renounceOwnership() public virtual onlyOwner {... */\n    tag_57:\n        /* \"userfrontend/node_modules/@openzeppelin/contracts/access/Ownable.sol\":1531:1544  _checkOwner() */\n      tag_137\n        /* \"userfrontend/node_modules/@openzeppelin/contracts/access/Ownable.sol\":1531:1542  _checkOwner */\n      tag_106\n        /* \"userfrontend/node_modules/@openzeppelin/contracts/access/Ownable.sol\":1531:1544  _checkOwner() */\n      jump\t// in\n    tag_137:\n        /* \"userfrontend/node_modules/@openzeppelin/contracts/access/Ownable.sol\":2357:2387  _transferOwnership(address(0)) */\n      tag_139\n        /* \"userfrontend/node_modules/@openzeppelin/contracts/access/Ownable.sol\":2384:2385  0 */\n      0x00\n        /* \"userfrontend/node_modules/@openzeppelin/contracts/access/Ownable.sol\":2357:2375  _transferOwnership */\n      tag_140\n        /* \"userfrontend/node_modules/@openzeppelin/contracts/access/Ownable.sol\":2357:2387  _transferOwnership(address(0)) */\n      jump\t// in\n    tag_139:\n        /* \"userfrontend/node_modules/@openzeppelin/contracts/access/Ownable.sol\":2293:2394  function renounceOwnership() public virtual onlyOwner {... */\n      jump\t// out\n        /* \"userfrontend/node_modules/@openzeppelin/contracts/access/Ownable.sol\":1638:1723  function owner() public view virtual returns (address) {... */\n    tag_59:\n        /* \"userfrontend/node_modules/@openzeppelin/contracts/access/Ownable.sol\":1684:1691  address */\n      0x00\n        /* \"userfrontend/node_modules/@openzeppelin/contracts/access/Ownable.sol\":1710:1716  _owner */\n      0x05\n      0x00\n      swap1\n      sload\n      swap1\n      0x0100\n      exp\n      swap1\n      div\n      0xffffffffffffffffffffffffffffffffffffffff\n      and\n        /* \"userfrontend/node_modules/@openzeppelin/contracts/access/Ownable.sol\":1703:1716  return _owner */\n      swap1\n      pop\n        /* \"userfrontend/node_modules/@openzeppelin/contracts/access/Ownable.sol\":1638:1723  function owner() public view virtual returns (address) {... */\n      swap1\n      jump\t// out\n        /* \"userfrontend/node_modules/@openzeppelin/contracts/token/ERC20/ERC20.sol\":2276:2369  function symbol() public view virtual returns (string memory) {... */\n    tag_63:\n        /* \"userfrontend/node_modules/@openzeppelin/contracts/token/ERC20/ERC20.sol\":2323:2336  string memory */\n      0x60\n        /* \"userfrontend/node_modules/@openzeppelin/contracts/token/ERC20/ERC20.sol\":2355:2362  _symbol */\n      0x04\n        /* \"userfrontend/node_modules/@openzeppelin/contracts/token/ERC20/ERC20.sol\":2348:2362  return _symbol */\n      dup1\n      sload\n      tag_143\n      swap1\n      tag_94\n      jump\t// in\n    tag_143:\n      dup1\n      0x1f\n      add\n      0x20\n      dup1\n      swap2\n      div\n      mul\n      0x20\n      add\n      mload(0x40)\n      swap1\n      dup2\n      add\n      0x40\n      mstore\n      dup1\n      swap3\n      swap2\n      swap1\n      dup2\n      dup2\n      mstore\n      0x20\n      add\n      dup3\n      dup1\n      sload\n      tag_144\n      swap1\n      tag_94\n      jump\t// in\n    tag_144:\n      dup1\n      iszero\n      tag_145\n      jumpi\n      dup1\n      0x1f\n      lt\n      tag_146\n      jumpi\n      0x0100\n      dup1\n      dup4\n      sload\n      div\n      mul\n      dup4\n      mstore\n      swap2\n      0x20\n      add\n      swap2\n      jump(tag_145)\n    tag_146:\n      dup3\n      add\n      swap2\n      swap1\n      0x00\n      mstore\n      keccak256(0x00, 0x20)\n      swap1\n    tag_147:\n      dup2\n      sload\n      dup2\n      mstore\n      swap1\n      0x01\n      add\n      swap1\n      0x20\n      add\n      dup1\n      dup4\n      gt\n      tag_147\n      jumpi\n      dup3\n      swap1\n      sub\n      0x1f\n      and\n      dup3\n      add\n      swap2\n    tag_145:\n      pop\n      pop\n      pop\n      pop\n      pop\n      swap1\n      pop\n        /* \"userfrontend/node_modules/@openzeppelin/contracts/token/ERC20/ERC20.sol\":2276:2369  function symbol() public view virtual returns (string memory) {... */\n      swap1\n      jump\t// out\n        /* \"userfrontend/contracts/ERC20subscription.sol\":360:389  uint256 public _adminLockTime */\n    tag_66:\n      sload(0x09)\n      dup2\n      jump\t// out\n        /* \"userfrontend/contracts/ERC20subscription.sol\":2048:2506  function transfer(... */\n    tag_70:\n        /* \"userfrontend/contracts/ERC20subscription.sol\":2158:2162  bool */\n      0x00\n        /* \"userfrontend/contracts/ERC20subscription.sol\":520:527  owner() */\n      tag_149\n        /* \"userfrontend/contracts/ERC20subscription.sol\":520:525  owner */\n      tag_59\n        /* \"userfrontend/contracts/ERC20subscription.sol\":520:527  owner() */\n      jump\t// in\n    tag_149:\n        /* \"userfrontend/contracts/ERC20subscription.sol\":506:527  msg.sender == owner() */\n      0xffffffffffffffffffffffffffffffffffffffff\n      and\n        /* \"userfrontend/contracts/ERC20subscription.sol\":506:516  msg.sender */\n      caller\n        /* \"userfrontend/contracts/ERC20subscription.sol\":506:527  msg.sender == owner() */\n      0xffffffffffffffffffffffffffffffffffffffff\n      and\n      sub\n        /* \"userfrontend/contracts/ERC20subscription.sol\":502:688  if (msg.sender == owner()) {... */\n      tag_150\n      jumpi\n        /* \"userfrontend/contracts/ERC20subscription.sol\":589:603  _adminLockTime */\n      sload(0x09)\n        /* \"userfrontend/contracts/ERC20subscription.sol\":570:585  block.timestamp */\n      timestamp\n        /* \"userfrontend/contracts/ERC20subscription.sol\":570:603  block.timestamp >= _adminLockTime */\n      lt\n      iszero\n        /* \"userfrontend/contracts/ERC20subscription.sol\":544:676  require(... */\n      tag_151\n      jumpi\n      mload(0x40)\n      0x08c379a000000000000000000000000000000000000000000000000000000000\n      dup2\n      mstore\n      0x04\n      add\n      tag_152\n      swap1\n      tag_153\n      jump\t// in\n    tag_152:\n      mload(0x40)\n      dup1\n      swap2\n      sub\n      swap1\n      revert\n    tag_151:\n        /* \"userfrontend/contracts/ERC20subscription.sol\":502:688  if (msg.sender == owner()) {... */\n    tag_150:\n        /* \"userfrontend/contracts/ERC20subscription.sol\":725:734  _lockTime */\n      sload(0x08)\n        /* \"userfrontend/contracts/ERC20subscription.sol\":706:721  block.timestamp */\n      timestamp\n        /* \"userfrontend/contracts/ERC20subscription.sol\":706:734  block.timestamp >= _lockTime */\n      lt\n      iszero\n        /* \"userfrontend/contracts/ERC20subscription.sol\":698:755  require(block.timestamp >= _lockTime, \"not for sale yet\") */\n      tag_154\n      jumpi\n      mload(0x40)\n      0x08c379a000000000000000000000000000000000000000000000000000000000\n      dup2\n      mstore\n      0x04\n      add\n      tag_155\n      swap1\n      tag_156\n      jump\t// in\n    tag_155:\n      mload(0x40)\n      dup1\n      swap2\n      sub\n      swap1\n      revert\n    tag_154:\n        /* \"userfrontend/contracts/ERC20subscription.sol\":2175:2198  uint256 newTotalBalance */\n      0x00\n        /* \"userfrontend/contracts/ERC20subscription.sol\":2217:2223  amount */\n      dup3\n        /* \"userfrontend/contracts/ERC20subscription.sol\":2201:2214  balanceOf(to) */\n      tag_158\n        /* \"userfrontend/contracts/ERC20subscription.sol\":2211:2213  to */\n      dup6\n        /* \"userfrontend/contracts/ERC20subscription.sol\":2201:2210  balanceOf */\n      tag_54\n        /* \"userfrontend/contracts/ERC20subscription.sol\":2201:2214  balanceOf(to) */\n      jump\t// in\n    tag_158:\n        /* \"userfrontend/contracts/ERC20subscription.sol\":2201:2223  balanceOf(to) + amount */\n      tag_159\n      swap2\n      swap1\n      tag_123\n      jump\t// in\n    tag_159:\n        /* \"userfrontend/contracts/ERC20subscription.sol\":2175:2223  uint256 newTotalBalance = balanceOf(to) + amount */\n      swap1\n      pop\n        /* \"userfrontend/contracts/ERC20subscription.sol\":2297:2300  100 */\n      0x64\n        /* \"userfrontend/contracts/ERC20subscription.sol\":2280:2293  totalSupply() */\n      tag_160\n        /* \"userfrontend/contracts/ERC20subscription.sol\":2280:2291  totalSupply */\n      tag_39\n        /* \"userfrontend/contracts/ERC20subscription.sol\":2280:2293  totalSupply() */\n      jump\t// in\n    tag_160:\n        /* \"userfrontend/contracts/ERC20subscription.sol\":2275:2277  20 */\n      0x14\n        /* \"userfrontend/contracts/ERC20subscription.sol\":2275:2293  20 * totalSupply() */\n      tag_161\n      swap2\n      swap1\n      tag_126\n      jump\t// in\n    tag_161:\n        /* \"userfrontend/contracts/ERC20subscription.sol\":2274:2300  (20 * totalSupply()) / 100 */\n      tag_162\n      swap2\n      swap1\n      tag_128\n      jump\t// in\n    tag_162:\n        /* \"userfrontend/contracts/ERC20subscription.sol\":2256:2271  newTotalBalance */\n      dup2\n        /* \"userfrontend/contracts/ERC20subscription.sol\":2256:2300  newTotalBalance < (20 * totalSupply()) / 100 */\n      lt\n        /* \"userfrontend/contracts/ERC20subscription.sol\":2234:2378  require(... */\n      tag_163\n      jumpi\n      mload(0x40)\n      0x08c379a000000000000000000000000000000000000000000000000000000000\n      dup2\n      mstore\n      0x04\n      add\n      tag_164\n      swap1\n      tag_131\n      jump\t// in\n    tag_164:\n      mload(0x40)\n      dup1\n      swap2\n      sub\n      swap1\n      revert\n    tag_163:\n        /* \"userfrontend/contracts/ERC20subscription.sol\":2396:2452  TransferWithSymbol(msg.sender, to, amount, _tokenSymbol) */\n      0x8519cdb8ad47f1f5f5bc583d2063d1fc1ffed7dac0cab9e8b1f6492aa60cbd7f\n        /* \"userfrontend/contracts/ERC20subscription.sol\":2415:2425  msg.sender */\n      caller\n        /* \"userfrontend/contracts/ERC20subscription.sol\":2427:2429  to */\n      dup6\n        /* \"userfrontend/contracts/ERC20subscription.sol\":2431:2437  amount */\n      dup6\n        /* \"userfrontend/contracts/ERC20subscription.sol\":2439:2451  _tokenSymbol */\n      0x0b\n        /* \"userfrontend/contracts/ERC20subscription.sol\":2396:2452  TransferWithSymbol(msg.sender, to, amount, _tokenSymbol) */\n      mload(0x40)\n      tag_165\n      swap5\n      swap4\n      swap3\n      swap2\n      swap1\n      tag_166\n      jump\t// in\n    tag_165:\n      mload(0x40)\n      dup1\n      swap2\n      sub\n      swap1\n      log1\n        /* \"userfrontend/contracts/ERC20subscription.sol\":2472:2498  super.transfer(to, amount) */\n      tag_167\n        /* \"userfrontend/contracts/ERC20subscription.sol\":2487:2489  to */\n      dup5\n        /* \"userfrontend/contracts/ERC20subscription.sol\":2491:2497  amount */\n      dup5\n        /* \"userfrontend/contracts/ERC20subscription.sol\":2472:2486  super.transfer */\n      tag_168\n        /* \"userfrontend/contracts/ERC20subscription.sol\":2472:2498  super.transfer(to, amount) */\n      jump\t// in\n    tag_167:\n        /* \"userfrontend/contracts/ERC20subscription.sol\":2465:2498  return super.transfer(to, amount) */\n      swap2\n      pop\n      pop\n        /* \"userfrontend/contracts/ERC20subscription.sol\":2048:2506  function transfer(... */\n      swap3\n      swap2\n      pop\n      pop\n      jump\t// out\n        /* \"userfrontend/contracts/ERC20subscription.sol\":3652:3772  function ForceBurn(address _useraddress, uint256 amount) public onlyOwner {... */\n    tag_74:\n        /* \"userfrontend/node_modules/@openzeppelin/contracts/access/Ownable.sol\":1531:1544  _checkOwner() */\n      tag_170\n        /* \"userfrontend/node_modules/@openzeppelin/contracts/access/Ownable.sol\":1531:1542  _checkOwner */\n      tag_106\n        /* \"userfrontend/node_modules/@openzeppelin/contracts/access/Ownable.sol\":1531:1544  _checkOwner() */\n      jump\t// in\n    tag_170:\n        /* \"userfrontend/contracts/ERC20subscription.sol\":3737:3764  _burn(_useraddress, amount) */\n      tag_172\n        /* \"userfrontend/contracts/ERC20subscription.sol\":3743:3755  _useraddress */\n      dup3\n        /* \"userfrontend/contracts/ERC20subscription.sol\":3757:3763  amount */\n      dup3\n        /* \"userfrontend/contracts/ERC20subscription.sol\":3737:3742  _burn */\n      tag_173\n        /* \"userfrontend/contracts/ERC20subscription.sol\":3737:3764  _burn(_useraddress, amount) */\n      jump\t// in\n    tag_172:\n        /* \"userfrontend/contracts/ERC20subscription.sol\":3652:3772  function ForceBurn(address _useraddress, uint256 amount) public onlyOwner {... */\n      pop\n      pop\n      jump\t// out\n        /* \"userfrontend/contracts/ERC20subscription.sol\":3524:3644  function ForceMint(address _useraddress, uint256 amount) public onlyOwner {... */\n    tag_77:\n        /* \"userfrontend/node_modules/@openzeppelin/contracts/access/Ownable.sol\":1531:1544  _checkOwner() */\n      tag_175\n        /* \"userfrontend/node_modules/@openzeppelin/contracts/access/Ownable.sol\":1531:1542  _checkOwner */\n      tag_106\n        /* \"userfrontend/node_modules/@openzeppelin/contracts/access/Ownable.sol\":1531:1544  _checkOwner() */\n      jump\t// in\n    tag_175:\n        /* \"userfrontend/contracts/ERC20subscription.sol\":3609:3636  _mint(_useraddress, amount) */\n      tag_177\n        /* \"userfrontend/contracts/ERC20subscription.sol\":3615:3627  _useraddress */\n      dup3\n        /* \"userfrontend/contracts/ERC20subscription.sol\":3629:3635  amount */\n      dup3\n        /* \"userfrontend/contracts/ERC20subscription.sol\":3609:3614  _mint */\n      tag_178\n        /* \"userfrontend/contracts/ERC20subscription.sol\":3609:3636  _mint(_useraddress, amount) */\n      jump\t// in\n    tag_177:\n        /* \"userfrontend/contracts/ERC20subscription.sol\":3524:3644  function ForceMint(address _useraddress, uint256 amount) public onlyOwner {... */\n      pop\n      pop\n      jump\t// out\n        /* \"userfrontend/contracts/ERC20subscription.sol\":3291:3391  function getDocumentURI() public view returns (string memory) {... */\n    tag_79:\n        /* \"userfrontend/contracts/ERC20subscription.sol\":3338:3351  string memory */\n      0x60\n        /* \"userfrontend/contracts/ERC20subscription.sol\":3371:3383  _documentURI */\n      0x0a\n        /* \"userfrontend/contracts/ERC20subscription.sol\":3364:3383  return _documentURI */\n      dup1\n      sload\n      tag_180\n      swap1\n      tag_94\n      jump\t// in\n    tag_180:\n      dup1\n      0x1f\n      add\n      0x20\n      dup1\n      swap2\n      div\n      mul\n      0x20\n      add\n      mload(0x40)\n      swap1\n      dup2\n      add\n      0x40\n      mstore\n      dup1\n      swap3\n      swap2\n      swap1\n      dup2\n      dup2\n      mstore\n      0x20\n      add\n      dup3\n      dup1\n      sload\n      tag_181\n      swap1\n      tag_94\n      jump\t// in\n    tag_181:\n      dup1\n      iszero\n      tag_182\n      jumpi\n      dup1\n      0x1f\n      lt\n      tag_183\n      jumpi\n      0x0100\n      dup1\n      dup4\n      sload\n      div\n      mul\n      dup4\n      mstore\n      swap2\n      0x20\n      add\n      swap2\n      jump(tag_182)\n    tag_183:\n      dup3\n      add\n      swap2\n      swap1\n      0x00\n      mstore\n      keccak256(0x00, 0x20)\n      swap1\n    tag_184:\n      dup2\n      sload\n      dup2\n      mstore\n      swap1\n      0x01\n      add\n      swap1\n      0x20\n      add\n      dup1\n      dup4\n      gt\n      tag_184\n      jumpi\n      dup3\n      swap1\n      sub\n      0x1f\n      and\n      dup3\n      add\n      swap2\n    tag_182:\n      pop\n      pop\n      pop\n      pop\n      pop\n      swap1\n      pop\n        /* \"userfrontend/contracts/ERC20subscription.sol\":3291:3391  function getDocumentURI() public view returns (string memory) {... */\n      swap1\n      jump\t// out\n        /* \"userfrontend/contracts/ERC20subscription.sol\":2514:2602  function getLockTime() public view returns (uint256) {... */\n    tag_82:\n        /* \"userfrontend/contracts/ERC20subscription.sol\":2558:2565  uint256 */\n      0x00\n        /* \"userfrontend/contracts/ERC20subscription.sol\":2585:2594  _lockTime */\n      sload(0x08)\n        /* \"userfrontend/contracts/ERC20subscription.sol\":2578:2594  return _lockTime */\n      swap1\n      pop\n        /* \"userfrontend/contracts/ERC20subscription.sol\":2514:2602  function getLockTime() public view returns (uint256) {... */\n      swap1\n      jump\t// out\n        /* \"userfrontend/node_modules/@openzeppelin/contracts/token/ERC20/ERC20.sol\":3846:3986  function allowance(address owner, address spender) public view virtual returns (uint256) {... */\n    tag_87:\n        /* \"userfrontend/node_modules/@openzeppelin/contracts/token/ERC20/ERC20.sol\":3926:3933  uint256 */\n      0x00\n        /* \"userfrontend/node_modules/@openzeppelin/contracts/token/ERC20/ERC20.sol\":3952:3963  _allowances */\n      0x01\n        /* \"userfrontend/node_modules/@openzeppelin/contracts/token/ERC20/ERC20.sol\":3952:3970  _allowances[owner] */\n      0x00\n        /* \"userfrontend/node_modules/@openzeppelin/contracts/token/ERC20/ERC20.sol\":3964:3969  owner */\n      dup5\n        /* \"userfrontend/node_modules/@openzeppelin/contracts/token/ERC20/ERC20.sol\":3952:3970  _allowances[owner] */\n      0xffffffffffffffffffffffffffffffffffffffff\n      and\n      0xffffffffffffffffffffffffffffffffffffffff\n      and\n      dup2\n      mstore\n      0x20\n      add\n      swap1\n      dup2\n      mstore\n      0x20\n      add\n      0x00\n      keccak256\n        /* \"userfrontend/node_modules/@openzeppelin/contracts/token/ERC20/ERC20.sol\":3952:3979  _allowances[owner][spender] */\n      0x00\n        /* \"userfrontend/node_modules/@openzeppelin/contracts/token/ERC20/ERC20.sol\":3971:3978  spender */\n      dup4\n        /* \"userfrontend/node_modules/@openzeppelin/contracts/token/ERC20/ERC20.sol\":3952:3979  _allowances[owner][spender] */\n      0xffffffffffffffffffffffffffffffffffffffff\n      and\n      0xffffffffffffffffffffffffffffffffffffffff\n      and\n      dup2\n      mstore\n      0x20\n      add\n      swap1\n      dup2\n      mstore\n      0x20\n      add\n      0x00\n      keccak256\n      sload\n        /* \"userfrontend/node_modules/@openzeppelin/contracts/token/ERC20/ERC20.sol\":3945:3979  return _allowances[owner][spender] */\n      swap1\n      pop\n        /* \"userfrontend/node_modules/@openzeppelin/contracts/token/ERC20/ERC20.sol\":3846:3986  function allowance(address owner, address spender) public view virtual returns (uint256) {... */\n      swap3\n      swap2\n      pop\n      pop\n      jump\t// out\n        /* \"userfrontend/node_modules/@openzeppelin/contracts/access/Ownable.sol\":2543:2758  function transferOwnership(address newOwner) public virtual onlyOwner {... */\n    tag_91:\n        /* \"userfrontend/node_modules/@openzeppelin/contracts/access/Ownable.sol\":1531:1544  _checkOwner() */\n      tag_188\n        /* \"userfrontend/node_modules/@openzeppelin/contracts/access/Ownable.sol\":1531:1542  _checkOwner */\n      tag_106\n        /* \"userfrontend/node_modules/@openzeppelin/contracts/access/Ownable.sol\":1531:1544  _checkOwner() */\n      jump\t// in\n    tag_188:\n        /* \"userfrontend/node_modules/@openzeppelin/contracts/access/Ownable.sol\":2647:2648  0 */\n      0x00\n        /* \"userfrontend/node_modules/@openzeppelin/contracts/access/Ownable.sol\":2627:2649  newOwner == address(0) */\n      0xffffffffffffffffffffffffffffffffffffffff\n      and\n        /* \"userfrontend/node_modules/@openzeppelin/contracts/access/Ownable.sol\":2627:2635  newOwner */\n      dup2\n        /* \"userfrontend/node_modules/@openzeppelin/contracts/access/Ownable.sol\":2627:2649  newOwner == address(0) */\n      0xffffffffffffffffffffffffffffffffffffffff\n      and\n      sub\n        /* \"userfrontend/node_modules/@openzeppelin/contracts/access/Ownable.sol\":2623:2714  if (newOwner == address(0)) {... */\n      tag_190\n      jumpi\n        /* \"userfrontend/node_modules/@openzeppelin/contracts/access/Ownable.sol\":2700:2701  0 */\n      0x00\n        /* \"userfrontend/node_modules/@openzeppelin/contracts/access/Ownable.sol\":2672:2703  OwnableInvalidOwner(address(0)) */\n      mload(0x40)\n      0x1e4fbdf700000000000000000000000000000000000000000000000000000000\n      dup2\n      mstore\n      0x04\n      add\n      tag_191\n      swap2\n      swap1\n      tag_61\n      jump\t// in\n    tag_191:\n      mload(0x40)\n      dup1\n      swap2\n      sub\n      swap1\n      revert\n        /* \"userfrontend/node_modules/@openzeppelin/contracts/access/Ownable.sol\":2623:2714  if (newOwner == address(0)) {... */\n    tag_190:\n        /* \"userfrontend/node_modules/@openzeppelin/contracts/access/Ownable.sol\":2723:2751  _transferOwnership(newOwner) */\n      tag_192\n        /* \"userfrontend/node_modules/@openzeppelin/contracts/access/Ownable.sol\":2742:2750  newOwner */\n      dup2\n        /* \"userfrontend/node_modules/@openzeppelin/contracts/access/Ownable.sol\":2723:2741  _transferOwnership */\n      tag_140\n        /* \"userfrontend/node_modules/@openzeppelin/contracts/access/Ownable.sol\":2723:2751  _transferOwnership(newOwner) */\n      jump\t// in\n    tag_192:\n        /* \"userfrontend/node_modules/@openzeppelin/contracts/access/Ownable.sol\":2543:2758  function transferOwnership(address newOwner) public virtual onlyOwner {... */\n      pop\n      jump\t// out\n        /* \"userfrontend/node_modules/@openzeppelin/contracts/utils/Context.sol\":656:752  function _msgSender() internal view virtual returns (address) {... */\n    tag_101:\n        /* \"userfrontend/node_modules/@openzeppelin/contracts/utils/Context.sol\":709:716  address */\n      0x00\n        /* \"userfrontend/node_modules/@openzeppelin/contracts/utils/Context.sol\":735:745  msg.sender */\n      caller\n        /* \"userfrontend/node_modules/@openzeppelin/contracts/utils/Context.sol\":728:745  return msg.sender */\n      swap1\n      pop\n        /* \"userfrontend/node_modules/@openzeppelin/contracts/utils/Context.sol\":656:752  function _msgSender() internal view virtual returns (address) {... */\n      swap1\n      jump\t// out\n        /* \"userfrontend/node_modules/@openzeppelin/contracts/token/ERC20/ERC20.sol\":8989:9117  function _approve(address owner, address spender, uint256 value) internal {... */\n    tag_103:\n        /* \"userfrontend/node_modules/@openzeppelin/contracts/token/ERC20/ERC20.sol\":9073:9110  _approve(owner, spender, value, true) */\n      tag_195\n        /* \"userfrontend/node_modules/@openzeppelin/contracts/token/ERC20/ERC20.sol\":9082:9087  owner */\n      dup4\n        /* \"userfrontend/node_modules/@openzeppelin/contracts/token/ERC20/ERC20.sol\":9089:9096  spender */\n      dup4\n        /* \"userfrontend/node_modules/@openzeppelin/contracts/token/ERC20/ERC20.sol\":9098:9103  value */\n      dup4\n        /* \"userfrontend/node_modules/@openzeppelin/contracts/token/ERC20/ERC20.sol\":9105:9109  true */\n      0x01\n        /* \"userfrontend/node_modules/@openzeppelin/contracts/token/ERC20/ERC20.sol\":9073:9081  _approve */\n      tag_196\n        /* \"userfrontend/node_modules/@openzeppelin/contracts/token/ERC20/ERC20.sol\":9073:9110  _approve(owner, spender, value, true) */\n      jump\t// in\n    tag_195:\n        /* \"userfrontend/node_modules/@openzeppelin/contracts/token/ERC20/ERC20.sol\":8989:9117  function _approve(address owner, address spender, uint256 value) internal {... */\n      pop\n      pop\n      pop\n      jump\t// out\n        /* \"userfrontend/node_modules/@openzeppelin/contracts/access/Ownable.sol\":1796:1958  function _checkOwner() internal view virtual {... */\n    tag_106:\n        /* \"userfrontend/node_modules/@openzeppelin/contracts/access/Ownable.sol\":1866:1878  _msgSender() */\n      tag_198\n        /* \"userfrontend/node_modules/@openzeppelin/contracts/access/Ownable.sol\":1866:1876  _msgSender */\n      tag_101\n        /* \"userfrontend/node_modules/@openzeppelin/contracts/access/Ownable.sol\":1866:1878  _msgSender() */\n      jump\t// in\n    tag_198:\n        /* \"userfrontend/node_modules/@openzeppelin/contracts/access/Ownable.sol\":1855:1878  owner() != _msgSender() */\n      0xffffffffffffffffffffffffffffffffffffffff\n      and\n        /* \"userfrontend/node_modules/@openzeppelin/contracts/access/Ownable.sol\":1855:1862  owner() */\n      tag_199\n        /* \"userfrontend/node_modules/@openzeppelin/contracts/access/Ownable.sol\":1855:1860  owner */\n      tag_59\n        /* \"userfrontend/node_modules/@openzeppelin/contracts/access/Ownable.sol\":1855:1862  owner() */\n      jump\t// in\n    tag_199:\n        /* \"userfrontend/node_modules/@openzeppelin/contracts/access/Ownable.sol\":1855:1878  owner() != _msgSender() */\n      0xffffffffffffffffffffffffffffffffffffffff\n      and\n      eq\n        /* \"userfrontend/node_modules/@openzeppelin/contracts/access/Ownable.sol\":1851:1952  if (owner() != _msgSender()) {... */\n      tag_200\n      jumpi\n        /* \"userfrontend/node_modules/@openzeppelin/contracts/access/Ownable.sol\":1928:1940  _msgSender() */\n      tag_201\n        /* \"userfrontend/node_modules/@openzeppelin/contracts/access/Ownable.sol\":1928:1938  _msgSender */\n      tag_101\n        /* \"userfrontend/node_modules/@openzeppelin/contracts/access/Ownable.sol\":1928:1940  _msgSender() */\n      jump\t// in\n    tag_201:\n        /* \"userfrontend/node_modules/@openzeppelin/contracts/access/Ownable.sol\":1901:1941  OwnableUnauthorizedAccount(_msgSender()) */\n      mload(0x40)\n      0x118cdaa700000000000000000000000000000000000000000000000000000000\n      dup2\n      mstore\n      0x04\n      add\n      tag_202\n      swap2\n      swap1\n      tag_61\n      jump\t// in\n    tag_202:\n      mload(0x40)\n      dup1\n      swap2\n      sub\n      swap1\n      revert\n        /* \"userfrontend/node_modules/@openzeppelin/contracts/access/Ownable.sol\":1851:1952  if (owner() != _msgSender()) {... */\n    tag_200:\n        /* \"userfrontend/node_modules/@openzeppelin/contracts/access/Ownable.sol\":1796:1958  function _checkOwner() internal view virtual {... */\n      jump\t// out\n        /* \"userfrontend/node_modules/@openzeppelin/contracts/token/ERC20/ERC20.sol\":5039:5283  function transferFrom(address from, address to, uint256 value) public virtual returns (bool) {... */\n    tag_133:\n        /* \"userfrontend/node_modules/@openzeppelin/contracts/token/ERC20/ERC20.sol\":5126:5130  bool */\n      0x00\n        /* \"userfrontend/node_modules/@openzeppelin/contracts/token/ERC20/ERC20.sol\":5142:5157  address spender */\n      dup1\n        /* \"userfrontend/node_modules/@openzeppelin/contracts/token/ERC20/ERC20.sol\":5160:5172  _msgSender() */\n      tag_204\n        /* \"userfrontend/node_modules/@openzeppelin/contracts/token/ERC20/ERC20.sol\":5160:5170  _msgSender */\n      tag_101\n        /* \"userfrontend/node_modules/@openzeppelin/contracts/token/ERC20/ERC20.sol\":5160:5172  _msgSender() */\n      jump\t// in\n    tag_204:\n        /* \"userfrontend/node_modules/@openzeppelin/contracts/token/ERC20/ERC20.sol\":5142:5172  address spender = _msgSender() */\n      swap1\n      pop\n        /* \"userfrontend/node_modules/@openzeppelin/contracts/token/ERC20/ERC20.sol\":5182:5219  _spendAllowance(from, spender, value) */\n      tag_205\n        /* \"userfrontend/node_modules/@openzeppelin/contracts/token/ERC20/ERC20.sol\":5198:5202  from */\n      dup6\n        /* \"userfrontend/node_modules/@openzeppelin/contracts/token/ERC20/ERC20.sol\":5204:5211  spender */\n      dup3\n        /* \"userfrontend/node_modules/@openzeppelin/contracts/token/ERC20/ERC20.sol\":5213:5218  value */\n      dup6\n        /* \"userfrontend/node_modules/@openzeppelin/contracts/token/ERC20/ERC20.sol\":5182:5197  _spendAllowance */\n      tag_206\n        /* \"userfrontend/node_modules/@openzeppelin/contracts/token/ERC20/ERC20.sol\":5182:5219  _spendAllowance(from, spender, value) */\n      jump\t// in\n    tag_205:\n        /* \"userfrontend/node_modules/@openzeppelin/contracts/token/ERC20/ERC20.sol\":5229:5255  _transfer(from, to, value) */\n      tag_207\n        /* \"userfrontend/node_modules/@openzeppelin/contracts/token/ERC20/ERC20.sol\":5239:5243  from */\n      dup6\n        /* \"userfrontend/node_modules/@openzeppelin/contracts/token/ERC20/ERC20.sol\":5245:5247  to */\n      dup6\n        /* \"userfrontend/node_modules/@openzeppelin/contracts/token/ERC20/ERC20.sol\":5249:5254  value */\n      dup6\n        /* \"userfrontend/node_modules/@openzeppelin/contracts/token/ERC20/ERC20.sol\":5229:5238  _transfer */\n      tag_208\n        /* \"userfrontend/node_modules/@openzeppelin/contracts/token/ERC20/ERC20.sol\":5229:5255  _transfer(from, to, value) */\n      jump\t// in\n    tag_207:\n        /* \"userfrontend/node_modules/@openzeppelin/contracts/token/ERC20/ERC20.sol\":5272:5276  true */\n      0x01\n        /* \"userfrontend/node_modules/@openzeppelin/contracts/token/ERC20/ERC20.sol\":5265:5276  return true */\n      swap2\n      pop\n      pop\n        /* \"userfrontend/node_modules/@openzeppelin/contracts/token/ERC20/ERC20.sol\":5039:5283  function transferFrom(address from, address to, uint256 value) public virtual returns (bool) {... */\n      swap4\n      swap3\n      pop\n      pop\n      pop\n      jump\t// out\n        /* \"userfrontend/node_modules/@openzeppelin/contracts/access/Ownable.sol\":2912:3099  function _transferOwnership(address newOwner) internal virtual {... */\n    tag_140:\n        /* \"userfrontend/node_modules/@openzeppelin/contracts/access/Ownable.sol\":2985:3001  address oldOwner */\n      0x00\n        /* \"userfrontend/node_modules/@openzeppelin/contracts/access/Ownable.sol\":3004:3010  _owner */\n      0x05\n      0x00\n      swap1\n      sload\n      swap1\n      0x0100\n      exp\n      swap1\n      div\n      0xffffffffffffffffffffffffffffffffffffffff\n      and\n        /* \"userfrontend/node_modules/@openzeppelin/contracts/access/Ownable.sol\":2985:3010  address oldOwner = _owner */\n      swap1\n      pop\n        /* \"userfrontend/node_modules/@openzeppelin/contracts/access/Ownable.sol\":3029:3037  newOwner */\n      dup2\n        /* \"userfrontend/node_modules/@openzeppelin/contracts/access/Ownable.sol\":3020:3026  _owner */\n      0x05\n      0x00\n        /* \"userfrontend/node_modules/@openzeppelin/contracts/access/Ownable.sol\":3020:3037  _owner = newOwner */\n      0x0100\n      exp\n      dup2\n      sload\n      dup2\n      0xffffffffffffffffffffffffffffffffffffffff\n      mul\n      not\n      and\n      swap1\n      dup4\n      0xffffffffffffffffffffffffffffffffffffffff\n      and\n      mul\n      or\n      swap1\n      sstore\n      pop\n        /* \"userfrontend/node_modules/@openzeppelin/contracts/access/Ownable.sol\":3083:3091  newOwner */\n      dup2\n        /* \"userfrontend/node_modules/@openzeppelin/contracts/access/Ownable.sol\":3052:3092  OwnershipTransferred(oldOwner, newOwner) */\n      0xffffffffffffffffffffffffffffffffffffffff\n      and\n        /* \"userfrontend/node_modules/@openzeppelin/contracts/access/Ownable.sol\":3073:3081  oldOwner */\n      dup2\n        /* \"userfrontend/node_modules/@openzeppelin/contracts/access/Ownable.sol\":3052:3092  OwnershipTransferred(oldOwner, newOwner) */\n      0xffffffffffffffffffffffffffffffffffffffff\n      and\n      0x8be0079c531659141344cd1fd0a4f28419497f9722a3daafe3b4186f6b6457e0\n      mload(0x40)\n      mload(0x40)\n      dup1\n      swap2\n      sub\n      swap1\n      log3\n        /* \"userfrontend/node_modules/@openzeppelin/contracts/access/Ownable.sol\":2975:3099  {... */\n      pop\n        /* \"userfrontend/node_modules/@openzeppelin/contracts/access/Ownable.sol\":2912:3099  function _transferOwnership(address newOwner) internal virtual {... */\n      pop\n      jump\t// out\n        /* \"userfrontend/node_modules/@openzeppelin/contracts/token/ERC20/ERC20.sol\":3610:3788  function transfer(address to, uint256 value) public virtual returns (bool) {... */\n    tag_168:\n        /* \"userfrontend/node_modules/@openzeppelin/contracts/token/ERC20/ERC20.sol\":3679:3683  bool */\n      0x00\n        /* \"userfrontend/node_modules/@openzeppelin/contracts/token/ERC20/ERC20.sol\":3695:3708  address owner */\n      dup1\n        /* \"userfrontend/node_modules/@openzeppelin/contracts/token/ERC20/ERC20.sol\":3711:3723  _msgSender() */\n      tag_211\n        /* \"userfrontend/node_modules/@openzeppelin/contracts/token/ERC20/ERC20.sol\":3711:3721  _msgSender */\n      tag_101\n        /* \"userfrontend/node_modules/@openzeppelin/contracts/token/ERC20/ERC20.sol\":3711:3723  _msgSender() */\n      jump\t// in\n    tag_211:\n        /* \"userfrontend/node_modules/@openzeppelin/contracts/token/ERC20/ERC20.sol\":3695:3723  address owner = _msgSender() */\n      swap1\n      pop\n        /* \"userfrontend/node_modules/@openzeppelin/contracts/token/ERC20/ERC20.sol\":3733:3760  _transfer(owner, to, value) */\n      tag_212\n        /* \"userfrontend/node_modules/@openzeppelin/contracts/token/ERC20/ERC20.sol\":3743:3748  owner */\n      dup2\n        /* \"userfrontend/node_modules/@openzeppelin/contracts/token/ERC20/ERC20.sol\":3750:3752  to */\n      dup6\n        /* \"userfrontend/node_modules/@openzeppelin/contracts/token/ERC20/ERC20.sol\":3754:3759  value */\n      dup6\n        /* \"userfrontend/node_modules/@openzeppelin/contracts/token/ERC20/ERC20.sol\":3733:3742  _transfer */\n      tag_208\n        /* \"userfrontend/node_modules/@openzeppelin/contracts/token/ERC20/ERC20.sol\":3733:3760  _transfer(owner, to, value) */\n      jump\t// in\n    tag_212:\n        /* \"userfrontend/node_modules/@openzeppelin/contracts/token/ERC20/ERC20.sol\":3777:3781  true */\n      0x01\n        /* \"userfrontend/node_modules/@openzeppelin/contracts/token/ERC20/ERC20.sol\":3770:3781  return true */\n      swap2\n      pop\n      pop\n        /* \"userfrontend/node_modules/@openzeppelin/contracts/token/ERC20/ERC20.sol\":3610:3788  function transfer(address to, uint256 value) public virtual returns (bool) {... */\n      swap3\n      swap2\n      pop\n      pop\n      jump\t// out\n        /* \"userfrontend/node_modules/@openzeppelin/contracts/token/ERC20/ERC20.sol\":8247:8453  function _burn(address account, uint256 value) internal {... */\n    tag_173:\n        /* \"userfrontend/node_modules/@openzeppelin/contracts/token/ERC20/ERC20.sol\":8336:8337  0 */\n      0x00\n        /* \"userfrontend/node_modules/@openzeppelin/contracts/token/ERC20/ERC20.sol\":8317:8338  account == address(0) */\n      0xffffffffffffffffffffffffffffffffffffffff\n      and\n        /* \"userfrontend/node_modules/@openzeppelin/contracts/token/ERC20/ERC20.sol\":8317:8324  account */\n      dup3\n        /* \"userfrontend/node_modules/@openzeppelin/contracts/token/ERC20/ERC20.sol\":8317:8338  account == address(0) */\n      0xffffffffffffffffffffffffffffffffffffffff\n      and\n      sub\n        /* \"userfrontend/node_modules/@openzeppelin/contracts/token/ERC20/ERC20.sol\":8313:8402  if (account == address(0)) {... */\n      tag_214\n      jumpi\n        /* \"userfrontend/node_modules/@openzeppelin/contracts/token/ERC20/ERC20.sol\":8388:8389  0 */\n      0x00\n        /* \"userfrontend/node_modules/@openzeppelin/contracts/token/ERC20/ERC20.sol\":8361:8391  ERC20InvalidSender(address(0)) */\n      mload(0x40)\n      0x96c6fd1e00000000000000000000000000000000000000000000000000000000\n      dup2\n      mstore\n      0x04\n      add\n      tag_215\n      swap2\n      swap1\n      tag_61\n      jump\t// in\n    tag_215:\n      mload(0x40)\n      dup1\n      swap2\n      sub\n      swap1\n      revert\n        /* \"userfrontend/node_modules/@openzeppelin/contracts/token/ERC20/ERC20.sol\":8313:8402  if (account == address(0)) {... */\n    tag_214:\n        /* \"userfrontend/node_modules/@openzeppelin/contracts/token/ERC20/ERC20.sol\":8411:8446  _update(account, address(0), value) */\n      tag_216\n        /* \"userfrontend/node_modules/@openzeppelin/contracts/token/ERC20/ERC20.sol\":8419:8426  account */\n      dup3\n        /* \"userfrontend/node_modules/@openzeppelin/contracts/token/ERC20/ERC20.sol\":8436:8437  0 */\n      0x00\n        /* \"userfrontend/node_modules/@openzeppelin/contracts/token/ERC20/ERC20.sol\":8440:8445  value */\n      dup4\n        /* \"userfrontend/node_modules/@openzeppelin/contracts/token/ERC20/ERC20.sol\":8411:8418  _update */\n      tag_217\n        /* \"userfrontend/node_modules/@openzeppelin/contracts/token/ERC20/ERC20.sol\":8411:8446  _update(account, address(0), value) */\n      jump\t// in\n    tag_216:\n        /* \"userfrontend/node_modules/@openzeppelin/contracts/token/ERC20/ERC20.sol\":8247:8453  function _burn(address account, uint256 value) internal {... */\n      pop\n      pop\n      jump\t// out\n        /* \"userfrontend/node_modules/@openzeppelin/contracts/token/ERC20/ERC20.sol\":7721:7929  function _mint(address account, uint256 value) internal {... */\n    tag_178:\n        /* \"userfrontend/node_modules/@openzeppelin/contracts/token/ERC20/ERC20.sol\":7810:7811  0 */\n      0x00\n        /* \"userfrontend/node_modules/@openzeppelin/contracts/token/ERC20/ERC20.sol\":7791:7812  account == address(0) */\n      0xffffffffffffffffffffffffffffffffffffffff\n      and\n        /* \"userfrontend/node_modules/@openzeppelin/contracts/token/ERC20/ERC20.sol\":7791:7798  account */\n      dup3\n        /* \"userfrontend/node_modules/@openzeppelin/contracts/token/ERC20/ERC20.sol\":7791:7812  account == address(0) */\n      0xffffffffffffffffffffffffffffffffffffffff\n      and\n      sub\n        /* \"userfrontend/node_modules/@openzeppelin/contracts/token/ERC20/ERC20.sol\":7787:7878  if (account == address(0)) {... */\n      tag_219\n      jumpi\n        /* \"userfrontend/node_modules/@openzeppelin/contracts/token/ERC20/ERC20.sol\":7864:7865  0 */\n      0x00\n        /* \"userfrontend/node_modules/@openzeppelin/contracts/token/ERC20/ERC20.sol\":7835:7867  ERC20InvalidReceiver(address(0)) */\n      mload(0x40)\n      0xec442f0500000000000000000000000000000000000000000000000000000000\n      dup2\n      mstore\n      0x04\n      add\n      tag_220\n      swap2\n      swap1\n      tag_61\n      jump\t// in\n    tag_220:\n      mload(0x40)\n      dup1\n      swap2\n      sub\n      swap1\n      revert\n        /* \"userfrontend/node_modules/@openzeppelin/contracts/token/ERC20/ERC20.sol\":7787:7878  if (account == address(0)) {... */\n    tag_219:\n        /* \"userfrontend/node_modules/@openzeppelin/contracts/token/ERC20/ERC20.sol\":7887:7922  _update(address(0), account, value) */\n      tag_221\n        /* \"userfrontend/node_modules/@openzeppelin/contracts/token/ERC20/ERC20.sol\":7903:7904  0 */\n      0x00\n        /* \"userfrontend/node_modules/@openzeppelin/contracts/token/ERC20/ERC20.sol\":7907:7914  account */\n      dup4\n        /* \"userfrontend/node_modules/@openzeppelin/contracts/token/ERC20/ERC20.sol\":7916:7921  value */\n      dup4\n        /* \"userfrontend/node_modules/@openzeppelin/contracts/token/ERC20/ERC20.sol\":7887:7894  _update */\n      tag_217\n        /* \"userfrontend/node_modules/@openzeppelin/contracts/token/ERC20/ERC20.sol\":7887:7922  _update(address(0), account, value) */\n      jump\t// in\n    tag_221:\n        /* \"userfrontend/node_modules/@openzeppelin/contracts/token/ERC20/ERC20.sol\":7721:7929  function _mint(address account, uint256 value) internal {... */\n      pop\n      pop\n      jump\t// out\n        /* \"userfrontend/node_modules/@openzeppelin/contracts/token/ERC20/ERC20.sol\":9949:10381  function _approve(address owner, address spender, uint256 value, bool emitEvent) internal virtual {... */\n    tag_196:\n        /* \"userfrontend/node_modules/@openzeppelin/contracts/token/ERC20/ERC20.sol\":10078:10079  0 */\n      0x00\n        /* \"userfrontend/node_modules/@openzeppelin/contracts/token/ERC20/ERC20.sol\":10061:10080  owner == address(0) */\n      0xffffffffffffffffffffffffffffffffffffffff\n      and\n        /* \"userfrontend/node_modules/@openzeppelin/contracts/token/ERC20/ERC20.sol\":10061:10066  owner */\n      dup5\n        /* \"userfrontend/node_modules/@openzeppelin/contracts/token/ERC20/ERC20.sol\":10061:10080  owner == address(0) */\n      0xffffffffffffffffffffffffffffffffffffffff\n      and\n      sub\n        /* \"userfrontend/node_modules/@openzeppelin/contracts/token/ERC20/ERC20.sol\":10057:10146  if (owner == address(0)) {... */\n      tag_223\n      jumpi\n        /* \"userfrontend/node_modules/@openzeppelin/contracts/token/ERC20/ERC20.sol\":10132:10133  0 */\n      0x00\n        /* \"userfrontend/node_modules/@openzeppelin/contracts/token/ERC20/ERC20.sol\":10103:10135  ERC20InvalidApprover(address(0)) */\n      mload(0x40)\n      0xe602df0500000000000000000000000000000000000000000000000000000000\n      dup2\n      mstore\n      0x04\n      add\n      tag_224\n      swap2\n      swap1\n      tag_61\n      jump\t// in\n    tag_224:\n      mload(0x40)\n      dup1\n      swap2\n      sub\n      swap1\n      revert\n        /* \"userfrontend/node_modules/@openzeppelin/contracts/token/ERC20/ERC20.sol\":10057:10146  if (owner == address(0)) {... */\n    tag_223:\n        /* \"userfrontend/node_modules/@openzeppelin/contracts/token/ERC20/ERC20.sol\":10178:10179  0 */\n      0x00\n        /* \"userfrontend/node_modules/@openzeppelin/contracts/token/ERC20/ERC20.sol\":10159:10180  spender == address(0) */\n      0xffffffffffffffffffffffffffffffffffffffff\n      and\n        /* \"userfrontend/node_modules/@openzeppelin/contracts/token/ERC20/ERC20.sol\":10159:10166  spender */\n      dup4\n        /* \"userfrontend/node_modules/@openzeppelin/contracts/token/ERC20/ERC20.sol\":10159:10180  spender == address(0) */\n      0xffffffffffffffffffffffffffffffffffffffff\n      and\n      sub\n        /* \"userfrontend/node_modules/@openzeppelin/contracts/token/ERC20/ERC20.sol\":10155:10245  if (spender == address(0)) {... */\n      tag_225\n      jumpi\n        /* \"userfrontend/node_modules/@openzeppelin/contracts/token/ERC20/ERC20.sol\":10231:10232  0 */\n      0x00\n        /* \"userfrontend/node_modules/@openzeppelin/contracts/token/ERC20/ERC20.sol\":10203:10234  ERC20InvalidSpender(address(0)) */\n      mload(0x40)\n      0x94280d6200000000000000000000000000000000000000000000000000000000\n      dup2\n      mstore\n      0x04\n      add\n      tag_226\n      swap2\n      swap1\n      tag_61\n      jump\t// in\n    tag_226:\n      mload(0x40)\n      dup1\n      swap2\n      sub\n      swap1\n      revert\n        /* \"userfrontend/node_modules/@openzeppelin/contracts/token/ERC20/ERC20.sol\":10155:10245  if (spender == address(0)) {... */\n    tag_225:\n        /* \"userfrontend/node_modules/@openzeppelin/contracts/token/ERC20/ERC20.sol\":10284:10289  value */\n      dup2\n        /* \"userfrontend/node_modules/@openzeppelin/contracts/token/ERC20/ERC20.sol\":10254:10265  _allowances */\n      0x01\n        /* \"userfrontend/node_modules/@openzeppelin/contracts/token/ERC20/ERC20.sol\":10254:10272  _allowances[owner] */\n      0x00\n        /* \"userfrontend/node_modules/@openzeppelin/contracts/token/ERC20/ERC20.sol\":10266:10271  owner */\n      dup7\n        /* \"userfrontend/node_modules/@openzeppelin/contracts/token/ERC20/ERC20.sol\":10254:10272  _allowances[owner] */\n      0xffffffffffffffffffffffffffffffffffffffff\n      and\n      0xffffffffffffffffffffffffffffffffffffffff\n      and\n      dup2\n      mstore\n      0x20\n      add\n      swap1\n      dup2\n      mstore\n      0x20\n      add\n      0x00\n      keccak256\n        /* \"userfrontend/node_modules/@openzeppelin/contracts/token/ERC20/ERC20.sol\":10254:10281  _allowances[owner][spender] */\n      0x00\n        /* \"userfrontend/node_modules/@openzeppelin/contracts/token/ERC20/ERC20.sol\":10273:10280  spender */\n      dup6\n        /* \"userfrontend/node_modules/@openzeppelin/contracts/token/ERC20/ERC20.sol\":10254:10281  _allowances[owner][spender] */\n      0xffffffffffffffffffffffffffffffffffffffff\n      and\n      0xffffffffffffffffffffffffffffffffffffffff\n      and\n      dup2\n      mstore\n      0x20\n      add\n      swap1\n      dup2\n      mstore\n      0x20\n      add\n      0x00\n      keccak256\n        /* \"userfrontend/node_modules/@openzeppelin/contracts/token/ERC20/ERC20.sol\":10254:10289  _allowances[owner][spender] = value */\n      dup2\n      swap1\n      sstore\n      pop\n        /* \"userfrontend/node_modules/@openzeppelin/contracts/token/ERC20/ERC20.sol\":10303:10312  emitEvent */\n      dup1\n        /* \"userfrontend/node_modules/@openzeppelin/contracts/token/ERC20/ERC20.sol\":10299:10375  if (emitEvent) {... */\n      iszero\n      tag_227\n      jumpi\n        /* \"userfrontend/node_modules/@openzeppelin/contracts/token/ERC20/ERC20.sol\":10349:10356  spender */\n      dup3\n        /* \"userfrontend/node_modules/@openzeppelin/contracts/token/ERC20/ERC20.sol\":10333:10364  Approval(owner, spender, value) */\n      0xffffffffffffffffffffffffffffffffffffffff\n      and\n        /* \"userfrontend/node_modules/@openzeppelin/contracts/token/ERC20/ERC20.sol\":10342:10347  owner */\n      dup5\n        /* \"userfrontend/node_modules/@openzeppelin/contracts/token/ERC20/ERC20.sol\":10333:10364  Approval(owner, spender, value) */\n      0xffffffffffffffffffffffffffffffffffffffff\n      and\n      0x8c5be1e5ebec7d5bd14f71427d1e84f3dd0314c0f7b2291e5b200ac8c7c3b925\n        /* \"userfrontend/node_modules/@openzeppelin/contracts/token/ERC20/ERC20.sol\":10358:10363  value */\n      dup5\n        /* \"userfrontend/node_modules/@openzeppelin/contracts/token/ERC20/ERC20.sol\":10333:10364  Approval(owner, spender, value) */\n      mload(0x40)\n      tag_228\n      swap2\n      swap1\n      tag_41\n      jump\t// in\n    tag_228:\n      mload(0x40)\n      dup1\n      swap2\n      sub\n      swap1\n      log3\n        /* \"userfrontend/node_modules/@openzeppelin/contracts/token/ERC20/ERC20.sol\":10299:10375  if (emitEvent) {... */\n    tag_227:\n        /* \"userfrontend/node_modules/@openzeppelin/contracts/token/ERC20/ERC20.sol\":9949:10381  function _approve(address owner, address spender, uint256 value, bool emitEvent) internal virtual {... */\n      pop\n      pop\n      pop\n      pop\n      jump\t// out\n        /* \"userfrontend/node_modules/@openzeppelin/contracts/token/ERC20/ERC20.sol\":10663:11140  function _spendAllowance(address owner, address spender, uint256 value) internal virtual {... */\n    tag_206:\n        /* \"userfrontend/node_modules/@openzeppelin/contracts/token/ERC20/ERC20.sol\":10762:10786  uint256 currentAllowance */\n      0x00\n        /* \"userfrontend/node_modules/@openzeppelin/contracts/token/ERC20/ERC20.sol\":10789:10814  allowance(owner, spender) */\n      tag_230\n        /* \"userfrontend/node_modules/@openzeppelin/contracts/token/ERC20/ERC20.sol\":10799:10804  owner */\n      dup5\n        /* \"userfrontend/node_modules/@openzeppelin/contracts/token/ERC20/ERC20.sol\":10806:10813  spender */\n      dup5\n        /* \"userfrontend/node_modules/@openzeppelin/contracts/token/ERC20/ERC20.sol\":10789:10798  allowance */\n      tag_87\n        /* \"userfrontend/node_modules/@openzeppelin/contracts/token/ERC20/ERC20.sol\":10789:10814  allowance(owner, spender) */\n      jump\t// in\n    tag_230:\n        /* \"userfrontend/node_modules/@openzeppelin/contracts/token/ERC20/ERC20.sol\":10762:10814  uint256 currentAllowance = allowance(owner, spender) */\n      swap1\n      pop\n        /* \"userfrontend/node_modules/@openzeppelin/contracts/token/ERC20/ERC20.sol\":10848:10865  type(uint256).max */\n      0xffffffffffffffffffffffffffffffffffffffffffffffffffffffffffffffff\n        /* \"userfrontend/node_modules/@openzeppelin/contracts/token/ERC20/ERC20.sol\":10828:10844  currentAllowance */\n      dup2\n        /* \"userfrontend/node_modules/@openzeppelin/contracts/token/ERC20/ERC20.sol\":10828:10865  currentAllowance != type(uint256).max */\n      eq\n        /* \"userfrontend/node_modules/@openzeppelin/contracts/token/ERC20/ERC20.sol\":10824:11134  if (currentAllowance != type(uint256).max) {... */\n      tag_231\n      jumpi\n        /* \"userfrontend/node_modules/@openzeppelin/contracts/token/ERC20/ERC20.sol\":10904:10909  value */\n      dup2\n        /* \"userfrontend/node_modules/@openzeppelin/contracts/token/ERC20/ERC20.sol\":10885:10901  currentAllowance */\n      dup2\n        /* \"userfrontend/node_modules/@openzeppelin/contracts/token/ERC20/ERC20.sol\":10885:10909  currentAllowance < value */\n      lt\n        /* \"userfrontend/node_modules/@openzeppelin/contracts/token/ERC20/ERC20.sol\":10881:11011  if (currentAllowance < value) {... */\n      iszero\n      tag_232\n      jumpi\n        /* \"userfrontend/node_modules/@openzeppelin/contracts/token/ERC20/ERC20.sol\":10963:10970  spender */\n      dup3\n        /* \"userfrontend/node_modules/@openzeppelin/contracts/token/ERC20/ERC20.sol\":10972:10988  currentAllowance */\n      dup2\n        /* \"userfrontend/node_modules/@openzeppelin/contracts/token/ERC20/ERC20.sol\":10990:10995  value */\n      dup4\n        /* \"userfrontend/node_modules/@openzeppelin/contracts/token/ERC20/ERC20.sol\":10936:10996  ERC20InsufficientAllowance(spender, currentAllowance, value) */\n      mload(0x40)\n      0xfb8f41b200000000000000000000000000000000000000000000000000000000\n      dup2\n      mstore\n      0x04\n      add\n      tag_233\n      swap4\n      swap3\n      swap2\n      swap1\n      tag_234\n      jump\t// in\n    tag_233:\n      mload(0x40)\n      dup1\n      swap2\n      sub\n      swap1\n      revert\n        /* \"userfrontend/node_modules/@openzeppelin/contracts/token/ERC20/ERC20.sol\":10881:11011  if (currentAllowance < value) {... */\n    tag_232:\n        /* \"userfrontend/node_modules/@openzeppelin/contracts/token/ERC20/ERC20.sol\":11052:11109  _approve(owner, spender, currentAllowance - value, false) */\n      tag_235\n        /* \"userfrontend/node_modules/@openzeppelin/contracts/token/ERC20/ERC20.sol\":11061:11066  owner */\n      dup5\n        /* \"userfrontend/node_modules/@openzeppelin/contracts/token/ERC20/ERC20.sol\":11068:11075  spender */\n      dup5\n        /* \"userfrontend/node_modules/@openzeppelin/contracts/token/ERC20/ERC20.sol\":11096:11101  value */\n      dup5\n        /* \"userfrontend/node_modules/@openzeppelin/contracts/token/ERC20/ERC20.sol\":11077:11093  currentAllowance */\n      dup5\n        /* \"userfrontend/node_modules/@openzeppelin/contracts/token/ERC20/ERC20.sol\":11077:11101  currentAllowance - value */\n      sub\n        /* \"userfrontend/node_modules/@openzeppelin/contracts/token/ERC20/ERC20.sol\":11103:11108  false */\n      0x00\n        /* \"userfrontend/node_modules/@openzeppelin/contracts/token/ERC20/ERC20.sol\":11052:11060  _approve */\n      tag_196\n        /* \"userfrontend/node_modules/@openzeppelin/contracts/token/ERC20/ERC20.sol\":11052:11109  _approve(owner, spender, currentAllowance - value, false) */\n      jump\t// in\n    tag_235:\n        /* \"userfrontend/node_modules/@openzeppelin/contracts/token/ERC20/ERC20.sol\":10824:11134  if (currentAllowance != type(uint256).max) {... */\n    tag_231:\n        /* \"userfrontend/node_modules/@openzeppelin/contracts/token/ERC20/ERC20.sol\":10752:11140  {... */\n      pop\n        /* \"userfrontend/node_modules/@openzeppelin/contracts/token/ERC20/ERC20.sol\":10663:11140  function _spendAllowance(address owner, address spender, uint256 value) internal virtual {... */\n      pop\n      pop\n      pop\n      jump\t// out\n        /* \"userfrontend/node_modules/@openzeppelin/contracts/token/ERC20/ERC20.sol\":5656:5956  function _transfer(address from, address to, uint256 value) internal {... */\n    tag_208:\n        /* \"userfrontend/node_modules/@openzeppelin/contracts/token/ERC20/ERC20.sol\":5755:5756  0 */\n      0x00\n        /* \"userfrontend/node_modules/@openzeppelin/contracts/token/ERC20/ERC20.sol\":5739:5757  from == address(0) */\n      0xffffffffffffffffffffffffffffffffffffffff\n      and\n        /* \"userfrontend/node_modules/@openzeppelin/contracts/token/ERC20/ERC20.sol\":5739:5743  from */\n      dup4\n        /* \"userfrontend/node_modules/@openzeppelin/contracts/token/ERC20/ERC20.sol\":5739:5757  from == address(0) */\n      0xffffffffffffffffffffffffffffffffffffffff\n      and\n      sub\n        /* \"userfrontend/node_modules/@openzeppelin/contracts/token/ERC20/ERC20.sol\":5735:5821  if (from == address(0)) {... */\n      tag_237\n      jumpi\n        /* \"userfrontend/node_modules/@openzeppelin/contracts/token/ERC20/ERC20.sol\":5807:5808  0 */\n      0x00\n        /* \"userfrontend/node_modules/@openzeppelin/contracts/token/ERC20/ERC20.sol\":5780:5810  ERC20InvalidSender(address(0)) */\n      mload(0x40)\n      0x96c6fd1e00000000000000000000000000000000000000000000000000000000\n      dup2\n      mstore\n      0x04\n      add\n      tag_238\n      swap2\n      swap1\n      tag_61\n      jump\t// in\n    tag_238:\n      mload(0x40)\n      dup1\n      swap2\n      sub\n      swap1\n      revert\n        /* \"userfrontend/node_modules/@openzeppelin/contracts/token/ERC20/ERC20.sol\":5735:5821  if (from == address(0)) {... */\n    tag_237:\n        /* \"userfrontend/node_modules/@openzeppelin/contracts/token/ERC20/ERC20.sol\":5848:5849  0 */\n      0x00\n        /* \"userfrontend/node_modules/@openzeppelin/contracts/token/ERC20/ERC20.sol\":5834:5850  to == address(0) */\n      0xffffffffffffffffffffffffffffffffffffffff\n      and\n        /* \"userfrontend/node_modules/@openzeppelin/contracts/token/ERC20/ERC20.sol\":5834:5836  to */\n      dup3\n        /* \"userfrontend/node_modules/@openzeppelin/contracts/token/ERC20/ERC20.sol\":5834:5850  to == address(0) */\n      0xffffffffffffffffffffffffffffffffffffffff\n      and\n      sub\n        /* \"userfrontend/node_modules/@openzeppelin/contracts/token/ERC20/ERC20.sol\":5830:5916  if (to == address(0)) {... */\n      tag_239\n      jumpi\n        /* \"userfrontend/node_modules/@openzeppelin/contracts/token/ERC20/ERC20.sol\":5902:5903  0 */\n      0x00\n        /* \"userfrontend/node_modules/@openzeppelin/contracts/token/ERC20/ERC20.sol\":5873:5905  ERC20InvalidReceiver(address(0)) */\n      mload(0x40)\n      0xec442f0500000000000000000000000000000000000000000000000000000000\n      dup2\n      mstore\n      0x04\n      add\n      tag_240\n      swap2\n      swap1\n      tag_61\n      jump\t// in\n    tag_240:\n      mload(0x40)\n      dup1\n      swap2\n      sub\n      swap1\n      revert\n        /* \"userfrontend/node_modules/@openzeppelin/contracts/token/ERC20/ERC20.sol\":5830:5916  if (to == address(0)) {... */\n    tag_239:\n        /* \"userfrontend/node_modules/@openzeppelin/contracts/token/ERC20/ERC20.sol\":5925:5949  _update(from, to, value) */\n      tag_241\n        /* \"userfrontend/node_modules/@openzeppelin/contracts/token/ERC20/ERC20.sol\":5933:5937  from */\n      dup4\n        /* \"userfrontend/node_modules/@openzeppelin/contracts/token/ERC20/ERC20.sol\":5939:5941  to */\n      dup4\n        /* \"userfrontend/node_modules/@openzeppelin/contracts/token/ERC20/ERC20.sol\":5943:5948  value */\n      dup4\n        /* \"userfrontend/node_modules/@openzeppelin/contracts/token/ERC20/ERC20.sol\":5925:5932  _update */\n      tag_217\n        /* \"userfrontend/node_modules/@openzeppelin/contracts/token/ERC20/ERC20.sol\":5925:5949  _update(from, to, value) */\n      jump\t// in\n    tag_241:\n        /* \"userfrontend/node_modules/@openzeppelin/contracts/token/ERC20/ERC20.sol\":5656:5956  function _transfer(address from, address to, uint256 value) internal {... */\n      pop\n      pop\n      pop\n      jump\t// out\n        /* \"userfrontend/node_modules/@openzeppelin/contracts/token/ERC20/ERC20.sol\":6271:7378  function _update(address from, address to, uint256 value) internal virtual {... */\n    tag_217:\n        /* \"userfrontend/node_modules/@openzeppelin/contracts/token/ERC20/ERC20.sol\":6376:6377  0 */\n      0x00\n        /* \"userfrontend/node_modules/@openzeppelin/contracts/token/ERC20/ERC20.sol\":6360:6378  from == address(0) */\n      0xffffffffffffffffffffffffffffffffffffffff\n      and\n        /* \"userfrontend/node_modules/@openzeppelin/contracts/token/ERC20/ERC20.sol\":6360:6364  from */\n      dup4\n        /* \"userfrontend/node_modules/@openzeppelin/contracts/token/ERC20/ERC20.sol\":6360:6378  from == address(0) */\n      0xffffffffffffffffffffffffffffffffffffffff\n      and\n      sub\n        /* \"userfrontend/node_modules/@openzeppelin/contracts/token/ERC20/ERC20.sol\":6356:6896  if (from == address(0)) {... */\n      tag_243\n      jumpi\n        /* \"userfrontend/node_modules/@openzeppelin/contracts/token/ERC20/ERC20.sol\":6512:6517  value */\n      dup1\n        /* \"userfrontend/node_modules/@openzeppelin/contracts/token/ERC20/ERC20.sol\":6496:6508  _totalSupply */\n      0x02\n      0x00\n        /* \"userfrontend/node_modules/@openzeppelin/contracts/token/ERC20/ERC20.sol\":6496:6517  _totalSupply += value */\n      dup3\n      dup3\n      sload\n      tag_244\n      swap2\n      swap1\n      tag_123\n      jump\t// in\n    tag_244:\n      swap3\n      pop\n      pop\n      dup2\n      swap1\n      sstore\n      pop\n        /* \"userfrontend/node_modules/@openzeppelin/contracts/token/ERC20/ERC20.sol\":6356:6896  if (from == address(0)) {... */\n      jump(tag_245)\n    tag_243:\n        /* \"userfrontend/node_modules/@openzeppelin/contracts/token/ERC20/ERC20.sol\":6548:6567  uint256 fromBalance */\n      0x00\n        /* \"userfrontend/node_modules/@openzeppelin/contracts/token/ERC20/ERC20.sol\":6570:6579  _balances */\n      dup1\n        /* \"userfrontend/node_modules/@openzeppelin/contracts/token/ERC20/ERC20.sol\":6570:6585  _balances[from] */\n      0x00\n        /* \"userfrontend/node_modules/@openzeppelin/contracts/token/ERC20/ERC20.sol\":6580:6584  from */\n      dup6\n        /* \"userfrontend/node_modules/@openzeppelin/contracts/token/ERC20/ERC20.sol\":6570:6585  _balances[from] */\n      0xffffffffffffffffffffffffffffffffffffffff\n      and\n      0xffffffffffffffffffffffffffffffffffffffff\n      and\n      dup2\n      mstore\n      0x20\n      add\n      swap1\n      dup2\n      mstore\n      0x20\n      add\n      0x00\n      keccak256\n      sload\n        /* \"userfrontend/node_modules/@openzeppelin/contracts/token/ERC20/ERC20.sol\":6548:6585  uint256 fromBalance = _balances[from] */\n      swap1\n      pop\n        /* \"userfrontend/node_modules/@openzeppelin/contracts/token/ERC20/ERC20.sol\":6617:6622  value */\n      dup2\n        /* \"userfrontend/node_modules/@openzeppelin/contracts/token/ERC20/ERC20.sol\":6603:6614  fromBalance */\n      dup2\n        /* \"userfrontend/node_modules/@openzeppelin/contracts/token/ERC20/ERC20.sol\":6603:6622  fromBalance < value */\n      lt\n        /* \"userfrontend/node_modules/@openzeppelin/contracts/token/ERC20/ERC20.sol\":6599:6714  if (fromBalance < value) {... */\n      iszero\n      tag_246\n      jumpi\n        /* \"userfrontend/node_modules/@openzeppelin/contracts/token/ERC20/ERC20.sol\":6674:6678  from */\n      dup4\n        /* \"userfrontend/node_modules/@openzeppelin/contracts/token/ERC20/ERC20.sol\":6680:6691  fromBalance */\n      dup2\n        /* \"userfrontend/node_modules/@openzeppelin/contracts/token/ERC20/ERC20.sol\":6693:6698  value */\n      dup4\n        /* \"userfrontend/node_modules/@openzeppelin/contracts/token/ERC20/ERC20.sol\":6649:6699  ERC20InsufficientBalance(from, fromBalance, value) */\n      mload(0x40)\n      0xe450d38c00000000000000000000000000000000000000000000000000000000\n      dup2\n      mstore\n      0x04\n      add\n      tag_247\n      swap4\n      swap3\n      swap2\n      swap1\n      tag_234\n      jump\t// in\n    tag_247:\n      mload(0x40)\n      dup1\n      swap2\n      sub\n      swap1\n      revert\n        /* \"userfrontend/node_modules/@openzeppelin/contracts/token/ERC20/ERC20.sol\":6599:6714  if (fromBalance < value) {... */\n    tag_246:\n        /* \"userfrontend/node_modules/@openzeppelin/contracts/token/ERC20/ERC20.sol\":6866:6871  value */\n      dup2\n        /* \"userfrontend/node_modules/@openzeppelin/contracts/token/ERC20/ERC20.sol\":6852:6863  fromBalance */\n      dup2\n        /* \"userfrontend/node_modules/@openzeppelin/contracts/token/ERC20/ERC20.sol\":6852:6871  fromBalance - value */\n      sub\n        /* \"userfrontend/node_modules/@openzeppelin/contracts/token/ERC20/ERC20.sol\":6834:6843  _balances */\n      0x00\n        /* \"userfrontend/node_modules/@openzeppelin/contracts/token/ERC20/ERC20.sol\":6834:6849  _balances[from] */\n      dup1\n        /* \"userfrontend/node_modules/@openzeppelin/contracts/token/ERC20/ERC20.sol\":6844:6848  from */\n      dup7\n        /* \"userfrontend/node_modules/@openzeppelin/contracts/token/ERC20/ERC20.sol\":6834:6849  _balances[from] */\n      0xffffffffffffffffffffffffffffffffffffffff\n      and\n      0xffffffffffffffffffffffffffffffffffffffff\n      and\n      dup2\n      mstore\n      0x20\n      add\n      swap1\n      dup2\n      mstore\n      0x20\n      add\n      0x00\n      keccak256\n        /* \"userfrontend/node_modules/@openzeppelin/contracts/token/ERC20/ERC20.sol\":6834:6871  _balances[from] = fromBalance - value */\n      dup2\n      swap1\n      sstore\n      pop\n        /* \"userfrontend/node_modules/@openzeppelin/contracts/token/ERC20/ERC20.sol\":6534:6896  {... */\n      pop\n        /* \"userfrontend/node_modules/@openzeppelin/contracts/token/ERC20/ERC20.sol\":6356:6896  if (from == address(0)) {... */\n    tag_245:\n        /* \"userfrontend/node_modules/@openzeppelin/contracts/token/ERC20/ERC20.sol\":6924:6925  0 */\n      0x00\n        /* \"userfrontend/node_modules/@openzeppelin/contracts/token/ERC20/ERC20.sol\":6910:6926  to == address(0) */\n      0xffffffffffffffffffffffffffffffffffffffff\n      and\n        /* \"userfrontend/node_modules/@openzeppelin/contracts/token/ERC20/ERC20.sol\":6910:6912  to */\n      dup3\n        /* \"userfrontend/node_modules/@openzeppelin/contracts/token/ERC20/ERC20.sol\":6910:6926  to == address(0) */\n      0xffffffffffffffffffffffffffffffffffffffff\n      and\n      sub\n        /* \"userfrontend/node_modules/@openzeppelin/contracts/token/ERC20/ERC20.sol\":6906:7331  if (to == address(0)) {... */\n      tag_248\n      jumpi\n        /* \"userfrontend/node_modules/@openzeppelin/contracts/token/ERC20/ERC20.sol\":7089:7094  value */\n      dup1\n        /* \"userfrontend/node_modules/@openzeppelin/contracts/token/ERC20/ERC20.sol\":7073:7085  _totalSupply */\n      0x02\n      0x00\n        /* \"userfrontend/node_modules/@openzeppelin/contracts/token/ERC20/ERC20.sol\":7073:7094  _totalSupply -= value */\n      dup3\n      dup3\n      sload\n      sub\n      swap3\n      pop\n      pop\n      dup2\n      swap1\n      sstore\n      pop\n        /* \"userfrontend/node_modules/@openzeppelin/contracts/token/ERC20/ERC20.sol\":6906:7331  if (to == address(0)) {... */\n      jump(tag_249)\n    tag_248:\n        /* \"userfrontend/node_modules/@openzeppelin/contracts/token/ERC20/ERC20.sol\":7301:7306  value */\n      dup1\n        /* \"userfrontend/node_modules/@openzeppelin/contracts/token/ERC20/ERC20.sol\":7284:7293  _balances */\n      0x00\n        /* \"userfrontend/node_modules/@openzeppelin/contracts/token/ERC20/ERC20.sol\":7284:7297  _balances[to] */\n      dup1\n        /* \"userfrontend/node_modules/@openzeppelin/contracts/token/ERC20/ERC20.sol\":7294:7296  to */\n      dup5\n        /* \"userfrontend/node_modules/@openzeppelin/contracts/token/ERC20/ERC20.sol\":7284:7297  _balances[to] */\n      0xffffffffffffffffffffffffffffffffffffffff\n      and\n      0xffffffffffffffffffffffffffffffffffffffff\n      and\n      dup2\n      mstore\n      0x20\n      add\n      swap1\n      dup2\n      mstore\n      0x20\n      add\n      0x00\n      keccak256\n      0x00\n        /* \"userfrontend/node_modules/@openzeppelin/contracts/token/ERC20/ERC20.sol\":7284:7306  _balances[to] += value */\n      dup3\n      dup3\n      sload\n      add\n      swap3\n      pop\n      pop\n      dup2\n      swap1\n      sstore\n      pop\n        /* \"userfrontend/node_modules/@openzeppelin/contracts/token/ERC20/ERC20.sol\":6906:7331  if (to == address(0)) {... */\n    tag_249:\n        /* \"userfrontend/node_modules/@openzeppelin/contracts/token/ERC20/ERC20.sol\":7361:7363  to */\n      dup2\n        /* \"userfrontend/node_modules/@openzeppelin/contracts/token/ERC20/ERC20.sol\":7346:7371  Transfer(from, to, value) */\n      0xffffffffffffffffffffffffffffffffffffffff\n      and\n        /* \"userfrontend/node_modules/@openzeppelin/contracts/token/ERC20/ERC20.sol\":7355:7359  from */\n      dup4\n        /* \"userfrontend/node_modules/@openzeppelin/contracts/token/ERC20/ERC20.sol\":7346:7371  Transfer(from, to, value) */\n      0xffffffffffffffffffffffffffffffffffffffff\n      and\n      0xddf252ad1be2c89b69c2b068fc378daa952ba7f163c4a11628f55a4df523b3ef\n        /* \"userfrontend/node_modules/@openzeppelin/contracts/token/ERC20/ERC20.sol\":7365:7370  value */\n      dup4\n        /* \"userfrontend/node_modules/@openzeppelin/contracts/token/ERC20/ERC20.sol\":7346:7371  Transfer(from, to, value) */\n      mload(0x40)\n      tag_250\n      swap2\n      swap1\n      tag_41\n      jump\t// in\n    tag_250:\n      mload(0x40)\n      dup1\n      swap2\n      sub\n      swap1\n      log3\n        /* \"userfrontend/node_modules/@openzeppelin/contracts/token/ERC20/ERC20.sol\":6271:7378  function _update(address from, address to, uint256 value) internal virtual {... */\n      pop\n      pop\n      pop\n      jump\t// out\n        /* \"#utility.yul\":7:106   */\n    tag_251:\n        /* \"#utility.yul\":59:65   */\n      0x00\n        /* \"#utility.yul\":93:98   */\n      dup2\n        /* \"#utility.yul\":87:99   */\n      mload\n        /* \"#utility.yul\":77:99   */\n      swap1\n      pop\n        /* \"#utility.yul\":7:106   */\n      swap2\n      swap1\n      pop\n      jump\t// out\n        /* \"#utility.yul\":112:281   */\n    tag_252:\n        /* \"#utility.yul\":196:207   */\n      0x00\n        /* \"#utility.yul\":230:236   */\n      dup3\n        /* \"#utility.yul\":225:228   */\n      dup3\n        /* \"#utility.yul\":218:237   */\n      mstore\n        /* \"#utility.yul\":270:274   */\n      0x20\n        /* \"#utility.yul\":265:268   */\n      dup3\n        /* \"#utility.yul\":261:275   */\n      add\n        /* \"#utility.yul\":246:275   */\n      swap1\n      pop\n        /* \"#utility.yul\":112:281   */\n      swap3\n      swap2\n      pop\n      pop\n      jump\t// out\n        /* \"#utility.yul\":287:533   */\n    tag_253:\n        /* \"#utility.yul\":368:369   */\n      0x00\n        /* \"#utility.yul\":378:491   */\n    tag_314:\n        /* \"#utility.yul\":392:398   */\n      dup4\n        /* \"#utility.yul\":389:390   */\n      dup2\n        /* \"#utility.yul\":386:399   */\n      lt\n        /* \"#utility.yul\":378:491   */\n      iszero\n      tag_316\n      jumpi\n        /* \"#utility.yul\":477:478   */\n      dup1\n        /* \"#utility.yul\":472:475   */\n      dup3\n        /* \"#utility.yul\":468:479   */\n      add\n        /* \"#utility.yul\":462:480   */\n      mload\n        /* \"#utility.yul\":458:459   */\n      dup2\n        /* \"#utility.yul\":453:456   */\n      dup5\n        /* \"#utility.yul\":449:460   */\n      add\n        /* \"#utility.yul\":442:481   */\n      mstore\n        /* \"#utility.yul\":414:416   */\n      0x20\n        /* \"#utility.yul\":411:412   */\n      dup2\n        /* \"#utility.yul\":407:417   */\n      add\n        /* \"#utility.yul\":402:417   */\n      swap1\n      pop\n        /* \"#utility.yul\":378:491   */\n      jump(tag_314)\n    tag_316:\n        /* \"#utility.yul\":525:526   */\n      0x00\n        /* \"#utility.yul\":516:522   */\n      dup5\n        /* \"#utility.yul\":511:514   */\n      dup5\n        /* \"#utility.yul\":507:523   */\n      add\n        /* \"#utility.yul\":500:527   */\n      mstore\n        /* \"#utility.yul\":349:533   */\n      pop\n        /* \"#utility.yul\":287:533   */\n      pop\n      pop\n      pop\n      jump\t// out\n        /* \"#utility.yul\":539:641   */\n    tag_254:\n        /* \"#utility.yul\":580:586   */\n      0x00\n        /* \"#utility.yul\":631:633   */\n      0x1f\n        /* \"#utility.yul\":627:634   */\n      not\n        /* \"#utility.yul\":622:624   */\n      0x1f\n        /* \"#utility.yul\":615:620   */\n      dup4\n        /* \"#utility.yul\":611:625   */\n      add\n        /* \"#utility.yul\":607:635   */\n      and\n        /* \"#utility.yul\":597:635   */\n      swap1\n      pop\n        /* \"#utility.yul\":539:641   */\n      swap2\n      swap1\n      pop\n      jump\t// out\n        /* \"#utility.yul\":647:1024   */\n    tag_255:\n        /* \"#utility.yul\":735:738   */\n      0x00\n        /* \"#utility.yul\":763:802   */\n      tag_319\n        /* \"#utility.yul\":796:801   */\n      dup3\n        /* \"#utility.yul\":763:802   */\n      tag_251\n      jump\t// in\n    tag_319:\n        /* \"#utility.yul\":818:889   */\n      tag_320\n        /* \"#utility.yul\":882:888   */\n      dup2\n        /* \"#utility.yul\":877:880   */\n      dup6\n        /* \"#utility.yul\":818:889   */\n      tag_252\n      jump\t// in\n    tag_320:\n        /* \"#utility.yul\":811:889   */\n      swap4\n      pop\n        /* \"#utility.yul\":898:963   */\n      tag_321\n        /* \"#utility.yul\":956:962   */\n      dup2\n        /* \"#utility.yul\":951:954   */\n      dup6\n        /* \"#utility.yul\":944:948   */\n      0x20\n        /* \"#utility.yul\":937:942   */\n      dup7\n        /* \"#utility.yul\":933:949   */\n      add\n        /* \"#utility.yul\":898:963   */\n      tag_253\n      jump\t// in\n    tag_321:\n        /* \"#utility.yul\":988:1017   */\n      tag_322\n        /* \"#utility.yul\":1010:1016   */\n      dup2\n        /* \"#utility.yul\":988:1017   */\n      tag_254\n      jump\t// in\n    tag_322:\n        /* \"#utility.yul\":983:986   */\n      dup5\n        /* \"#utility.yul\":979:1018   */\n      add\n        /* \"#utility.yul\":972:1018   */\n      swap2\n      pop\n        /* \"#utility.yul\":739:1024   */\n      pop\n        /* \"#utility.yul\":647:1024   */\n      swap3\n      swap2\n      pop\n      pop\n      jump\t// out\n        /* \"#utility.yul\":1030:1343   */\n    tag_27:\n        /* \"#utility.yul\":1143:1147   */\n      0x00\n        /* \"#utility.yul\":1181:1183   */\n      0x20\n        /* \"#utility.yul\":1170:1179   */\n      dup3\n        /* \"#utility.yul\":1166:1184   */\n      add\n        /* \"#utility.yul\":1158:1184   */\n      swap1\n      pop\n        /* \"#utility.yul\":1230:1239   */\n      dup2\n        /* \"#utility.yul\":1224:1228   */\n      dup2\n        /* \"#utility.yul\":1220:1240   */\n      sub\n        /* \"#utility.yul\":1216:1217   */\n      0x00\n        /* \"#utility.yul\":1205:1214   */\n      dup4\n        /* \"#utility.yul\":1201:1218   */\n      add\n        /* \"#utility.yul\":1194:1241   */\n      mstore\n        /* \"#utility.yul\":1258:1336   */\n      tag_324\n        /* \"#utility.yul\":1331:1335   */\n      dup2\n        /* \"#utility.yul\":1322:1328   */\n      dup5\n        /* \"#utility.yul\":1258:1336   */\n      tag_255\n      jump\t// in\n    tag_324:\n        /* \"#utility.yul\":1250:1336   */\n      swap1\n      pop\n        /* \"#utility.yul\":1030:1343   */\n      swap3\n      swap2\n      pop\n      pop\n      jump\t// out\n        /* \"#utility.yul\":1349:1424   */\n    tag_256:\n        /* \"#utility.yul\":1382:1388   */\n      0x00\n        /* \"#utility.yul\":1415:1417   */\n      0x40\n        /* \"#utility.yul\":1409:1418   */\n      mload\n        /* \"#utility.yul\":1399:1418   */\n      swap1\n      pop\n        /* \"#utility.yul\":1349:1424   */\n      swap1\n      jump\t// out\n        /* \"#utility.yul\":1430:1547   */\n    tag_257:\n        /* \"#utility.yul\":1539:1540   */\n      0x00\n        /* \"#utility.yul\":1536:1537   */\n      dup1\n        /* \"#utility.yul\":1529:1541   */\n      revert\n        /* \"#utility.yul\":1553:1670   */\n    tag_258:\n        /* \"#utility.yul\":1662:1663   */\n      0x00\n        /* \"#utility.yul\":1659:1660   */\n      dup1\n        /* \"#utility.yul\":1652:1664   */\n      revert\n        /* \"#utility.yul\":1676:1802   */\n    tag_259:\n        /* \"#utility.yul\":1713:1720   */\n      0x00\n        /* \"#utility.yul\":1753:1795   */\n      0xffffffffffffffffffffffffffffffffffffffff\n        /* \"#utility.yul\":1746:1751   */\n      dup3\n        /* \"#utility.yul\":1742:1796   */\n      and\n        /* \"#utility.yul\":1731:1796   */\n      swap1\n      pop\n        /* \"#utility.yul\":1676:1802   */\n      swap2\n      swap1\n      pop\n      jump\t// out\n        /* \"#utility.yul\":1808:1904   */\n    tag_260:\n        /* \"#utility.yul\":1845:1852   */\n      0x00\n        /* \"#utility.yul\":1874:1898   */\n      tag_330\n        /* \"#utility.yul\":1892:1897   */\n      dup3\n        /* \"#utility.yul\":1874:1898   */\n      tag_259\n      jump\t// in\n    tag_330:\n        /* \"#utility.yul\":1863:1898   */\n      swap1\n      pop\n        /* \"#utility.yul\":1808:1904   */\n      swap2\n      swap1\n      pop\n      jump\t// out\n        /* \"#utility.yul\":1910:2032   */\n    tag_261:\n        /* \"#utility.yul\":1983:2007   */\n      tag_332\n        /* \"#utility.yul\":2001:2006   */\n      dup2\n        /* \"#utility.yul\":1983:2007   */\n      tag_260\n      jump\t// in\n    tag_332:\n        /* \"#utility.yul\":1976:1981   */\n      dup2\n        /* \"#utility.yul\":1973:2008   */\n      eq\n        /* \"#utility.yul\":1963:2026   */\n      tag_333\n      jumpi\n        /* \"#utility.yul\":2022:2023   */\n      0x00\n        /* \"#utility.yul\":2019:2020   */\n      dup1\n        /* \"#utility.yul\":2012:2024   */\n      revert\n        /* \"#utility.yul\":1963:2026   */\n    tag_333:\n        /* \"#utility.yul\":1910:2032   */\n      pop\n      jump\t// out\n        /* \"#utility.yul\":2038:2177   */\n    tag_262:\n        /* \"#utility.yul\":2084:2089   */\n      0x00\n        /* \"#utility.yul\":2122:2128   */\n      dup2\n        /* \"#utility.yul\":2109:2129   */\n      calldataload\n        /* \"#utility.yul\":2100:2129   */\n      swap1\n      pop\n        /* \"#utility.yul\":2138:2171   */\n      tag_335\n        /* \"#utility.yul\":2165:2170   */\n      dup2\n        /* \"#utility.yul\":2138:2171   */\n      tag_261\n      jump\t// in\n    tag_335:\n        /* \"#utility.yul\":2038:2177   */\n      swap3\n      swap2\n      pop\n      pop\n      jump\t// out\n        /* \"#utility.yul\":2183:2260   */\n    tag_263:\n        /* \"#utility.yul\":2220:2227   */\n      0x00\n        /* \"#utility.yul\":2249:2254   */\n      dup2\n        /* \"#utility.yul\":2238:2254   */\n      swap1\n      pop\n        /* \"#utility.yul\":2183:2260   */\n      swap2\n      swap1\n      pop\n      jump\t// out\n        /* \"#utility.yul\":2266:2388   */\n    tag_264:\n        /* \"#utility.yul\":2339:2363   */\n      tag_338\n        /* \"#utility.yul\":2357:2362   */\n      dup2\n        /* \"#utility.yul\":2339:2363   */\n      tag_263\n      jump\t// in\n    tag_338:\n        /* \"#utility.yul\":2332:2337   */\n      dup2\n        /* \"#utility.yul\":2329:2364   */\n      eq\n        /* \"#utility.yul\":2319:2382   */\n      tag_339\n      jumpi\n        /* \"#utility.yul\":2378:2379   */\n      0x00\n        /* \"#utility.yul\":2375:2376   */\n      dup1\n        /* \"#utility.yul\":2368:2380   */\n      revert\n        /* \"#utility.yul\":2319:2382   */\n    tag_339:\n        /* \"#utility.yul\":2266:2388   */\n      pop\n      jump\t// out\n        /* \"#utility.yul\":2394:2533   */\n    tag_265:\n        /* \"#utility.yul\":2440:2445   */\n      0x00\n        /* \"#utility.yul\":2478:2484   */\n      dup2\n        /* \"#utility.yul\":2465:2485   */\n      calldataload\n        /* \"#utility.yul\":2456:2485   */\n      swap1\n      pop\n        /* \"#utility.yul\":2494:2527   */\n      tag_341\n        /* \"#utility.yul\":2521:2526   */\n      dup2\n        /* \"#utility.yul\":2494:2527   */\n      tag_264\n      jump\t// in\n    tag_341:\n        /* \"#utility.yul\":2394:2533   */\n      swap3\n      swap2\n      pop\n      pop\n      jump\t// out\n        /* \"#utility.yul\":2539:3013   */\n    tag_30:\n        /* \"#utility.yul\":2607:2613   */\n      0x00\n        /* \"#utility.yul\":2615:2621   */\n      dup1\n        /* \"#utility.yul\":2664:2666   */\n      0x40\n        /* \"#utility.yul\":2652:2661   */\n      dup4\n        /* \"#utility.yul\":2643:2650   */\n      dup6\n        /* \"#utility.yul\":2639:2662   */\n      sub\n        /* \"#utility.yul\":2635:2667   */\n      slt\n        /* \"#utility.yul\":2632:2751   */\n      iszero\n      tag_343\n      jumpi\n        /* \"#utility.yul\":2670:2749   */\n      tag_344\n      tag_257\n      jump\t// in\n    tag_344:\n        /* \"#utility.yul\":2632:2751   */\n    tag_343:\n        /* \"#utility.yul\":2790:2791   */\n      0x00\n        /* \"#utility.yul\":2815:2868   */\n      tag_345\n        /* \"#utility.yul\":2860:2867   */\n      dup6\n        /* \"#utility.yul\":2851:2857   */\n      dup3\n        /* \"#utility.yul\":2840:2849   */\n      dup7\n        /* \"#utility.yul\":2836:2858   */\n      add\n        /* \"#utility.yul\":2815:2868   */\n      tag_262\n      jump\t// in\n    tag_345:\n        /* \"#utility.yul\":2805:2868   */\n      swap3\n      pop\n        /* \"#utility.yul\":2761:2878   */\n      pop\n        /* \"#utility.yul\":2917:2919   */\n      0x20\n        /* \"#utility.yul\":2943:2996   */\n      tag_346\n        /* \"#utility.yul\":2988:2995   */\n      dup6\n        /* \"#utility.yul\":2979:2985   */\n      dup3\n        /* \"#utility.yul\":2968:2977   */\n      dup7\n        /* \"#utility.yul\":2964:2986   */\n      add\n        /* \"#utility.yul\":2943:2996   */\n      tag_265\n      jump\t// in\n    tag_346:\n        /* \"#utility.yul\":2933:2996   */\n      swap2\n      pop\n        /* \"#utility.yul\":2888:3006   */\n      pop\n        /* \"#utility.yul\":2539:3013   */\n      swap3\n      pop\n      swap3\n      swap1\n      pop\n      jump\t// out\n        /* \"#utility.yul\":3019:3109   */\n    tag_266:\n        /* \"#utility.yul\":3053:3060   */\n      0x00\n        /* \"#utility.yul\":3096:3101   */\n      dup2\n        /* \"#utility.yul\":3089:3102   */\n      iszero\n        /* \"#utility.yul\":3082:3103   */\n      iszero\n        /* \"#utility.yul\":3071:3103   */\n      swap1\n      pop\n        /* \"#utility.yul\":3019:3109   */\n      swap2\n      swap1\n      pop\n      jump\t// out\n        /* \"#utility.yul\":3115:3224   */\n    tag_267:\n        /* \"#utility.yul\":3196:3217   */\n      tag_349\n        /* \"#utility.yul\":3211:3216   */\n      dup2\n        /* \"#utility.yul\":3196:3217   */\n      tag_266\n      jump\t// in\n    tag_349:\n        /* \"#utility.yul\":3191:3194   */\n      dup3\n        /* \"#utility.yul\":3184:3218   */\n      mstore\n        /* \"#utility.yul\":3115:3224   */\n      pop\n      pop\n      jump\t// out\n        /* \"#utility.yul\":3230:3440   */\n    tag_33:\n        /* \"#utility.yul\":3317:3321   */\n      0x00\n        /* \"#utility.yul\":3355:3357   */\n      0x20\n        /* \"#utility.yul\":3344:3353   */\n      dup3\n        /* \"#utility.yul\":3340:3358   */\n      add\n        /* \"#utility.yul\":3332:3358   */\n      swap1\n      pop\n        /* \"#utility.yul\":3368:3433   */\n      tag_351\n        /* \"#utility.yul\":3430:3431   */\n      0x00\n        /* \"#utility.yul\":3419:3428   */\n      dup4\n        /* \"#utility.yul\":3415:3432   */\n      add\n        /* \"#utility.yul\":3406:3412   */\n      dup5\n        /* \"#utility.yul\":3368:3433   */\n      tag_267\n      jump\t// in\n    tag_351:\n        /* \"#utility.yul\":3230:3440   */\n      swap3\n      swap2\n      pop\n      pop\n      jump\t// out\n        /* \"#utility.yul\":3446:3563   */\n    tag_268:\n        /* \"#utility.yul\":3555:3556   */\n      0x00\n        /* \"#utility.yul\":3552:3553   */\n      dup1\n        /* \"#utility.yul\":3545:3557   */\n      revert\n        /* \"#utility.yul\":3569:3686   */\n    tag_269:\n        /* \"#utility.yul\":3678:3679   */\n      0x00\n        /* \"#utility.yul\":3675:3676   */\n      dup1\n        /* \"#utility.yul\":3668:3680   */\n      revert\n        /* \"#utility.yul\":3692:3872   */\n    tag_270:\n        /* \"#utility.yul\":3740:3817   */\n      0x4e487b7100000000000000000000000000000000000000000000000000000000\n        /* \"#utility.yul\":3737:3738   */\n      0x00\n        /* \"#utility.yul\":3730:3818   */\n      mstore\n        /* \"#utility.yul\":3837:3841   */\n      0x41\n        /* \"#utility.yul\":3834:3835   */\n      0x04\n        /* \"#utility.yul\":3827:3842   */\n      mstore\n        /* \"#utility.yul\":3861:3865   */\n      0x24\n        /* \"#utility.yul\":3858:3859   */\n      0x00\n        /* \"#utility.yul\":3851:3866   */\n      revert\n        /* \"#utility.yul\":3878:4159   */\n    tag_271:\n        /* \"#utility.yul\":3961:3988   */\n      tag_356\n        /* \"#utility.yul\":3983:3987   */\n      dup3\n        /* \"#utility.yul\":3961:3988   */\n      tag_254\n      jump\t// in\n    tag_356:\n        /* \"#utility.yul\":3953:3959   */\n      dup2\n        /* \"#utility.yul\":3949:3989   */\n      add\n        /* \"#utility.yul\":4091:4097   */\n      dup2\n        /* \"#utility.yul\":4079:4089   */\n      dup2\n        /* \"#utility.yul\":4076:4098   */\n      lt\n        /* \"#utility.yul\":4055:4073   */\n      0xffffffffffffffff\n        /* \"#utility.yul\":4043:4053   */\n      dup3\n        /* \"#utility.yul\":4040:4074   */\n      gt\n        /* \"#utility.yul\":4037:4099   */\n      or\n        /* \"#utility.yul\":4034:4122   */\n      iszero\n      tag_357\n      jumpi\n        /* \"#utility.yul\":4102:4120   */\n      tag_358\n      tag_270\n      jump\t// in\n    tag_358:\n        /* \"#utility.yul\":4034:4122   */\n    tag_357:\n        /* \"#utility.yul\":4142:4152   */\n      dup1\n        /* \"#utility.yul\":4138:4140   */\n      0x40\n        /* \"#utility.yul\":4131:4153   */\n      mstore\n        /* \"#utility.yul\":3921:4159   */\n      pop\n        /* \"#utility.yul\":3878:4159   */\n      pop\n      pop\n      jump\t// out\n        /* \"#utility.yul\":4165:4294   */\n    tag_272:\n        /* \"#utility.yul\":4199:4205   */\n      0x00\n        /* \"#utility.yul\":4226:4246   */\n      tag_360\n      tag_256\n      jump\t// in\n    tag_360:\n        /* \"#utility.yul\":4216:4246   */\n      swap1\n      pop\n        /* \"#utility.yul\":4255:4288   */\n      tag_361\n        /* \"#utility.yul\":4283:4287   */\n      dup3\n        /* \"#utility.yul\":4275:4281   */\n      dup3\n        /* \"#utility.yul\":4255:4288   */\n      tag_271\n      jump\t// in\n    tag_361:\n        /* \"#utility.yul\":4165:4294   */\n      swap2\n      swap1\n      pop\n      jump\t// out\n        /* \"#utility.yul\":4300:4608   */\n    tag_273:\n        /* \"#utility.yul\":4362:4366   */\n      0x00\n        /* \"#utility.yul\":4452:4470   */\n      0xffffffffffffffff\n        /* \"#utility.yul\":4444:4450   */\n      dup3\n        /* \"#utility.yul\":4441:4471   */\n      gt\n        /* \"#utility.yul\":4438:4494   */\n      iszero\n      tag_363\n      jumpi\n        /* \"#utility.yul\":4474:4492   */\n      tag_364\n      tag_270\n      jump\t// in\n    tag_364:\n        /* \"#utility.yul\":4438:4494   */\n    tag_363:\n        /* \"#utility.yul\":4512:4541   */\n      tag_365\n        /* \"#utility.yul\":4534:4540   */\n      dup3\n        /* \"#utility.yul\":4512:4541   */\n      tag_254\n      jump\t// in\n    tag_365:\n        /* \"#utility.yul\":4504:4541   */\n      swap1\n      pop\n        /* \"#utility.yul\":4596:4600   */\n      0x20\n        /* \"#utility.yul\":4590:4594   */\n      dup2\n        /* \"#utility.yul\":4586:4601   */\n      add\n        /* \"#utility.yul\":4578:4601   */\n      swap1\n      pop\n        /* \"#utility.yul\":4300:4608   */\n      swap2\n      swap1\n      pop\n      jump\t// out\n        /* \"#utility.yul\":4614:4760   */\n    tag_274:\n        /* \"#utility.yul\":4711:4717   */\n      dup3\n        /* \"#utility.yul\":4706:4709   */\n      dup2\n        /* \"#utility.yul\":4701:4704   */\n      dup4\n        /* \"#utility.yul\":4688:4718   */\n      calldatacopy\n        /* \"#utility.yul\":4752:4753   */\n      0x00\n        /* \"#utility.yul\":4743:4749   */\n      dup4\n        /* \"#utility.yul\":4738:4741   */\n      dup4\n        /* \"#utility.yul\":4734:4750   */\n      add\n        /* \"#utility.yul\":4727:4754   */\n      mstore\n        /* \"#utility.yul\":4614:4760   */\n      pop\n      pop\n      pop\n      jump\t// out\n        /* \"#utility.yul\":4766:5191   */\n    tag_275:\n        /* \"#utility.yul\":4844:4849   */\n      0x00\n        /* \"#utility.yul\":4869:4935   */\n      tag_368\n        /* \"#utility.yul\":4885:4934   */\n      tag_369\n        /* \"#utility.yul\":4927:4933   */\n      dup5\n        /* \"#utility.yul\":4885:4934   */\n      tag_273\n      jump\t// in\n    tag_369:\n        /* \"#utility.yul\":4869:4935   */\n      tag_272\n      jump\t// in\n    tag_368:\n        /* \"#utility.yul\":4860:4935   */\n      swap1\n      pop\n        /* \"#utility.yul\":4958:4964   */\n      dup3\n        /* \"#utility.yul\":4951:4956   */\n      dup2\n        /* \"#utility.yul\":4944:4965   */\n      mstore\n        /* \"#utility.yul\":4996:5000   */\n      0x20\n        /* \"#utility.yul\":4989:4994   */\n      dup2\n        /* \"#utility.yul\":4985:5001   */\n      add\n        /* \"#utility.yul\":5034:5037   */\n      dup5\n        /* \"#utility.yul\":5025:5031   */\n      dup5\n        /* \"#utility.yul\":5020:5023   */\n      dup5\n        /* \"#utility.yul\":5016:5032   */\n      add\n        /* \"#utility.yul\":5013:5038   */\n      gt\n        /* \"#utility.yul\":5010:5122   */\n      iszero\n      tag_370\n      jumpi\n        /* \"#utility.yul\":5041:5120   */\n      tag_371\n      tag_269\n      jump\t// in\n    tag_371:\n        /* \"#utility.yul\":5010:5122   */\n    tag_370:\n        /* \"#utility.yul\":5131:5185   */\n      tag_372\n        /* \"#utility.yul\":5178:5184   */\n      dup5\n        /* \"#utility.yul\":5173:5176   */\n      dup3\n        /* \"#utility.yul\":5168:5171   */\n      dup6\n        /* \"#utility.yul\":5131:5185   */\n      tag_274\n      jump\t// in\n    tag_372:\n        /* \"#utility.yul\":4850:5191   */\n      pop\n        /* \"#utility.yul\":4766:5191   */\n      swap4\n      swap3\n      pop\n      pop\n      pop\n      jump\t// out\n        /* \"#utility.yul\":5211:5551   */\n    tag_276:\n        /* \"#utility.yul\":5267:5272   */\n      0x00\n        /* \"#utility.yul\":5316:5319   */\n      dup3\n        /* \"#utility.yul\":5309:5313   */\n      0x1f\n        /* \"#utility.yul\":5301:5307   */\n      dup4\n        /* \"#utility.yul\":5297:5314   */\n      add\n        /* \"#utility.yul\":5293:5320   */\n      slt\n        /* \"#utility.yul\":5283:5405   */\n      tag_374\n      jumpi\n        /* \"#utility.yul\":5324:5403   */\n      tag_375\n      tag_268\n      jump\t// in\n    tag_375:\n        /* \"#utility.yul\":5283:5405   */\n    tag_374:\n        /* \"#utility.yul\":5441:5447   */\n      dup2\n        /* \"#utility.yul\":5428:5448   */\n      calldataload\n        /* \"#utility.yul\":5466:5545   */\n      tag_376\n        /* \"#utility.yul\":5541:5544   */\n      dup5\n        /* \"#utility.yul\":5533:5539   */\n      dup3\n        /* \"#utility.yul\":5526:5530   */\n      0x20\n        /* \"#utility.yul\":5518:5524   */\n      dup7\n        /* \"#utility.yul\":5514:5531   */\n      add\n        /* \"#utility.yul\":5466:5545   */\n      tag_275\n      jump\t// in\n    tag_376:\n        /* \"#utility.yul\":5457:5545   */\n      swap2\n      pop\n        /* \"#utility.yul\":5273:5551   */\n      pop\n        /* \"#utility.yul\":5211:5551   */\n      swap3\n      swap2\n      pop\n      pop\n      jump\t// out\n        /* \"#utility.yul\":5557:6066   */\n    tag_36:\n        /* \"#utility.yul\":5626:5632   */\n      0x00\n        /* \"#utility.yul\":5675:5677   */\n      0x20\n        /* \"#utility.yul\":5663:5672   */\n      dup3\n        /* \"#utility.yul\":5654:5661   */\n      dup5\n        /* \"#utility.yul\":5650:5673   */\n      sub\n        /* \"#utility.yul\":5646:5678   */\n      slt\n        /* \"#utility.yul\":5643:5762   */\n      iszero\n      tag_378\n      jumpi\n        /* \"#utility.yul\":5681:5760   */\n      tag_379\n      tag_257\n      jump\t// in\n    tag_379:\n        /* \"#utility.yul\":5643:5762   */\n    tag_378:\n        /* \"#utility.yul\":5829:5830   */\n      0x00\n        /* \"#utility.yul\":5818:5827   */\n      dup3\n        /* \"#utility.yul\":5814:5831   */\n      add\n        /* \"#utility.yul\":5801:5832   */\n      calldataload\n        /* \"#utility.yul\":5859:5877   */\n      0xffffffffffffffff\n        /* \"#utility.yul\":5851:5857   */\n      dup2\n        /* \"#utility.yul\":5848:5878   */\n      gt\n        /* \"#utility.yul\":5845:5962   */\n      iszero\n      tag_380\n      jumpi\n        /* \"#utility.yul\":5881:5960   */\n      tag_381\n      tag_258\n      jump\t// in\n    tag_381:\n        /* \"#utility.yul\":5845:5962   */\n    tag_380:\n        /* \"#utility.yul\":5986:6049   */\n      tag_382\n        /* \"#utility.yul\":6041:6048   */\n      dup5\n        /* \"#utility.yul\":6032:6038   */\n      dup3\n        /* \"#utility.yul\":6021:6030   */\n      dup6\n        /* \"#utility.yul\":6017:6039   */\n      add\n        /* \"#utility.yul\":5986:6049   */\n      tag_276\n      jump\t// in\n    tag_382:\n        /* \"#utility.yul\":5976:6049   */\n      swap2\n      pop\n        /* \"#utility.yul\":5772:6059   */\n      pop\n        /* \"#utility.yul\":5557:6066   */\n      swap3\n      swap2\n      pop\n      pop\n      jump\t// out\n        /* \"#utility.yul\":6072:6190   */\n    tag_277:\n        /* \"#utility.yul\":6159:6183   */\n      tag_384\n        /* \"#utility.yul\":6177:6182   */\n      dup2\n        /* \"#utility.yul\":6159:6183   */\n      tag_263\n      jump\t// in\n    tag_384:\n        /* \"#utility.yul\":6154:6157   */\n      dup3\n        /* \"#utility.yul\":6147:6184   */\n      mstore\n        /* \"#utility.yul\":6072:6190   */\n      pop\n      pop\n      jump\t// out\n        /* \"#utility.yul\":6196:6418   */\n    tag_41:\n        /* \"#utility.yul\":6289:6293   */\n      0x00\n        /* \"#utility.yul\":6327:6329   */\n      0x20\n        /* \"#utility.yul\":6316:6325   */\n      dup3\n        /* \"#utility.yul\":6312:6330   */\n      add\n        /* \"#utility.yul\":6304:6330   */\n      swap1\n      pop\n        /* \"#utility.yul\":6340:6411   */\n      tag_386\n        /* \"#utility.yul\":6408:6409   */\n      0x00\n        /* \"#utility.yul\":6397:6406   */\n      dup4\n        /* \"#utility.yul\":6393:6410   */\n      add\n        /* \"#utility.yul\":6384:6390   */\n      dup5\n        /* \"#utility.yul\":6340:6411   */\n      tag_277\n      jump\t// in\n    tag_386:\n        /* \"#utility.yul\":6196:6418   */\n      swap3\n      swap2\n      pop\n      pop\n      jump\t// out\n        /* \"#utility.yul\":6424:7043   */\n    tag_44:\n        /* \"#utility.yul\":6501:6507   */\n      0x00\n        /* \"#utility.yul\":6509:6515   */\n      dup1\n        /* \"#utility.yul\":6517:6523   */\n      0x00\n        /* \"#utility.yul\":6566:6568   */\n      0x60\n        /* \"#utility.yul\":6554:6563   */\n      dup5\n        /* \"#utility.yul\":6545:6552   */\n      dup7\n        /* \"#utility.yul\":6541:6564   */\n      sub\n        /* \"#utility.yul\":6537:6569   */\n      slt\n        /* \"#utility.yul\":6534:6653   */\n      iszero\n      tag_388\n      jumpi\n        /* \"#utility.yul\":6572:6651   */\n      tag_389\n      tag_257\n      jump\t// in\n    tag_389:\n        /* \"#utility.yul\":6534:6653   */\n    tag_388:\n        /* \"#utility.yul\":6692:6693   */\n      0x00\n        /* \"#utility.yul\":6717:6770   */\n      tag_390\n        /* \"#utility.yul\":6762:6769   */\n      dup7\n        /* \"#utility.yul\":6753:6759   */\n      dup3\n        /* \"#utility.yul\":6742:6751   */\n      dup8\n        /* \"#utility.yul\":6738:6760   */\n      add\n        /* \"#utility.yul\":6717:6770   */\n      tag_262\n      jump\t// in\n    tag_390:\n        /* \"#utility.yul\":6707:6770   */\n      swap4\n      pop\n        /* \"#utility.yul\":6663:6780   */\n      pop\n        /* \"#utility.yul\":6819:6821   */\n      0x20\n        /* \"#utility.yul\":6845:6898   */\n      tag_391\n        /* \"#utility.yul\":6890:6897   */\n      dup7\n        /* \"#utility.yul\":6881:6887   */\n      dup3\n        /* \"#utility.yul\":6870:6879   */\n      dup8\n        /* \"#utility.yul\":6866:6888   */\n      add\n        /* \"#utility.yul\":6845:6898   */\n      tag_262\n      jump\t// in\n    tag_391:\n        /* \"#utility.yul\":6835:6898   */\n      swap3\n      pop\n        /* \"#utility.yul\":6790:6908   */\n      pop\n        /* \"#utility.yul\":6947:6949   */\n      0x40\n        /* \"#utility.yul\":6973:7026   */\n      tag_392\n        /* \"#utility.yul\":7018:7025   */\n      dup7\n        /* \"#utility.yul\":7009:7015   */\n      dup3\n        /* \"#utility.yul\":6998:7007   */\n      dup8\n        /* \"#utility.yul\":6994:7016   */\n      add\n        /* \"#utility.yul\":6973:7026   */\n      tag_265\n      jump\t// in\n    tag_392:\n        /* \"#utility.yul\":6963:7026   */\n      swap2\n      pop\n        /* \"#utility.yul\":6918:7036   */\n      pop\n        /* \"#utility.yul\":6424:7043   */\n      swap3\n      pop\n      swap3\n      pop\n      swap3\n      jump\t// out\n        /* \"#utility.yul\":7049:7135   */\n    tag_278:\n        /* \"#utility.yul\":7084:7091   */\n      0x00\n        /* \"#utility.yul\":7124:7128   */\n      0xff\n        /* \"#utility.yul\":7117:7122   */\n      dup3\n        /* \"#utility.yul\":7113:7129   */\n      and\n        /* \"#utility.yul\":7102:7129   */\n      swap1\n      pop\n        /* \"#utility.yul\":7049:7135   */\n      swap2\n      swap1\n      pop\n      jump\t// out\n        /* \"#utility.yul\":7141:7253   */\n    tag_279:\n        /* \"#utility.yul\":7224:7246   */\n      tag_395\n        /* \"#utility.yul\":7240:7245   */\n      dup2\n        /* \"#utility.yul\":7224:7246   */\n      tag_278\n      jump\t// in\n    tag_395:\n        /* \"#utility.yul\":7219:7222   */\n      dup3\n        /* \"#utility.yul\":7212:7247   */\n      mstore\n        /* \"#utility.yul\":7141:7253   */\n      pop\n      pop\n      jump\t// out\n        /* \"#utility.yul\":7259:7473   */\n    tag_50:\n        /* \"#utility.yul\":7348:7352   */\n      0x00\n        /* \"#utility.yul\":7386:7388   */\n      0x20\n        /* \"#utility.yul\":7375:7384   */\n      dup3\n        /* \"#utility.yul\":7371:7389   */\n      add\n        /* \"#utility.yul\":7363:7389   */\n      swap1\n      pop\n        /* \"#utility.yul\":7399:7466   */\n      tag_397\n        /* \"#utility.yul\":7463:7464   */\n      0x00\n        /* \"#utility.yul\":7452:7461   */\n      dup4\n        /* \"#utility.yul\":7448:7465   */\n      add\n        /* \"#utility.yul\":7439:7445   */\n      dup5\n        /* \"#utility.yul\":7399:7466   */\n      tag_279\n      jump\t// in\n    tag_397:\n        /* \"#utility.yul\":7259:7473   */\n      swap3\n      swap2\n      pop\n      pop\n      jump\t// out\n        /* \"#utility.yul\":7479:7808   */\n    tag_53:\n        /* \"#utility.yul\":7538:7544   */\n      0x00\n        /* \"#utility.yul\":7587:7589   */\n      0x20\n        /* \"#utility.yul\":7575:7584   */\n      dup3\n        /* \"#utility.yul\":7566:7573   */\n      dup5\n        /* \"#utility.yul\":7562:7585   */\n      sub\n        /* \"#utility.yul\":7558:7590   */\n      slt\n        /* \"#utility.yul\":7555:7674   */\n      iszero\n      tag_399\n      jumpi\n        /* \"#utility.yul\":7593:7672   */\n      tag_400\n      tag_257\n      jump\t// in\n    tag_400:\n        /* \"#utility.yul\":7555:7674   */\n    tag_399:\n        /* \"#utility.yul\":7713:7714   */\n      0x00\n        /* \"#utility.yul\":7738:7791   */\n      tag_401\n        /* \"#utility.yul\":7783:7790   */\n      dup5\n        /* \"#utility.yul\":7774:7780   */\n      dup3\n        /* \"#utility.yul\":7763:7772   */\n      dup6\n        /* \"#utility.yul\":7759:7781   */\n      add\n        /* \"#utility.yul\":7738:7791   */\n      tag_262\n      jump\t// in\n    tag_401:\n        /* \"#utility.yul\":7728:7791   */\n      swap2\n      pop\n        /* \"#utility.yul\":7684:7801   */\n      pop\n        /* \"#utility.yul\":7479:7808   */\n      swap3\n      swap2\n      pop\n      pop\n      jump\t// out\n        /* \"#utility.yul\":7814:7932   */\n    tag_280:\n        /* \"#utility.yul\":7901:7925   */\n      tag_403\n        /* \"#utility.yul\":7919:7924   */\n      dup2\n        /* \"#utility.yul\":7901:7925   */\n      tag_260\n      jump\t// in\n    tag_403:\n        /* \"#utility.yul\":7896:7899   */\n      dup3\n        /* \"#utility.yul\":7889:7926   */\n      mstore\n        /* \"#utility.yul\":7814:7932   */\n      pop\n      pop\n      jump\t// out\n        /* \"#utility.yul\":7938:8160   */\n    tag_61:\n        /* \"#utility.yul\":8031:8035   */\n      0x00\n        /* \"#utility.yul\":8069:8071   */\n      0x20\n        /* \"#utility.yul\":8058:8067   */\n      dup3\n        /* \"#utility.yul\":8054:8072   */\n      add\n        /* \"#utility.yul\":8046:8072   */\n      swap1\n      pop\n        /* \"#utility.yul\":8082:8153   */\n      tag_405\n        /* \"#utility.yul\":8150:8151   */\n      0x00\n        /* \"#utility.yul\":8139:8148   */\n      dup4\n        /* \"#utility.yul\":8135:8152   */\n      add\n        /* \"#utility.yul\":8126:8132   */\n      dup5\n        /* \"#utility.yul\":8082:8153   */\n      tag_280\n      jump\t// in\n    tag_405:\n        /* \"#utility.yul\":7938:8160   */\n      swap3\n      swap2\n      pop\n      pop\n      jump\t// out\n        /* \"#utility.yul\":8166:8640   */\n    tag_86:\n        /* \"#utility.yul\":8234:8240   */\n      0x00\n        /* \"#utility.yul\":8242:8248   */\n      dup1\n        /* \"#utility.yul\":8291:8293   */\n      0x40\n        /* \"#utility.yul\":8279:8288   */\n      dup4\n        /* \"#utility.yul\":8270:8277   */\n      dup6\n        /* \"#utility.yul\":8266:8289   */\n      sub\n        /* \"#utility.yul\":8262:8294   */\n      slt\n        /* \"#utility.yul\":8259:8378   */\n      iszero\n      tag_407\n      jumpi\n        /* \"#utility.yul\":8297:8376   */\n      tag_408\n      tag_257\n      jump\t// in\n    tag_408:\n        /* \"#utility.yul\":8259:8378   */\n    tag_407:\n        /* \"#utility.yul\":8417:8418   */\n      0x00\n        /* \"#utility.yul\":8442:8495   */\n      tag_409\n        /* \"#utility.yul\":8487:8494   */\n      dup6\n        /* \"#utility.yul\":8478:8484   */\n      dup3\n        /* \"#utility.yul\":8467:8476   */\n      dup7\n        /* \"#utility.yul\":8463:8485   */\n      add\n        /* \"#utility.yul\":8442:8495   */\n      tag_262\n      jump\t// in\n    tag_409:\n        /* \"#utility.yul\":8432:8495   */\n      swap3\n      pop\n        /* \"#utility.yul\":8388:8505   */\n      pop\n        /* \"#utility.yul\":8544:8546   */\n      0x20\n        /* \"#utility.yul\":8570:8623   */\n      tag_410\n        /* \"#utility.yul\":8615:8622   */\n      dup6\n        /* \"#utility.yul\":8606:8612   */\n      dup3\n        /* \"#utility.yul\":8595:8604   */\n      dup7\n        /* \"#utility.yul\":8591:8613   */\n      add\n        /* \"#utility.yul\":8570:8623   */\n      tag_262\n      jump\t// in\n    tag_410:\n        /* \"#utility.yul\":8560:8623   */\n      swap2\n      pop\n        /* \"#utility.yul\":8515:8633   */\n      pop\n        /* \"#utility.yul\":8166:8640   */\n      swap3\n      pop\n      swap3\n      swap1\n      pop\n      jump\t// out\n        /* \"#utility.yul\":8646:8826   */\n    tag_281:\n        /* \"#utility.yul\":8694:8771   */\n      0x4e487b7100000000000000000000000000000000000000000000000000000000\n        /* \"#utility.yul\":8691:8692   */\n      0x00\n        /* \"#utility.yul\":8684:8772   */\n      mstore\n        /* \"#utility.yul\":8791:8795   */\n      0x22\n        /* \"#utility.yul\":8788:8789   */\n      0x04\n        /* \"#utility.yul\":8781:8796   */\n      mstore\n        /* \"#utility.yul\":8815:8819   */\n      0x24\n        /* \"#utility.yul\":8812:8813   */\n      0x00\n        /* \"#utility.yul\":8805:8820   */\n      revert\n        /* \"#utility.yul\":8832:9152   */\n    tag_94:\n        /* \"#utility.yul\":8876:8882   */\n      0x00\n        /* \"#utility.yul\":8913:8914   */\n      0x02\n        /* \"#utility.yul\":8907:8911   */\n      dup3\n        /* \"#utility.yul\":8903:8915   */\n      div\n        /* \"#utility.yul\":8893:8915   */\n      swap1\n      pop\n        /* \"#utility.yul\":8960:8961   */\n      0x01\n        /* \"#utility.yul\":8954:8958   */\n      dup3\n        /* \"#utility.yul\":8950:8962   */\n      and\n        /* \"#utility.yul\":8981:8999   */\n      dup1\n        /* \"#utility.yul\":8971:9052   */\n      tag_413\n      jumpi\n        /* \"#utility.yul\":9037:9041   */\n      0x7f\n        /* \"#utility.yul\":9029:9035   */\n      dup3\n        /* \"#utility.yul\":9025:9042   */\n      and\n        /* \"#utility.yul\":9015:9042   */\n      swap2\n      pop\n        /* \"#utility.yul\":8971:9052   */\n    tag_413:\n        /* \"#utility.yul\":9099:9101   */\n      0x20\n        /* \"#utility.yul\":9091:9097   */\n      dup3\n        /* \"#utility.yul\":9088:9102   */\n      lt\n        /* \"#utility.yul\":9068:9086   */\n      dup2\n        /* \"#utility.yul\":9065:9103   */\n      sub\n        /* \"#utility.yul\":9062:9146   */\n      tag_414\n      jumpi\n        /* \"#utility.yul\":9118:9136   */\n      tag_415\n      tag_281\n      jump\t// in\n    tag_415:\n        /* \"#utility.yul\":9062:9146   */\n    tag_414:\n        /* \"#utility.yul\":8883:9152   */\n      pop\n        /* \"#utility.yul\":8832:9152   */\n      swap2\n      swap1\n      pop\n      jump\t// out\n        /* \"#utility.yul\":9158:9299   */\n    tag_282:\n        /* \"#utility.yul\":9207:9211   */\n      0x00\n        /* \"#utility.yul\":9230:9233   */\n      dup2\n        /* \"#utility.yul\":9222:9233   */\n      swap1\n      pop\n        /* \"#utility.yul\":9253:9256   */\n      dup2\n        /* \"#utility.yul\":9250:9251   */\n      0x00\n        /* \"#utility.yul\":9243:9257   */\n      mstore\n        /* \"#utility.yul\":9287:9291   */\n      0x20\n        /* \"#utility.yul\":9284:9285   */\n      0x00\n        /* \"#utility.yul\":9274:9292   */\n      keccak256\n        /* \"#utility.yul\":9266:9292   */\n      swap1\n      pop\n        /* \"#utility.yul\":9158:9299   */\n      swap2\n      swap1\n      pop\n      jump\t// out\n        /* \"#utility.yul\":9305:9398   */\n    tag_283:\n        /* \"#utility.yul\":9342:9348   */\n      0x00\n        /* \"#utility.yul\":9389:9391   */\n      0x20\n        /* \"#utility.yul\":9384:9386   */\n      0x1f\n        /* \"#utility.yul\":9377:9382   */\n      dup4\n        /* \"#utility.yul\":9373:9387   */\n      add\n        /* \"#utility.yul\":9369:9392   */\n      div\n        /* \"#utility.yul\":9359:9392   */\n      swap1\n      pop\n        /* \"#utility.yul\":9305:9398   */\n      swap2\n      swap1\n      pop\n      jump\t// out\n        /* \"#utility.yul\":9404:9511   */\n    tag_284:\n        /* \"#utility.yul\":9448:9456   */\n      0x00\n        /* \"#utility.yul\":9498:9503   */\n      dup3\n        /* \"#utility.yul\":9492:9496   */\n      dup3\n        /* \"#utility.yul\":9488:9504   */\n      shl\n        /* \"#utility.yul\":9467:9504   */\n      swap1\n      pop\n        /* \"#utility.yul\":9404:9511   */\n      swap3\n      swap2\n      pop\n      pop\n      jump\t// out\n        /* \"#utility.yul\":9517:9910   */\n    tag_285:\n        /* \"#utility.yul\":9586:9592   */\n      0x00\n        /* \"#utility.yul\":9636:9637   */\n      0x08\n        /* \"#utility.yul\":9624:9634   */\n      dup4\n        /* \"#utility.yul\":9620:9638   */\n      mul\n        /* \"#utility.yul\":9659:9756   */\n      tag_420\n        /* \"#utility.yul\":9689:9755   */\n      0xffffffffffffffffffffffffffffffffffffffffffffffffffffffffffffffff\n        /* \"#utility.yul\":9678:9687   */\n      dup3\n        /* \"#utility.yul\":9659:9756   */\n      tag_284\n      jump\t// in\n    tag_420:\n        /* \"#utility.yul\":9777:9816   */\n      tag_421\n        /* \"#utility.yul\":9807:9815   */\n      dup7\n        /* \"#utility.yul\":9796:9805   */\n      dup4\n        /* \"#utility.yul\":9777:9816   */\n      tag_284\n      jump\t// in\n    tag_421:\n        /* \"#utility.yul\":9765:9816   */\n      swap6\n      pop\n        /* \"#utility.yul\":9849:9853   */\n      dup1\n        /* \"#utility.yul\":9845:9854   */\n      not\n        /* \"#utility.yul\":9838:9843   */\n      dup5\n        /* \"#utility.yul\":9834:9855   */\n      and\n        /* \"#utility.yul\":9825:9855   */\n      swap4\n      pop\n        /* \"#utility.yul\":9898:9902   */\n      dup1\n        /* \"#utility.yul\":9888:9896   */\n      dup7\n        /* \"#utility.yul\":9884:9903   */\n      and\n        /* \"#utility.yul\":9877:9882   */\n      dup5\n        /* \"#utility.yul\":9874:9904   */\n      or\n        /* \"#utility.yul\":9864:9904   */\n      swap3\n      pop\n        /* \"#utility.yul\":9593:9910   */\n      pop\n      pop\n        /* \"#utility.yul\":9517:9910   */\n      swap4\n      swap3\n      pop\n      pop\n      pop\n      jump\t// out\n        /* \"#utility.yul\":9916:9976   */\n    tag_286:\n        /* \"#utility.yul\":9944:9947   */\n      0x00\n        /* \"#utility.yul\":9965:9970   */\n      dup2\n        /* \"#utility.yul\":9958:9970   */\n      swap1\n      pop\n        /* \"#utility.yul\":9916:9976   */\n      swap2\n      swap1\n      pop\n      jump\t// out\n        /* \"#utility.yul\":9982:10124   */\n    tag_287:\n        /* \"#utility.yul\":10032:10041   */\n      0x00\n        /* \"#utility.yul\":10065:10118   */\n      tag_424\n        /* \"#utility.yul\":10083:10117   */\n      tag_425\n        /* \"#utility.yul\":10092:10116   */\n      tag_426\n        /* \"#utility.yul\":10110:10115   */\n      dup5\n        /* \"#utility.yul\":10092:10116   */\n      tag_263\n      jump\t// in\n    tag_426:\n        /* \"#utility.yul\":10083:10117   */\n      tag_286\n      jump\t// in\n    tag_425:\n        /* \"#utility.yul\":10065:10118   */\n      tag_263\n      jump\t// in\n    tag_424:\n        /* \"#utility.yul\":10052:10118   */\n      swap1\n      pop\n        /* \"#utility.yul\":9982:10124   */\n      swap2\n      swap1\n      pop\n      jump\t// out\n        /* \"#utility.yul\":10130:10205   */\n    tag_288:\n        /* \"#utility.yul\":10173:10176   */\n      0x00\n        /* \"#utility.yul\":10194:10199   */\n      dup2\n        /* \"#utility.yul\":10187:10199   */\n      swap1\n      pop\n        /* \"#utility.yul\":10130:10205   */\n      swap2\n      swap1\n      pop\n      jump\t// out\n        /* \"#utility.yul\":10211:10480   */\n    tag_289:\n        /* \"#utility.yul\":10321:10360   */\n      tag_429\n        /* \"#utility.yul\":10352:10359   */\n      dup4\n        /* \"#utility.yul\":10321:10360   */\n      tag_287\n      jump\t// in\n    tag_429:\n        /* \"#utility.yul\":10382:10473   */\n      tag_430\n        /* \"#utility.yul\":10431:10472   */\n      tag_431\n        /* \"#utility.yul\":10455:10471   */\n      dup3\n        /* \"#utility.yul\":10431:10472   */\n      tag_288\n      jump\t// in\n    tag_431:\n        /* \"#utility.yul\":10423:10429   */\n      dup5\n        /* \"#utility.yul\":10416:10420   */\n      dup5\n        /* \"#utility.yul\":10410:10421   */\n      sload\n        /* \"#utility.yul\":10382:10473   */\n      tag_285\n      jump\t// in\n    tag_430:\n        /* \"#utility.yul\":10376:10380   */\n      dup3\n        /* \"#utility.yul\":10369:10474   */\n      sstore\n        /* \"#utility.yul\":10287:10480   */\n      pop\n        /* \"#utility.yul\":10211:10480   */\n      pop\n      pop\n      pop\n      jump\t// out\n        /* \"#utility.yul\":10486:10559   */\n    tag_290:\n        /* \"#utility.yul\":10531:10534   */\n      0x00\n        /* \"#utility.yul\":10486:10559   */\n      swap1\n      jump\t// out\n        /* \"#utility.yul\":10565:10754   */\n    tag_291:\n        /* \"#utility.yul\":10642:10674   */\n      tag_434\n      tag_290\n      jump\t// in\n    tag_434:\n        /* \"#utility.yul\":10683:10748   */\n      tag_435\n        /* \"#utility.yul\":10741:10747   */\n      dup2\n        /* \"#utility.yul\":10733:10739   */\n      dup5\n        /* \"#utility.yul\":10727:10731   */\n      dup5\n        /* \"#utility.yul\":10683:10748   */\n      tag_289\n      jump\t// in\n    tag_435:\n        /* \"#utility.yul\":10618:10754   */\n      pop\n        /* \"#utility.yul\":10565:10754   */\n      pop\n      pop\n      jump\t// out\n        /* \"#utility.yul\":10760:10946   */\n    tag_292:\n        /* \"#utility.yul\":10820:10940   */\n    tag_437:\n        /* \"#utility.yul\":10837:10840   */\n      dup2\n        /* \"#utility.yul\":10830:10835   */\n      dup2\n        /* \"#utility.yul\":10827:10841   */\n      lt\n        /* \"#utility.yul\":10820:10940   */\n      iszero\n      tag_439\n      jumpi\n        /* \"#utility.yul\":10891:10930   */\n      tag_440\n        /* \"#utility.yul\":10928:10929   */\n      0x00\n        /* \"#utility.yul\":10921:10926   */\n      dup3\n        /* \"#utility.yul\":10891:10930   */\n      tag_291\n      jump\t// in\n    tag_440:\n        /* \"#utility.yul\":10864:10865   */\n      0x01\n        /* \"#utility.yul\":10857:10862   */\n      dup2\n        /* \"#utility.yul\":10853:10866   */\n      add\n        /* \"#utility.yul\":10844:10866   */\n      swap1\n      pop\n        /* \"#utility.yul\":10820:10940   */\n      jump(tag_437)\n    tag_439:\n        /* \"#utility.yul\":10760:10946   */\n      pop\n      pop\n      jump\t// out\n        /* \"#utility.yul\":10952:11495   */\n    tag_293:\n        /* \"#utility.yul\":11053:11055   */\n      0x1f\n        /* \"#utility.yul\":11048:11051   */\n      dup3\n        /* \"#utility.yul\":11045:11056   */\n      gt\n        /* \"#utility.yul\":11042:11488   */\n      iszero\n      tag_442\n      jumpi\n        /* \"#utility.yul\":11087:11125   */\n      tag_443\n        /* \"#utility.yul\":11119:11124   */\n      dup2\n        /* \"#utility.yul\":11087:11125   */\n      tag_282\n      jump\t// in\n    tag_443:\n        /* \"#utility.yul\":11171:11200   */\n      tag_444\n        /* \"#utility.yul\":11189:11199   */\n      dup5\n        /* \"#utility.yul\":11171:11200   */\n      tag_283\n      jump\t// in\n    tag_444:\n        /* \"#utility.yul\":11161:11169   */\n      dup2\n        /* \"#utility.yul\":11157:11201   */\n      add\n        /* \"#utility.yul\":11354:11356   */\n      0x20\n        /* \"#utility.yul\":11342:11352   */\n      dup6\n        /* \"#utility.yul\":11339:11357   */\n      lt\n        /* \"#utility.yul\":11336:11385   */\n      iszero\n      tag_445\n      jumpi\n        /* \"#utility.yul\":11375:11383   */\n      dup2\n        /* \"#utility.yul\":11360:11383   */\n      swap1\n      pop\n        /* \"#utility.yul\":11336:11385   */\n    tag_445:\n        /* \"#utility.yul\":11398:11478   */\n      tag_446\n        /* \"#utility.yul\":11454:11476   */\n      tag_447\n        /* \"#utility.yul\":11472:11475   */\n      dup6\n        /* \"#utility.yul\":11454:11476   */\n      tag_283\n      jump\t// in\n    tag_447:\n        /* \"#utility.yul\":11444:11452   */\n      dup4\n        /* \"#utility.yul\":11440:11477   */\n      add\n        /* \"#utility.yul\":11427:11438   */\n      dup3\n        /* \"#utility.yul\":11398:11478   */\n      tag_292\n      jump\t// in\n    tag_446:\n        /* \"#utility.yul\":11057:11488   */\n      pop\n      pop\n        /* \"#utility.yul\":11042:11488   */\n    tag_442:\n        /* \"#utility.yul\":10952:11495   */\n      pop\n      pop\n      pop\n      jump\t// out\n        /* \"#utility.yul\":11501:11618   */\n    tag_294:\n        /* \"#utility.yul\":11555:11563   */\n      0x00\n        /* \"#utility.yul\":11605:11610   */\n      dup3\n        /* \"#utility.yul\":11599:11603   */\n      dup3\n        /* \"#utility.yul\":11595:11611   */\n      shr\n        /* \"#utility.yul\":11574:11611   */\n      swap1\n      pop\n        /* \"#utility.yul\":11501:11618   */\n      swap3\n      swap2\n      pop\n      pop\n      jump\t// out\n        /* \"#utility.yul\":11624:11793   */\n    tag_295:\n        /* \"#utility.yul\":11668:11674   */\n      0x00\n        /* \"#utility.yul\":11701:11752   */\n      tag_450\n        /* \"#utility.yul\":11749:11750   */\n      0x00\n        /* \"#utility.yul\":11745:11751   */\n      not\n        /* \"#utility.yul\":11737:11742   */\n      dup5\n        /* \"#utility.yul\":11734:11735   */\n      0x08\n        /* \"#utility.yul\":11730:11743   */\n      mul\n        /* \"#utility.yul\":11701:11752   */\n      tag_294\n      jump\t// in\n    tag_450:\n        /* \"#utility.yul\":11697:11753   */\n      not\n        /* \"#utility.yul\":11782:11786   */\n      dup1\n        /* \"#utility.yul\":11776:11780   */\n      dup4\n        /* \"#utility.yul\":11772:11787   */\n      and\n        /* \"#utility.yul\":11762:11787   */\n      swap2\n      pop\n        /* \"#utility.yul\":11675:11793   */\n      pop\n        /* \"#utility.yul\":11624:11793   */\n      swap3\n      swap2\n      pop\n      pop\n      jump\t// out\n        /* \"#utility.yul\":11798:12093   */\n    tag_296:\n        /* \"#utility.yul\":11874:11878   */\n      0x00\n        /* \"#utility.yul\":12020:12049   */\n      tag_452\n        /* \"#utility.yul\":12045:12048   */\n      dup4\n        /* \"#utility.yul\":12039:12043   */\n      dup4\n        /* \"#utility.yul\":12020:12049   */\n      tag_295\n      jump\t// in\n    tag_452:\n        /* \"#utility.yul\":12012:12049   */\n      swap2\n      pop\n        /* \"#utility.yul\":12082:12085   */\n      dup3\n        /* \"#utility.yul\":12079:12080   */\n      0x02\n        /* \"#utility.yul\":12075:12086   */\n      mul\n        /* \"#utility.yul\":12069:12073   */\n      dup3\n        /* \"#utility.yul\":12066:12087   */\n      or\n        /* \"#utility.yul\":12058:12087   */\n      swap1\n      pop\n        /* \"#utility.yul\":11798:12093   */\n      swap3\n      swap2\n      pop\n      pop\n      jump\t// out\n        /* \"#utility.yul\":12098:13493   */\n    tag_109:\n        /* \"#utility.yul\":12215:12252   */\n      tag_454\n        /* \"#utility.yul\":12248:12251   */\n      dup3\n        /* \"#utility.yul\":12215:12252   */\n      tag_251\n      jump\t// in\n    tag_454:\n        /* \"#utility.yul\":12317:12335   */\n      0xffffffffffffffff\n        /* \"#utility.yul\":12309:12315   */\n      dup2\n        /* \"#utility.yul\":12306:12336   */\n      gt\n        /* \"#utility.yul\":12303:12359   */\n      iszero\n      tag_455\n      jumpi\n        /* \"#utility.yul\":12339:12357   */\n      tag_456\n      tag_270\n      jump\t// in\n    tag_456:\n        /* \"#utility.yul\":12303:12359   */\n    tag_455:\n        /* \"#utility.yul\":12383:12421   */\n      tag_457\n        /* \"#utility.yul\":12415:12419   */\n      dup3\n        /* \"#utility.yul\":12409:12420   */\n      sload\n        /* \"#utility.yul\":12383:12421   */\n      tag_94\n      jump\t// in\n    tag_457:\n        /* \"#utility.yul\":12468:12535   */\n      tag_458\n        /* \"#utility.yul\":12528:12534   */\n      dup3\n        /* \"#utility.yul\":12520:12526   */\n      dup3\n        /* \"#utility.yul\":12514:12518   */\n      dup6\n        /* \"#utility.yul\":12468:12535   */\n      tag_293\n      jump\t// in\n    tag_458:\n        /* \"#utility.yul\":12562:12563   */\n      0x00\n        /* \"#utility.yul\":12586:12590   */\n      0x20\n        /* \"#utility.yul\":12573:12590   */\n      swap1\n      pop\n        /* \"#utility.yul\":12618:12620   */\n      0x1f\n        /* \"#utility.yul\":12610:12616   */\n      dup4\n        /* \"#utility.yul\":12607:12621   */\n      gt\n        /* \"#utility.yul\":12635:12636   */\n      0x01\n        /* \"#utility.yul\":12630:13248   */\n      dup2\n      eq\n      tag_460\n      jumpi\n        /* \"#utility.yul\":13292:13293   */\n      0x00\n        /* \"#utility.yul\":13309:13315   */\n      dup5\n        /* \"#utility.yul\":13306:13383   */\n      iszero\n      tag_461\n      jumpi\n        /* \"#utility.yul\":13358:13367   */\n      dup3\n        /* \"#utility.yul\":13353:13356   */\n      dup8\n        /* \"#utility.yul\":13349:13368   */\n      add\n        /* \"#utility.yul\":13343:13369   */\n      mload\n        /* \"#utility.yul\":13334:13369   */\n      swap1\n      pop\n        /* \"#utility.yul\":13306:13383   */\n    tag_461:\n        /* \"#utility.yul\":13409:13476   */\n      tag_462\n        /* \"#utility.yul\":13469:13475   */\n      dup6\n        /* \"#utility.yul\":13462:13467   */\n      dup3\n        /* \"#utility.yul\":13409:13476   */\n      tag_296\n      jump\t// in\n    tag_462:\n        /* \"#utility.yul\":13403:13407   */\n      dup7\n        /* \"#utility.yul\":13396:13477   */\n      sstore\n        /* \"#utility.yul\":13265:13487   */\n      pop\n        /* \"#utility.yul\":12600:13487   */\n      jump(tag_459)\n        /* \"#utility.yul\":12630:13248   */\n    tag_460:\n        /* \"#utility.yul\":12682:12686   */\n      0x1f\n        /* \"#utility.yul\":12678:12687   */\n      not\n        /* \"#utility.yul\":12670:12676   */\n      dup5\n        /* \"#utility.yul\":12666:12688   */\n      and\n        /* \"#utility.yul\":12716:12753   */\n      tag_463\n        /* \"#utility.yul\":12748:12752   */\n      dup7\n        /* \"#utility.yul\":12716:12753   */\n      tag_282\n      jump\t// in\n    tag_463:\n        /* \"#utility.yul\":12775:12776   */\n      0x00\n        /* \"#utility.yul\":12789:12997   */\n    tag_464:\n        /* \"#utility.yul\":12803:12810   */\n      dup3\n        /* \"#utility.yul\":12800:12801   */\n      dup2\n        /* \"#utility.yul\":12797:12811   */\n      lt\n        /* \"#utility.yul\":12789:12997   */\n      iszero\n      tag_466\n      jumpi\n        /* \"#utility.yul\":12882:12891   */\n      dup5\n        /* \"#utility.yul\":12877:12880   */\n      dup10\n        /* \"#utility.yul\":12873:12892   */\n      add\n        /* \"#utility.yul\":12867:12893   */\n      mload\n        /* \"#utility.yul\":12859:12865   */\n      dup3\n        /* \"#utility.yul\":12852:12894   */\n      sstore\n        /* \"#utility.yul\":12933:12934   */\n      0x01\n        /* \"#utility.yul\":12925:12931   */\n      dup3\n        /* \"#utility.yul\":12921:12935   */\n      add\n        /* \"#utility.yul\":12911:12935   */\n      swap2\n      pop\n        /* \"#utility.yul\":12980:12982   */\n      0x20\n        /* \"#utility.yul\":12969:12978   */\n      dup6\n        /* \"#utility.yul\":12965:12983   */\n      add\n        /* \"#utility.yul\":12952:12983   */\n      swap5\n      pop\n        /* \"#utility.yul\":12826:12830   */\n      0x20\n        /* \"#utility.yul\":12823:12824   */\n      dup2\n        /* \"#utility.yul\":12819:12831   */\n      add\n        /* \"#utility.yul\":12814:12831   */\n      swap1\n      pop\n        /* \"#utility.yul\":12789:12997   */\n      jump(tag_464)\n    tag_466:\n        /* \"#utility.yul\":13025:13031   */\n      dup7\n        /* \"#utility.yul\":13016:13023   */\n      dup4\n        /* \"#utility.yul\":13013:13032   */\n      lt\n        /* \"#utility.yul\":13010:13189   */\n      iszero\n      tag_467\n      jumpi\n        /* \"#utility.yul\":13083:13092   */\n      dup5\n        /* \"#utility.yul\":13078:13081   */\n      dup10\n        /* \"#utility.yul\":13074:13093   */\n      add\n        /* \"#utility.yul\":13068:13094   */\n      mload\n        /* \"#utility.yul\":13126:13174   */\n      tag_468\n        /* \"#utility.yul\":13168:13172   */\n      0x1f\n        /* \"#utility.yul\":13160:13166   */\n      dup10\n        /* \"#utility.yul\":13156:13173   */\n      and\n        /* \"#utility.yul\":13145:13154   */\n      dup3\n        /* \"#utility.yul\":13126:13174   */\n      tag_295\n      jump\t// in\n    tag_468:\n        /* \"#utility.yul\":13118:13124   */\n      dup4\n        /* \"#utility.yul\":13111:13175   */\n      sstore\n        /* \"#utility.yul\":13033:13189   */\n      pop\n        /* \"#utility.yul\":13010:13189   */\n    tag_467:\n        /* \"#utility.yul\":13235:13236   */\n      0x01\n        /* \"#utility.yul\":13231:13232   */\n      0x02\n        /* \"#utility.yul\":13223:13229   */\n      dup9\n        /* \"#utility.yul\":13219:13233   */\n      mul\n        /* \"#utility.yul\":13215:13237   */\n      add\n        /* \"#utility.yul\":13209:13213   */\n      dup9\n        /* \"#utility.yul\":13202:13238   */\n      sstore\n        /* \"#utility.yul\":12637:13248   */\n      pop\n      pop\n      pop\n        /* \"#utility.yul\":12600:13487   */\n    tag_459:\n      pop\n        /* \"#utility.yul\":12190:13493   */\n      pop\n      pop\n      pop\n        /* \"#utility.yul\":12098:13493   */\n      pop\n      pop\n      jump\t// out\n        /* \"#utility.yul\":13499:13674   */\n    tag_297:\n        /* \"#utility.yul\":13639:13666   */\n      0x41646d696e277320746f6b656e7320617265206c6f636b656400000000000000\n        /* \"#utility.yul\":13635:13636   */\n      0x00\n        /* \"#utility.yul\":13627:13633   */\n      dup3\n        /* \"#utility.yul\":13623:13637   */\n      add\n        /* \"#utility.yul\":13616:13667   */\n      mstore\n        /* \"#utility.yul\":13499:13674   */\n      pop\n      jump\t// out\n        /* \"#utility.yul\":13680:14046   */\n    tag_298:\n        /* \"#utility.yul\":13822:13825   */\n      0x00\n        /* \"#utility.yul\":13843:13910   */\n      tag_471\n        /* \"#utility.yul\":13907:13909   */\n      0x19\n        /* \"#utility.yul\":13902:13905   */\n      dup4\n        /* \"#utility.yul\":13843:13910   */\n      tag_252\n      jump\t// in\n    tag_471:\n        /* \"#utility.yul\":13836:13910   */\n      swap2\n      pop\n        /* \"#utility.yul\":13919:14012   */\n      tag_472\n        /* \"#utility.yul\":14008:14011   */\n      dup3\n        /* \"#utility.yul\":13919:14012   */\n      tag_297\n      jump\t// in\n    tag_472:\n        /* \"#utility.yul\":14037:14039   */\n      0x20\n        /* \"#utility.yul\":14032:14035   */\n      dup3\n        /* \"#utility.yul\":14028:14040   */\n      add\n        /* \"#utility.yul\":14021:14040   */\n      swap1\n      pop\n        /* \"#utility.yul\":13680:14046   */\n      swap2\n      swap1\n      pop\n      jump\t// out\n        /* \"#utility.yul\":14052:14471   */\n    tag_116:\n        /* \"#utility.yul\":14218:14222   */\n      0x00\n        /* \"#utility.yul\":14256:14258   */\n      0x20\n        /* \"#utility.yul\":14245:14254   */\n      dup3\n        /* \"#utility.yul\":14241:14259   */\n      add\n        /* \"#utility.yul\":14233:14259   */\n      swap1\n      pop\n        /* \"#utility.yul\":14305:14314   */\n      dup2\n        /* \"#utility.yul\":14299:14303   */\n      dup2\n        /* \"#utility.yul\":14295:14315   */\n      sub\n        /* \"#utility.yul\":14291:14292   */\n      0x00\n        /* \"#utility.yul\":14280:14289   */\n      dup4\n        /* \"#utility.yul\":14276:14293   */\n      add\n        /* \"#utility.yul\":14269:14316   */\n      mstore\n        /* \"#utility.yul\":14333:14464   */\n      tag_474\n        /* \"#utility.yul\":14459:14463   */\n      dup2\n        /* \"#utility.yul\":14333:14464   */\n      tag_298\n      jump\t// in\n    tag_474:\n        /* \"#utility.yul\":14325:14464   */\n      swap1\n      pop\n        /* \"#utility.yul\":14052:14471   */\n      swap2\n      swap1\n      pop\n      jump\t// out\n        /* \"#utility.yul\":14477:14644   */\n    tag_299:\n        /* \"#utility.yul\":14617:14636   */\n      0x546f6b656e7320617265206c6f636b6564000000000000000000000000000000\n        /* \"#utility.yul\":14613:14614   */\n      0x00\n        /* \"#utility.yul\":14605:14611   */\n      dup3\n        /* \"#utility.yul\":14601:14615   */\n      add\n        /* \"#utility.yul\":14594:14637   */\n      mstore\n        /* \"#utility.yul\":14477:14644   */\n      pop\n      jump\t// out\n        /* \"#utility.yul\":14650:15016   */\n    tag_300:\n        /* \"#utility.yul\":14792:14795   */\n      0x00\n        /* \"#utility.yul\":14813:14880   */\n      tag_477\n        /* \"#utility.yul\":14877:14879   */\n      0x11\n        /* \"#utility.yul\":14872:14875   */\n      dup4\n        /* \"#utility.yul\":14813:14880   */\n      tag_252\n      jump\t// in\n    tag_477:\n        /* \"#utility.yul\":14806:14880   */\n      swap2\n      pop\n        /* \"#utility.yul\":14889:14982   */\n      tag_478\n        /* \"#utility.yul\":14978:14981   */\n      dup3\n        /* \"#utility.yul\":14889:14982   */\n      tag_299\n      jump\t// in\n    tag_478:\n        /* \"#utility.yul\":15007:15009   */\n      0x20\n        /* \"#utility.yul\":15002:15005   */\n      dup3\n        /* \"#utility.yul\":14998:15010   */\n      add\n        /* \"#utility.yul\":14991:15010   */\n      swap1\n      pop\n        /* \"#utility.yul\":14650:15016   */\n      swap2\n      swap1\n      pop\n      jump\t// out\n        /* \"#utility.yul\":15022:15441   */\n    tag_120:\n        /* \"#utility.yul\":15188:15192   */\n      0x00\n        /* \"#utility.yul\":15226:15228   */\n      0x20\n        /* \"#utility.yul\":15215:15224   */\n      dup3\n        /* \"#utility.yul\":15211:15229   */\n      add\n        /* \"#utility.yul\":15203:15229   */\n      swap1\n      pop\n        /* \"#utility.yul\":15275:15284   */\n      dup2\n        /* \"#utility.yul\":15269:15273   */\n      dup2\n        /* \"#utility.yul\":15265:15285   */\n      sub\n        /* \"#utility.yul\":15261:15262   */\n      0x00\n        /* \"#utility.yul\":15250:15259   */\n      dup4\n        /* \"#utility.yul\":15246:15263   */\n      add\n        /* \"#utility.yul\":15239:15286   */\n      mstore\n        /* \"#utility.yul\":15303:15434   */\n      tag_480\n        /* \"#utility.yul\":15429:15433   */\n      dup2\n        /* \"#utility.yul\":15303:15434   */\n      tag_300\n      jump\t// in\n    tag_480:\n        /* \"#utility.yul\":15295:15434   */\n      swap1\n      pop\n        /* \"#utility.yul\":15022:15441   */\n      swap2\n      swap1\n      pop\n      jump\t// out\n        /* \"#utility.yul\":15447:15627   */\n    tag_301:\n        /* \"#utility.yul\":15495:15572   */\n      0x4e487b7100000000000000000000000000000000000000000000000000000000\n        /* \"#utility.yul\":15492:15493   */\n      0x00\n        /* \"#utility.yul\":15485:15573   */\n      mstore\n        /* \"#utility.yul\":15592:15596   */\n      0x11\n        /* \"#utility.yul\":15589:15590   */\n      0x04\n        /* \"#utility.yul\":15582:15597   */\n      mstore\n        /* \"#utility.yul\":15616:15620   */\n      0x24\n        /* \"#utility.yul\":15613:15614   */\n      0x00\n        /* \"#utility.yul\":15606:15621   */\n      revert\n        /* \"#utility.yul\":15633:15824   */\n    tag_123:\n        /* \"#utility.yul\":15673:15676   */\n      0x00\n        /* \"#utility.yul\":15692:15712   */\n      tag_483\n        /* \"#utility.yul\":15710:15711   */\n      dup3\n        /* \"#utility.yul\":15692:15712   */\n      tag_263\n      jump\t// in\n    tag_483:\n        /* \"#utility.yul\":15687:15712   */\n      swap2\n      pop\n        /* \"#utility.yul\":15726:15746   */\n      tag_484\n        /* \"#utility.yul\":15744:15745   */\n      dup4\n        /* \"#utility.yul\":15726:15746   */\n      tag_263\n      jump\t// in\n    tag_484:\n        /* \"#utility.yul\":15721:15746   */\n      swap3\n      pop\n        /* \"#utility.yul\":15769:15770   */\n      dup3\n        /* \"#utility.yul\":15766:15767   */\n      dup3\n        /* \"#utility.yul\":15762:15771   */\n      add\n        /* \"#utility.yul\":15755:15771   */\n      swap1\n      pop\n        /* \"#utility.yul\":15790:15793   */\n      dup1\n        /* \"#utility.yul\":15787:15788   */\n      dup3\n        /* \"#utility.yul\":15784:15794   */\n      gt\n        /* \"#utility.yul\":15781:15817   */\n      iszero\n      tag_485\n      jumpi\n        /* \"#utility.yul\":15797:15815   */\n      tag_486\n      tag_301\n      jump\t// in\n    tag_486:\n        /* \"#utility.yul\":15781:15817   */\n    tag_485:\n        /* \"#utility.yul\":15633:15824   */\n      swap3\n      swap2\n      pop\n      pop\n      jump\t// out\n        /* \"#utility.yul\":15830:16240   */\n    tag_126:\n        /* \"#utility.yul\":15870:15877   */\n      0x00\n        /* \"#utility.yul\":15893:15913   */\n      tag_488\n        /* \"#utility.yul\":15911:15912   */\n      dup3\n        /* \"#utility.yul\":15893:15913   */\n      tag_263\n      jump\t// in\n    tag_488:\n        /* \"#utility.yul\":15888:15913   */\n      swap2\n      pop\n        /* \"#utility.yul\":15927:15947   */\n      tag_489\n        /* \"#utility.yul\":15945:15946   */\n      dup4\n        /* \"#utility.yul\":15927:15947   */\n      tag_263\n      jump\t// in\n    tag_489:\n        /* \"#utility.yul\":15922:15947   */\n      swap3\n      pop\n        /* \"#utility.yul\":15982:15983   */\n      dup3\n        /* \"#utility.yul\":15979:15980   */\n      dup3\n        /* \"#utility.yul\":15975:15984   */\n      mul\n        /* \"#utility.yul\":16004:16034   */\n      tag_490\n        /* \"#utility.yul\":16022:16033   */\n      dup2\n        /* \"#utility.yul\":16004:16034   */\n      tag_263\n      jump\t// in\n    tag_490:\n        /* \"#utility.yul\":15993:16034   */\n      swap2\n      pop\n        /* \"#utility.yul\":16183:16184   */\n      dup3\n        /* \"#utility.yul\":16174:16181   */\n      dup3\n        /* \"#utility.yul\":16170:16185   */\n      div\n        /* \"#utility.yul\":16167:16168   */\n      dup5\n        /* \"#utility.yul\":16164:16186   */\n      eq\n        /* \"#utility.yul\":16144:16145   */\n      dup4\n        /* \"#utility.yul\":16137:16146   */\n      iszero\n        /* \"#utility.yul\":16117:16200   */\n      or\n        /* \"#utility.yul\":16094:16233   */\n      tag_491\n      jumpi\n        /* \"#utility.yul\":16213:16231   */\n      tag_492\n      tag_301\n      jump\t// in\n    tag_492:\n        /* \"#utility.yul\":16094:16233   */\n    tag_491:\n        /* \"#utility.yul\":15878:16240   */\n      pop\n        /* \"#utility.yul\":15830:16240   */\n      swap3\n      swap2\n      pop\n      pop\n      jump\t// out\n        /* \"#utility.yul\":16246:16426   */\n    tag_302:\n        /* \"#utility.yul\":16294:16371   */\n      0x4e487b7100000000000000000000000000000000000000000000000000000000\n        /* \"#utility.yul\":16291:16292   */\n      0x00\n        /* \"#utility.yul\":16284:16372   */\n      mstore\n        /* \"#utility.yul\":16391:16395   */\n      0x12\n        /* \"#utility.yul\":16388:16389   */\n      0x04\n        /* \"#utility.yul\":16381:16396   */\n      mstore\n        /* \"#utility.yul\":16415:16419   */\n      0x24\n        /* \"#utility.yul\":16412:16413   */\n      0x00\n        /* \"#utility.yul\":16405:16420   */\n      revert\n        /* \"#utility.yul\":16432:16617   */\n    tag_128:\n        /* \"#utility.yul\":16472:16473   */\n      0x00\n        /* \"#utility.yul\":16489:16509   */\n      tag_495\n        /* \"#utility.yul\":16507:16508   */\n      dup3\n        /* \"#utility.yul\":16489:16509   */\n      tag_263\n      jump\t// in\n    tag_495:\n        /* \"#utility.yul\":16484:16509   */\n      swap2\n      pop\n        /* \"#utility.yul\":16523:16543   */\n      tag_496\n        /* \"#utility.yul\":16541:16542   */\n      dup4\n        /* \"#utility.yul\":16523:16543   */\n      tag_263\n      jump\t// in\n    tag_496:\n        /* \"#utility.yul\":16518:16543   */\n      swap3\n      pop\n        /* \"#utility.yul\":16562:16563   */\n      dup3\n        /* \"#utility.yul\":16552:16587   */\n      tag_497\n      jumpi\n        /* \"#utility.yul\":16567:16585   */\n      tag_498\n      tag_302\n      jump\t// in\n    tag_498:\n        /* \"#utility.yul\":16552:16587   */\n    tag_497:\n        /* \"#utility.yul\":16609:16610   */\n      dup3\n        /* \"#utility.yul\":16606:16607   */\n      dup3\n        /* \"#utility.yul\":16602:16611   */\n      div\n        /* \"#utility.yul\":16597:16611   */\n      swap1\n      pop\n        /* \"#utility.yul\":16432:16617   */\n      swap3\n      swap2\n      pop\n      pop\n      jump\t// out\n        /* \"#utility.yul\":16623:16860   */\n    tag_303:\n        /* \"#utility.yul\":16763:16797   */\n      0x4f776e657273686970206361707065642061742032302520746f20656e737572\n        /* \"#utility.yul\":16759:16760   */\n      0x00\n        /* \"#utility.yul\":16751:16757   */\n      dup3\n        /* \"#utility.yul\":16747:16761   */\n      add\n        /* \"#utility.yul\":16740:16798   */\n      mstore\n        /* \"#utility.yul\":16832:16852   */\n      0x6520646563656e7472616c697a6174696f6e0000000000000000000000000000\n        /* \"#utility.yul\":16827:16829   */\n      0x20\n        /* \"#utility.yul\":16819:16825   */\n      dup3\n        /* \"#utility.yul\":16815:16830   */\n      add\n        /* \"#utility.yul\":16808:16853   */\n      mstore\n        /* \"#utility.yul\":16623:16860   */\n      pop\n      jump\t// out\n        /* \"#utility.yul\":16866:17232   */\n    tag_304:\n        /* \"#utility.yul\":17008:17011   */\n      0x00\n        /* \"#utility.yul\":17029:17096   */\n      tag_501\n        /* \"#utility.yul\":17093:17095   */\n      0x32\n        /* \"#utility.yul\":17088:17091   */\n      dup4\n        /* \"#utility.yul\":17029:17096   */\n      tag_252\n      jump\t// in\n    tag_501:\n        /* \"#utility.yul\":17022:17096   */\n      swap2\n      pop\n        /* \"#utility.yul\":17105:17198   */\n      tag_502\n        /* \"#utility.yul\":17194:17197   */\n      dup3\n        /* \"#utility.yul\":17105:17198   */\n      tag_303\n      jump\t// in\n    tag_502:\n        /* \"#utility.yul\":17223:17225   */\n      0x40\n        /* \"#utility.yul\":17218:17221   */\n      dup3\n        /* \"#utility.yul\":17214:17226   */\n      add\n        /* \"#utility.yul\":17207:17226   */\n      swap1\n      pop\n        /* \"#utility.yul\":16866:17232   */\n      swap2\n      swap1\n      pop\n      jump\t// out\n        /* \"#utility.yul\":17238:17657   */\n    tag_131:\n        /* \"#utility.yul\":17404:17408   */\n      0x00\n        /* \"#utility.yul\":17442:17444   */\n      0x20\n        /* \"#utility.yul\":17431:17440   */\n      dup3\n        /* \"#utility.yul\":17427:17445   */\n      add\n        /* \"#utility.yul\":17419:17445   */\n      swap1\n      pop\n        /* \"#utility.yul\":17491:17500   */\n      dup2\n        /* \"#utility.yul\":17485:17489   */\n      dup2\n        /* \"#utility.yul\":17481:17501   */\n      sub\n        /* \"#utility.yul\":17477:17478   */\n      0x00\n        /* \"#utility.yul\":17466:17475   */\n      dup4\n        /* \"#utility.yul\":17462:17479   */\n      add\n        /* \"#utility.yul\":17455:17502   */\n      mstore\n        /* \"#utility.yul\":17519:17650   */\n      tag_504\n        /* \"#utility.yul\":17645:17649   */\n      dup2\n        /* \"#utility.yul\":17519:17650   */\n      tag_304\n      jump\t// in\n    tag_504:\n        /* \"#utility.yul\":17511:17650   */\n      swap1\n      pop\n        /* \"#utility.yul\":17238:17657   */\n      swap2\n      swap1\n      pop\n      jump\t// out\n        /* \"#utility.yul\":17663:17887   */\n    tag_305:\n        /* \"#utility.yul\":17803:17837   */\n      0x61646d696e277320746f6b656e7320617265206c6f636b656420666f7220616e\n        /* \"#utility.yul\":17799:17800   */\n      0x00\n        /* \"#utility.yul\":17791:17797   */\n      dup3\n        /* \"#utility.yul\":17787:17801   */\n      add\n        /* \"#utility.yul\":17780:17838   */\n      mstore\n        /* \"#utility.yul\":17872:17879   */\n      0x2079656172000000000000000000000000000000000000000000000000000000\n        /* \"#utility.yul\":17867:17869   */\n      0x20\n        /* \"#utility.yul\":17859:17865   */\n      dup3\n        /* \"#utility.yul\":17855:17870   */\n      add\n        /* \"#utility.yul\":17848:17880   */\n      mstore\n        /* \"#utility.yul\":17663:17887   */\n      pop\n      jump\t// out\n        /* \"#utility.yul\":17893:18259   */\n    tag_306:\n        /* \"#utility.yul\":18035:18038   */\n      0x00\n        /* \"#utility.yul\":18056:18123   */\n      tag_507\n        /* \"#utility.yul\":18120:18122   */\n      0x25\n        /* \"#utility.yul\":18115:18118   */\n      dup4\n        /* \"#utility.yul\":18056:18123   */\n      tag_252\n      jump\t// in\n    tag_507:\n        /* \"#utility.yul\":18049:18123   */\n      swap2\n      pop\n        /* \"#utility.yul\":18132:18225   */\n      tag_508\n        /* \"#utility.yul\":18221:18224   */\n      dup3\n        /* \"#utility.yul\":18132:18225   */\n      tag_305\n      jump\t// in\n    tag_508:\n        /* \"#utility.yul\":18250:18252   */\n      0x40\n        /* \"#utility.yul\":18245:18248   */\n      dup3\n        /* \"#utility.yul\":18241:18253   */\n      add\n        /* \"#utility.yul\":18234:18253   */\n      swap1\n      pop\n        /* \"#utility.yul\":17893:18259   */\n      swap2\n      swap1\n      pop\n      jump\t// out\n        /* \"#utility.yul\":18265:18684   */\n    tag_153:\n        /* \"#utility.yul\":18431:18435   */\n      0x00\n        /* \"#utility.yul\":18469:18471   */\n      0x20\n        /* \"#utility.yul\":18458:18467   */\n      dup3\n        /* \"#utility.yul\":18454:18472   */\n      add\n        /* \"#utility.yul\":18446:18472   */\n      swap1\n      pop\n        /* \"#utility.yul\":18518:18527   */\n      dup2\n        /* \"#utility.yul\":18512:18516   */\n      dup2\n        /* \"#utility.yul\":18508:18528   */\n      sub\n        /* \"#utility.yul\":18504:18505   */\n      0x00\n        /* \"#utility.yul\":18493:18502   */\n      dup4\n        /* \"#utility.yul\":18489:18506   */\n      add\n        /* \"#utility.yul\":18482:18529   */\n      mstore\n        /* \"#utility.yul\":18546:18677   */\n      tag_510\n        /* \"#utility.yul\":18672:18676   */\n      dup2\n        /* \"#utility.yul\":18546:18677   */\n      tag_306\n      jump\t// in\n    tag_510:\n        /* \"#utility.yul\":18538:18677   */\n      swap1\n      pop\n        /* \"#utility.yul\":18265:18684   */\n      swap2\n      swap1\n      pop\n      jump\t// out\n        /* \"#utility.yul\":18690:18856   */\n    tag_307:\n        /* \"#utility.yul\":18830:18848   */\n      0x6e6f7420666f722073616c652079657400000000000000000000000000000000\n        /* \"#utility.yul\":18826:18827   */\n      0x00\n        /* \"#utility.yul\":18818:18824   */\n      dup3\n        /* \"#utility.yul\":18814:18828   */\n      add\n        /* \"#utility.yul\":18807:18849   */\n      mstore\n        /* \"#utility.yul\":18690:18856   */\n      pop\n      jump\t// out\n        /* \"#utility.yul\":18862:19228   */\n    tag_308:\n        /* \"#utility.yul\":19004:19007   */\n      0x00\n        /* \"#utility.yul\":19025:19092   */\n      tag_513\n        /* \"#utility.yul\":19089:19091   */\n      0x10\n        /* \"#utility.yul\":19084:19087   */\n      dup4\n        /* \"#utility.yul\":19025:19092   */\n      tag_252\n      jump\t// in\n    tag_513:\n        /* \"#utility.yul\":19018:19092   */\n      swap2\n      pop\n        /* \"#utility.yul\":19101:19194   */\n      tag_514\n        /* \"#utility.yul\":19190:19193   */\n      dup3\n        /* \"#utility.yul\":19101:19194   */\n      tag_307\n      jump\t// in\n    tag_514:\n        /* \"#utility.yul\":19219:19221   */\n      0x20\n        /* \"#utility.yul\":19214:19217   */\n      dup3\n        /* \"#utility.yul\":19210:19222   */\n      add\n        /* \"#utility.yul\":19203:19222   */\n      swap1\n      pop\n        /* \"#utility.yul\":18862:19228   */\n      swap2\n      swap1\n      pop\n      jump\t// out\n        /* \"#utility.yul\":19234:19653   */\n    tag_156:\n        /* \"#utility.yul\":19400:19404   */\n      0x00\n        /* \"#utility.yul\":19438:19440   */\n      0x20\n        /* \"#utility.yul\":19427:19436   */\n      dup3\n        /* \"#utility.yul\":19423:19441   */\n      add\n        /* \"#utility.yul\":19415:19441   */\n      swap1\n      pop\n        /* \"#utility.yul\":19487:19496   */\n      dup2\n        /* \"#utility.yul\":19481:19485   */\n      dup2\n        /* \"#utility.yul\":19477:19497   */\n      sub\n        /* \"#utility.yul\":19473:19474   */\n      0x00\n        /* \"#utility.yul\":19462:19471   */\n      dup4\n        /* \"#utility.yul\":19458:19475   */\n      add\n        /* \"#utility.yul\":19451:19498   */\n      mstore\n        /* \"#utility.yul\":19515:19646   */\n      tag_516\n        /* \"#utility.yul\":19641:19645   */\n      dup2\n        /* \"#utility.yul\":19515:19646   */\n      tag_308\n      jump\t// in\n    tag_516:\n        /* \"#utility.yul\":19507:19646   */\n      swap1\n      pop\n        /* \"#utility.yul\":19234:19653   */\n      swap2\n      swap1\n      pop\n      jump\t// out\n        /* \"#utility.yul\":19683:20514   */\n    tag_309:\n        /* \"#utility.yul\":19768:19771   */\n      0x00\n        /* \"#utility.yul\":19805:19810   */\n      dup2\n        /* \"#utility.yul\":19799:19811   */\n      sload\n        /* \"#utility.yul\":19834:19870   */\n      tag_518\n        /* \"#utility.yul\":19860:19869   */\n      dup2\n        /* \"#utility.yul\":19834:19870   */\n      tag_94\n      jump\t// in\n    tag_518:\n        /* \"#utility.yul\":19886:19957   */\n      tag_519\n        /* \"#utility.yul\":19950:19956   */\n      dup2\n        /* \"#utility.yul\":19945:19948   */\n      dup7\n        /* \"#utility.yul\":19886:19957   */\n      tag_252\n      jump\t// in\n    tag_519:\n        /* \"#utility.yul\":19879:19957   */\n      swap5\n      pop\n        /* \"#utility.yul\":19988:19989   */\n      0x01\n        /* \"#utility.yul\":19977:19986   */\n      dup3\n        /* \"#utility.yul\":19973:19990   */\n      and\n        /* \"#utility.yul\":20004:20005   */\n      0x00\n        /* \"#utility.yul\":19999:20163   */\n      dup2\n      eq\n      tag_521\n      jumpi\n        /* \"#utility.yul\":20177:20178   */\n      0x01\n        /* \"#utility.yul\":20172:20508   */\n      dup2\n      eq\n      tag_522\n      jumpi\n        /* \"#utility.yul\":19966:20508   */\n      jump(tag_520)\n        /* \"#utility.yul\":19999:20163   */\n    tag_521:\n        /* \"#utility.yul\":20083:20087   */\n      0xff\n        /* \"#utility.yul\":20079:20088   */\n      not\n        /* \"#utility.yul\":20068:20077   */\n      dup4\n        /* \"#utility.yul\":20064:20089   */\n      and\n        /* \"#utility.yul\":20059:20062   */\n      dup7\n        /* \"#utility.yul\":20052:20090   */\n      mstore\n        /* \"#utility.yul\":20143:20149   */\n      dup2\n        /* \"#utility.yul\":20136:20150   */\n      iszero\n        /* \"#utility.yul\":20129:20151   */\n      iszero\n        /* \"#utility.yul\":20123:20127   */\n      0x20\n        /* \"#utility.yul\":20119:20152   */\n      mul\n        /* \"#utility.yul\":20114:20117   */\n      dup7\n        /* \"#utility.yul\":20110:20153   */\n      add\n        /* \"#utility.yul\":20103:20153   */\n      swap4\n      pop\n        /* \"#utility.yul\":19999:20163   */\n      jump(tag_520)\n        /* \"#utility.yul\":20172:20508   */\n    tag_522:\n        /* \"#utility.yul\":20239:20277   */\n      tag_523\n        /* \"#utility.yul\":20271:20276   */\n      dup6\n        /* \"#utility.yul\":20239:20277   */\n      tag_282\n      jump\t// in\n    tag_523:\n        /* \"#utility.yul\":20299:20300   */\n      0x00\n        /* \"#utility.yul\":20313:20467   */\n    tag_524:\n        /* \"#utility.yul\":20327:20333   */\n      dup4\n        /* \"#utility.yul\":20324:20325   */\n      dup2\n        /* \"#utility.yul\":20321:20334   */\n      lt\n        /* \"#utility.yul\":20313:20467   */\n      iszero\n      tag_526\n      jumpi\n        /* \"#utility.yul\":20401:20408   */\n      dup2\n        /* \"#utility.yul\":20395:20409   */\n      sload\n        /* \"#utility.yul\":20391:20392   */\n      dup2\n        /* \"#utility.yul\":20386:20389   */\n      dup10\n        /* \"#utility.yul\":20382:20393   */\n      add\n        /* \"#utility.yul\":20375:20410   */\n      mstore\n        /* \"#utility.yul\":20451:20452   */\n      0x01\n        /* \"#utility.yul\":20442:20449   */\n      dup3\n        /* \"#utility.yul\":20438:20453   */\n      add\n        /* \"#utility.yul\":20427:20453   */\n      swap2\n      pop\n        /* \"#utility.yul\":20349:20353   */\n      0x20\n        /* \"#utility.yul\":20346:20347   */\n      dup2\n        /* \"#utility.yul\":20342:20354   */\n      add\n        /* \"#utility.yul\":20337:20354   */\n      swap1\n      pop\n        /* \"#utility.yul\":20313:20467   */\n      jump(tag_524)\n    tag_526:\n        /* \"#utility.yul\":20496:20497   */\n      dup1\n        /* \"#utility.yul\":20491:20494   */\n      dup9\n        /* \"#utility.yul\":20487:20498   */\n      add\n        /* \"#utility.yul\":20480:20498   */\n      swap6\n      pop\n        /* \"#utility.yul\":20179:20508   */\n      pop\n      pop\n        /* \"#utility.yul\":19966:20508   */\n    tag_520:\n      pop\n        /* \"#utility.yul\":19772:20514   */\n      pop\n      pop\n        /* \"#utility.yul\":19683:20514   */\n      swap3\n      swap2\n      pop\n      pop\n      jump\t// out\n        /* \"#utility.yul\":20520:21158   */\n    tag_166:\n        /* \"#utility.yul\":20714:20718   */\n      0x00\n        /* \"#utility.yul\":20752:20755   */\n      0x80\n        /* \"#utility.yul\":20741:20750   */\n      dup3\n        /* \"#utility.yul\":20737:20756   */\n      add\n        /* \"#utility.yul\":20729:20756   */\n      swap1\n      pop\n        /* \"#utility.yul\":20766:20837   */\n      tag_528\n        /* \"#utility.yul\":20834:20835   */\n      0x00\n        /* \"#utility.yul\":20823:20832   */\n      dup4\n        /* \"#utility.yul\":20819:20836   */\n      add\n        /* \"#utility.yul\":20810:20816   */\n      dup8\n        /* \"#utility.yul\":20766:20837   */\n      tag_280\n      jump\t// in\n    tag_528:\n        /* \"#utility.yul\":20847:20919   */\n      tag_529\n        /* \"#utility.yul\":20915:20917   */\n      0x20\n        /* \"#utility.yul\":20904:20913   */\n      dup4\n        /* \"#utility.yul\":20900:20918   */\n      add\n        /* \"#utility.yul\":20891:20897   */\n      dup7\n        /* \"#utility.yul\":20847:20919   */\n      tag_280\n      jump\t// in\n    tag_529:\n        /* \"#utility.yul\":20929:21001   */\n      tag_530\n        /* \"#utility.yul\":20997:20999   */\n      0x40\n        /* \"#utility.yul\":20986:20995   */\n      dup4\n        /* \"#utility.yul\":20982:21000   */\n      add\n        /* \"#utility.yul\":20973:20979   */\n      dup6\n        /* \"#utility.yul\":20929:21001   */\n      tag_277\n      jump\t// in\n    tag_530:\n        /* \"#utility.yul\":21048:21057   */\n      dup2\n        /* \"#utility.yul\":21042:21046   */\n      dup2\n        /* \"#utility.yul\":21038:21058   */\n      sub\n        /* \"#utility.yul\":21033:21035   */\n      0x60\n        /* \"#utility.yul\":21022:21031   */\n      dup4\n        /* \"#utility.yul\":21018:21036   */\n      add\n        /* \"#utility.yul\":21011:21059   */\n      mstore\n        /* \"#utility.yul\":21076:21151   */\n      tag_531\n        /* \"#utility.yul\":21146:21150   */\n      dup2\n        /* \"#utility.yul\":21137:21143   */\n      dup5\n        /* \"#utility.yul\":21076:21151   */\n      tag_309\n      jump\t// in\n    tag_531:\n        /* \"#utility.yul\":21068:21151   */\n      swap1\n      pop\n        /* \"#utility.yul\":20520:21158   */\n      swap6\n      swap5\n      pop\n      pop\n      pop\n      pop\n      pop\n      jump\t// out\n        /* \"#utility.yul\":21164:21606   */\n    tag_234:\n        /* \"#utility.yul\":21313:21317   */\n      0x00\n        /* \"#utility.yul\":21351:21353   */\n      0x60\n        /* \"#utility.yul\":21340:21349   */\n      dup3\n        /* \"#utility.yul\":21336:21354   */\n      add\n        /* \"#utility.yul\":21328:21354   */\n      swap1\n      pop\n        /* \"#utility.yul\":21364:21435   */\n      tag_533\n        /* \"#utility.yul\":21432:21433   */\n      0x00\n        /* \"#utility.yul\":21421:21430   */\n      dup4\n        /* \"#utility.yul\":21417:21434   */\n      add\n        /* \"#utility.yul\":21408:21414   */\n      dup7\n        /* \"#utility.yul\":21364:21435   */\n      tag_280\n      jump\t// in\n    tag_533:\n        /* \"#utility.yul\":21445:21517   */\n      tag_534\n        /* \"#utility.yul\":21513:21515   */\n      0x20\n        /* \"#utility.yul\":21502:21511   */\n      dup4\n        /* \"#utility.yul\":21498:21516   */\n      add\n        /* \"#utility.yul\":21489:21495   */\n      dup6\n        /* \"#utility.yul\":21445:21517   */\n      tag_277\n      jump\t// in\n    tag_534:\n        /* \"#utility.yul\":21527:21599   */\n      tag_535\n        /* \"#utility.yul\":21595:21597   */\n      0x40\n        /* \"#utility.yul\":21584:21593   */\n      dup4\n        /* \"#utility.yul\":21580:21598   */\n      add\n        /* \"#utility.yul\":21571:21577   */\n      dup5\n        /* \"#utility.yul\":21527:21599   */\n      tag_277\n      jump\t// in\n    tag_535:\n        /* \"#utility.yul\":21164:21606   */\n      swap5\n      swap4\n      pop\n      pop\n      pop\n      pop\n      jump\t// out\n\n    auxdata: 0xa2646970667358221220e70d2ea1e649f2e52c7cec53763fe632648c82d5adf0023b379ffbcdd6f752ca64736f6c63430008140033\n}\n",
				"bytecode": {
					"linkReferences": {},
					"object": "608060405234801562000010575f80fd5b5060405162002e3b38038062002e3b8339818101604052810190620000369190620009b7565b86868681600390816200004a919062000d0f565b5080600490816200005c919062000d0f565b5050505f73ffffffffffffffffffffffffffffffffffffffff168173ffffffffffffffffffffffffffffffffffffffff1603620000d2575f6040517f1e4fbdf7000000000000000000000000000000000000000000000000000000008152600401620000c9919062000e04565b60405180910390fd5b620000e3816200027e60201b60201c565b5081518351146200012b576040517f08c379a0000000000000000000000000000000000000000000000000000000008152600401620001229062000ea3565b60405180910390fd5b83600781905550804262000140919062000ef0565b6008819055505f5b835181101562000226576007546006548483815181106200016e576200016d62000f2a565b5b602002602001015162000182919062000ef0565b11156200018d575f80fd5b620001d9848281518110620001a757620001a662000f2a565b5b6020026020010151848381518110620001c557620001c462000f2a565b5b60200260200101516200034160201b60201c565b828181518110620001ef57620001ee62000f2a565b5b602002602001015160065f82825462000209919062000ef0565b9250508190555080806200021d9062000f57565b91505062000148565b505f6006546007546200023a919062000fa3565b90505f81111562000270576200025788826200034160201b60201c565b6301e133804262000269919062000ef0565b6009819055505b505050505050505062001044565b5f60055f9054906101000a900473ffffffffffffffffffffffffffffffffffffffff1690508160055f6101000a81548173ffffffffffffffffffffffffffffffffffffffff021916908373ffffffffffffffffffffffffffffffffffffffff1602179055508173ffffffffffffffffffffffffffffffffffffffff168173ffffffffffffffffffffffffffffffffffffffff167f8be0079c531659141344cd1fd0a4f28419497f9722a3daafe3b4186f6b6457e060405160405180910390a35050565b5f73ffffffffffffffffffffffffffffffffffffffff168273ffffffffffffffffffffffffffffffffffffffff1603620003b4575f6040517fec442f05000000000000000000000000000000000000000000000000000000008152600401620003ab919062000e04565b60405180910390fd5b620003c75f8383620003cb60201b60201c565b5050565b5f73ffffffffffffffffffffffffffffffffffffffff168373ffffffffffffffffffffffffffffffffffffffff16036200041f578060025f82825462000412919062000ef0565b92505081905550620004f0565b5f805f8573ffffffffffffffffffffffffffffffffffffffff1673ffffffffffffffffffffffffffffffffffffffff1681526020019081526020015f2054905081811015620004ab578381836040517fe450d38c000000000000000000000000000000000000000000000000000000008152600401620004a29392919062000fee565b60405180910390fd5b8181035f808673ffffffffffffffffffffffffffffffffffffffff1673ffffffffffffffffffffffffffffffffffffffff1681526020019081526020015f2081905550505b5f73ffffffffffffffffffffffffffffffffffffffff168273ffffffffffffffffffffffffffffffffffffffff160362000539578060025f828254039250508190555062000583565b805f808473ffffffffffffffffffffffffffffffffffffffff1673ffffffffffffffffffffffffffffffffffffffff1681526020019081526020015f205f82825401925050819055505b8173ffffffffffffffffffffffffffffffffffffffff168373ffffffffffffffffffffffffffffffffffffffff167fddf252ad1be2c89b69c2b068fc378daa952ba7f163c4a11628f55a4df523b3ef83604051620005e2919062001029565b60405180910390a3505050565b5f604051905090565b5f80fd5b5f80fd5b5f73ffffffffffffffffffffffffffffffffffffffff82169050919050565b5f6200062b8262000600565b9050919050565b6200063d816200061f565b811462000648575f80fd5b50565b5f815190506200065b8162000632565b92915050565b5f80fd5b5f80fd5b5f601f19601f8301169050919050565b7f4e487b71000000000000000000000000000000000000000000000000000000005f52604160045260245ffd5b620006b18262000669565b810181811067ffffffffffffffff82111715620006d357620006d262000679565b5b80604052505050565b5f620006e7620005ef565b9050620006f58282620006a6565b919050565b5f67ffffffffffffffff82111562000717576200071662000679565b5b620007228262000669565b9050602081019050919050565b5f5b838110156200074e57808201518184015260208101905062000731565b5f8484015250505050565b5f6200076f6200076984620006fa565b620006dc565b9050828152602081018484840111156200078e576200078d62000665565b5b6200079b8482856200072f565b509392505050565b5f82601f830112620007ba57620007b962000661565b5b8151620007cc84826020860162000759565b91505092915050565b5f819050919050565b620007e981620007d5565b8114620007f4575f80fd5b50565b5f815190506200080781620007de565b92915050565b5f67ffffffffffffffff8211156200082a576200082962000679565b5b602082029050602081019050919050565b5f80fd5b5f620008556200084f846200080d565b620006dc565b905080838252602082019050602084028301858111156200087b576200087a6200083b565b5b835b81811015620008a857806200089388826200064b565b8452602084019350506020810190506200087d565b5050509392505050565b5f82601f830112620008c957620008c862000661565b5b8151620008db8482602086016200083f565b91505092915050565b5f67ffffffffffffffff82111562000901576200090062000679565b5b602082029050602081019050919050565b5f620009286200092284620008e4565b620006dc565b905080838252602082019050602084028301858111156200094e576200094d6200083b565b5b835b818110156200097b5780620009668882620007f7565b84526020840193505060208101905062000950565b5050509392505050565b5f82601f8301126200099c576200099b62000661565b5b8151620009ae84826020860162000912565b91505092915050565b5f805f805f805f60e0888a031215620009d557620009d4620005f8565b5b5f620009e48a828b016200064b565b975050602088015167ffffffffffffffff81111562000a085762000a07620005fc565b5b62000a168a828b01620007a3565b965050604088015167ffffffffffffffff81111562000a3a5762000a39620005fc565b5b62000a488a828b01620007a3565b955050606062000a5b8a828b01620007f7565b945050608088015167ffffffffffffffff81111562000a7f5762000a7e620005fc565b5b62000a8d8a828b01620008b2565b93505060a088015167ffffffffffffffff81111562000ab15762000ab0620005fc565b5b62000abf8a828b0162000985565b92505060c062000ad28a828b01620007f7565b91505092959891949750929550565b5f81519050919050565b7f4e487b71000000000000000000000000000000000000000000000000000000005f52602260045260245ffd5b5f600282049050600182168062000b3057607f821691505b60208210810362000b465762000b4562000aeb565b5b50919050565b5f819050815f5260205f209050919050565b5f6020601f8301049050919050565b5f82821b905092915050565b5f6008830262000baa7fffffffffffffffffffffffffffffffffffffffffffffffffffffffffffffffff8262000b6d565b62000bb6868362000b6d565b95508019841693508086168417925050509392505050565b5f819050919050565b5f62000bf762000bf162000beb84620007d5565b62000bce565b620007d5565b9050919050565b5f819050919050565b62000c128362000bd7565b62000c2a62000c218262000bfe565b84845462000b79565b825550505050565b5f90565b62000c4062000c32565b62000c4d81848462000c07565b505050565b5b8181101562000c745762000c685f8262000c36565b60018101905062000c53565b5050565b601f82111562000cc35762000c8d8162000b4c565b62000c988462000b5e565b8101602085101562000ca8578190505b62000cc062000cb78562000b5e565b83018262000c52565b50505b505050565b5f82821c905092915050565b5f62000ce55f198460080262000cc8565b1980831691505092915050565b5f62000cff838362000cd4565b9150826002028217905092915050565b62000d1a8262000ae1565b67ffffffffffffffff81111562000d365762000d3562000679565b5b62000d42825462000b18565b62000d4f82828562000c78565b5f60209050601f83116001811462000d85575f841562000d70578287015190505b62000d7c858262000cf2565b86555062000deb565b601f19841662000d958662000b4c565b5f5b8281101562000dbe5784890151825560018201915060208501945060208101905062000d97565b8683101562000dde578489015162000dda601f89168262000cd4565b8355505b6001600288020188555050505b505050505050565b62000dfe816200061f565b82525050565b5f60208201905062000e195f83018462000df3565b92915050565b5f82825260208201905092915050565b7f737562736372696265727320616e6420746865697220616d6f756e747320646f5f8201527f206e6f74206d6174636800000000000000000000000000000000000000000000602082015250565b5f62000e8b602a8362000e1f565b915062000e988262000e2f565b604082019050919050565b5f6020820190508181035f83015262000ebc8162000e7d565b9050919050565b7f4e487b71000000000000000000000000000000000000000000000000000000005f52601160045260245ffd5b5f62000efc82620007d5565b915062000f0983620007d5565b925082820190508082111562000f245762000f2362000ec3565b5b92915050565b7f4e487b71000000000000000000000000000000000000000000000000000000005f52603260045260245ffd5b5f62000f6382620007d5565b91507fffffffffffffffffffffffffffffffffffffffffffffffffffffffffffffffff820362000f985762000f9762000ec3565b5b600182019050919050565b5f62000faf82620007d5565b915062000fbc83620007d5565b925082820390508181111562000fd75762000fd662000ec3565b5b92915050565b62000fe881620007d5565b82525050565b5f606082019050620010035f83018662000df3565b62001012602083018562000fdd565b62001021604083018462000fdd565b949350505050565b5f6020820190506200103e5f83018462000fdd565b92915050565b611de980620010525f395ff3fe608060405234801561000f575f80fd5b5060043610610114575f3560e01c806395d89b41116100a0578063b93a53961161006f578063b93a5396146102ce578063bd7dac92146102ea578063c0a4d64d14610308578063dd62ed3e14610326578063f2fde38b1461035657610114565b806395d89b41146102465780639f3adb0e14610264578063a9059cbb14610282578063ae84827a146102b257610114565b806323b872dd116100e757806323b872dd146101a0578063313ce567146101d057806370a08231146101ee578063715018a61461021e5780638da5cb5b1461022857610114565b806306fdde0314610118578063095ea7b3146101365780630de65a441461016657806318160ddd14610182575b5f80fd5b610120610372565b60405161012d91906112b9565b60405180910390f35b610150600480360381019061014b9190611377565b610402565b60405161015d91906113cf565b60405180910390f35b610180600480360381019061017b9190611514565b610424565b005b61018a61043f565b604051610197919061156a565b60405180910390f35b6101ba60048036038101906101b59190611583565b610448565b6040516101c791906113cf565b60405180910390f35b6101d86105a0565b6040516101e591906115ee565b60405180910390f35b61020860048036038101906102039190611607565b6105a4565b604051610215919061156a565b60405180910390f35b6102266105e9565b005b6102306105fc565b60405161023d9190611641565b60405180910390f35b61024e610624565b60405161025b91906112b9565b60405180910390f35b61026c6106b4565b604051610279919061156a565b60405180910390f35b61029c60048036038101906102979190611377565b6106ba565b6040516102a991906113cf565b60405180910390f35b6102cc60048036038101906102c79190611377565b610849565b005b6102e860048036038101906102e39190611377565b61085f565b005b6102f2610875565b6040516102ff91906112b9565b60405180910390f35b610310610905565b60405161031d919061156a565b60405180910390f35b610340600480360381019061033b919061165a565b61090e565b60405161034d919061156a565b60405180910390f35b610370600480360381019061036b9190611607565b610990565b005b606060038054610381906116c5565b80601f01602080910402602001604051908101604052809291908181526020018280546103ad906116c5565b80156103f85780601f106103cf576101008083540402835291602001916103f8565b820191905f5260205f20905b8154815290600101906020018083116103db57829003601f168201915b5050505050905090565b5f8061040c610a14565b9050610419818585610a1b565b600191505092915050565b61042c610a2d565b80600a908161043b9190611892565b5050565b5f600254905090565b5f6104516105fc565b73ffffffffffffffffffffffffffffffffffffffff168473ffffffffffffffffffffffffffffffffffffffff16036104cd576009544210156104c8576040517f08c379a00000000000000000000000000000000000000000000000000000000081526004016104bf906119ab565b60405180910390fd5b610513565b600854421015610512576040517f08c379a000000000000000000000000000000000000000000000000000000000815260040161050990611a13565b60405180910390fd5b5b5f8261051e856105a4565b6105289190611a5e565b9050606461053461043f565b60146105409190611a91565b61054a9190611aff565b811061058b576040517f08c379a000000000000000000000000000000000000000000000000000000000815260040161058290611b9f565b60405180910390fd5b610596858585610ab4565b9150509392505050565b5f90565b5f805f8373ffffffffffffffffffffffffffffffffffffffff1673ffffffffffffffffffffffffffffffffffffffff1681526020019081526020015f20549050919050565b6105f1610a2d565b6105fa5f610ae2565b565b5f60055f9054906101000a900473ffffffffffffffffffffffffffffffffffffffff16905090565b606060048054610633906116c5565b80601f016020809104026020016040519081016040528092919081815260200182805461065f906116c5565b80156106aa5780601f10610681576101008083540402835291602001916106aa565b820191905f5260205f20905b81548152906001019060200180831161068d57829003601f168201915b5050505050905090565b60095481565b5f6106c36105fc565b73ffffffffffffffffffffffffffffffffffffffff163373ffffffffffffffffffffffffffffffffffffffff160361073b5760095442101561073a576040517f08c379a000000000000000000000000000000000000000000000000000000000815260040161073190611c2d565b60405180910390fd5b5b600854421015610780576040517f08c379a000000000000000000000000000000000000000000000000000000000815260040161077790611c95565b60405180910390fd5b5f8261078b856105a4565b6107959190611a5e565b905060646107a161043f565b60146107ad9190611a91565b6107b79190611aff565b81106107f8576040517f08c379a00000000000000000000000000000000000000000000000000000000081526004016107ef90611b9f565b60405180910390fd5b7f8519cdb8ad47f1f5f5bc583d2063d1fc1ffed7dac0cab9e8b1f6492aa60cbd7f338585600b60405161082e9493929190611d34565b60405180910390a16108408484610ba5565b91505092915050565b610851610a2d565b61085b8282610bc7565b5050565b610867610a2d565b6108718282610c46565b5050565b6060600a8054610884906116c5565b80601f01602080910402602001604051908101604052809291908181526020018280546108b0906116c5565b80156108fb5780601f106108d2576101008083540402835291602001916108fb565b820191905f5260205f20905b8154815290600101906020018083116108de57829003601f168201915b5050505050905090565b5f600854905090565b5f60015f8473ffffffffffffffffffffffffffffffffffffffff1673ffffffffffffffffffffffffffffffffffffffff1681526020019081526020015f205f8373ffffffffffffffffffffffffffffffffffffffff1673ffffffffffffffffffffffffffffffffffffffff1681526020019081526020015f2054905092915050565b610998610a2d565b5f73ffffffffffffffffffffffffffffffffffffffff168173ffffffffffffffffffffffffffffffffffffffff1603610a08575f6040517f1e4fbdf70000000000000000000000000000000000000000000000000000000081526004016109ff9190611641565b60405180910390fd5b610a1181610ae2565b50565b5f33905090565b610a288383836001610cc5565b505050565b610a35610a14565b73ffffffffffffffffffffffffffffffffffffffff16610a536105fc565b73ffffffffffffffffffffffffffffffffffffffff1614610ab257610a76610a14565b6040517f118cdaa7000000000000000000000000000000000000000000000000000000008152600401610aa99190611641565b60405180910390fd5b565b5f80610abe610a14565b9050610acb858285610e94565b610ad6858585610f26565b60019150509392505050565b5f60055f9054906101000a900473ffffffffffffffffffffffffffffffffffffffff1690508160055f6101000a81548173ffffffffffffffffffffffffffffffffffffffff021916908373ffffffffffffffffffffffffffffffffffffffff1602179055508173ffffffffffffffffffffffffffffffffffffffff168173ffffffffffffffffffffffffffffffffffffffff167f8be0079c531659141344cd1fd0a4f28419497f9722a3daafe3b4186f6b6457e060405160405180910390a35050565b5f80610baf610a14565b9050610bbc818585610f26565b600191505092915050565b5f73ffffffffffffffffffffffffffffffffffffffff168273ffffffffffffffffffffffffffffffffffffffff1603610c37575f6040517f96c6fd1e000000000000000000000000000000000000000000000000000000008152600401610c2e9190611641565b60405180910390fd5b610c42825f83611016565b5050565b5f73ffffffffffffffffffffffffffffffffffffffff168273ffffffffffffffffffffffffffffffffffffffff1603610cb6575f6040517fec442f05000000000000000000000000000000000000000000000000000000008152600401610cad9190611641565b60405180910390fd5b610cc15f8383611016565b5050565b5f73ffffffffffffffffffffffffffffffffffffffff168473ffffffffffffffffffffffffffffffffffffffff1603610d35575f6040517fe602df05000000000000000000000000000000000000000000000000000000008152600401610d2c9190611641565b60405180910390fd5b5f73ffffffffffffffffffffffffffffffffffffffff168373ffffffffffffffffffffffffffffffffffffffff1603610da5575f6040517f94280d62000000000000000000000000000000000000000000000000000000008152600401610d9c9190611641565b60405180910390fd5b8160015f8673ffffffffffffffffffffffffffffffffffffffff1673ffffffffffffffffffffffffffffffffffffffff1681526020019081526020015f205f8573ffffffffffffffffffffffffffffffffffffffff1673ffffffffffffffffffffffffffffffffffffffff1681526020019081526020015f20819055508015610e8e578273ffffffffffffffffffffffffffffffffffffffff168473ffffffffffffffffffffffffffffffffffffffff167f8c5be1e5ebec7d5bd14f71427d1e84f3dd0314c0f7b2291e5b200ac8c7c3b92584604051610e85919061156a565b60405180910390a35b50505050565b5f610e9f848461090e565b90507fffffffffffffffffffffffffffffffffffffffffffffffffffffffffffffffff8114610f205781811015610f11578281836040517ffb8f41b2000000000000000000000000000000000000000000000000000000008152600401610f0893929190611d7e565b60405180910390fd5b610f1f84848484035f610cc5565b5b50505050565b5f73ffffffffffffffffffffffffffffffffffffffff168373ffffffffffffffffffffffffffffffffffffffff1603610f96575f6040517f96c6fd1e000000000000000000000000000000000000000000000000000000008152600401610f8d9190611641565b60405180910390fd5b5f73ffffffffffffffffffffffffffffffffffffffff168273ffffffffffffffffffffffffffffffffffffffff1603611006575f6040517fec442f05000000000000000000000000000000000000000000000000000000008152600401610ffd9190611641565b60405180910390fd5b611011838383611016565b505050565b5f73ffffffffffffffffffffffffffffffffffffffff168373ffffffffffffffffffffffffffffffffffffffff1603611066578060025f82825461105a9190611a5e565b92505081905550611134565b5f805f8573ffffffffffffffffffffffffffffffffffffffff1673ffffffffffffffffffffffffffffffffffffffff1681526020019081526020015f20549050818110156110ef578381836040517fe450d38c0000000000000000000000000000000000000000000000000000000081526004016110e693929190611d7e565b60405180910390fd5b8181035f808673ffffffffffffffffffffffffffffffffffffffff1673ffffffffffffffffffffffffffffffffffffffff1681526020019081526020015f2081905550505b5f73ffffffffffffffffffffffffffffffffffffffff168273ffffffffffffffffffffffffffffffffffffffff160361117b578060025f82825403925050819055506111c5565b805f808473ffffffffffffffffffffffffffffffffffffffff1673ffffffffffffffffffffffffffffffffffffffff1681526020019081526020015f205f82825401925050819055505b8173ffffffffffffffffffffffffffffffffffffffff168373ffffffffffffffffffffffffffffffffffffffff167fddf252ad1be2c89b69c2b068fc378daa952ba7f163c4a11628f55a4df523b3ef83604051611222919061156a565b60405180910390a3505050565b5f81519050919050565b5f82825260208201905092915050565b5f5b8381101561126657808201518184015260208101905061124b565b5f8484015250505050565b5f601f19601f8301169050919050565b5f61128b8261122f565b6112958185611239565b93506112a5818560208601611249565b6112ae81611271565b840191505092915050565b5f6020820190508181035f8301526112d18184611281565b905092915050565b5f604051905090565b5f80fd5b5f80fd5b5f73ffffffffffffffffffffffffffffffffffffffff82169050919050565b5f611313826112ea565b9050919050565b61132381611309565b811461132d575f80fd5b50565b5f8135905061133e8161131a565b92915050565b5f819050919050565b61135681611344565b8114611360575f80fd5b50565b5f813590506113718161134d565b92915050565b5f806040838503121561138d5761138c6112e2565b5b5f61139a85828601611330565b92505060206113ab85828601611363565b9150509250929050565b5f8115159050919050565b6113c9816113b5565b82525050565b5f6020820190506113e25f8301846113c0565b92915050565b5f80fd5b5f80fd5b7f4e487b71000000000000000000000000000000000000000000000000000000005f52604160045260245ffd5b61142682611271565b810181811067ffffffffffffffff82111715611445576114446113f0565b5b80604052505050565b5f6114576112d9565b9050611463828261141d565b919050565b5f67ffffffffffffffff821115611482576114816113f0565b5b61148b82611271565b9050602081019050919050565b828183375f83830152505050565b5f6114b86114b384611468565b61144e565b9050828152602081018484840111156114d4576114d36113ec565b5b6114df848285611498565b509392505050565b5f82601f8301126114fb576114fa6113e8565b5b813561150b8482602086016114a6565b91505092915050565b5f60208284031215611529576115286112e2565b5b5f82013567ffffffffffffffff811115611546576115456112e6565b5b611552848285016114e7565b91505092915050565b61156481611344565b82525050565b5f60208201905061157d5f83018461155b565b92915050565b5f805f6060848603121561159a576115996112e2565b5b5f6115a786828701611330565b93505060206115b886828701611330565b92505060406115c986828701611363565b9150509250925092565b5f60ff82169050919050565b6115e8816115d3565b82525050565b5f6020820190506116015f8301846115df565b92915050565b5f6020828403121561161c5761161b6112e2565b5b5f61162984828501611330565b91505092915050565b61163b81611309565b82525050565b5f6020820190506116545f830184611632565b92915050565b5f80604083850312156116705761166f6112e2565b5b5f61167d85828601611330565b925050602061168e85828601611330565b9150509250929050565b7f4e487b71000000000000000000000000000000000000000000000000000000005f52602260045260245ffd5b5f60028204905060018216806116dc57607f821691505b6020821081036116ef576116ee611698565b5b50919050565b5f819050815f5260205f209050919050565b5f6020601f8301049050919050565b5f82821b905092915050565b5f600883026117517fffffffffffffffffffffffffffffffffffffffffffffffffffffffffffffffff82611716565b61175b8683611716565b95508019841693508086168417925050509392505050565b5f819050919050565b5f61179661179161178c84611344565b611773565b611344565b9050919050565b5f819050919050565b6117af8361177c565b6117c36117bb8261179d565b848454611722565b825550505050565b5f90565b6117d76117cb565b6117e28184846117a6565b505050565b5b81811015611805576117fa5f826117cf565b6001810190506117e8565b5050565b601f82111561184a5761181b816116f5565b61182484611707565b81016020851015611833578190505b61184761183f85611707565b8301826117e7565b50505b505050565b5f82821c905092915050565b5f61186a5f198460080261184f565b1980831691505092915050565b5f611882838361185b565b9150826002028217905092915050565b61189b8261122f565b67ffffffffffffffff8111156118b4576118b36113f0565b5b6118be82546116c5565b6118c9828285611809565b5f60209050601f8311600181146118fa575f84156118e8578287015190505b6118f28582611877565b865550611959565b601f198416611908866116f5565b5f5b8281101561192f5784890151825560018201915060208501945060208101905061190a565b8683101561194c5784890151611948601f89168261185b565b8355505b6001600288020188555050505b505050505050565b7f41646d696e277320746f6b656e7320617265206c6f636b6564000000000000005f82015250565b5f611995601983611239565b91506119a082611961565b602082019050919050565b5f6020820190508181035f8301526119c281611989565b9050919050565b7f546f6b656e7320617265206c6f636b65640000000000000000000000000000005f82015250565b5f6119fd601183611239565b9150611a08826119c9565b602082019050919050565b5f6020820190508181035f830152611a2a816119f1565b9050919050565b7f4e487b71000000000000000000000000000000000000000000000000000000005f52601160045260245ffd5b5f611a6882611344565b9150611a7383611344565b9250828201905080821115611a8b57611a8a611a31565b5b92915050565b5f611a9b82611344565b9150611aa683611344565b9250828202611ab481611344565b91508282048414831517611acb57611aca611a31565b5b5092915050565b7f4e487b71000000000000000000000000000000000000000000000000000000005f52601260045260245ffd5b5f611b0982611344565b9150611b1483611344565b925082611b2457611b23611ad2565b5b828204905092915050565b7f4f776e657273686970206361707065642061742032302520746f20656e7375725f8201527f6520646563656e7472616c697a6174696f6e0000000000000000000000000000602082015250565b5f611b89603283611239565b9150611b9482611b2f565b604082019050919050565b5f6020820190508181035f830152611bb681611b7d565b9050919050565b7f61646d696e277320746f6b656e7320617265206c6f636b656420666f7220616e5f8201527f2079656172000000000000000000000000000000000000000000000000000000602082015250565b5f611c17602583611239565b9150611c2282611bbd565b604082019050919050565b5f6020820190508181035f830152611c4481611c0b565b9050919050565b7f6e6f7420666f722073616c6520796574000000000000000000000000000000005f82015250565b5f611c7f601083611239565b9150611c8a82611c4b565b602082019050919050565b5f6020820190508181035f830152611cac81611c73565b9050919050565b5f8154611cbf816116c5565b611cc98186611239565b9450600182165f8114611ce35760018114611cf957611d2b565b60ff198316865281151560200286019350611d2b565b611d02856116f5565b5f5b83811015611d2357815481890152600182019150602081019050611d04565b808801955050505b50505092915050565b5f608082019050611d475f830187611632565b611d546020830186611632565b611d61604083018561155b565b8181036060830152611d738184611cb3565b905095945050505050565b5f606082019050611d915f830186611632565b611d9e602083018561155b565b611dab604083018461155b565b94935050505056fea2646970667358221220e70d2ea1e649f2e52c7cec53763fe632648c82d5adf0023b379ffbcdd6f752ca64736f6c63430008140033",
					"opcodes": "PUSH1 0x80 PUSH1 0x40 MSTORE CALLVALUE DUP1 ISZERO PUSH3 0x10 JUMPI PUSH0 DUP1 REVERT JUMPDEST POP PUSH1 0x40 MLOAD PUSH3 0x2E3B CODESIZE SUB DUP1 PUSH3 0x2E3B DUP4 CODECOPY DUP2 DUP2 ADD PUSH1 0x40 MSTORE DUP2 ADD SWAP1 PUSH3 0x36 SWAP2 SWAP1 PUSH3 0x9B7 JUMP JUMPDEST DUP7 DUP7 DUP7 DUP2 PUSH1 0x3 SWAP1 DUP2 PUSH3 0x4A SWAP2 SWAP1 PUSH3 0xD0F JUMP JUMPDEST POP DUP1 PUSH1 0x4 SWAP1 DUP2 PUSH3 0x5C SWAP2 SWAP1 PUSH3 0xD0F JUMP JUMPDEST POP POP POP PUSH0 PUSH20 0xFFFFFFFFFFFFFFFFFFFFFFFFFFFFFFFFFFFFFFFF AND DUP2 PUSH20 0xFFFFFFFFFFFFFFFFFFFFFFFFFFFFFFFFFFFFFFFF AND SUB PUSH3 0xD2 JUMPI PUSH0 PUSH1 0x40 MLOAD PUSH32 0x1E4FBDF700000000000000000000000000000000000000000000000000000000 DUP2 MSTORE PUSH1 0x4 ADD PUSH3 0xC9 SWAP2 SWAP1 PUSH3 0xE04 JUMP JUMPDEST PUSH1 0x40 MLOAD DUP1 SWAP2 SUB SWAP1 REVERT JUMPDEST PUSH3 0xE3 DUP2 PUSH3 0x27E PUSH1 0x20 SHL PUSH1 0x20 SHR JUMP JUMPDEST POP DUP2 MLOAD DUP4 MLOAD EQ PUSH3 0x12B JUMPI PUSH1 0x40 MLOAD PUSH32 0x8C379A000000000000000000000000000000000000000000000000000000000 DUP2 MSTORE PUSH1 0x4 ADD PUSH3 0x122 SWAP1 PUSH3 0xEA3 JUMP JUMPDEST PUSH1 0x40 MLOAD DUP1 SWAP2 SUB SWAP1 REVERT JUMPDEST DUP4 PUSH1 0x7 DUP2 SWAP1 SSTORE POP DUP1 TIMESTAMP PUSH3 0x140 SWAP2 SWAP1 PUSH3 0xEF0 JUMP JUMPDEST PUSH1 0x8 DUP2 SWAP1 SSTORE POP PUSH0 JUMPDEST DUP4 MLOAD DUP2 LT ISZERO PUSH3 0x226 JUMPI PUSH1 0x7 SLOAD PUSH1 0x6 SLOAD DUP5 DUP4 DUP2 MLOAD DUP2 LT PUSH3 0x16E JUMPI PUSH3 0x16D PUSH3 0xF2A JUMP JUMPDEST JUMPDEST PUSH1 0x20 MUL PUSH1 0x20 ADD ADD MLOAD PUSH3 0x182 SWAP2 SWAP1 PUSH3 0xEF0 JUMP JUMPDEST GT ISZERO PUSH3 0x18D JUMPI PUSH0 DUP1 REVERT JUMPDEST PUSH3 0x1D9 DUP5 DUP3 DUP2 MLOAD DUP2 LT PUSH3 0x1A7 JUMPI PUSH3 0x1A6 PUSH3 0xF2A JUMP JUMPDEST JUMPDEST PUSH1 0x20 MUL PUSH1 0x20 ADD ADD MLOAD DUP5 DUP4 DUP2 MLOAD DUP2 LT PUSH3 0x1C5 JUMPI PUSH3 0x1C4 PUSH3 0xF2A JUMP JUMPDEST JUMPDEST PUSH1 0x20 MUL PUSH1 0x20 ADD ADD MLOAD PUSH3 0x341 PUSH1 0x20 SHL PUSH1 0x20 SHR JUMP JUMPDEST DUP3 DUP2 DUP2 MLOAD DUP2 LT PUSH3 0x1EF JUMPI PUSH3 0x1EE PUSH3 0xF2A JUMP JUMPDEST JUMPDEST PUSH1 0x20 MUL PUSH1 0x20 ADD ADD MLOAD PUSH1 0x6 PUSH0 DUP3 DUP3 SLOAD PUSH3 0x209 SWAP2 SWAP1 PUSH3 0xEF0 JUMP JUMPDEST SWAP3 POP POP DUP2 SWAP1 SSTORE POP DUP1 DUP1 PUSH3 0x21D SWAP1 PUSH3 0xF57 JUMP JUMPDEST SWAP2 POP POP PUSH3 0x148 JUMP JUMPDEST POP PUSH0 PUSH1 0x6 SLOAD PUSH1 0x7 SLOAD PUSH3 0x23A SWAP2 SWAP1 PUSH3 0xFA3 JUMP JUMPDEST SWAP1 POP PUSH0 DUP2 GT ISZERO PUSH3 0x270 JUMPI PUSH3 0x257 DUP9 DUP3 PUSH3 0x341 PUSH1 0x20 SHL PUSH1 0x20 SHR JUMP JUMPDEST PUSH4 0x1E13380 TIMESTAMP PUSH3 0x269 SWAP2 SWAP1 PUSH3 0xEF0 JUMP JUMPDEST PUSH1 0x9 DUP2 SWAP1 SSTORE POP JUMPDEST POP POP POP POP POP POP POP POP PUSH3 0x1044 JUMP JUMPDEST PUSH0 PUSH1 0x5 PUSH0 SWAP1 SLOAD SWAP1 PUSH2 0x100 EXP SWAP1 DIV PUSH20 0xFFFFFFFFFFFFFFFFFFFFFFFFFFFFFFFFFFFFFFFF AND SWAP1 POP DUP2 PUSH1 0x5 PUSH0 PUSH2 0x100 EXP DUP2 SLOAD DUP2 PUSH20 0xFFFFFFFFFFFFFFFFFFFFFFFFFFFFFFFFFFFFFFFF MUL NOT AND SWAP1 DUP4 PUSH20 0xFFFFFFFFFFFFFFFFFFFFFFFFFFFFFFFFFFFFFFFF AND MUL OR SWAP1 SSTORE POP DUP2 PUSH20 0xFFFFFFFFFFFFFFFFFFFFFFFFFFFFFFFFFFFFFFFF AND DUP2 PUSH20 0xFFFFFFFFFFFFFFFFFFFFFFFFFFFFFFFFFFFFFFFF AND PUSH32 0x8BE0079C531659141344CD1FD0A4F28419497F9722A3DAAFE3B4186F6B6457E0 PUSH1 0x40 MLOAD PUSH1 0x40 MLOAD DUP1 SWAP2 SUB SWAP1 LOG3 POP POP JUMP JUMPDEST PUSH0 PUSH20 0xFFFFFFFFFFFFFFFFFFFFFFFFFFFFFFFFFFFFFFFF AND DUP3 PUSH20 0xFFFFFFFFFFFFFFFFFFFFFFFFFFFFFFFFFFFFFFFF AND SUB PUSH3 0x3B4 JUMPI PUSH0 PUSH1 0x40 MLOAD PUSH32 0xEC442F0500000000000000000000000000000000000000000000000000000000 DUP2 MSTORE PUSH1 0x4 ADD PUSH3 0x3AB SWAP2 SWAP1 PUSH3 0xE04 JUMP JUMPDEST PUSH1 0x40 MLOAD DUP1 SWAP2 SUB SWAP1 REVERT JUMPDEST PUSH3 0x3C7 PUSH0 DUP4 DUP4 PUSH3 0x3CB PUSH1 0x20 SHL PUSH1 0x20 SHR JUMP JUMPDEST POP POP JUMP JUMPDEST PUSH0 PUSH20 0xFFFFFFFFFFFFFFFFFFFFFFFFFFFFFFFFFFFFFFFF AND DUP4 PUSH20 0xFFFFFFFFFFFFFFFFFFFFFFFFFFFFFFFFFFFFFFFF AND SUB PUSH3 0x41F JUMPI DUP1 PUSH1 0x2 PUSH0 DUP3 DUP3 SLOAD PUSH3 0x412 SWAP2 SWAP1 PUSH3 0xEF0 JUMP JUMPDEST SWAP3 POP POP DUP2 SWAP1 SSTORE POP PUSH3 0x4F0 JUMP JUMPDEST PUSH0 DUP1 PUSH0 DUP6 PUSH20 0xFFFFFFFFFFFFFFFFFFFFFFFFFFFFFFFFFFFFFFFF AND PUSH20 0xFFFFFFFFFFFFFFFFFFFFFFFFFFFFFFFFFFFFFFFF AND DUP2 MSTORE PUSH1 0x20 ADD SWAP1 DUP2 MSTORE PUSH1 0x20 ADD PUSH0 KECCAK256 SLOAD SWAP1 POP DUP2 DUP2 LT ISZERO PUSH3 0x4AB JUMPI DUP4 DUP2 DUP4 PUSH1 0x40 MLOAD PUSH32 0xE450D38C00000000000000000000000000000000000000000000000000000000 DUP2 MSTORE PUSH1 0x4 ADD PUSH3 0x4A2 SWAP4 SWAP3 SWAP2 SWAP1 PUSH3 0xFEE JUMP JUMPDEST PUSH1 0x40 MLOAD DUP1 SWAP2 SUB SWAP1 REVERT JUMPDEST DUP2 DUP2 SUB PUSH0 DUP1 DUP7 PUSH20 0xFFFFFFFFFFFFFFFFFFFFFFFFFFFFFFFFFFFFFFFF AND PUSH20 0xFFFFFFFFFFFFFFFFFFFFFFFFFFFFFFFFFFFFFFFF AND DUP2 MSTORE PUSH1 0x20 ADD SWAP1 DUP2 MSTORE PUSH1 0x20 ADD PUSH0 KECCAK256 DUP2 SWAP1 SSTORE POP POP JUMPDEST PUSH0 PUSH20 0xFFFFFFFFFFFFFFFFFFFFFFFFFFFFFFFFFFFFFFFF AND DUP3 PUSH20 0xFFFFFFFFFFFFFFFFFFFFFFFFFFFFFFFFFFFFFFFF AND SUB PUSH3 0x539 JUMPI DUP1 PUSH1 0x2 PUSH0 DUP3 DUP3 SLOAD SUB SWAP3 POP POP DUP2 SWAP1 SSTORE POP PUSH3 0x583 JUMP JUMPDEST DUP1 PUSH0 DUP1 DUP5 PUSH20 0xFFFFFFFFFFFFFFFFFFFFFFFFFFFFFFFFFFFFFFFF AND PUSH20 0xFFFFFFFFFFFFFFFFFFFFFFFFFFFFFFFFFFFFFFFF AND DUP2 MSTORE PUSH1 0x20 ADD SWAP1 DUP2 MSTORE PUSH1 0x20 ADD PUSH0 KECCAK256 PUSH0 DUP3 DUP3 SLOAD ADD SWAP3 POP POP DUP2 SWAP1 SSTORE POP JUMPDEST DUP2 PUSH20 0xFFFFFFFFFFFFFFFFFFFFFFFFFFFFFFFFFFFFFFFF AND DUP4 PUSH20 0xFFFFFFFFFFFFFFFFFFFFFFFFFFFFFFFFFFFFFFFF AND PUSH32 0xDDF252AD1BE2C89B69C2B068FC378DAA952BA7F163C4A11628F55A4DF523B3EF DUP4 PUSH1 0x40 MLOAD PUSH3 0x5E2 SWAP2 SWAP1 PUSH3 0x1029 JUMP JUMPDEST PUSH1 0x40 MLOAD DUP1 SWAP2 SUB SWAP1 LOG3 POP POP POP JUMP JUMPDEST PUSH0 PUSH1 0x40 MLOAD SWAP1 POP SWAP1 JUMP JUMPDEST PUSH0 DUP1 REVERT JUMPDEST PUSH0 DUP1 REVERT JUMPDEST PUSH0 PUSH20 0xFFFFFFFFFFFFFFFFFFFFFFFFFFFFFFFFFFFFFFFF DUP3 AND SWAP1 POP SWAP2 SWAP1 POP JUMP JUMPDEST PUSH0 PUSH3 0x62B DUP3 PUSH3 0x600 JUMP JUMPDEST SWAP1 POP SWAP2 SWAP1 POP JUMP JUMPDEST PUSH3 0x63D DUP2 PUSH3 0x61F JUMP JUMPDEST DUP2 EQ PUSH3 0x648 JUMPI PUSH0 DUP1 REVERT JUMPDEST POP JUMP JUMPDEST PUSH0 DUP2 MLOAD SWAP1 POP PUSH3 0x65B DUP2 PUSH3 0x632 JUMP JUMPDEST SWAP3 SWAP2 POP POP JUMP JUMPDEST PUSH0 DUP1 REVERT JUMPDEST PUSH0 DUP1 REVERT JUMPDEST PUSH0 PUSH1 0x1F NOT PUSH1 0x1F DUP4 ADD AND SWAP1 POP SWAP2 SWAP1 POP JUMP JUMPDEST PUSH32 0x4E487B7100000000000000000000000000000000000000000000000000000000 PUSH0 MSTORE PUSH1 0x41 PUSH1 0x4 MSTORE PUSH1 0x24 PUSH0 REVERT JUMPDEST PUSH3 0x6B1 DUP3 PUSH3 0x669 JUMP JUMPDEST DUP2 ADD DUP2 DUP2 LT PUSH8 0xFFFFFFFFFFFFFFFF DUP3 GT OR ISZERO PUSH3 0x6D3 JUMPI PUSH3 0x6D2 PUSH3 0x679 JUMP JUMPDEST JUMPDEST DUP1 PUSH1 0x40 MSTORE POP POP POP JUMP JUMPDEST PUSH0 PUSH3 0x6E7 PUSH3 0x5EF JUMP JUMPDEST SWAP1 POP PUSH3 0x6F5 DUP3 DUP3 PUSH3 0x6A6 JUMP JUMPDEST SWAP2 SWAP1 POP JUMP JUMPDEST PUSH0 PUSH8 0xFFFFFFFFFFFFFFFF DUP3 GT ISZERO PUSH3 0x717 JUMPI PUSH3 0x716 PUSH3 0x679 JUMP JUMPDEST JUMPDEST PUSH3 0x722 DUP3 PUSH3 0x669 JUMP JUMPDEST SWAP1 POP PUSH1 0x20 DUP2 ADD SWAP1 POP SWAP2 SWAP1 POP JUMP JUMPDEST PUSH0 JUMPDEST DUP4 DUP2 LT ISZERO PUSH3 0x74E JUMPI DUP1 DUP3 ADD MLOAD DUP2 DUP5 ADD MSTORE PUSH1 0x20 DUP2 ADD SWAP1 POP PUSH3 0x731 JUMP JUMPDEST PUSH0 DUP5 DUP5 ADD MSTORE POP POP POP POP JUMP JUMPDEST PUSH0 PUSH3 0x76F PUSH3 0x769 DUP5 PUSH3 0x6FA JUMP JUMPDEST PUSH3 0x6DC JUMP JUMPDEST SWAP1 POP DUP3 DUP2 MSTORE PUSH1 0x20 DUP2 ADD DUP5 DUP5 DUP5 ADD GT ISZERO PUSH3 0x78E JUMPI PUSH3 0x78D PUSH3 0x665 JUMP JUMPDEST JUMPDEST PUSH3 0x79B DUP5 DUP3 DUP6 PUSH3 0x72F JUMP JUMPDEST POP SWAP4 SWAP3 POP POP POP JUMP JUMPDEST PUSH0 DUP3 PUSH1 0x1F DUP4 ADD SLT PUSH3 0x7BA JUMPI PUSH3 0x7B9 PUSH3 0x661 JUMP JUMPDEST JUMPDEST DUP2 MLOAD PUSH3 0x7CC DUP5 DUP3 PUSH1 0x20 DUP7 ADD PUSH3 0x759 JUMP JUMPDEST SWAP2 POP POP SWAP3 SWAP2 POP POP JUMP JUMPDEST PUSH0 DUP2 SWAP1 POP SWAP2 SWAP1 POP JUMP JUMPDEST PUSH3 0x7E9 DUP2 PUSH3 0x7D5 JUMP JUMPDEST DUP2 EQ PUSH3 0x7F4 JUMPI PUSH0 DUP1 REVERT JUMPDEST POP JUMP JUMPDEST PUSH0 DUP2 MLOAD SWAP1 POP PUSH3 0x807 DUP2 PUSH3 0x7DE JUMP JUMPDEST SWAP3 SWAP2 POP POP JUMP JUMPDEST PUSH0 PUSH8 0xFFFFFFFFFFFFFFFF DUP3 GT ISZERO PUSH3 0x82A JUMPI PUSH3 0x829 PUSH3 0x679 JUMP JUMPDEST JUMPDEST PUSH1 0x20 DUP3 MUL SWAP1 POP PUSH1 0x20 DUP2 ADD SWAP1 POP SWAP2 SWAP1 POP JUMP JUMPDEST PUSH0 DUP1 REVERT JUMPDEST PUSH0 PUSH3 0x855 PUSH3 0x84F DUP5 PUSH3 0x80D JUMP JUMPDEST PUSH3 0x6DC JUMP JUMPDEST SWAP1 POP DUP1 DUP4 DUP3 MSTORE PUSH1 0x20 DUP3 ADD SWAP1 POP PUSH1 0x20 DUP5 MUL DUP4 ADD DUP6 DUP2 GT ISZERO PUSH3 0x87B JUMPI PUSH3 0x87A PUSH3 0x83B JUMP JUMPDEST JUMPDEST DUP4 JUMPDEST DUP2 DUP2 LT ISZERO PUSH3 0x8A8 JUMPI DUP1 PUSH3 0x893 DUP9 DUP3 PUSH3 0x64B JUMP JUMPDEST DUP5 MSTORE PUSH1 0x20 DUP5 ADD SWAP4 POP POP PUSH1 0x20 DUP2 ADD SWAP1 POP PUSH3 0x87D JUMP JUMPDEST POP POP POP SWAP4 SWAP3 POP POP POP JUMP JUMPDEST PUSH0 DUP3 PUSH1 0x1F DUP4 ADD SLT PUSH3 0x8C9 JUMPI PUSH3 0x8C8 PUSH3 0x661 JUMP JUMPDEST JUMPDEST DUP2 MLOAD PUSH3 0x8DB DUP5 DUP3 PUSH1 0x20 DUP7 ADD PUSH3 0x83F JUMP JUMPDEST SWAP2 POP POP SWAP3 SWAP2 POP POP JUMP JUMPDEST PUSH0 PUSH8 0xFFFFFFFFFFFFFFFF DUP3 GT ISZERO PUSH3 0x901 JUMPI PUSH3 0x900 PUSH3 0x679 JUMP JUMPDEST JUMPDEST PUSH1 0x20 DUP3 MUL SWAP1 POP PUSH1 0x20 DUP2 ADD SWAP1 POP SWAP2 SWAP1 POP JUMP JUMPDEST PUSH0 PUSH3 0x928 PUSH3 0x922 DUP5 PUSH3 0x8E4 JUMP JUMPDEST PUSH3 0x6DC JUMP JUMPDEST SWAP1 POP DUP1 DUP4 DUP3 MSTORE PUSH1 0x20 DUP3 ADD SWAP1 POP PUSH1 0x20 DUP5 MUL DUP4 ADD DUP6 DUP2 GT ISZERO PUSH3 0x94E JUMPI PUSH3 0x94D PUSH3 0x83B JUMP JUMPDEST JUMPDEST DUP4 JUMPDEST DUP2 DUP2 LT ISZERO PUSH3 0x97B JUMPI DUP1 PUSH3 0x966 DUP9 DUP3 PUSH3 0x7F7 JUMP JUMPDEST DUP5 MSTORE PUSH1 0x20 DUP5 ADD SWAP4 POP POP PUSH1 0x20 DUP2 ADD SWAP1 POP PUSH3 0x950 JUMP JUMPDEST POP POP POP SWAP4 SWAP3 POP POP POP JUMP JUMPDEST PUSH0 DUP3 PUSH1 0x1F DUP4 ADD SLT PUSH3 0x99C JUMPI PUSH3 0x99B PUSH3 0x661 JUMP JUMPDEST JUMPDEST DUP2 MLOAD PUSH3 0x9AE DUP5 DUP3 PUSH1 0x20 DUP7 ADD PUSH3 0x912 JUMP JUMPDEST SWAP2 POP POP SWAP3 SWAP2 POP POP JUMP JUMPDEST PUSH0 DUP1 PUSH0 DUP1 PUSH0 DUP1 PUSH0 PUSH1 0xE0 DUP9 DUP11 SUB SLT ISZERO PUSH3 0x9D5 JUMPI PUSH3 0x9D4 PUSH3 0x5F8 JUMP JUMPDEST JUMPDEST PUSH0 PUSH3 0x9E4 DUP11 DUP3 DUP12 ADD PUSH3 0x64B JUMP JUMPDEST SWAP8 POP POP PUSH1 0x20 DUP9 ADD MLOAD PUSH8 0xFFFFFFFFFFFFFFFF DUP2 GT ISZERO PUSH3 0xA08 JUMPI PUSH3 0xA07 PUSH3 0x5FC JUMP JUMPDEST JUMPDEST PUSH3 0xA16 DUP11 DUP3 DUP12 ADD PUSH3 0x7A3 JUMP JUMPDEST SWAP7 POP POP PUSH1 0x40 DUP9 ADD MLOAD PUSH8 0xFFFFFFFFFFFFFFFF DUP2 GT ISZERO PUSH3 0xA3A JUMPI PUSH3 0xA39 PUSH3 0x5FC JUMP JUMPDEST JUMPDEST PUSH3 0xA48 DUP11 DUP3 DUP12 ADD PUSH3 0x7A3 JUMP JUMPDEST SWAP6 POP POP PUSH1 0x60 PUSH3 0xA5B DUP11 DUP3 DUP12 ADD PUSH3 0x7F7 JUMP JUMPDEST SWAP5 POP POP PUSH1 0x80 DUP9 ADD MLOAD PUSH8 0xFFFFFFFFFFFFFFFF DUP2 GT ISZERO PUSH3 0xA7F JUMPI PUSH3 0xA7E PUSH3 0x5FC JUMP JUMPDEST JUMPDEST PUSH3 0xA8D DUP11 DUP3 DUP12 ADD PUSH3 0x8B2 JUMP JUMPDEST SWAP4 POP POP PUSH1 0xA0 DUP9 ADD MLOAD PUSH8 0xFFFFFFFFFFFFFFFF DUP2 GT ISZERO PUSH3 0xAB1 JUMPI PUSH3 0xAB0 PUSH3 0x5FC JUMP JUMPDEST JUMPDEST PUSH3 0xABF DUP11 DUP3 DUP12 ADD PUSH3 0x985 JUMP JUMPDEST SWAP3 POP POP PUSH1 0xC0 PUSH3 0xAD2 DUP11 DUP3 DUP12 ADD PUSH3 0x7F7 JUMP JUMPDEST SWAP2 POP POP SWAP3 SWAP6 SWAP9 SWAP2 SWAP5 SWAP8 POP SWAP3 SWAP6 POP JUMP JUMPDEST PUSH0 DUP2 MLOAD SWAP1 POP SWAP2 SWAP1 POP JUMP JUMPDEST PUSH32 0x4E487B7100000000000000000000000000000000000000000000000000000000 PUSH0 MSTORE PUSH1 0x22 PUSH1 0x4 MSTORE PUSH1 0x24 PUSH0 REVERT JUMPDEST PUSH0 PUSH1 0x2 DUP3 DIV SWAP1 POP PUSH1 0x1 DUP3 AND DUP1 PUSH3 0xB30 JUMPI PUSH1 0x7F DUP3 AND SWAP2 POP JUMPDEST PUSH1 0x20 DUP3 LT DUP2 SUB PUSH3 0xB46 JUMPI PUSH3 0xB45 PUSH3 0xAEB JUMP JUMPDEST JUMPDEST POP SWAP2 SWAP1 POP JUMP JUMPDEST PUSH0 DUP2 SWAP1 POP DUP2 PUSH0 MSTORE PUSH1 0x20 PUSH0 KECCAK256 SWAP1 POP SWAP2 SWAP1 POP JUMP JUMPDEST PUSH0 PUSH1 0x20 PUSH1 0x1F DUP4 ADD DIV SWAP1 POP SWAP2 SWAP1 POP JUMP JUMPDEST PUSH0 DUP3 DUP3 SHL SWAP1 POP SWAP3 SWAP2 POP POP JUMP JUMPDEST PUSH0 PUSH1 0x8 DUP4 MUL PUSH3 0xBAA PUSH32 0xFFFFFFFFFFFFFFFFFFFFFFFFFFFFFFFFFFFFFFFFFFFFFFFFFFFFFFFFFFFFFFFF DUP3 PUSH3 0xB6D JUMP JUMPDEST PUSH3 0xBB6 DUP7 DUP4 PUSH3 0xB6D JUMP JUMPDEST SWAP6 POP DUP1 NOT DUP5 AND SWAP4 POP DUP1 DUP7 AND DUP5 OR SWAP3 POP POP POP SWAP4 SWAP3 POP POP POP JUMP JUMPDEST PUSH0 DUP2 SWAP1 POP SWAP2 SWAP1 POP JUMP JUMPDEST PUSH0 PUSH3 0xBF7 PUSH3 0xBF1 PUSH3 0xBEB DUP5 PUSH3 0x7D5 JUMP JUMPDEST PUSH3 0xBCE JUMP JUMPDEST PUSH3 0x7D5 JUMP JUMPDEST SWAP1 POP SWAP2 SWAP1 POP JUMP JUMPDEST PUSH0 DUP2 SWAP1 POP SWAP2 SWAP1 POP JUMP JUMPDEST PUSH3 0xC12 DUP4 PUSH3 0xBD7 JUMP JUMPDEST PUSH3 0xC2A PUSH3 0xC21 DUP3 PUSH3 0xBFE JUMP JUMPDEST DUP5 DUP5 SLOAD PUSH3 0xB79 JUMP JUMPDEST DUP3 SSTORE POP POP POP POP JUMP JUMPDEST PUSH0 SWAP1 JUMP JUMPDEST PUSH3 0xC40 PUSH3 0xC32 JUMP JUMPDEST PUSH3 0xC4D DUP2 DUP5 DUP5 PUSH3 0xC07 JUMP JUMPDEST POP POP POP JUMP JUMPDEST JUMPDEST DUP2 DUP2 LT ISZERO PUSH3 0xC74 JUMPI PUSH3 0xC68 PUSH0 DUP3 PUSH3 0xC36 JUMP JUMPDEST PUSH1 0x1 DUP2 ADD SWAP1 POP PUSH3 0xC53 JUMP JUMPDEST POP POP JUMP JUMPDEST PUSH1 0x1F DUP3 GT ISZERO PUSH3 0xCC3 JUMPI PUSH3 0xC8D DUP2 PUSH3 0xB4C JUMP JUMPDEST PUSH3 0xC98 DUP5 PUSH3 0xB5E JUMP JUMPDEST DUP2 ADD PUSH1 0x20 DUP6 LT ISZERO PUSH3 0xCA8 JUMPI DUP2 SWAP1 POP JUMPDEST PUSH3 0xCC0 PUSH3 0xCB7 DUP6 PUSH3 0xB5E JUMP JUMPDEST DUP4 ADD DUP3 PUSH3 0xC52 JUMP JUMPDEST POP POP JUMPDEST POP POP POP JUMP JUMPDEST PUSH0 DUP3 DUP3 SHR SWAP1 POP SWAP3 SWAP2 POP POP JUMP JUMPDEST PUSH0 PUSH3 0xCE5 PUSH0 NOT DUP5 PUSH1 0x8 MUL PUSH3 0xCC8 JUMP JUMPDEST NOT DUP1 DUP4 AND SWAP2 POP POP SWAP3 SWAP2 POP POP JUMP JUMPDEST PUSH0 PUSH3 0xCFF DUP4 DUP4 PUSH3 0xCD4 JUMP JUMPDEST SWAP2 POP DUP3 PUSH1 0x2 MUL DUP3 OR SWAP1 POP SWAP3 SWAP2 POP POP JUMP JUMPDEST PUSH3 0xD1A DUP3 PUSH3 0xAE1 JUMP JUMPDEST PUSH8 0xFFFFFFFFFFFFFFFF DUP2 GT ISZERO PUSH3 0xD36 JUMPI PUSH3 0xD35 PUSH3 0x679 JUMP JUMPDEST JUMPDEST PUSH3 0xD42 DUP3 SLOAD PUSH3 0xB18 JUMP JUMPDEST PUSH3 0xD4F DUP3 DUP3 DUP6 PUSH3 0xC78 JUMP JUMPDEST PUSH0 PUSH1 0x20 SWAP1 POP PUSH1 0x1F DUP4 GT PUSH1 0x1 DUP2 EQ PUSH3 0xD85 JUMPI PUSH0 DUP5 ISZERO PUSH3 0xD70 JUMPI DUP3 DUP8 ADD MLOAD SWAP1 POP JUMPDEST PUSH3 0xD7C DUP6 DUP3 PUSH3 0xCF2 JUMP JUMPDEST DUP7 SSTORE POP PUSH3 0xDEB JUMP JUMPDEST PUSH1 0x1F NOT DUP5 AND PUSH3 0xD95 DUP7 PUSH3 0xB4C JUMP JUMPDEST PUSH0 JUMPDEST DUP3 DUP2 LT ISZERO PUSH3 0xDBE JUMPI DUP5 DUP10 ADD MLOAD DUP3 SSTORE PUSH1 0x1 DUP3 ADD SWAP2 POP PUSH1 0x20 DUP6 ADD SWAP5 POP PUSH1 0x20 DUP2 ADD SWAP1 POP PUSH3 0xD97 JUMP JUMPDEST DUP7 DUP4 LT ISZERO PUSH3 0xDDE JUMPI DUP5 DUP10 ADD MLOAD PUSH3 0xDDA PUSH1 0x1F DUP10 AND DUP3 PUSH3 0xCD4 JUMP JUMPDEST DUP4 SSTORE POP JUMPDEST PUSH1 0x1 PUSH1 0x2 DUP9 MUL ADD DUP9 SSTORE POP POP POP JUMPDEST POP POP POP POP POP POP JUMP JUMPDEST PUSH3 0xDFE DUP2 PUSH3 0x61F JUMP JUMPDEST DUP3 MSTORE POP POP JUMP JUMPDEST PUSH0 PUSH1 0x20 DUP3 ADD SWAP1 POP PUSH3 0xE19 PUSH0 DUP4 ADD DUP5 PUSH3 0xDF3 JUMP JUMPDEST SWAP3 SWAP2 POP POP JUMP JUMPDEST PUSH0 DUP3 DUP3 MSTORE PUSH1 0x20 DUP3 ADD SWAP1 POP SWAP3 SWAP2 POP POP JUMP JUMPDEST PUSH32 0x737562736372696265727320616E6420746865697220616D6F756E747320646F PUSH0 DUP3 ADD MSTORE PUSH32 0x206E6F74206D6174636800000000000000000000000000000000000000000000 PUSH1 0x20 DUP3 ADD MSTORE POP JUMP JUMPDEST PUSH0 PUSH3 0xE8B PUSH1 0x2A DUP4 PUSH3 0xE1F JUMP JUMPDEST SWAP2 POP PUSH3 0xE98 DUP3 PUSH3 0xE2F JUMP JUMPDEST PUSH1 0x40 DUP3 ADD SWAP1 POP SWAP2 SWAP1 POP JUMP JUMPDEST PUSH0 PUSH1 0x20 DUP3 ADD SWAP1 POP DUP2 DUP2 SUB PUSH0 DUP4 ADD MSTORE PUSH3 0xEBC DUP2 PUSH3 0xE7D JUMP JUMPDEST SWAP1 POP SWAP2 SWAP1 POP JUMP JUMPDEST PUSH32 0x4E487B7100000000000000000000000000000000000000000000000000000000 PUSH0 MSTORE PUSH1 0x11 PUSH1 0x4 MSTORE PUSH1 0x24 PUSH0 REVERT JUMPDEST PUSH0 PUSH3 0xEFC DUP3 PUSH3 0x7D5 JUMP JUMPDEST SWAP2 POP PUSH3 0xF09 DUP4 PUSH3 0x7D5 JUMP JUMPDEST SWAP3 POP DUP3 DUP3 ADD SWAP1 POP DUP1 DUP3 GT ISZERO PUSH3 0xF24 JUMPI PUSH3 0xF23 PUSH3 0xEC3 JUMP JUMPDEST JUMPDEST SWAP3 SWAP2 POP POP JUMP JUMPDEST PUSH32 0x4E487B7100000000000000000000000000000000000000000000000000000000 PUSH0 MSTORE PUSH1 0x32 PUSH1 0x4 MSTORE PUSH1 0x24 PUSH0 REVERT JUMPDEST PUSH0 PUSH3 0xF63 DUP3 PUSH3 0x7D5 JUMP JUMPDEST SWAP2 POP PUSH32 0xFFFFFFFFFFFFFFFFFFFFFFFFFFFFFFFFFFFFFFFFFFFFFFFFFFFFFFFFFFFFFFFF DUP3 SUB PUSH3 0xF98 JUMPI PUSH3 0xF97 PUSH3 0xEC3 JUMP JUMPDEST JUMPDEST PUSH1 0x1 DUP3 ADD SWAP1 POP SWAP2 SWAP1 POP JUMP JUMPDEST PUSH0 PUSH3 0xFAF DUP3 PUSH3 0x7D5 JUMP JUMPDEST SWAP2 POP PUSH3 0xFBC DUP4 PUSH3 0x7D5 JUMP JUMPDEST SWAP3 POP DUP3 DUP3 SUB SWAP1 POP DUP2 DUP2 GT ISZERO PUSH3 0xFD7 JUMPI PUSH3 0xFD6 PUSH3 0xEC3 JUMP JUMPDEST JUMPDEST SWAP3 SWAP2 POP POP JUMP JUMPDEST PUSH3 0xFE8 DUP2 PUSH3 0x7D5 JUMP JUMPDEST DUP3 MSTORE POP POP JUMP JUMPDEST PUSH0 PUSH1 0x60 DUP3 ADD SWAP1 POP PUSH3 0x1003 PUSH0 DUP4 ADD DUP7 PUSH3 0xDF3 JUMP JUMPDEST PUSH3 0x1012 PUSH1 0x20 DUP4 ADD DUP6 PUSH3 0xFDD JUMP JUMPDEST PUSH3 0x1021 PUSH1 0x40 DUP4 ADD DUP5 PUSH3 0xFDD JUMP JUMPDEST SWAP5 SWAP4 POP POP POP POP JUMP JUMPDEST PUSH0 PUSH1 0x20 DUP3 ADD SWAP1 POP PUSH3 0x103E PUSH0 DUP4 ADD DUP5 PUSH3 0xFDD JUMP JUMPDEST SWAP3 SWAP2 POP POP JUMP JUMPDEST PUSH2 0x1DE9 DUP1 PUSH3 0x1052 PUSH0 CODECOPY PUSH0 RETURN INVALID PUSH1 0x80 PUSH1 0x40 MSTORE CALLVALUE DUP1 ISZERO PUSH2 0xF JUMPI PUSH0 DUP1 REVERT JUMPDEST POP PUSH1 0x4 CALLDATASIZE LT PUSH2 0x114 JUMPI PUSH0 CALLDATALOAD PUSH1 0xE0 SHR DUP1 PUSH4 0x95D89B41 GT PUSH2 0xA0 JUMPI DUP1 PUSH4 0xB93A5396 GT PUSH2 0x6F JUMPI DUP1 PUSH4 0xB93A5396 EQ PUSH2 0x2CE JUMPI DUP1 PUSH4 0xBD7DAC92 EQ PUSH2 0x2EA JUMPI DUP1 PUSH4 0xC0A4D64D EQ PUSH2 0x308 JUMPI DUP1 PUSH4 0xDD62ED3E EQ PUSH2 0x326 JUMPI DUP1 PUSH4 0xF2FDE38B EQ PUSH2 0x356 JUMPI PUSH2 0x114 JUMP JUMPDEST DUP1 PUSH4 0x95D89B41 EQ PUSH2 0x246 JUMPI DUP1 PUSH4 0x9F3ADB0E EQ PUSH2 0x264 JUMPI DUP1 PUSH4 0xA9059CBB EQ PUSH2 0x282 JUMPI DUP1 PUSH4 0xAE84827A EQ PUSH2 0x2B2 JUMPI PUSH2 0x114 JUMP JUMPDEST DUP1 PUSH4 0x23B872DD GT PUSH2 0xE7 JUMPI DUP1 PUSH4 0x23B872DD EQ PUSH2 0x1A0 JUMPI DUP1 PUSH4 0x313CE567 EQ PUSH2 0x1D0 JUMPI DUP1 PUSH4 0x70A08231 EQ PUSH2 0x1EE JUMPI DUP1 PUSH4 0x715018A6 EQ PUSH2 0x21E JUMPI DUP1 PUSH4 0x8DA5CB5B EQ PUSH2 0x228 JUMPI PUSH2 0x114 JUMP JUMPDEST DUP1 PUSH4 0x6FDDE03 EQ PUSH2 0x118 JUMPI DUP1 PUSH4 0x95EA7B3 EQ PUSH2 0x136 JUMPI DUP1 PUSH4 0xDE65A44 EQ PUSH2 0x166 JUMPI DUP1 PUSH4 0x18160DDD EQ PUSH2 0x182 JUMPI JUMPDEST PUSH0 DUP1 REVERT JUMPDEST PUSH2 0x120 PUSH2 0x372 JUMP JUMPDEST PUSH1 0x40 MLOAD PUSH2 0x12D SWAP2 SWAP1 PUSH2 0x12B9 JUMP JUMPDEST PUSH1 0x40 MLOAD DUP1 SWAP2 SUB SWAP1 RETURN JUMPDEST PUSH2 0x150 PUSH1 0x4 DUP1 CALLDATASIZE SUB DUP2 ADD SWAP1 PUSH2 0x14B SWAP2 SWAP1 PUSH2 0x1377 JUMP JUMPDEST PUSH2 0x402 JUMP JUMPDEST PUSH1 0x40 MLOAD PUSH2 0x15D SWAP2 SWAP1 PUSH2 0x13CF JUMP JUMPDEST PUSH1 0x40 MLOAD DUP1 SWAP2 SUB SWAP1 RETURN JUMPDEST PUSH2 0x180 PUSH1 0x4 DUP1 CALLDATASIZE SUB DUP2 ADD SWAP1 PUSH2 0x17B SWAP2 SWAP1 PUSH2 0x1514 JUMP JUMPDEST PUSH2 0x424 JUMP JUMPDEST STOP JUMPDEST PUSH2 0x18A PUSH2 0x43F JUMP JUMPDEST PUSH1 0x40 MLOAD PUSH2 0x197 SWAP2 SWAP1 PUSH2 0x156A JUMP JUMPDEST PUSH1 0x40 MLOAD DUP1 SWAP2 SUB SWAP1 RETURN JUMPDEST PUSH2 0x1BA PUSH1 0x4 DUP1 CALLDATASIZE SUB DUP2 ADD SWAP1 PUSH2 0x1B5 SWAP2 SWAP1 PUSH2 0x1583 JUMP JUMPDEST PUSH2 0x448 JUMP JUMPDEST PUSH1 0x40 MLOAD PUSH2 0x1C7 SWAP2 SWAP1 PUSH2 0x13CF JUMP JUMPDEST PUSH1 0x40 MLOAD DUP1 SWAP2 SUB SWAP1 RETURN JUMPDEST PUSH2 0x1D8 PUSH2 0x5A0 JUMP JUMPDEST PUSH1 0x40 MLOAD PUSH2 0x1E5 SWAP2 SWAP1 PUSH2 0x15EE JUMP JUMPDEST PUSH1 0x40 MLOAD DUP1 SWAP2 SUB SWAP1 RETURN JUMPDEST PUSH2 0x208 PUSH1 0x4 DUP1 CALLDATASIZE SUB DUP2 ADD SWAP1 PUSH2 0x203 SWAP2 SWAP1 PUSH2 0x1607 JUMP JUMPDEST PUSH2 0x5A4 JUMP JUMPDEST PUSH1 0x40 MLOAD PUSH2 0x215 SWAP2 SWAP1 PUSH2 0x156A JUMP JUMPDEST PUSH1 0x40 MLOAD DUP1 SWAP2 SUB SWAP1 RETURN JUMPDEST PUSH2 0x226 PUSH2 0x5E9 JUMP JUMPDEST STOP JUMPDEST PUSH2 0x230 PUSH2 0x5FC JUMP JUMPDEST PUSH1 0x40 MLOAD PUSH2 0x23D SWAP2 SWAP1 PUSH2 0x1641 JUMP JUMPDEST PUSH1 0x40 MLOAD DUP1 SWAP2 SUB SWAP1 RETURN JUMPDEST PUSH2 0x24E PUSH2 0x624 JUMP JUMPDEST PUSH1 0x40 MLOAD PUSH2 0x25B SWAP2 SWAP1 PUSH2 0x12B9 JUMP JUMPDEST PUSH1 0x40 MLOAD DUP1 SWAP2 SUB SWAP1 RETURN JUMPDEST PUSH2 0x26C PUSH2 0x6B4 JUMP JUMPDEST PUSH1 0x40 MLOAD PUSH2 0x279 SWAP2 SWAP1 PUSH2 0x156A JUMP JUMPDEST PUSH1 0x40 MLOAD DUP1 SWAP2 SUB SWAP1 RETURN JUMPDEST PUSH2 0x29C PUSH1 0x4 DUP1 CALLDATASIZE SUB DUP2 ADD SWAP1 PUSH2 0x297 SWAP2 SWAP1 PUSH2 0x1377 JUMP JUMPDEST PUSH2 0x6BA JUMP JUMPDEST PUSH1 0x40 MLOAD PUSH2 0x2A9 SWAP2 SWAP1 PUSH2 0x13CF JUMP JUMPDEST PUSH1 0x40 MLOAD DUP1 SWAP2 SUB SWAP1 RETURN JUMPDEST PUSH2 0x2CC PUSH1 0x4 DUP1 CALLDATASIZE SUB DUP2 ADD SWAP1 PUSH2 0x2C7 SWAP2 SWAP1 PUSH2 0x1377 JUMP JUMPDEST PUSH2 0x849 JUMP JUMPDEST STOP JUMPDEST PUSH2 0x2E8 PUSH1 0x4 DUP1 CALLDATASIZE SUB DUP2 ADD SWAP1 PUSH2 0x2E3 SWAP2 SWAP1 PUSH2 0x1377 JUMP JUMPDEST PUSH2 0x85F JUMP JUMPDEST STOP JUMPDEST PUSH2 0x2F2 PUSH2 0x875 JUMP JUMPDEST PUSH1 0x40 MLOAD PUSH2 0x2FF SWAP2 SWAP1 PUSH2 0x12B9 JUMP JUMPDEST PUSH1 0x40 MLOAD DUP1 SWAP2 SUB SWAP1 RETURN JUMPDEST PUSH2 0x310 PUSH2 0x905 JUMP JUMPDEST PUSH1 0x40 MLOAD PUSH2 0x31D SWAP2 SWAP1 PUSH2 0x156A JUMP JUMPDEST PUSH1 0x40 MLOAD DUP1 SWAP2 SUB SWAP1 RETURN JUMPDEST PUSH2 0x340 PUSH1 0x4 DUP1 CALLDATASIZE SUB DUP2 ADD SWAP1 PUSH2 0x33B SWAP2 SWAP1 PUSH2 0x165A JUMP JUMPDEST PUSH2 0x90E JUMP JUMPDEST PUSH1 0x40 MLOAD PUSH2 0x34D SWAP2 SWAP1 PUSH2 0x156A JUMP JUMPDEST PUSH1 0x40 MLOAD DUP1 SWAP2 SUB SWAP1 RETURN JUMPDEST PUSH2 0x370 PUSH1 0x4 DUP1 CALLDATASIZE SUB DUP2 ADD SWAP1 PUSH2 0x36B SWAP2 SWAP1 PUSH2 0x1607 JUMP JUMPDEST PUSH2 0x990 JUMP JUMPDEST STOP JUMPDEST PUSH1 0x60 PUSH1 0x3 DUP1 SLOAD PUSH2 0x381 SWAP1 PUSH2 0x16C5 JUMP JUMPDEST DUP1 PUSH1 0x1F ADD PUSH1 0x20 DUP1 SWAP2 DIV MUL PUSH1 0x20 ADD PUSH1 0x40 MLOAD SWAP1 DUP2 ADD PUSH1 0x40 MSTORE DUP1 SWAP3 SWAP2 SWAP1 DUP2 DUP2 MSTORE PUSH1 0x20 ADD DUP3 DUP1 SLOAD PUSH2 0x3AD SWAP1 PUSH2 0x16C5 JUMP JUMPDEST DUP1 ISZERO PUSH2 0x3F8 JUMPI DUP1 PUSH1 0x1F LT PUSH2 0x3CF JUMPI PUSH2 0x100 DUP1 DUP4 SLOAD DIV MUL DUP4 MSTORE SWAP2 PUSH1 0x20 ADD SWAP2 PUSH2 0x3F8 JUMP JUMPDEST DUP3 ADD SWAP2 SWAP1 PUSH0 MSTORE PUSH1 0x20 PUSH0 KECCAK256 SWAP1 JUMPDEST DUP2 SLOAD DUP2 MSTORE SWAP1 PUSH1 0x1 ADD SWAP1 PUSH1 0x20 ADD DUP1 DUP4 GT PUSH2 0x3DB JUMPI DUP3 SWAP1 SUB PUSH1 0x1F AND DUP3 ADD SWAP2 JUMPDEST POP POP POP POP POP SWAP1 POP SWAP1 JUMP JUMPDEST PUSH0 DUP1 PUSH2 0x40C PUSH2 0xA14 JUMP JUMPDEST SWAP1 POP PUSH2 0x419 DUP2 DUP6 DUP6 PUSH2 0xA1B JUMP JUMPDEST PUSH1 0x1 SWAP2 POP POP SWAP3 SWAP2 POP POP JUMP JUMPDEST PUSH2 0x42C PUSH2 0xA2D JUMP JUMPDEST DUP1 PUSH1 0xA SWAP1 DUP2 PUSH2 0x43B SWAP2 SWAP1 PUSH2 0x1892 JUMP JUMPDEST POP POP JUMP JUMPDEST PUSH0 PUSH1 0x2 SLOAD SWAP1 POP SWAP1 JUMP JUMPDEST PUSH0 PUSH2 0x451 PUSH2 0x5FC JUMP JUMPDEST PUSH20 0xFFFFFFFFFFFFFFFFFFFFFFFFFFFFFFFFFFFFFFFF AND DUP5 PUSH20 0xFFFFFFFFFFFFFFFFFFFFFFFFFFFFFFFFFFFFFFFF AND SUB PUSH2 0x4CD JUMPI PUSH1 0x9 SLOAD TIMESTAMP LT ISZERO PUSH2 0x4C8 JUMPI PUSH1 0x40 MLOAD PUSH32 0x8C379A000000000000000000000000000000000000000000000000000000000 DUP2 MSTORE PUSH1 0x4 ADD PUSH2 0x4BF SWAP1 PUSH2 0x19AB JUMP JUMPDEST PUSH1 0x40 MLOAD DUP1 SWAP2 SUB SWAP1 REVERT JUMPDEST PUSH2 0x513 JUMP JUMPDEST PUSH1 0x8 SLOAD TIMESTAMP LT ISZERO PUSH2 0x512 JUMPI PUSH1 0x40 MLOAD PUSH32 0x8C379A000000000000000000000000000000000000000000000000000000000 DUP2 MSTORE PUSH1 0x4 ADD PUSH2 0x509 SWAP1 PUSH2 0x1A13 JUMP JUMPDEST PUSH1 0x40 MLOAD DUP1 SWAP2 SUB SWAP1 REVERT JUMPDEST JUMPDEST PUSH0 DUP3 PUSH2 0x51E DUP6 PUSH2 0x5A4 JUMP JUMPDEST PUSH2 0x528 SWAP2 SWAP1 PUSH2 0x1A5E JUMP JUMPDEST SWAP1 POP PUSH1 0x64 PUSH2 0x534 PUSH2 0x43F JUMP JUMPDEST PUSH1 0x14 PUSH2 0x540 SWAP2 SWAP1 PUSH2 0x1A91 JUMP JUMPDEST PUSH2 0x54A SWAP2 SWAP1 PUSH2 0x1AFF JUMP JUMPDEST DUP2 LT PUSH2 0x58B JUMPI PUSH1 0x40 MLOAD PUSH32 0x8C379A000000000000000000000000000000000000000000000000000000000 DUP2 MSTORE PUSH1 0x4 ADD PUSH2 0x582 SWAP1 PUSH2 0x1B9F JUMP JUMPDEST PUSH1 0x40 MLOAD DUP1 SWAP2 SUB SWAP1 REVERT JUMPDEST PUSH2 0x596 DUP6 DUP6 DUP6 PUSH2 0xAB4 JUMP JUMPDEST SWAP2 POP POP SWAP4 SWAP3 POP POP POP JUMP JUMPDEST PUSH0 SWAP1 JUMP JUMPDEST PUSH0 DUP1 PUSH0 DUP4 PUSH20 0xFFFFFFFFFFFFFFFFFFFFFFFFFFFFFFFFFFFFFFFF AND PUSH20 0xFFFFFFFFFFFFFFFFFFFFFFFFFFFFFFFFFFFFFFFF AND DUP2 MSTORE PUSH1 0x20 ADD SWAP1 DUP2 MSTORE PUSH1 0x20 ADD PUSH0 KECCAK256 SLOAD SWAP1 POP SWAP2 SWAP1 POP JUMP JUMPDEST PUSH2 0x5F1 PUSH2 0xA2D JUMP JUMPDEST PUSH2 0x5FA PUSH0 PUSH2 0xAE2 JUMP JUMPDEST JUMP JUMPDEST PUSH0 PUSH1 0x5 PUSH0 SWAP1 SLOAD SWAP1 PUSH2 0x100 EXP SWAP1 DIV PUSH20 0xFFFFFFFFFFFFFFFFFFFFFFFFFFFFFFFFFFFFFFFF AND SWAP1 POP SWAP1 JUMP JUMPDEST PUSH1 0x60 PUSH1 0x4 DUP1 SLOAD PUSH2 0x633 SWAP1 PUSH2 0x16C5 JUMP JUMPDEST DUP1 PUSH1 0x1F ADD PUSH1 0x20 DUP1 SWAP2 DIV MUL PUSH1 0x20 ADD PUSH1 0x40 MLOAD SWAP1 DUP2 ADD PUSH1 0x40 MSTORE DUP1 SWAP3 SWAP2 SWAP1 DUP2 DUP2 MSTORE PUSH1 0x20 ADD DUP3 DUP1 SLOAD PUSH2 0x65F SWAP1 PUSH2 0x16C5 JUMP JUMPDEST DUP1 ISZERO PUSH2 0x6AA JUMPI DUP1 PUSH1 0x1F LT PUSH2 0x681 JUMPI PUSH2 0x100 DUP1 DUP4 SLOAD DIV MUL DUP4 MSTORE SWAP2 PUSH1 0x20 ADD SWAP2 PUSH2 0x6AA JUMP JUMPDEST DUP3 ADD SWAP2 SWAP1 PUSH0 MSTORE PUSH1 0x20 PUSH0 KECCAK256 SWAP1 JUMPDEST DUP2 SLOAD DUP2 MSTORE SWAP1 PUSH1 0x1 ADD SWAP1 PUSH1 0x20 ADD DUP1 DUP4 GT PUSH2 0x68D JUMPI DUP3 SWAP1 SUB PUSH1 0x1F AND DUP3 ADD SWAP2 JUMPDEST POP POP POP POP POP SWAP1 POP SWAP1 JUMP JUMPDEST PUSH1 0x9 SLOAD DUP2 JUMP JUMPDEST PUSH0 PUSH2 0x6C3 PUSH2 0x5FC JUMP JUMPDEST PUSH20 0xFFFFFFFFFFFFFFFFFFFFFFFFFFFFFFFFFFFFFFFF AND CALLER PUSH20 0xFFFFFFFFFFFFFFFFFFFFFFFFFFFFFFFFFFFFFFFF AND SUB PUSH2 0x73B JUMPI PUSH1 0x9 SLOAD TIMESTAMP LT ISZERO PUSH2 0x73A JUMPI PUSH1 0x40 MLOAD PUSH32 0x8C379A000000000000000000000000000000000000000000000000000000000 DUP2 MSTORE PUSH1 0x4 ADD PUSH2 0x731 SWAP1 PUSH2 0x1C2D JUMP JUMPDEST PUSH1 0x40 MLOAD DUP1 SWAP2 SUB SWAP1 REVERT JUMPDEST JUMPDEST PUSH1 0x8 SLOAD TIMESTAMP LT ISZERO PUSH2 0x780 JUMPI PUSH1 0x40 MLOAD PUSH32 0x8C379A000000000000000000000000000000000000000000000000000000000 DUP2 MSTORE PUSH1 0x4 ADD PUSH2 0x777 SWAP1 PUSH2 0x1C95 JUMP JUMPDEST PUSH1 0x40 MLOAD DUP1 SWAP2 SUB SWAP1 REVERT JUMPDEST PUSH0 DUP3 PUSH2 0x78B DUP6 PUSH2 0x5A4 JUMP JUMPDEST PUSH2 0x795 SWAP2 SWAP1 PUSH2 0x1A5E JUMP JUMPDEST SWAP1 POP PUSH1 0x64 PUSH2 0x7A1 PUSH2 0x43F JUMP JUMPDEST PUSH1 0x14 PUSH2 0x7AD SWAP2 SWAP1 PUSH2 0x1A91 JUMP JUMPDEST PUSH2 0x7B7 SWAP2 SWAP1 PUSH2 0x1AFF JUMP JUMPDEST DUP2 LT PUSH2 0x7F8 JUMPI PUSH1 0x40 MLOAD PUSH32 0x8C379A000000000000000000000000000000000000000000000000000000000 DUP2 MSTORE PUSH1 0x4 ADD PUSH2 0x7EF SWAP1 PUSH2 0x1B9F JUMP JUMPDEST PUSH1 0x40 MLOAD DUP1 SWAP2 SUB SWAP1 REVERT JUMPDEST PUSH32 0x8519CDB8AD47F1F5F5BC583D2063D1FC1FFED7DAC0CAB9E8B1F6492AA60CBD7F CALLER DUP6 DUP6 PUSH1 0xB PUSH1 0x40 MLOAD PUSH2 0x82E SWAP5 SWAP4 SWAP3 SWAP2 SWAP1 PUSH2 0x1D34 JUMP JUMPDEST PUSH1 0x40 MLOAD DUP1 SWAP2 SUB SWAP1 LOG1 PUSH2 0x840 DUP5 DUP5 PUSH2 0xBA5 JUMP JUMPDEST SWAP2 POP POP SWAP3 SWAP2 POP POP JUMP JUMPDEST PUSH2 0x851 PUSH2 0xA2D JUMP JUMPDEST PUSH2 0x85B DUP3 DUP3 PUSH2 0xBC7 JUMP JUMPDEST POP POP JUMP JUMPDEST PUSH2 0x867 PUSH2 0xA2D JUMP JUMPDEST PUSH2 0x871 DUP3 DUP3 PUSH2 0xC46 JUMP JUMPDEST POP POP JUMP JUMPDEST PUSH1 0x60 PUSH1 0xA DUP1 SLOAD PUSH2 0x884 SWAP1 PUSH2 0x16C5 JUMP JUMPDEST DUP1 PUSH1 0x1F ADD PUSH1 0x20 DUP1 SWAP2 DIV MUL PUSH1 0x20 ADD PUSH1 0x40 MLOAD SWAP1 DUP2 ADD PUSH1 0x40 MSTORE DUP1 SWAP3 SWAP2 SWAP1 DUP2 DUP2 MSTORE PUSH1 0x20 ADD DUP3 DUP1 SLOAD PUSH2 0x8B0 SWAP1 PUSH2 0x16C5 JUMP JUMPDEST DUP1 ISZERO PUSH2 0x8FB JUMPI DUP1 PUSH1 0x1F LT PUSH2 0x8D2 JUMPI PUSH2 0x100 DUP1 DUP4 SLOAD DIV MUL DUP4 MSTORE SWAP2 PUSH1 0x20 ADD SWAP2 PUSH2 0x8FB JUMP JUMPDEST DUP3 ADD SWAP2 SWAP1 PUSH0 MSTORE PUSH1 0x20 PUSH0 KECCAK256 SWAP1 JUMPDEST DUP2 SLOAD DUP2 MSTORE SWAP1 PUSH1 0x1 ADD SWAP1 PUSH1 0x20 ADD DUP1 DUP4 GT PUSH2 0x8DE JUMPI DUP3 SWAP1 SUB PUSH1 0x1F AND DUP3 ADD SWAP2 JUMPDEST POP POP POP POP POP SWAP1 POP SWAP1 JUMP JUMPDEST PUSH0 PUSH1 0x8 SLOAD SWAP1 POP SWAP1 JUMP JUMPDEST PUSH0 PUSH1 0x1 PUSH0 DUP5 PUSH20 0xFFFFFFFFFFFFFFFFFFFFFFFFFFFFFFFFFFFFFFFF AND PUSH20 0xFFFFFFFFFFFFFFFFFFFFFFFFFFFFFFFFFFFFFFFF AND DUP2 MSTORE PUSH1 0x20 ADD SWAP1 DUP2 MSTORE PUSH1 0x20 ADD PUSH0 KECCAK256 PUSH0 DUP4 PUSH20 0xFFFFFFFFFFFFFFFFFFFFFFFFFFFFFFFFFFFFFFFF AND PUSH20 0xFFFFFFFFFFFFFFFFFFFFFFFFFFFFFFFFFFFFFFFF AND DUP2 MSTORE PUSH1 0x20 ADD SWAP1 DUP2 MSTORE PUSH1 0x20 ADD PUSH0 KECCAK256 SLOAD SWAP1 POP SWAP3 SWAP2 POP POP JUMP JUMPDEST PUSH2 0x998 PUSH2 0xA2D JUMP JUMPDEST PUSH0 PUSH20 0xFFFFFFFFFFFFFFFFFFFFFFFFFFFFFFFFFFFFFFFF AND DUP2 PUSH20 0xFFFFFFFFFFFFFFFFFFFFFFFFFFFFFFFFFFFFFFFF AND SUB PUSH2 0xA08 JUMPI PUSH0 PUSH1 0x40 MLOAD PUSH32 0x1E4FBDF700000000000000000000000000000000000000000000000000000000 DUP2 MSTORE PUSH1 0x4 ADD PUSH2 0x9FF SWAP2 SWAP1 PUSH2 0x1641 JUMP JUMPDEST PUSH1 0x40 MLOAD DUP1 SWAP2 SUB SWAP1 REVERT JUMPDEST PUSH2 0xA11 DUP2 PUSH2 0xAE2 JUMP JUMPDEST POP JUMP JUMPDEST PUSH0 CALLER SWAP1 POP SWAP1 JUMP JUMPDEST PUSH2 0xA28 DUP4 DUP4 DUP4 PUSH1 0x1 PUSH2 0xCC5 JUMP JUMPDEST POP POP POP JUMP JUMPDEST PUSH2 0xA35 PUSH2 0xA14 JUMP JUMPDEST PUSH20 0xFFFFFFFFFFFFFFFFFFFFFFFFFFFFFFFFFFFFFFFF AND PUSH2 0xA53 PUSH2 0x5FC JUMP JUMPDEST PUSH20 0xFFFFFFFFFFFFFFFFFFFFFFFFFFFFFFFFFFFFFFFF AND EQ PUSH2 0xAB2 JUMPI PUSH2 0xA76 PUSH2 0xA14 JUMP JUMPDEST PUSH1 0x40 MLOAD PUSH32 0x118CDAA700000000000000000000000000000000000000000000000000000000 DUP2 MSTORE PUSH1 0x4 ADD PUSH2 0xAA9 SWAP2 SWAP1 PUSH2 0x1641 JUMP JUMPDEST PUSH1 0x40 MLOAD DUP1 SWAP2 SUB SWAP1 REVERT JUMPDEST JUMP JUMPDEST PUSH0 DUP1 PUSH2 0xABE PUSH2 0xA14 JUMP JUMPDEST SWAP1 POP PUSH2 0xACB DUP6 DUP3 DUP6 PUSH2 0xE94 JUMP JUMPDEST PUSH2 0xAD6 DUP6 DUP6 DUP6 PUSH2 0xF26 JUMP JUMPDEST PUSH1 0x1 SWAP2 POP POP SWAP4 SWAP3 POP POP POP JUMP JUMPDEST PUSH0 PUSH1 0x5 PUSH0 SWAP1 SLOAD SWAP1 PUSH2 0x100 EXP SWAP1 DIV PUSH20 0xFFFFFFFFFFFFFFFFFFFFFFFFFFFFFFFFFFFFFFFF AND SWAP1 POP DUP2 PUSH1 0x5 PUSH0 PUSH2 0x100 EXP DUP2 SLOAD DUP2 PUSH20 0xFFFFFFFFFFFFFFFFFFFFFFFFFFFFFFFFFFFFFFFF MUL NOT AND SWAP1 DUP4 PUSH20 0xFFFFFFFFFFFFFFFFFFFFFFFFFFFFFFFFFFFFFFFF AND MUL OR SWAP1 SSTORE POP DUP2 PUSH20 0xFFFFFFFFFFFFFFFFFFFFFFFFFFFFFFFFFFFFFFFF AND DUP2 PUSH20 0xFFFFFFFFFFFFFFFFFFFFFFFFFFFFFFFFFFFFFFFF AND PUSH32 0x8BE0079C531659141344CD1FD0A4F28419497F9722A3DAAFE3B4186F6B6457E0 PUSH1 0x40 MLOAD PUSH1 0x40 MLOAD DUP1 SWAP2 SUB SWAP1 LOG3 POP POP JUMP JUMPDEST PUSH0 DUP1 PUSH2 0xBAF PUSH2 0xA14 JUMP JUMPDEST SWAP1 POP PUSH2 0xBBC DUP2 DUP6 DUP6 PUSH2 0xF26 JUMP JUMPDEST PUSH1 0x1 SWAP2 POP POP SWAP3 SWAP2 POP POP JUMP JUMPDEST PUSH0 PUSH20 0xFFFFFFFFFFFFFFFFFFFFFFFFFFFFFFFFFFFFFFFF AND DUP3 PUSH20 0xFFFFFFFFFFFFFFFFFFFFFFFFFFFFFFFFFFFFFFFF AND SUB PUSH2 0xC37 JUMPI PUSH0 PUSH1 0x40 MLOAD PUSH32 0x96C6FD1E00000000000000000000000000000000000000000000000000000000 DUP2 MSTORE PUSH1 0x4 ADD PUSH2 0xC2E SWAP2 SWAP1 PUSH2 0x1641 JUMP JUMPDEST PUSH1 0x40 MLOAD DUP1 SWAP2 SUB SWAP1 REVERT JUMPDEST PUSH2 0xC42 DUP3 PUSH0 DUP4 PUSH2 0x1016 JUMP JUMPDEST POP POP JUMP JUMPDEST PUSH0 PUSH20 0xFFFFFFFFFFFFFFFFFFFFFFFFFFFFFFFFFFFFFFFF AND DUP3 PUSH20 0xFFFFFFFFFFFFFFFFFFFFFFFFFFFFFFFFFFFFFFFF AND SUB PUSH2 0xCB6 JUMPI PUSH0 PUSH1 0x40 MLOAD PUSH32 0xEC442F0500000000000000000000000000000000000000000000000000000000 DUP2 MSTORE PUSH1 0x4 ADD PUSH2 0xCAD SWAP2 SWAP1 PUSH2 0x1641 JUMP JUMPDEST PUSH1 0x40 MLOAD DUP1 SWAP2 SUB SWAP1 REVERT JUMPDEST PUSH2 0xCC1 PUSH0 DUP4 DUP4 PUSH2 0x1016 JUMP JUMPDEST POP POP JUMP JUMPDEST PUSH0 PUSH20 0xFFFFFFFFFFFFFFFFFFFFFFFFFFFFFFFFFFFFFFFF AND DUP5 PUSH20 0xFFFFFFFFFFFFFFFFFFFFFFFFFFFFFFFFFFFFFFFF AND SUB PUSH2 0xD35 JUMPI PUSH0 PUSH1 0x40 MLOAD PUSH32 0xE602DF0500000000000000000000000000000000000000000000000000000000 DUP2 MSTORE PUSH1 0x4 ADD PUSH2 0xD2C SWAP2 SWAP1 PUSH2 0x1641 JUMP JUMPDEST PUSH1 0x40 MLOAD DUP1 SWAP2 SUB SWAP1 REVERT JUMPDEST PUSH0 PUSH20 0xFFFFFFFFFFFFFFFFFFFFFFFFFFFFFFFFFFFFFFFF AND DUP4 PUSH20 0xFFFFFFFFFFFFFFFFFFFFFFFFFFFFFFFFFFFFFFFF AND SUB PUSH2 0xDA5 JUMPI PUSH0 PUSH1 0x40 MLOAD PUSH32 0x94280D6200000000000000000000000000000000000000000000000000000000 DUP2 MSTORE PUSH1 0x4 ADD PUSH2 0xD9C SWAP2 SWAP1 PUSH2 0x1641 JUMP JUMPDEST PUSH1 0x40 MLOAD DUP1 SWAP2 SUB SWAP1 REVERT JUMPDEST DUP2 PUSH1 0x1 PUSH0 DUP7 PUSH20 0xFFFFFFFFFFFFFFFFFFFFFFFFFFFFFFFFFFFFFFFF AND PUSH20 0xFFFFFFFFFFFFFFFFFFFFFFFFFFFFFFFFFFFFFFFF AND DUP2 MSTORE PUSH1 0x20 ADD SWAP1 DUP2 MSTORE PUSH1 0x20 ADD PUSH0 KECCAK256 PUSH0 DUP6 PUSH20 0xFFFFFFFFFFFFFFFFFFFFFFFFFFFFFFFFFFFFFFFF AND PUSH20 0xFFFFFFFFFFFFFFFFFFFFFFFFFFFFFFFFFFFFFFFF AND DUP2 MSTORE PUSH1 0x20 ADD SWAP1 DUP2 MSTORE PUSH1 0x20 ADD PUSH0 KECCAK256 DUP2 SWAP1 SSTORE POP DUP1 ISZERO PUSH2 0xE8E JUMPI DUP3 PUSH20 0xFFFFFFFFFFFFFFFFFFFFFFFFFFFFFFFFFFFFFFFF AND DUP5 PUSH20 0xFFFFFFFFFFFFFFFFFFFFFFFFFFFFFFFFFFFFFFFF AND PUSH32 0x8C5BE1E5EBEC7D5BD14F71427D1E84F3DD0314C0F7B2291E5B200AC8C7C3B925 DUP5 PUSH1 0x40 MLOAD PUSH2 0xE85 SWAP2 SWAP1 PUSH2 0x156A JUMP JUMPDEST PUSH1 0x40 MLOAD DUP1 SWAP2 SUB SWAP1 LOG3 JUMPDEST POP POP POP POP JUMP JUMPDEST PUSH0 PUSH2 0xE9F DUP5 DUP5 PUSH2 0x90E JUMP JUMPDEST SWAP1 POP PUSH32 0xFFFFFFFFFFFFFFFFFFFFFFFFFFFFFFFFFFFFFFFFFFFFFFFFFFFFFFFFFFFFFFFF DUP2 EQ PUSH2 0xF20 JUMPI DUP2 DUP2 LT ISZERO PUSH2 0xF11 JUMPI DUP3 DUP2 DUP4 PUSH1 0x40 MLOAD PUSH32 0xFB8F41B200000000000000000000000000000000000000000000000000000000 DUP2 MSTORE PUSH1 0x4 ADD PUSH2 0xF08 SWAP4 SWAP3 SWAP2 SWAP1 PUSH2 0x1D7E JUMP JUMPDEST PUSH1 0x40 MLOAD DUP1 SWAP2 SUB SWAP1 REVERT JUMPDEST PUSH2 0xF1F DUP5 DUP5 DUP5 DUP5 SUB PUSH0 PUSH2 0xCC5 JUMP JUMPDEST JUMPDEST POP POP POP POP JUMP JUMPDEST PUSH0 PUSH20 0xFFFFFFFFFFFFFFFFFFFFFFFFFFFFFFFFFFFFFFFF AND DUP4 PUSH20 0xFFFFFFFFFFFFFFFFFFFFFFFFFFFFFFFFFFFFFFFF AND SUB PUSH2 0xF96 JUMPI PUSH0 PUSH1 0x40 MLOAD PUSH32 0x96C6FD1E00000000000000000000000000000000000000000000000000000000 DUP2 MSTORE PUSH1 0x4 ADD PUSH2 0xF8D SWAP2 SWAP1 PUSH2 0x1641 JUMP JUMPDEST PUSH1 0x40 MLOAD DUP1 SWAP2 SUB SWAP1 REVERT JUMPDEST PUSH0 PUSH20 0xFFFFFFFFFFFFFFFFFFFFFFFFFFFFFFFFFFFFFFFF AND DUP3 PUSH20 0xFFFFFFFFFFFFFFFFFFFFFFFFFFFFFFFFFFFFFFFF AND SUB PUSH2 0x1006 JUMPI PUSH0 PUSH1 0x40 MLOAD PUSH32 0xEC442F0500000000000000000000000000000000000000000000000000000000 DUP2 MSTORE PUSH1 0x4 ADD PUSH2 0xFFD SWAP2 SWAP1 PUSH2 0x1641 JUMP JUMPDEST PUSH1 0x40 MLOAD DUP1 SWAP2 SUB SWAP1 REVERT JUMPDEST PUSH2 0x1011 DUP4 DUP4 DUP4 PUSH2 0x1016 JUMP JUMPDEST POP POP POP JUMP JUMPDEST PUSH0 PUSH20 0xFFFFFFFFFFFFFFFFFFFFFFFFFFFFFFFFFFFFFFFF AND DUP4 PUSH20 0xFFFFFFFFFFFFFFFFFFFFFFFFFFFFFFFFFFFFFFFF AND SUB PUSH2 0x1066 JUMPI DUP1 PUSH1 0x2 PUSH0 DUP3 DUP3 SLOAD PUSH2 0x105A SWAP2 SWAP1 PUSH2 0x1A5E JUMP JUMPDEST SWAP3 POP POP DUP2 SWAP1 SSTORE POP PUSH2 0x1134 JUMP JUMPDEST PUSH0 DUP1 PUSH0 DUP6 PUSH20 0xFFFFFFFFFFFFFFFFFFFFFFFFFFFFFFFFFFFFFFFF AND PUSH20 0xFFFFFFFFFFFFFFFFFFFFFFFFFFFFFFFFFFFFFFFF AND DUP2 MSTORE PUSH1 0x20 ADD SWAP1 DUP2 MSTORE PUSH1 0x20 ADD PUSH0 KECCAK256 SLOAD SWAP1 POP DUP2 DUP2 LT ISZERO PUSH2 0x10EF JUMPI DUP4 DUP2 DUP4 PUSH1 0x40 MLOAD PUSH32 0xE450D38C00000000000000000000000000000000000000000000000000000000 DUP2 MSTORE PUSH1 0x4 ADD PUSH2 0x10E6 SWAP4 SWAP3 SWAP2 SWAP1 PUSH2 0x1D7E JUMP JUMPDEST PUSH1 0x40 MLOAD DUP1 SWAP2 SUB SWAP1 REVERT JUMPDEST DUP2 DUP2 SUB PUSH0 DUP1 DUP7 PUSH20 0xFFFFFFFFFFFFFFFFFFFFFFFFFFFFFFFFFFFFFFFF AND PUSH20 0xFFFFFFFFFFFFFFFFFFFFFFFFFFFFFFFFFFFFFFFF AND DUP2 MSTORE PUSH1 0x20 ADD SWAP1 DUP2 MSTORE PUSH1 0x20 ADD PUSH0 KECCAK256 DUP2 SWAP1 SSTORE POP POP JUMPDEST PUSH0 PUSH20 0xFFFFFFFFFFFFFFFFFFFFFFFFFFFFFFFFFFFFFFFF AND DUP3 PUSH20 0xFFFFFFFFFFFFFFFFFFFFFFFFFFFFFFFFFFFFFFFF AND SUB PUSH2 0x117B JUMPI DUP1 PUSH1 0x2 PUSH0 DUP3 DUP3 SLOAD SUB SWAP3 POP POP DUP2 SWAP1 SSTORE POP PUSH2 0x11C5 JUMP JUMPDEST DUP1 PUSH0 DUP1 DUP5 PUSH20 0xFFFFFFFFFFFFFFFFFFFFFFFFFFFFFFFFFFFFFFFF AND PUSH20 0xFFFFFFFFFFFFFFFFFFFFFFFFFFFFFFFFFFFFFFFF AND DUP2 MSTORE PUSH1 0x20 ADD SWAP1 DUP2 MSTORE PUSH1 0x20 ADD PUSH0 KECCAK256 PUSH0 DUP3 DUP3 SLOAD ADD SWAP3 POP POP DUP2 SWAP1 SSTORE POP JUMPDEST DUP2 PUSH20 0xFFFFFFFFFFFFFFFFFFFFFFFFFFFFFFFFFFFFFFFF AND DUP4 PUSH20 0xFFFFFFFFFFFFFFFFFFFFFFFFFFFFFFFFFFFFFFFF AND PUSH32 0xDDF252AD1BE2C89B69C2B068FC378DAA952BA7F163C4A11628F55A4DF523B3EF DUP4 PUSH1 0x40 MLOAD PUSH2 0x1222 SWAP2 SWAP1 PUSH2 0x156A JUMP JUMPDEST PUSH1 0x40 MLOAD DUP1 SWAP2 SUB SWAP1 LOG3 POP POP POP JUMP JUMPDEST PUSH0 DUP2 MLOAD SWAP1 POP SWAP2 SWAP1 POP JUMP JUMPDEST PUSH0 DUP3 DUP3 MSTORE PUSH1 0x20 DUP3 ADD SWAP1 POP SWAP3 SWAP2 POP POP JUMP JUMPDEST PUSH0 JUMPDEST DUP4 DUP2 LT ISZERO PUSH2 0x1266 JUMPI DUP1 DUP3 ADD MLOAD DUP2 DUP5 ADD MSTORE PUSH1 0x20 DUP2 ADD SWAP1 POP PUSH2 0x124B JUMP JUMPDEST PUSH0 DUP5 DUP5 ADD MSTORE POP POP POP POP JUMP JUMPDEST PUSH0 PUSH1 0x1F NOT PUSH1 0x1F DUP4 ADD AND SWAP1 POP SWAP2 SWAP1 POP JUMP JUMPDEST PUSH0 PUSH2 0x128B DUP3 PUSH2 0x122F JUMP JUMPDEST PUSH2 0x1295 DUP2 DUP6 PUSH2 0x1239 JUMP JUMPDEST SWAP4 POP PUSH2 0x12A5 DUP2 DUP6 PUSH1 0x20 DUP7 ADD PUSH2 0x1249 JUMP JUMPDEST PUSH2 0x12AE DUP2 PUSH2 0x1271 JUMP JUMPDEST DUP5 ADD SWAP2 POP POP SWAP3 SWAP2 POP POP JUMP JUMPDEST PUSH0 PUSH1 0x20 DUP3 ADD SWAP1 POP DUP2 DUP2 SUB PUSH0 DUP4 ADD MSTORE PUSH2 0x12D1 DUP2 DUP5 PUSH2 0x1281 JUMP JUMPDEST SWAP1 POP SWAP3 SWAP2 POP POP JUMP JUMPDEST PUSH0 PUSH1 0x40 MLOAD SWAP1 POP SWAP1 JUMP JUMPDEST PUSH0 DUP1 REVERT JUMPDEST PUSH0 DUP1 REVERT JUMPDEST PUSH0 PUSH20 0xFFFFFFFFFFFFFFFFFFFFFFFFFFFFFFFFFFFFFFFF DUP3 AND SWAP1 POP SWAP2 SWAP1 POP JUMP JUMPDEST PUSH0 PUSH2 0x1313 DUP3 PUSH2 0x12EA JUMP JUMPDEST SWAP1 POP SWAP2 SWAP1 POP JUMP JUMPDEST PUSH2 0x1323 DUP2 PUSH2 0x1309 JUMP JUMPDEST DUP2 EQ PUSH2 0x132D JUMPI PUSH0 DUP1 REVERT JUMPDEST POP JUMP JUMPDEST PUSH0 DUP2 CALLDATALOAD SWAP1 POP PUSH2 0x133E DUP2 PUSH2 0x131A JUMP JUMPDEST SWAP3 SWAP2 POP POP JUMP JUMPDEST PUSH0 DUP2 SWAP1 POP SWAP2 SWAP1 POP JUMP JUMPDEST PUSH2 0x1356 DUP2 PUSH2 0x1344 JUMP JUMPDEST DUP2 EQ PUSH2 0x1360 JUMPI PUSH0 DUP1 REVERT JUMPDEST POP JUMP JUMPDEST PUSH0 DUP2 CALLDATALOAD SWAP1 POP PUSH2 0x1371 DUP2 PUSH2 0x134D JUMP JUMPDEST SWAP3 SWAP2 POP POP JUMP JUMPDEST PUSH0 DUP1 PUSH1 0x40 DUP4 DUP6 SUB SLT ISZERO PUSH2 0x138D JUMPI PUSH2 0x138C PUSH2 0x12E2 JUMP JUMPDEST JUMPDEST PUSH0 PUSH2 0x139A DUP6 DUP3 DUP7 ADD PUSH2 0x1330 JUMP JUMPDEST SWAP3 POP POP PUSH1 0x20 PUSH2 0x13AB DUP6 DUP3 DUP7 ADD PUSH2 0x1363 JUMP JUMPDEST SWAP2 POP POP SWAP3 POP SWAP3 SWAP1 POP JUMP JUMPDEST PUSH0 DUP2 ISZERO ISZERO SWAP1 POP SWAP2 SWAP1 POP JUMP JUMPDEST PUSH2 0x13C9 DUP2 PUSH2 0x13B5 JUMP JUMPDEST DUP3 MSTORE POP POP JUMP JUMPDEST PUSH0 PUSH1 0x20 DUP3 ADD SWAP1 POP PUSH2 0x13E2 PUSH0 DUP4 ADD DUP5 PUSH2 0x13C0 JUMP JUMPDEST SWAP3 SWAP2 POP POP JUMP JUMPDEST PUSH0 DUP1 REVERT JUMPDEST PUSH0 DUP1 REVERT JUMPDEST PUSH32 0x4E487B7100000000000000000000000000000000000000000000000000000000 PUSH0 MSTORE PUSH1 0x41 PUSH1 0x4 MSTORE PUSH1 0x24 PUSH0 REVERT JUMPDEST PUSH2 0x1426 DUP3 PUSH2 0x1271 JUMP JUMPDEST DUP2 ADD DUP2 DUP2 LT PUSH8 0xFFFFFFFFFFFFFFFF DUP3 GT OR ISZERO PUSH2 0x1445 JUMPI PUSH2 0x1444 PUSH2 0x13F0 JUMP JUMPDEST JUMPDEST DUP1 PUSH1 0x40 MSTORE POP POP POP JUMP JUMPDEST PUSH0 PUSH2 0x1457 PUSH2 0x12D9 JUMP JUMPDEST SWAP1 POP PUSH2 0x1463 DUP3 DUP3 PUSH2 0x141D JUMP JUMPDEST SWAP2 SWAP1 POP JUMP JUMPDEST PUSH0 PUSH8 0xFFFFFFFFFFFFFFFF DUP3 GT ISZERO PUSH2 0x1482 JUMPI PUSH2 0x1481 PUSH2 0x13F0 JUMP JUMPDEST JUMPDEST PUSH2 0x148B DUP3 PUSH2 0x1271 JUMP JUMPDEST SWAP1 POP PUSH1 0x20 DUP2 ADD SWAP1 POP SWAP2 SWAP1 POP JUMP JUMPDEST DUP3 DUP2 DUP4 CALLDATACOPY PUSH0 DUP4 DUP4 ADD MSTORE POP POP POP JUMP JUMPDEST PUSH0 PUSH2 0x14B8 PUSH2 0x14B3 DUP5 PUSH2 0x1468 JUMP JUMPDEST PUSH2 0x144E JUMP JUMPDEST SWAP1 POP DUP3 DUP2 MSTORE PUSH1 0x20 DUP2 ADD DUP5 DUP5 DUP5 ADD GT ISZERO PUSH2 0x14D4 JUMPI PUSH2 0x14D3 PUSH2 0x13EC JUMP JUMPDEST JUMPDEST PUSH2 0x14DF DUP5 DUP3 DUP6 PUSH2 0x1498 JUMP JUMPDEST POP SWAP4 SWAP3 POP POP POP JUMP JUMPDEST PUSH0 DUP3 PUSH1 0x1F DUP4 ADD SLT PUSH2 0x14FB JUMPI PUSH2 0x14FA PUSH2 0x13E8 JUMP JUMPDEST JUMPDEST DUP2 CALLDATALOAD PUSH2 0x150B DUP5 DUP3 PUSH1 0x20 DUP7 ADD PUSH2 0x14A6 JUMP JUMPDEST SWAP2 POP POP SWAP3 SWAP2 POP POP JUMP JUMPDEST PUSH0 PUSH1 0x20 DUP3 DUP5 SUB SLT ISZERO PUSH2 0x1529 JUMPI PUSH2 0x1528 PUSH2 0x12E2 JUMP JUMPDEST JUMPDEST PUSH0 DUP3 ADD CALLDATALOAD PUSH8 0xFFFFFFFFFFFFFFFF DUP2 GT ISZERO PUSH2 0x1546 JUMPI PUSH2 0x1545 PUSH2 0x12E6 JUMP JUMPDEST JUMPDEST PUSH2 0x1552 DUP5 DUP3 DUP6 ADD PUSH2 0x14E7 JUMP JUMPDEST SWAP2 POP POP SWAP3 SWAP2 POP POP JUMP JUMPDEST PUSH2 0x1564 DUP2 PUSH2 0x1344 JUMP JUMPDEST DUP3 MSTORE POP POP JUMP JUMPDEST PUSH0 PUSH1 0x20 DUP3 ADD SWAP1 POP PUSH2 0x157D PUSH0 DUP4 ADD DUP5 PUSH2 0x155B JUMP JUMPDEST SWAP3 SWAP2 POP POP JUMP JUMPDEST PUSH0 DUP1 PUSH0 PUSH1 0x60 DUP5 DUP7 SUB SLT ISZERO PUSH2 0x159A JUMPI PUSH2 0x1599 PUSH2 0x12E2 JUMP JUMPDEST JUMPDEST PUSH0 PUSH2 0x15A7 DUP7 DUP3 DUP8 ADD PUSH2 0x1330 JUMP JUMPDEST SWAP4 POP POP PUSH1 0x20 PUSH2 0x15B8 DUP7 DUP3 DUP8 ADD PUSH2 0x1330 JUMP JUMPDEST SWAP3 POP POP PUSH1 0x40 PUSH2 0x15C9 DUP7 DUP3 DUP8 ADD PUSH2 0x1363 JUMP JUMPDEST SWAP2 POP POP SWAP3 POP SWAP3 POP SWAP3 JUMP JUMPDEST PUSH0 PUSH1 0xFF DUP3 AND SWAP1 POP SWAP2 SWAP1 POP JUMP JUMPDEST PUSH2 0x15E8 DUP2 PUSH2 0x15D3 JUMP JUMPDEST DUP3 MSTORE POP POP JUMP JUMPDEST PUSH0 PUSH1 0x20 DUP3 ADD SWAP1 POP PUSH2 0x1601 PUSH0 DUP4 ADD DUP5 PUSH2 0x15DF JUMP JUMPDEST SWAP3 SWAP2 POP POP JUMP JUMPDEST PUSH0 PUSH1 0x20 DUP3 DUP5 SUB SLT ISZERO PUSH2 0x161C JUMPI PUSH2 0x161B PUSH2 0x12E2 JUMP JUMPDEST JUMPDEST PUSH0 PUSH2 0x1629 DUP5 DUP3 DUP6 ADD PUSH2 0x1330 JUMP JUMPDEST SWAP2 POP POP SWAP3 SWAP2 POP POP JUMP JUMPDEST PUSH2 0x163B DUP2 PUSH2 0x1309 JUMP JUMPDEST DUP3 MSTORE POP POP JUMP JUMPDEST PUSH0 PUSH1 0x20 DUP3 ADD SWAP1 POP PUSH2 0x1654 PUSH0 DUP4 ADD DUP5 PUSH2 0x1632 JUMP JUMPDEST SWAP3 SWAP2 POP POP JUMP JUMPDEST PUSH0 DUP1 PUSH1 0x40 DUP4 DUP6 SUB SLT ISZERO PUSH2 0x1670 JUMPI PUSH2 0x166F PUSH2 0x12E2 JUMP JUMPDEST JUMPDEST PUSH0 PUSH2 0x167D DUP6 DUP3 DUP7 ADD PUSH2 0x1330 JUMP JUMPDEST SWAP3 POP POP PUSH1 0x20 PUSH2 0x168E DUP6 DUP3 DUP7 ADD PUSH2 0x1330 JUMP JUMPDEST SWAP2 POP POP SWAP3 POP SWAP3 SWAP1 POP JUMP JUMPDEST PUSH32 0x4E487B7100000000000000000000000000000000000000000000000000000000 PUSH0 MSTORE PUSH1 0x22 PUSH1 0x4 MSTORE PUSH1 0x24 PUSH0 REVERT JUMPDEST PUSH0 PUSH1 0x2 DUP3 DIV SWAP1 POP PUSH1 0x1 DUP3 AND DUP1 PUSH2 0x16DC JUMPI PUSH1 0x7F DUP3 AND SWAP2 POP JUMPDEST PUSH1 0x20 DUP3 LT DUP2 SUB PUSH2 0x16EF JUMPI PUSH2 0x16EE PUSH2 0x1698 JUMP JUMPDEST JUMPDEST POP SWAP2 SWAP1 POP JUMP JUMPDEST PUSH0 DUP2 SWAP1 POP DUP2 PUSH0 MSTORE PUSH1 0x20 PUSH0 KECCAK256 SWAP1 POP SWAP2 SWAP1 POP JUMP JUMPDEST PUSH0 PUSH1 0x20 PUSH1 0x1F DUP4 ADD DIV SWAP1 POP SWAP2 SWAP1 POP JUMP JUMPDEST PUSH0 DUP3 DUP3 SHL SWAP1 POP SWAP3 SWAP2 POP POP JUMP JUMPDEST PUSH0 PUSH1 0x8 DUP4 MUL PUSH2 0x1751 PUSH32 0xFFFFFFFFFFFFFFFFFFFFFFFFFFFFFFFFFFFFFFFFFFFFFFFFFFFFFFFFFFFFFFFF DUP3 PUSH2 0x1716 JUMP JUMPDEST PUSH2 0x175B DUP7 DUP4 PUSH2 0x1716 JUMP JUMPDEST SWAP6 POP DUP1 NOT DUP5 AND SWAP4 POP DUP1 DUP7 AND DUP5 OR SWAP3 POP POP POP SWAP4 SWAP3 POP POP POP JUMP JUMPDEST PUSH0 DUP2 SWAP1 POP SWAP2 SWAP1 POP JUMP JUMPDEST PUSH0 PUSH2 0x1796 PUSH2 0x1791 PUSH2 0x178C DUP5 PUSH2 0x1344 JUMP JUMPDEST PUSH2 0x1773 JUMP JUMPDEST PUSH2 0x1344 JUMP JUMPDEST SWAP1 POP SWAP2 SWAP1 POP JUMP JUMPDEST PUSH0 DUP2 SWAP1 POP SWAP2 SWAP1 POP JUMP JUMPDEST PUSH2 0x17AF DUP4 PUSH2 0x177C JUMP JUMPDEST PUSH2 0x17C3 PUSH2 0x17BB DUP3 PUSH2 0x179D JUMP JUMPDEST DUP5 DUP5 SLOAD PUSH2 0x1722 JUMP JUMPDEST DUP3 SSTORE POP POP POP POP JUMP JUMPDEST PUSH0 SWAP1 JUMP JUMPDEST PUSH2 0x17D7 PUSH2 0x17CB JUMP JUMPDEST PUSH2 0x17E2 DUP2 DUP5 DUP5 PUSH2 0x17A6 JUMP JUMPDEST POP POP POP JUMP JUMPDEST JUMPDEST DUP2 DUP2 LT ISZERO PUSH2 0x1805 JUMPI PUSH2 0x17FA PUSH0 DUP3 PUSH2 0x17CF JUMP JUMPDEST PUSH1 0x1 DUP2 ADD SWAP1 POP PUSH2 0x17E8 JUMP JUMPDEST POP POP JUMP JUMPDEST PUSH1 0x1F DUP3 GT ISZERO PUSH2 0x184A JUMPI PUSH2 0x181B DUP2 PUSH2 0x16F5 JUMP JUMPDEST PUSH2 0x1824 DUP5 PUSH2 0x1707 JUMP JUMPDEST DUP2 ADD PUSH1 0x20 DUP6 LT ISZERO PUSH2 0x1833 JUMPI DUP2 SWAP1 POP JUMPDEST PUSH2 0x1847 PUSH2 0x183F DUP6 PUSH2 0x1707 JUMP JUMPDEST DUP4 ADD DUP3 PUSH2 0x17E7 JUMP JUMPDEST POP POP JUMPDEST POP POP POP JUMP JUMPDEST PUSH0 DUP3 DUP3 SHR SWAP1 POP SWAP3 SWAP2 POP POP JUMP JUMPDEST PUSH0 PUSH2 0x186A PUSH0 NOT DUP5 PUSH1 0x8 MUL PUSH2 0x184F JUMP JUMPDEST NOT DUP1 DUP4 AND SWAP2 POP POP SWAP3 SWAP2 POP POP JUMP JUMPDEST PUSH0 PUSH2 0x1882 DUP4 DUP4 PUSH2 0x185B JUMP JUMPDEST SWAP2 POP DUP3 PUSH1 0x2 MUL DUP3 OR SWAP1 POP SWAP3 SWAP2 POP POP JUMP JUMPDEST PUSH2 0x189B DUP3 PUSH2 0x122F JUMP JUMPDEST PUSH8 0xFFFFFFFFFFFFFFFF DUP2 GT ISZERO PUSH2 0x18B4 JUMPI PUSH2 0x18B3 PUSH2 0x13F0 JUMP JUMPDEST JUMPDEST PUSH2 0x18BE DUP3 SLOAD PUSH2 0x16C5 JUMP JUMPDEST PUSH2 0x18C9 DUP3 DUP3 DUP6 PUSH2 0x1809 JUMP JUMPDEST PUSH0 PUSH1 0x20 SWAP1 POP PUSH1 0x1F DUP4 GT PUSH1 0x1 DUP2 EQ PUSH2 0x18FA JUMPI PUSH0 DUP5 ISZERO PUSH2 0x18E8 JUMPI DUP3 DUP8 ADD MLOAD SWAP1 POP JUMPDEST PUSH2 0x18F2 DUP6 DUP3 PUSH2 0x1877 JUMP JUMPDEST DUP7 SSTORE POP PUSH2 0x1959 JUMP JUMPDEST PUSH1 0x1F NOT DUP5 AND PUSH2 0x1908 DUP7 PUSH2 0x16F5 JUMP JUMPDEST PUSH0 JUMPDEST DUP3 DUP2 LT ISZERO PUSH2 0x192F JUMPI DUP5 DUP10 ADD MLOAD DUP3 SSTORE PUSH1 0x1 DUP3 ADD SWAP2 POP PUSH1 0x20 DUP6 ADD SWAP5 POP PUSH1 0x20 DUP2 ADD SWAP1 POP PUSH2 0x190A JUMP JUMPDEST DUP7 DUP4 LT ISZERO PUSH2 0x194C JUMPI DUP5 DUP10 ADD MLOAD PUSH2 0x1948 PUSH1 0x1F DUP10 AND DUP3 PUSH2 0x185B JUMP JUMPDEST DUP4 SSTORE POP JUMPDEST PUSH1 0x1 PUSH1 0x2 DUP9 MUL ADD DUP9 SSTORE POP POP POP JUMPDEST POP POP POP POP POP POP JUMP JUMPDEST PUSH32 0x41646D696E277320746F6B656E7320617265206C6F636B656400000000000000 PUSH0 DUP3 ADD MSTORE POP JUMP JUMPDEST PUSH0 PUSH2 0x1995 PUSH1 0x19 DUP4 PUSH2 0x1239 JUMP JUMPDEST SWAP2 POP PUSH2 0x19A0 DUP3 PUSH2 0x1961 JUMP JUMPDEST PUSH1 0x20 DUP3 ADD SWAP1 POP SWAP2 SWAP1 POP JUMP JUMPDEST PUSH0 PUSH1 0x20 DUP3 ADD SWAP1 POP DUP2 DUP2 SUB PUSH0 DUP4 ADD MSTORE PUSH2 0x19C2 DUP2 PUSH2 0x1989 JUMP JUMPDEST SWAP1 POP SWAP2 SWAP1 POP JUMP JUMPDEST PUSH32 0x546F6B656E7320617265206C6F636B6564000000000000000000000000000000 PUSH0 DUP3 ADD MSTORE POP JUMP JUMPDEST PUSH0 PUSH2 0x19FD PUSH1 0x11 DUP4 PUSH2 0x1239 JUMP JUMPDEST SWAP2 POP PUSH2 0x1A08 DUP3 PUSH2 0x19C9 JUMP JUMPDEST PUSH1 0x20 DUP3 ADD SWAP1 POP SWAP2 SWAP1 POP JUMP JUMPDEST PUSH0 PUSH1 0x20 DUP3 ADD SWAP1 POP DUP2 DUP2 SUB PUSH0 DUP4 ADD MSTORE PUSH2 0x1A2A DUP2 PUSH2 0x19F1 JUMP JUMPDEST SWAP1 POP SWAP2 SWAP1 POP JUMP JUMPDEST PUSH32 0x4E487B7100000000000000000000000000000000000000000000000000000000 PUSH0 MSTORE PUSH1 0x11 PUSH1 0x4 MSTORE PUSH1 0x24 PUSH0 REVERT JUMPDEST PUSH0 PUSH2 0x1A68 DUP3 PUSH2 0x1344 JUMP JUMPDEST SWAP2 POP PUSH2 0x1A73 DUP4 PUSH2 0x1344 JUMP JUMPDEST SWAP3 POP DUP3 DUP3 ADD SWAP1 POP DUP1 DUP3 GT ISZERO PUSH2 0x1A8B JUMPI PUSH2 0x1A8A PUSH2 0x1A31 JUMP JUMPDEST JUMPDEST SWAP3 SWAP2 POP POP JUMP JUMPDEST PUSH0 PUSH2 0x1A9B DUP3 PUSH2 0x1344 JUMP JUMPDEST SWAP2 POP PUSH2 0x1AA6 DUP4 PUSH2 0x1344 JUMP JUMPDEST SWAP3 POP DUP3 DUP3 MUL PUSH2 0x1AB4 DUP2 PUSH2 0x1344 JUMP JUMPDEST SWAP2 POP DUP3 DUP3 DIV DUP5 EQ DUP4 ISZERO OR PUSH2 0x1ACB JUMPI PUSH2 0x1ACA PUSH2 0x1A31 JUMP JUMPDEST JUMPDEST POP SWAP3 SWAP2 POP POP JUMP JUMPDEST PUSH32 0x4E487B7100000000000000000000000000000000000000000000000000000000 PUSH0 MSTORE PUSH1 0x12 PUSH1 0x4 MSTORE PUSH1 0x24 PUSH0 REVERT JUMPDEST PUSH0 PUSH2 0x1B09 DUP3 PUSH2 0x1344 JUMP JUMPDEST SWAP2 POP PUSH2 0x1B14 DUP4 PUSH2 0x1344 JUMP JUMPDEST SWAP3 POP DUP3 PUSH2 0x1B24 JUMPI PUSH2 0x1B23 PUSH2 0x1AD2 JUMP JUMPDEST JUMPDEST DUP3 DUP3 DIV SWAP1 POP SWAP3 SWAP2 POP POP JUMP JUMPDEST PUSH32 0x4F776E657273686970206361707065642061742032302520746F20656E737572 PUSH0 DUP3 ADD MSTORE PUSH32 0x6520646563656E7472616C697A6174696F6E0000000000000000000000000000 PUSH1 0x20 DUP3 ADD MSTORE POP JUMP JUMPDEST PUSH0 PUSH2 0x1B89 PUSH1 0x32 DUP4 PUSH2 0x1239 JUMP JUMPDEST SWAP2 POP PUSH2 0x1B94 DUP3 PUSH2 0x1B2F JUMP JUMPDEST PUSH1 0x40 DUP3 ADD SWAP1 POP SWAP2 SWAP1 POP JUMP JUMPDEST PUSH0 PUSH1 0x20 DUP3 ADD SWAP1 POP DUP2 DUP2 SUB PUSH0 DUP4 ADD MSTORE PUSH2 0x1BB6 DUP2 PUSH2 0x1B7D JUMP JUMPDEST SWAP1 POP SWAP2 SWAP1 POP JUMP JUMPDEST PUSH32 0x61646D696E277320746F6B656E7320617265206C6F636B656420666F7220616E PUSH0 DUP3 ADD MSTORE PUSH32 0x2079656172000000000000000000000000000000000000000000000000000000 PUSH1 0x20 DUP3 ADD MSTORE POP JUMP JUMPDEST PUSH0 PUSH2 0x1C17 PUSH1 0x25 DUP4 PUSH2 0x1239 JUMP JUMPDEST SWAP2 POP PUSH2 0x1C22 DUP3 PUSH2 0x1BBD JUMP JUMPDEST PUSH1 0x40 DUP3 ADD SWAP1 POP SWAP2 SWAP1 POP JUMP JUMPDEST PUSH0 PUSH1 0x20 DUP3 ADD SWAP1 POP DUP2 DUP2 SUB PUSH0 DUP4 ADD MSTORE PUSH2 0x1C44 DUP2 PUSH2 0x1C0B JUMP JUMPDEST SWAP1 POP SWAP2 SWAP1 POP JUMP JUMPDEST PUSH32 0x6E6F7420666F722073616C652079657400000000000000000000000000000000 PUSH0 DUP3 ADD MSTORE POP JUMP JUMPDEST PUSH0 PUSH2 0x1C7F PUSH1 0x10 DUP4 PUSH2 0x1239 JUMP JUMPDEST SWAP2 POP PUSH2 0x1C8A DUP3 PUSH2 0x1C4B JUMP JUMPDEST PUSH1 0x20 DUP3 ADD SWAP1 POP SWAP2 SWAP1 POP JUMP JUMPDEST PUSH0 PUSH1 0x20 DUP3 ADD SWAP1 POP DUP2 DUP2 SUB PUSH0 DUP4 ADD MSTORE PUSH2 0x1CAC DUP2 PUSH2 0x1C73 JUMP JUMPDEST SWAP1 POP SWAP2 SWAP1 POP JUMP JUMPDEST PUSH0 DUP2 SLOAD PUSH2 0x1CBF DUP2 PUSH2 0x16C5 JUMP JUMPDEST PUSH2 0x1CC9 DUP2 DUP7 PUSH2 0x1239 JUMP JUMPDEST SWAP5 POP PUSH1 0x1 DUP3 AND PUSH0 DUP2 EQ PUSH2 0x1CE3 JUMPI PUSH1 0x1 DUP2 EQ PUSH2 0x1CF9 JUMPI PUSH2 0x1D2B JUMP JUMPDEST PUSH1 0xFF NOT DUP4 AND DUP7 MSTORE DUP2 ISZERO ISZERO PUSH1 0x20 MUL DUP7 ADD SWAP4 POP PUSH2 0x1D2B JUMP JUMPDEST PUSH2 0x1D02 DUP6 PUSH2 0x16F5 JUMP JUMPDEST PUSH0 JUMPDEST DUP4 DUP2 LT ISZERO PUSH2 0x1D23 JUMPI DUP2 SLOAD DUP2 DUP10 ADD MSTORE PUSH1 0x1 DUP3 ADD SWAP2 POP PUSH1 0x20 DUP2 ADD SWAP1 POP PUSH2 0x1D04 JUMP JUMPDEST DUP1 DUP9 ADD SWAP6 POP POP POP JUMPDEST POP POP POP SWAP3 SWAP2 POP POP JUMP JUMPDEST PUSH0 PUSH1 0x80 DUP3 ADD SWAP1 POP PUSH2 0x1D47 PUSH0 DUP4 ADD DUP8 PUSH2 0x1632 JUMP JUMPDEST PUSH2 0x1D54 PUSH1 0x20 DUP4 ADD DUP7 PUSH2 0x1632 JUMP JUMPDEST PUSH2 0x1D61 PUSH1 0x40 DUP4 ADD DUP6 PUSH2 0x155B JUMP JUMPDEST DUP2 DUP2 SUB PUSH1 0x60 DUP4 ADD MSTORE PUSH2 0x1D73 DUP2 DUP5 PUSH2 0x1CB3 JUMP JUMPDEST SWAP1 POP SWAP6 SWAP5 POP POP POP POP POP JUMP JUMPDEST PUSH0 PUSH1 0x60 DUP3 ADD SWAP1 POP PUSH2 0x1D91 PUSH0 DUP4 ADD DUP7 PUSH2 0x1632 JUMP JUMPDEST PUSH2 0x1D9E PUSH1 0x20 DUP4 ADD DUP6 PUSH2 0x155B JUMP JUMPDEST PUSH2 0x1DAB PUSH1 0x40 DUP4 ADD DUP5 PUSH2 0x155B JUMP JUMPDEST SWAP5 SWAP4 POP POP POP POP JUMP INVALID LOG2 PUSH5 0x6970667358 0x22 SLT KECCAK256 0xE7 0xD 0x2E LOG1 0xE6 0x49 CALLCODE 0xE5 0x2C PUSH29 0xEC53763FE632648C82D5ADF0023B379FFBCDD6F752CA64736F6C634300 ADDMOD EQ STOP CALLER "
				},
				"gasEstimates": {
					"creation": {
						"codeDepositCost": "1531400",
						"executionCost": "infinite",
						"totalCost": "infinite"
					},
					"external": {
						"ForceBurn(address,uint256)": "infinite",
						"ForceMint(address,uint256)": "infinite",
						"_adminLockTime()": "2470",
						"allowance(address,address)": "infinite",
						"approve(address,uint256)": "infinite",
						"balanceOf(address)": "2896",
						"decimals()": "375",
						"getDocumentURI()": "infinite",
						"getLockTime()": "2498",
						"name()": "infinite",
						"owner()": "2626",
						"renounceOwnership()": "infinite",
						"setDocumentURI(string)": "infinite",
						"symbol()": "infinite",
						"totalSupply()": "2522",
						"transfer(address,uint256)": "infinite",
						"transferFrom(address,address,uint256)": "infinite",
						"transferOwnership(address)": "infinite"
					}
				},
				"methodIdentifiers": {
					"ForceBurn(address,uint256)": "ae84827a",
					"ForceMint(address,uint256)": "b93a5396",
					"_adminLockTime()": "9f3adb0e",
					"allowance(address,address)": "dd62ed3e",
					"approve(address,uint256)": "095ea7b3",
					"balanceOf(address)": "70a08231",
					"decimals()": "313ce567",
					"getDocumentURI()": "bd7dac92",
					"getLockTime()": "c0a4d64d",
					"name()": "06fdde03",
					"owner()": "8da5cb5b",
					"renounceOwnership()": "715018a6",
					"setDocumentURI(string)": "0de65a44",
					"symbol()": "95d89b41",
					"totalSupply()": "18160ddd",
					"transfer(address,uint256)": "a9059cbb",
					"transferFrom(address,address,uint256)": "23b872dd",
					"transferOwnership(address)": "f2fde38b"
				}
			},
			"storageLayout": {
				"storage": [
					{
						"astId": 652,
						"contract": "userfrontend/contracts/ERC20subscription.sol:ERC20subscription",
						"label": "_balances",
						"offset": 0,
						"slot": "0",
						"type": "t_mapping(t_address,t_uint256)"
					},
					{
						"astId": 658,
						"contract": "userfrontend/contracts/ERC20subscription.sol:ERC20subscription",
						"label": "_allowances",
						"offset": 0,
						"slot": "1",
						"type": "t_mapping(t_address,t_mapping(t_address,t_uint256))"
					},
					{
						"astId": 660,
						"contract": "userfrontend/contracts/ERC20subscription.sol:ERC20subscription",
						"label": "_totalSupply",
						"offset": 0,
						"slot": "2",
						"type": "t_uint256"
					},
					{
						"astId": 662,
						"contract": "userfrontend/contracts/ERC20subscription.sol:ERC20subscription",
						"label": "_name",
						"offset": 0,
						"slot": "3",
						"type": "t_string_storage"
					},
					{
						"astId": 664,
						"contract": "userfrontend/contracts/ERC20subscription.sol:ERC20subscription",
						"label": "_symbol",
						"offset": 0,
						"slot": "4",
						"type": "t_string_storage"
					},
					{
						"astId": 353,
						"contract": "userfrontend/contracts/ERC20subscription.sol:ERC20subscription",
						"label": "_owner",
						"offset": 0,
						"slot": "5",
						"type": "t_address"
					},
					{
						"astId": 9,
						"contract": "userfrontend/contracts/ERC20subscription.sol:ERC20subscription",
						"label": "_totalMinted",
						"offset": 0,
						"slot": "6",
						"type": "t_uint256"
					},
					{
						"astId": 11,
						"contract": "userfrontend/contracts/ERC20subscription.sol:ERC20subscription",
						"label": "_totalSupply",
						"offset": 0,
						"slot": "7",
						"type": "t_uint256"
					},
					{
						"astId": 13,
						"contract": "userfrontend/contracts/ERC20subscription.sol:ERC20subscription",
						"label": "_lockTime",
						"offset": 0,
						"slot": "8",
						"type": "t_uint256"
					},
					{
						"astId": 15,
						"contract": "userfrontend/contracts/ERC20subscription.sol:ERC20subscription",
						"label": "_adminLockTime",
						"offset": 0,
						"slot": "9",
						"type": "t_uint256"
					},
					{
						"astId": 17,
						"contract": "userfrontend/contracts/ERC20subscription.sol:ERC20subscription",
						"label": "_documentURI",
						"offset": 0,
						"slot": "10",
						"type": "t_string_storage"
					},
					{
						"astId": 19,
						"contract": "userfrontend/contracts/ERC20subscription.sol:ERC20subscription",
						"label": "_tokenSymbol",
						"offset": 0,
						"slot": "11",
						"type": "t_string_storage"
					}
				],
				"types": {
					"t_address": {
						"encoding": "inplace",
						"label": "address",
						"numberOfBytes": "20"
					},
					"t_mapping(t_address,t_mapping(t_address,t_uint256))": {
						"encoding": "mapping",
						"key": "t_address",
						"label": "mapping(address => mapping(address => uint256))",
						"numberOfBytes": "32",
						"value": "t_mapping(t_address,t_uint256)"
					},
					"t_mapping(t_address,t_uint256)": {
						"encoding": "mapping",
						"key": "t_address",
						"label": "mapping(address => uint256)",
						"numberOfBytes": "32",
						"value": "t_uint256"
					},
					"t_string_storage": {
						"encoding": "bytes",
						"label": "string",
						"numberOfBytes": "32"
					},
					"t_uint256": {
						"encoding": "inplace",
						"label": "uint256",
						"numberOfBytes": "32"
					}
				}
			},
			"userdoc": {
				"kind": "user",
				"methods": {},
				"version": 1
			}
		}
	}
}