{
	"contracts/ERC20subscription.sol": {
		"ERC20subscription": {
			"abi": [
				{
					"inputs": [
						{
							"internalType": "address",
							"name": "_owner",
							"type": "address"
						},
						{
							"internalType": "string",
							"name": "_name",
							"type": "string"
						},
						{
							"internalType": "string",
							"name": "_symbol",
							"type": "string"
						},
						{
							"internalType": "uint256",
							"name": "__totalSupply",
							"type": "uint256"
						},
						{
							"internalType": "address[]",
							"name": "subscribers",
							"type": "address[]"
						},
						{
							"internalType": "uint256[]",
							"name": "amounts",
							"type": "uint256[]"
						},
						{
							"internalType": "uint256",
							"name": "__lockTime",
							"type": "uint256"
						},
						{
							"internalType": "string",
							"name": "__documentURI",
							"type": "string"
						}
					],
					"stateMutability": "nonpayable",
					"type": "constructor"
				},
				{
					"inputs": [
						{
							"internalType": "address",
							"name": "spender",
							"type": "address"
						},
						{
							"internalType": "uint256",
							"name": "allowance",
							"type": "uint256"
						},
						{
							"internalType": "uint256",
							"name": "needed",
							"type": "uint256"
						}
					],
					"name": "ERC20InsufficientAllowance",
					"type": "error"
				},
				{
					"inputs": [
						{
							"internalType": "address",
							"name": "sender",
							"type": "address"
						},
						{
							"internalType": "uint256",
							"name": "balance",
							"type": "uint256"
						},
						{
							"internalType": "uint256",
							"name": "needed",
							"type": "uint256"
						}
					],
					"name": "ERC20InsufficientBalance",
					"type": "error"
				},
				{
					"inputs": [
						{
							"internalType": "address",
							"name": "approver",
							"type": "address"
						}
					],
					"name": "ERC20InvalidApprover",
					"type": "error"
				},
				{
					"inputs": [
						{
							"internalType": "address",
							"name": "receiver",
							"type": "address"
						}
					],
					"name": "ERC20InvalidReceiver",
					"type": "error"
				},
				{
					"inputs": [
						{
							"internalType": "address",
							"name": "sender",
							"type": "address"
						}
					],
					"name": "ERC20InvalidSender",
					"type": "error"
				},
				{
					"inputs": [
						{
							"internalType": "address",
							"name": "spender",
							"type": "address"
						}
					],
					"name": "ERC20InvalidSpender",
					"type": "error"
				},
				{
					"inputs": [
						{
							"internalType": "address",
							"name": "owner",
							"type": "address"
						}
					],
					"name": "OwnableInvalidOwner",
					"type": "error"
				},
				{
					"inputs": [
						{
							"internalType": "address",
							"name": "account",
							"type": "address"
						}
					],
					"name": "OwnableUnauthorizedAccount",
					"type": "error"
				},
				{
					"anonymous": false,
					"inputs": [
						{
							"indexed": true,
							"internalType": "address",
							"name": "owner",
							"type": "address"
						},
						{
							"indexed": true,
							"internalType": "address",
							"name": "spender",
							"type": "address"
						},
						{
							"indexed": false,
							"internalType": "uint256",
							"name": "value",
							"type": "uint256"
						}
					],
					"name": "Approval",
					"type": "event"
				},
				{
					"anonymous": false,
					"inputs": [
						{
							"indexed": true,
							"internalType": "address",
							"name": "previousOwner",
							"type": "address"
						},
						{
							"indexed": true,
							"internalType": "address",
							"name": "newOwner",
							"type": "address"
						}
					],
					"name": "OwnershipTransferred",
					"type": "event"
				},
				{
					"anonymous": false,
					"inputs": [
						{
							"indexed": true,
							"internalType": "address",
							"name": "from",
							"type": "address"
						},
						{
							"indexed": true,
							"internalType": "address",
							"name": "to",
							"type": "address"
						},
						{
							"indexed": false,
							"internalType": "uint256",
							"name": "value",
							"type": "uint256"
						}
					],
					"name": "Transfer",
					"type": "event"
				},
				{
					"inputs": [
						{
							"internalType": "address",
							"name": "_useraddress",
							"type": "address"
						},
						{
							"internalType": "uint256",
							"name": "amount",
							"type": "uint256"
						}
					],
					"name": "ForceBurn",
					"outputs": [],
					"stateMutability": "nonpayable",
					"type": "function"
				},
				{
					"inputs": [
						{
							"internalType": "address",
							"name": "_useraddress",
							"type": "address"
						},
						{
							"internalType": "uint256",
							"name": "amount",
							"type": "uint256"
						}
					],
					"name": "ForceMint",
					"outputs": [],
					"stateMutability": "nonpayable",
					"type": "function"
				},
				{
					"inputs": [],
					"name": "_adminLockTime",
					"outputs": [
						{
							"internalType": "uint256",
							"name": "",
							"type": "uint256"
						}
					],
					"stateMutability": "view",
					"type": "function"
				},
				{
					"inputs": [
						{
							"internalType": "address",
							"name": "owner",
							"type": "address"
						},
						{
							"internalType": "address",
							"name": "spender",
							"type": "address"
						}
					],
					"name": "allowance",
					"outputs": [
						{
							"internalType": "uint256",
							"name": "",
							"type": "uint256"
						}
					],
					"stateMutability": "view",
					"type": "function"
				},
				{
					"inputs": [
						{
							"internalType": "address",
							"name": "spender",
							"type": "address"
						},
						{
							"internalType": "uint256",
							"name": "value",
							"type": "uint256"
						}
					],
					"name": "approve",
					"outputs": [
						{
							"internalType": "bool",
							"name": "",
							"type": "bool"
						}
					],
					"stateMutability": "nonpayable",
					"type": "function"
				},
				{
					"inputs": [
						{
							"internalType": "address",
							"name": "account",
							"type": "address"
						}
					],
					"name": "balanceOf",
					"outputs": [
						{
							"internalType": "uint256",
							"name": "",
							"type": "uint256"
						}
					],
					"stateMutability": "view",
					"type": "function"
				},
				{
					"inputs": [],
					"name": "decimals",
					"outputs": [
						{
							"internalType": "uint8",
							"name": "",
							"type": "uint8"
						}
					],
					"stateMutability": "pure",
					"type": "function"
				},
				{
					"inputs": [],
					"name": "getDocumentURI",
					"outputs": [
						{
							"internalType": "string",
							"name": "",
							"type": "string"
						}
					],
					"stateMutability": "view",
					"type": "function"
				},
				{
					"inputs": [],
					"name": "getLockTime",
					"outputs": [
						{
							"internalType": "uint256",
							"name": "",
							"type": "uint256"
						}
					],
					"stateMutability": "view",
					"type": "function"
				},
				{
					"inputs": [],
					"name": "name",
					"outputs": [
						{
							"internalType": "string",
							"name": "",
							"type": "string"
						}
					],
					"stateMutability": "view",
					"type": "function"
				},
				{
					"inputs": [],
					"name": "owner",
					"outputs": [
						{
							"internalType": "address",
							"name": "",
							"type": "address"
						}
					],
					"stateMutability": "view",
					"type": "function"
				},
				{
					"inputs": [],
					"name": "renounceOwnership",
					"outputs": [],
					"stateMutability": "nonpayable",
					"type": "function"
				},
				{
					"inputs": [],
					"name": "symbol",
					"outputs": [
						{
							"internalType": "string",
							"name": "",
							"type": "string"
						}
					],
					"stateMutability": "view",
					"type": "function"
				},
				{
					"inputs": [],
					"name": "totalSupply",
					"outputs": [
						{
							"internalType": "uint256",
							"name": "",
							"type": "uint256"
						}
					],
					"stateMutability": "view",
					"type": "function"
				},
				{
					"inputs": [
						{
							"internalType": "address",
							"name": "to",
							"type": "address"
						},
						{
							"internalType": "uint256",
							"name": "amount",
							"type": "uint256"
						}
					],
					"name": "transfer",
					"outputs": [
						{
							"internalType": "bool",
							"name": "",
							"type": "bool"
						}
					],
					"stateMutability": "nonpayable",
					"type": "function"
				},
				{
					"inputs": [
						{
							"internalType": "address",
							"name": "from",
							"type": "address"
						},
						{
							"internalType": "address",
							"name": "to",
							"type": "address"
						},
						{
							"internalType": "uint256",
							"name": "amount",
							"type": "uint256"
						}
					],
					"name": "transferFrom",
					"outputs": [
						{
							"internalType": "bool",
							"name": "",
							"type": "bool"
						}
					],
					"stateMutability": "nonpayable",
					"type": "function"
				},
				{
					"inputs": [
						{
							"internalType": "address",
							"name": "newOwner",
							"type": "address"
						}
					],
					"name": "transferOwnership",
					"outputs": [],
					"stateMutability": "nonpayable",
					"type": "function"
				}
			],
			"devdoc": {
				"errors": {
					"ERC20InsufficientAllowance(address,uint256,uint256)": [
						{
							"details": "Indicates a failure with the `spender`’s `allowance`. Used in transfers.",
							"params": {
								"allowance": "Amount of tokens a `spender` is allowed to operate with.",
								"needed": "Minimum amount required to perform a transfer.",
								"spender": "Address that may be allowed to operate on tokens without being their owner."
							}
						}
					],
					"ERC20InsufficientBalance(address,uint256,uint256)": [
						{
							"details": "Indicates an error related to the current `balance` of a `sender`. Used in transfers.",
							"params": {
								"balance": "Current balance for the interacting account.",
								"needed": "Minimum amount required to perform a transfer.",
								"sender": "Address whose tokens are being transferred."
							}
						}
					],
					"ERC20InvalidApprover(address)": [
						{
							"details": "Indicates a failure with the `approver` of a token to be approved. Used in approvals.",
							"params": {
								"approver": "Address initiating an approval operation."
							}
						}
					],
					"ERC20InvalidReceiver(address)": [
						{
							"details": "Indicates a failure with the token `receiver`. Used in transfers.",
							"params": {
								"receiver": "Address to which tokens are being transferred."
							}
						}
					],
					"ERC20InvalidSender(address)": [
						{
							"details": "Indicates a failure with the token `sender`. Used in transfers.",
							"params": {
								"sender": "Address whose tokens are being transferred."
							}
						}
					],
					"ERC20InvalidSpender(address)": [
						{
							"details": "Indicates a failure with the `spender` to be approved. Used in approvals.",
							"params": {
								"spender": "Address that may be allowed to operate on tokens without being their owner."
							}
						}
					],
					"OwnableInvalidOwner(address)": [
						{
							"details": "The owner is not a valid owner account. (eg. `address(0)`)"
						}
					],
					"OwnableUnauthorizedAccount(address)": [
						{
							"details": "The caller account is not authorized to perform an operation."
						}
					]
				},
				"events": {
					"Approval(address,address,uint256)": {
						"details": "Emitted when the allowance of a `spender` for an `owner` is set by a call to {approve}. `value` is the new allowance."
					},
					"Transfer(address,address,uint256)": {
						"details": "Emitted when `value` tokens are moved from one account (`from`) to another (`to`). Note that `value` may be zero."
					}
				},
				"kind": "dev",
				"methods": {
					"allowance(address,address)": {
						"details": "See {IERC20-allowance}."
					},
					"approve(address,uint256)": {
						"details": "See {IERC20-approve}. NOTE: If `value` is the maximum `uint256`, the allowance is not updated on `transferFrom`. This is semantically equivalent to an infinite approval. Requirements: - `spender` cannot be the zero address."
					},
					"balanceOf(address)": {
						"details": "See {IERC20-balanceOf}."
					},
					"decimals()": {
						"details": "Returns the number of decimals used to get its user representation. For example, if `decimals` equals `2`, a balance of `505` tokens should be displayed to a user as `5.05` (`505 / 10 ** 2`). Tokens usually opt for a value of 18, imitating the relationship between Ether and Wei. This is the default value returned by this function, unless it's overridden. NOTE: This information is only used for _display_ purposes: it in no way affects any of the arithmetic of the contract, including {IERC20-balanceOf} and {IERC20-transfer}."
					},
					"name()": {
						"details": "Returns the name of the token."
					},
					"owner()": {
						"details": "Returns the address of the current owner."
					},
					"renounceOwnership()": {
						"details": "Leaves the contract without owner. It will not be possible to call `onlyOwner` functions. Can only be called by the current owner. NOTE: Renouncing ownership will leave the contract without an owner, thereby disabling any functionality that is only available to the owner."
					},
					"symbol()": {
						"details": "Returns the symbol of the token, usually a shorter version of the name."
					},
					"totalSupply()": {
						"details": "See {IERC20-totalSupply}."
					},
					"transferOwnership(address)": {
						"details": "Transfers ownership of the contract to a new account (`newOwner`). Can only be called by the current owner."
					}
				},
				"version": 1
			},
			"evm": {
				"assembly": "    /* \"contracts/ERC20subscription.sol\":206:3239  contract ERC20subscription is ERC20, Ownable {... */\n  mstore(0x40, 0x80)\n    /* \"contracts/ERC20subscription.sol\":805:1804  constructor(... */\n  callvalue\n  dup1\n  iszero\n  tag_1\n  jumpi\n  0x00\n  dup1\n  revert\ntag_1:\n  pop\n  mload(0x40)\n  sub(codesize, bytecodeSize)\n  dup1\n  bytecodeSize\n  dup4\n  codecopy\n  dup2\n  dup2\n  add\n  0x40\n  mstore\n  dup2\n  add\n  swap1\n  tag_2\n  swap2\n  swap1\n  tag_3\n  jump\t// in\ntag_2:\n    /* \"contracts/ERC20subscription.sol\":1116:1122  _owner */\n  dup8\n    /* \"contracts/ERC20subscription.sol\":1093:1098  _name */\n  dup8\n    /* \"contracts/ERC20subscription.sol\":1099:1106  _symbol */\n  dup8\n    /* \"node_modules/@openzeppelin/contracts/token/ERC20/ERC20.sol\":1970:1975  name_ */\n  dup2\n    /* \"node_modules/@openzeppelin/contracts/token/ERC20/ERC20.sol\":1962:1967  _name */\n  0x03\n    /* \"node_modules/@openzeppelin/contracts/token/ERC20/ERC20.sol\":1962:1975  _name = name_ */\n  swap1\n  dup2\n  tag_8\n  swap2\n  swap1\n  tag_9\n  jump\t// in\ntag_8:\n  pop\n    /* \"node_modules/@openzeppelin/contracts/token/ERC20/ERC20.sol\":1995:2002  symbol_ */\n  dup1\n    /* \"node_modules/@openzeppelin/contracts/token/ERC20/ERC20.sol\":1985:1992  _symbol */\n  0x04\n    /* \"node_modules/@openzeppelin/contracts/token/ERC20/ERC20.sol\":1985:2002  _symbol = symbol_ */\n  swap1\n  dup2\n  tag_10\n  swap2\n  swap1\n  tag_9\n  jump\t// in\ntag_10:\n  pop\n    /* \"node_modules/@openzeppelin/contracts/token/ERC20/ERC20.sol\":1896:2009  constructor(string memory name_, string memory symbol_) {... */\n  pop\n  pop\n    /* \"node_modules/@openzeppelin/contracts/access/Ownable.sol\":1297:1298  0 */\n  0x00\n    /* \"node_modules/@openzeppelin/contracts/access/Ownable.sol\":1273:1299  initialOwner == address(0) */\n  0xffffffffffffffffffffffffffffffffffffffff\n  and\n    /* \"node_modules/@openzeppelin/contracts/access/Ownable.sol\":1273:1285  initialOwner */\n  dup2\n    /* \"node_modules/@openzeppelin/contracts/access/Ownable.sol\":1273:1299  initialOwner == address(0) */\n  0xffffffffffffffffffffffffffffffffffffffff\n  and\n  sub\n    /* \"node_modules/@openzeppelin/contracts/access/Ownable.sol\":1269:1364  if (initialOwner == address(0)) {... */\n  tag_12\n  jumpi\n    /* \"node_modules/@openzeppelin/contracts/access/Ownable.sol\":1350:1351  0 */\n  0x00\n    /* \"node_modules/@openzeppelin/contracts/access/Ownable.sol\":1322:1353  OwnableInvalidOwner(address(0)) */\n  mload(0x40)\n  0x1e4fbdf700000000000000000000000000000000000000000000000000000000\n  dup2\n  mstore\n  0x04\n  add\n  tag_13\n  swap2\n  swap1\n  tag_14\n  jump\t// in\ntag_13:\n  mload(0x40)\n  dup1\n  swap2\n  sub\n  swap1\n  revert\n    /* \"node_modules/@openzeppelin/contracts/access/Ownable.sol\":1269:1364  if (initialOwner == address(0)) {... */\ntag_12:\n    /* \"node_modules/@openzeppelin/contracts/access/Ownable.sol\":1373:1405  _transferOwnership(initialOwner) */\n  tag_15\n    /* \"node_modules/@openzeppelin/contracts/access/Ownable.sol\":1392:1404  initialOwner */\n  dup2\n    /* \"node_modules/@openzeppelin/contracts/access/Ownable.sol\":1373:1391  _transferOwnership */\n  shl(0x20, tag_16)\n    /* \"node_modules/@openzeppelin/contracts/access/Ownable.sol\":1373:1405  _transferOwnership(initialOwner) */\n  0x20\n  shr\n  jump\t// in\ntag_15:\n    /* \"node_modules/@openzeppelin/contracts/access/Ownable.sol\":1225:1412  constructor(address initialOwner) {... */\n  pop\n    /* \"contracts/ERC20subscription.sol\":1164:1171  amounts */\n  dup3\n    /* \"contracts/ERC20subscription.sol\":1164:1178  amounts.length */\n  mload\n    /* \"contracts/ERC20subscription.sol\":1142:1153  subscribers */\n  dup5\n    /* \"contracts/ERC20subscription.sol\":1142:1160  subscribers.length */\n  mload\n    /* \"contracts/ERC20subscription.sol\":1142:1178  subscribers.length == amounts.length */\n  eq\n    /* \"contracts/ERC20subscription.sol\":1134:1225  require(subscribers.length == amounts.length, \"subscribers and their amounts do not match\") */\n  tag_18\n  jumpi\n  mload(0x40)\n  0x08c379a000000000000000000000000000000000000000000000000000000000\n  dup2\n  mstore\n  0x04\n  add\n  tag_19\n  swap1\n  tag_20\n  jump\t// in\ntag_19:\n  mload(0x40)\n  dup1\n  swap2\n  sub\n  swap1\n  revert\ntag_18:\n    /* \"contracts/ERC20subscription.sol\":1251:1264  __totalSupply */\n  dup5\n    /* \"contracts/ERC20subscription.sol\":1236:1248  _totalSupply */\n  0x07\n    /* \"contracts/ERC20subscription.sol\":1236:1264  _totalSupply = __totalSupply */\n  dup2\n  swap1\n  sstore\n  pop\n    /* \"contracts/ERC20subscription.sol\":1305:1315  __lockTime */\n  dup2\n    /* \"contracts/ERC20subscription.sol\":1287:1302  block.timestamp */\n  timestamp\n    /* \"contracts/ERC20subscription.sol\":1287:1315  block.timestamp + __lockTime */\n  tag_21\n  swap2\n  swap1\n  tag_22\n  jump\t// in\ntag_21:\n    /* \"contracts/ERC20subscription.sol\":1275:1284  _lockTime */\n  0x08\n    /* \"contracts/ERC20subscription.sol\":1275:1315  _lockTime = block.timestamp + __lockTime */\n  dup2\n  swap1\n  sstore\n  pop\n    /* \"contracts/ERC20subscription.sol\":1341:1354  __documentURI */\n  dup1\n    /* \"contracts/ERC20subscription.sol\":1326:1338  _documentURI */\n  0x0a\n    /* \"contracts/ERC20subscription.sol\":1326:1354  _documentURI = __documentURI */\n  swap1\n  dup2\n  tag_23\n  swap2\n  swap1\n  tag_9\n  jump\t// in\ntag_23:\n  pop\n    /* \"contracts/ERC20subscription.sol\":1371:1380  uint256 i */\n  0x00\n    /* \"contracts/ERC20subscription.sol\":1367:1579  for(uint256 i = 0; i<subscribers.length; i++){... */\ntag_24:\n    /* \"contracts/ERC20subscription.sol\":1388:1399  subscribers */\n  dup5\n    /* \"contracts/ERC20subscription.sol\":1388:1406  subscribers.length */\n  mload\n    /* \"contracts/ERC20subscription.sol\":1386:1387  i */\n  dup2\n    /* \"contracts/ERC20subscription.sol\":1386:1406  i<subscribers.length */\n  lt\n    /* \"contracts/ERC20subscription.sol\":1367:1579  for(uint256 i = 0; i<subscribers.length; i++){... */\n  iszero\n  tag_25\n  jumpi\n    /* \"contracts/ERC20subscription.sol\":1464:1476  _totalSupply */\n  sload(0x07)\n    /* \"contracts/ERC20subscription.sol\":1448:1460  _totalMinted */\n  sload(0x06)\n    /* \"contracts/ERC20subscription.sol\":1435:1442  amounts */\n  dup6\n    /* \"contracts/ERC20subscription.sol\":1443:1444  i */\n  dup4\n    /* \"contracts/ERC20subscription.sol\":1435:1445  amounts[i] */\n  dup2\n  mload\n  dup2\n  lt\n  tag_27\n  jumpi\n  tag_28\n  tag_29\n  jump\t// in\ntag_28:\ntag_27:\n  0x20\n  mul\n  0x20\n  add\n  add\n  mload\n    /* \"contracts/ERC20subscription.sol\":1435:1460  amounts[i] + _totalMinted */\n  tag_30\n  swap2\n  swap1\n  tag_22\n  jump\t// in\ntag_30:\n    /* \"contracts/ERC20subscription.sol\":1435:1476  amounts[i] + _totalMinted <= _totalSupply */\n  gt\n  iszero\n    /* \"contracts/ERC20subscription.sol\":1427:1478  require(amounts[i] + _totalMinted <= _totalSupply ) */\n  tag_31\n  jumpi\n  0x00\n  dup1\n  revert\ntag_31:\n    /* \"contracts/ERC20subscription.sol\":1493:1525  _mint(subscribers[i],amounts[i]) */\n  tag_32\n    /* \"contracts/ERC20subscription.sol\":1499:1510  subscribers */\n  dup6\n    /* \"contracts/ERC20subscription.sol\":1511:1512  i */\n  dup3\n    /* \"contracts/ERC20subscription.sol\":1499:1513  subscribers[i] */\n  dup2\n  mload\n  dup2\n  lt\n  tag_33\n  jumpi\n  tag_34\n  tag_29\n  jump\t// in\ntag_34:\ntag_33:\n  0x20\n  mul\n  0x20\n  add\n  add\n  mload\n    /* \"contracts/ERC20subscription.sol\":1514:1521  amounts */\n  dup6\n    /* \"contracts/ERC20subscription.sol\":1522:1523  i */\n  dup4\n    /* \"contracts/ERC20subscription.sol\":1514:1524  amounts[i] */\n  dup2\n  mload\n  dup2\n  lt\n  tag_35\n  jumpi\n  tag_36\n  tag_29\n  jump\t// in\ntag_36:\ntag_35:\n  0x20\n  mul\n  0x20\n  add\n  add\n  mload\n    /* \"contracts/ERC20subscription.sol\":1493:1498  _mint */\n  shl(0x20, tag_37)\n    /* \"contracts/ERC20subscription.sol\":1493:1525  _mint(subscribers[i],amounts[i]) */\n  0x20\n  shr\n  jump\t// in\ntag_32:\n    /* \"contracts/ERC20subscription.sol\":1557:1564  amounts */\n  dup4\n    /* \"contracts/ERC20subscription.sol\":1565:1566  i */\n  dup2\n    /* \"contracts/ERC20subscription.sol\":1557:1567  amounts[i] */\n  dup2\n  mload\n  dup2\n  lt\n  tag_38\n  jumpi\n  tag_39\n  tag_29\n  jump\t// in\ntag_39:\ntag_38:\n  0x20\n  mul\n  0x20\n  add\n  add\n  mload\n    /* \"contracts/ERC20subscription.sol\":1541:1553  _totalMinted */\n  0x06\n  0x00\n    /* \"contracts/ERC20subscription.sol\":1541:1567  _totalMinted += amounts[i] */\n  dup3\n  dup3\n  sload\n  tag_40\n  swap2\n  swap1\n  tag_22\n  jump\t// in\ntag_40:\n  swap3\n  pop\n  pop\n  dup2\n  swap1\n  sstore\n  pop\n    /* \"contracts/ERC20subscription.sol\":1408:1411  i++ */\n  dup1\n  dup1\n  tag_41\n  swap1\n  tag_42\n  jump\t// in\ntag_41:\n  swap2\n  pop\n  pop\n    /* \"contracts/ERC20subscription.sol\":1367:1579  for(uint256 i = 0; i<subscribers.length; i++){... */\n  jump(tag_24)\ntag_25:\n  pop\n    /* \"contracts/ERC20subscription.sol\":1591:1613  uint256 remainedTokens */\n  0x00\n    /* \"contracts/ERC20subscription.sol\":1631:1643  _totalMinted */\n  sload(0x06)\n    /* \"contracts/ERC20subscription.sol\":1616:1628  _totalSupply */\n  sload(0x07)\n    /* \"contracts/ERC20subscription.sol\":1616:1643  _totalSupply - _totalMinted */\n  tag_43\n  swap2\n  swap1\n  tag_44\n  jump\t// in\ntag_43:\n    /* \"contracts/ERC20subscription.sol\":1591:1643  uint256 remainedTokens = _totalSupply - _totalMinted */\n  swap1\n  pop\n    /* \"contracts/ERC20subscription.sol\":1674:1675  0 */\n  0x00\n    /* \"contracts/ERC20subscription.sol\":1657:1671  remainedTokens */\n  dup2\n    /* \"contracts/ERC20subscription.sol\":1657:1675  remainedTokens > 0 */\n  gt\n    /* \"contracts/ERC20subscription.sol\":1654:1797  if(remainedTokens > 0){... */\n  iszero\n  tag_45\n  jumpi\n    /* \"contracts/ERC20subscription.sol\":1691:1719  _mint(_owner,remainedTokens) */\n  tag_46\n    /* \"contracts/ERC20subscription.sol\":1697:1703  _owner */\n  dup10\n    /* \"contracts/ERC20subscription.sol\":1704:1718  remainedTokens */\n  dup3\n    /* \"contracts/ERC20subscription.sol\":1691:1696  _mint */\n  shl(0x20, tag_37)\n    /* \"contracts/ERC20subscription.sol\":1691:1719  _mint(_owner,remainedTokens) */\n  0x20\n  shr\n  jump\t// in\ntag_46:\n    /* \"contracts/ERC20subscription.sol\":1769:1777  31536000 */\n  0x01e13380\n    /* \"contracts/ERC20subscription.sol\":1751:1766  block.timestamp */\n  timestamp\n    /* \"contracts/ERC20subscription.sol\":1751:1777  block.timestamp + 31536000 */\n  tag_47\n  swap2\n  swap1\n  tag_22\n  jump\t// in\ntag_47:\n    /* \"contracts/ERC20subscription.sol\":1734:1748  _adminLockTime */\n  0x09\n    /* \"contracts/ERC20subscription.sol\":1734:1777  _adminLockTime = block.timestamp + 31536000 */\n  dup2\n  swap1\n  sstore\n  pop\n    /* \"contracts/ERC20subscription.sol\":1654:1797  if(remainedTokens > 0){... */\ntag_45:\n    /* \"contracts/ERC20subscription.sol\":1123:1804  {... */\n  pop\n    /* \"contracts/ERC20subscription.sol\":805:1804  constructor(... */\n  pop\n  pop\n  pop\n  pop\n  pop\n  pop\n  pop\n  pop\n    /* \"contracts/ERC20subscription.sol\":206:3239  contract ERC20subscription is ERC20, Ownable {... */\n  jump(tag_48)\n    /* \"node_modules/@openzeppelin/contracts/access/Ownable.sol\":2912:3099  function _transferOwnership(address newOwner) internal virtual {... */\ntag_16:\n    /* \"node_modules/@openzeppelin/contracts/access/Ownable.sol\":2985:3001  address oldOwner */\n  0x00\n    /* \"node_modules/@openzeppelin/contracts/access/Ownable.sol\":3004:3010  _owner */\n  0x05\n  0x00\n  swap1\n  sload\n  swap1\n  0x0100\n  exp\n  swap1\n  div\n  0xffffffffffffffffffffffffffffffffffffffff\n  and\n    /* \"node_modules/@openzeppelin/contracts/access/Ownable.sol\":2985:3010  address oldOwner = _owner */\n  swap1\n  pop\n    /* \"node_modules/@openzeppelin/contracts/access/Ownable.sol\":3029:3037  newOwner */\n  dup2\n    /* \"node_modules/@openzeppelin/contracts/access/Ownable.sol\":3020:3026  _owner */\n  0x05\n  0x00\n    /* \"node_modules/@openzeppelin/contracts/access/Ownable.sol\":3020:3037  _owner = newOwner */\n  0x0100\n  exp\n  dup2\n  sload\n  dup2\n  0xffffffffffffffffffffffffffffffffffffffff\n  mul\n  not\n  and\n  swap1\n  dup4\n  0xffffffffffffffffffffffffffffffffffffffff\n  and\n  mul\n  or\n  swap1\n  sstore\n  pop\n    /* \"node_modules/@openzeppelin/contracts/access/Ownable.sol\":3083:3091  newOwner */\n  dup2\n    /* \"node_modules/@openzeppelin/contracts/access/Ownable.sol\":3052:3092  OwnershipTransferred(oldOwner, newOwner) */\n  0xffffffffffffffffffffffffffffffffffffffff\n  and\n    /* \"node_modules/@openzeppelin/contracts/access/Ownable.sol\":3073:3081  oldOwner */\n  dup2\n    /* \"node_modules/@openzeppelin/contracts/access/Ownable.sol\":3052:3092  OwnershipTransferred(oldOwner, newOwner) */\n  0xffffffffffffffffffffffffffffffffffffffff\n  and\n  0x8be0079c531659141344cd1fd0a4f28419497f9722a3daafe3b4186f6b6457e0\n  mload(0x40)\n  mload(0x40)\n  dup1\n  swap2\n  sub\n  swap1\n  log3\n    /* \"node_modules/@openzeppelin/contracts/access/Ownable.sol\":2975:3099  {... */\n  pop\n    /* \"node_modules/@openzeppelin/contracts/access/Ownable.sol\":2912:3099  function _transferOwnership(address newOwner) internal virtual {... */\n  pop\n  jump\t// out\n    /* \"node_modules/@openzeppelin/contracts/token/ERC20/ERC20.sol\":7721:7929  function _mint(address account, uint256 value) internal {... */\ntag_37:\n    /* \"node_modules/@openzeppelin/contracts/token/ERC20/ERC20.sol\":7810:7811  0 */\n  0x00\n    /* \"node_modules/@openzeppelin/contracts/token/ERC20/ERC20.sol\":7791:7812  account == address(0) */\n  0xffffffffffffffffffffffffffffffffffffffff\n  and\n    /* \"node_modules/@openzeppelin/contracts/token/ERC20/ERC20.sol\":7791:7798  account */\n  dup3\n    /* \"node_modules/@openzeppelin/contracts/token/ERC20/ERC20.sol\":7791:7812  account == address(0) */\n  0xffffffffffffffffffffffffffffffffffffffff\n  and\n  sub\n    /* \"node_modules/@openzeppelin/contracts/token/ERC20/ERC20.sol\":7787:7878  if (account == address(0)) {... */\n  tag_51\n  jumpi\n    /* \"node_modules/@openzeppelin/contracts/token/ERC20/ERC20.sol\":7864:7865  0 */\n  0x00\n    /* \"node_modules/@openzeppelin/contracts/token/ERC20/ERC20.sol\":7835:7867  ERC20InvalidReceiver(address(0)) */\n  mload(0x40)\n  0xec442f0500000000000000000000000000000000000000000000000000000000\n  dup2\n  mstore\n  0x04\n  add\n  tag_52\n  swap2\n  swap1\n  tag_14\n  jump\t// in\ntag_52:\n  mload(0x40)\n  dup1\n  swap2\n  sub\n  swap1\n  revert\n    /* \"node_modules/@openzeppelin/contracts/token/ERC20/ERC20.sol\":7787:7878  if (account == address(0)) {... */\ntag_51:\n    /* \"node_modules/@openzeppelin/contracts/token/ERC20/ERC20.sol\":7887:7922  _update(address(0), account, value) */\n  tag_53\n    /* \"node_modules/@openzeppelin/contracts/token/ERC20/ERC20.sol\":7903:7904  0 */\n  0x00\n    /* \"node_modules/@openzeppelin/contracts/token/ERC20/ERC20.sol\":7907:7914  account */\n  dup4\n    /* \"node_modules/@openzeppelin/contracts/token/ERC20/ERC20.sol\":7916:7921  value */\n  dup4\n    /* \"node_modules/@openzeppelin/contracts/token/ERC20/ERC20.sol\":7887:7894  _update */\n  shl(0x20, tag_54)\n    /* \"node_modules/@openzeppelin/contracts/token/ERC20/ERC20.sol\":7887:7922  _update(address(0), account, value) */\n  0x20\n  shr\n  jump\t// in\ntag_53:\n    /* \"node_modules/@openzeppelin/contracts/token/ERC20/ERC20.sol\":7721:7929  function _mint(address account, uint256 value) internal {... */\n  pop\n  pop\n  jump\t// out\n    /* \"node_modules/@openzeppelin/contracts/token/ERC20/ERC20.sol\":6271:7378  function _update(address from, address to, uint256 value) internal virtual {... */\ntag_54:\n    /* \"node_modules/@openzeppelin/contracts/token/ERC20/ERC20.sol\":6376:6377  0 */\n  0x00\n    /* \"node_modules/@openzeppelin/contracts/token/ERC20/ERC20.sol\":6360:6378  from == address(0) */\n  0xffffffffffffffffffffffffffffffffffffffff\n  and\n    /* \"node_modules/@openzeppelin/contracts/token/ERC20/ERC20.sol\":6360:6364  from */\n  dup4\n    /* \"node_modules/@openzeppelin/contracts/token/ERC20/ERC20.sol\":6360:6378  from == address(0) */\n  0xffffffffffffffffffffffffffffffffffffffff\n  and\n  sub\n    /* \"node_modules/@openzeppelin/contracts/token/ERC20/ERC20.sol\":6356:6896  if (from == address(0)) {... */\n  tag_56\n  jumpi\n    /* \"node_modules/@openzeppelin/contracts/token/ERC20/ERC20.sol\":6512:6517  value */\n  dup1\n    /* \"node_modules/@openzeppelin/contracts/token/ERC20/ERC20.sol\":6496:6508  _totalSupply */\n  0x02\n  0x00\n    /* \"node_modules/@openzeppelin/contracts/token/ERC20/ERC20.sol\":6496:6517  _totalSupply += value */\n  dup3\n  dup3\n  sload\n  tag_57\n  swap2\n  swap1\n  tag_22\n  jump\t// in\ntag_57:\n  swap3\n  pop\n  pop\n  dup2\n  swap1\n  sstore\n  pop\n    /* \"node_modules/@openzeppelin/contracts/token/ERC20/ERC20.sol\":6356:6896  if (from == address(0)) {... */\n  jump(tag_58)\ntag_56:\n    /* \"node_modules/@openzeppelin/contracts/token/ERC20/ERC20.sol\":6548:6567  uint256 fromBalance */\n  0x00\n    /* \"node_modules/@openzeppelin/contracts/token/ERC20/ERC20.sol\":6570:6579  _balances */\n  dup1\n    /* \"node_modules/@openzeppelin/contracts/token/ERC20/ERC20.sol\":6570:6585  _balances[from] */\n  0x00\n    /* \"node_modules/@openzeppelin/contracts/token/ERC20/ERC20.sol\":6580:6584  from */\n  dup6\n    /* \"node_modules/@openzeppelin/contracts/token/ERC20/ERC20.sol\":6570:6585  _balances[from] */\n  0xffffffffffffffffffffffffffffffffffffffff\n  and\n  0xffffffffffffffffffffffffffffffffffffffff\n  and\n  dup2\n  mstore\n  0x20\n  add\n  swap1\n  dup2\n  mstore\n  0x20\n  add\n  0x00\n  keccak256\n  sload\n    /* \"node_modules/@openzeppelin/contracts/token/ERC20/ERC20.sol\":6548:6585  uint256 fromBalance = _balances[from] */\n  swap1\n  pop\n    /* \"node_modules/@openzeppelin/contracts/token/ERC20/ERC20.sol\":6617:6622  value */\n  dup2\n    /* \"node_modules/@openzeppelin/contracts/token/ERC20/ERC20.sol\":6603:6614  fromBalance */\n  dup2\n    /* \"node_modules/@openzeppelin/contracts/token/ERC20/ERC20.sol\":6603:6622  fromBalance < value */\n  lt\n    /* \"node_modules/@openzeppelin/contracts/token/ERC20/ERC20.sol\":6599:6714  if (fromBalance < value) {... */\n  iszero\n  tag_59\n  jumpi\n    /* \"node_modules/@openzeppelin/contracts/token/ERC20/ERC20.sol\":6674:6678  from */\n  dup4\n    /* \"node_modules/@openzeppelin/contracts/token/ERC20/ERC20.sol\":6680:6691  fromBalance */\n  dup2\n    /* \"node_modules/@openzeppelin/contracts/token/ERC20/ERC20.sol\":6693:6698  value */\n  dup4\n    /* \"node_modules/@openzeppelin/contracts/token/ERC20/ERC20.sol\":6649:6699  ERC20InsufficientBalance(from, fromBalance, value) */\n  mload(0x40)\n  0xe450d38c00000000000000000000000000000000000000000000000000000000\n  dup2\n  mstore\n  0x04\n  add\n  tag_60\n  swap4\n  swap3\n  swap2\n  swap1\n  tag_61\n  jump\t// in\ntag_60:\n  mload(0x40)\n  dup1\n  swap2\n  sub\n  swap1\n  revert\n    /* \"node_modules/@openzeppelin/contracts/token/ERC20/ERC20.sol\":6599:6714  if (fromBalance < value) {... */\ntag_59:\n    /* \"node_modules/@openzeppelin/contracts/token/ERC20/ERC20.sol\":6866:6871  value */\n  dup2\n    /* \"node_modules/@openzeppelin/contracts/token/ERC20/ERC20.sol\":6852:6863  fromBalance */\n  dup2\n    /* \"node_modules/@openzeppelin/contracts/token/ERC20/ERC20.sol\":6852:6871  fromBalance - value */\n  sub\n    /* \"node_modules/@openzeppelin/contracts/token/ERC20/ERC20.sol\":6834:6843  _balances */\n  0x00\n    /* \"node_modules/@openzeppelin/contracts/token/ERC20/ERC20.sol\":6834:6849  _balances[from] */\n  dup1\n    /* \"node_modules/@openzeppelin/contracts/token/ERC20/ERC20.sol\":6844:6848  from */\n  dup7\n    /* \"node_modules/@openzeppelin/contracts/token/ERC20/ERC20.sol\":6834:6849  _balances[from] */\n  0xffffffffffffffffffffffffffffffffffffffff\n  and\n  0xffffffffffffffffffffffffffffffffffffffff\n  and\n  dup2\n  mstore\n  0x20\n  add\n  swap1\n  dup2\n  mstore\n  0x20\n  add\n  0x00\n  keccak256\n    /* \"node_modules/@openzeppelin/contracts/token/ERC20/ERC20.sol\":6834:6871  _balances[from] = fromBalance - value */\n  dup2\n  swap1\n  sstore\n  pop\n    /* \"node_modules/@openzeppelin/contracts/token/ERC20/ERC20.sol\":6534:6896  {... */\n  pop\n    /* \"node_modules/@openzeppelin/contracts/token/ERC20/ERC20.sol\":6356:6896  if (from == address(0)) {... */\ntag_58:\n    /* \"node_modules/@openzeppelin/contracts/token/ERC20/ERC20.sol\":6924:6925  0 */\n  0x00\n    /* \"node_modules/@openzeppelin/contracts/token/ERC20/ERC20.sol\":6910:6926  to == address(0) */\n  0xffffffffffffffffffffffffffffffffffffffff\n  and\n    /* \"node_modules/@openzeppelin/contracts/token/ERC20/ERC20.sol\":6910:6912  to */\n  dup3\n    /* \"node_modules/@openzeppelin/contracts/token/ERC20/ERC20.sol\":6910:6926  to == address(0) */\n  0xffffffffffffffffffffffffffffffffffffffff\n  and\n  sub\n    /* \"node_modules/@openzeppelin/contracts/token/ERC20/ERC20.sol\":6906:7331  if (to == address(0)) {... */\n  tag_62\n  jumpi\n    /* \"node_modules/@openzeppelin/contracts/token/ERC20/ERC20.sol\":7089:7094  value */\n  dup1\n    /* \"node_modules/@openzeppelin/contracts/token/ERC20/ERC20.sol\":7073:7085  _totalSupply */\n  0x02\n  0x00\n    /* \"node_modules/@openzeppelin/contracts/token/ERC20/ERC20.sol\":7073:7094  _totalSupply -= value */\n  dup3\n  dup3\n  sload\n  sub\n  swap3\n  pop\n  pop\n  dup2\n  swap1\n  sstore\n  pop\n    /* \"node_modules/@openzeppelin/contracts/token/ERC20/ERC20.sol\":6906:7331  if (to == address(0)) {... */\n  jump(tag_63)\ntag_62:\n    /* \"node_modules/@openzeppelin/contracts/token/ERC20/ERC20.sol\":7301:7306  value */\n  dup1\n    /* \"node_modules/@openzeppelin/contracts/token/ERC20/ERC20.sol\":7284:7293  _balances */\n  0x00\n    /* \"node_modules/@openzeppelin/contracts/token/ERC20/ERC20.sol\":7284:7297  _balances[to] */\n  dup1\n    /* \"node_modules/@openzeppelin/contracts/token/ERC20/ERC20.sol\":7294:7296  to */\n  dup5\n    /* \"node_modules/@openzeppelin/contracts/token/ERC20/ERC20.sol\":7284:7297  _balances[to] */\n  0xffffffffffffffffffffffffffffffffffffffff\n  and\n  0xffffffffffffffffffffffffffffffffffffffff\n  and\n  dup2\n  mstore\n  0x20\n  add\n  swap1\n  dup2\n  mstore\n  0x20\n  add\n  0x00\n  keccak256\n  0x00\n    /* \"node_modules/@openzeppelin/contracts/token/ERC20/ERC20.sol\":7284:7306  _balances[to] += value */\n  dup3\n  dup3\n  sload\n  add\n  swap3\n  pop\n  pop\n  dup2\n  swap1\n  sstore\n  pop\n    /* \"node_modules/@openzeppelin/contracts/token/ERC20/ERC20.sol\":6906:7331  if (to == address(0)) {... */\ntag_63:\n    /* \"node_modules/@openzeppelin/contracts/token/ERC20/ERC20.sol\":7361:7363  to */\n  dup2\n    /* \"node_modules/@openzeppelin/contracts/token/ERC20/ERC20.sol\":7346:7371  Transfer(from, to, value) */\n  0xffffffffffffffffffffffffffffffffffffffff\n  and\n    /* \"node_modules/@openzeppelin/contracts/token/ERC20/ERC20.sol\":7355:7359  from */\n  dup4\n    /* \"node_modules/@openzeppelin/contracts/token/ERC20/ERC20.sol\":7346:7371  Transfer(from, to, value) */\n  0xffffffffffffffffffffffffffffffffffffffff\n  and\n  0xddf252ad1be2c89b69c2b068fc378daa952ba7f163c4a11628f55a4df523b3ef\n    /* \"node_modules/@openzeppelin/contracts/token/ERC20/ERC20.sol\":7365:7370  value */\n  dup4\n    /* \"node_modules/@openzeppelin/contracts/token/ERC20/ERC20.sol\":7346:7371  Transfer(from, to, value) */\n  mload(0x40)\n  tag_64\n  swap2\n  swap1\n  tag_65\n  jump\t// in\ntag_64:\n  mload(0x40)\n  dup1\n  swap2\n  sub\n  swap1\n  log3\n    /* \"node_modules/@openzeppelin/contracts/token/ERC20/ERC20.sol\":6271:7378  function _update(address from, address to, uint256 value) internal virtual {... */\n  pop\n  pop\n  pop\n  jump\t// out\n    /* \"#utility.yul\":7:82   */\ntag_66:\n    /* \"#utility.yul\":40:46   */\n  0x00\n    /* \"#utility.yul\":73:75   */\n  0x40\n    /* \"#utility.yul\":67:76   */\n  mload\n    /* \"#utility.yul\":57:76   */\n  swap1\n  pop\n    /* \"#utility.yul\":7:82   */\n  swap1\n  jump\t// out\n    /* \"#utility.yul\":88:205   */\ntag_67:\n    /* \"#utility.yul\":197:198   */\n  0x00\n    /* \"#utility.yul\":194:195   */\n  dup1\n    /* \"#utility.yul\":187:199   */\n  revert\n    /* \"#utility.yul\":211:328   */\ntag_68:\n    /* \"#utility.yul\":320:321   */\n  0x00\n    /* \"#utility.yul\":317:318   */\n  dup1\n    /* \"#utility.yul\":310:322   */\n  revert\n    /* \"#utility.yul\":334:460   */\ntag_69:\n    /* \"#utility.yul\":371:378   */\n  0x00\n    /* \"#utility.yul\":411:453   */\n  0xffffffffffffffffffffffffffffffffffffffff\n    /* \"#utility.yul\":404:409   */\n  dup3\n    /* \"#utility.yul\":400:454   */\n  and\n    /* \"#utility.yul\":389:454   */\n  swap1\n  pop\n    /* \"#utility.yul\":334:460   */\n  swap2\n  swap1\n  pop\n  jump\t// out\n    /* \"#utility.yul\":466:562   */\ntag_70:\n    /* \"#utility.yul\":503:510   */\n  0x00\n    /* \"#utility.yul\":532:556   */\n  tag_123\n    /* \"#utility.yul\":550:555   */\n  dup3\n    /* \"#utility.yul\":532:556   */\n  tag_69\n  jump\t// in\ntag_123:\n    /* \"#utility.yul\":521:556   */\n  swap1\n  pop\n    /* \"#utility.yul\":466:562   */\n  swap2\n  swap1\n  pop\n  jump\t// out\n    /* \"#utility.yul\":568:690   */\ntag_71:\n    /* \"#utility.yul\":641:665   */\n  tag_125\n    /* \"#utility.yul\":659:664   */\n  dup2\n    /* \"#utility.yul\":641:665   */\n  tag_70\n  jump\t// in\ntag_125:\n    /* \"#utility.yul\":634:639   */\n  dup2\n    /* \"#utility.yul\":631:666   */\n  eq\n    /* \"#utility.yul\":621:684   */\n  tag_126\n  jumpi\n    /* \"#utility.yul\":680:681   */\n  0x00\n    /* \"#utility.yul\":677:678   */\n  dup1\n    /* \"#utility.yul\":670:682   */\n  revert\n    /* \"#utility.yul\":621:684   */\ntag_126:\n    /* \"#utility.yul\":568:690   */\n  pop\n  jump\t// out\n    /* \"#utility.yul\":696:839   */\ntag_72:\n    /* \"#utility.yul\":753:758   */\n  0x00\n    /* \"#utility.yul\":784:790   */\n  dup2\n    /* \"#utility.yul\":778:791   */\n  mload\n    /* \"#utility.yul\":769:791   */\n  swap1\n  pop\n    /* \"#utility.yul\":800:833   */\n  tag_128\n    /* \"#utility.yul\":827:832   */\n  dup2\n    /* \"#utility.yul\":800:833   */\n  tag_71\n  jump\t// in\ntag_128:\n    /* \"#utility.yul\":696:839   */\n  swap3\n  swap2\n  pop\n  pop\n  jump\t// out\n    /* \"#utility.yul\":845:962   */\ntag_73:\n    /* \"#utility.yul\":954:955   */\n  0x00\n    /* \"#utility.yul\":951:952   */\n  dup1\n    /* \"#utility.yul\":944:956   */\n  revert\n    /* \"#utility.yul\":968:1085   */\ntag_74:\n    /* \"#utility.yul\":1077:1078   */\n  0x00\n    /* \"#utility.yul\":1074:1075   */\n  dup1\n    /* \"#utility.yul\":1067:1079   */\n  revert\n    /* \"#utility.yul\":1091:1193   */\ntag_75:\n    /* \"#utility.yul\":1132:1138   */\n  0x00\n    /* \"#utility.yul\":1183:1185   */\n  0x1f\n    /* \"#utility.yul\":1179:1186   */\n  not\n    /* \"#utility.yul\":1174:1176   */\n  0x1f\n    /* \"#utility.yul\":1167:1172   */\n  dup4\n    /* \"#utility.yul\":1163:1177   */\n  add\n    /* \"#utility.yul\":1159:1187   */\n  and\n    /* \"#utility.yul\":1149:1187   */\n  swap1\n  pop\n    /* \"#utility.yul\":1091:1193   */\n  swap2\n  swap1\n  pop\n  jump\t// out\n    /* \"#utility.yul\":1199:1379   */\ntag_76:\n    /* \"#utility.yul\":1247:1324   */\n  0x4e487b7100000000000000000000000000000000000000000000000000000000\n    /* \"#utility.yul\":1244:1245   */\n  0x00\n    /* \"#utility.yul\":1237:1325   */\n  mstore\n    /* \"#utility.yul\":1344:1348   */\n  0x41\n    /* \"#utility.yul\":1341:1342   */\n  0x04\n    /* \"#utility.yul\":1334:1349   */\n  mstore\n    /* \"#utility.yul\":1368:1372   */\n  0x24\n    /* \"#utility.yul\":1365:1366   */\n  0x00\n    /* \"#utility.yul\":1358:1373   */\n  revert\n    /* \"#utility.yul\":1385:1666   */\ntag_77:\n    /* \"#utility.yul\":1468:1495   */\n  tag_134\n    /* \"#utility.yul\":1490:1494   */\n  dup3\n    /* \"#utility.yul\":1468:1495   */\n  tag_75\n  jump\t// in\ntag_134:\n    /* \"#utility.yul\":1460:1466   */\n  dup2\n    /* \"#utility.yul\":1456:1496   */\n  add\n    /* \"#utility.yul\":1598:1604   */\n  dup2\n    /* \"#utility.yul\":1586:1596   */\n  dup2\n    /* \"#utility.yul\":1583:1605   */\n  lt\n    /* \"#utility.yul\":1562:1580   */\n  0xffffffffffffffff\n    /* \"#utility.yul\":1550:1560   */\n  dup3\n    /* \"#utility.yul\":1547:1581   */\n  gt\n    /* \"#utility.yul\":1544:1606   */\n  or\n    /* \"#utility.yul\":1541:1629   */\n  iszero\n  tag_135\n  jumpi\n    /* \"#utility.yul\":1609:1627   */\n  tag_136\n  tag_76\n  jump\t// in\ntag_136:\n    /* \"#utility.yul\":1541:1629   */\ntag_135:\n    /* \"#utility.yul\":1649:1659   */\n  dup1\n    /* \"#utility.yul\":1645:1647   */\n  0x40\n    /* \"#utility.yul\":1638:1660   */\n  mstore\n    /* \"#utility.yul\":1428:1666   */\n  pop\n    /* \"#utility.yul\":1385:1666   */\n  pop\n  pop\n  jump\t// out\n    /* \"#utility.yul\":1672:1801   */\ntag_78:\n    /* \"#utility.yul\":1706:1712   */\n  0x00\n    /* \"#utility.yul\":1733:1753   */\n  tag_138\n  tag_66\n  jump\t// in\ntag_138:\n    /* \"#utility.yul\":1723:1753   */\n  swap1\n  pop\n    /* \"#utility.yul\":1762:1795   */\n  tag_139\n    /* \"#utility.yul\":1790:1794   */\n  dup3\n    /* \"#utility.yul\":1782:1788   */\n  dup3\n    /* \"#utility.yul\":1762:1795   */\n  tag_77\n  jump\t// in\ntag_139:\n    /* \"#utility.yul\":1672:1801   */\n  swap2\n  swap1\n  pop\n  jump\t// out\n    /* \"#utility.yul\":1807:2115   */\ntag_79:\n    /* \"#utility.yul\":1869:1873   */\n  0x00\n    /* \"#utility.yul\":1959:1977   */\n  0xffffffffffffffff\n    /* \"#utility.yul\":1951:1957   */\n  dup3\n    /* \"#utility.yul\":1948:1978   */\n  gt\n    /* \"#utility.yul\":1945:2001   */\n  iszero\n  tag_141\n  jumpi\n    /* \"#utility.yul\":1981:1999   */\n  tag_142\n  tag_76\n  jump\t// in\ntag_142:\n    /* \"#utility.yul\":1945:2001   */\ntag_141:\n    /* \"#utility.yul\":2019:2048   */\n  tag_143\n    /* \"#utility.yul\":2041:2047   */\n  dup3\n    /* \"#utility.yul\":2019:2048   */\n  tag_75\n  jump\t// in\ntag_143:\n    /* \"#utility.yul\":2011:2048   */\n  swap1\n  pop\n    /* \"#utility.yul\":2103:2107   */\n  0x20\n    /* \"#utility.yul\":2097:2101   */\n  dup2\n    /* \"#utility.yul\":2093:2108   */\n  add\n    /* \"#utility.yul\":2085:2108   */\n  swap1\n  pop\n    /* \"#utility.yul\":1807:2115   */\n  swap2\n  swap1\n  pop\n  jump\t// out\n    /* \"#utility.yul\":2121:2367   */\ntag_80:\n    /* \"#utility.yul\":2202:2203   */\n  0x00\n    /* \"#utility.yul\":2212:2325   */\ntag_145:\n    /* \"#utility.yul\":2226:2232   */\n  dup4\n    /* \"#utility.yul\":2223:2224   */\n  dup2\n    /* \"#utility.yul\":2220:2233   */\n  lt\n    /* \"#utility.yul\":2212:2325   */\n  iszero\n  tag_147\n  jumpi\n    /* \"#utility.yul\":2311:2312   */\n  dup1\n    /* \"#utility.yul\":2306:2309   */\n  dup3\n    /* \"#utility.yul\":2302:2313   */\n  add\n    /* \"#utility.yul\":2296:2314   */\n  mload\n    /* \"#utility.yul\":2292:2293   */\n  dup2\n    /* \"#utility.yul\":2287:2290   */\n  dup5\n    /* \"#utility.yul\":2283:2294   */\n  add\n    /* \"#utility.yul\":2276:2315   */\n  mstore\n    /* \"#utility.yul\":2248:2250   */\n  0x20\n    /* \"#utility.yul\":2245:2246   */\n  dup2\n    /* \"#utility.yul\":2241:2251   */\n  add\n    /* \"#utility.yul\":2236:2251   */\n  swap1\n  pop\n    /* \"#utility.yul\":2212:2325   */\n  jump(tag_145)\ntag_147:\n    /* \"#utility.yul\":2359:2360   */\n  0x00\n    /* \"#utility.yul\":2350:2356   */\n  dup5\n    /* \"#utility.yul\":2345:2348   */\n  dup5\n    /* \"#utility.yul\":2341:2357   */\n  add\n    /* \"#utility.yul\":2334:2361   */\n  mstore\n    /* \"#utility.yul\":2183:2367   */\n  pop\n    /* \"#utility.yul\":2121:2367   */\n  pop\n  pop\n  pop\n  jump\t// out\n    /* \"#utility.yul\":2373:2807   */\ntag_81:\n    /* \"#utility.yul\":2462:2467   */\n  0x00\n    /* \"#utility.yul\":2487:2553   */\n  tag_149\n    /* \"#utility.yul\":2503:2552   */\n  tag_150\n    /* \"#utility.yul\":2545:2551   */\n  dup5\n    /* \"#utility.yul\":2503:2552   */\n  tag_79\n  jump\t// in\ntag_150:\n    /* \"#utility.yul\":2487:2553   */\n  tag_78\n  jump\t// in\ntag_149:\n    /* \"#utility.yul\":2478:2553   */\n  swap1\n  pop\n    /* \"#utility.yul\":2576:2582   */\n  dup3\n    /* \"#utility.yul\":2569:2574   */\n  dup2\n    /* \"#utility.yul\":2562:2583   */\n  mstore\n    /* \"#utility.yul\":2614:2618   */\n  0x20\n    /* \"#utility.yul\":2607:2612   */\n  dup2\n    /* \"#utility.yul\":2603:2619   */\n  add\n    /* \"#utility.yul\":2652:2655   */\n  dup5\n    /* \"#utility.yul\":2643:2649   */\n  dup5\n    /* \"#utility.yul\":2638:2641   */\n  dup5\n    /* \"#utility.yul\":2634:2650   */\n  add\n    /* \"#utility.yul\":2631:2656   */\n  gt\n    /* \"#utility.yul\":2628:2740   */\n  iszero\n  tag_151\n  jumpi\n    /* \"#utility.yul\":2659:2738   */\n  tag_152\n  tag_74\n  jump\t// in\ntag_152:\n    /* \"#utility.yul\":2628:2740   */\ntag_151:\n    /* \"#utility.yul\":2749:2801   */\n  tag_153\n    /* \"#utility.yul\":2794:2800   */\n  dup5\n    /* \"#utility.yul\":2789:2792   */\n  dup3\n    /* \"#utility.yul\":2784:2787   */\n  dup6\n    /* \"#utility.yul\":2749:2801   */\n  tag_80\n  jump\t// in\ntag_153:\n    /* \"#utility.yul\":2468:2807   */\n  pop\n    /* \"#utility.yul\":2373:2807   */\n  swap4\n  swap3\n  pop\n  pop\n  pop\n  jump\t// out\n    /* \"#utility.yul\":2827:3182   */\ntag_82:\n    /* \"#utility.yul\":2894:2899   */\n  0x00\n    /* \"#utility.yul\":2943:2946   */\n  dup3\n    /* \"#utility.yul\":2936:2940   */\n  0x1f\n    /* \"#utility.yul\":2928:2934   */\n  dup4\n    /* \"#utility.yul\":2924:2941   */\n  add\n    /* \"#utility.yul\":2920:2947   */\n  slt\n    /* \"#utility.yul\":2910:3032   */\n  tag_155\n  jumpi\n    /* \"#utility.yul\":2951:3030   */\n  tag_156\n  tag_73\n  jump\t// in\ntag_156:\n    /* \"#utility.yul\":2910:3032   */\ntag_155:\n    /* \"#utility.yul\":3061:3067   */\n  dup2\n    /* \"#utility.yul\":3055:3068   */\n  mload\n    /* \"#utility.yul\":3086:3176   */\n  tag_157\n    /* \"#utility.yul\":3172:3175   */\n  dup5\n    /* \"#utility.yul\":3164:3170   */\n  dup3\n    /* \"#utility.yul\":3157:3161   */\n  0x20\n    /* \"#utility.yul\":3149:3155   */\n  dup7\n    /* \"#utility.yul\":3145:3162   */\n  add\n    /* \"#utility.yul\":3086:3176   */\n  tag_81\n  jump\t// in\ntag_157:\n    /* \"#utility.yul\":3077:3176   */\n  swap2\n  pop\n    /* \"#utility.yul\":2900:3182   */\n  pop\n    /* \"#utility.yul\":2827:3182   */\n  swap3\n  swap2\n  pop\n  pop\n  jump\t// out\n    /* \"#utility.yul\":3188:3265   */\ntag_83:\n    /* \"#utility.yul\":3225:3232   */\n  0x00\n    /* \"#utility.yul\":3254:3259   */\n  dup2\n    /* \"#utility.yul\":3243:3259   */\n  swap1\n  pop\n    /* \"#utility.yul\":3188:3265   */\n  swap2\n  swap1\n  pop\n  jump\t// out\n    /* \"#utility.yul\":3271:3393   */\ntag_84:\n    /* \"#utility.yul\":3344:3368   */\n  tag_160\n    /* \"#utility.yul\":3362:3367   */\n  dup2\n    /* \"#utility.yul\":3344:3368   */\n  tag_83\n  jump\t// in\ntag_160:\n    /* \"#utility.yul\":3337:3342   */\n  dup2\n    /* \"#utility.yul\":3334:3369   */\n  eq\n    /* \"#utility.yul\":3324:3387   */\n  tag_161\n  jumpi\n    /* \"#utility.yul\":3383:3384   */\n  0x00\n    /* \"#utility.yul\":3380:3381   */\n  dup1\n    /* \"#utility.yul\":3373:3385   */\n  revert\n    /* \"#utility.yul\":3324:3387   */\ntag_161:\n    /* \"#utility.yul\":3271:3393   */\n  pop\n  jump\t// out\n    /* \"#utility.yul\":3399:3542   */\ntag_85:\n    /* \"#utility.yul\":3456:3461   */\n  0x00\n    /* \"#utility.yul\":3487:3493   */\n  dup2\n    /* \"#utility.yul\":3481:3494   */\n  mload\n    /* \"#utility.yul\":3472:3494   */\n  swap1\n  pop\n    /* \"#utility.yul\":3503:3536   */\n  tag_163\n    /* \"#utility.yul\":3530:3535   */\n  dup2\n    /* \"#utility.yul\":3503:3536   */\n  tag_84\n  jump\t// in\ntag_163:\n    /* \"#utility.yul\":3399:3542   */\n  swap3\n  swap2\n  pop\n  pop\n  jump\t// out\n    /* \"#utility.yul\":3548:3859   */\ntag_86:\n    /* \"#utility.yul\":3625:3629   */\n  0x00\n    /* \"#utility.yul\":3715:3733   */\n  0xffffffffffffffff\n    /* \"#utility.yul\":3707:3713   */\n  dup3\n    /* \"#utility.yul\":3704:3734   */\n  gt\n    /* \"#utility.yul\":3701:3757   */\n  iszero\n  tag_165\n  jumpi\n    /* \"#utility.yul\":3737:3755   */\n  tag_166\n  tag_76\n  jump\t// in\ntag_166:\n    /* \"#utility.yul\":3701:3757   */\ntag_165:\n    /* \"#utility.yul\":3787:3791   */\n  0x20\n    /* \"#utility.yul\":3779:3785   */\n  dup3\n    /* \"#utility.yul\":3775:3792   */\n  mul\n    /* \"#utility.yul\":3767:3792   */\n  swap1\n  pop\n    /* \"#utility.yul\":3847:3851   */\n  0x20\n    /* \"#utility.yul\":3841:3845   */\n  dup2\n    /* \"#utility.yul\":3837:3852   */\n  add\n    /* \"#utility.yul\":3829:3852   */\n  swap1\n  pop\n    /* \"#utility.yul\":3548:3859   */\n  swap2\n  swap1\n  pop\n  jump\t// out\n    /* \"#utility.yul\":3865:3982   */\ntag_87:\n    /* \"#utility.yul\":3974:3975   */\n  0x00\n    /* \"#utility.yul\":3971:3972   */\n  dup1\n    /* \"#utility.yul\":3964:3976   */\n  revert\n    /* \"#utility.yul\":4005:4737   */\ntag_88:\n    /* \"#utility.yul\":4112:4117   */\n  0x00\n    /* \"#utility.yul\":4137:4218   */\n  tag_169\n    /* \"#utility.yul\":4153:4217   */\n  tag_170\n    /* \"#utility.yul\":4210:4216   */\n  dup5\n    /* \"#utility.yul\":4153:4217   */\n  tag_86\n  jump\t// in\ntag_170:\n    /* \"#utility.yul\":4137:4218   */\n  tag_78\n  jump\t// in\ntag_169:\n    /* \"#utility.yul\":4128:4218   */\n  swap1\n  pop\n    /* \"#utility.yul\":4238:4243   */\n  dup1\n    /* \"#utility.yul\":4267:4273   */\n  dup4\n    /* \"#utility.yul\":4260:4265   */\n  dup3\n    /* \"#utility.yul\":4253:4274   */\n  mstore\n    /* \"#utility.yul\":4301:4305   */\n  0x20\n    /* \"#utility.yul\":4294:4299   */\n  dup3\n    /* \"#utility.yul\":4290:4306   */\n  add\n    /* \"#utility.yul\":4283:4306   */\n  swap1\n  pop\n    /* \"#utility.yul\":4354:4358   */\n  0x20\n    /* \"#utility.yul\":4346:4352   */\n  dup5\n    /* \"#utility.yul\":4342:4359   */\n  mul\n    /* \"#utility.yul\":4334:4340   */\n  dup4\n    /* \"#utility.yul\":4330:4360   */\n  add\n    /* \"#utility.yul\":4383:4386   */\n  dup6\n    /* \"#utility.yul\":4375:4381   */\n  dup2\n    /* \"#utility.yul\":4372:4387   */\n  gt\n    /* \"#utility.yul\":4369:4491   */\n  iszero\n  tag_171\n  jumpi\n    /* \"#utility.yul\":4402:4481   */\n  tag_172\n  tag_87\n  jump\t// in\ntag_172:\n    /* \"#utility.yul\":4369:4491   */\ntag_171:\n    /* \"#utility.yul\":4517:4523   */\n  dup4\n    /* \"#utility.yul\":4500:4731   */\ntag_173:\n    /* \"#utility.yul\":4534:4540   */\n  dup2\n    /* \"#utility.yul\":4529:4532   */\n  dup2\n    /* \"#utility.yul\":4526:4541   */\n  lt\n    /* \"#utility.yul\":4500:4731   */\n  iszero\n  tag_175\n  jumpi\n    /* \"#utility.yul\":4609:4612   */\n  dup1\n    /* \"#utility.yul\":4638:4686   */\n  tag_176\n    /* \"#utility.yul\":4682:4685   */\n  dup9\n    /* \"#utility.yul\":4670:4680   */\n  dup3\n    /* \"#utility.yul\":4638:4686   */\n  tag_72\n  jump\t// in\ntag_176:\n    /* \"#utility.yul\":4633:4636   */\n  dup5\n    /* \"#utility.yul\":4626:4687   */\n  mstore\n    /* \"#utility.yul\":4716:4720   */\n  0x20\n    /* \"#utility.yul\":4711:4714   */\n  dup5\n    /* \"#utility.yul\":4707:4721   */\n  add\n    /* \"#utility.yul\":4700:4721   */\n  swap4\n  pop\n    /* \"#utility.yul\":4576:4731   */\n  pop\n    /* \"#utility.yul\":4560:4564   */\n  0x20\n    /* \"#utility.yul\":4555:4558   */\n  dup2\n    /* \"#utility.yul\":4551:4565   */\n  add\n    /* \"#utility.yul\":4544:4565   */\n  swap1\n  pop\n    /* \"#utility.yul\":4500:4731   */\n  jump(tag_173)\ntag_175:\n    /* \"#utility.yul\":4504:4525   */\n  pop\n    /* \"#utility.yul\":4118:4737   */\n  pop\n  pop\n    /* \"#utility.yul\":4005:4737   */\n  swap4\n  swap3\n  pop\n  pop\n  pop\n  jump\t// out\n    /* \"#utility.yul\":4760:5145   */\ntag_89:\n    /* \"#utility.yul\":4842:4847   */\n  0x00\n    /* \"#utility.yul\":4891:4894   */\n  dup3\n    /* \"#utility.yul\":4884:4888   */\n  0x1f\n    /* \"#utility.yul\":4876:4882   */\n  dup4\n    /* \"#utility.yul\":4872:4889   */\n  add\n    /* \"#utility.yul\":4868:4895   */\n  slt\n    /* \"#utility.yul\":4858:4980   */\n  tag_178\n  jumpi\n    /* \"#utility.yul\":4899:4978   */\n  tag_179\n  tag_73\n  jump\t// in\ntag_179:\n    /* \"#utility.yul\":4858:4980   */\ntag_178:\n    /* \"#utility.yul\":5009:5015   */\n  dup2\n    /* \"#utility.yul\":5003:5016   */\n  mload\n    /* \"#utility.yul\":5034:5139   */\n  tag_180\n    /* \"#utility.yul\":5135:5138   */\n  dup5\n    /* \"#utility.yul\":5127:5133   */\n  dup3\n    /* \"#utility.yul\":5120:5124   */\n  0x20\n    /* \"#utility.yul\":5112:5118   */\n  dup7\n    /* \"#utility.yul\":5108:5125   */\n  add\n    /* \"#utility.yul\":5034:5139   */\n  tag_88\n  jump\t// in\ntag_180:\n    /* \"#utility.yul\":5025:5139   */\n  swap2\n  pop\n    /* \"#utility.yul\":4848:5145   */\n  pop\n    /* \"#utility.yul\":4760:5145   */\n  swap3\n  swap2\n  pop\n  pop\n  jump\t// out\n    /* \"#utility.yul\":5151:5462   */\ntag_90:\n    /* \"#utility.yul\":5228:5232   */\n  0x00\n    /* \"#utility.yul\":5318:5336   */\n  0xffffffffffffffff\n    /* \"#utility.yul\":5310:5316   */\n  dup3\n    /* \"#utility.yul\":5307:5337   */\n  gt\n    /* \"#utility.yul\":5304:5360   */\n  iszero\n  tag_182\n  jumpi\n    /* \"#utility.yul\":5340:5358   */\n  tag_183\n  tag_76\n  jump\t// in\ntag_183:\n    /* \"#utility.yul\":5304:5360   */\ntag_182:\n    /* \"#utility.yul\":5390:5394   */\n  0x20\n    /* \"#utility.yul\":5382:5388   */\n  dup3\n    /* \"#utility.yul\":5378:5395   */\n  mul\n    /* \"#utility.yul\":5370:5395   */\n  swap1\n  pop\n    /* \"#utility.yul\":5450:5454   */\n  0x20\n    /* \"#utility.yul\":5444:5448   */\n  dup2\n    /* \"#utility.yul\":5440:5455   */\n  add\n    /* \"#utility.yul\":5432:5455   */\n  swap1\n  pop\n    /* \"#utility.yul\":5151:5462   */\n  swap2\n  swap1\n  pop\n  jump\t// out\n    /* \"#utility.yul\":5485:6217   */\ntag_91:\n    /* \"#utility.yul\":5592:5597   */\n  0x00\n    /* \"#utility.yul\":5617:5698   */\n  tag_185\n    /* \"#utility.yul\":5633:5697   */\n  tag_186\n    /* \"#utility.yul\":5690:5696   */\n  dup5\n    /* \"#utility.yul\":5633:5697   */\n  tag_90\n  jump\t// in\ntag_186:\n    /* \"#utility.yul\":5617:5698   */\n  tag_78\n  jump\t// in\ntag_185:\n    /* \"#utility.yul\":5608:5698   */\n  swap1\n  pop\n    /* \"#utility.yul\":5718:5723   */\n  dup1\n    /* \"#utility.yul\":5747:5753   */\n  dup4\n    /* \"#utility.yul\":5740:5745   */\n  dup3\n    /* \"#utility.yul\":5733:5754   */\n  mstore\n    /* \"#utility.yul\":5781:5785   */\n  0x20\n    /* \"#utility.yul\":5774:5779   */\n  dup3\n    /* \"#utility.yul\":5770:5786   */\n  add\n    /* \"#utility.yul\":5763:5786   */\n  swap1\n  pop\n    /* \"#utility.yul\":5834:5838   */\n  0x20\n    /* \"#utility.yul\":5826:5832   */\n  dup5\n    /* \"#utility.yul\":5822:5839   */\n  mul\n    /* \"#utility.yul\":5814:5820   */\n  dup4\n    /* \"#utility.yul\":5810:5840   */\n  add\n    /* \"#utility.yul\":5863:5866   */\n  dup6\n    /* \"#utility.yul\":5855:5861   */\n  dup2\n    /* \"#utility.yul\":5852:5867   */\n  gt\n    /* \"#utility.yul\":5849:5971   */\n  iszero\n  tag_187\n  jumpi\n    /* \"#utility.yul\":5882:5961   */\n  tag_188\n  tag_87\n  jump\t// in\ntag_188:\n    /* \"#utility.yul\":5849:5971   */\ntag_187:\n    /* \"#utility.yul\":5997:6003   */\n  dup4\n    /* \"#utility.yul\":5980:6211   */\ntag_189:\n    /* \"#utility.yul\":6014:6020   */\n  dup2\n    /* \"#utility.yul\":6009:6012   */\n  dup2\n    /* \"#utility.yul\":6006:6021   */\n  lt\n    /* \"#utility.yul\":5980:6211   */\n  iszero\n  tag_191\n  jumpi\n    /* \"#utility.yul\":6089:6092   */\n  dup1\n    /* \"#utility.yul\":6118:6166   */\n  tag_192\n    /* \"#utility.yul\":6162:6165   */\n  dup9\n    /* \"#utility.yul\":6150:6160   */\n  dup3\n    /* \"#utility.yul\":6118:6166   */\n  tag_85\n  jump\t// in\ntag_192:\n    /* \"#utility.yul\":6113:6116   */\n  dup5\n    /* \"#utility.yul\":6106:6167   */\n  mstore\n    /* \"#utility.yul\":6196:6200   */\n  0x20\n    /* \"#utility.yul\":6191:6194   */\n  dup5\n    /* \"#utility.yul\":6187:6201   */\n  add\n    /* \"#utility.yul\":6180:6201   */\n  swap4\n  pop\n    /* \"#utility.yul\":6056:6211   */\n  pop\n    /* \"#utility.yul\":6040:6044   */\n  0x20\n    /* \"#utility.yul\":6035:6038   */\n  dup2\n    /* \"#utility.yul\":6031:6045   */\n  add\n    /* \"#utility.yul\":6024:6045   */\n  swap1\n  pop\n    /* \"#utility.yul\":5980:6211   */\n  jump(tag_189)\ntag_191:\n    /* \"#utility.yul\":5984:6005   */\n  pop\n    /* \"#utility.yul\":5598:6217   */\n  pop\n  pop\n    /* \"#utility.yul\":5485:6217   */\n  swap4\n  swap3\n  pop\n  pop\n  pop\n  jump\t// out\n    /* \"#utility.yul\":6240:6625   */\ntag_92:\n    /* \"#utility.yul\":6322:6327   */\n  0x00\n    /* \"#utility.yul\":6371:6374   */\n  dup3\n    /* \"#utility.yul\":6364:6368   */\n  0x1f\n    /* \"#utility.yul\":6356:6362   */\n  dup4\n    /* \"#utility.yul\":6352:6369   */\n  add\n    /* \"#utility.yul\":6348:6375   */\n  slt\n    /* \"#utility.yul\":6338:6460   */\n  tag_194\n  jumpi\n    /* \"#utility.yul\":6379:6458   */\n  tag_195\n  tag_73\n  jump\t// in\ntag_195:\n    /* \"#utility.yul\":6338:6460   */\ntag_194:\n    /* \"#utility.yul\":6489:6495   */\n  dup2\n    /* \"#utility.yul\":6483:6496   */\n  mload\n    /* \"#utility.yul\":6514:6619   */\n  tag_196\n    /* \"#utility.yul\":6615:6618   */\n  dup5\n    /* \"#utility.yul\":6607:6613   */\n  dup3\n    /* \"#utility.yul\":6600:6604   */\n  0x20\n    /* \"#utility.yul\":6592:6598   */\n  dup7\n    /* \"#utility.yul\":6588:6605   */\n  add\n    /* \"#utility.yul\":6514:6619   */\n  tag_91\n  jump\t// in\ntag_196:\n    /* \"#utility.yul\":6505:6619   */\n  swap2\n  pop\n    /* \"#utility.yul\":6328:6625   */\n  pop\n    /* \"#utility.yul\":6240:6625   */\n  swap3\n  swap2\n  pop\n  pop\n  jump\t// out\n    /* \"#utility.yul\":6631:9004   */\ntag_3:\n    /* \"#utility.yul\":6844:6850   */\n  0x00\n    /* \"#utility.yul\":6852:6858   */\n  dup1\n    /* \"#utility.yul\":6860:6866   */\n  0x00\n    /* \"#utility.yul\":6868:6874   */\n  dup1\n    /* \"#utility.yul\":6876:6882   */\n  0x00\n    /* \"#utility.yul\":6884:6890   */\n  dup1\n    /* \"#utility.yul\":6892:6898   */\n  0x00\n    /* \"#utility.yul\":6900:6906   */\n  dup1\n    /* \"#utility.yul\":6949:6952   */\n  0x0100\n    /* \"#utility.yul\":6937:6946   */\n  dup10\n    /* \"#utility.yul\":6928:6935   */\n  dup12\n    /* \"#utility.yul\":6924:6947   */\n  sub\n    /* \"#utility.yul\":6920:6953   */\n  slt\n    /* \"#utility.yul\":6917:7037   */\n  iszero\n  tag_198\n  jumpi\n    /* \"#utility.yul\":6956:7035   */\n  tag_199\n  tag_67\n  jump\t// in\ntag_199:\n    /* \"#utility.yul\":6917:7037   */\ntag_198:\n    /* \"#utility.yul\":7076:7077   */\n  0x00\n    /* \"#utility.yul\":7101:7165   */\n  tag_200\n    /* \"#utility.yul\":7157:7164   */\n  dup12\n    /* \"#utility.yul\":7148:7154   */\n  dup3\n    /* \"#utility.yul\":7137:7146   */\n  dup13\n    /* \"#utility.yul\":7133:7155   */\n  add\n    /* \"#utility.yul\":7101:7165   */\n  tag_72\n  jump\t// in\ntag_200:\n    /* \"#utility.yul\":7091:7165   */\n  swap9\n  pop\n    /* \"#utility.yul\":7047:7175   */\n  pop\n    /* \"#utility.yul\":7235:7237   */\n  0x20\n    /* \"#utility.yul\":7224:7233   */\n  dup10\n    /* \"#utility.yul\":7220:7238   */\n  add\n    /* \"#utility.yul\":7214:7239   */\n  mload\n    /* \"#utility.yul\":7266:7284   */\n  0xffffffffffffffff\n    /* \"#utility.yul\":7258:7264   */\n  dup2\n    /* \"#utility.yul\":7255:7285   */\n  gt\n    /* \"#utility.yul\":7252:7369   */\n  iszero\n  tag_201\n  jumpi\n    /* \"#utility.yul\":7288:7367   */\n  tag_202\n  tag_68\n  jump\t// in\ntag_202:\n    /* \"#utility.yul\":7252:7369   */\ntag_201:\n    /* \"#utility.yul\":7393:7467   */\n  tag_203\n    /* \"#utility.yul\":7459:7466   */\n  dup12\n    /* \"#utility.yul\":7450:7456   */\n  dup3\n    /* \"#utility.yul\":7439:7448   */\n  dup13\n    /* \"#utility.yul\":7435:7457   */\n  add\n    /* \"#utility.yul\":7393:7467   */\n  tag_82\n  jump\t// in\ntag_203:\n    /* \"#utility.yul\":7383:7467   */\n  swap8\n  pop\n    /* \"#utility.yul\":7185:7477   */\n  pop\n    /* \"#utility.yul\":7537:7539   */\n  0x40\n    /* \"#utility.yul\":7526:7535   */\n  dup10\n    /* \"#utility.yul\":7522:7540   */\n  add\n    /* \"#utility.yul\":7516:7541   */\n  mload\n    /* \"#utility.yul\":7568:7586   */\n  0xffffffffffffffff\n    /* \"#utility.yul\":7560:7566   */\n  dup2\n    /* \"#utility.yul\":7557:7587   */\n  gt\n    /* \"#utility.yul\":7554:7671   */\n  iszero\n  tag_204\n  jumpi\n    /* \"#utility.yul\":7590:7669   */\n  tag_205\n  tag_68\n  jump\t// in\ntag_205:\n    /* \"#utility.yul\":7554:7671   */\ntag_204:\n    /* \"#utility.yul\":7695:7769   */\n  tag_206\n    /* \"#utility.yul\":7761:7768   */\n  dup12\n    /* \"#utility.yul\":7752:7758   */\n  dup3\n    /* \"#utility.yul\":7741:7750   */\n  dup13\n    /* \"#utility.yul\":7737:7759   */\n  add\n    /* \"#utility.yul\":7695:7769   */\n  tag_82\n  jump\t// in\ntag_206:\n    /* \"#utility.yul\":7685:7769   */\n  swap7\n  pop\n    /* \"#utility.yul\":7487:7779   */\n  pop\n    /* \"#utility.yul\":7818:7820   */\n  0x60\n    /* \"#utility.yul\":7844:7908   */\n  tag_207\n    /* \"#utility.yul\":7900:7907   */\n  dup12\n    /* \"#utility.yul\":7891:7897   */\n  dup3\n    /* \"#utility.yul\":7880:7889   */\n  dup13\n    /* \"#utility.yul\":7876:7898   */\n  add\n    /* \"#utility.yul\":7844:7908   */\n  tag_85\n  jump\t// in\ntag_207:\n    /* \"#utility.yul\":7834:7908   */\n  swap6\n  pop\n    /* \"#utility.yul\":7789:7918   */\n  pop\n    /* \"#utility.yul\":7978:7981   */\n  0x80\n    /* \"#utility.yul\":7967:7976   */\n  dup10\n    /* \"#utility.yul\":7963:7982   */\n  add\n    /* \"#utility.yul\":7957:7983   */\n  mload\n    /* \"#utility.yul\":8010:8028   */\n  0xffffffffffffffff\n    /* \"#utility.yul\":8002:8008   */\n  dup2\n    /* \"#utility.yul\":7999:8029   */\n  gt\n    /* \"#utility.yul\":7996:8113   */\n  iszero\n  tag_208\n  jumpi\n    /* \"#utility.yul\":8032:8111   */\n  tag_209\n  tag_68\n  jump\t// in\ntag_209:\n    /* \"#utility.yul\":7996:8113   */\ntag_208:\n    /* \"#utility.yul\":8137:8226   */\n  tag_210\n    /* \"#utility.yul\":8218:8225   */\n  dup12\n    /* \"#utility.yul\":8209:8215   */\n  dup3\n    /* \"#utility.yul\":8198:8207   */\n  dup13\n    /* \"#utility.yul\":8194:8216   */\n  add\n    /* \"#utility.yul\":8137:8226   */\n  tag_89\n  jump\t// in\ntag_210:\n    /* \"#utility.yul\":8127:8226   */\n  swap5\n  pop\n    /* \"#utility.yul\":7928:8236   */\n  pop\n    /* \"#utility.yul\":8296:8299   */\n  0xa0\n    /* \"#utility.yul\":8285:8294   */\n  dup10\n    /* \"#utility.yul\":8281:8300   */\n  add\n    /* \"#utility.yul\":8275:8301   */\n  mload\n    /* \"#utility.yul\":8328:8346   */\n  0xffffffffffffffff\n    /* \"#utility.yul\":8320:8326   */\n  dup2\n    /* \"#utility.yul\":8317:8347   */\n  gt\n    /* \"#utility.yul\":8314:8431   */\n  iszero\n  tag_211\n  jumpi\n    /* \"#utility.yul\":8350:8429   */\n  tag_212\n  tag_68\n  jump\t// in\ntag_212:\n    /* \"#utility.yul\":8314:8431   */\ntag_211:\n    /* \"#utility.yul\":8455:8544   */\n  tag_213\n    /* \"#utility.yul\":8536:8543   */\n  dup12\n    /* \"#utility.yul\":8527:8533   */\n  dup3\n    /* \"#utility.yul\":8516:8525   */\n  dup13\n    /* \"#utility.yul\":8512:8534   */\n  add\n    /* \"#utility.yul\":8455:8544   */\n  tag_92\n  jump\t// in\ntag_213:\n    /* \"#utility.yul\":8445:8544   */\n  swap4\n  pop\n    /* \"#utility.yul\":8246:8554   */\n  pop\n    /* \"#utility.yul\":8593:8596   */\n  0xc0\n    /* \"#utility.yul\":8620:8684   */\n  tag_214\n    /* \"#utility.yul\":8676:8683   */\n  dup12\n    /* \"#utility.yul\":8667:8673   */\n  dup3\n    /* \"#utility.yul\":8656:8665   */\n  dup13\n    /* \"#utility.yul\":8652:8674   */\n  add\n    /* \"#utility.yul\":8620:8684   */\n  tag_85\n  jump\t// in\ntag_214:\n    /* \"#utility.yul\":8610:8684   */\n  swap3\n  pop\n    /* \"#utility.yul\":8564:8694   */\n  pop\n    /* \"#utility.yul\":8754:8757   */\n  0xe0\n    /* \"#utility.yul\":8743:8752   */\n  dup10\n    /* \"#utility.yul\":8739:8758   */\n  add\n    /* \"#utility.yul\":8733:8759   */\n  mload\n    /* \"#utility.yul\":8786:8804   */\n  0xffffffffffffffff\n    /* \"#utility.yul\":8778:8784   */\n  dup2\n    /* \"#utility.yul\":8775:8805   */\n  gt\n    /* \"#utility.yul\":8772:8889   */\n  iszero\n  tag_215\n  jumpi\n    /* \"#utility.yul\":8808:8887   */\n  tag_216\n  tag_68\n  jump\t// in\ntag_216:\n    /* \"#utility.yul\":8772:8889   */\ntag_215:\n    /* \"#utility.yul\":8913:8987   */\n  tag_217\n    /* \"#utility.yul\":8979:8986   */\n  dup12\n    /* \"#utility.yul\":8970:8976   */\n  dup3\n    /* \"#utility.yul\":8959:8968   */\n  dup13\n    /* \"#utility.yul\":8955:8977   */\n  add\n    /* \"#utility.yul\":8913:8987   */\n  tag_82\n  jump\t// in\ntag_217:\n    /* \"#utility.yul\":8903:8987   */\n  swap2\n  pop\n    /* \"#utility.yul\":8704:8997   */\n  pop\n    /* \"#utility.yul\":6631:9004   */\n  swap3\n  swap6\n  swap9\n  pop\n  swap3\n  swap6\n  swap9\n  swap1\n  swap4\n  swap7\n  pop\n  jump\t// out\n    /* \"#utility.yul\":9010:9109   */\ntag_93:\n    /* \"#utility.yul\":9062:9068   */\n  0x00\n    /* \"#utility.yul\":9096:9101   */\n  dup2\n    /* \"#utility.yul\":9090:9102   */\n  mload\n    /* \"#utility.yul\":9080:9102   */\n  swap1\n  pop\n    /* \"#utility.yul\":9010:9109   */\n  swap2\n  swap1\n  pop\n  jump\t// out\n    /* \"#utility.yul\":9115:9295   */\ntag_94:\n    /* \"#utility.yul\":9163:9240   */\n  0x4e487b7100000000000000000000000000000000000000000000000000000000\n    /* \"#utility.yul\":9160:9161   */\n  0x00\n    /* \"#utility.yul\":9153:9241   */\n  mstore\n    /* \"#utility.yul\":9260:9264   */\n  0x22\n    /* \"#utility.yul\":9257:9258   */\n  0x04\n    /* \"#utility.yul\":9250:9265   */\n  mstore\n    /* \"#utility.yul\":9284:9288   */\n  0x24\n    /* \"#utility.yul\":9281:9282   */\n  0x00\n    /* \"#utility.yul\":9274:9289   */\n  revert\n    /* \"#utility.yul\":9301:9621   */\ntag_95:\n    /* \"#utility.yul\":9345:9351   */\n  0x00\n    /* \"#utility.yul\":9382:9383   */\n  0x02\n    /* \"#utility.yul\":9376:9380   */\n  dup3\n    /* \"#utility.yul\":9372:9384   */\n  div\n    /* \"#utility.yul\":9362:9384   */\n  swap1\n  pop\n    /* \"#utility.yul\":9429:9430   */\n  0x01\n    /* \"#utility.yul\":9423:9427   */\n  dup3\n    /* \"#utility.yul\":9419:9431   */\n  and\n    /* \"#utility.yul\":9450:9468   */\n  dup1\n    /* \"#utility.yul\":9440:9521   */\n  tag_221\n  jumpi\n    /* \"#utility.yul\":9506:9510   */\n  0x7f\n    /* \"#utility.yul\":9498:9504   */\n  dup3\n    /* \"#utility.yul\":9494:9511   */\n  and\n    /* \"#utility.yul\":9484:9511   */\n  swap2\n  pop\n    /* \"#utility.yul\":9440:9521   */\ntag_221:\n    /* \"#utility.yul\":9568:9570   */\n  0x20\n    /* \"#utility.yul\":9560:9566   */\n  dup3\n    /* \"#utility.yul\":9557:9571   */\n  lt\n    /* \"#utility.yul\":9537:9555   */\n  dup2\n    /* \"#utility.yul\":9534:9572   */\n  sub\n    /* \"#utility.yul\":9531:9615   */\n  tag_222\n  jumpi\n    /* \"#utility.yul\":9587:9605   */\n  tag_223\n  tag_94\n  jump\t// in\ntag_223:\n    /* \"#utility.yul\":9531:9615   */\ntag_222:\n    /* \"#utility.yul\":9352:9621   */\n  pop\n    /* \"#utility.yul\":9301:9621   */\n  swap2\n  swap1\n  pop\n  jump\t// out\n    /* \"#utility.yul\":9627:9768   */\ntag_96:\n    /* \"#utility.yul\":9676:9680   */\n  0x00\n    /* \"#utility.yul\":9699:9702   */\n  dup2\n    /* \"#utility.yul\":9691:9702   */\n  swap1\n  pop\n    /* \"#utility.yul\":9722:9725   */\n  dup2\n    /* \"#utility.yul\":9719:9720   */\n  0x00\n    /* \"#utility.yul\":9712:9726   */\n  mstore\n    /* \"#utility.yul\":9756:9760   */\n  0x20\n    /* \"#utility.yul\":9753:9754   */\n  0x00\n    /* \"#utility.yul\":9743:9761   */\n  keccak256\n    /* \"#utility.yul\":9735:9761   */\n  swap1\n  pop\n    /* \"#utility.yul\":9627:9768   */\n  swap2\n  swap1\n  pop\n  jump\t// out\n    /* \"#utility.yul\":9774:9867   */\ntag_97:\n    /* \"#utility.yul\":9811:9817   */\n  0x00\n    /* \"#utility.yul\":9858:9860   */\n  0x20\n    /* \"#utility.yul\":9853:9855   */\n  0x1f\n    /* \"#utility.yul\":9846:9851   */\n  dup4\n    /* \"#utility.yul\":9842:9856   */\n  add\n    /* \"#utility.yul\":9838:9861   */\n  div\n    /* \"#utility.yul\":9828:9861   */\n  swap1\n  pop\n    /* \"#utility.yul\":9774:9867   */\n  swap2\n  swap1\n  pop\n  jump\t// out\n    /* \"#utility.yul\":9873:9980   */\ntag_98:\n    /* \"#utility.yul\":9917:9925   */\n  0x00\n    /* \"#utility.yul\":9967:9972   */\n  dup3\n    /* \"#utility.yul\":9961:9965   */\n  dup3\n    /* \"#utility.yul\":9957:9973   */\n  shl\n    /* \"#utility.yul\":9936:9973   */\n  swap1\n  pop\n    /* \"#utility.yul\":9873:9980   */\n  swap3\n  swap2\n  pop\n  pop\n  jump\t// out\n    /* \"#utility.yul\":9986:10379   */\ntag_99:\n    /* \"#utility.yul\":10055:10061   */\n  0x00\n    /* \"#utility.yul\":10105:10106   */\n  0x08\n    /* \"#utility.yul\":10093:10103   */\n  dup4\n    /* \"#utility.yul\":10089:10107   */\n  mul\n    /* \"#utility.yul\":10128:10225   */\n  tag_228\n    /* \"#utility.yul\":10158:10224   */\n  0xffffffffffffffffffffffffffffffffffffffffffffffffffffffffffffffff\n    /* \"#utility.yul\":10147:10156   */\n  dup3\n    /* \"#utility.yul\":10128:10225   */\n  tag_98\n  jump\t// in\ntag_228:\n    /* \"#utility.yul\":10246:10285   */\n  tag_229\n    /* \"#utility.yul\":10276:10284   */\n  dup7\n    /* \"#utility.yul\":10265:10274   */\n  dup4\n    /* \"#utility.yul\":10246:10285   */\n  tag_98\n  jump\t// in\ntag_229:\n    /* \"#utility.yul\":10234:10285   */\n  swap6\n  pop\n    /* \"#utility.yul\":10318:10322   */\n  dup1\n    /* \"#utility.yul\":10314:10323   */\n  not\n    /* \"#utility.yul\":10307:10312   */\n  dup5\n    /* \"#utility.yul\":10303:10324   */\n  and\n    /* \"#utility.yul\":10294:10324   */\n  swap4\n  pop\n    /* \"#utility.yul\":10367:10371   */\n  dup1\n    /* \"#utility.yul\":10357:10365   */\n  dup7\n    /* \"#utility.yul\":10353:10372   */\n  and\n    /* \"#utility.yul\":10346:10351   */\n  dup5\n    /* \"#utility.yul\":10343:10373   */\n  or\n    /* \"#utility.yul\":10333:10373   */\n  swap3\n  pop\n    /* \"#utility.yul\":10062:10379   */\n  pop\n  pop\n    /* \"#utility.yul\":9986:10379   */\n  swap4\n  swap3\n  pop\n  pop\n  pop\n  jump\t// out\n    /* \"#utility.yul\":10385:10445   */\ntag_100:\n    /* \"#utility.yul\":10413:10416   */\n  0x00\n    /* \"#utility.yul\":10434:10439   */\n  dup2\n    /* \"#utility.yul\":10427:10439   */\n  swap1\n  pop\n    /* \"#utility.yul\":10385:10445   */\n  swap2\n  swap1\n  pop\n  jump\t// out\n    /* \"#utility.yul\":10451:10593   */\ntag_101:\n    /* \"#utility.yul\":10501:10510   */\n  0x00\n    /* \"#utility.yul\":10534:10587   */\n  tag_232\n    /* \"#utility.yul\":10552:10586   */\n  tag_233\n    /* \"#utility.yul\":10561:10585   */\n  tag_234\n    /* \"#utility.yul\":10579:10584   */\n  dup5\n    /* \"#utility.yul\":10561:10585   */\n  tag_83\n  jump\t// in\ntag_234:\n    /* \"#utility.yul\":10552:10586   */\n  tag_100\n  jump\t// in\ntag_233:\n    /* \"#utility.yul\":10534:10587   */\n  tag_83\n  jump\t// in\ntag_232:\n    /* \"#utility.yul\":10521:10587   */\n  swap1\n  pop\n    /* \"#utility.yul\":10451:10593   */\n  swap2\n  swap1\n  pop\n  jump\t// out\n    /* \"#utility.yul\":10599:10674   */\ntag_102:\n    /* \"#utility.yul\":10642:10645   */\n  0x00\n    /* \"#utility.yul\":10663:10668   */\n  dup2\n    /* \"#utility.yul\":10656:10668   */\n  swap1\n  pop\n    /* \"#utility.yul\":10599:10674   */\n  swap2\n  swap1\n  pop\n  jump\t// out\n    /* \"#utility.yul\":10680:10949   */\ntag_103:\n    /* \"#utility.yul\":10790:10829   */\n  tag_237\n    /* \"#utility.yul\":10821:10828   */\n  dup4\n    /* \"#utility.yul\":10790:10829   */\n  tag_101\n  jump\t// in\ntag_237:\n    /* \"#utility.yul\":10851:10942   */\n  tag_238\n    /* \"#utility.yul\":10900:10941   */\n  tag_239\n    /* \"#utility.yul\":10924:10940   */\n  dup3\n    /* \"#utility.yul\":10900:10941   */\n  tag_102\n  jump\t// in\ntag_239:\n    /* \"#utility.yul\":10892:10898   */\n  dup5\n    /* \"#utility.yul\":10885:10889   */\n  dup5\n    /* \"#utility.yul\":10879:10890   */\n  sload\n    /* \"#utility.yul\":10851:10942   */\n  tag_99\n  jump\t// in\ntag_238:\n    /* \"#utility.yul\":10845:10849   */\n  dup3\n    /* \"#utility.yul\":10838:10943   */\n  sstore\n    /* \"#utility.yul\":10756:10949   */\n  pop\n    /* \"#utility.yul\":10680:10949   */\n  pop\n  pop\n  pop\n  jump\t// out\n    /* \"#utility.yul\":10955:11028   */\ntag_104:\n    /* \"#utility.yul\":11000:11003   */\n  0x00\n    /* \"#utility.yul\":10955:11028   */\n  swap1\n  jump\t// out\n    /* \"#utility.yul\":11034:11223   */\ntag_105:\n    /* \"#utility.yul\":11111:11143   */\n  tag_242\n  tag_104\n  jump\t// in\ntag_242:\n    /* \"#utility.yul\":11152:11217   */\n  tag_243\n    /* \"#utility.yul\":11210:11216   */\n  dup2\n    /* \"#utility.yul\":11202:11208   */\n  dup5\n    /* \"#utility.yul\":11196:11200   */\n  dup5\n    /* \"#utility.yul\":11152:11217   */\n  tag_103\n  jump\t// in\ntag_243:\n    /* \"#utility.yul\":11087:11223   */\n  pop\n    /* \"#utility.yul\":11034:11223   */\n  pop\n  pop\n  jump\t// out\n    /* \"#utility.yul\":11229:11415   */\ntag_106:\n    /* \"#utility.yul\":11289:11409   */\ntag_245:\n    /* \"#utility.yul\":11306:11309   */\n  dup2\n    /* \"#utility.yul\":11299:11304   */\n  dup2\n    /* \"#utility.yul\":11296:11310   */\n  lt\n    /* \"#utility.yul\":11289:11409   */\n  iszero\n  tag_247\n  jumpi\n    /* \"#utility.yul\":11360:11399   */\n  tag_248\n    /* \"#utility.yul\":11397:11398   */\n  0x00\n    /* \"#utility.yul\":11390:11395   */\n  dup3\n    /* \"#utility.yul\":11360:11399   */\n  tag_105\n  jump\t// in\ntag_248:\n    /* \"#utility.yul\":11333:11334   */\n  0x01\n    /* \"#utility.yul\":11326:11331   */\n  dup2\n    /* \"#utility.yul\":11322:11335   */\n  add\n    /* \"#utility.yul\":11313:11335   */\n  swap1\n  pop\n    /* \"#utility.yul\":11289:11409   */\n  jump(tag_245)\ntag_247:\n    /* \"#utility.yul\":11229:11415   */\n  pop\n  pop\n  jump\t// out\n    /* \"#utility.yul\":11421:11964   */\ntag_107:\n    /* \"#utility.yul\":11522:11524   */\n  0x1f\n    /* \"#utility.yul\":11517:11520   */\n  dup3\n    /* \"#utility.yul\":11514:11525   */\n  gt\n    /* \"#utility.yul\":11511:11957   */\n  iszero\n  tag_250\n  jumpi\n    /* \"#utility.yul\":11556:11594   */\n  tag_251\n    /* \"#utility.yul\":11588:11593   */\n  dup2\n    /* \"#utility.yul\":11556:11594   */\n  tag_96\n  jump\t// in\ntag_251:\n    /* \"#utility.yul\":11640:11669   */\n  tag_252\n    /* \"#utility.yul\":11658:11668   */\n  dup5\n    /* \"#utility.yul\":11640:11669   */\n  tag_97\n  jump\t// in\ntag_252:\n    /* \"#utility.yul\":11630:11638   */\n  dup2\n    /* \"#utility.yul\":11626:11670   */\n  add\n    /* \"#utility.yul\":11823:11825   */\n  0x20\n    /* \"#utility.yul\":11811:11821   */\n  dup6\n    /* \"#utility.yul\":11808:11826   */\n  lt\n    /* \"#utility.yul\":11805:11854   */\n  iszero\n  tag_253\n  jumpi\n    /* \"#utility.yul\":11844:11852   */\n  dup2\n    /* \"#utility.yul\":11829:11852   */\n  swap1\n  pop\n    /* \"#utility.yul\":11805:11854   */\ntag_253:\n    /* \"#utility.yul\":11867:11947   */\n  tag_254\n    /* \"#utility.yul\":11923:11945   */\n  tag_255\n    /* \"#utility.yul\":11941:11944   */\n  dup6\n    /* \"#utility.yul\":11923:11945   */\n  tag_97\n  jump\t// in\ntag_255:\n    /* \"#utility.yul\":11913:11921   */\n  dup4\n    /* \"#utility.yul\":11909:11946   */\n  add\n    /* \"#utility.yul\":11896:11907   */\n  dup3\n    /* \"#utility.yul\":11867:11947   */\n  tag_106\n  jump\t// in\ntag_254:\n    /* \"#utility.yul\":11526:11957   */\n  pop\n  pop\n    /* \"#utility.yul\":11511:11957   */\ntag_250:\n    /* \"#utility.yul\":11421:11964   */\n  pop\n  pop\n  pop\n  jump\t// out\n    /* \"#utility.yul\":11970:12087   */\ntag_108:\n    /* \"#utility.yul\":12024:12032   */\n  0x00\n    /* \"#utility.yul\":12074:12079   */\n  dup3\n    /* \"#utility.yul\":12068:12072   */\n  dup3\n    /* \"#utility.yul\":12064:12080   */\n  shr\n    /* \"#utility.yul\":12043:12080   */\n  swap1\n  pop\n    /* \"#utility.yul\":11970:12087   */\n  swap3\n  swap2\n  pop\n  pop\n  jump\t// out\n    /* \"#utility.yul\":12093:12262   */\ntag_109:\n    /* \"#utility.yul\":12137:12143   */\n  0x00\n    /* \"#utility.yul\":12170:12221   */\n  tag_258\n    /* \"#utility.yul\":12218:12219   */\n  0x00\n    /* \"#utility.yul\":12214:12220   */\n  not\n    /* \"#utility.yul\":12206:12211   */\n  dup5\n    /* \"#utility.yul\":12203:12204   */\n  0x08\n    /* \"#utility.yul\":12199:12212   */\n  mul\n    /* \"#utility.yul\":12170:12221   */\n  tag_108\n  jump\t// in\ntag_258:\n    /* \"#utility.yul\":12166:12222   */\n  not\n    /* \"#utility.yul\":12251:12255   */\n  dup1\n    /* \"#utility.yul\":12245:12249   */\n  dup4\n    /* \"#utility.yul\":12241:12256   */\n  and\n    /* \"#utility.yul\":12231:12256   */\n  swap2\n  pop\n    /* \"#utility.yul\":12144:12262   */\n  pop\n    /* \"#utility.yul\":12093:12262   */\n  swap3\n  swap2\n  pop\n  pop\n  jump\t// out\n    /* \"#utility.yul\":12267:12562   */\ntag_110:\n    /* \"#utility.yul\":12343:12347   */\n  0x00\n    /* \"#utility.yul\":12489:12518   */\n  tag_260\n    /* \"#utility.yul\":12514:12517   */\n  dup4\n    /* \"#utility.yul\":12508:12512   */\n  dup4\n    /* \"#utility.yul\":12489:12518   */\n  tag_109\n  jump\t// in\ntag_260:\n    /* \"#utility.yul\":12481:12518   */\n  swap2\n  pop\n    /* \"#utility.yul\":12551:12554   */\n  dup3\n    /* \"#utility.yul\":12548:12549   */\n  0x02\n    /* \"#utility.yul\":12544:12555   */\n  mul\n    /* \"#utility.yul\":12538:12542   */\n  dup3\n    /* \"#utility.yul\":12535:12556   */\n  or\n    /* \"#utility.yul\":12527:12556   */\n  swap1\n  pop\n    /* \"#utility.yul\":12267:12562   */\n  swap3\n  swap2\n  pop\n  pop\n  jump\t// out\n    /* \"#utility.yul\":12567:13962   */\ntag_9:\n    /* \"#utility.yul\":12684:12721   */\n  tag_262\n    /* \"#utility.yul\":12717:12720   */\n  dup3\n    /* \"#utility.yul\":12684:12721   */\n  tag_93\n  jump\t// in\ntag_262:\n    /* \"#utility.yul\":12786:12804   */\n  0xffffffffffffffff\n    /* \"#utility.yul\":12778:12784   */\n  dup2\n    /* \"#utility.yul\":12775:12805   */\n  gt\n    /* \"#utility.yul\":12772:12828   */\n  iszero\n  tag_263\n  jumpi\n    /* \"#utility.yul\":12808:12826   */\n  tag_264\n  tag_76\n  jump\t// in\ntag_264:\n    /* \"#utility.yul\":12772:12828   */\ntag_263:\n    /* \"#utility.yul\":12852:12890   */\n  tag_265\n    /* \"#utility.yul\":12884:12888   */\n  dup3\n    /* \"#utility.yul\":12878:12889   */\n  sload\n    /* \"#utility.yul\":12852:12890   */\n  tag_95\n  jump\t// in\ntag_265:\n    /* \"#utility.yul\":12937:13004   */\n  tag_266\n    /* \"#utility.yul\":12997:13003   */\n  dup3\n    /* \"#utility.yul\":12989:12995   */\n  dup3\n    /* \"#utility.yul\":12983:12987   */\n  dup6\n    /* \"#utility.yul\":12937:13004   */\n  tag_107\n  jump\t// in\ntag_266:\n    /* \"#utility.yul\":13031:13032   */\n  0x00\n    /* \"#utility.yul\":13055:13059   */\n  0x20\n    /* \"#utility.yul\":13042:13059   */\n  swap1\n  pop\n    /* \"#utility.yul\":13087:13089   */\n  0x1f\n    /* \"#utility.yul\":13079:13085   */\n  dup4\n    /* \"#utility.yul\":13076:13090   */\n  gt\n    /* \"#utility.yul\":13104:13105   */\n  0x01\n    /* \"#utility.yul\":13099:13717   */\n  dup2\n  eq\n  tag_268\n  jumpi\n    /* \"#utility.yul\":13761:13762   */\n  0x00\n    /* \"#utility.yul\":13778:13784   */\n  dup5\n    /* \"#utility.yul\":13775:13852   */\n  iszero\n  tag_269\n  jumpi\n    /* \"#utility.yul\":13827:13836   */\n  dup3\n    /* \"#utility.yul\":13822:13825   */\n  dup8\n    /* \"#utility.yul\":13818:13837   */\n  add\n    /* \"#utility.yul\":13812:13838   */\n  mload\n    /* \"#utility.yul\":13803:13838   */\n  swap1\n  pop\n    /* \"#utility.yul\":13775:13852   */\ntag_269:\n    /* \"#utility.yul\":13878:13945   */\n  tag_270\n    /* \"#utility.yul\":13938:13944   */\n  dup6\n    /* \"#utility.yul\":13931:13936   */\n  dup3\n    /* \"#utility.yul\":13878:13945   */\n  tag_110\n  jump\t// in\ntag_270:\n    /* \"#utility.yul\":13872:13876   */\n  dup7\n    /* \"#utility.yul\":13865:13946   */\n  sstore\n    /* \"#utility.yul\":13734:13956   */\n  pop\n    /* \"#utility.yul\":13069:13956   */\n  jump(tag_267)\n    /* \"#utility.yul\":13099:13717   */\ntag_268:\n    /* \"#utility.yul\":13151:13155   */\n  0x1f\n    /* \"#utility.yul\":13147:13156   */\n  not\n    /* \"#utility.yul\":13139:13145   */\n  dup5\n    /* \"#utility.yul\":13135:13157   */\n  and\n    /* \"#utility.yul\":13185:13222   */\n  tag_271\n    /* \"#utility.yul\":13217:13221   */\n  dup7\n    /* \"#utility.yul\":13185:13222   */\n  tag_96\n  jump\t// in\ntag_271:\n    /* \"#utility.yul\":13244:13245   */\n  0x00\n    /* \"#utility.yul\":13258:13466   */\ntag_272:\n    /* \"#utility.yul\":13272:13279   */\n  dup3\n    /* \"#utility.yul\":13269:13270   */\n  dup2\n    /* \"#utility.yul\":13266:13280   */\n  lt\n    /* \"#utility.yul\":13258:13466   */\n  iszero\n  tag_274\n  jumpi\n    /* \"#utility.yul\":13351:13360   */\n  dup5\n    /* \"#utility.yul\":13346:13349   */\n  dup10\n    /* \"#utility.yul\":13342:13361   */\n  add\n    /* \"#utility.yul\":13336:13362   */\n  mload\n    /* \"#utility.yul\":13328:13334   */\n  dup3\n    /* \"#utility.yul\":13321:13363   */\n  sstore\n    /* \"#utility.yul\":13402:13403   */\n  0x01\n    /* \"#utility.yul\":13394:13400   */\n  dup3\n    /* \"#utility.yul\":13390:13404   */\n  add\n    /* \"#utility.yul\":13380:13404   */\n  swap2\n  pop\n    /* \"#utility.yul\":13449:13451   */\n  0x20\n    /* \"#utility.yul\":13438:13447   */\n  dup6\n    /* \"#utility.yul\":13434:13452   */\n  add\n    /* \"#utility.yul\":13421:13452   */\n  swap5\n  pop\n    /* \"#utility.yul\":13295:13299   */\n  0x20\n    /* \"#utility.yul\":13292:13293   */\n  dup2\n    /* \"#utility.yul\":13288:13300   */\n  add\n    /* \"#utility.yul\":13283:13300   */\n  swap1\n  pop\n    /* \"#utility.yul\":13258:13466   */\n  jump(tag_272)\ntag_274:\n    /* \"#utility.yul\":13494:13500   */\n  dup7\n    /* \"#utility.yul\":13485:13492   */\n  dup4\n    /* \"#utility.yul\":13482:13501   */\n  lt\n    /* \"#utility.yul\":13479:13658   */\n  iszero\n  tag_275\n  jumpi\n    /* \"#utility.yul\":13552:13561   */\n  dup5\n    /* \"#utility.yul\":13547:13550   */\n  dup10\n    /* \"#utility.yul\":13543:13562   */\n  add\n    /* \"#utility.yul\":13537:13563   */\n  mload\n    /* \"#utility.yul\":13595:13643   */\n  tag_276\n    /* \"#utility.yul\":13637:13641   */\n  0x1f\n    /* \"#utility.yul\":13629:13635   */\n  dup10\n    /* \"#utility.yul\":13625:13642   */\n  and\n    /* \"#utility.yul\":13614:13623   */\n  dup3\n    /* \"#utility.yul\":13595:13643   */\n  tag_109\n  jump\t// in\ntag_276:\n    /* \"#utility.yul\":13587:13593   */\n  dup4\n    /* \"#utility.yul\":13580:13644   */\n  sstore\n    /* \"#utility.yul\":13502:13658   */\n  pop\n    /* \"#utility.yul\":13479:13658   */\ntag_275:\n    /* \"#utility.yul\":13704:13705   */\n  0x01\n    /* \"#utility.yul\":13700:13701   */\n  0x02\n    /* \"#utility.yul\":13692:13698   */\n  dup9\n    /* \"#utility.yul\":13688:13702   */\n  mul\n    /* \"#utility.yul\":13684:13706   */\n  add\n    /* \"#utility.yul\":13678:13682   */\n  dup9\n    /* \"#utility.yul\":13671:13707   */\n  sstore\n    /* \"#utility.yul\":13106:13717   */\n  pop\n  pop\n  pop\n    /* \"#utility.yul\":13069:13956   */\ntag_267:\n  pop\n    /* \"#utility.yul\":12659:13962   */\n  pop\n  pop\n  pop\n    /* \"#utility.yul\":12567:13962   */\n  pop\n  pop\n  jump\t// out\n    /* \"#utility.yul\":13968:14086   */\ntag_111:\n    /* \"#utility.yul\":14055:14079   */\n  tag_278\n    /* \"#utility.yul\":14073:14078   */\n  dup2\n    /* \"#utility.yul\":14055:14079   */\n  tag_70\n  jump\t// in\ntag_278:\n    /* \"#utility.yul\":14050:14053   */\n  dup3\n    /* \"#utility.yul\":14043:14080   */\n  mstore\n    /* \"#utility.yul\":13968:14086   */\n  pop\n  pop\n  jump\t// out\n    /* \"#utility.yul\":14092:14314   */\ntag_14:\n    /* \"#utility.yul\":14185:14189   */\n  0x00\n    /* \"#utility.yul\":14223:14225   */\n  0x20\n    /* \"#utility.yul\":14212:14221   */\n  dup3\n    /* \"#utility.yul\":14208:14226   */\n  add\n    /* \"#utility.yul\":14200:14226   */\n  swap1\n  pop\n    /* \"#utility.yul\":14236:14307   */\n  tag_280\n    /* \"#utility.yul\":14304:14305   */\n  0x00\n    /* \"#utility.yul\":14293:14302   */\n  dup4\n    /* \"#utility.yul\":14289:14306   */\n  add\n    /* \"#utility.yul\":14280:14286   */\n  dup5\n    /* \"#utility.yul\":14236:14307   */\n  tag_111\n  jump\t// in\ntag_280:\n    /* \"#utility.yul\":14092:14314   */\n  swap3\n  swap2\n  pop\n  pop\n  jump\t// out\n    /* \"#utility.yul\":14320:14489   */\ntag_112:\n    /* \"#utility.yul\":14404:14415   */\n  0x00\n    /* \"#utility.yul\":14438:14444   */\n  dup3\n    /* \"#utility.yul\":14433:14436   */\n  dup3\n    /* \"#utility.yul\":14426:14445   */\n  mstore\n    /* \"#utility.yul\":14478:14482   */\n  0x20\n    /* \"#utility.yul\":14473:14476   */\n  dup3\n    /* \"#utility.yul\":14469:14483   */\n  add\n    /* \"#utility.yul\":14454:14483   */\n  swap1\n  pop\n    /* \"#utility.yul\":14320:14489   */\n  swap3\n  swap2\n  pop\n  pop\n  jump\t// out\n    /* \"#utility.yul\":14495:14724   */\ntag_113:\n    /* \"#utility.yul\":14635:14669   */\n  0x737562736372696265727320616e6420746865697220616d6f756e747320646f\n    /* \"#utility.yul\":14631:14632   */\n  0x00\n    /* \"#utility.yul\":14623:14629   */\n  dup3\n    /* \"#utility.yul\":14619:14633   */\n  add\n    /* \"#utility.yul\":14612:14670   */\n  mstore\n    /* \"#utility.yul\":14704:14716   */\n  0x206e6f74206d6174636800000000000000000000000000000000000000000000\n    /* \"#utility.yul\":14699:14701   */\n  0x20\n    /* \"#utility.yul\":14691:14697   */\n  dup3\n    /* \"#utility.yul\":14687:14702   */\n  add\n    /* \"#utility.yul\":14680:14717   */\n  mstore\n    /* \"#utility.yul\":14495:14724   */\n  pop\n  jump\t// out\n    /* \"#utility.yul\":14730:15096   */\ntag_114:\n    /* \"#utility.yul\":14872:14875   */\n  0x00\n    /* \"#utility.yul\":14893:14960   */\n  tag_284\n    /* \"#utility.yul\":14957:14959   */\n  0x2a\n    /* \"#utility.yul\":14952:14955   */\n  dup4\n    /* \"#utility.yul\":14893:14960   */\n  tag_112\n  jump\t// in\ntag_284:\n    /* \"#utility.yul\":14886:14960   */\n  swap2\n  pop\n    /* \"#utility.yul\":14969:15062   */\n  tag_285\n    /* \"#utility.yul\":15058:15061   */\n  dup3\n    /* \"#utility.yul\":14969:15062   */\n  tag_113\n  jump\t// in\ntag_285:\n    /* \"#utility.yul\":15087:15089   */\n  0x40\n    /* \"#utility.yul\":15082:15085   */\n  dup3\n    /* \"#utility.yul\":15078:15090   */\n  add\n    /* \"#utility.yul\":15071:15090   */\n  swap1\n  pop\n    /* \"#utility.yul\":14730:15096   */\n  swap2\n  swap1\n  pop\n  jump\t// out\n    /* \"#utility.yul\":15102:15521   */\ntag_20:\n    /* \"#utility.yul\":15268:15272   */\n  0x00\n    /* \"#utility.yul\":15306:15308   */\n  0x20\n    /* \"#utility.yul\":15295:15304   */\n  dup3\n    /* \"#utility.yul\":15291:15309   */\n  add\n    /* \"#utility.yul\":15283:15309   */\n  swap1\n  pop\n    /* \"#utility.yul\":15355:15364   */\n  dup2\n    /* \"#utility.yul\":15349:15353   */\n  dup2\n    /* \"#utility.yul\":15345:15365   */\n  sub\n    /* \"#utility.yul\":15341:15342   */\n  0x00\n    /* \"#utility.yul\":15330:15339   */\n  dup4\n    /* \"#utility.yul\":15326:15343   */\n  add\n    /* \"#utility.yul\":15319:15366   */\n  mstore\n    /* \"#utility.yul\":15383:15514   */\n  tag_287\n    /* \"#utility.yul\":15509:15513   */\n  dup2\n    /* \"#utility.yul\":15383:15514   */\n  tag_114\n  jump\t// in\ntag_287:\n    /* \"#utility.yul\":15375:15514   */\n  swap1\n  pop\n    /* \"#utility.yul\":15102:15521   */\n  swap2\n  swap1\n  pop\n  jump\t// out\n    /* \"#utility.yul\":15527:15707   */\ntag_115:\n    /* \"#utility.yul\":15575:15652   */\n  0x4e487b7100000000000000000000000000000000000000000000000000000000\n    /* \"#utility.yul\":15572:15573   */\n  0x00\n    /* \"#utility.yul\":15565:15653   */\n  mstore\n    /* \"#utility.yul\":15672:15676   */\n  0x11\n    /* \"#utility.yul\":15669:15670   */\n  0x04\n    /* \"#utility.yul\":15662:15677   */\n  mstore\n    /* \"#utility.yul\":15696:15700   */\n  0x24\n    /* \"#utility.yul\":15693:15694   */\n  0x00\n    /* \"#utility.yul\":15686:15701   */\n  revert\n    /* \"#utility.yul\":15713:15904   */\ntag_22:\n    /* \"#utility.yul\":15753:15756   */\n  0x00\n    /* \"#utility.yul\":15772:15792   */\n  tag_290\n    /* \"#utility.yul\":15790:15791   */\n  dup3\n    /* \"#utility.yul\":15772:15792   */\n  tag_83\n  jump\t// in\ntag_290:\n    /* \"#utility.yul\":15767:15792   */\n  swap2\n  pop\n    /* \"#utility.yul\":15806:15826   */\n  tag_291\n    /* \"#utility.yul\":15824:15825   */\n  dup4\n    /* \"#utility.yul\":15806:15826   */\n  tag_83\n  jump\t// in\ntag_291:\n    /* \"#utility.yul\":15801:15826   */\n  swap3\n  pop\n    /* \"#utility.yul\":15849:15850   */\n  dup3\n    /* \"#utility.yul\":15846:15847   */\n  dup3\n    /* \"#utility.yul\":15842:15851   */\n  add\n    /* \"#utility.yul\":15835:15851   */\n  swap1\n  pop\n    /* \"#utility.yul\":15870:15873   */\n  dup1\n    /* \"#utility.yul\":15867:15868   */\n  dup3\n    /* \"#utility.yul\":15864:15874   */\n  gt\n    /* \"#utility.yul\":15861:15897   */\n  iszero\n  tag_292\n  jumpi\n    /* \"#utility.yul\":15877:15895   */\n  tag_293\n  tag_115\n  jump\t// in\ntag_293:\n    /* \"#utility.yul\":15861:15897   */\ntag_292:\n    /* \"#utility.yul\":15713:15904   */\n  swap3\n  swap2\n  pop\n  pop\n  jump\t// out\n    /* \"#utility.yul\":15910:16090   */\ntag_29:\n    /* \"#utility.yul\":15958:16035   */\n  0x4e487b7100000000000000000000000000000000000000000000000000000000\n    /* \"#utility.yul\":15955:15956   */\n  0x00\n    /* \"#utility.yul\":15948:16036   */\n  mstore\n    /* \"#utility.yul\":16055:16059   */\n  0x32\n    /* \"#utility.yul\":16052:16053   */\n  0x04\n    /* \"#utility.yul\":16045:16060   */\n  mstore\n    /* \"#utility.yul\":16079:16083   */\n  0x24\n    /* \"#utility.yul\":16076:16077   */\n  0x00\n    /* \"#utility.yul\":16069:16084   */\n  revert\n    /* \"#utility.yul\":16096:16329   */\ntag_42:\n    /* \"#utility.yul\":16135:16138   */\n  0x00\n    /* \"#utility.yul\":16158:16182   */\n  tag_296\n    /* \"#utility.yul\":16176:16181   */\n  dup3\n    /* \"#utility.yul\":16158:16182   */\n  tag_83\n  jump\t// in\ntag_296:\n    /* \"#utility.yul\":16149:16182   */\n  swap2\n  pop\n    /* \"#utility.yul\":16204:16270   */\n  0xffffffffffffffffffffffffffffffffffffffffffffffffffffffffffffffff\n    /* \"#utility.yul\":16197:16202   */\n  dup3\n    /* \"#utility.yul\":16194:16271   */\n  sub\n    /* \"#utility.yul\":16191:16294   */\n  tag_297\n  jumpi\n    /* \"#utility.yul\":16274:16292   */\n  tag_298\n  tag_115\n  jump\t// in\ntag_298:\n    /* \"#utility.yul\":16191:16294   */\ntag_297:\n    /* \"#utility.yul\":16321:16322   */\n  0x01\n    /* \"#utility.yul\":16314:16319   */\n  dup3\n    /* \"#utility.yul\":16310:16323   */\n  add\n    /* \"#utility.yul\":16303:16323   */\n  swap1\n  pop\n    /* \"#utility.yul\":16096:16329   */\n  swap2\n  swap1\n  pop\n  jump\t// out\n    /* \"#utility.yul\":16335:16529   */\ntag_44:\n    /* \"#utility.yul\":16375:16379   */\n  0x00\n    /* \"#utility.yul\":16395:16415   */\n  tag_300\n    /* \"#utility.yul\":16413:16414   */\n  dup3\n    /* \"#utility.yul\":16395:16415   */\n  tag_83\n  jump\t// in\ntag_300:\n    /* \"#utility.yul\":16390:16415   */\n  swap2\n  pop\n    /* \"#utility.yul\":16429:16449   */\n  tag_301\n    /* \"#utility.yul\":16447:16448   */\n  dup4\n    /* \"#utility.yul\":16429:16449   */\n  tag_83\n  jump\t// in\ntag_301:\n    /* \"#utility.yul\":16424:16449   */\n  swap3\n  pop\n    /* \"#utility.yul\":16473:16474   */\n  dup3\n    /* \"#utility.yul\":16470:16471   */\n  dup3\n    /* \"#utility.yul\":16466:16475   */\n  sub\n    /* \"#utility.yul\":16458:16475   */\n  swap1\n  pop\n    /* \"#utility.yul\":16497:16498   */\n  dup2\n    /* \"#utility.yul\":16491:16495   */\n  dup2\n    /* \"#utility.yul\":16488:16499   */\n  gt\n    /* \"#utility.yul\":16485:16522   */\n  iszero\n  tag_302\n  jumpi\n    /* \"#utility.yul\":16502:16520   */\n  tag_303\n  tag_115\n  jump\t// in\ntag_303:\n    /* \"#utility.yul\":16485:16522   */\ntag_302:\n    /* \"#utility.yul\":16335:16529   */\n  swap3\n  swap2\n  pop\n  pop\n  jump\t// out\n    /* \"#utility.yul\":16535:16653   */\ntag_116:\n    /* \"#utility.yul\":16622:16646   */\n  tag_305\n    /* \"#utility.yul\":16640:16645   */\n  dup2\n    /* \"#utility.yul\":16622:16646   */\n  tag_83\n  jump\t// in\ntag_305:\n    /* \"#utility.yul\":16617:16620   */\n  dup3\n    /* \"#utility.yul\":16610:16647   */\n  mstore\n    /* \"#utility.yul\":16535:16653   */\n  pop\n  pop\n  jump\t// out\n    /* \"#utility.yul\":16659:17101   */\ntag_61:\n    /* \"#utility.yul\":16808:16812   */\n  0x00\n    /* \"#utility.yul\":16846:16848   */\n  0x60\n    /* \"#utility.yul\":16835:16844   */\n  dup3\n    /* \"#utility.yul\":16831:16849   */\n  add\n    /* \"#utility.yul\":16823:16849   */\n  swap1\n  pop\n    /* \"#utility.yul\":16859:16930   */\n  tag_307\n    /* \"#utility.yul\":16927:16928   */\n  0x00\n    /* \"#utility.yul\":16916:16925   */\n  dup4\n    /* \"#utility.yul\":16912:16929   */\n  add\n    /* \"#utility.yul\":16903:16909   */\n  dup7\n    /* \"#utility.yul\":16859:16930   */\n  tag_111\n  jump\t// in\ntag_307:\n    /* \"#utility.yul\":16940:17012   */\n  tag_308\n    /* \"#utility.yul\":17008:17010   */\n  0x20\n    /* \"#utility.yul\":16997:17006   */\n  dup4\n    /* \"#utility.yul\":16993:17011   */\n  add\n    /* \"#utility.yul\":16984:16990   */\n  dup6\n    /* \"#utility.yul\":16940:17012   */\n  tag_116\n  jump\t// in\ntag_308:\n    /* \"#utility.yul\":17022:17094   */\n  tag_309\n    /* \"#utility.yul\":17090:17092   */\n  0x40\n    /* \"#utility.yul\":17079:17088   */\n  dup4\n    /* \"#utility.yul\":17075:17093   */\n  add\n    /* \"#utility.yul\":17066:17072   */\n  dup5\n    /* \"#utility.yul\":17022:17094   */\n  tag_116\n  jump\t// in\ntag_309:\n    /* \"#utility.yul\":16659:17101   */\n  swap5\n  swap4\n  pop\n  pop\n  pop\n  pop\n  jump\t// out\n    /* \"#utility.yul\":17107:17329   */\ntag_65:\n    /* \"#utility.yul\":17200:17204   */\n  0x00\n    /* \"#utility.yul\":17238:17240   */\n  0x20\n    /* \"#utility.yul\":17227:17236   */\n  dup3\n    /* \"#utility.yul\":17223:17241   */\n  add\n    /* \"#utility.yul\":17215:17241   */\n  swap1\n  pop\n    /* \"#utility.yul\":17251:17322   */\n  tag_311\n    /* \"#utility.yul\":17319:17320   */\n  0x00\n    /* \"#utility.yul\":17308:17317   */\n  dup4\n    /* \"#utility.yul\":17304:17321   */\n  add\n    /* \"#utility.yul\":17295:17301   */\n  dup5\n    /* \"#utility.yul\":17251:17322   */\n  tag_116\n  jump\t// in\ntag_311:\n    /* \"#utility.yul\":17107:17329   */\n  swap3\n  swap2\n  pop\n  pop\n  jump\t// out\n    /* \"contracts/ERC20subscription.sol\":206:3239  contract ERC20subscription is ERC20, Ownable {... */\ntag_48:\n  dataSize(sub_0)\n  dup1\n  dataOffset(sub_0)\n  0x00\n  codecopy\n  0x00\n  return\nstop\n\nsub_0: assembly {\n        /* \"contracts/ERC20subscription.sol\":206:3239  contract ERC20subscription is ERC20, Ownable {... */\n      mstore(0x40, 0x80)\n      callvalue\n      dup1\n      iszero\n      tag_1\n      jumpi\n      0x00\n      dup1\n      revert\n    tag_1:\n      pop\n      jumpi(tag_2, lt(calldatasize, 0x04))\n      shr(0xe0, calldataload(0x00))\n      dup1\n      0x95d89b41\n      gt\n      tag_20\n      jumpi\n      dup1\n      0xb93a5396\n      gt\n      tag_21\n      jumpi\n      dup1\n      0xb93a5396\n      eq\n      tag_15\n      jumpi\n      dup1\n      0xbd7dac92\n      eq\n      tag_16\n      jumpi\n      dup1\n      0xc0a4d64d\n      eq\n      tag_17\n      jumpi\n      dup1\n      0xdd62ed3e\n      eq\n      tag_18\n      jumpi\n      dup1\n      0xf2fde38b\n      eq\n      tag_19\n      jumpi\n      jump(tag_2)\n    tag_21:\n      dup1\n      0x95d89b41\n      eq\n      tag_11\n      jumpi\n      dup1\n      0x9f3adb0e\n      eq\n      tag_12\n      jumpi\n      dup1\n      0xa9059cbb\n      eq\n      tag_13\n      jumpi\n      dup1\n      0xae84827a\n      eq\n      tag_14\n      jumpi\n      jump(tag_2)\n    tag_20:\n      dup1\n      0x313ce567\n      gt\n      tag_22\n      jumpi\n      dup1\n      0x313ce567\n      eq\n      tag_7\n      jumpi\n      dup1\n      0x70a08231\n      eq\n      tag_8\n      jumpi\n      dup1\n      0x715018a6\n      eq\n      tag_9\n      jumpi\n      dup1\n      0x8da5cb5b\n      eq\n      tag_10\n      jumpi\n      jump(tag_2)\n    tag_22:\n      dup1\n      0x06fdde03\n      eq\n      tag_3\n      jumpi\n      dup1\n      0x095ea7b3\n      eq\n      tag_4\n      jumpi\n      dup1\n      0x18160ddd\n      eq\n      tag_5\n      jumpi\n      dup1\n      0x23b872dd\n      eq\n      tag_6\n      jumpi\n    tag_2:\n      0x00\n      dup1\n      revert\n        /* \"node_modules/@openzeppelin/contracts/token/ERC20/ERC20.sol\":2074:2163  function name() public view virtual returns (string memory) {... */\n    tag_3:\n      tag_23\n      tag_24\n      jump\t// in\n    tag_23:\n      mload(0x40)\n      tag_25\n      swap2\n      swap1\n      tag_26\n      jump\t// in\n    tag_25:\n      mload(0x40)\n      dup1\n      swap2\n      sub\n      swap1\n      return\n        /* \"node_modules/@openzeppelin/contracts/token/ERC20/ERC20.sol\":4293:4479  function approve(address spender, uint256 value) public virtual returns (bool) {... */\n    tag_4:\n      tag_27\n      0x04\n      dup1\n      calldatasize\n      sub\n      dup2\n      add\n      swap1\n      tag_28\n      swap2\n      swap1\n      tag_29\n      jump\t// in\n    tag_28:\n      tag_30\n      jump\t// in\n    tag_27:\n      mload(0x40)\n      tag_31\n      swap2\n      swap1\n      tag_32\n      jump\t// in\n    tag_31:\n      mload(0x40)\n      dup1\n      swap2\n      sub\n      swap1\n      return\n        /* \"node_modules/@openzeppelin/contracts/token/ERC20/ERC20.sol\":3144:3241  function totalSupply() public view virtual returns (uint256) {... */\n    tag_5:\n      tag_33\n      tag_34\n      jump\t// in\n    tag_33:\n      mload(0x40)\n      tag_35\n      swap2\n      swap1\n      tag_36\n      jump\t// in\n    tag_35:\n      mload(0x40)\n      dup1\n      swap2\n      sub\n      swap1\n      return\n        /* \"contracts/ERC20subscription.sol\":2330:2872  function transferFrom(address from, address to, uint amount) public override returns (bool) {... */\n    tag_6:\n      tag_37\n      0x04\n      dup1\n      calldatasize\n      sub\n      dup2\n      add\n      swap1\n      tag_38\n      swap2\n      swap1\n      tag_39\n      jump\t// in\n    tag_38:\n      tag_40\n      jump\t// in\n    tag_37:\n      mload(0x40)\n      tag_41\n      swap2\n      swap1\n      tag_32\n      jump\t// in\n    tag_41:\n      mload(0x40)\n      dup1\n      swap2\n      sub\n      swap1\n      return\n        /* \"contracts/ERC20subscription.sol\":1814:1898  function decimals() public pure override returns (uint8) {... */\n    tag_7:\n      tag_42\n      tag_43\n      jump\t// in\n    tag_42:\n      mload(0x40)\n      tag_44\n      swap2\n      swap1\n      tag_45\n      jump\t// in\n    tag_44:\n      mload(0x40)\n      dup1\n      swap2\n      sub\n      swap1\n      return\n        /* \"node_modules/@openzeppelin/contracts/token/ERC20/ERC20.sol\":3299:3415  function balanceOf(address account) public view virtual returns (uint256) {... */\n    tag_8:\n      tag_46\n      0x04\n      dup1\n      calldatasize\n      sub\n      dup2\n      add\n      swap1\n      tag_47\n      swap2\n      swap1\n      tag_48\n      jump\t// in\n    tag_47:\n      tag_49\n      jump\t// in\n    tag_46:\n      mload(0x40)\n      tag_50\n      swap2\n      swap1\n      tag_36\n      jump\t// in\n    tag_50:\n      mload(0x40)\n      dup1\n      swap2\n      sub\n      swap1\n      return\n        /* \"node_modules/@openzeppelin/contracts/access/Ownable.sol\":2293:2394  function renounceOwnership() public virtual onlyOwner {... */\n    tag_9:\n      tag_51\n      tag_52\n      jump\t// in\n    tag_51:\n      stop\n        /* \"node_modules/@openzeppelin/contracts/access/Ownable.sol\":1638:1723  function owner() public view virtual returns (address) {... */\n    tag_10:\n      tag_53\n      tag_54\n      jump\t// in\n    tag_53:\n      mload(0x40)\n      tag_55\n      swap2\n      swap1\n      tag_56\n      jump\t// in\n    tag_55:\n      mload(0x40)\n      dup1\n      swap2\n      sub\n      swap1\n      return\n        /* \"node_modules/@openzeppelin/contracts/token/ERC20/ERC20.sol\":2276:2369  function symbol() public view virtual returns (string memory) {... */\n    tag_11:\n      tag_57\n      tag_58\n      jump\t// in\n    tag_57:\n      mload(0x40)\n      tag_59\n      swap2\n      swap1\n      tag_26\n      jump\t// in\n    tag_59:\n      mload(0x40)\n      dup1\n      swap2\n      sub\n      swap1\n      return\n        /* \"contracts/ERC20subscription.sol\":362:391  uint256 public _adminLockTime */\n    tag_12:\n      tag_60\n      tag_61\n      jump\t// in\n    tag_60:\n      mload(0x40)\n      tag_62\n      swap2\n      swap1\n      tag_36\n      jump\t// in\n    tag_62:\n      mload(0x40)\n      dup1\n      swap2\n      sub\n      swap1\n      return\n        /* \"contracts/ERC20subscription.sol\":1906:2226  function transfer(address to , uint256 amount) public override lockTimeCheck returns (bool) {... */\n    tag_13:\n      tag_63\n      0x04\n      dup1\n      calldatasize\n      sub\n      dup2\n      add\n      swap1\n      tag_64\n      swap2\n      swap1\n      tag_29\n      jump\t// in\n    tag_64:\n      tag_65\n      jump\t// in\n    tag_63:\n      mload(0x40)\n      tag_66\n      swap2\n      swap1\n      tag_32\n      jump\t// in\n    tag_66:\n      mload(0x40)\n      dup1\n      swap2\n      sub\n      swap1\n      return\n        /* \"contracts/ERC20subscription.sol\":3117:3236  function ForceBurn(address _useraddress ,uint256 amount) public onlyOwner{... */\n    tag_14:\n      tag_67\n      0x04\n      dup1\n      calldatasize\n      sub\n      dup2\n      add\n      swap1\n      tag_68\n      swap2\n      swap1\n      tag_29\n      jump\t// in\n    tag_68:\n      tag_69\n      jump\t// in\n    tag_67:\n      stop\n        /* \"contracts/ERC20subscription.sol\":2990:3109  function ForceMint(address _useraddress, uint256 amount) public onlyOwner{... */\n    tag_15:\n      tag_70\n      0x04\n      dup1\n      calldatasize\n      sub\n      dup2\n      add\n      swap1\n      tag_71\n      swap2\n      swap1\n      tag_29\n      jump\t// in\n    tag_71:\n      tag_72\n      jump\t// in\n    tag_70:\n      stop\n        /* \"contracts/ERC20subscription.sol\":2882:2982  function getDocumentURI() public view returns (string memory) {... */\n    tag_16:\n      tag_73\n      tag_74\n      jump\t// in\n    tag_73:\n      mload(0x40)\n      tag_75\n      swap2\n      swap1\n      tag_26\n      jump\t// in\n    tag_75:\n      mload(0x40)\n      dup1\n      swap2\n      sub\n      swap1\n      return\n        /* \"contracts/ERC20subscription.sol\":2234:2322  function getLockTime() public view returns (uint256) {... */\n    tag_17:\n      tag_76\n      tag_77\n      jump\t// in\n    tag_76:\n      mload(0x40)\n      tag_78\n      swap2\n      swap1\n      tag_36\n      jump\t// in\n    tag_78:\n      mload(0x40)\n      dup1\n      swap2\n      sub\n      swap1\n      return\n        /* \"node_modules/@openzeppelin/contracts/token/ERC20/ERC20.sol\":3846:3986  function allowance(address owner, address spender) public view virtual returns (uint256) {... */\n    tag_18:\n      tag_79\n      0x04\n      dup1\n      calldatasize\n      sub\n      dup2\n      add\n      swap1\n      tag_80\n      swap2\n      swap1\n      tag_81\n      jump\t// in\n    tag_80:\n      tag_82\n      jump\t// in\n    tag_79:\n      mload(0x40)\n      tag_83\n      swap2\n      swap1\n      tag_36\n      jump\t// in\n    tag_83:\n      mload(0x40)\n      dup1\n      swap2\n      sub\n      swap1\n      return\n        /* \"node_modules/@openzeppelin/contracts/access/Ownable.sol\":2543:2758  function transferOwnership(address newOwner) public virtual onlyOwner {... */\n    tag_19:\n      tag_84\n      0x04\n      dup1\n      calldatasize\n      sub\n      dup2\n      add\n      swap1\n      tag_85\n      swap2\n      swap1\n      tag_48\n      jump\t// in\n    tag_85:\n      tag_86\n      jump\t// in\n    tag_84:\n      stop\n        /* \"node_modules/@openzeppelin/contracts/token/ERC20/ERC20.sol\":2074:2163  function name() public view virtual returns (string memory) {... */\n    tag_24:\n        /* \"node_modules/@openzeppelin/contracts/token/ERC20/ERC20.sol\":2119:2132  string memory */\n      0x60\n        /* \"node_modules/@openzeppelin/contracts/token/ERC20/ERC20.sol\":2151:2156  _name */\n      0x03\n        /* \"node_modules/@openzeppelin/contracts/token/ERC20/ERC20.sol\":2144:2156  return _name */\n      dup1\n      sload\n      tag_88\n      swap1\n      tag_89\n      jump\t// in\n    tag_88:\n      dup1\n      0x1f\n      add\n      0x20\n      dup1\n      swap2\n      div\n      mul\n      0x20\n      add\n      mload(0x40)\n      swap1\n      dup2\n      add\n      0x40\n      mstore\n      dup1\n      swap3\n      swap2\n      swap1\n      dup2\n      dup2\n      mstore\n      0x20\n      add\n      dup3\n      dup1\n      sload\n      tag_90\n      swap1\n      tag_89\n      jump\t// in\n    tag_90:\n      dup1\n      iszero\n      tag_91\n      jumpi\n      dup1\n      0x1f\n      lt\n      tag_92\n      jumpi\n      0x0100\n      dup1\n      dup4\n      sload\n      div\n      mul\n      dup4\n      mstore\n      swap2\n      0x20\n      add\n      swap2\n      jump(tag_91)\n    tag_92:\n      dup3\n      add\n      swap2\n      swap1\n      0x00\n      mstore\n      keccak256(0x00, 0x20)\n      swap1\n    tag_93:\n      dup2\n      sload\n      dup2\n      mstore\n      swap1\n      0x01\n      add\n      swap1\n      0x20\n      add\n      dup1\n      dup4\n      gt\n      tag_93\n      jumpi\n      dup3\n      swap1\n      sub\n      0x1f\n      and\n      dup3\n      add\n      swap2\n    tag_91:\n      pop\n      pop\n      pop\n      pop\n      pop\n      swap1\n      pop\n        /* \"node_modules/@openzeppelin/contracts/token/ERC20/ERC20.sol\":2074:2163  function name() public view virtual returns (string memory) {... */\n      swap1\n      jump\t// out\n        /* \"node_modules/@openzeppelin/contracts/token/ERC20/ERC20.sol\":4293:4479  function approve(address spender, uint256 value) public virtual returns (bool) {... */\n    tag_30:\n        /* \"node_modules/@openzeppelin/contracts/token/ERC20/ERC20.sol\":4366:4370  bool */\n      0x00\n        /* \"node_modules/@openzeppelin/contracts/token/ERC20/ERC20.sol\":4382:4395  address owner */\n      dup1\n        /* \"node_modules/@openzeppelin/contracts/token/ERC20/ERC20.sol\":4398:4410  _msgSender() */\n      tag_95\n        /* \"node_modules/@openzeppelin/contracts/token/ERC20/ERC20.sol\":4398:4408  _msgSender */\n      tag_96\n        /* \"node_modules/@openzeppelin/contracts/token/ERC20/ERC20.sol\":4398:4410  _msgSender() */\n      jump\t// in\n    tag_95:\n        /* \"node_modules/@openzeppelin/contracts/token/ERC20/ERC20.sol\":4382:4410  address owner = _msgSender() */\n      swap1\n      pop\n        /* \"node_modules/@openzeppelin/contracts/token/ERC20/ERC20.sol\":4420:4451  _approve(owner, spender, value) */\n      tag_97\n        /* \"node_modules/@openzeppelin/contracts/token/ERC20/ERC20.sol\":4429:4434  owner */\n      dup2\n        /* \"node_modules/@openzeppelin/contracts/token/ERC20/ERC20.sol\":4436:4443  spender */\n      dup6\n        /* \"node_modules/@openzeppelin/contracts/token/ERC20/ERC20.sol\":4445:4450  value */\n      dup6\n        /* \"node_modules/@openzeppelin/contracts/token/ERC20/ERC20.sol\":4420:4428  _approve */\n      tag_98\n        /* \"node_modules/@openzeppelin/contracts/token/ERC20/ERC20.sol\":4420:4451  _approve(owner, spender, value) */\n      jump\t// in\n    tag_97:\n        /* \"node_modules/@openzeppelin/contracts/token/ERC20/ERC20.sol\":4468:4472  true */\n      0x01\n        /* \"node_modules/@openzeppelin/contracts/token/ERC20/ERC20.sol\":4461:4472  return true */\n      swap2\n      pop\n      pop\n        /* \"node_modules/@openzeppelin/contracts/token/ERC20/ERC20.sol\":4293:4479  function approve(address spender, uint256 value) public virtual returns (bool) {... */\n      swap3\n      swap2\n      pop\n      pop\n      jump\t// out\n        /* \"node_modules/@openzeppelin/contracts/token/ERC20/ERC20.sol\":3144:3241  function totalSupply() public view virtual returns (uint256) {... */\n    tag_34:\n        /* \"node_modules/@openzeppelin/contracts/token/ERC20/ERC20.sol\":3196:3203  uint256 */\n      0x00\n        /* \"node_modules/@openzeppelin/contracts/token/ERC20/ERC20.sol\":3222:3234  _totalSupply */\n      sload(0x02)\n        /* \"node_modules/@openzeppelin/contracts/token/ERC20/ERC20.sol\":3215:3234  return _totalSupply */\n      swap1\n      pop\n        /* \"node_modules/@openzeppelin/contracts/token/ERC20/ERC20.sol\":3144:3241  function totalSupply() public view virtual returns (uint256) {... */\n      swap1\n      jump\t// out\n        /* \"contracts/ERC20subscription.sol\":2330:2872  function transferFrom(address from, address to, uint amount) public override returns (bool) {... */\n    tag_40:\n        /* \"contracts/ERC20subscription.sol\":2416:2420  bool */\n      0x00\n        /* \"contracts/ERC20subscription.sol\":2444:2451  owner() */\n      tag_101\n        /* \"contracts/ERC20subscription.sol\":2444:2449  owner */\n      tag_54\n        /* \"contracts/ERC20subscription.sol\":2444:2451  owner() */\n      jump\t// in\n    tag_101:\n        /* \"contracts/ERC20subscription.sol\":2436:2451  from == owner() */\n      0xffffffffffffffffffffffffffffffffffffffff\n      and\n        /* \"contracts/ERC20subscription.sol\":2436:2440  from */\n      dup5\n        /* \"contracts/ERC20subscription.sol\":2436:2451  from == owner() */\n      0xffffffffffffffffffffffffffffffffffffffff\n      and\n      sub\n        /* \"contracts/ERC20subscription.sol\":2433:2634  if(from == owner()) {... */\n      tag_102\n      jumpi\n        /* \"contracts/ERC20subscription.sol\":2491:2505  _adminLockTime */\n      sload(0x09)\n        /* \"contracts/ERC20subscription.sol\":2472:2487  block.timestamp */\n      timestamp\n        /* \"contracts/ERC20subscription.sol\":2472:2505  block.timestamp >= _adminLockTime */\n      lt\n      iszero\n        /* \"contracts/ERC20subscription.sol\":2464:2535  require(block.timestamp >= _adminLockTime, \"Admin's tokens are locked\") */\n      tag_103\n      jumpi\n      mload(0x40)\n      0x08c379a000000000000000000000000000000000000000000000000000000000\n      dup2\n      mstore\n      0x04\n      add\n      tag_104\n      swap1\n      tag_105\n      jump\t// in\n    tag_104:\n      mload(0x40)\n      dup1\n      swap2\n      sub\n      swap1\n      revert\n    tag_103:\n        /* \"contracts/ERC20subscription.sol\":2433:2634  if(from == owner()) {... */\n      jump(tag_106)\n    tag_102:\n        /* \"contracts/ERC20subscription.sol\":2591:2600  _lockTime */\n      sload(0x08)\n        /* \"contracts/ERC20subscription.sol\":2572:2587  block.timestamp */\n      timestamp\n        /* \"contracts/ERC20subscription.sol\":2572:2600  block.timestamp >= _lockTime */\n      lt\n      iszero\n        /* \"contracts/ERC20subscription.sol\":2564:2622  require(block.timestamp >= _lockTime, \"Tokens are locked\") */\n      tag_107\n      jumpi\n      mload(0x40)\n      0x08c379a000000000000000000000000000000000000000000000000000000000\n      dup2\n      mstore\n      0x04\n      add\n      tag_108\n      swap1\n      tag_109\n      jump\t// in\n    tag_108:\n      mload(0x40)\n      dup1\n      swap2\n      sub\n      swap1\n      revert\n    tag_107:\n        /* \"contracts/ERC20subscription.sol\":2433:2634  if(from == owner()) {... */\n    tag_106:\n        /* \"contracts/ERC20subscription.sol\":2644:2667  uint256 newTotalBalance */\n      0x00\n        /* \"contracts/ERC20subscription.sol\":2686:2692  amount */\n      dup3\n        /* \"contracts/ERC20subscription.sol\":2670:2683  balanceOf(to) */\n      tag_110\n        /* \"contracts/ERC20subscription.sol\":2680:2682  to */\n      dup6\n        /* \"contracts/ERC20subscription.sol\":2670:2679  balanceOf */\n      tag_49\n        /* \"contracts/ERC20subscription.sol\":2670:2683  balanceOf(to) */\n      jump\t// in\n    tag_110:\n        /* \"contracts/ERC20subscription.sol\":2670:2692  balanceOf(to) + amount */\n      tag_111\n      swap2\n      swap1\n      tag_112\n      jump\t// in\n    tag_111:\n        /* \"contracts/ERC20subscription.sol\":2644:2692  uint256 newTotalBalance = balanceOf(to) + amount */\n      swap1\n      pop\n        /* \"contracts/ERC20subscription.sol\":2752:2755  100 */\n      0x64\n        /* \"contracts/ERC20subscription.sol\":2735:2748  totalSupply() */\n      tag_113\n        /* \"contracts/ERC20subscription.sol\":2735:2746  totalSupply */\n      tag_34\n        /* \"contracts/ERC20subscription.sol\":2735:2748  totalSupply() */\n      jump\t// in\n    tag_113:\n        /* \"contracts/ERC20subscription.sol\":2730:2732  20 */\n      0x14\n        /* \"contracts/ERC20subscription.sol\":2730:2748  20 * totalSupply() */\n      tag_114\n      swap2\n      swap1\n      tag_115\n      jump\t// in\n    tag_114:\n        /* \"contracts/ERC20subscription.sol\":2729:2755  (20 * totalSupply()) / 100 */\n      tag_116\n      swap2\n      swap1\n      tag_117\n      jump\t// in\n    tag_116:\n        /* \"contracts/ERC20subscription.sol\":2711:2726  newTotalBalance */\n      dup2\n        /* \"contracts/ERC20subscription.sol\":2711:2755  newTotalBalance < (20 * totalSupply()) / 100 */\n      lt\n        /* \"contracts/ERC20subscription.sol\":2703:2810  require(newTotalBalance < (20 * totalSupply()) / 100, \"Ownership capped at 20% to ensure decentralization\") */\n      tag_118\n      jumpi\n      mload(0x40)\n      0x08c379a000000000000000000000000000000000000000000000000000000000\n      dup2\n      mstore\n      0x04\n      add\n      tag_119\n      swap1\n      tag_120\n      jump\t// in\n    tag_119:\n      mload(0x40)\n      dup1\n      swap2\n      sub\n      swap1\n      revert\n    tag_118:\n        /* \"contracts/ERC20subscription.sol\":2828:2864  super.transferFrom(from, to, amount) */\n      tag_121\n        /* \"contracts/ERC20subscription.sol\":2847:2851  from */\n      dup6\n        /* \"contracts/ERC20subscription.sol\":2853:2855  to */\n      dup6\n        /* \"contracts/ERC20subscription.sol\":2857:2863  amount */\n      dup6\n        /* \"contracts/ERC20subscription.sol\":2828:2846  super.transferFrom */\n      tag_122\n        /* \"contracts/ERC20subscription.sol\":2828:2864  super.transferFrom(from, to, amount) */\n      jump\t// in\n    tag_121:\n        /* \"contracts/ERC20subscription.sol\":2821:2864  return super.transferFrom(from, to, amount) */\n      swap2\n      pop\n      pop\n        /* \"contracts/ERC20subscription.sol\":2330:2872  function transferFrom(address from, address to, uint amount) public override returns (bool) {... */\n      swap4\n      swap3\n      pop\n      pop\n      pop\n      jump\t// out\n        /* \"contracts/ERC20subscription.sol\":1814:1898  function decimals() public pure override returns (uint8) {... */\n    tag_43:\n        /* \"contracts/ERC20subscription.sol\":1864:1869  uint8 */\n      0x00\n        /* \"contracts/ERC20subscription.sol\":1814:1898  function decimals() public pure override returns (uint8) {... */\n      swap1\n      jump\t// out\n        /* \"node_modules/@openzeppelin/contracts/token/ERC20/ERC20.sol\":3299:3415  function balanceOf(address account) public view virtual returns (uint256) {... */\n    tag_49:\n        /* \"node_modules/@openzeppelin/contracts/token/ERC20/ERC20.sol\":3364:3371  uint256 */\n      0x00\n        /* \"node_modules/@openzeppelin/contracts/token/ERC20/ERC20.sol\":3390:3399  _balances */\n      dup1\n        /* \"node_modules/@openzeppelin/contracts/token/ERC20/ERC20.sol\":3390:3408  _balances[account] */\n      0x00\n        /* \"node_modules/@openzeppelin/contracts/token/ERC20/ERC20.sol\":3400:3407  account */\n      dup4\n        /* \"node_modules/@openzeppelin/contracts/token/ERC20/ERC20.sol\":3390:3408  _balances[account] */\n      0xffffffffffffffffffffffffffffffffffffffff\n      and\n      0xffffffffffffffffffffffffffffffffffffffff\n      and\n      dup2\n      mstore\n      0x20\n      add\n      swap1\n      dup2\n      mstore\n      0x20\n      add\n      0x00\n      keccak256\n      sload\n        /* \"node_modules/@openzeppelin/contracts/token/ERC20/ERC20.sol\":3383:3408  return _balances[account] */\n      swap1\n      pop\n        /* \"node_modules/@openzeppelin/contracts/token/ERC20/ERC20.sol\":3299:3415  function balanceOf(address account) public view virtual returns (uint256) {... */\n      swap2\n      swap1\n      pop\n      jump\t// out\n        /* \"node_modules/@openzeppelin/contracts/access/Ownable.sol\":2293:2394  function renounceOwnership() public virtual onlyOwner {... */\n    tag_52:\n        /* \"node_modules/@openzeppelin/contracts/access/Ownable.sol\":1531:1544  _checkOwner() */\n      tag_126\n        /* \"node_modules/@openzeppelin/contracts/access/Ownable.sol\":1531:1542  _checkOwner */\n      tag_127\n        /* \"node_modules/@openzeppelin/contracts/access/Ownable.sol\":1531:1544  _checkOwner() */\n      jump\t// in\n    tag_126:\n        /* \"node_modules/@openzeppelin/contracts/access/Ownable.sol\":2357:2387  _transferOwnership(address(0)) */\n      tag_129\n        /* \"node_modules/@openzeppelin/contracts/access/Ownable.sol\":2384:2385  0 */\n      0x00\n        /* \"node_modules/@openzeppelin/contracts/access/Ownable.sol\":2357:2375  _transferOwnership */\n      tag_130\n        /* \"node_modules/@openzeppelin/contracts/access/Ownable.sol\":2357:2387  _transferOwnership(address(0)) */\n      jump\t// in\n    tag_129:\n        /* \"node_modules/@openzeppelin/contracts/access/Ownable.sol\":2293:2394  function renounceOwnership() public virtual onlyOwner {... */\n      jump\t// out\n        /* \"node_modules/@openzeppelin/contracts/access/Ownable.sol\":1638:1723  function owner() public view virtual returns (address) {... */\n    tag_54:\n        /* \"node_modules/@openzeppelin/contracts/access/Ownable.sol\":1684:1691  address */\n      0x00\n        /* \"node_modules/@openzeppelin/contracts/access/Ownable.sol\":1710:1716  _owner */\n      0x05\n      0x00\n      swap1\n      sload\n      swap1\n      0x0100\n      exp\n      swap1\n      div\n      0xffffffffffffffffffffffffffffffffffffffff\n      and\n        /* \"node_modules/@openzeppelin/contracts/access/Ownable.sol\":1703:1716  return _owner */\n      swap1\n      pop\n        /* \"node_modules/@openzeppelin/contracts/access/Ownable.sol\":1638:1723  function owner() public view virtual returns (address) {... */\n      swap1\n      jump\t// out\n        /* \"node_modules/@openzeppelin/contracts/token/ERC20/ERC20.sol\":2276:2369  function symbol() public view virtual returns (string memory) {... */\n    tag_58:\n        /* \"node_modules/@openzeppelin/contracts/token/ERC20/ERC20.sol\":2323:2336  string memory */\n      0x60\n        /* \"node_modules/@openzeppelin/contracts/token/ERC20/ERC20.sol\":2355:2362  _symbol */\n      0x04\n        /* \"node_modules/@openzeppelin/contracts/token/ERC20/ERC20.sol\":2348:2362  return _symbol */\n      dup1\n      sload\n      tag_133\n      swap1\n      tag_89\n      jump\t// in\n    tag_133:\n      dup1\n      0x1f\n      add\n      0x20\n      dup1\n      swap2\n      div\n      mul\n      0x20\n      add\n      mload(0x40)\n      swap1\n      dup2\n      add\n      0x40\n      mstore\n      dup1\n      swap3\n      swap2\n      swap1\n      dup2\n      dup2\n      mstore\n      0x20\n      add\n      dup3\n      dup1\n      sload\n      tag_134\n      swap1\n      tag_89\n      jump\t// in\n    tag_134:\n      dup1\n      iszero\n      tag_135\n      jumpi\n      dup1\n      0x1f\n      lt\n      tag_136\n      jumpi\n      0x0100\n      dup1\n      dup4\n      sload\n      div\n      mul\n      dup4\n      mstore\n      swap2\n      0x20\n      add\n      swap2\n      jump(tag_135)\n    tag_136:\n      dup3\n      add\n      swap2\n      swap1\n      0x00\n      mstore\n      keccak256(0x00, 0x20)\n      swap1\n    tag_137:\n      dup2\n      sload\n      dup2\n      mstore\n      swap1\n      0x01\n      add\n      swap1\n      0x20\n      add\n      dup1\n      dup4\n      gt\n      tag_137\n      jumpi\n      dup3\n      swap1\n      sub\n      0x1f\n      and\n      dup3\n      add\n      swap2\n    tag_135:\n      pop\n      pop\n      pop\n      pop\n      pop\n      swap1\n      pop\n        /* \"node_modules/@openzeppelin/contracts/token/ERC20/ERC20.sol\":2276:2369  function symbol() public view virtual returns (string memory) {... */\n      swap1\n      jump\t// out\n        /* \"contracts/ERC20subscription.sol\":362:391  uint256 public _adminLockTime */\n    tag_61:\n      sload(0x09)\n      dup2\n      jump\t// out\n        /* \"contracts/ERC20subscription.sol\":1906:2226  function transfer(address to , uint256 amount) public override lockTimeCheck returns (bool) {... */\n    tag_65:\n        /* \"contracts/ERC20subscription.sol\":1992:1996  bool */\n      0x00\n        /* \"contracts/ERC20subscription.sol\":486:493  owner() */\n      tag_139\n        /* \"contracts/ERC20subscription.sol\":486:491  owner */\n      tag_54\n        /* \"contracts/ERC20subscription.sol\":486:493  owner() */\n      jump\t// in\n    tag_139:\n        /* \"contracts/ERC20subscription.sol\":472:493  msg.sender == owner() */\n      0xffffffffffffffffffffffffffffffffffffffff\n      and\n        /* \"contracts/ERC20subscription.sol\":472:482  msg.sender */\n      caller\n        /* \"contracts/ERC20subscription.sol\":472:493  msg.sender == owner() */\n      0xffffffffffffffffffffffffffffffffffffffff\n      and\n      sub\n        /* \"contracts/ERC20subscription.sol\":469:604  if(msg.sender == owner()){... */\n      tag_140\n      jumpi\n        /* \"contracts/ERC20subscription.sol\":536:550  _adminLockTime */\n      sload(0x09)\n        /* \"contracts/ERC20subscription.sol\":517:532  block.timestamp */\n      timestamp\n        /* \"contracts/ERC20subscription.sol\":517:550  block.timestamp >= _adminLockTime */\n      lt\n      iszero\n        /* \"contracts/ERC20subscription.sol\":509:592  require(block.timestamp >= _adminLockTime, \"admin's tokens are locked for an year\") */\n      tag_141\n      jumpi\n      mload(0x40)\n      0x08c379a000000000000000000000000000000000000000000000000000000000\n      dup2\n      mstore\n      0x04\n      add\n      tag_142\n      swap1\n      tag_143\n      jump\t// in\n    tag_142:\n      mload(0x40)\n      dup1\n      swap2\n      sub\n      swap1\n      revert\n    tag_141:\n        /* \"contracts/ERC20subscription.sol\":469:604  if(msg.sender == owner()){... */\n    tag_140:\n        /* \"contracts/ERC20subscription.sol\":641:650  _lockTime */\n      sload(0x08)\n        /* \"contracts/ERC20subscription.sol\":622:637  block.timestamp */\n      timestamp\n        /* \"contracts/ERC20subscription.sol\":622:650  block.timestamp >= _lockTime */\n      lt\n      iszero\n        /* \"contracts/ERC20subscription.sol\":614:672  require(block.timestamp >= _lockTime , \"not for sale yet\") */\n      tag_144\n      jumpi\n      mload(0x40)\n      0x08c379a000000000000000000000000000000000000000000000000000000000\n      dup2\n      mstore\n      0x04\n      add\n      tag_145\n      swap1\n      tag_146\n      jump\t// in\n    tag_145:\n      mload(0x40)\n      dup1\n      swap2\n      sub\n      swap1\n      revert\n    tag_144:\n        /* \"contracts/ERC20subscription.sol\":2009:2032  uint256 newTotalBalance */\n      0x00\n        /* \"contracts/ERC20subscription.sol\":2051:2057  amount */\n      dup3\n        /* \"contracts/ERC20subscription.sol\":2035:2048  balanceOf(to) */\n      tag_148\n        /* \"contracts/ERC20subscription.sol\":2045:2047  to */\n      dup6\n        /* \"contracts/ERC20subscription.sol\":2035:2044  balanceOf */\n      tag_49\n        /* \"contracts/ERC20subscription.sol\":2035:2048  balanceOf(to) */\n      jump\t// in\n    tag_148:\n        /* \"contracts/ERC20subscription.sol\":2035:2057  balanceOf(to) + amount */\n      tag_149\n      swap2\n      swap1\n      tag_112\n      jump\t// in\n    tag_149:\n        /* \"contracts/ERC20subscription.sol\":2009:2057  uint256 newTotalBalance = balanceOf(to) + amount */\n      swap1\n      pop\n        /* \"contracts/ERC20subscription.sol\":2117:2120  100 */\n      0x64\n        /* \"contracts/ERC20subscription.sol\":2100:2113  totalSupply() */\n      tag_150\n        /* \"contracts/ERC20subscription.sol\":2100:2111  totalSupply */\n      tag_34\n        /* \"contracts/ERC20subscription.sol\":2100:2113  totalSupply() */\n      jump\t// in\n    tag_150:\n        /* \"contracts/ERC20subscription.sol\":2095:2097  20 */\n      0x14\n        /* \"contracts/ERC20subscription.sol\":2095:2113  20 * totalSupply() */\n      tag_151\n      swap2\n      swap1\n      tag_115\n      jump\t// in\n    tag_151:\n        /* \"contracts/ERC20subscription.sol\":2094:2120  (20 * totalSupply()) / 100 */\n      tag_152\n      swap2\n      swap1\n      tag_117\n      jump\t// in\n    tag_152:\n        /* \"contracts/ERC20subscription.sol\":2076:2091  newTotalBalance */\n      dup2\n        /* \"contracts/ERC20subscription.sol\":2076:2120  newTotalBalance < (20 * totalSupply()) / 100 */\n      lt\n        /* \"contracts/ERC20subscription.sol\":2068:2175  require(newTotalBalance < (20 * totalSupply()) / 100, \"Ownership capped at 20% to ensure decentralization\") */\n      tag_153\n      jumpi\n      mload(0x40)\n      0x08c379a000000000000000000000000000000000000000000000000000000000\n      dup2\n      mstore\n      0x04\n      add\n      tag_154\n      swap1\n      tag_120\n      jump\t// in\n    tag_154:\n      mload(0x40)\n      dup1\n      swap2\n      sub\n      swap1\n      revert\n    tag_153:\n        /* \"contracts/ERC20subscription.sol\":2193:2218  super.transfer(to,amount) */\n      tag_155\n        /* \"contracts/ERC20subscription.sol\":2208:2210  to */\n      dup5\n        /* \"contracts/ERC20subscription.sol\":2211:2217  amount */\n      dup5\n        /* \"contracts/ERC20subscription.sol\":2193:2207  super.transfer */\n      tag_156\n        /* \"contracts/ERC20subscription.sol\":2193:2218  super.transfer(to,amount) */\n      jump\t// in\n    tag_155:\n        /* \"contracts/ERC20subscription.sol\":2186:2218  return super.transfer(to,amount) */\n      swap2\n      pop\n      pop\n        /* \"contracts/ERC20subscription.sol\":1906:2226  function transfer(address to , uint256 amount) public override lockTimeCheck returns (bool) {... */\n      swap3\n      swap2\n      pop\n      pop\n      jump\t// out\n        /* \"contracts/ERC20subscription.sol\":3117:3236  function ForceBurn(address _useraddress ,uint256 amount) public onlyOwner{... */\n    tag_69:\n        /* \"node_modules/@openzeppelin/contracts/access/Ownable.sol\":1531:1544  _checkOwner() */\n      tag_158\n        /* \"node_modules/@openzeppelin/contracts/access/Ownable.sol\":1531:1542  _checkOwner */\n      tag_127\n        /* \"node_modules/@openzeppelin/contracts/access/Ownable.sol\":1531:1544  _checkOwner() */\n      jump\t// in\n    tag_158:\n        /* \"contracts/ERC20subscription.sol\":3201:3228  _burn(_useraddress, amount) */\n      tag_160\n        /* \"contracts/ERC20subscription.sol\":3207:3219  _useraddress */\n      dup3\n        /* \"contracts/ERC20subscription.sol\":3221:3227  amount */\n      dup3\n        /* \"contracts/ERC20subscription.sol\":3201:3206  _burn */\n      tag_161\n        /* \"contracts/ERC20subscription.sol\":3201:3228  _burn(_useraddress, amount) */\n      jump\t// in\n    tag_160:\n        /* \"contracts/ERC20subscription.sol\":3117:3236  function ForceBurn(address _useraddress ,uint256 amount) public onlyOwner{... */\n      pop\n      pop\n      jump\t// out\n        /* \"contracts/ERC20subscription.sol\":2990:3109  function ForceMint(address _useraddress, uint256 amount) public onlyOwner{... */\n    tag_72:\n        /* \"node_modules/@openzeppelin/contracts/access/Ownable.sol\":1531:1544  _checkOwner() */\n      tag_163\n        /* \"node_modules/@openzeppelin/contracts/access/Ownable.sol\":1531:1542  _checkOwner */\n      tag_127\n        /* \"node_modules/@openzeppelin/contracts/access/Ownable.sol\":1531:1544  _checkOwner() */\n      jump\t// in\n    tag_163:\n        /* \"contracts/ERC20subscription.sol\":3074:3101  _mint(_useraddress, amount) */\n      tag_165\n        /* \"contracts/ERC20subscription.sol\":3080:3092  _useraddress */\n      dup3\n        /* \"contracts/ERC20subscription.sol\":3094:3100  amount */\n      dup3\n        /* \"contracts/ERC20subscription.sol\":3074:3079  _mint */\n      tag_166\n        /* \"contracts/ERC20subscription.sol\":3074:3101  _mint(_useraddress, amount) */\n      jump\t// in\n    tag_165:\n        /* \"contracts/ERC20subscription.sol\":2990:3109  function ForceMint(address _useraddress, uint256 amount) public onlyOwner{... */\n      pop\n      pop\n      jump\t// out\n        /* \"contracts/ERC20subscription.sol\":2882:2982  function getDocumentURI() public view returns (string memory) {... */\n    tag_74:\n        /* \"contracts/ERC20subscription.sol\":2929:2942  string memory */\n      0x60\n        /* \"contracts/ERC20subscription.sol\":2962:2974  _documentURI */\n      0x0a\n        /* \"contracts/ERC20subscription.sol\":2955:2974  return _documentURI */\n      dup1\n      sload\n      tag_168\n      swap1\n      tag_89\n      jump\t// in\n    tag_168:\n      dup1\n      0x1f\n      add\n      0x20\n      dup1\n      swap2\n      div\n      mul\n      0x20\n      add\n      mload(0x40)\n      swap1\n      dup2\n      add\n      0x40\n      mstore\n      dup1\n      swap3\n      swap2\n      swap1\n      dup2\n      dup2\n      mstore\n      0x20\n      add\n      dup3\n      dup1\n      sload\n      tag_169\n      swap1\n      tag_89\n      jump\t// in\n    tag_169:\n      dup1\n      iszero\n      tag_170\n      jumpi\n      dup1\n      0x1f\n      lt\n      tag_171\n      jumpi\n      0x0100\n      dup1\n      dup4\n      sload\n      div\n      mul\n      dup4\n      mstore\n      swap2\n      0x20\n      add\n      swap2\n      jump(tag_170)\n    tag_171:\n      dup3\n      add\n      swap2\n      swap1\n      0x00\n      mstore\n      keccak256(0x00, 0x20)\n      swap1\n    tag_172:\n      dup2\n      sload\n      dup2\n      mstore\n      swap1\n      0x01\n      add\n      swap1\n      0x20\n      add\n      dup1\n      dup4\n      gt\n      tag_172\n      jumpi\n      dup3\n      swap1\n      sub\n      0x1f\n      and\n      dup3\n      add\n      swap2\n    tag_170:\n      pop\n      pop\n      pop\n      pop\n      pop\n      swap1\n      pop\n        /* \"contracts/ERC20subscription.sol\":2882:2982  function getDocumentURI() public view returns (string memory) {... */\n      swap1\n      jump\t// out\n        /* \"contracts/ERC20subscription.sol\":2234:2322  function getLockTime() public view returns (uint256) {... */\n    tag_77:\n        /* \"contracts/ERC20subscription.sol\":2278:2285  uint256 */\n      0x00\n        /* \"contracts/ERC20subscription.sol\":2305:2314  _lockTime */\n      sload(0x08)\n        /* \"contracts/ERC20subscription.sol\":2298:2314  return _lockTime */\n      swap1\n      pop\n        /* \"contracts/ERC20subscription.sol\":2234:2322  function getLockTime() public view returns (uint256) {... */\n      swap1\n      jump\t// out\n        /* \"node_modules/@openzeppelin/contracts/token/ERC20/ERC20.sol\":3846:3986  function allowance(address owner, address spender) public view virtual returns (uint256) {... */\n    tag_82:\n        /* \"node_modules/@openzeppelin/contracts/token/ERC20/ERC20.sol\":3926:3933  uint256 */\n      0x00\n        /* \"node_modules/@openzeppelin/contracts/token/ERC20/ERC20.sol\":3952:3963  _allowances */\n      0x01\n        /* \"node_modules/@openzeppelin/contracts/token/ERC20/ERC20.sol\":3952:3970  _allowances[owner] */\n      0x00\n        /* \"node_modules/@openzeppelin/contracts/token/ERC20/ERC20.sol\":3964:3969  owner */\n      dup5\n        /* \"node_modules/@openzeppelin/contracts/token/ERC20/ERC20.sol\":3952:3970  _allowances[owner] */\n      0xffffffffffffffffffffffffffffffffffffffff\n      and\n      0xffffffffffffffffffffffffffffffffffffffff\n      and\n      dup2\n      mstore\n      0x20\n      add\n      swap1\n      dup2\n      mstore\n      0x20\n      add\n      0x00\n      keccak256\n        /* \"node_modules/@openzeppelin/contracts/token/ERC20/ERC20.sol\":3952:3979  _allowances[owner][spender] */\n      0x00\n        /* \"node_modules/@openzeppelin/contracts/token/ERC20/ERC20.sol\":3971:3978  spender */\n      dup4\n        /* \"node_modules/@openzeppelin/contracts/token/ERC20/ERC20.sol\":3952:3979  _allowances[owner][spender] */\n      0xffffffffffffffffffffffffffffffffffffffff\n      and\n      0xffffffffffffffffffffffffffffffffffffffff\n      and\n      dup2\n      mstore\n      0x20\n      add\n      swap1\n      dup2\n      mstore\n      0x20\n      add\n      0x00\n      keccak256\n      sload\n        /* \"node_modules/@openzeppelin/contracts/token/ERC20/ERC20.sol\":3945:3979  return _allowances[owner][spender] */\n      swap1\n      pop\n        /* \"node_modules/@openzeppelin/contracts/token/ERC20/ERC20.sol\":3846:3986  function allowance(address owner, address spender) public view virtual returns (uint256) {... */\n      swap3\n      swap2\n      pop\n      pop\n      jump\t// out\n        /* \"node_modules/@openzeppelin/contracts/access/Ownable.sol\":2543:2758  function transferOwnership(address newOwner) public virtual onlyOwner {... */\n    tag_86:\n        /* \"node_modules/@openzeppelin/contracts/access/Ownable.sol\":1531:1544  _checkOwner() */\n      tag_176\n        /* \"node_modules/@openzeppelin/contracts/access/Ownable.sol\":1531:1542  _checkOwner */\n      tag_127\n        /* \"node_modules/@openzeppelin/contracts/access/Ownable.sol\":1531:1544  _checkOwner() */\n      jump\t// in\n    tag_176:\n        /* \"node_modules/@openzeppelin/contracts/access/Ownable.sol\":2647:2648  0 */\n      0x00\n        /* \"node_modules/@openzeppelin/contracts/access/Ownable.sol\":2627:2649  newOwner == address(0) */\n      0xffffffffffffffffffffffffffffffffffffffff\n      and\n        /* \"node_modules/@openzeppelin/contracts/access/Ownable.sol\":2627:2635  newOwner */\n      dup2\n        /* \"node_modules/@openzeppelin/contracts/access/Ownable.sol\":2627:2649  newOwner == address(0) */\n      0xffffffffffffffffffffffffffffffffffffffff\n      and\n      sub\n        /* \"node_modules/@openzeppelin/contracts/access/Ownable.sol\":2623:2714  if (newOwner == address(0)) {... */\n      tag_178\n      jumpi\n        /* \"node_modules/@openzeppelin/contracts/access/Ownable.sol\":2700:2701  0 */\n      0x00\n        /* \"node_modules/@openzeppelin/contracts/access/Ownable.sol\":2672:2703  OwnableInvalidOwner(address(0)) */\n      mload(0x40)\n      0x1e4fbdf700000000000000000000000000000000000000000000000000000000\n      dup2\n      mstore\n      0x04\n      add\n      tag_179\n      swap2\n      swap1\n      tag_56\n      jump\t// in\n    tag_179:\n      mload(0x40)\n      dup1\n      swap2\n      sub\n      swap1\n      revert\n        /* \"node_modules/@openzeppelin/contracts/access/Ownable.sol\":2623:2714  if (newOwner == address(0)) {... */\n    tag_178:\n        /* \"node_modules/@openzeppelin/contracts/access/Ownable.sol\":2723:2751  _transferOwnership(newOwner) */\n      tag_180\n        /* \"node_modules/@openzeppelin/contracts/access/Ownable.sol\":2742:2750  newOwner */\n      dup2\n        /* \"node_modules/@openzeppelin/contracts/access/Ownable.sol\":2723:2741  _transferOwnership */\n      tag_130\n        /* \"node_modules/@openzeppelin/contracts/access/Ownable.sol\":2723:2751  _transferOwnership(newOwner) */\n      jump\t// in\n    tag_180:\n        /* \"node_modules/@openzeppelin/contracts/access/Ownable.sol\":2543:2758  function transferOwnership(address newOwner) public virtual onlyOwner {... */\n      pop\n      jump\t// out\n        /* \"node_modules/@openzeppelin/contracts/utils/Context.sol\":656:752  function _msgSender() internal view virtual returns (address) {... */\n    tag_96:\n        /* \"node_modules/@openzeppelin/contracts/utils/Context.sol\":709:716  address */\n      0x00\n        /* \"node_modules/@openzeppelin/contracts/utils/Context.sol\":735:745  msg.sender */\n      caller\n        /* \"node_modules/@openzeppelin/contracts/utils/Context.sol\":728:745  return msg.sender */\n      swap1\n      pop\n        /* \"node_modules/@openzeppelin/contracts/utils/Context.sol\":656:752  function _msgSender() internal view virtual returns (address) {... */\n      swap1\n      jump\t// out\n        /* \"node_modules/@openzeppelin/contracts/token/ERC20/ERC20.sol\":8989:9117  function _approve(address owner, address spender, uint256 value) internal {... */\n    tag_98:\n        /* \"node_modules/@openzeppelin/contracts/token/ERC20/ERC20.sol\":9073:9110  _approve(owner, spender, value, true) */\n      tag_183\n        /* \"node_modules/@openzeppelin/contracts/token/ERC20/ERC20.sol\":9082:9087  owner */\n      dup4\n        /* \"node_modules/@openzeppelin/contracts/token/ERC20/ERC20.sol\":9089:9096  spender */\n      dup4\n        /* \"node_modules/@openzeppelin/contracts/token/ERC20/ERC20.sol\":9098:9103  value */\n      dup4\n        /* \"node_modules/@openzeppelin/contracts/token/ERC20/ERC20.sol\":9105:9109  true */\n      0x01\n        /* \"node_modules/@openzeppelin/contracts/token/ERC20/ERC20.sol\":9073:9081  _approve */\n      tag_184\n        /* \"node_modules/@openzeppelin/contracts/token/ERC20/ERC20.sol\":9073:9110  _approve(owner, spender, value, true) */\n      jump\t// in\n    tag_183:\n        /* \"node_modules/@openzeppelin/contracts/token/ERC20/ERC20.sol\":8989:9117  function _approve(address owner, address spender, uint256 value) internal {... */\n      pop\n      pop\n      pop\n      jump\t// out\n        /* \"node_modules/@openzeppelin/contracts/token/ERC20/ERC20.sol\":5039:5283  function transferFrom(address from, address to, uint256 value) public virtual returns (bool) {... */\n    tag_122:\n        /* \"node_modules/@openzeppelin/contracts/token/ERC20/ERC20.sol\":5126:5130  bool */\n      0x00\n        /* \"node_modules/@openzeppelin/contracts/token/ERC20/ERC20.sol\":5142:5157  address spender */\n      dup1\n        /* \"node_modules/@openzeppelin/contracts/token/ERC20/ERC20.sol\":5160:5172  _msgSender() */\n      tag_186\n        /* \"node_modules/@openzeppelin/contracts/token/ERC20/ERC20.sol\":5160:5170  _msgSender */\n      tag_96\n        /* \"node_modules/@openzeppelin/contracts/token/ERC20/ERC20.sol\":5160:5172  _msgSender() */\n      jump\t// in\n    tag_186:\n        /* \"node_modules/@openzeppelin/contracts/token/ERC20/ERC20.sol\":5142:5172  address spender = _msgSender() */\n      swap1\n      pop\n        /* \"node_modules/@openzeppelin/contracts/token/ERC20/ERC20.sol\":5182:5219  _spendAllowance(from, spender, value) */\n      tag_187\n        /* \"node_modules/@openzeppelin/contracts/token/ERC20/ERC20.sol\":5198:5202  from */\n      dup6\n        /* \"node_modules/@openzeppelin/contracts/token/ERC20/ERC20.sol\":5204:5211  spender */\n      dup3\n        /* \"node_modules/@openzeppelin/contracts/token/ERC20/ERC20.sol\":5213:5218  value */\n      dup6\n        /* \"node_modules/@openzeppelin/contracts/token/ERC20/ERC20.sol\":5182:5197  _spendAllowance */\n      tag_188\n        /* \"node_modules/@openzeppelin/contracts/token/ERC20/ERC20.sol\":5182:5219  _spendAllowance(from, spender, value) */\n      jump\t// in\n    tag_187:\n        /* \"node_modules/@openzeppelin/contracts/token/ERC20/ERC20.sol\":5229:5255  _transfer(from, to, value) */\n      tag_189\n        /* \"node_modules/@openzeppelin/contracts/token/ERC20/ERC20.sol\":5239:5243  from */\n      dup6\n        /* \"node_modules/@openzeppelin/contracts/token/ERC20/ERC20.sol\":5245:5247  to */\n      dup6\n        /* \"node_modules/@openzeppelin/contracts/token/ERC20/ERC20.sol\":5249:5254  value */\n      dup6\n        /* \"node_modules/@openzeppelin/contracts/token/ERC20/ERC20.sol\":5229:5238  _transfer */\n      tag_190\n        /* \"node_modules/@openzeppelin/contracts/token/ERC20/ERC20.sol\":5229:5255  _transfer(from, to, value) */\n      jump\t// in\n    tag_189:\n        /* \"node_modules/@openzeppelin/contracts/token/ERC20/ERC20.sol\":5272:5276  true */\n      0x01\n        /* \"node_modules/@openzeppelin/contracts/token/ERC20/ERC20.sol\":5265:5276  return true */\n      swap2\n      pop\n      pop\n        /* \"node_modules/@openzeppelin/contracts/token/ERC20/ERC20.sol\":5039:5283  function transferFrom(address from, address to, uint256 value) public virtual returns (bool) {... */\n      swap4\n      swap3\n      pop\n      pop\n      pop\n      jump\t// out\n        /* \"node_modules/@openzeppelin/contracts/access/Ownable.sol\":1796:1958  function _checkOwner() internal view virtual {... */\n    tag_127:\n        /* \"node_modules/@openzeppelin/contracts/access/Ownable.sol\":1866:1878  _msgSender() */\n      tag_192\n        /* \"node_modules/@openzeppelin/contracts/access/Ownable.sol\":1866:1876  _msgSender */\n      tag_96\n        /* \"node_modules/@openzeppelin/contracts/access/Ownable.sol\":1866:1878  _msgSender() */\n      jump\t// in\n    tag_192:\n        /* \"node_modules/@openzeppelin/contracts/access/Ownable.sol\":1855:1878  owner() != _msgSender() */\n      0xffffffffffffffffffffffffffffffffffffffff\n      and\n        /* \"node_modules/@openzeppelin/contracts/access/Ownable.sol\":1855:1862  owner() */\n      tag_193\n        /* \"node_modules/@openzeppelin/contracts/access/Ownable.sol\":1855:1860  owner */\n      tag_54\n        /* \"node_modules/@openzeppelin/contracts/access/Ownable.sol\":1855:1862  owner() */\n      jump\t// in\n    tag_193:\n        /* \"node_modules/@openzeppelin/contracts/access/Ownable.sol\":1855:1878  owner() != _msgSender() */\n      0xffffffffffffffffffffffffffffffffffffffff\n      and\n      eq\n        /* \"node_modules/@openzeppelin/contracts/access/Ownable.sol\":1851:1952  if (owner() != _msgSender()) {... */\n      tag_194\n      jumpi\n        /* \"node_modules/@openzeppelin/contracts/access/Ownable.sol\":1928:1940  _msgSender() */\n      tag_195\n        /* \"node_modules/@openzeppelin/contracts/access/Ownable.sol\":1928:1938  _msgSender */\n      tag_96\n        /* \"node_modules/@openzeppelin/contracts/access/Ownable.sol\":1928:1940  _msgSender() */\n      jump\t// in\n    tag_195:\n        /* \"node_modules/@openzeppelin/contracts/access/Ownable.sol\":1901:1941  OwnableUnauthorizedAccount(_msgSender()) */\n      mload(0x40)\n      0x118cdaa700000000000000000000000000000000000000000000000000000000\n      dup2\n      mstore\n      0x04\n      add\n      tag_196\n      swap2\n      swap1\n      tag_56\n      jump\t// in\n    tag_196:\n      mload(0x40)\n      dup1\n      swap2\n      sub\n      swap1\n      revert\n        /* \"node_modules/@openzeppelin/contracts/access/Ownable.sol\":1851:1952  if (owner() != _msgSender()) {... */\n    tag_194:\n        /* \"node_modules/@openzeppelin/contracts/access/Ownable.sol\":1796:1958  function _checkOwner() internal view virtual {... */\n      jump\t// out\n        /* \"node_modules/@openzeppelin/contracts/access/Ownable.sol\":2912:3099  function _transferOwnership(address newOwner) internal virtual {... */\n    tag_130:\n        /* \"node_modules/@openzeppelin/contracts/access/Ownable.sol\":2985:3001  address oldOwner */\n      0x00\n        /* \"node_modules/@openzeppelin/contracts/access/Ownable.sol\":3004:3010  _owner */\n      0x05\n      0x00\n      swap1\n      sload\n      swap1\n      0x0100\n      exp\n      swap1\n      div\n      0xffffffffffffffffffffffffffffffffffffffff\n      and\n        /* \"node_modules/@openzeppelin/contracts/access/Ownable.sol\":2985:3010  address oldOwner = _owner */\n      swap1\n      pop\n        /* \"node_modules/@openzeppelin/contracts/access/Ownable.sol\":3029:3037  newOwner */\n      dup2\n        /* \"node_modules/@openzeppelin/contracts/access/Ownable.sol\":3020:3026  _owner */\n      0x05\n      0x00\n        /* \"node_modules/@openzeppelin/contracts/access/Ownable.sol\":3020:3037  _owner = newOwner */\n      0x0100\n      exp\n      dup2\n      sload\n      dup2\n      0xffffffffffffffffffffffffffffffffffffffff\n      mul\n      not\n      and\n      swap1\n      dup4\n      0xffffffffffffffffffffffffffffffffffffffff\n      and\n      mul\n      or\n      swap1\n      sstore\n      pop\n        /* \"node_modules/@openzeppelin/contracts/access/Ownable.sol\":3083:3091  newOwner */\n      dup2\n        /* \"node_modules/@openzeppelin/contracts/access/Ownable.sol\":3052:3092  OwnershipTransferred(oldOwner, newOwner) */\n      0xffffffffffffffffffffffffffffffffffffffff\n      and\n        /* \"node_modules/@openzeppelin/contracts/access/Ownable.sol\":3073:3081  oldOwner */\n      dup2\n        /* \"node_modules/@openzeppelin/contracts/access/Ownable.sol\":3052:3092  OwnershipTransferred(oldOwner, newOwner) */\n      0xffffffffffffffffffffffffffffffffffffffff\n      and\n      0x8be0079c531659141344cd1fd0a4f28419497f9722a3daafe3b4186f6b6457e0\n      mload(0x40)\n      mload(0x40)\n      dup1\n      swap2\n      sub\n      swap1\n      log3\n        /* \"node_modules/@openzeppelin/contracts/access/Ownable.sol\":2975:3099  {... */\n      pop\n        /* \"node_modules/@openzeppelin/contracts/access/Ownable.sol\":2912:3099  function _transferOwnership(address newOwner) internal virtual {... */\n      pop\n      jump\t// out\n        /* \"node_modules/@openzeppelin/contracts/token/ERC20/ERC20.sol\":3610:3788  function transfer(address to, uint256 value) public virtual returns (bool) {... */\n    tag_156:\n        /* \"node_modules/@openzeppelin/contracts/token/ERC20/ERC20.sol\":3679:3683  bool */\n      0x00\n        /* \"node_modules/@openzeppelin/contracts/token/ERC20/ERC20.sol\":3695:3708  address owner */\n      dup1\n        /* \"node_modules/@openzeppelin/contracts/token/ERC20/ERC20.sol\":3711:3723  _msgSender() */\n      tag_199\n        /* \"node_modules/@openzeppelin/contracts/token/ERC20/ERC20.sol\":3711:3721  _msgSender */\n      tag_96\n        /* \"node_modules/@openzeppelin/contracts/token/ERC20/ERC20.sol\":3711:3723  _msgSender() */\n      jump\t// in\n    tag_199:\n        /* \"node_modules/@openzeppelin/contracts/token/ERC20/ERC20.sol\":3695:3723  address owner = _msgSender() */\n      swap1\n      pop\n        /* \"node_modules/@openzeppelin/contracts/token/ERC20/ERC20.sol\":3733:3760  _transfer(owner, to, value) */\n      tag_200\n        /* \"node_modules/@openzeppelin/contracts/token/ERC20/ERC20.sol\":3743:3748  owner */\n      dup2\n        /* \"node_modules/@openzeppelin/contracts/token/ERC20/ERC20.sol\":3750:3752  to */\n      dup6\n        /* \"node_modules/@openzeppelin/contracts/token/ERC20/ERC20.sol\":3754:3759  value */\n      dup6\n        /* \"node_modules/@openzeppelin/contracts/token/ERC20/ERC20.sol\":3733:3742  _transfer */\n      tag_190\n        /* \"node_modules/@openzeppelin/contracts/token/ERC20/ERC20.sol\":3733:3760  _transfer(owner, to, value) */\n      jump\t// in\n    tag_200:\n        /* \"node_modules/@openzeppelin/contracts/token/ERC20/ERC20.sol\":3777:3781  true */\n      0x01\n        /* \"node_modules/@openzeppelin/contracts/token/ERC20/ERC20.sol\":3770:3781  return true */\n      swap2\n      pop\n      pop\n        /* \"node_modules/@openzeppelin/contracts/token/ERC20/ERC20.sol\":3610:3788  function transfer(address to, uint256 value) public virtual returns (bool) {... */\n      swap3\n      swap2\n      pop\n      pop\n      jump\t// out\n        /* \"node_modules/@openzeppelin/contracts/token/ERC20/ERC20.sol\":8247:8453  function _burn(address account, uint256 value) internal {... */\n    tag_161:\n        /* \"node_modules/@openzeppelin/contracts/token/ERC20/ERC20.sol\":8336:8337  0 */\n      0x00\n        /* \"node_modules/@openzeppelin/contracts/token/ERC20/ERC20.sol\":8317:8338  account == address(0) */\n      0xffffffffffffffffffffffffffffffffffffffff\n      and\n        /* \"node_modules/@openzeppelin/contracts/token/ERC20/ERC20.sol\":8317:8324  account */\n      dup3\n        /* \"node_modules/@openzeppelin/contracts/token/ERC20/ERC20.sol\":8317:8338  account == address(0) */\n      0xffffffffffffffffffffffffffffffffffffffff\n      and\n      sub\n        /* \"node_modules/@openzeppelin/contracts/token/ERC20/ERC20.sol\":8313:8402  if (account == address(0)) {... */\n      tag_202\n      jumpi\n        /* \"node_modules/@openzeppelin/contracts/token/ERC20/ERC20.sol\":8388:8389  0 */\n      0x00\n        /* \"node_modules/@openzeppelin/contracts/token/ERC20/ERC20.sol\":8361:8391  ERC20InvalidSender(address(0)) */\n      mload(0x40)\n      0x96c6fd1e00000000000000000000000000000000000000000000000000000000\n      dup2\n      mstore\n      0x04\n      add\n      tag_203\n      swap2\n      swap1\n      tag_56\n      jump\t// in\n    tag_203:\n      mload(0x40)\n      dup1\n      swap2\n      sub\n      swap1\n      revert\n        /* \"node_modules/@openzeppelin/contracts/token/ERC20/ERC20.sol\":8313:8402  if (account == address(0)) {... */\n    tag_202:\n        /* \"node_modules/@openzeppelin/contracts/token/ERC20/ERC20.sol\":8411:8446  _update(account, address(0), value) */\n      tag_204\n        /* \"node_modules/@openzeppelin/contracts/token/ERC20/ERC20.sol\":8419:8426  account */\n      dup3\n        /* \"node_modules/@openzeppelin/contracts/token/ERC20/ERC20.sol\":8436:8437  0 */\n      0x00\n        /* \"node_modules/@openzeppelin/contracts/token/ERC20/ERC20.sol\":8440:8445  value */\n      dup4\n        /* \"node_modules/@openzeppelin/contracts/token/ERC20/ERC20.sol\":8411:8418  _update */\n      tag_205\n        /* \"node_modules/@openzeppelin/contracts/token/ERC20/ERC20.sol\":8411:8446  _update(account, address(0), value) */\n      jump\t// in\n    tag_204:\n        /* \"node_modules/@openzeppelin/contracts/token/ERC20/ERC20.sol\":8247:8453  function _burn(address account, uint256 value) internal {... */\n      pop\n      pop\n      jump\t// out\n        /* \"node_modules/@openzeppelin/contracts/token/ERC20/ERC20.sol\":7721:7929  function _mint(address account, uint256 value) internal {... */\n    tag_166:\n        /* \"node_modules/@openzeppelin/contracts/token/ERC20/ERC20.sol\":7810:7811  0 */\n      0x00\n        /* \"node_modules/@openzeppelin/contracts/token/ERC20/ERC20.sol\":7791:7812  account == address(0) */\n      0xffffffffffffffffffffffffffffffffffffffff\n      and\n        /* \"node_modules/@openzeppelin/contracts/token/ERC20/ERC20.sol\":7791:7798  account */\n      dup3\n        /* \"node_modules/@openzeppelin/contracts/token/ERC20/ERC20.sol\":7791:7812  account == address(0) */\n      0xffffffffffffffffffffffffffffffffffffffff\n      and\n      sub\n        /* \"node_modules/@openzeppelin/contracts/token/ERC20/ERC20.sol\":7787:7878  if (account == address(0)) {... */\n      tag_207\n      jumpi\n        /* \"node_modules/@openzeppelin/contracts/token/ERC20/ERC20.sol\":7864:7865  0 */\n      0x00\n        /* \"node_modules/@openzeppelin/contracts/token/ERC20/ERC20.sol\":7835:7867  ERC20InvalidReceiver(address(0)) */\n      mload(0x40)\n      0xec442f0500000000000000000000000000000000000000000000000000000000\n      dup2\n      mstore\n      0x04\n      add\n      tag_208\n      swap2\n      swap1\n      tag_56\n      jump\t// in\n    tag_208:\n      mload(0x40)\n      dup1\n      swap2\n      sub\n      swap1\n      revert\n        /* \"node_modules/@openzeppelin/contracts/token/ERC20/ERC20.sol\":7787:7878  if (account == address(0)) {... */\n    tag_207:\n        /* \"node_modules/@openzeppelin/contracts/token/ERC20/ERC20.sol\":7887:7922  _update(address(0), account, value) */\n      tag_209\n        /* \"node_modules/@openzeppelin/contracts/token/ERC20/ERC20.sol\":7903:7904  0 */\n      0x00\n        /* \"node_modules/@openzeppelin/contracts/token/ERC20/ERC20.sol\":7907:7914  account */\n      dup4\n        /* \"node_modules/@openzeppelin/contracts/token/ERC20/ERC20.sol\":7916:7921  value */\n      dup4\n        /* \"node_modules/@openzeppelin/contracts/token/ERC20/ERC20.sol\":7887:7894  _update */\n      tag_205\n        /* \"node_modules/@openzeppelin/contracts/token/ERC20/ERC20.sol\":7887:7922  _update(address(0), account, value) */\n      jump\t// in\n    tag_209:\n        /* \"node_modules/@openzeppelin/contracts/token/ERC20/ERC20.sol\":7721:7929  function _mint(address account, uint256 value) internal {... */\n      pop\n      pop\n      jump\t// out\n        /* \"node_modules/@openzeppelin/contracts/token/ERC20/ERC20.sol\":9949:10381  function _approve(address owner, address spender, uint256 value, bool emitEvent) internal virtual {... */\n    tag_184:\n        /* \"node_modules/@openzeppelin/contracts/token/ERC20/ERC20.sol\":10078:10079  0 */\n      0x00\n        /* \"node_modules/@openzeppelin/contracts/token/ERC20/ERC20.sol\":10061:10080  owner == address(0) */\n      0xffffffffffffffffffffffffffffffffffffffff\n      and\n        /* \"node_modules/@openzeppelin/contracts/token/ERC20/ERC20.sol\":10061:10066  owner */\n      dup5\n        /* \"node_modules/@openzeppelin/contracts/token/ERC20/ERC20.sol\":10061:10080  owner == address(0) */\n      0xffffffffffffffffffffffffffffffffffffffff\n      and\n      sub\n        /* \"node_modules/@openzeppelin/contracts/token/ERC20/ERC20.sol\":10057:10146  if (owner == address(0)) {... */\n      tag_211\n      jumpi\n        /* \"node_modules/@openzeppelin/contracts/token/ERC20/ERC20.sol\":10132:10133  0 */\n      0x00\n        /* \"node_modules/@openzeppelin/contracts/token/ERC20/ERC20.sol\":10103:10135  ERC20InvalidApprover(address(0)) */\n      mload(0x40)\n      0xe602df0500000000000000000000000000000000000000000000000000000000\n      dup2\n      mstore\n      0x04\n      add\n      tag_212\n      swap2\n      swap1\n      tag_56\n      jump\t// in\n    tag_212:\n      mload(0x40)\n      dup1\n      swap2\n      sub\n      swap1\n      revert\n        /* \"node_modules/@openzeppelin/contracts/token/ERC20/ERC20.sol\":10057:10146  if (owner == address(0)) {... */\n    tag_211:\n        /* \"node_modules/@openzeppelin/contracts/token/ERC20/ERC20.sol\":10178:10179  0 */\n      0x00\n        /* \"node_modules/@openzeppelin/contracts/token/ERC20/ERC20.sol\":10159:10180  spender == address(0) */\n      0xffffffffffffffffffffffffffffffffffffffff\n      and\n        /* \"node_modules/@openzeppelin/contracts/token/ERC20/ERC20.sol\":10159:10166  spender */\n      dup4\n        /* \"node_modules/@openzeppelin/contracts/token/ERC20/ERC20.sol\":10159:10180  spender == address(0) */\n      0xffffffffffffffffffffffffffffffffffffffff\n      and\n      sub\n        /* \"node_modules/@openzeppelin/contracts/token/ERC20/ERC20.sol\":10155:10245  if (spender == address(0)) {... */\n      tag_213\n      jumpi\n        /* \"node_modules/@openzeppelin/contracts/token/ERC20/ERC20.sol\":10231:10232  0 */\n      0x00\n        /* \"node_modules/@openzeppelin/contracts/token/ERC20/ERC20.sol\":10203:10234  ERC20InvalidSpender(address(0)) */\n      mload(0x40)\n      0x94280d6200000000000000000000000000000000000000000000000000000000\n      dup2\n      mstore\n      0x04\n      add\n      tag_214\n      swap2\n      swap1\n      tag_56\n      jump\t// in\n    tag_214:\n      mload(0x40)\n      dup1\n      swap2\n      sub\n      swap1\n      revert\n        /* \"node_modules/@openzeppelin/contracts/token/ERC20/ERC20.sol\":10155:10245  if (spender == address(0)) {... */\n    tag_213:\n        /* \"node_modules/@openzeppelin/contracts/token/ERC20/ERC20.sol\":10284:10289  value */\n      dup2\n        /* \"node_modules/@openzeppelin/contracts/token/ERC20/ERC20.sol\":10254:10265  _allowances */\n      0x01\n        /* \"node_modules/@openzeppelin/contracts/token/ERC20/ERC20.sol\":10254:10272  _allowances[owner] */\n      0x00\n        /* \"node_modules/@openzeppelin/contracts/token/ERC20/ERC20.sol\":10266:10271  owner */\n      dup7\n        /* \"node_modules/@openzeppelin/contracts/token/ERC20/ERC20.sol\":10254:10272  _allowances[owner] */\n      0xffffffffffffffffffffffffffffffffffffffff\n      and\n      0xffffffffffffffffffffffffffffffffffffffff\n      and\n      dup2\n      mstore\n      0x20\n      add\n      swap1\n      dup2\n      mstore\n      0x20\n      add\n      0x00\n      keccak256\n        /* \"node_modules/@openzeppelin/contracts/token/ERC20/ERC20.sol\":10254:10281  _allowances[owner][spender] */\n      0x00\n        /* \"node_modules/@openzeppelin/contracts/token/ERC20/ERC20.sol\":10273:10280  spender */\n      dup6\n        /* \"node_modules/@openzeppelin/contracts/token/ERC20/ERC20.sol\":10254:10281  _allowances[owner][spender] */\n      0xffffffffffffffffffffffffffffffffffffffff\n      and\n      0xffffffffffffffffffffffffffffffffffffffff\n      and\n      dup2\n      mstore\n      0x20\n      add\n      swap1\n      dup2\n      mstore\n      0x20\n      add\n      0x00\n      keccak256\n        /* \"node_modules/@openzeppelin/contracts/token/ERC20/ERC20.sol\":10254:10289  _allowances[owner][spender] = value */\n      dup2\n      swap1\n      sstore\n      pop\n        /* \"node_modules/@openzeppelin/contracts/token/ERC20/ERC20.sol\":10303:10312  emitEvent */\n      dup1\n        /* \"node_modules/@openzeppelin/contracts/token/ERC20/ERC20.sol\":10299:10375  if (emitEvent) {... */\n      iszero\n      tag_215\n      jumpi\n        /* \"node_modules/@openzeppelin/contracts/token/ERC20/ERC20.sol\":10349:10356  spender */\n      dup3\n        /* \"node_modules/@openzeppelin/contracts/token/ERC20/ERC20.sol\":10333:10364  Approval(owner, spender, value) */\n      0xffffffffffffffffffffffffffffffffffffffff\n      and\n        /* \"node_modules/@openzeppelin/contracts/token/ERC20/ERC20.sol\":10342:10347  owner */\n      dup5\n        /* \"node_modules/@openzeppelin/contracts/token/ERC20/ERC20.sol\":10333:10364  Approval(owner, spender, value) */\n      0xffffffffffffffffffffffffffffffffffffffff\n      and\n      0x8c5be1e5ebec7d5bd14f71427d1e84f3dd0314c0f7b2291e5b200ac8c7c3b925\n        /* \"node_modules/@openzeppelin/contracts/token/ERC20/ERC20.sol\":10358:10363  value */\n      dup5\n        /* \"node_modules/@openzeppelin/contracts/token/ERC20/ERC20.sol\":10333:10364  Approval(owner, spender, value) */\n      mload(0x40)\n      tag_216\n      swap2\n      swap1\n      tag_36\n      jump\t// in\n    tag_216:\n      mload(0x40)\n      dup1\n      swap2\n      sub\n      swap1\n      log3\n        /* \"node_modules/@openzeppelin/contracts/token/ERC20/ERC20.sol\":10299:10375  if (emitEvent) {... */\n    tag_215:\n        /* \"node_modules/@openzeppelin/contracts/token/ERC20/ERC20.sol\":9949:10381  function _approve(address owner, address spender, uint256 value, bool emitEvent) internal virtual {... */\n      pop\n      pop\n      pop\n      pop\n      jump\t// out\n        /* \"node_modules/@openzeppelin/contracts/token/ERC20/ERC20.sol\":10663:11140  function _spendAllowance(address owner, address spender, uint256 value) internal virtual {... */\n    tag_188:\n        /* \"node_modules/@openzeppelin/contracts/token/ERC20/ERC20.sol\":10762:10786  uint256 currentAllowance */\n      0x00\n        /* \"node_modules/@openzeppelin/contracts/token/ERC20/ERC20.sol\":10789:10814  allowance(owner, spender) */\n      tag_218\n        /* \"node_modules/@openzeppelin/contracts/token/ERC20/ERC20.sol\":10799:10804  owner */\n      dup5\n        /* \"node_modules/@openzeppelin/contracts/token/ERC20/ERC20.sol\":10806:10813  spender */\n      dup5\n        /* \"node_modules/@openzeppelin/contracts/token/ERC20/ERC20.sol\":10789:10798  allowance */\n      tag_82\n        /* \"node_modules/@openzeppelin/contracts/token/ERC20/ERC20.sol\":10789:10814  allowance(owner, spender) */\n      jump\t// in\n    tag_218:\n        /* \"node_modules/@openzeppelin/contracts/token/ERC20/ERC20.sol\":10762:10814  uint256 currentAllowance = allowance(owner, spender) */\n      swap1\n      pop\n        /* \"node_modules/@openzeppelin/contracts/token/ERC20/ERC20.sol\":10848:10865  type(uint256).max */\n      0xffffffffffffffffffffffffffffffffffffffffffffffffffffffffffffffff\n        /* \"node_modules/@openzeppelin/contracts/token/ERC20/ERC20.sol\":10828:10844  currentAllowance */\n      dup2\n        /* \"node_modules/@openzeppelin/contracts/token/ERC20/ERC20.sol\":10828:10865  currentAllowance != type(uint256).max */\n      eq\n        /* \"node_modules/@openzeppelin/contracts/token/ERC20/ERC20.sol\":10824:11134  if (currentAllowance != type(uint256).max) {... */\n      tag_219\n      jumpi\n        /* \"node_modules/@openzeppelin/contracts/token/ERC20/ERC20.sol\":10904:10909  value */\n      dup2\n        /* \"node_modules/@openzeppelin/contracts/token/ERC20/ERC20.sol\":10885:10901  currentAllowance */\n      dup2\n        /* \"node_modules/@openzeppelin/contracts/token/ERC20/ERC20.sol\":10885:10909  currentAllowance < value */\n      lt\n        /* \"node_modules/@openzeppelin/contracts/token/ERC20/ERC20.sol\":10881:11011  if (currentAllowance < value) {... */\n      iszero\n      tag_220\n      jumpi\n        /* \"node_modules/@openzeppelin/contracts/token/ERC20/ERC20.sol\":10963:10970  spender */\n      dup3\n        /* \"node_modules/@openzeppelin/contracts/token/ERC20/ERC20.sol\":10972:10988  currentAllowance */\n      dup2\n        /* \"node_modules/@openzeppelin/contracts/token/ERC20/ERC20.sol\":10990:10995  value */\n      dup4\n        /* \"node_modules/@openzeppelin/contracts/token/ERC20/ERC20.sol\":10936:10996  ERC20InsufficientAllowance(spender, currentAllowance, value) */\n      mload(0x40)\n      0xfb8f41b200000000000000000000000000000000000000000000000000000000\n      dup2\n      mstore\n      0x04\n      add\n      tag_221\n      swap4\n      swap3\n      swap2\n      swap1\n      tag_222\n      jump\t// in\n    tag_221:\n      mload(0x40)\n      dup1\n      swap2\n      sub\n      swap1\n      revert\n        /* \"node_modules/@openzeppelin/contracts/token/ERC20/ERC20.sol\":10881:11011  if (currentAllowance < value) {... */\n    tag_220:\n        /* \"node_modules/@openzeppelin/contracts/token/ERC20/ERC20.sol\":11052:11109  _approve(owner, spender, currentAllowance - value, false) */\n      tag_223\n        /* \"node_modules/@openzeppelin/contracts/token/ERC20/ERC20.sol\":11061:11066  owner */\n      dup5\n        /* \"node_modules/@openzeppelin/contracts/token/ERC20/ERC20.sol\":11068:11075  spender */\n      dup5\n        /* \"node_modules/@openzeppelin/contracts/token/ERC20/ERC20.sol\":11096:11101  value */\n      dup5\n        /* \"node_modules/@openzeppelin/contracts/token/ERC20/ERC20.sol\":11077:11093  currentAllowance */\n      dup5\n        /* \"node_modules/@openzeppelin/contracts/token/ERC20/ERC20.sol\":11077:11101  currentAllowance - value */\n      sub\n        /* \"node_modules/@openzeppelin/contracts/token/ERC20/ERC20.sol\":11103:11108  false */\n      0x00\n        /* \"node_modules/@openzeppelin/contracts/token/ERC20/ERC20.sol\":11052:11060  _approve */\n      tag_184\n        /* \"node_modules/@openzeppelin/contracts/token/ERC20/ERC20.sol\":11052:11109  _approve(owner, spender, currentAllowance - value, false) */\n      jump\t// in\n    tag_223:\n        /* \"node_modules/@openzeppelin/contracts/token/ERC20/ERC20.sol\":10824:11134  if (currentAllowance != type(uint256).max) {... */\n    tag_219:\n        /* \"node_modules/@openzeppelin/contracts/token/ERC20/ERC20.sol\":10752:11140  {... */\n      pop\n        /* \"node_modules/@openzeppelin/contracts/token/ERC20/ERC20.sol\":10663:11140  function _spendAllowance(address owner, address spender, uint256 value) internal virtual {... */\n      pop\n      pop\n      pop\n      jump\t// out\n        /* \"node_modules/@openzeppelin/contracts/token/ERC20/ERC20.sol\":5656:5956  function _transfer(address from, address to, uint256 value) internal {... */\n    tag_190:\n        /* \"node_modules/@openzeppelin/contracts/token/ERC20/ERC20.sol\":5755:5756  0 */\n      0x00\n        /* \"node_modules/@openzeppelin/contracts/token/ERC20/ERC20.sol\":5739:5757  from == address(0) */\n      0xffffffffffffffffffffffffffffffffffffffff\n      and\n        /* \"node_modules/@openzeppelin/contracts/token/ERC20/ERC20.sol\":5739:5743  from */\n      dup4\n        /* \"node_modules/@openzeppelin/contracts/token/ERC20/ERC20.sol\":5739:5757  from == address(0) */\n      0xffffffffffffffffffffffffffffffffffffffff\n      and\n      sub\n        /* \"node_modules/@openzeppelin/contracts/token/ERC20/ERC20.sol\":5735:5821  if (from == address(0)) {... */\n      tag_225\n      jumpi\n        /* \"node_modules/@openzeppelin/contracts/token/ERC20/ERC20.sol\":5807:5808  0 */\n      0x00\n        /* \"node_modules/@openzeppelin/contracts/token/ERC20/ERC20.sol\":5780:5810  ERC20InvalidSender(address(0)) */\n      mload(0x40)\n      0x96c6fd1e00000000000000000000000000000000000000000000000000000000\n      dup2\n      mstore\n      0x04\n      add\n      tag_226\n      swap2\n      swap1\n      tag_56\n      jump\t// in\n    tag_226:\n      mload(0x40)\n      dup1\n      swap2\n      sub\n      swap1\n      revert\n        /* \"node_modules/@openzeppelin/contracts/token/ERC20/ERC20.sol\":5735:5821  if (from == address(0)) {... */\n    tag_225:\n        /* \"node_modules/@openzeppelin/contracts/token/ERC20/ERC20.sol\":5848:5849  0 */\n      0x00\n        /* \"node_modules/@openzeppelin/contracts/token/ERC20/ERC20.sol\":5834:5850  to == address(0) */\n      0xffffffffffffffffffffffffffffffffffffffff\n      and\n        /* \"node_modules/@openzeppelin/contracts/token/ERC20/ERC20.sol\":5834:5836  to */\n      dup3\n        /* \"node_modules/@openzeppelin/contracts/token/ERC20/ERC20.sol\":5834:5850  to == address(0) */\n      0xffffffffffffffffffffffffffffffffffffffff\n      and\n      sub\n        /* \"node_modules/@openzeppelin/contracts/token/ERC20/ERC20.sol\":5830:5916  if (to == address(0)) {... */\n      tag_227\n      jumpi\n        /* \"node_modules/@openzeppelin/contracts/token/ERC20/ERC20.sol\":5902:5903  0 */\n      0x00\n        /* \"node_modules/@openzeppelin/contracts/token/ERC20/ERC20.sol\":5873:5905  ERC20InvalidReceiver(address(0)) */\n      mload(0x40)\n      0xec442f0500000000000000000000000000000000000000000000000000000000\n      dup2\n      mstore\n      0x04\n      add\n      tag_228\n      swap2\n      swap1\n      tag_56\n      jump\t// in\n    tag_228:\n      mload(0x40)\n      dup1\n      swap2\n      sub\n      swap1\n      revert\n        /* \"node_modules/@openzeppelin/contracts/token/ERC20/ERC20.sol\":5830:5916  if (to == address(0)) {... */\n    tag_227:\n        /* \"node_modules/@openzeppelin/contracts/token/ERC20/ERC20.sol\":5925:5949  _update(from, to, value) */\n      tag_229\n        /* \"node_modules/@openzeppelin/contracts/token/ERC20/ERC20.sol\":5933:5937  from */\n      dup4\n        /* \"node_modules/@openzeppelin/contracts/token/ERC20/ERC20.sol\":5939:5941  to */\n      dup4\n        /* \"node_modules/@openzeppelin/contracts/token/ERC20/ERC20.sol\":5943:5948  value */\n      dup4\n        /* \"node_modules/@openzeppelin/contracts/token/ERC20/ERC20.sol\":5925:5932  _update */\n      tag_205\n        /* \"node_modules/@openzeppelin/contracts/token/ERC20/ERC20.sol\":5925:5949  _update(from, to, value) */\n      jump\t// in\n    tag_229:\n        /* \"node_modules/@openzeppelin/contracts/token/ERC20/ERC20.sol\":5656:5956  function _transfer(address from, address to, uint256 value) internal {... */\n      pop\n      pop\n      pop\n      jump\t// out\n        /* \"node_modules/@openzeppelin/contracts/token/ERC20/ERC20.sol\":6271:7378  function _update(address from, address to, uint256 value) internal virtual {... */\n    tag_205:\n        /* \"node_modules/@openzeppelin/contracts/token/ERC20/ERC20.sol\":6376:6377  0 */\n      0x00\n        /* \"node_modules/@openzeppelin/contracts/token/ERC20/ERC20.sol\":6360:6378  from == address(0) */\n      0xffffffffffffffffffffffffffffffffffffffff\n      and\n        /* \"node_modules/@openzeppelin/contracts/token/ERC20/ERC20.sol\":6360:6364  from */\n      dup4\n        /* \"node_modules/@openzeppelin/contracts/token/ERC20/ERC20.sol\":6360:6378  from == address(0) */\n      0xffffffffffffffffffffffffffffffffffffffff\n      and\n      sub\n        /* \"node_modules/@openzeppelin/contracts/token/ERC20/ERC20.sol\":6356:6896  if (from == address(0)) {... */\n      tag_231\n      jumpi\n        /* \"node_modules/@openzeppelin/contracts/token/ERC20/ERC20.sol\":6512:6517  value */\n      dup1\n        /* \"node_modules/@openzeppelin/contracts/token/ERC20/ERC20.sol\":6496:6508  _totalSupply */\n      0x02\n      0x00\n        /* \"node_modules/@openzeppelin/contracts/token/ERC20/ERC20.sol\":6496:6517  _totalSupply += value */\n      dup3\n      dup3\n      sload\n      tag_232\n      swap2\n      swap1\n      tag_112\n      jump\t// in\n    tag_232:\n      swap3\n      pop\n      pop\n      dup2\n      swap1\n      sstore\n      pop\n        /* \"node_modules/@openzeppelin/contracts/token/ERC20/ERC20.sol\":6356:6896  if (from == address(0)) {... */\n      jump(tag_233)\n    tag_231:\n        /* \"node_modules/@openzeppelin/contracts/token/ERC20/ERC20.sol\":6548:6567  uint256 fromBalance */\n      0x00\n        /* \"node_modules/@openzeppelin/contracts/token/ERC20/ERC20.sol\":6570:6579  _balances */\n      dup1\n        /* \"node_modules/@openzeppelin/contracts/token/ERC20/ERC20.sol\":6570:6585  _balances[from] */\n      0x00\n        /* \"node_modules/@openzeppelin/contracts/token/ERC20/ERC20.sol\":6580:6584  from */\n      dup6\n        /* \"node_modules/@openzeppelin/contracts/token/ERC20/ERC20.sol\":6570:6585  _balances[from] */\n      0xffffffffffffffffffffffffffffffffffffffff\n      and\n      0xffffffffffffffffffffffffffffffffffffffff\n      and\n      dup2\n      mstore\n      0x20\n      add\n      swap1\n      dup2\n      mstore\n      0x20\n      add\n      0x00\n      keccak256\n      sload\n        /* \"node_modules/@openzeppelin/contracts/token/ERC20/ERC20.sol\":6548:6585  uint256 fromBalance = _balances[from] */\n      swap1\n      pop\n        /* \"node_modules/@openzeppelin/contracts/token/ERC20/ERC20.sol\":6617:6622  value */\n      dup2\n        /* \"node_modules/@openzeppelin/contracts/token/ERC20/ERC20.sol\":6603:6614  fromBalance */\n      dup2\n        /* \"node_modules/@openzeppelin/contracts/token/ERC20/ERC20.sol\":6603:6622  fromBalance < value */\n      lt\n        /* \"node_modules/@openzeppelin/contracts/token/ERC20/ERC20.sol\":6599:6714  if (fromBalance < value) {... */\n      iszero\n      tag_234\n      jumpi\n        /* \"node_modules/@openzeppelin/contracts/token/ERC20/ERC20.sol\":6674:6678  from */\n      dup4\n        /* \"node_modules/@openzeppelin/contracts/token/ERC20/ERC20.sol\":6680:6691  fromBalance */\n      dup2\n        /* \"node_modules/@openzeppelin/contracts/token/ERC20/ERC20.sol\":6693:6698  value */\n      dup4\n        /* \"node_modules/@openzeppelin/contracts/token/ERC20/ERC20.sol\":6649:6699  ERC20InsufficientBalance(from, fromBalance, value) */\n      mload(0x40)\n      0xe450d38c00000000000000000000000000000000000000000000000000000000\n      dup2\n      mstore\n      0x04\n      add\n      tag_235\n      swap4\n      swap3\n      swap2\n      swap1\n      tag_222\n      jump\t// in\n    tag_235:\n      mload(0x40)\n      dup1\n      swap2\n      sub\n      swap1\n      revert\n        /* \"node_modules/@openzeppelin/contracts/token/ERC20/ERC20.sol\":6599:6714  if (fromBalance < value) {... */\n    tag_234:\n        /* \"node_modules/@openzeppelin/contracts/token/ERC20/ERC20.sol\":6866:6871  value */\n      dup2\n        /* \"node_modules/@openzeppelin/contracts/token/ERC20/ERC20.sol\":6852:6863  fromBalance */\n      dup2\n        /* \"node_modules/@openzeppelin/contracts/token/ERC20/ERC20.sol\":6852:6871  fromBalance - value */\n      sub\n        /* \"node_modules/@openzeppelin/contracts/token/ERC20/ERC20.sol\":6834:6843  _balances */\n      0x00\n        /* \"node_modules/@openzeppelin/contracts/token/ERC20/ERC20.sol\":6834:6849  _balances[from] */\n      dup1\n        /* \"node_modules/@openzeppelin/contracts/token/ERC20/ERC20.sol\":6844:6848  from */\n      dup7\n        /* \"node_modules/@openzeppelin/contracts/token/ERC20/ERC20.sol\":6834:6849  _balances[from] */\n      0xffffffffffffffffffffffffffffffffffffffff\n      and\n      0xffffffffffffffffffffffffffffffffffffffff\n      and\n      dup2\n      mstore\n      0x20\n      add\n      swap1\n      dup2\n      mstore\n      0x20\n      add\n      0x00\n      keccak256\n        /* \"node_modules/@openzeppelin/contracts/token/ERC20/ERC20.sol\":6834:6871  _balances[from] = fromBalance - value */\n      dup2\n      swap1\n      sstore\n      pop\n        /* \"node_modules/@openzeppelin/contracts/token/ERC20/ERC20.sol\":6534:6896  {... */\n      pop\n        /* \"node_modules/@openzeppelin/contracts/token/ERC20/ERC20.sol\":6356:6896  if (from == address(0)) {... */\n    tag_233:\n        /* \"node_modules/@openzeppelin/contracts/token/ERC20/ERC20.sol\":6924:6925  0 */\n      0x00\n        /* \"node_modules/@openzeppelin/contracts/token/ERC20/ERC20.sol\":6910:6926  to == address(0) */\n      0xffffffffffffffffffffffffffffffffffffffff\n      and\n        /* \"node_modules/@openzeppelin/contracts/token/ERC20/ERC20.sol\":6910:6912  to */\n      dup3\n        /* \"node_modules/@openzeppelin/contracts/token/ERC20/ERC20.sol\":6910:6926  to == address(0) */\n      0xffffffffffffffffffffffffffffffffffffffff\n      and\n      sub\n        /* \"node_modules/@openzeppelin/contracts/token/ERC20/ERC20.sol\":6906:7331  if (to == address(0)) {... */\n      tag_236\n      jumpi\n        /* \"node_modules/@openzeppelin/contracts/token/ERC20/ERC20.sol\":7089:7094  value */\n      dup1\n        /* \"node_modules/@openzeppelin/contracts/token/ERC20/ERC20.sol\":7073:7085  _totalSupply */\n      0x02\n      0x00\n        /* \"node_modules/@openzeppelin/contracts/token/ERC20/ERC20.sol\":7073:7094  _totalSupply -= value */\n      dup3\n      dup3\n      sload\n      sub\n      swap3\n      pop\n      pop\n      dup2\n      swap1\n      sstore\n      pop\n        /* \"node_modules/@openzeppelin/contracts/token/ERC20/ERC20.sol\":6906:7331  if (to == address(0)) {... */\n      jump(tag_237)\n    tag_236:\n        /* \"node_modules/@openzeppelin/contracts/token/ERC20/ERC20.sol\":7301:7306  value */\n      dup1\n        /* \"node_modules/@openzeppelin/contracts/token/ERC20/ERC20.sol\":7284:7293  _balances */\n      0x00\n        /* \"node_modules/@openzeppelin/contracts/token/ERC20/ERC20.sol\":7284:7297  _balances[to] */\n      dup1\n        /* \"node_modules/@openzeppelin/contracts/token/ERC20/ERC20.sol\":7294:7296  to */\n      dup5\n        /* \"node_modules/@openzeppelin/contracts/token/ERC20/ERC20.sol\":7284:7297  _balances[to] */\n      0xffffffffffffffffffffffffffffffffffffffff\n      and\n      0xffffffffffffffffffffffffffffffffffffffff\n      and\n      dup2\n      mstore\n      0x20\n      add\n      swap1\n      dup2\n      mstore\n      0x20\n      add\n      0x00\n      keccak256\n      0x00\n        /* \"node_modules/@openzeppelin/contracts/token/ERC20/ERC20.sol\":7284:7306  _balances[to] += value */\n      dup3\n      dup3\n      sload\n      add\n      swap3\n      pop\n      pop\n      dup2\n      swap1\n      sstore\n      pop\n        /* \"node_modules/@openzeppelin/contracts/token/ERC20/ERC20.sol\":6906:7331  if (to == address(0)) {... */\n    tag_237:\n        /* \"node_modules/@openzeppelin/contracts/token/ERC20/ERC20.sol\":7361:7363  to */\n      dup2\n        /* \"node_modules/@openzeppelin/contracts/token/ERC20/ERC20.sol\":7346:7371  Transfer(from, to, value) */\n      0xffffffffffffffffffffffffffffffffffffffff\n      and\n        /* \"node_modules/@openzeppelin/contracts/token/ERC20/ERC20.sol\":7355:7359  from */\n      dup4\n        /* \"node_modules/@openzeppelin/contracts/token/ERC20/ERC20.sol\":7346:7371  Transfer(from, to, value) */\n      0xffffffffffffffffffffffffffffffffffffffff\n      and\n      0xddf252ad1be2c89b69c2b068fc378daa952ba7f163c4a11628f55a4df523b3ef\n        /* \"node_modules/@openzeppelin/contracts/token/ERC20/ERC20.sol\":7365:7370  value */\n      dup4\n        /* \"node_modules/@openzeppelin/contracts/token/ERC20/ERC20.sol\":7346:7371  Transfer(from, to, value) */\n      mload(0x40)\n      tag_238\n      swap2\n      swap1\n      tag_36\n      jump\t// in\n    tag_238:\n      mload(0x40)\n      dup1\n      swap2\n      sub\n      swap1\n      log3\n        /* \"node_modules/@openzeppelin/contracts/token/ERC20/ERC20.sol\":6271:7378  function _update(address from, address to, uint256 value) internal virtual {... */\n      pop\n      pop\n      pop\n      jump\t// out\n        /* \"#utility.yul\":7:106   */\n    tag_239:\n        /* \"#utility.yul\":59:65   */\n      0x00\n        /* \"#utility.yul\":93:98   */\n      dup2\n        /* \"#utility.yul\":87:99   */\n      mload\n        /* \"#utility.yul\":77:99   */\n      swap1\n      pop\n        /* \"#utility.yul\":7:106   */\n      swap2\n      swap1\n      pop\n      jump\t// out\n        /* \"#utility.yul\":112:281   */\n    tag_240:\n        /* \"#utility.yul\":196:207   */\n      0x00\n        /* \"#utility.yul\":230:236   */\n      dup3\n        /* \"#utility.yul\":225:228   */\n      dup3\n        /* \"#utility.yul\":218:237   */\n      mstore\n        /* \"#utility.yul\":270:274   */\n      0x20\n        /* \"#utility.yul\":265:268   */\n      dup3\n        /* \"#utility.yul\":261:275   */\n      add\n        /* \"#utility.yul\":246:275   */\n      swap1\n      pop\n        /* \"#utility.yul\":112:281   */\n      swap3\n      swap2\n      pop\n      pop\n      jump\t// out\n        /* \"#utility.yul\":287:533   */\n    tag_241:\n        /* \"#utility.yul\":368:369   */\n      0x00\n        /* \"#utility.yul\":378:491   */\n    tag_277:\n        /* \"#utility.yul\":392:398   */\n      dup4\n        /* \"#utility.yul\":389:390   */\n      dup2\n        /* \"#utility.yul\":386:399   */\n      lt\n        /* \"#utility.yul\":378:491   */\n      iszero\n      tag_279\n      jumpi\n        /* \"#utility.yul\":477:478   */\n      dup1\n        /* \"#utility.yul\":472:475   */\n      dup3\n        /* \"#utility.yul\":468:479   */\n      add\n        /* \"#utility.yul\":462:480   */\n      mload\n        /* \"#utility.yul\":458:459   */\n      dup2\n        /* \"#utility.yul\":453:456   */\n      dup5\n        /* \"#utility.yul\":449:460   */\n      add\n        /* \"#utility.yul\":442:481   */\n      mstore\n        /* \"#utility.yul\":414:416   */\n      0x20\n        /* \"#utility.yul\":411:412   */\n      dup2\n        /* \"#utility.yul\":407:417   */\n      add\n        /* \"#utility.yul\":402:417   */\n      swap1\n      pop\n        /* \"#utility.yul\":378:491   */\n      jump(tag_277)\n    tag_279:\n        /* \"#utility.yul\":525:526   */\n      0x00\n        /* \"#utility.yul\":516:522   */\n      dup5\n        /* \"#utility.yul\":511:514   */\n      dup5\n        /* \"#utility.yul\":507:523   */\n      add\n        /* \"#utility.yul\":500:527   */\n      mstore\n        /* \"#utility.yul\":349:533   */\n      pop\n        /* \"#utility.yul\":287:533   */\n      pop\n      pop\n      pop\n      jump\t// out\n        /* \"#utility.yul\":539:641   */\n    tag_242:\n        /* \"#utility.yul\":580:586   */\n      0x00\n        /* \"#utility.yul\":631:633   */\n      0x1f\n        /* \"#utility.yul\":627:634   */\n      not\n        /* \"#utility.yul\":622:624   */\n      0x1f\n        /* \"#utility.yul\":615:620   */\n      dup4\n        /* \"#utility.yul\":611:625   */\n      add\n        /* \"#utility.yul\":607:635   */\n      and\n        /* \"#utility.yul\":597:635   */\n      swap1\n      pop\n        /* \"#utility.yul\":539:641   */\n      swap2\n      swap1\n      pop\n      jump\t// out\n        /* \"#utility.yul\":647:1024   */\n    tag_243:\n        /* \"#utility.yul\":735:738   */\n      0x00\n        /* \"#utility.yul\":763:802   */\n      tag_282\n        /* \"#utility.yul\":796:801   */\n      dup3\n        /* \"#utility.yul\":763:802   */\n      tag_239\n      jump\t// in\n    tag_282:\n        /* \"#utility.yul\":818:889   */\n      tag_283\n        /* \"#utility.yul\":882:888   */\n      dup2\n        /* \"#utility.yul\":877:880   */\n      dup6\n        /* \"#utility.yul\":818:889   */\n      tag_240\n      jump\t// in\n    tag_283:\n        /* \"#utility.yul\":811:889   */\n      swap4\n      pop\n        /* \"#utility.yul\":898:963   */\n      tag_284\n        /* \"#utility.yul\":956:962   */\n      dup2\n        /* \"#utility.yul\":951:954   */\n      dup6\n        /* \"#utility.yul\":944:948   */\n      0x20\n        /* \"#utility.yul\":937:942   */\n      dup7\n        /* \"#utility.yul\":933:949   */\n      add\n        /* \"#utility.yul\":898:963   */\n      tag_241\n      jump\t// in\n    tag_284:\n        /* \"#utility.yul\":988:1017   */\n      tag_285\n        /* \"#utility.yul\":1010:1016   */\n      dup2\n        /* \"#utility.yul\":988:1017   */\n      tag_242\n      jump\t// in\n    tag_285:\n        /* \"#utility.yul\":983:986   */\n      dup5\n        /* \"#utility.yul\":979:1018   */\n      add\n        /* \"#utility.yul\":972:1018   */\n      swap2\n      pop\n        /* \"#utility.yul\":739:1024   */\n      pop\n        /* \"#utility.yul\":647:1024   */\n      swap3\n      swap2\n      pop\n      pop\n      jump\t// out\n        /* \"#utility.yul\":1030:1343   */\n    tag_26:\n        /* \"#utility.yul\":1143:1147   */\n      0x00\n        /* \"#utility.yul\":1181:1183   */\n      0x20\n        /* \"#utility.yul\":1170:1179   */\n      dup3\n        /* \"#utility.yul\":1166:1184   */\n      add\n        /* \"#utility.yul\":1158:1184   */\n      swap1\n      pop\n        /* \"#utility.yul\":1230:1239   */\n      dup2\n        /* \"#utility.yul\":1224:1228   */\n      dup2\n        /* \"#utility.yul\":1220:1240   */\n      sub\n        /* \"#utility.yul\":1216:1217   */\n      0x00\n        /* \"#utility.yul\":1205:1214   */\n      dup4\n        /* \"#utility.yul\":1201:1218   */\n      add\n        /* \"#utility.yul\":1194:1241   */\n      mstore\n        /* \"#utility.yul\":1258:1336   */\n      tag_287\n        /* \"#utility.yul\":1331:1335   */\n      dup2\n        /* \"#utility.yul\":1322:1328   */\n      dup5\n        /* \"#utility.yul\":1258:1336   */\n      tag_243\n      jump\t// in\n    tag_287:\n        /* \"#utility.yul\":1250:1336   */\n      swap1\n      pop\n        /* \"#utility.yul\":1030:1343   */\n      swap3\n      swap2\n      pop\n      pop\n      jump\t// out\n        /* \"#utility.yul\":1430:1547   */\n    tag_245:\n        /* \"#utility.yul\":1539:1540   */\n      0x00\n        /* \"#utility.yul\":1536:1537   */\n      dup1\n        /* \"#utility.yul\":1529:1541   */\n      revert\n        /* \"#utility.yul\":1676:1802   */\n    tag_247:\n        /* \"#utility.yul\":1713:1720   */\n      0x00\n        /* \"#utility.yul\":1753:1795   */\n      0xffffffffffffffffffffffffffffffffffffffff\n        /* \"#utility.yul\":1746:1751   */\n      dup3\n        /* \"#utility.yul\":1742:1796   */\n      and\n        /* \"#utility.yul\":1731:1796   */\n      swap1\n      pop\n        /* \"#utility.yul\":1676:1802   */\n      swap2\n      swap1\n      pop\n      jump\t// out\n        /* \"#utility.yul\":1808:1904   */\n    tag_248:\n        /* \"#utility.yul\":1845:1852   */\n      0x00\n        /* \"#utility.yul\":1874:1898   */\n      tag_293\n        /* \"#utility.yul\":1892:1897   */\n      dup3\n        /* \"#utility.yul\":1874:1898   */\n      tag_247\n      jump\t// in\n    tag_293:\n        /* \"#utility.yul\":1863:1898   */\n      swap1\n      pop\n        /* \"#utility.yul\":1808:1904   */\n      swap2\n      swap1\n      pop\n      jump\t// out\n        /* \"#utility.yul\":1910:2032   */\n    tag_249:\n        /* \"#utility.yul\":1983:2007   */\n      tag_295\n        /* \"#utility.yul\":2001:2006   */\n      dup2\n        /* \"#utility.yul\":1983:2007   */\n      tag_248\n      jump\t// in\n    tag_295:\n        /* \"#utility.yul\":1976:1981   */\n      dup2\n        /* \"#utility.yul\":1973:2008   */\n      eq\n        /* \"#utility.yul\":1963:2026   */\n      tag_296\n      jumpi\n        /* \"#utility.yul\":2022:2023   */\n      0x00\n        /* \"#utility.yul\":2019:2020   */\n      dup1\n        /* \"#utility.yul\":2012:2024   */\n      revert\n        /* \"#utility.yul\":1963:2026   */\n    tag_296:\n        /* \"#utility.yul\":1910:2032   */\n      pop\n      jump\t// out\n        /* \"#utility.yul\":2038:2177   */\n    tag_250:\n        /* \"#utility.yul\":2084:2089   */\n      0x00\n        /* \"#utility.yul\":2122:2128   */\n      dup2\n        /* \"#utility.yul\":2109:2129   */\n      calldataload\n        /* \"#utility.yul\":2100:2129   */\n      swap1\n      pop\n        /* \"#utility.yul\":2138:2171   */\n      tag_298\n        /* \"#utility.yul\":2165:2170   */\n      dup2\n        /* \"#utility.yul\":2138:2171   */\n      tag_249\n      jump\t// in\n    tag_298:\n        /* \"#utility.yul\":2038:2177   */\n      swap3\n      swap2\n      pop\n      pop\n      jump\t// out\n        /* \"#utility.yul\":2183:2260   */\n    tag_251:\n        /* \"#utility.yul\":2220:2227   */\n      0x00\n        /* \"#utility.yul\":2249:2254   */\n      dup2\n        /* \"#utility.yul\":2238:2254   */\n      swap1\n      pop\n        /* \"#utility.yul\":2183:2260   */\n      swap2\n      swap1\n      pop\n      jump\t// out\n        /* \"#utility.yul\":2266:2388   */\n    tag_252:\n        /* \"#utility.yul\":2339:2363   */\n      tag_301\n        /* \"#utility.yul\":2357:2362   */\n      dup2\n        /* \"#utility.yul\":2339:2363   */\n      tag_251\n      jump\t// in\n    tag_301:\n        /* \"#utility.yul\":2332:2337   */\n      dup2\n        /* \"#utility.yul\":2329:2364   */\n      eq\n        /* \"#utility.yul\":2319:2382   */\n      tag_302\n      jumpi\n        /* \"#utility.yul\":2378:2379   */\n      0x00\n        /* \"#utility.yul\":2375:2376   */\n      dup1\n        /* \"#utility.yul\":2368:2380   */\n      revert\n        /* \"#utility.yul\":2319:2382   */\n    tag_302:\n        /* \"#utility.yul\":2266:2388   */\n      pop\n      jump\t// out\n        /* \"#utility.yul\":2394:2533   */\n    tag_253:\n        /* \"#utility.yul\":2440:2445   */\n      0x00\n        /* \"#utility.yul\":2478:2484   */\n      dup2\n        /* \"#utility.yul\":2465:2485   */\n      calldataload\n        /* \"#utility.yul\":2456:2485   */\n      swap1\n      pop\n        /* \"#utility.yul\":2494:2527   */\n      tag_304\n        /* \"#utility.yul\":2521:2526   */\n      dup2\n        /* \"#utility.yul\":2494:2527   */\n      tag_252\n      jump\t// in\n    tag_304:\n        /* \"#utility.yul\":2394:2533   */\n      swap3\n      swap2\n      pop\n      pop\n      jump\t// out\n        /* \"#utility.yul\":2539:3013   */\n    tag_29:\n        /* \"#utility.yul\":2607:2613   */\n      0x00\n        /* \"#utility.yul\":2615:2621   */\n      dup1\n        /* \"#utility.yul\":2664:2666   */\n      0x40\n        /* \"#utility.yul\":2652:2661   */\n      dup4\n        /* \"#utility.yul\":2643:2650   */\n      dup6\n        /* \"#utility.yul\":2639:2662   */\n      sub\n        /* \"#utility.yul\":2635:2667   */\n      slt\n        /* \"#utility.yul\":2632:2751   */\n      iszero\n      tag_306\n      jumpi\n        /* \"#utility.yul\":2670:2749   */\n      tag_307\n      tag_245\n      jump\t// in\n    tag_307:\n        /* \"#utility.yul\":2632:2751   */\n    tag_306:\n        /* \"#utility.yul\":2790:2791   */\n      0x00\n        /* \"#utility.yul\":2815:2868   */\n      tag_308\n        /* \"#utility.yul\":2860:2867   */\n      dup6\n        /* \"#utility.yul\":2851:2857   */\n      dup3\n        /* \"#utility.yul\":2840:2849   */\n      dup7\n        /* \"#utility.yul\":2836:2858   */\n      add\n        /* \"#utility.yul\":2815:2868   */\n      tag_250\n      jump\t// in\n    tag_308:\n        /* \"#utility.yul\":2805:2868   */\n      swap3\n      pop\n        /* \"#utility.yul\":2761:2878   */\n      pop\n        /* \"#utility.yul\":2917:2919   */\n      0x20\n        /* \"#utility.yul\":2943:2996   */\n      tag_309\n        /* \"#utility.yul\":2988:2995   */\n      dup6\n        /* \"#utility.yul\":2979:2985   */\n      dup3\n        /* \"#utility.yul\":2968:2977   */\n      dup7\n        /* \"#utility.yul\":2964:2986   */\n      add\n        /* \"#utility.yul\":2943:2996   */\n      tag_253\n      jump\t// in\n    tag_309:\n        /* \"#utility.yul\":2933:2996   */\n      swap2\n      pop\n        /* \"#utility.yul\":2888:3006   */\n      pop\n        /* \"#utility.yul\":2539:3013   */\n      swap3\n      pop\n      swap3\n      swap1\n      pop\n      jump\t// out\n        /* \"#utility.yul\":3019:3109   */\n    tag_254:\n        /* \"#utility.yul\":3053:3060   */\n      0x00\n        /* \"#utility.yul\":3096:3101   */\n      dup2\n        /* \"#utility.yul\":3089:3102   */\n      iszero\n        /* \"#utility.yul\":3082:3103   */\n      iszero\n        /* \"#utility.yul\":3071:3103   */\n      swap1\n      pop\n        /* \"#utility.yul\":3019:3109   */\n      swap2\n      swap1\n      pop\n      jump\t// out\n        /* \"#utility.yul\":3115:3224   */\n    tag_255:\n        /* \"#utility.yul\":3196:3217   */\n      tag_312\n        /* \"#utility.yul\":3211:3216   */\n      dup2\n        /* \"#utility.yul\":3196:3217   */\n      tag_254\n      jump\t// in\n    tag_312:\n        /* \"#utility.yul\":3191:3194   */\n      dup3\n        /* \"#utility.yul\":3184:3218   */\n      mstore\n        /* \"#utility.yul\":3115:3224   */\n      pop\n      pop\n      jump\t// out\n        /* \"#utility.yul\":3230:3440   */\n    tag_32:\n        /* \"#utility.yul\":3317:3321   */\n      0x00\n        /* \"#utility.yul\":3355:3357   */\n      0x20\n        /* \"#utility.yul\":3344:3353   */\n      dup3\n        /* \"#utility.yul\":3340:3358   */\n      add\n        /* \"#utility.yul\":3332:3358   */\n      swap1\n      pop\n        /* \"#utility.yul\":3368:3433   */\n      tag_314\n        /* \"#utility.yul\":3430:3431   */\n      0x00\n        /* \"#utility.yul\":3419:3428   */\n      dup4\n        /* \"#utility.yul\":3415:3432   */\n      add\n        /* \"#utility.yul\":3406:3412   */\n      dup5\n        /* \"#utility.yul\":3368:3433   */\n      tag_255\n      jump\t// in\n    tag_314:\n        /* \"#utility.yul\":3230:3440   */\n      swap3\n      swap2\n      pop\n      pop\n      jump\t// out\n        /* \"#utility.yul\":3446:3564   */\n    tag_256:\n        /* \"#utility.yul\":3533:3557   */\n      tag_316\n        /* \"#utility.yul\":3551:3556   */\n      dup2\n        /* \"#utility.yul\":3533:3557   */\n      tag_251\n      jump\t// in\n    tag_316:\n        /* \"#utility.yul\":3528:3531   */\n      dup3\n        /* \"#utility.yul\":3521:3558   */\n      mstore\n        /* \"#utility.yul\":3446:3564   */\n      pop\n      pop\n      jump\t// out\n        /* \"#utility.yul\":3570:3792   */\n    tag_36:\n        /* \"#utility.yul\":3663:3667   */\n      0x00\n        /* \"#utility.yul\":3701:3703   */\n      0x20\n        /* \"#utility.yul\":3690:3699   */\n      dup3\n        /* \"#utility.yul\":3686:3704   */\n      add\n        /* \"#utility.yul\":3678:3704   */\n      swap1\n      pop\n        /* \"#utility.yul\":3714:3785   */\n      tag_318\n        /* \"#utility.yul\":3782:3783   */\n      0x00\n        /* \"#utility.yul\":3771:3780   */\n      dup4\n        /* \"#utility.yul\":3767:3784   */\n      add\n        /* \"#utility.yul\":3758:3764   */\n      dup5\n        /* \"#utility.yul\":3714:3785   */\n      tag_256\n      jump\t// in\n    tag_318:\n        /* \"#utility.yul\":3570:3792   */\n      swap3\n      swap2\n      pop\n      pop\n      jump\t// out\n        /* \"#utility.yul\":3798:4417   */\n    tag_39:\n        /* \"#utility.yul\":3875:3881   */\n      0x00\n        /* \"#utility.yul\":3883:3889   */\n      dup1\n        /* \"#utility.yul\":3891:3897   */\n      0x00\n        /* \"#utility.yul\":3940:3942   */\n      0x60\n        /* \"#utility.yul\":3928:3937   */\n      dup5\n        /* \"#utility.yul\":3919:3926   */\n      dup7\n        /* \"#utility.yul\":3915:3938   */\n      sub\n        /* \"#utility.yul\":3911:3943   */\n      slt\n        /* \"#utility.yul\":3908:4027   */\n      iszero\n      tag_320\n      jumpi\n        /* \"#utility.yul\":3946:4025   */\n      tag_321\n      tag_245\n      jump\t// in\n    tag_321:\n        /* \"#utility.yul\":3908:4027   */\n    tag_320:\n        /* \"#utility.yul\":4066:4067   */\n      0x00\n        /* \"#utility.yul\":4091:4144   */\n      tag_322\n        /* \"#utility.yul\":4136:4143   */\n      dup7\n        /* \"#utility.yul\":4127:4133   */\n      dup3\n        /* \"#utility.yul\":4116:4125   */\n      dup8\n        /* \"#utility.yul\":4112:4134   */\n      add\n        /* \"#utility.yul\":4091:4144   */\n      tag_250\n      jump\t// in\n    tag_322:\n        /* \"#utility.yul\":4081:4144   */\n      swap4\n      pop\n        /* \"#utility.yul\":4037:4154   */\n      pop\n        /* \"#utility.yul\":4193:4195   */\n      0x20\n        /* \"#utility.yul\":4219:4272   */\n      tag_323\n        /* \"#utility.yul\":4264:4271   */\n      dup7\n        /* \"#utility.yul\":4255:4261   */\n      dup3\n        /* \"#utility.yul\":4244:4253   */\n      dup8\n        /* \"#utility.yul\":4240:4262   */\n      add\n        /* \"#utility.yul\":4219:4272   */\n      tag_250\n      jump\t// in\n    tag_323:\n        /* \"#utility.yul\":4209:4272   */\n      swap3\n      pop\n        /* \"#utility.yul\":4164:4282   */\n      pop\n        /* \"#utility.yul\":4321:4323   */\n      0x40\n        /* \"#utility.yul\":4347:4400   */\n      tag_324\n        /* \"#utility.yul\":4392:4399   */\n      dup7\n        /* \"#utility.yul\":4383:4389   */\n      dup3\n        /* \"#utility.yul\":4372:4381   */\n      dup8\n        /* \"#utility.yul\":4368:4390   */\n      add\n        /* \"#utility.yul\":4347:4400   */\n      tag_253\n      jump\t// in\n    tag_324:\n        /* \"#utility.yul\":4337:4400   */\n      swap2\n      pop\n        /* \"#utility.yul\":4292:4410   */\n      pop\n        /* \"#utility.yul\":3798:4417   */\n      swap3\n      pop\n      swap3\n      pop\n      swap3\n      jump\t// out\n        /* \"#utility.yul\":4423:4509   */\n    tag_257:\n        /* \"#utility.yul\":4458:4465   */\n      0x00\n        /* \"#utility.yul\":4498:4502   */\n      0xff\n        /* \"#utility.yul\":4491:4496   */\n      dup3\n        /* \"#utility.yul\":4487:4503   */\n      and\n        /* \"#utility.yul\":4476:4503   */\n      swap1\n      pop\n        /* \"#utility.yul\":4423:4509   */\n      swap2\n      swap1\n      pop\n      jump\t// out\n        /* \"#utility.yul\":4515:4627   */\n    tag_258:\n        /* \"#utility.yul\":4598:4620   */\n      tag_327\n        /* \"#utility.yul\":4614:4619   */\n      dup2\n        /* \"#utility.yul\":4598:4620   */\n      tag_257\n      jump\t// in\n    tag_327:\n        /* \"#utility.yul\":4593:4596   */\n      dup3\n        /* \"#utility.yul\":4586:4621   */\n      mstore\n        /* \"#utility.yul\":4515:4627   */\n      pop\n      pop\n      jump\t// out\n        /* \"#utility.yul\":4633:4847   */\n    tag_45:\n        /* \"#utility.yul\":4722:4726   */\n      0x00\n        /* \"#utility.yul\":4760:4762   */\n      0x20\n        /* \"#utility.yul\":4749:4758   */\n      dup3\n        /* \"#utility.yul\":4745:4763   */\n      add\n        /* \"#utility.yul\":4737:4763   */\n      swap1\n      pop\n        /* \"#utility.yul\":4773:4840   */\n      tag_329\n        /* \"#utility.yul\":4837:4838   */\n      0x00\n        /* \"#utility.yul\":4826:4835   */\n      dup4\n        /* \"#utility.yul\":4822:4839   */\n      add\n        /* \"#utility.yul\":4813:4819   */\n      dup5\n        /* \"#utility.yul\":4773:4840   */\n      tag_258\n      jump\t// in\n    tag_329:\n        /* \"#utility.yul\":4633:4847   */\n      swap3\n      swap2\n      pop\n      pop\n      jump\t// out\n        /* \"#utility.yul\":4853:5182   */\n    tag_48:\n        /* \"#utility.yul\":4912:4918   */\n      0x00\n        /* \"#utility.yul\":4961:4963   */\n      0x20\n        /* \"#utility.yul\":4949:4958   */\n      dup3\n        /* \"#utility.yul\":4940:4947   */\n      dup5\n        /* \"#utility.yul\":4936:4959   */\n      sub\n        /* \"#utility.yul\":4932:4964   */\n      slt\n        /* \"#utility.yul\":4929:5048   */\n      iszero\n      tag_331\n      jumpi\n        /* \"#utility.yul\":4967:5046   */\n      tag_332\n      tag_245\n      jump\t// in\n    tag_332:\n        /* \"#utility.yul\":4929:5048   */\n    tag_331:\n        /* \"#utility.yul\":5087:5088   */\n      0x00\n        /* \"#utility.yul\":5112:5165   */\n      tag_333\n        /* \"#utility.yul\":5157:5164   */\n      dup5\n        /* \"#utility.yul\":5148:5154   */\n      dup3\n        /* \"#utility.yul\":5137:5146   */\n      dup6\n        /* \"#utility.yul\":5133:5155   */\n      add\n        /* \"#utility.yul\":5112:5165   */\n      tag_250\n      jump\t// in\n    tag_333:\n        /* \"#utility.yul\":5102:5165   */\n      swap2\n      pop\n        /* \"#utility.yul\":5058:5175   */\n      pop\n        /* \"#utility.yul\":4853:5182   */\n      swap3\n      swap2\n      pop\n      pop\n      jump\t// out\n        /* \"#utility.yul\":5188:5306   */\n    tag_259:\n        /* \"#utility.yul\":5275:5299   */\n      tag_335\n        /* \"#utility.yul\":5293:5298   */\n      dup2\n        /* \"#utility.yul\":5275:5299   */\n      tag_248\n      jump\t// in\n    tag_335:\n        /* \"#utility.yul\":5270:5273   */\n      dup3\n        /* \"#utility.yul\":5263:5300   */\n      mstore\n        /* \"#utility.yul\":5188:5306   */\n      pop\n      pop\n      jump\t// out\n        /* \"#utility.yul\":5312:5534   */\n    tag_56:\n        /* \"#utility.yul\":5405:5409   */\n      0x00\n        /* \"#utility.yul\":5443:5445   */\n      0x20\n        /* \"#utility.yul\":5432:5441   */\n      dup3\n        /* \"#utility.yul\":5428:5446   */\n      add\n        /* \"#utility.yul\":5420:5446   */\n      swap1\n      pop\n        /* \"#utility.yul\":5456:5527   */\n      tag_337\n        /* \"#utility.yul\":5524:5525   */\n      0x00\n        /* \"#utility.yul\":5513:5522   */\n      dup4\n        /* \"#utility.yul\":5509:5526   */\n      add\n        /* \"#utility.yul\":5500:5506   */\n      dup5\n        /* \"#utility.yul\":5456:5527   */\n      tag_259\n      jump\t// in\n    tag_337:\n        /* \"#utility.yul\":5312:5534   */\n      swap3\n      swap2\n      pop\n      pop\n      jump\t// out\n        /* \"#utility.yul\":5540:6014   */\n    tag_81:\n        /* \"#utility.yul\":5608:5614   */\n      0x00\n        /* \"#utility.yul\":5616:5622   */\n      dup1\n        /* \"#utility.yul\":5665:5667   */\n      0x40\n        /* \"#utility.yul\":5653:5662   */\n      dup4\n        /* \"#utility.yul\":5644:5651   */\n      dup6\n        /* \"#utility.yul\":5640:5663   */\n      sub\n        /* \"#utility.yul\":5636:5668   */\n      slt\n        /* \"#utility.yul\":5633:5752   */\n      iszero\n      tag_339\n      jumpi\n        /* \"#utility.yul\":5671:5750   */\n      tag_340\n      tag_245\n      jump\t// in\n    tag_340:\n        /* \"#utility.yul\":5633:5752   */\n    tag_339:\n        /* \"#utility.yul\":5791:5792   */\n      0x00\n        /* \"#utility.yul\":5816:5869   */\n      tag_341\n        /* \"#utility.yul\":5861:5868   */\n      dup6\n        /* \"#utility.yul\":5852:5858   */\n      dup3\n        /* \"#utility.yul\":5841:5850   */\n      dup7\n        /* \"#utility.yul\":5837:5859   */\n      add\n        /* \"#utility.yul\":5816:5869   */\n      tag_250\n      jump\t// in\n    tag_341:\n        /* \"#utility.yul\":5806:5869   */\n      swap3\n      pop\n        /* \"#utility.yul\":5762:5879   */\n      pop\n        /* \"#utility.yul\":5918:5920   */\n      0x20\n        /* \"#utility.yul\":5944:5997   */\n      tag_342\n        /* \"#utility.yul\":5989:5996   */\n      dup6\n        /* \"#utility.yul\":5980:5986   */\n      dup3\n        /* \"#utility.yul\":5969:5978   */\n      dup7\n        /* \"#utility.yul\":5965:5987   */\n      add\n        /* \"#utility.yul\":5944:5997   */\n      tag_250\n      jump\t// in\n    tag_342:\n        /* \"#utility.yul\":5934:5997   */\n      swap2\n      pop\n        /* \"#utility.yul\":5889:6007   */\n      pop\n        /* \"#utility.yul\":5540:6014   */\n      swap3\n      pop\n      swap3\n      swap1\n      pop\n      jump\t// out\n        /* \"#utility.yul\":6020:6200   */\n    tag_260:\n        /* \"#utility.yul\":6068:6145   */\n      0x4e487b7100000000000000000000000000000000000000000000000000000000\n        /* \"#utility.yul\":6065:6066   */\n      0x00\n        /* \"#utility.yul\":6058:6146   */\n      mstore\n        /* \"#utility.yul\":6165:6169   */\n      0x22\n        /* \"#utility.yul\":6162:6163   */\n      0x04\n        /* \"#utility.yul\":6155:6170   */\n      mstore\n        /* \"#utility.yul\":6189:6193   */\n      0x24\n        /* \"#utility.yul\":6186:6187   */\n      0x00\n        /* \"#utility.yul\":6179:6194   */\n      revert\n        /* \"#utility.yul\":6206:6526   */\n    tag_89:\n        /* \"#utility.yul\":6250:6256   */\n      0x00\n        /* \"#utility.yul\":6287:6288   */\n      0x02\n        /* \"#utility.yul\":6281:6285   */\n      dup3\n        /* \"#utility.yul\":6277:6289   */\n      div\n        /* \"#utility.yul\":6267:6289   */\n      swap1\n      pop\n        /* \"#utility.yul\":6334:6335   */\n      0x01\n        /* \"#utility.yul\":6328:6332   */\n      dup3\n        /* \"#utility.yul\":6324:6336   */\n      and\n        /* \"#utility.yul\":6355:6373   */\n      dup1\n        /* \"#utility.yul\":6345:6426   */\n      tag_345\n      jumpi\n        /* \"#utility.yul\":6411:6415   */\n      0x7f\n        /* \"#utility.yul\":6403:6409   */\n      dup3\n        /* \"#utility.yul\":6399:6416   */\n      and\n        /* \"#utility.yul\":6389:6416   */\n      swap2\n      pop\n        /* \"#utility.yul\":6345:6426   */\n    tag_345:\n        /* \"#utility.yul\":6473:6475   */\n      0x20\n        /* \"#utility.yul\":6465:6471   */\n      dup3\n        /* \"#utility.yul\":6462:6476   */\n      lt\n        /* \"#utility.yul\":6442:6460   */\n      dup2\n        /* \"#utility.yul\":6439:6477   */\n      sub\n        /* \"#utility.yul\":6436:6520   */\n      tag_346\n      jumpi\n        /* \"#utility.yul\":6492:6510   */\n      tag_347\n      tag_260\n      jump\t// in\n    tag_347:\n        /* \"#utility.yul\":6436:6520   */\n    tag_346:\n        /* \"#utility.yul\":6257:6526   */\n      pop\n        /* \"#utility.yul\":6206:6526   */\n      swap2\n      swap1\n      pop\n      jump\t// out\n        /* \"#utility.yul\":6532:6707   */\n    tag_261:\n        /* \"#utility.yul\":6672:6699   */\n      0x41646d696e277320746f6b656e7320617265206c6f636b656400000000000000\n        /* \"#utility.yul\":6668:6669   */\n      0x00\n        /* \"#utility.yul\":6660:6666   */\n      dup3\n        /* \"#utility.yul\":6656:6670   */\n      add\n        /* \"#utility.yul\":6649:6700   */\n      mstore\n        /* \"#utility.yul\":6532:6707   */\n      pop\n      jump\t// out\n        /* \"#utility.yul\":6713:7079   */\n    tag_262:\n        /* \"#utility.yul\":6855:6858   */\n      0x00\n        /* \"#utility.yul\":6876:6943   */\n      tag_350\n        /* \"#utility.yul\":6940:6942   */\n      0x19\n        /* \"#utility.yul\":6935:6938   */\n      dup4\n        /* \"#utility.yul\":6876:6943   */\n      tag_240\n      jump\t// in\n    tag_350:\n        /* \"#utility.yul\":6869:6943   */\n      swap2\n      pop\n        /* \"#utility.yul\":6952:7045   */\n      tag_351\n        /* \"#utility.yul\":7041:7044   */\n      dup3\n        /* \"#utility.yul\":6952:7045   */\n      tag_261\n      jump\t// in\n    tag_351:\n        /* \"#utility.yul\":7070:7072   */\n      0x20\n        /* \"#utility.yul\":7065:7068   */\n      dup3\n        /* \"#utility.yul\":7061:7073   */\n      add\n        /* \"#utility.yul\":7054:7073   */\n      swap1\n      pop\n        /* \"#utility.yul\":6713:7079   */\n      swap2\n      swap1\n      pop\n      jump\t// out\n        /* \"#utility.yul\":7085:7504   */\n    tag_105:\n        /* \"#utility.yul\":7251:7255   */\n      0x00\n        /* \"#utility.yul\":7289:7291   */\n      0x20\n        /* \"#utility.yul\":7278:7287   */\n      dup3\n        /* \"#utility.yul\":7274:7292   */\n      add\n        /* \"#utility.yul\":7266:7292   */\n      swap1\n      pop\n        /* \"#utility.yul\":7338:7347   */\n      dup2\n        /* \"#utility.yul\":7332:7336   */\n      dup2\n        /* \"#utility.yul\":7328:7348   */\n      sub\n        /* \"#utility.yul\":7324:7325   */\n      0x00\n        /* \"#utility.yul\":7313:7322   */\n      dup4\n        /* \"#utility.yul\":7309:7326   */\n      add\n        /* \"#utility.yul\":7302:7349   */\n      mstore\n        /* \"#utility.yul\":7366:7497   */\n      tag_353\n        /* \"#utility.yul\":7492:7496   */\n      dup2\n        /* \"#utility.yul\":7366:7497   */\n      tag_262\n      jump\t// in\n    tag_353:\n        /* \"#utility.yul\":7358:7497   */\n      swap1\n      pop\n        /* \"#utility.yul\":7085:7504   */\n      swap2\n      swap1\n      pop\n      jump\t// out\n        /* \"#utility.yul\":7510:7677   */\n    tag_263:\n        /* \"#utility.yul\":7650:7669   */\n      0x546f6b656e7320617265206c6f636b6564000000000000000000000000000000\n        /* \"#utility.yul\":7646:7647   */\n      0x00\n        /* \"#utility.yul\":7638:7644   */\n      dup3\n        /* \"#utility.yul\":7634:7648   */\n      add\n        /* \"#utility.yul\":7627:7670   */\n      mstore\n        /* \"#utility.yul\":7510:7677   */\n      pop\n      jump\t// out\n        /* \"#utility.yul\":7683:8049   */\n    tag_264:\n        /* \"#utility.yul\":7825:7828   */\n      0x00\n        /* \"#utility.yul\":7846:7913   */\n      tag_356\n        /* \"#utility.yul\":7910:7912   */\n      0x11\n        /* \"#utility.yul\":7905:7908   */\n      dup4\n        /* \"#utility.yul\":7846:7913   */\n      tag_240\n      jump\t// in\n    tag_356:\n        /* \"#utility.yul\":7839:7913   */\n      swap2\n      pop\n        /* \"#utility.yul\":7922:8015   */\n      tag_357\n        /* \"#utility.yul\":8011:8014   */\n      dup3\n        /* \"#utility.yul\":7922:8015   */\n      tag_263\n      jump\t// in\n    tag_357:\n        /* \"#utility.yul\":8040:8042   */\n      0x20\n        /* \"#utility.yul\":8035:8038   */\n      dup3\n        /* \"#utility.yul\":8031:8043   */\n      add\n        /* \"#utility.yul\":8024:8043   */\n      swap1\n      pop\n        /* \"#utility.yul\":7683:8049   */\n      swap2\n      swap1\n      pop\n      jump\t// out\n        /* \"#utility.yul\":8055:8474   */\n    tag_109:\n        /* \"#utility.yul\":8221:8225   */\n      0x00\n        /* \"#utility.yul\":8259:8261   */\n      0x20\n        /* \"#utility.yul\":8248:8257   */\n      dup3\n        /* \"#utility.yul\":8244:8262   */\n      add\n        /* \"#utility.yul\":8236:8262   */\n      swap1\n      pop\n        /* \"#utility.yul\":8308:8317   */\n      dup2\n        /* \"#utility.yul\":8302:8306   */\n      dup2\n        /* \"#utility.yul\":8298:8318   */\n      sub\n        /* \"#utility.yul\":8294:8295   */\n      0x00\n        /* \"#utility.yul\":8283:8292   */\n      dup4\n        /* \"#utility.yul\":8279:8296   */\n      add\n        /* \"#utility.yul\":8272:8319   */\n      mstore\n        /* \"#utility.yul\":8336:8467   */\n      tag_359\n        /* \"#utility.yul\":8462:8466   */\n      dup2\n        /* \"#utility.yul\":8336:8467   */\n      tag_264\n      jump\t// in\n    tag_359:\n        /* \"#utility.yul\":8328:8467   */\n      swap1\n      pop\n        /* \"#utility.yul\":8055:8474   */\n      swap2\n      swap1\n      pop\n      jump\t// out\n        /* \"#utility.yul\":8480:8660   */\n    tag_265:\n        /* \"#utility.yul\":8528:8605   */\n      0x4e487b7100000000000000000000000000000000000000000000000000000000\n        /* \"#utility.yul\":8525:8526   */\n      0x00\n        /* \"#utility.yul\":8518:8606   */\n      mstore\n        /* \"#utility.yul\":8625:8629   */\n      0x11\n        /* \"#utility.yul\":8622:8623   */\n      0x04\n        /* \"#utility.yul\":8615:8630   */\n      mstore\n        /* \"#utility.yul\":8649:8653   */\n      0x24\n        /* \"#utility.yul\":8646:8647   */\n      0x00\n        /* \"#utility.yul\":8639:8654   */\n      revert\n        /* \"#utility.yul\":8666:8857   */\n    tag_112:\n        /* \"#utility.yul\":8706:8709   */\n      0x00\n        /* \"#utility.yul\":8725:8745   */\n      tag_362\n        /* \"#utility.yul\":8743:8744   */\n      dup3\n        /* \"#utility.yul\":8725:8745   */\n      tag_251\n      jump\t// in\n    tag_362:\n        /* \"#utility.yul\":8720:8745   */\n      swap2\n      pop\n        /* \"#utility.yul\":8759:8779   */\n      tag_363\n        /* \"#utility.yul\":8777:8778   */\n      dup4\n        /* \"#utility.yul\":8759:8779   */\n      tag_251\n      jump\t// in\n    tag_363:\n        /* \"#utility.yul\":8754:8779   */\n      swap3\n      pop\n        /* \"#utility.yul\":8802:8803   */\n      dup3\n        /* \"#utility.yul\":8799:8800   */\n      dup3\n        /* \"#utility.yul\":8795:8804   */\n      add\n        /* \"#utility.yul\":8788:8804   */\n      swap1\n      pop\n        /* \"#utility.yul\":8823:8826   */\n      dup1\n        /* \"#utility.yul\":8820:8821   */\n      dup3\n        /* \"#utility.yul\":8817:8827   */\n      gt\n        /* \"#utility.yul\":8814:8850   */\n      iszero\n      tag_364\n      jumpi\n        /* \"#utility.yul\":8830:8848   */\n      tag_365\n      tag_265\n      jump\t// in\n    tag_365:\n        /* \"#utility.yul\":8814:8850   */\n    tag_364:\n        /* \"#utility.yul\":8666:8857   */\n      swap3\n      swap2\n      pop\n      pop\n      jump\t// out\n        /* \"#utility.yul\":8863:9273   */\n    tag_115:\n        /* \"#utility.yul\":8903:8910   */\n      0x00\n        /* \"#utility.yul\":8926:8946   */\n      tag_367\n        /* \"#utility.yul\":8944:8945   */\n      dup3\n        /* \"#utility.yul\":8926:8946   */\n      tag_251\n      jump\t// in\n    tag_367:\n        /* \"#utility.yul\":8921:8946   */\n      swap2\n      pop\n        /* \"#utility.yul\":8960:8980   */\n      tag_368\n        /* \"#utility.yul\":8978:8979   */\n      dup4\n        /* \"#utility.yul\":8960:8980   */\n      tag_251\n      jump\t// in\n    tag_368:\n        /* \"#utility.yul\":8955:8980   */\n      swap3\n      pop\n        /* \"#utility.yul\":9015:9016   */\n      dup3\n        /* \"#utility.yul\":9012:9013   */\n      dup3\n        /* \"#utility.yul\":9008:9017   */\n      mul\n        /* \"#utility.yul\":9037:9067   */\n      tag_369\n        /* \"#utility.yul\":9055:9066   */\n      dup2\n        /* \"#utility.yul\":9037:9067   */\n      tag_251\n      jump\t// in\n    tag_369:\n        /* \"#utility.yul\":9026:9067   */\n      swap2\n      pop\n        /* \"#utility.yul\":9216:9217   */\n      dup3\n        /* \"#utility.yul\":9207:9214   */\n      dup3\n        /* \"#utility.yul\":9203:9218   */\n      div\n        /* \"#utility.yul\":9200:9201   */\n      dup5\n        /* \"#utility.yul\":9197:9219   */\n      eq\n        /* \"#utility.yul\":9177:9178   */\n      dup4\n        /* \"#utility.yul\":9170:9179   */\n      iszero\n        /* \"#utility.yul\":9150:9233   */\n      or\n        /* \"#utility.yul\":9127:9266   */\n      tag_370\n      jumpi\n        /* \"#utility.yul\":9246:9264   */\n      tag_371\n      tag_265\n      jump\t// in\n    tag_371:\n        /* \"#utility.yul\":9127:9266   */\n    tag_370:\n        /* \"#utility.yul\":8911:9273   */\n      pop\n        /* \"#utility.yul\":8863:9273   */\n      swap3\n      swap2\n      pop\n      pop\n      jump\t// out\n        /* \"#utility.yul\":9279:9459   */\n    tag_266:\n        /* \"#utility.yul\":9327:9404   */\n      0x4e487b7100000000000000000000000000000000000000000000000000000000\n        /* \"#utility.yul\":9324:9325   */\n      0x00\n        /* \"#utility.yul\":9317:9405   */\n      mstore\n        /* \"#utility.yul\":9424:9428   */\n      0x12\n        /* \"#utility.yul\":9421:9422   */\n      0x04\n        /* \"#utility.yul\":9414:9429   */\n      mstore\n        /* \"#utility.yul\":9448:9452   */\n      0x24\n        /* \"#utility.yul\":9445:9446   */\n      0x00\n        /* \"#utility.yul\":9438:9453   */\n      revert\n        /* \"#utility.yul\":9465:9650   */\n    tag_117:\n        /* \"#utility.yul\":9505:9506   */\n      0x00\n        /* \"#utility.yul\":9522:9542   */\n      tag_374\n        /* \"#utility.yul\":9540:9541   */\n      dup3\n        /* \"#utility.yul\":9522:9542   */\n      tag_251\n      jump\t// in\n    tag_374:\n        /* \"#utility.yul\":9517:9542   */\n      swap2\n      pop\n        /* \"#utility.yul\":9556:9576   */\n      tag_375\n        /* \"#utility.yul\":9574:9575   */\n      dup4\n        /* \"#utility.yul\":9556:9576   */\n      tag_251\n      jump\t// in\n    tag_375:\n        /* \"#utility.yul\":9551:9576   */\n      swap3\n      pop\n        /* \"#utility.yul\":9595:9596   */\n      dup3\n        /* \"#utility.yul\":9585:9620   */\n      tag_376\n      jumpi\n        /* \"#utility.yul\":9600:9618   */\n      tag_377\n      tag_266\n      jump\t// in\n    tag_377:\n        /* \"#utility.yul\":9585:9620   */\n    tag_376:\n        /* \"#utility.yul\":9642:9643   */\n      dup3\n        /* \"#utility.yul\":9639:9640   */\n      dup3\n        /* \"#utility.yul\":9635:9644   */\n      div\n        /* \"#utility.yul\":9630:9644   */\n      swap1\n      pop\n        /* \"#utility.yul\":9465:9650   */\n      swap3\n      swap2\n      pop\n      pop\n      jump\t// out\n        /* \"#utility.yul\":9656:9893   */\n    tag_267:\n        /* \"#utility.yul\":9796:9830   */\n      0x4f776e657273686970206361707065642061742032302520746f20656e737572\n        /* \"#utility.yul\":9792:9793   */\n      0x00\n        /* \"#utility.yul\":9784:9790   */\n      dup3\n        /* \"#utility.yul\":9780:9794   */\n      add\n        /* \"#utility.yul\":9773:9831   */\n      mstore\n        /* \"#utility.yul\":9865:9885   */\n      0x6520646563656e7472616c697a6174696f6e0000000000000000000000000000\n        /* \"#utility.yul\":9860:9862   */\n      0x20\n        /* \"#utility.yul\":9852:9858   */\n      dup3\n        /* \"#utility.yul\":9848:9863   */\n      add\n        /* \"#utility.yul\":9841:9886   */\n      mstore\n        /* \"#utility.yul\":9656:9893   */\n      pop\n      jump\t// out\n        /* \"#utility.yul\":9899:10265   */\n    tag_268:\n        /* \"#utility.yul\":10041:10044   */\n      0x00\n        /* \"#utility.yul\":10062:10129   */\n      tag_380\n        /* \"#utility.yul\":10126:10128   */\n      0x32\n        /* \"#utility.yul\":10121:10124   */\n      dup4\n        /* \"#utility.yul\":10062:10129   */\n      tag_240\n      jump\t// in\n    tag_380:\n        /* \"#utility.yul\":10055:10129   */\n      swap2\n      pop\n        /* \"#utility.yul\":10138:10231   */\n      tag_381\n        /* \"#utility.yul\":10227:10230   */\n      dup3\n        /* \"#utility.yul\":10138:10231   */\n      tag_267\n      jump\t// in\n    tag_381:\n        /* \"#utility.yul\":10256:10258   */\n      0x40\n        /* \"#utility.yul\":10251:10254   */\n      dup3\n        /* \"#utility.yul\":10247:10259   */\n      add\n        /* \"#utility.yul\":10240:10259   */\n      swap1\n      pop\n        /* \"#utility.yul\":9899:10265   */\n      swap2\n      swap1\n      pop\n      jump\t// out\n        /* \"#utility.yul\":10271:10690   */\n    tag_120:\n        /* \"#utility.yul\":10437:10441   */\n      0x00\n        /* \"#utility.yul\":10475:10477   */\n      0x20\n        /* \"#utility.yul\":10464:10473   */\n      dup3\n        /* \"#utility.yul\":10460:10478   */\n      add\n        /* \"#utility.yul\":10452:10478   */\n      swap1\n      pop\n        /* \"#utility.yul\":10524:10533   */\n      dup2\n        /* \"#utility.yul\":10518:10522   */\n      dup2\n        /* \"#utility.yul\":10514:10534   */\n      sub\n        /* \"#utility.yul\":10510:10511   */\n      0x00\n        /* \"#utility.yul\":10499:10508   */\n      dup4\n        /* \"#utility.yul\":10495:10512   */\n      add\n        /* \"#utility.yul\":10488:10535   */\n      mstore\n        /* \"#utility.yul\":10552:10683   */\n      tag_383\n        /* \"#utility.yul\":10678:10682   */\n      dup2\n        /* \"#utility.yul\":10552:10683   */\n      tag_268\n      jump\t// in\n    tag_383:\n        /* \"#utility.yul\":10544:10683   */\n      swap1\n      pop\n        /* \"#utility.yul\":10271:10690   */\n      swap2\n      swap1\n      pop\n      jump\t// out\n        /* \"#utility.yul\":10696:10920   */\n    tag_269:\n        /* \"#utility.yul\":10836:10870   */\n      0x61646d696e277320746f6b656e7320617265206c6f636b656420666f7220616e\n        /* \"#utility.yul\":10832:10833   */\n      0x00\n        /* \"#utility.yul\":10824:10830   */\n      dup3\n        /* \"#utility.yul\":10820:10834   */\n      add\n        /* \"#utility.yul\":10813:10871   */\n      mstore\n        /* \"#utility.yul\":10905:10912   */\n      0x2079656172000000000000000000000000000000000000000000000000000000\n        /* \"#utility.yul\":10900:10902   */\n      0x20\n        /* \"#utility.yul\":10892:10898   */\n      dup3\n        /* \"#utility.yul\":10888:10903   */\n      add\n        /* \"#utility.yul\":10881:10913   */\n      mstore\n        /* \"#utility.yul\":10696:10920   */\n      pop\n      jump\t// out\n        /* \"#utility.yul\":10926:11292   */\n    tag_270:\n        /* \"#utility.yul\":11068:11071   */\n      0x00\n        /* \"#utility.yul\":11089:11156   */\n      tag_386\n        /* \"#utility.yul\":11153:11155   */\n      0x25\n        /* \"#utility.yul\":11148:11151   */\n      dup4\n        /* \"#utility.yul\":11089:11156   */\n      tag_240\n      jump\t// in\n    tag_386:\n        /* \"#utility.yul\":11082:11156   */\n      swap2\n      pop\n        /* \"#utility.yul\":11165:11258   */\n      tag_387\n        /* \"#utility.yul\":11254:11257   */\n      dup3\n        /* \"#utility.yul\":11165:11258   */\n      tag_269\n      jump\t// in\n    tag_387:\n        /* \"#utility.yul\":11283:11285   */\n      0x40\n        /* \"#utility.yul\":11278:11281   */\n      dup3\n        /* \"#utility.yul\":11274:11286   */\n      add\n        /* \"#utility.yul\":11267:11286   */\n      swap1\n      pop\n        /* \"#utility.yul\":10926:11292   */\n      swap2\n      swap1\n      pop\n      jump\t// out\n        /* \"#utility.yul\":11298:11717   */\n    tag_143:\n        /* \"#utility.yul\":11464:11468   */\n      0x00\n        /* \"#utility.yul\":11502:11504   */\n      0x20\n        /* \"#utility.yul\":11491:11500   */\n      dup3\n        /* \"#utility.yul\":11487:11505   */\n      add\n        /* \"#utility.yul\":11479:11505   */\n      swap1\n      pop\n        /* \"#utility.yul\":11551:11560   */\n      dup2\n        /* \"#utility.yul\":11545:11549   */\n      dup2\n        /* \"#utility.yul\":11541:11561   */\n      sub\n        /* \"#utility.yul\":11537:11538   */\n      0x00\n        /* \"#utility.yul\":11526:11535   */\n      dup4\n        /* \"#utility.yul\":11522:11539   */\n      add\n        /* \"#utility.yul\":11515:11562   */\n      mstore\n        /* \"#utility.yul\":11579:11710   */\n      tag_389\n        /* \"#utility.yul\":11705:11709   */\n      dup2\n        /* \"#utility.yul\":11579:11710   */\n      tag_270\n      jump\t// in\n    tag_389:\n        /* \"#utility.yul\":11571:11710   */\n      swap1\n      pop\n        /* \"#utility.yul\":11298:11717   */\n      swap2\n      swap1\n      pop\n      jump\t// out\n        /* \"#utility.yul\":11723:11889   */\n    tag_271:\n        /* \"#utility.yul\":11863:11881   */\n      0x6e6f7420666f722073616c652079657400000000000000000000000000000000\n        /* \"#utility.yul\":11859:11860   */\n      0x00\n        /* \"#utility.yul\":11851:11857   */\n      dup3\n        /* \"#utility.yul\":11847:11861   */\n      add\n        /* \"#utility.yul\":11840:11882   */\n      mstore\n        /* \"#utility.yul\":11723:11889   */\n      pop\n      jump\t// out\n        /* \"#utility.yul\":11895:12261   */\n    tag_272:\n        /* \"#utility.yul\":12037:12040   */\n      0x00\n        /* \"#utility.yul\":12058:12125   */\n      tag_392\n        /* \"#utility.yul\":12122:12124   */\n      0x10\n        /* \"#utility.yul\":12117:12120   */\n      dup4\n        /* \"#utility.yul\":12058:12125   */\n      tag_240\n      jump\t// in\n    tag_392:\n        /* \"#utility.yul\":12051:12125   */\n      swap2\n      pop\n        /* \"#utility.yul\":12134:12227   */\n      tag_393\n        /* \"#utility.yul\":12223:12226   */\n      dup3\n        /* \"#utility.yul\":12134:12227   */\n      tag_271\n      jump\t// in\n    tag_393:\n        /* \"#utility.yul\":12252:12254   */\n      0x20\n        /* \"#utility.yul\":12247:12250   */\n      dup3\n        /* \"#utility.yul\":12243:12255   */\n      add\n        /* \"#utility.yul\":12236:12255   */\n      swap1\n      pop\n        /* \"#utility.yul\":11895:12261   */\n      swap2\n      swap1\n      pop\n      jump\t// out\n        /* \"#utility.yul\":12267:12686   */\n    tag_146:\n        /* \"#utility.yul\":12433:12437   */\n      0x00\n        /* \"#utility.yul\":12471:12473   */\n      0x20\n        /* \"#utility.yul\":12460:12469   */\n      dup3\n        /* \"#utility.yul\":12456:12474   */\n      add\n        /* \"#utility.yul\":12448:12474   */\n      swap1\n      pop\n        /* \"#utility.yul\":12520:12529   */\n      dup2\n        /* \"#utility.yul\":12514:12518   */\n      dup2\n        /* \"#utility.yul\":12510:12530   */\n      sub\n        /* \"#utility.yul\":12506:12507   */\n      0x00\n        /* \"#utility.yul\":12495:12504   */\n      dup4\n        /* \"#utility.yul\":12491:12508   */\n      add\n        /* \"#utility.yul\":12484:12531   */\n      mstore\n        /* \"#utility.yul\":12548:12679   */\n      tag_395\n        /* \"#utility.yul\":12674:12678   */\n      dup2\n        /* \"#utility.yul\":12548:12679   */\n      tag_272\n      jump\t// in\n    tag_395:\n        /* \"#utility.yul\":12540:12679   */\n      swap1\n      pop\n        /* \"#utility.yul\":12267:12686   */\n      swap2\n      swap1\n      pop\n      jump\t// out\n        /* \"#utility.yul\":12692:13134   */\n    tag_222:\n        /* \"#utility.yul\":12841:12845   */\n      0x00\n        /* \"#utility.yul\":12879:12881   */\n      0x60\n        /* \"#utility.yul\":12868:12877   */\n      dup3\n        /* \"#utility.yul\":12864:12882   */\n      add\n        /* \"#utility.yul\":12856:12882   */\n      swap1\n      pop\n        /* \"#utility.yul\":12892:12963   */\n      tag_397\n        /* \"#utility.yul\":12960:12961   */\n      0x00\n        /* \"#utility.yul\":12949:12958   */\n      dup4\n        /* \"#utility.yul\":12945:12962   */\n      add\n        /* \"#utility.yul\":12936:12942   */\n      dup7\n        /* \"#utility.yul\":12892:12963   */\n      tag_259\n      jump\t// in\n    tag_397:\n        /* \"#utility.yul\":12973:13045   */\n      tag_398\n        /* \"#utility.yul\":13041:13043   */\n      0x20\n        /* \"#utility.yul\":13030:13039   */\n      dup4\n        /* \"#utility.yul\":13026:13044   */\n      add\n        /* \"#utility.yul\":13017:13023   */\n      dup6\n        /* \"#utility.yul\":12973:13045   */\n      tag_256\n      jump\t// in\n    tag_398:\n        /* \"#utility.yul\":13055:13127   */\n      tag_399\n        /* \"#utility.yul\":13123:13125   */\n      0x40\n        /* \"#utility.yul\":13112:13121   */\n      dup4\n        /* \"#utility.yul\":13108:13126   */\n      add\n        /* \"#utility.yul\":13099:13105   */\n      dup5\n        /* \"#utility.yul\":13055:13127   */\n      tag_256\n      jump\t// in\n    tag_399:\n        /* \"#utility.yul\":12692:13134   */\n      swap5\n      swap4\n      pop\n      pop\n      pop\n      pop\n      jump\t// out\n\n    auxdata: 0xa26469706673582212206db3e6e5d6cd499890225b2505d93d1539cb9f671886dd8b12c8b7464eb9dae664736f6c63430008140033\n}\n",
				"bytecode": {
					"linkReferences": {},
					"object": "608060405234801562000010575f80fd5b506040516200294c3803806200294c8339818101604052810190620000369190620009ca565b87878781600390816200004a919062000d57565b5080600490816200005c919062000d57565b5050505f73ffffffffffffffffffffffffffffffffffffffff168173ffffffffffffffffffffffffffffffffffffffff1603620000d2575f6040517f1e4fbdf7000000000000000000000000000000000000000000000000000000008152600401620000c9919062000e4c565b60405180910390fd5b620000e3816200029160201b60201c565b5082518451146200012b576040517f08c379a0000000000000000000000000000000000000000000000000000000008152600401620001229062000eeb565b60405180910390fd5b84600781905550814262000140919062000f38565b60088190555080600a908162000157919062000d57565b505f5b8451811015620002385760075460065485838151811062000180576200017f62000f72565b5b602002602001015162000194919062000f38565b11156200019f575f80fd5b620001eb858281518110620001b957620001b862000f72565b5b6020026020010151858381518110620001d757620001d662000f72565b5b60200260200101516200035460201b60201c565b83818151811062000201576200020062000f72565b5b602002602001015160065f8282546200021b919062000f38565b9250508190555080806200022f9062000f9f565b9150506200015a565b505f6006546007546200024c919062000feb565b90505f81111562000282576200026989826200035460201b60201c565b6301e13380426200027b919062000f38565b6009819055505b5050505050505050506200108c565b5f60055f9054906101000a900473ffffffffffffffffffffffffffffffffffffffff1690508160055f6101000a81548173ffffffffffffffffffffffffffffffffffffffff021916908373ffffffffffffffffffffffffffffffffffffffff1602179055508173ffffffffffffffffffffffffffffffffffffffff168173ffffffffffffffffffffffffffffffffffffffff167f8be0079c531659141344cd1fd0a4f28419497f9722a3daafe3b4186f6b6457e060405160405180910390a35050565b5f73ffffffffffffffffffffffffffffffffffffffff168273ffffffffffffffffffffffffffffffffffffffff1603620003c7575f6040517fec442f05000000000000000000000000000000000000000000000000000000008152600401620003be919062000e4c565b60405180910390fd5b620003da5f8383620003de60201b60201c565b5050565b5f73ffffffffffffffffffffffffffffffffffffffff168373ffffffffffffffffffffffffffffffffffffffff160362000432578060025f82825462000425919062000f38565b9250508190555062000503565b5f805f8573ffffffffffffffffffffffffffffffffffffffff1673ffffffffffffffffffffffffffffffffffffffff1681526020019081526020015f2054905081811015620004be578381836040517fe450d38c000000000000000000000000000000000000000000000000000000008152600401620004b59392919062001036565b60405180910390fd5b8181035f808673ffffffffffffffffffffffffffffffffffffffff1673ffffffffffffffffffffffffffffffffffffffff1681526020019081526020015f2081905550505b5f73ffffffffffffffffffffffffffffffffffffffff168273ffffffffffffffffffffffffffffffffffffffff16036200054c578060025f828254039250508190555062000596565b805f808473ffffffffffffffffffffffffffffffffffffffff1673ffffffffffffffffffffffffffffffffffffffff1681526020019081526020015f205f82825401925050819055505b8173ffffffffffffffffffffffffffffffffffffffff168373ffffffffffffffffffffffffffffffffffffffff167fddf252ad1be2c89b69c2b068fc378daa952ba7f163c4a11628f55a4df523b3ef83604051620005f5919062001071565b60405180910390a3505050565b5f604051905090565b5f80fd5b5f80fd5b5f73ffffffffffffffffffffffffffffffffffffffff82169050919050565b5f6200063e8262000613565b9050919050565b620006508162000632565b81146200065b575f80fd5b50565b5f815190506200066e8162000645565b92915050565b5f80fd5b5f80fd5b5f601f19601f8301169050919050565b7f4e487b71000000000000000000000000000000000000000000000000000000005f52604160045260245ffd5b620006c4826200067c565b810181811067ffffffffffffffff82111715620006e657620006e56200068c565b5b80604052505050565b5f620006fa62000602565b9050620007088282620006b9565b919050565b5f67ffffffffffffffff8211156200072a57620007296200068c565b5b62000735826200067c565b9050602081019050919050565b5f5b838110156200076157808201518184015260208101905062000744565b5f8484015250505050565b5f620007826200077c846200070d565b620006ef565b905082815260208101848484011115620007a157620007a062000678565b5b620007ae84828562000742565b509392505050565b5f82601f830112620007cd57620007cc62000674565b5b8151620007df8482602086016200076c565b91505092915050565b5f819050919050565b620007fc81620007e8565b811462000807575f80fd5b50565b5f815190506200081a81620007f1565b92915050565b5f67ffffffffffffffff8211156200083d576200083c6200068c565b5b602082029050602081019050919050565b5f80fd5b5f62000868620008628462000820565b620006ef565b905080838252602082019050602084028301858111156200088e576200088d6200084e565b5b835b81811015620008bb5780620008a688826200065e565b84526020840193505060208101905062000890565b5050509392505050565b5f82601f830112620008dc57620008db62000674565b5b8151620008ee84826020860162000852565b91505092915050565b5f67ffffffffffffffff8211156200091457620009136200068c565b5b602082029050602081019050919050565b5f6200093b6200093584620008f7565b620006ef565b905080838252602082019050602084028301858111156200096157620009606200084e565b5b835b818110156200098e57806200097988826200080a565b84526020840193505060208101905062000963565b5050509392505050565b5f82601f830112620009af57620009ae62000674565b5b8151620009c184826020860162000925565b91505092915050565b5f805f805f805f80610100898b031215620009ea57620009e96200060b565b5b5f620009f98b828c016200065e565b985050602089015167ffffffffffffffff81111562000a1d5762000a1c6200060f565b5b62000a2b8b828c01620007b6565b975050604089015167ffffffffffffffff81111562000a4f5762000a4e6200060f565b5b62000a5d8b828c01620007b6565b965050606062000a708b828c016200080a565b955050608089015167ffffffffffffffff81111562000a945762000a936200060f565b5b62000aa28b828c01620008c5565b94505060a089015167ffffffffffffffff81111562000ac65762000ac56200060f565b5b62000ad48b828c0162000998565b93505060c062000ae78b828c016200080a565b92505060e089015167ffffffffffffffff81111562000b0b5762000b0a6200060f565b5b62000b198b828c01620007b6565b9150509295985092959890939650565b5f81519050919050565b7f4e487b71000000000000000000000000000000000000000000000000000000005f52602260045260245ffd5b5f600282049050600182168062000b7857607f821691505b60208210810362000b8e5762000b8d62000b33565b5b50919050565b5f819050815f5260205f209050919050565b5f6020601f8301049050919050565b5f82821b905092915050565b5f6008830262000bf27fffffffffffffffffffffffffffffffffffffffffffffffffffffffffffffffff8262000bb5565b62000bfe868362000bb5565b95508019841693508086168417925050509392505050565b5f819050919050565b5f62000c3f62000c3962000c3384620007e8565b62000c16565b620007e8565b9050919050565b5f819050919050565b62000c5a8362000c1f565b62000c7262000c698262000c46565b84845462000bc1565b825550505050565b5f90565b62000c8862000c7a565b62000c9581848462000c4f565b505050565b5b8181101562000cbc5762000cb05f8262000c7e565b60018101905062000c9b565b5050565b601f82111562000d0b5762000cd58162000b94565b62000ce08462000ba6565b8101602085101562000cf0578190505b62000d0862000cff8562000ba6565b83018262000c9a565b50505b505050565b5f82821c905092915050565b5f62000d2d5f198460080262000d10565b1980831691505092915050565b5f62000d47838362000d1c565b9150826002028217905092915050565b62000d628262000b29565b67ffffffffffffffff81111562000d7e5762000d7d6200068c565b5b62000d8a825462000b60565b62000d9782828562000cc0565b5f60209050601f83116001811462000dcd575f841562000db8578287015190505b62000dc4858262000d3a565b86555062000e33565b601f19841662000ddd8662000b94565b5f5b8281101562000e065784890151825560018201915060208501945060208101905062000ddf565b8683101562000e26578489015162000e22601f89168262000d1c565b8355505b6001600288020188555050505b505050505050565b62000e468162000632565b82525050565b5f60208201905062000e615f83018462000e3b565b92915050565b5f82825260208201905092915050565b7f737562736372696265727320616e6420746865697220616d6f756e747320646f5f8201527f206e6f74206d6174636800000000000000000000000000000000000000000000602082015250565b5f62000ed3602a8362000e67565b915062000ee08262000e77565b604082019050919050565b5f6020820190508181035f83015262000f048162000ec5565b9050919050565b7f4e487b71000000000000000000000000000000000000000000000000000000005f52601160045260245ffd5b5f62000f4482620007e8565b915062000f5183620007e8565b925082820190508082111562000f6c5762000f6b62000f0b565b5b92915050565b7f4e487b71000000000000000000000000000000000000000000000000000000005f52603260045260245ffd5b5f62000fab82620007e8565b91507fffffffffffffffffffffffffffffffffffffffffffffffffffffffffffffffff820362000fe05762000fdf62000f0b565b5b600182019050919050565b5f62000ff782620007e8565b91506200100483620007e8565b92508282039050818111156200101f576200101e62000f0b565b5b92915050565b6200103081620007e8565b82525050565b5f6060820190506200104b5f83018662000e3b565b6200105a602083018562001025565b62001069604083018462001025565b949350505050565b5f602082019050620010865f83018462001025565b92915050565b6118b2806200109a5f395ff3fe608060405234801561000f575f80fd5b5060043610610109575f3560e01c806395d89b41116100a0578063b93a53961161006f578063b93a5396146102a7578063bd7dac92146102c3578063c0a4d64d146102e1578063dd62ed3e146102ff578063f2fde38b1461032f57610109565b806395d89b411461021f5780639f3adb0e1461023d578063a9059cbb1461025b578063ae84827a1461028b57610109565b8063313ce567116100dc578063313ce567146101a957806370a08231146101c7578063715018a6146101f75780638da5cb5b1461020157610109565b806306fdde031461010d578063095ea7b31461012b57806318160ddd1461015b57806323b872dd14610179575b5f80fd5b61011561034b565b6040516101229190611239565b60405180910390f35b610145600480360381019061014091906112ea565b6103db565b6040516101529190611342565b60405180910390f35b6101636103fd565b604051610170919061136a565b60405180910390f35b610193600480360381019061018e9190611383565b610406565b6040516101a09190611342565b60405180910390f35b6101b161055e565b6040516101be91906113ee565b60405180910390f35b6101e160048036038101906101dc9190611407565b610562565b6040516101ee919061136a565b60405180910390f35b6101ff6105a7565b005b6102096105ba565b6040516102169190611441565b60405180910390f35b6102276105e2565b6040516102349190611239565b60405180910390f35b610245610672565b604051610252919061136a565b60405180910390f35b610275600480360381019061027091906112ea565b610678565b6040516102829190611342565b60405180910390f35b6102a560048036038101906102a091906112ea565b6107c9565b005b6102c160048036038101906102bc91906112ea565b6107df565b005b6102cb6107f5565b6040516102d89190611239565b60405180910390f35b6102e9610885565b6040516102f6919061136a565b60405180910390f35b6103196004803603810190610314919061145a565b61088e565b604051610326919061136a565b60405180910390f35b61034960048036038101906103449190611407565b610910565b005b60606003805461035a906114c5565b80601f0160208091040260200160405190810160405280929190818152602001828054610386906114c5565b80156103d15780601f106103a8576101008083540402835291602001916103d1565b820191905f5260205f20905b8154815290600101906020018083116103b457829003601f168201915b5050505050905090565b5f806103e5610994565b90506103f281858561099b565b600191505092915050565b5f600254905090565b5f61040f6105ba565b73ffffffffffffffffffffffffffffffffffffffff168473ffffffffffffffffffffffffffffffffffffffff160361048b57600954421015610486576040517f08c379a000000000000000000000000000000000000000000000000000000000815260040161047d9061153f565b60405180910390fd5b6104d1565b6008544210156104d0576040517f08c379a00000000000000000000000000000000000000000000000000000000081526004016104c7906115a7565b60405180910390fd5b5b5f826104dc85610562565b6104e691906115f2565b905060646104f26103fd565b60146104fe9190611625565b6105089190611693565b8110610549576040517f08c379a000000000000000000000000000000000000000000000000000000000815260040161054090611733565b60405180910390fd5b6105548585856109ad565b9150509392505050565b5f90565b5f805f8373ffffffffffffffffffffffffffffffffffffffff1673ffffffffffffffffffffffffffffffffffffffff1681526020019081526020015f20549050919050565b6105af6109db565b6105b85f610a62565b565b5f60055f9054906101000a900473ffffffffffffffffffffffffffffffffffffffff16905090565b6060600480546105f1906114c5565b80601f016020809104026020016040519081016040528092919081815260200182805461061d906114c5565b80156106685780601f1061063f57610100808354040283529160200191610668565b820191905f5260205f20905b81548152906001019060200180831161064b57829003601f168201915b5050505050905090565b60095481565b5f6106816105ba565b73ffffffffffffffffffffffffffffffffffffffff163373ffffffffffffffffffffffffffffffffffffffff16036106f9576009544210156106f8576040517f08c379a00000000000000000000000000000000000000000000000000000000081526004016106ef906117c1565b60405180910390fd5b5b60085442101561073e576040517f08c379a000000000000000000000000000000000000000000000000000000000815260040161073590611829565b60405180910390fd5b5f8261074985610562565b61075391906115f2565b9050606461075f6103fd565b601461076b9190611625565b6107759190611693565b81106107b6576040517f08c379a00000000000000000000000000000000000000000000000000000000081526004016107ad90611733565b60405180910390fd5b6107c08484610b25565b91505092915050565b6107d16109db565b6107db8282610b47565b5050565b6107e76109db565b6107f18282610bc6565b5050565b6060600a8054610804906114c5565b80601f0160208091040260200160405190810160405280929190818152602001828054610830906114c5565b801561087b5780601f106108525761010080835404028352916020019161087b565b820191905f5260205f20905b81548152906001019060200180831161085e57829003601f168201915b5050505050905090565b5f600854905090565b5f60015f8473ffffffffffffffffffffffffffffffffffffffff1673ffffffffffffffffffffffffffffffffffffffff1681526020019081526020015f205f8373ffffffffffffffffffffffffffffffffffffffff1673ffffffffffffffffffffffffffffffffffffffff1681526020019081526020015f2054905092915050565b6109186109db565b5f73ffffffffffffffffffffffffffffffffffffffff168173ffffffffffffffffffffffffffffffffffffffff1603610988575f6040517f1e4fbdf700000000000000000000000000000000000000000000000000000000815260040161097f9190611441565b60405180910390fd5b61099181610a62565b50565b5f33905090565b6109a88383836001610c45565b505050565b5f806109b7610994565b90506109c4858285610e14565b6109cf858585610ea6565b60019150509392505050565b6109e3610994565b73ffffffffffffffffffffffffffffffffffffffff16610a016105ba565b73ffffffffffffffffffffffffffffffffffffffff1614610a6057610a24610994565b6040517f118cdaa7000000000000000000000000000000000000000000000000000000008152600401610a579190611441565b60405180910390fd5b565b5f60055f9054906101000a900473ffffffffffffffffffffffffffffffffffffffff1690508160055f6101000a81548173ffffffffffffffffffffffffffffffffffffffff021916908373ffffffffffffffffffffffffffffffffffffffff1602179055508173ffffffffffffffffffffffffffffffffffffffff168173ffffffffffffffffffffffffffffffffffffffff167f8be0079c531659141344cd1fd0a4f28419497f9722a3daafe3b4186f6b6457e060405160405180910390a35050565b5f80610b2f610994565b9050610b3c818585610ea6565b600191505092915050565b5f73ffffffffffffffffffffffffffffffffffffffff168273ffffffffffffffffffffffffffffffffffffffff1603610bb7575f6040517f96c6fd1e000000000000000000000000000000000000000000000000000000008152600401610bae9190611441565b60405180910390fd5b610bc2825f83610f96565b5050565b5f73ffffffffffffffffffffffffffffffffffffffff168273ffffffffffffffffffffffffffffffffffffffff1603610c36575f6040517fec442f05000000000000000000000000000000000000000000000000000000008152600401610c2d9190611441565b60405180910390fd5b610c415f8383610f96565b5050565b5f73ffffffffffffffffffffffffffffffffffffffff168473ffffffffffffffffffffffffffffffffffffffff1603610cb5575f6040517fe602df05000000000000000000000000000000000000000000000000000000008152600401610cac9190611441565b60405180910390fd5b5f73ffffffffffffffffffffffffffffffffffffffff168373ffffffffffffffffffffffffffffffffffffffff1603610d25575f6040517f94280d62000000000000000000000000000000000000000000000000000000008152600401610d1c9190611441565b60405180910390fd5b8160015f8673ffffffffffffffffffffffffffffffffffffffff1673ffffffffffffffffffffffffffffffffffffffff1681526020019081526020015f205f8573ffffffffffffffffffffffffffffffffffffffff1673ffffffffffffffffffffffffffffffffffffffff1681526020019081526020015f20819055508015610e0e578273ffffffffffffffffffffffffffffffffffffffff168473ffffffffffffffffffffffffffffffffffffffff167f8c5be1e5ebec7d5bd14f71427d1e84f3dd0314c0f7b2291e5b200ac8c7c3b92584604051610e05919061136a565b60405180910390a35b50505050565b5f610e1f848461088e565b90507fffffffffffffffffffffffffffffffffffffffffffffffffffffffffffffffff8114610ea05781811015610e91578281836040517ffb8f41b2000000000000000000000000000000000000000000000000000000008152600401610e8893929190611847565b60405180910390fd5b610e9f84848484035f610c45565b5b50505050565b5f73ffffffffffffffffffffffffffffffffffffffff168373ffffffffffffffffffffffffffffffffffffffff1603610f16575f6040517f96c6fd1e000000000000000000000000000000000000000000000000000000008152600401610f0d9190611441565b60405180910390fd5b5f73ffffffffffffffffffffffffffffffffffffffff168273ffffffffffffffffffffffffffffffffffffffff1603610f86575f6040517fec442f05000000000000000000000000000000000000000000000000000000008152600401610f7d9190611441565b60405180910390fd5b610f91838383610f96565b505050565b5f73ffffffffffffffffffffffffffffffffffffffff168373ffffffffffffffffffffffffffffffffffffffff1603610fe6578060025f828254610fda91906115f2565b925050819055506110b4565b5f805f8573ffffffffffffffffffffffffffffffffffffffff1673ffffffffffffffffffffffffffffffffffffffff1681526020019081526020015f205490508181101561106f578381836040517fe450d38c00000000000000000000000000000000000000000000000000000000815260040161106693929190611847565b60405180910390fd5b8181035f808673ffffffffffffffffffffffffffffffffffffffff1673ffffffffffffffffffffffffffffffffffffffff1681526020019081526020015f2081905550505b5f73ffffffffffffffffffffffffffffffffffffffff168273ffffffffffffffffffffffffffffffffffffffff16036110fb578060025f8282540392505081905550611145565b805f808473ffffffffffffffffffffffffffffffffffffffff1673ffffffffffffffffffffffffffffffffffffffff1681526020019081526020015f205f82825401925050819055505b8173ffffffffffffffffffffffffffffffffffffffff168373ffffffffffffffffffffffffffffffffffffffff167fddf252ad1be2c89b69c2b068fc378daa952ba7f163c4a11628f55a4df523b3ef836040516111a2919061136a565b60405180910390a3505050565b5f81519050919050565b5f82825260208201905092915050565b5f5b838110156111e65780820151818401526020810190506111cb565b5f8484015250505050565b5f601f19601f8301169050919050565b5f61120b826111af565b61121581856111b9565b93506112258185602086016111c9565b61122e816111f1565b840191505092915050565b5f6020820190508181035f8301526112518184611201565b905092915050565b5f80fd5b5f73ffffffffffffffffffffffffffffffffffffffff82169050919050565b5f6112868261125d565b9050919050565b6112968161127c565b81146112a0575f80fd5b50565b5f813590506112b18161128d565b92915050565b5f819050919050565b6112c9816112b7565b81146112d3575f80fd5b50565b5f813590506112e4816112c0565b92915050565b5f8060408385031215611300576112ff611259565b5b5f61130d858286016112a3565b925050602061131e858286016112d6565b9150509250929050565b5f8115159050919050565b61133c81611328565b82525050565b5f6020820190506113555f830184611333565b92915050565b611364816112b7565b82525050565b5f60208201905061137d5f83018461135b565b92915050565b5f805f6060848603121561139a57611399611259565b5b5f6113a7868287016112a3565b93505060206113b8868287016112a3565b92505060406113c9868287016112d6565b9150509250925092565b5f60ff82169050919050565b6113e8816113d3565b82525050565b5f6020820190506114015f8301846113df565b92915050565b5f6020828403121561141c5761141b611259565b5b5f611429848285016112a3565b91505092915050565b61143b8161127c565b82525050565b5f6020820190506114545f830184611432565b92915050565b5f80604083850312156114705761146f611259565b5b5f61147d858286016112a3565b925050602061148e858286016112a3565b9150509250929050565b7f4e487b71000000000000000000000000000000000000000000000000000000005f52602260045260245ffd5b5f60028204905060018216806114dc57607f821691505b6020821081036114ef576114ee611498565b5b50919050565b7f41646d696e277320746f6b656e7320617265206c6f636b6564000000000000005f82015250565b5f6115296019836111b9565b9150611534826114f5565b602082019050919050565b5f6020820190508181035f8301526115568161151d565b9050919050565b7f546f6b656e7320617265206c6f636b65640000000000000000000000000000005f82015250565b5f6115916011836111b9565b915061159c8261155d565b602082019050919050565b5f6020820190508181035f8301526115be81611585565b9050919050565b7f4e487b71000000000000000000000000000000000000000000000000000000005f52601160045260245ffd5b5f6115fc826112b7565b9150611607836112b7565b925082820190508082111561161f5761161e6115c5565b5b92915050565b5f61162f826112b7565b915061163a836112b7565b9250828202611648816112b7565b9150828204841483151761165f5761165e6115c5565b5b5092915050565b7f4e487b71000000000000000000000000000000000000000000000000000000005f52601260045260245ffd5b5f61169d826112b7565b91506116a8836112b7565b9250826116b8576116b7611666565b5b828204905092915050565b7f4f776e657273686970206361707065642061742032302520746f20656e7375725f8201527f6520646563656e7472616c697a6174696f6e0000000000000000000000000000602082015250565b5f61171d6032836111b9565b9150611728826116c3565b604082019050919050565b5f6020820190508181035f83015261174a81611711565b9050919050565b7f61646d696e277320746f6b656e7320617265206c6f636b656420666f7220616e5f8201527f2079656172000000000000000000000000000000000000000000000000000000602082015250565b5f6117ab6025836111b9565b91506117b682611751565b604082019050919050565b5f6020820190508181035f8301526117d88161179f565b9050919050565b7f6e6f7420666f722073616c6520796574000000000000000000000000000000005f82015250565b5f6118136010836111b9565b915061181e826117df565b602082019050919050565b5f6020820190508181035f83015261184081611807565b9050919050565b5f60608201905061185a5f830186611432565b611867602083018561135b565b611874604083018461135b565b94935050505056fea26469706673582212206db3e6e5d6cd499890225b2505d93d1539cb9f671886dd8b12c8b7464eb9dae664736f6c63430008140033",
					"opcodes": "PUSH1 0x80 PUSH1 0x40 MSTORE CALLVALUE DUP1 ISZERO PUSH3 0x10 JUMPI PUSH0 DUP1 REVERT JUMPDEST POP PUSH1 0x40 MLOAD PUSH3 0x294C CODESIZE SUB DUP1 PUSH3 0x294C DUP4 CODECOPY DUP2 DUP2 ADD PUSH1 0x40 MSTORE DUP2 ADD SWAP1 PUSH3 0x36 SWAP2 SWAP1 PUSH3 0x9CA JUMP JUMPDEST DUP8 DUP8 DUP8 DUP2 PUSH1 0x3 SWAP1 DUP2 PUSH3 0x4A SWAP2 SWAP1 PUSH3 0xD57 JUMP JUMPDEST POP DUP1 PUSH1 0x4 SWAP1 DUP2 PUSH3 0x5C SWAP2 SWAP1 PUSH3 0xD57 JUMP JUMPDEST POP POP POP PUSH0 PUSH20 0xFFFFFFFFFFFFFFFFFFFFFFFFFFFFFFFFFFFFFFFF AND DUP2 PUSH20 0xFFFFFFFFFFFFFFFFFFFFFFFFFFFFFFFFFFFFFFFF AND SUB PUSH3 0xD2 JUMPI PUSH0 PUSH1 0x40 MLOAD PUSH32 0x1E4FBDF700000000000000000000000000000000000000000000000000000000 DUP2 MSTORE PUSH1 0x4 ADD PUSH3 0xC9 SWAP2 SWAP1 PUSH3 0xE4C JUMP JUMPDEST PUSH1 0x40 MLOAD DUP1 SWAP2 SUB SWAP1 REVERT JUMPDEST PUSH3 0xE3 DUP2 PUSH3 0x291 PUSH1 0x20 SHL PUSH1 0x20 SHR JUMP JUMPDEST POP DUP3 MLOAD DUP5 MLOAD EQ PUSH3 0x12B JUMPI PUSH1 0x40 MLOAD PUSH32 0x8C379A000000000000000000000000000000000000000000000000000000000 DUP2 MSTORE PUSH1 0x4 ADD PUSH3 0x122 SWAP1 PUSH3 0xEEB JUMP JUMPDEST PUSH1 0x40 MLOAD DUP1 SWAP2 SUB SWAP1 REVERT JUMPDEST DUP5 PUSH1 0x7 DUP2 SWAP1 SSTORE POP DUP2 TIMESTAMP PUSH3 0x140 SWAP2 SWAP1 PUSH3 0xF38 JUMP JUMPDEST PUSH1 0x8 DUP2 SWAP1 SSTORE POP DUP1 PUSH1 0xA SWAP1 DUP2 PUSH3 0x157 SWAP2 SWAP1 PUSH3 0xD57 JUMP JUMPDEST POP PUSH0 JUMPDEST DUP5 MLOAD DUP2 LT ISZERO PUSH3 0x238 JUMPI PUSH1 0x7 SLOAD PUSH1 0x6 SLOAD DUP6 DUP4 DUP2 MLOAD DUP2 LT PUSH3 0x180 JUMPI PUSH3 0x17F PUSH3 0xF72 JUMP JUMPDEST JUMPDEST PUSH1 0x20 MUL PUSH1 0x20 ADD ADD MLOAD PUSH3 0x194 SWAP2 SWAP1 PUSH3 0xF38 JUMP JUMPDEST GT ISZERO PUSH3 0x19F JUMPI PUSH0 DUP1 REVERT JUMPDEST PUSH3 0x1EB DUP6 DUP3 DUP2 MLOAD DUP2 LT PUSH3 0x1B9 JUMPI PUSH3 0x1B8 PUSH3 0xF72 JUMP JUMPDEST JUMPDEST PUSH1 0x20 MUL PUSH1 0x20 ADD ADD MLOAD DUP6 DUP4 DUP2 MLOAD DUP2 LT PUSH3 0x1D7 JUMPI PUSH3 0x1D6 PUSH3 0xF72 JUMP JUMPDEST JUMPDEST PUSH1 0x20 MUL PUSH1 0x20 ADD ADD MLOAD PUSH3 0x354 PUSH1 0x20 SHL PUSH1 0x20 SHR JUMP JUMPDEST DUP4 DUP2 DUP2 MLOAD DUP2 LT PUSH3 0x201 JUMPI PUSH3 0x200 PUSH3 0xF72 JUMP JUMPDEST JUMPDEST PUSH1 0x20 MUL PUSH1 0x20 ADD ADD MLOAD PUSH1 0x6 PUSH0 DUP3 DUP3 SLOAD PUSH3 0x21B SWAP2 SWAP1 PUSH3 0xF38 JUMP JUMPDEST SWAP3 POP POP DUP2 SWAP1 SSTORE POP DUP1 DUP1 PUSH3 0x22F SWAP1 PUSH3 0xF9F JUMP JUMPDEST SWAP2 POP POP PUSH3 0x15A JUMP JUMPDEST POP PUSH0 PUSH1 0x6 SLOAD PUSH1 0x7 SLOAD PUSH3 0x24C SWAP2 SWAP1 PUSH3 0xFEB JUMP JUMPDEST SWAP1 POP PUSH0 DUP2 GT ISZERO PUSH3 0x282 JUMPI PUSH3 0x269 DUP10 DUP3 PUSH3 0x354 PUSH1 0x20 SHL PUSH1 0x20 SHR JUMP JUMPDEST PUSH4 0x1E13380 TIMESTAMP PUSH3 0x27B SWAP2 SWAP1 PUSH3 0xF38 JUMP JUMPDEST PUSH1 0x9 DUP2 SWAP1 SSTORE POP JUMPDEST POP POP POP POP POP POP POP POP POP PUSH3 0x108C JUMP JUMPDEST PUSH0 PUSH1 0x5 PUSH0 SWAP1 SLOAD SWAP1 PUSH2 0x100 EXP SWAP1 DIV PUSH20 0xFFFFFFFFFFFFFFFFFFFFFFFFFFFFFFFFFFFFFFFF AND SWAP1 POP DUP2 PUSH1 0x5 PUSH0 PUSH2 0x100 EXP DUP2 SLOAD DUP2 PUSH20 0xFFFFFFFFFFFFFFFFFFFFFFFFFFFFFFFFFFFFFFFF MUL NOT AND SWAP1 DUP4 PUSH20 0xFFFFFFFFFFFFFFFFFFFFFFFFFFFFFFFFFFFFFFFF AND MUL OR SWAP1 SSTORE POP DUP2 PUSH20 0xFFFFFFFFFFFFFFFFFFFFFFFFFFFFFFFFFFFFFFFF AND DUP2 PUSH20 0xFFFFFFFFFFFFFFFFFFFFFFFFFFFFFFFFFFFFFFFF AND PUSH32 0x8BE0079C531659141344CD1FD0A4F28419497F9722A3DAAFE3B4186F6B6457E0 PUSH1 0x40 MLOAD PUSH1 0x40 MLOAD DUP1 SWAP2 SUB SWAP1 LOG3 POP POP JUMP JUMPDEST PUSH0 PUSH20 0xFFFFFFFFFFFFFFFFFFFFFFFFFFFFFFFFFFFFFFFF AND DUP3 PUSH20 0xFFFFFFFFFFFFFFFFFFFFFFFFFFFFFFFFFFFFFFFF AND SUB PUSH3 0x3C7 JUMPI PUSH0 PUSH1 0x40 MLOAD PUSH32 0xEC442F0500000000000000000000000000000000000000000000000000000000 DUP2 MSTORE PUSH1 0x4 ADD PUSH3 0x3BE SWAP2 SWAP1 PUSH3 0xE4C JUMP JUMPDEST PUSH1 0x40 MLOAD DUP1 SWAP2 SUB SWAP1 REVERT JUMPDEST PUSH3 0x3DA PUSH0 DUP4 DUP4 PUSH3 0x3DE PUSH1 0x20 SHL PUSH1 0x20 SHR JUMP JUMPDEST POP POP JUMP JUMPDEST PUSH0 PUSH20 0xFFFFFFFFFFFFFFFFFFFFFFFFFFFFFFFFFFFFFFFF AND DUP4 PUSH20 0xFFFFFFFFFFFFFFFFFFFFFFFFFFFFFFFFFFFFFFFF AND SUB PUSH3 0x432 JUMPI DUP1 PUSH1 0x2 PUSH0 DUP3 DUP3 SLOAD PUSH3 0x425 SWAP2 SWAP1 PUSH3 0xF38 JUMP JUMPDEST SWAP3 POP POP DUP2 SWAP1 SSTORE POP PUSH3 0x503 JUMP JUMPDEST PUSH0 DUP1 PUSH0 DUP6 PUSH20 0xFFFFFFFFFFFFFFFFFFFFFFFFFFFFFFFFFFFFFFFF AND PUSH20 0xFFFFFFFFFFFFFFFFFFFFFFFFFFFFFFFFFFFFFFFF AND DUP2 MSTORE PUSH1 0x20 ADD SWAP1 DUP2 MSTORE PUSH1 0x20 ADD PUSH0 KECCAK256 SLOAD SWAP1 POP DUP2 DUP2 LT ISZERO PUSH3 0x4BE JUMPI DUP4 DUP2 DUP4 PUSH1 0x40 MLOAD PUSH32 0xE450D38C00000000000000000000000000000000000000000000000000000000 DUP2 MSTORE PUSH1 0x4 ADD PUSH3 0x4B5 SWAP4 SWAP3 SWAP2 SWAP1 PUSH3 0x1036 JUMP JUMPDEST PUSH1 0x40 MLOAD DUP1 SWAP2 SUB SWAP1 REVERT JUMPDEST DUP2 DUP2 SUB PUSH0 DUP1 DUP7 PUSH20 0xFFFFFFFFFFFFFFFFFFFFFFFFFFFFFFFFFFFFFFFF AND PUSH20 0xFFFFFFFFFFFFFFFFFFFFFFFFFFFFFFFFFFFFFFFF AND DUP2 MSTORE PUSH1 0x20 ADD SWAP1 DUP2 MSTORE PUSH1 0x20 ADD PUSH0 KECCAK256 DUP2 SWAP1 SSTORE POP POP JUMPDEST PUSH0 PUSH20 0xFFFFFFFFFFFFFFFFFFFFFFFFFFFFFFFFFFFFFFFF AND DUP3 PUSH20 0xFFFFFFFFFFFFFFFFFFFFFFFFFFFFFFFFFFFFFFFF AND SUB PUSH3 0x54C JUMPI DUP1 PUSH1 0x2 PUSH0 DUP3 DUP3 SLOAD SUB SWAP3 POP POP DUP2 SWAP1 SSTORE POP PUSH3 0x596 JUMP JUMPDEST DUP1 PUSH0 DUP1 DUP5 PUSH20 0xFFFFFFFFFFFFFFFFFFFFFFFFFFFFFFFFFFFFFFFF AND PUSH20 0xFFFFFFFFFFFFFFFFFFFFFFFFFFFFFFFFFFFFFFFF AND DUP2 MSTORE PUSH1 0x20 ADD SWAP1 DUP2 MSTORE PUSH1 0x20 ADD PUSH0 KECCAK256 PUSH0 DUP3 DUP3 SLOAD ADD SWAP3 POP POP DUP2 SWAP1 SSTORE POP JUMPDEST DUP2 PUSH20 0xFFFFFFFFFFFFFFFFFFFFFFFFFFFFFFFFFFFFFFFF AND DUP4 PUSH20 0xFFFFFFFFFFFFFFFFFFFFFFFFFFFFFFFFFFFFFFFF AND PUSH32 0xDDF252AD1BE2C89B69C2B068FC378DAA952BA7F163C4A11628F55A4DF523B3EF DUP4 PUSH1 0x40 MLOAD PUSH3 0x5F5 SWAP2 SWAP1 PUSH3 0x1071 JUMP JUMPDEST PUSH1 0x40 MLOAD DUP1 SWAP2 SUB SWAP1 LOG3 POP POP POP JUMP JUMPDEST PUSH0 PUSH1 0x40 MLOAD SWAP1 POP SWAP1 JUMP JUMPDEST PUSH0 DUP1 REVERT JUMPDEST PUSH0 DUP1 REVERT JUMPDEST PUSH0 PUSH20 0xFFFFFFFFFFFFFFFFFFFFFFFFFFFFFFFFFFFFFFFF DUP3 AND SWAP1 POP SWAP2 SWAP1 POP JUMP JUMPDEST PUSH0 PUSH3 0x63E DUP3 PUSH3 0x613 JUMP JUMPDEST SWAP1 POP SWAP2 SWAP1 POP JUMP JUMPDEST PUSH3 0x650 DUP2 PUSH3 0x632 JUMP JUMPDEST DUP2 EQ PUSH3 0x65B JUMPI PUSH0 DUP1 REVERT JUMPDEST POP JUMP JUMPDEST PUSH0 DUP2 MLOAD SWAP1 POP PUSH3 0x66E DUP2 PUSH3 0x645 JUMP JUMPDEST SWAP3 SWAP2 POP POP JUMP JUMPDEST PUSH0 DUP1 REVERT JUMPDEST PUSH0 DUP1 REVERT JUMPDEST PUSH0 PUSH1 0x1F NOT PUSH1 0x1F DUP4 ADD AND SWAP1 POP SWAP2 SWAP1 POP JUMP JUMPDEST PUSH32 0x4E487B7100000000000000000000000000000000000000000000000000000000 PUSH0 MSTORE PUSH1 0x41 PUSH1 0x4 MSTORE PUSH1 0x24 PUSH0 REVERT JUMPDEST PUSH3 0x6C4 DUP3 PUSH3 0x67C JUMP JUMPDEST DUP2 ADD DUP2 DUP2 LT PUSH8 0xFFFFFFFFFFFFFFFF DUP3 GT OR ISZERO PUSH3 0x6E6 JUMPI PUSH3 0x6E5 PUSH3 0x68C JUMP JUMPDEST JUMPDEST DUP1 PUSH1 0x40 MSTORE POP POP POP JUMP JUMPDEST PUSH0 PUSH3 0x6FA PUSH3 0x602 JUMP JUMPDEST SWAP1 POP PUSH3 0x708 DUP3 DUP3 PUSH3 0x6B9 JUMP JUMPDEST SWAP2 SWAP1 POP JUMP JUMPDEST PUSH0 PUSH8 0xFFFFFFFFFFFFFFFF DUP3 GT ISZERO PUSH3 0x72A JUMPI PUSH3 0x729 PUSH3 0x68C JUMP JUMPDEST JUMPDEST PUSH3 0x735 DUP3 PUSH3 0x67C JUMP JUMPDEST SWAP1 POP PUSH1 0x20 DUP2 ADD SWAP1 POP SWAP2 SWAP1 POP JUMP JUMPDEST PUSH0 JUMPDEST DUP4 DUP2 LT ISZERO PUSH3 0x761 JUMPI DUP1 DUP3 ADD MLOAD DUP2 DUP5 ADD MSTORE PUSH1 0x20 DUP2 ADD SWAP1 POP PUSH3 0x744 JUMP JUMPDEST PUSH0 DUP5 DUP5 ADD MSTORE POP POP POP POP JUMP JUMPDEST PUSH0 PUSH3 0x782 PUSH3 0x77C DUP5 PUSH3 0x70D JUMP JUMPDEST PUSH3 0x6EF JUMP JUMPDEST SWAP1 POP DUP3 DUP2 MSTORE PUSH1 0x20 DUP2 ADD DUP5 DUP5 DUP5 ADD GT ISZERO PUSH3 0x7A1 JUMPI PUSH3 0x7A0 PUSH3 0x678 JUMP JUMPDEST JUMPDEST PUSH3 0x7AE DUP5 DUP3 DUP6 PUSH3 0x742 JUMP JUMPDEST POP SWAP4 SWAP3 POP POP POP JUMP JUMPDEST PUSH0 DUP3 PUSH1 0x1F DUP4 ADD SLT PUSH3 0x7CD JUMPI PUSH3 0x7CC PUSH3 0x674 JUMP JUMPDEST JUMPDEST DUP2 MLOAD PUSH3 0x7DF DUP5 DUP3 PUSH1 0x20 DUP7 ADD PUSH3 0x76C JUMP JUMPDEST SWAP2 POP POP SWAP3 SWAP2 POP POP JUMP JUMPDEST PUSH0 DUP2 SWAP1 POP SWAP2 SWAP1 POP JUMP JUMPDEST PUSH3 0x7FC DUP2 PUSH3 0x7E8 JUMP JUMPDEST DUP2 EQ PUSH3 0x807 JUMPI PUSH0 DUP1 REVERT JUMPDEST POP JUMP JUMPDEST PUSH0 DUP2 MLOAD SWAP1 POP PUSH3 0x81A DUP2 PUSH3 0x7F1 JUMP JUMPDEST SWAP3 SWAP2 POP POP JUMP JUMPDEST PUSH0 PUSH8 0xFFFFFFFFFFFFFFFF DUP3 GT ISZERO PUSH3 0x83D JUMPI PUSH3 0x83C PUSH3 0x68C JUMP JUMPDEST JUMPDEST PUSH1 0x20 DUP3 MUL SWAP1 POP PUSH1 0x20 DUP2 ADD SWAP1 POP SWAP2 SWAP1 POP JUMP JUMPDEST PUSH0 DUP1 REVERT JUMPDEST PUSH0 PUSH3 0x868 PUSH3 0x862 DUP5 PUSH3 0x820 JUMP JUMPDEST PUSH3 0x6EF JUMP JUMPDEST SWAP1 POP DUP1 DUP4 DUP3 MSTORE PUSH1 0x20 DUP3 ADD SWAP1 POP PUSH1 0x20 DUP5 MUL DUP4 ADD DUP6 DUP2 GT ISZERO PUSH3 0x88E JUMPI PUSH3 0x88D PUSH3 0x84E JUMP JUMPDEST JUMPDEST DUP4 JUMPDEST DUP2 DUP2 LT ISZERO PUSH3 0x8BB JUMPI DUP1 PUSH3 0x8A6 DUP9 DUP3 PUSH3 0x65E JUMP JUMPDEST DUP5 MSTORE PUSH1 0x20 DUP5 ADD SWAP4 POP POP PUSH1 0x20 DUP2 ADD SWAP1 POP PUSH3 0x890 JUMP JUMPDEST POP POP POP SWAP4 SWAP3 POP POP POP JUMP JUMPDEST PUSH0 DUP3 PUSH1 0x1F DUP4 ADD SLT PUSH3 0x8DC JUMPI PUSH3 0x8DB PUSH3 0x674 JUMP JUMPDEST JUMPDEST DUP2 MLOAD PUSH3 0x8EE DUP5 DUP3 PUSH1 0x20 DUP7 ADD PUSH3 0x852 JUMP JUMPDEST SWAP2 POP POP SWAP3 SWAP2 POP POP JUMP JUMPDEST PUSH0 PUSH8 0xFFFFFFFFFFFFFFFF DUP3 GT ISZERO PUSH3 0x914 JUMPI PUSH3 0x913 PUSH3 0x68C JUMP JUMPDEST JUMPDEST PUSH1 0x20 DUP3 MUL SWAP1 POP PUSH1 0x20 DUP2 ADD SWAP1 POP SWAP2 SWAP1 POP JUMP JUMPDEST PUSH0 PUSH3 0x93B PUSH3 0x935 DUP5 PUSH3 0x8F7 JUMP JUMPDEST PUSH3 0x6EF JUMP JUMPDEST SWAP1 POP DUP1 DUP4 DUP3 MSTORE PUSH1 0x20 DUP3 ADD SWAP1 POP PUSH1 0x20 DUP5 MUL DUP4 ADD DUP6 DUP2 GT ISZERO PUSH3 0x961 JUMPI PUSH3 0x960 PUSH3 0x84E JUMP JUMPDEST JUMPDEST DUP4 JUMPDEST DUP2 DUP2 LT ISZERO PUSH3 0x98E JUMPI DUP1 PUSH3 0x979 DUP9 DUP3 PUSH3 0x80A JUMP JUMPDEST DUP5 MSTORE PUSH1 0x20 DUP5 ADD SWAP4 POP POP PUSH1 0x20 DUP2 ADD SWAP1 POP PUSH3 0x963 JUMP JUMPDEST POP POP POP SWAP4 SWAP3 POP POP POP JUMP JUMPDEST PUSH0 DUP3 PUSH1 0x1F DUP4 ADD SLT PUSH3 0x9AF JUMPI PUSH3 0x9AE PUSH3 0x674 JUMP JUMPDEST JUMPDEST DUP2 MLOAD PUSH3 0x9C1 DUP5 DUP3 PUSH1 0x20 DUP7 ADD PUSH3 0x925 JUMP JUMPDEST SWAP2 POP POP SWAP3 SWAP2 POP POP JUMP JUMPDEST PUSH0 DUP1 PUSH0 DUP1 PUSH0 DUP1 PUSH0 DUP1 PUSH2 0x100 DUP10 DUP12 SUB SLT ISZERO PUSH3 0x9EA JUMPI PUSH3 0x9E9 PUSH3 0x60B JUMP JUMPDEST JUMPDEST PUSH0 PUSH3 0x9F9 DUP12 DUP3 DUP13 ADD PUSH3 0x65E JUMP JUMPDEST SWAP9 POP POP PUSH1 0x20 DUP10 ADD MLOAD PUSH8 0xFFFFFFFFFFFFFFFF DUP2 GT ISZERO PUSH3 0xA1D JUMPI PUSH3 0xA1C PUSH3 0x60F JUMP JUMPDEST JUMPDEST PUSH3 0xA2B DUP12 DUP3 DUP13 ADD PUSH3 0x7B6 JUMP JUMPDEST SWAP8 POP POP PUSH1 0x40 DUP10 ADD MLOAD PUSH8 0xFFFFFFFFFFFFFFFF DUP2 GT ISZERO PUSH3 0xA4F JUMPI PUSH3 0xA4E PUSH3 0x60F JUMP JUMPDEST JUMPDEST PUSH3 0xA5D DUP12 DUP3 DUP13 ADD PUSH3 0x7B6 JUMP JUMPDEST SWAP7 POP POP PUSH1 0x60 PUSH3 0xA70 DUP12 DUP3 DUP13 ADD PUSH3 0x80A JUMP JUMPDEST SWAP6 POP POP PUSH1 0x80 DUP10 ADD MLOAD PUSH8 0xFFFFFFFFFFFFFFFF DUP2 GT ISZERO PUSH3 0xA94 JUMPI PUSH3 0xA93 PUSH3 0x60F JUMP JUMPDEST JUMPDEST PUSH3 0xAA2 DUP12 DUP3 DUP13 ADD PUSH3 0x8C5 JUMP JUMPDEST SWAP5 POP POP PUSH1 0xA0 DUP10 ADD MLOAD PUSH8 0xFFFFFFFFFFFFFFFF DUP2 GT ISZERO PUSH3 0xAC6 JUMPI PUSH3 0xAC5 PUSH3 0x60F JUMP JUMPDEST JUMPDEST PUSH3 0xAD4 DUP12 DUP3 DUP13 ADD PUSH3 0x998 JUMP JUMPDEST SWAP4 POP POP PUSH1 0xC0 PUSH3 0xAE7 DUP12 DUP3 DUP13 ADD PUSH3 0x80A JUMP JUMPDEST SWAP3 POP POP PUSH1 0xE0 DUP10 ADD MLOAD PUSH8 0xFFFFFFFFFFFFFFFF DUP2 GT ISZERO PUSH3 0xB0B JUMPI PUSH3 0xB0A PUSH3 0x60F JUMP JUMPDEST JUMPDEST PUSH3 0xB19 DUP12 DUP3 DUP13 ADD PUSH3 0x7B6 JUMP JUMPDEST SWAP2 POP POP SWAP3 SWAP6 SWAP9 POP SWAP3 SWAP6 SWAP9 SWAP1 SWAP4 SWAP7 POP JUMP JUMPDEST PUSH0 DUP2 MLOAD SWAP1 POP SWAP2 SWAP1 POP JUMP JUMPDEST PUSH32 0x4E487B7100000000000000000000000000000000000000000000000000000000 PUSH0 MSTORE PUSH1 0x22 PUSH1 0x4 MSTORE PUSH1 0x24 PUSH0 REVERT JUMPDEST PUSH0 PUSH1 0x2 DUP3 DIV SWAP1 POP PUSH1 0x1 DUP3 AND DUP1 PUSH3 0xB78 JUMPI PUSH1 0x7F DUP3 AND SWAP2 POP JUMPDEST PUSH1 0x20 DUP3 LT DUP2 SUB PUSH3 0xB8E JUMPI PUSH3 0xB8D PUSH3 0xB33 JUMP JUMPDEST JUMPDEST POP SWAP2 SWAP1 POP JUMP JUMPDEST PUSH0 DUP2 SWAP1 POP DUP2 PUSH0 MSTORE PUSH1 0x20 PUSH0 KECCAK256 SWAP1 POP SWAP2 SWAP1 POP JUMP JUMPDEST PUSH0 PUSH1 0x20 PUSH1 0x1F DUP4 ADD DIV SWAP1 POP SWAP2 SWAP1 POP JUMP JUMPDEST PUSH0 DUP3 DUP3 SHL SWAP1 POP SWAP3 SWAP2 POP POP JUMP JUMPDEST PUSH0 PUSH1 0x8 DUP4 MUL PUSH3 0xBF2 PUSH32 0xFFFFFFFFFFFFFFFFFFFFFFFFFFFFFFFFFFFFFFFFFFFFFFFFFFFFFFFFFFFFFFFF DUP3 PUSH3 0xBB5 JUMP JUMPDEST PUSH3 0xBFE DUP7 DUP4 PUSH3 0xBB5 JUMP JUMPDEST SWAP6 POP DUP1 NOT DUP5 AND SWAP4 POP DUP1 DUP7 AND DUP5 OR SWAP3 POP POP POP SWAP4 SWAP3 POP POP POP JUMP JUMPDEST PUSH0 DUP2 SWAP1 POP SWAP2 SWAP1 POP JUMP JUMPDEST PUSH0 PUSH3 0xC3F PUSH3 0xC39 PUSH3 0xC33 DUP5 PUSH3 0x7E8 JUMP JUMPDEST PUSH3 0xC16 JUMP JUMPDEST PUSH3 0x7E8 JUMP JUMPDEST SWAP1 POP SWAP2 SWAP1 POP JUMP JUMPDEST PUSH0 DUP2 SWAP1 POP SWAP2 SWAP1 POP JUMP JUMPDEST PUSH3 0xC5A DUP4 PUSH3 0xC1F JUMP JUMPDEST PUSH3 0xC72 PUSH3 0xC69 DUP3 PUSH3 0xC46 JUMP JUMPDEST DUP5 DUP5 SLOAD PUSH3 0xBC1 JUMP JUMPDEST DUP3 SSTORE POP POP POP POP JUMP JUMPDEST PUSH0 SWAP1 JUMP JUMPDEST PUSH3 0xC88 PUSH3 0xC7A JUMP JUMPDEST PUSH3 0xC95 DUP2 DUP5 DUP5 PUSH3 0xC4F JUMP JUMPDEST POP POP POP JUMP JUMPDEST JUMPDEST DUP2 DUP2 LT ISZERO PUSH3 0xCBC JUMPI PUSH3 0xCB0 PUSH0 DUP3 PUSH3 0xC7E JUMP JUMPDEST PUSH1 0x1 DUP2 ADD SWAP1 POP PUSH3 0xC9B JUMP JUMPDEST POP POP JUMP JUMPDEST PUSH1 0x1F DUP3 GT ISZERO PUSH3 0xD0B JUMPI PUSH3 0xCD5 DUP2 PUSH3 0xB94 JUMP JUMPDEST PUSH3 0xCE0 DUP5 PUSH3 0xBA6 JUMP JUMPDEST DUP2 ADD PUSH1 0x20 DUP6 LT ISZERO PUSH3 0xCF0 JUMPI DUP2 SWAP1 POP JUMPDEST PUSH3 0xD08 PUSH3 0xCFF DUP6 PUSH3 0xBA6 JUMP JUMPDEST DUP4 ADD DUP3 PUSH3 0xC9A JUMP JUMPDEST POP POP JUMPDEST POP POP POP JUMP JUMPDEST PUSH0 DUP3 DUP3 SHR SWAP1 POP SWAP3 SWAP2 POP POP JUMP JUMPDEST PUSH0 PUSH3 0xD2D PUSH0 NOT DUP5 PUSH1 0x8 MUL PUSH3 0xD10 JUMP JUMPDEST NOT DUP1 DUP4 AND SWAP2 POP POP SWAP3 SWAP2 POP POP JUMP JUMPDEST PUSH0 PUSH3 0xD47 DUP4 DUP4 PUSH3 0xD1C JUMP JUMPDEST SWAP2 POP DUP3 PUSH1 0x2 MUL DUP3 OR SWAP1 POP SWAP3 SWAP2 POP POP JUMP JUMPDEST PUSH3 0xD62 DUP3 PUSH3 0xB29 JUMP JUMPDEST PUSH8 0xFFFFFFFFFFFFFFFF DUP2 GT ISZERO PUSH3 0xD7E JUMPI PUSH3 0xD7D PUSH3 0x68C JUMP JUMPDEST JUMPDEST PUSH3 0xD8A DUP3 SLOAD PUSH3 0xB60 JUMP JUMPDEST PUSH3 0xD97 DUP3 DUP3 DUP6 PUSH3 0xCC0 JUMP JUMPDEST PUSH0 PUSH1 0x20 SWAP1 POP PUSH1 0x1F DUP4 GT PUSH1 0x1 DUP2 EQ PUSH3 0xDCD JUMPI PUSH0 DUP5 ISZERO PUSH3 0xDB8 JUMPI DUP3 DUP8 ADD MLOAD SWAP1 POP JUMPDEST PUSH3 0xDC4 DUP6 DUP3 PUSH3 0xD3A JUMP JUMPDEST DUP7 SSTORE POP PUSH3 0xE33 JUMP JUMPDEST PUSH1 0x1F NOT DUP5 AND PUSH3 0xDDD DUP7 PUSH3 0xB94 JUMP JUMPDEST PUSH0 JUMPDEST DUP3 DUP2 LT ISZERO PUSH3 0xE06 JUMPI DUP5 DUP10 ADD MLOAD DUP3 SSTORE PUSH1 0x1 DUP3 ADD SWAP2 POP PUSH1 0x20 DUP6 ADD SWAP5 POP PUSH1 0x20 DUP2 ADD SWAP1 POP PUSH3 0xDDF JUMP JUMPDEST DUP7 DUP4 LT ISZERO PUSH3 0xE26 JUMPI DUP5 DUP10 ADD MLOAD PUSH3 0xE22 PUSH1 0x1F DUP10 AND DUP3 PUSH3 0xD1C JUMP JUMPDEST DUP4 SSTORE POP JUMPDEST PUSH1 0x1 PUSH1 0x2 DUP9 MUL ADD DUP9 SSTORE POP POP POP JUMPDEST POP POP POP POP POP POP JUMP JUMPDEST PUSH3 0xE46 DUP2 PUSH3 0x632 JUMP JUMPDEST DUP3 MSTORE POP POP JUMP JUMPDEST PUSH0 PUSH1 0x20 DUP3 ADD SWAP1 POP PUSH3 0xE61 PUSH0 DUP4 ADD DUP5 PUSH3 0xE3B JUMP JUMPDEST SWAP3 SWAP2 POP POP JUMP JUMPDEST PUSH0 DUP3 DUP3 MSTORE PUSH1 0x20 DUP3 ADD SWAP1 POP SWAP3 SWAP2 POP POP JUMP JUMPDEST PUSH32 0x737562736372696265727320616E6420746865697220616D6F756E747320646F PUSH0 DUP3 ADD MSTORE PUSH32 0x206E6F74206D6174636800000000000000000000000000000000000000000000 PUSH1 0x20 DUP3 ADD MSTORE POP JUMP JUMPDEST PUSH0 PUSH3 0xED3 PUSH1 0x2A DUP4 PUSH3 0xE67 JUMP JUMPDEST SWAP2 POP PUSH3 0xEE0 DUP3 PUSH3 0xE77 JUMP JUMPDEST PUSH1 0x40 DUP3 ADD SWAP1 POP SWAP2 SWAP1 POP JUMP JUMPDEST PUSH0 PUSH1 0x20 DUP3 ADD SWAP1 POP DUP2 DUP2 SUB PUSH0 DUP4 ADD MSTORE PUSH3 0xF04 DUP2 PUSH3 0xEC5 JUMP JUMPDEST SWAP1 POP SWAP2 SWAP1 POP JUMP JUMPDEST PUSH32 0x4E487B7100000000000000000000000000000000000000000000000000000000 PUSH0 MSTORE PUSH1 0x11 PUSH1 0x4 MSTORE PUSH1 0x24 PUSH0 REVERT JUMPDEST PUSH0 PUSH3 0xF44 DUP3 PUSH3 0x7E8 JUMP JUMPDEST SWAP2 POP PUSH3 0xF51 DUP4 PUSH3 0x7E8 JUMP JUMPDEST SWAP3 POP DUP3 DUP3 ADD SWAP1 POP DUP1 DUP3 GT ISZERO PUSH3 0xF6C JUMPI PUSH3 0xF6B PUSH3 0xF0B JUMP JUMPDEST JUMPDEST SWAP3 SWAP2 POP POP JUMP JUMPDEST PUSH32 0x4E487B7100000000000000000000000000000000000000000000000000000000 PUSH0 MSTORE PUSH1 0x32 PUSH1 0x4 MSTORE PUSH1 0x24 PUSH0 REVERT JUMPDEST PUSH0 PUSH3 0xFAB DUP3 PUSH3 0x7E8 JUMP JUMPDEST SWAP2 POP PUSH32 0xFFFFFFFFFFFFFFFFFFFFFFFFFFFFFFFFFFFFFFFFFFFFFFFFFFFFFFFFFFFFFFFF DUP3 SUB PUSH3 0xFE0 JUMPI PUSH3 0xFDF PUSH3 0xF0B JUMP JUMPDEST JUMPDEST PUSH1 0x1 DUP3 ADD SWAP1 POP SWAP2 SWAP1 POP JUMP JUMPDEST PUSH0 PUSH3 0xFF7 DUP3 PUSH3 0x7E8 JUMP JUMPDEST SWAP2 POP PUSH3 0x1004 DUP4 PUSH3 0x7E8 JUMP JUMPDEST SWAP3 POP DUP3 DUP3 SUB SWAP1 POP DUP2 DUP2 GT ISZERO PUSH3 0x101F JUMPI PUSH3 0x101E PUSH3 0xF0B JUMP JUMPDEST JUMPDEST SWAP3 SWAP2 POP POP JUMP JUMPDEST PUSH3 0x1030 DUP2 PUSH3 0x7E8 JUMP JUMPDEST DUP3 MSTORE POP POP JUMP JUMPDEST PUSH0 PUSH1 0x60 DUP3 ADD SWAP1 POP PUSH3 0x104B PUSH0 DUP4 ADD DUP7 PUSH3 0xE3B JUMP JUMPDEST PUSH3 0x105A PUSH1 0x20 DUP4 ADD DUP6 PUSH3 0x1025 JUMP JUMPDEST PUSH3 0x1069 PUSH1 0x40 DUP4 ADD DUP5 PUSH3 0x1025 JUMP JUMPDEST SWAP5 SWAP4 POP POP POP POP JUMP JUMPDEST PUSH0 PUSH1 0x20 DUP3 ADD SWAP1 POP PUSH3 0x1086 PUSH0 DUP4 ADD DUP5 PUSH3 0x1025 JUMP JUMPDEST SWAP3 SWAP2 POP POP JUMP JUMPDEST PUSH2 0x18B2 DUP1 PUSH3 0x109A PUSH0 CODECOPY PUSH0 RETURN INVALID PUSH1 0x80 PUSH1 0x40 MSTORE CALLVALUE DUP1 ISZERO PUSH2 0xF JUMPI PUSH0 DUP1 REVERT JUMPDEST POP PUSH1 0x4 CALLDATASIZE LT PUSH2 0x109 JUMPI PUSH0 CALLDATALOAD PUSH1 0xE0 SHR DUP1 PUSH4 0x95D89B41 GT PUSH2 0xA0 JUMPI DUP1 PUSH4 0xB93A5396 GT PUSH2 0x6F JUMPI DUP1 PUSH4 0xB93A5396 EQ PUSH2 0x2A7 JUMPI DUP1 PUSH4 0xBD7DAC92 EQ PUSH2 0x2C3 JUMPI DUP1 PUSH4 0xC0A4D64D EQ PUSH2 0x2E1 JUMPI DUP1 PUSH4 0xDD62ED3E EQ PUSH2 0x2FF JUMPI DUP1 PUSH4 0xF2FDE38B EQ PUSH2 0x32F JUMPI PUSH2 0x109 JUMP JUMPDEST DUP1 PUSH4 0x95D89B41 EQ PUSH2 0x21F JUMPI DUP1 PUSH4 0x9F3ADB0E EQ PUSH2 0x23D JUMPI DUP1 PUSH4 0xA9059CBB EQ PUSH2 0x25B JUMPI DUP1 PUSH4 0xAE84827A EQ PUSH2 0x28B JUMPI PUSH2 0x109 JUMP JUMPDEST DUP1 PUSH4 0x313CE567 GT PUSH2 0xDC JUMPI DUP1 PUSH4 0x313CE567 EQ PUSH2 0x1A9 JUMPI DUP1 PUSH4 0x70A08231 EQ PUSH2 0x1C7 JUMPI DUP1 PUSH4 0x715018A6 EQ PUSH2 0x1F7 JUMPI DUP1 PUSH4 0x8DA5CB5B EQ PUSH2 0x201 JUMPI PUSH2 0x109 JUMP JUMPDEST DUP1 PUSH4 0x6FDDE03 EQ PUSH2 0x10D JUMPI DUP1 PUSH4 0x95EA7B3 EQ PUSH2 0x12B JUMPI DUP1 PUSH4 0x18160DDD EQ PUSH2 0x15B JUMPI DUP1 PUSH4 0x23B872DD EQ PUSH2 0x179 JUMPI JUMPDEST PUSH0 DUP1 REVERT JUMPDEST PUSH2 0x115 PUSH2 0x34B JUMP JUMPDEST PUSH1 0x40 MLOAD PUSH2 0x122 SWAP2 SWAP1 PUSH2 0x1239 JUMP JUMPDEST PUSH1 0x40 MLOAD DUP1 SWAP2 SUB SWAP1 RETURN JUMPDEST PUSH2 0x145 PUSH1 0x4 DUP1 CALLDATASIZE SUB DUP2 ADD SWAP1 PUSH2 0x140 SWAP2 SWAP1 PUSH2 0x12EA JUMP JUMPDEST PUSH2 0x3DB JUMP JUMPDEST PUSH1 0x40 MLOAD PUSH2 0x152 SWAP2 SWAP1 PUSH2 0x1342 JUMP JUMPDEST PUSH1 0x40 MLOAD DUP1 SWAP2 SUB SWAP1 RETURN JUMPDEST PUSH2 0x163 PUSH2 0x3FD JUMP JUMPDEST PUSH1 0x40 MLOAD PUSH2 0x170 SWAP2 SWAP1 PUSH2 0x136A JUMP JUMPDEST PUSH1 0x40 MLOAD DUP1 SWAP2 SUB SWAP1 RETURN JUMPDEST PUSH2 0x193 PUSH1 0x4 DUP1 CALLDATASIZE SUB DUP2 ADD SWAP1 PUSH2 0x18E SWAP2 SWAP1 PUSH2 0x1383 JUMP JUMPDEST PUSH2 0x406 JUMP JUMPDEST PUSH1 0x40 MLOAD PUSH2 0x1A0 SWAP2 SWAP1 PUSH2 0x1342 JUMP JUMPDEST PUSH1 0x40 MLOAD DUP1 SWAP2 SUB SWAP1 RETURN JUMPDEST PUSH2 0x1B1 PUSH2 0x55E JUMP JUMPDEST PUSH1 0x40 MLOAD PUSH2 0x1BE SWAP2 SWAP1 PUSH2 0x13EE JUMP JUMPDEST PUSH1 0x40 MLOAD DUP1 SWAP2 SUB SWAP1 RETURN JUMPDEST PUSH2 0x1E1 PUSH1 0x4 DUP1 CALLDATASIZE SUB DUP2 ADD SWAP1 PUSH2 0x1DC SWAP2 SWAP1 PUSH2 0x1407 JUMP JUMPDEST PUSH2 0x562 JUMP JUMPDEST PUSH1 0x40 MLOAD PUSH2 0x1EE SWAP2 SWAP1 PUSH2 0x136A JUMP JUMPDEST PUSH1 0x40 MLOAD DUP1 SWAP2 SUB SWAP1 RETURN JUMPDEST PUSH2 0x1FF PUSH2 0x5A7 JUMP JUMPDEST STOP JUMPDEST PUSH2 0x209 PUSH2 0x5BA JUMP JUMPDEST PUSH1 0x40 MLOAD PUSH2 0x216 SWAP2 SWAP1 PUSH2 0x1441 JUMP JUMPDEST PUSH1 0x40 MLOAD DUP1 SWAP2 SUB SWAP1 RETURN JUMPDEST PUSH2 0x227 PUSH2 0x5E2 JUMP JUMPDEST PUSH1 0x40 MLOAD PUSH2 0x234 SWAP2 SWAP1 PUSH2 0x1239 JUMP JUMPDEST PUSH1 0x40 MLOAD DUP1 SWAP2 SUB SWAP1 RETURN JUMPDEST PUSH2 0x245 PUSH2 0x672 JUMP JUMPDEST PUSH1 0x40 MLOAD PUSH2 0x252 SWAP2 SWAP1 PUSH2 0x136A JUMP JUMPDEST PUSH1 0x40 MLOAD DUP1 SWAP2 SUB SWAP1 RETURN JUMPDEST PUSH2 0x275 PUSH1 0x4 DUP1 CALLDATASIZE SUB DUP2 ADD SWAP1 PUSH2 0x270 SWAP2 SWAP1 PUSH2 0x12EA JUMP JUMPDEST PUSH2 0x678 JUMP JUMPDEST PUSH1 0x40 MLOAD PUSH2 0x282 SWAP2 SWAP1 PUSH2 0x1342 JUMP JUMPDEST PUSH1 0x40 MLOAD DUP1 SWAP2 SUB SWAP1 RETURN JUMPDEST PUSH2 0x2A5 PUSH1 0x4 DUP1 CALLDATASIZE SUB DUP2 ADD SWAP1 PUSH2 0x2A0 SWAP2 SWAP1 PUSH2 0x12EA JUMP JUMPDEST PUSH2 0x7C9 JUMP JUMPDEST STOP JUMPDEST PUSH2 0x2C1 PUSH1 0x4 DUP1 CALLDATASIZE SUB DUP2 ADD SWAP1 PUSH2 0x2BC SWAP2 SWAP1 PUSH2 0x12EA JUMP JUMPDEST PUSH2 0x7DF JUMP JUMPDEST STOP JUMPDEST PUSH2 0x2CB PUSH2 0x7F5 JUMP JUMPDEST PUSH1 0x40 MLOAD PUSH2 0x2D8 SWAP2 SWAP1 PUSH2 0x1239 JUMP JUMPDEST PUSH1 0x40 MLOAD DUP1 SWAP2 SUB SWAP1 RETURN JUMPDEST PUSH2 0x2E9 PUSH2 0x885 JUMP JUMPDEST PUSH1 0x40 MLOAD PUSH2 0x2F6 SWAP2 SWAP1 PUSH2 0x136A JUMP JUMPDEST PUSH1 0x40 MLOAD DUP1 SWAP2 SUB SWAP1 RETURN JUMPDEST PUSH2 0x319 PUSH1 0x4 DUP1 CALLDATASIZE SUB DUP2 ADD SWAP1 PUSH2 0x314 SWAP2 SWAP1 PUSH2 0x145A JUMP JUMPDEST PUSH2 0x88E JUMP JUMPDEST PUSH1 0x40 MLOAD PUSH2 0x326 SWAP2 SWAP1 PUSH2 0x136A JUMP JUMPDEST PUSH1 0x40 MLOAD DUP1 SWAP2 SUB SWAP1 RETURN JUMPDEST PUSH2 0x349 PUSH1 0x4 DUP1 CALLDATASIZE SUB DUP2 ADD SWAP1 PUSH2 0x344 SWAP2 SWAP1 PUSH2 0x1407 JUMP JUMPDEST PUSH2 0x910 JUMP JUMPDEST STOP JUMPDEST PUSH1 0x60 PUSH1 0x3 DUP1 SLOAD PUSH2 0x35A SWAP1 PUSH2 0x14C5 JUMP JUMPDEST DUP1 PUSH1 0x1F ADD PUSH1 0x20 DUP1 SWAP2 DIV MUL PUSH1 0x20 ADD PUSH1 0x40 MLOAD SWAP1 DUP2 ADD PUSH1 0x40 MSTORE DUP1 SWAP3 SWAP2 SWAP1 DUP2 DUP2 MSTORE PUSH1 0x20 ADD DUP3 DUP1 SLOAD PUSH2 0x386 SWAP1 PUSH2 0x14C5 JUMP JUMPDEST DUP1 ISZERO PUSH2 0x3D1 JUMPI DUP1 PUSH1 0x1F LT PUSH2 0x3A8 JUMPI PUSH2 0x100 DUP1 DUP4 SLOAD DIV MUL DUP4 MSTORE SWAP2 PUSH1 0x20 ADD SWAP2 PUSH2 0x3D1 JUMP JUMPDEST DUP3 ADD SWAP2 SWAP1 PUSH0 MSTORE PUSH1 0x20 PUSH0 KECCAK256 SWAP1 JUMPDEST DUP2 SLOAD DUP2 MSTORE SWAP1 PUSH1 0x1 ADD SWAP1 PUSH1 0x20 ADD DUP1 DUP4 GT PUSH2 0x3B4 JUMPI DUP3 SWAP1 SUB PUSH1 0x1F AND DUP3 ADD SWAP2 JUMPDEST POP POP POP POP POP SWAP1 POP SWAP1 JUMP JUMPDEST PUSH0 DUP1 PUSH2 0x3E5 PUSH2 0x994 JUMP JUMPDEST SWAP1 POP PUSH2 0x3F2 DUP2 DUP6 DUP6 PUSH2 0x99B JUMP JUMPDEST PUSH1 0x1 SWAP2 POP POP SWAP3 SWAP2 POP POP JUMP JUMPDEST PUSH0 PUSH1 0x2 SLOAD SWAP1 POP SWAP1 JUMP JUMPDEST PUSH0 PUSH2 0x40F PUSH2 0x5BA JUMP JUMPDEST PUSH20 0xFFFFFFFFFFFFFFFFFFFFFFFFFFFFFFFFFFFFFFFF AND DUP5 PUSH20 0xFFFFFFFFFFFFFFFFFFFFFFFFFFFFFFFFFFFFFFFF AND SUB PUSH2 0x48B JUMPI PUSH1 0x9 SLOAD TIMESTAMP LT ISZERO PUSH2 0x486 JUMPI PUSH1 0x40 MLOAD PUSH32 0x8C379A000000000000000000000000000000000000000000000000000000000 DUP2 MSTORE PUSH1 0x4 ADD PUSH2 0x47D SWAP1 PUSH2 0x153F JUMP JUMPDEST PUSH1 0x40 MLOAD DUP1 SWAP2 SUB SWAP1 REVERT JUMPDEST PUSH2 0x4D1 JUMP JUMPDEST PUSH1 0x8 SLOAD TIMESTAMP LT ISZERO PUSH2 0x4D0 JUMPI PUSH1 0x40 MLOAD PUSH32 0x8C379A000000000000000000000000000000000000000000000000000000000 DUP2 MSTORE PUSH1 0x4 ADD PUSH2 0x4C7 SWAP1 PUSH2 0x15A7 JUMP JUMPDEST PUSH1 0x40 MLOAD DUP1 SWAP2 SUB SWAP1 REVERT JUMPDEST JUMPDEST PUSH0 DUP3 PUSH2 0x4DC DUP6 PUSH2 0x562 JUMP JUMPDEST PUSH2 0x4E6 SWAP2 SWAP1 PUSH2 0x15F2 JUMP JUMPDEST SWAP1 POP PUSH1 0x64 PUSH2 0x4F2 PUSH2 0x3FD JUMP JUMPDEST PUSH1 0x14 PUSH2 0x4FE SWAP2 SWAP1 PUSH2 0x1625 JUMP JUMPDEST PUSH2 0x508 SWAP2 SWAP1 PUSH2 0x1693 JUMP JUMPDEST DUP2 LT PUSH2 0x549 JUMPI PUSH1 0x40 MLOAD PUSH32 0x8C379A000000000000000000000000000000000000000000000000000000000 DUP2 MSTORE PUSH1 0x4 ADD PUSH2 0x540 SWAP1 PUSH2 0x1733 JUMP JUMPDEST PUSH1 0x40 MLOAD DUP1 SWAP2 SUB SWAP1 REVERT JUMPDEST PUSH2 0x554 DUP6 DUP6 DUP6 PUSH2 0x9AD JUMP JUMPDEST SWAP2 POP POP SWAP4 SWAP3 POP POP POP JUMP JUMPDEST PUSH0 SWAP1 JUMP JUMPDEST PUSH0 DUP1 PUSH0 DUP4 PUSH20 0xFFFFFFFFFFFFFFFFFFFFFFFFFFFFFFFFFFFFFFFF AND PUSH20 0xFFFFFFFFFFFFFFFFFFFFFFFFFFFFFFFFFFFFFFFF AND DUP2 MSTORE PUSH1 0x20 ADD SWAP1 DUP2 MSTORE PUSH1 0x20 ADD PUSH0 KECCAK256 SLOAD SWAP1 POP SWAP2 SWAP1 POP JUMP JUMPDEST PUSH2 0x5AF PUSH2 0x9DB JUMP JUMPDEST PUSH2 0x5B8 PUSH0 PUSH2 0xA62 JUMP JUMPDEST JUMP JUMPDEST PUSH0 PUSH1 0x5 PUSH0 SWAP1 SLOAD SWAP1 PUSH2 0x100 EXP SWAP1 DIV PUSH20 0xFFFFFFFFFFFFFFFFFFFFFFFFFFFFFFFFFFFFFFFF AND SWAP1 POP SWAP1 JUMP JUMPDEST PUSH1 0x60 PUSH1 0x4 DUP1 SLOAD PUSH2 0x5F1 SWAP1 PUSH2 0x14C5 JUMP JUMPDEST DUP1 PUSH1 0x1F ADD PUSH1 0x20 DUP1 SWAP2 DIV MUL PUSH1 0x20 ADD PUSH1 0x40 MLOAD SWAP1 DUP2 ADD PUSH1 0x40 MSTORE DUP1 SWAP3 SWAP2 SWAP1 DUP2 DUP2 MSTORE PUSH1 0x20 ADD DUP3 DUP1 SLOAD PUSH2 0x61D SWAP1 PUSH2 0x14C5 JUMP JUMPDEST DUP1 ISZERO PUSH2 0x668 JUMPI DUP1 PUSH1 0x1F LT PUSH2 0x63F JUMPI PUSH2 0x100 DUP1 DUP4 SLOAD DIV MUL DUP4 MSTORE SWAP2 PUSH1 0x20 ADD SWAP2 PUSH2 0x668 JUMP JUMPDEST DUP3 ADD SWAP2 SWAP1 PUSH0 MSTORE PUSH1 0x20 PUSH0 KECCAK256 SWAP1 JUMPDEST DUP2 SLOAD DUP2 MSTORE SWAP1 PUSH1 0x1 ADD SWAP1 PUSH1 0x20 ADD DUP1 DUP4 GT PUSH2 0x64B JUMPI DUP3 SWAP1 SUB PUSH1 0x1F AND DUP3 ADD SWAP2 JUMPDEST POP POP POP POP POP SWAP1 POP SWAP1 JUMP JUMPDEST PUSH1 0x9 SLOAD DUP2 JUMP JUMPDEST PUSH0 PUSH2 0x681 PUSH2 0x5BA JUMP JUMPDEST PUSH20 0xFFFFFFFFFFFFFFFFFFFFFFFFFFFFFFFFFFFFFFFF AND CALLER PUSH20 0xFFFFFFFFFFFFFFFFFFFFFFFFFFFFFFFFFFFFFFFF AND SUB PUSH2 0x6F9 JUMPI PUSH1 0x9 SLOAD TIMESTAMP LT ISZERO PUSH2 0x6F8 JUMPI PUSH1 0x40 MLOAD PUSH32 0x8C379A000000000000000000000000000000000000000000000000000000000 DUP2 MSTORE PUSH1 0x4 ADD PUSH2 0x6EF SWAP1 PUSH2 0x17C1 JUMP JUMPDEST PUSH1 0x40 MLOAD DUP1 SWAP2 SUB SWAP1 REVERT JUMPDEST JUMPDEST PUSH1 0x8 SLOAD TIMESTAMP LT ISZERO PUSH2 0x73E JUMPI PUSH1 0x40 MLOAD PUSH32 0x8C379A000000000000000000000000000000000000000000000000000000000 DUP2 MSTORE PUSH1 0x4 ADD PUSH2 0x735 SWAP1 PUSH2 0x1829 JUMP JUMPDEST PUSH1 0x40 MLOAD DUP1 SWAP2 SUB SWAP1 REVERT JUMPDEST PUSH0 DUP3 PUSH2 0x749 DUP6 PUSH2 0x562 JUMP JUMPDEST PUSH2 0x753 SWAP2 SWAP1 PUSH2 0x15F2 JUMP JUMPDEST SWAP1 POP PUSH1 0x64 PUSH2 0x75F PUSH2 0x3FD JUMP JUMPDEST PUSH1 0x14 PUSH2 0x76B SWAP2 SWAP1 PUSH2 0x1625 JUMP JUMPDEST PUSH2 0x775 SWAP2 SWAP1 PUSH2 0x1693 JUMP JUMPDEST DUP2 LT PUSH2 0x7B6 JUMPI PUSH1 0x40 MLOAD PUSH32 0x8C379A000000000000000000000000000000000000000000000000000000000 DUP2 MSTORE PUSH1 0x4 ADD PUSH2 0x7AD SWAP1 PUSH2 0x1733 JUMP JUMPDEST PUSH1 0x40 MLOAD DUP1 SWAP2 SUB SWAP1 REVERT JUMPDEST PUSH2 0x7C0 DUP5 DUP5 PUSH2 0xB25 JUMP JUMPDEST SWAP2 POP POP SWAP3 SWAP2 POP POP JUMP JUMPDEST PUSH2 0x7D1 PUSH2 0x9DB JUMP JUMPDEST PUSH2 0x7DB DUP3 DUP3 PUSH2 0xB47 JUMP JUMPDEST POP POP JUMP JUMPDEST PUSH2 0x7E7 PUSH2 0x9DB JUMP JUMPDEST PUSH2 0x7F1 DUP3 DUP3 PUSH2 0xBC6 JUMP JUMPDEST POP POP JUMP JUMPDEST PUSH1 0x60 PUSH1 0xA DUP1 SLOAD PUSH2 0x804 SWAP1 PUSH2 0x14C5 JUMP JUMPDEST DUP1 PUSH1 0x1F ADD PUSH1 0x20 DUP1 SWAP2 DIV MUL PUSH1 0x20 ADD PUSH1 0x40 MLOAD SWAP1 DUP2 ADD PUSH1 0x40 MSTORE DUP1 SWAP3 SWAP2 SWAP1 DUP2 DUP2 MSTORE PUSH1 0x20 ADD DUP3 DUP1 SLOAD PUSH2 0x830 SWAP1 PUSH2 0x14C5 JUMP JUMPDEST DUP1 ISZERO PUSH2 0x87B JUMPI DUP1 PUSH1 0x1F LT PUSH2 0x852 JUMPI PUSH2 0x100 DUP1 DUP4 SLOAD DIV MUL DUP4 MSTORE SWAP2 PUSH1 0x20 ADD SWAP2 PUSH2 0x87B JUMP JUMPDEST DUP3 ADD SWAP2 SWAP1 PUSH0 MSTORE PUSH1 0x20 PUSH0 KECCAK256 SWAP1 JUMPDEST DUP2 SLOAD DUP2 MSTORE SWAP1 PUSH1 0x1 ADD SWAP1 PUSH1 0x20 ADD DUP1 DUP4 GT PUSH2 0x85E JUMPI DUP3 SWAP1 SUB PUSH1 0x1F AND DUP3 ADD SWAP2 JUMPDEST POP POP POP POP POP SWAP1 POP SWAP1 JUMP JUMPDEST PUSH0 PUSH1 0x8 SLOAD SWAP1 POP SWAP1 JUMP JUMPDEST PUSH0 PUSH1 0x1 PUSH0 DUP5 PUSH20 0xFFFFFFFFFFFFFFFFFFFFFFFFFFFFFFFFFFFFFFFF AND PUSH20 0xFFFFFFFFFFFFFFFFFFFFFFFFFFFFFFFFFFFFFFFF AND DUP2 MSTORE PUSH1 0x20 ADD SWAP1 DUP2 MSTORE PUSH1 0x20 ADD PUSH0 KECCAK256 PUSH0 DUP4 PUSH20 0xFFFFFFFFFFFFFFFFFFFFFFFFFFFFFFFFFFFFFFFF AND PUSH20 0xFFFFFFFFFFFFFFFFFFFFFFFFFFFFFFFFFFFFFFFF AND DUP2 MSTORE PUSH1 0x20 ADD SWAP1 DUP2 MSTORE PUSH1 0x20 ADD PUSH0 KECCAK256 SLOAD SWAP1 POP SWAP3 SWAP2 POP POP JUMP JUMPDEST PUSH2 0x918 PUSH2 0x9DB JUMP JUMPDEST PUSH0 PUSH20 0xFFFFFFFFFFFFFFFFFFFFFFFFFFFFFFFFFFFFFFFF AND DUP2 PUSH20 0xFFFFFFFFFFFFFFFFFFFFFFFFFFFFFFFFFFFFFFFF AND SUB PUSH2 0x988 JUMPI PUSH0 PUSH1 0x40 MLOAD PUSH32 0x1E4FBDF700000000000000000000000000000000000000000000000000000000 DUP2 MSTORE PUSH1 0x4 ADD PUSH2 0x97F SWAP2 SWAP1 PUSH2 0x1441 JUMP JUMPDEST PUSH1 0x40 MLOAD DUP1 SWAP2 SUB SWAP1 REVERT JUMPDEST PUSH2 0x991 DUP2 PUSH2 0xA62 JUMP JUMPDEST POP JUMP JUMPDEST PUSH0 CALLER SWAP1 POP SWAP1 JUMP JUMPDEST PUSH2 0x9A8 DUP4 DUP4 DUP4 PUSH1 0x1 PUSH2 0xC45 JUMP JUMPDEST POP POP POP JUMP JUMPDEST PUSH0 DUP1 PUSH2 0x9B7 PUSH2 0x994 JUMP JUMPDEST SWAP1 POP PUSH2 0x9C4 DUP6 DUP3 DUP6 PUSH2 0xE14 JUMP JUMPDEST PUSH2 0x9CF DUP6 DUP6 DUP6 PUSH2 0xEA6 JUMP JUMPDEST PUSH1 0x1 SWAP2 POP POP SWAP4 SWAP3 POP POP POP JUMP JUMPDEST PUSH2 0x9E3 PUSH2 0x994 JUMP JUMPDEST PUSH20 0xFFFFFFFFFFFFFFFFFFFFFFFFFFFFFFFFFFFFFFFF AND PUSH2 0xA01 PUSH2 0x5BA JUMP JUMPDEST PUSH20 0xFFFFFFFFFFFFFFFFFFFFFFFFFFFFFFFFFFFFFFFF AND EQ PUSH2 0xA60 JUMPI PUSH2 0xA24 PUSH2 0x994 JUMP JUMPDEST PUSH1 0x40 MLOAD PUSH32 0x118CDAA700000000000000000000000000000000000000000000000000000000 DUP2 MSTORE PUSH1 0x4 ADD PUSH2 0xA57 SWAP2 SWAP1 PUSH2 0x1441 JUMP JUMPDEST PUSH1 0x40 MLOAD DUP1 SWAP2 SUB SWAP1 REVERT JUMPDEST JUMP JUMPDEST PUSH0 PUSH1 0x5 PUSH0 SWAP1 SLOAD SWAP1 PUSH2 0x100 EXP SWAP1 DIV PUSH20 0xFFFFFFFFFFFFFFFFFFFFFFFFFFFFFFFFFFFFFFFF AND SWAP1 POP DUP2 PUSH1 0x5 PUSH0 PUSH2 0x100 EXP DUP2 SLOAD DUP2 PUSH20 0xFFFFFFFFFFFFFFFFFFFFFFFFFFFFFFFFFFFFFFFF MUL NOT AND SWAP1 DUP4 PUSH20 0xFFFFFFFFFFFFFFFFFFFFFFFFFFFFFFFFFFFFFFFF AND MUL OR SWAP1 SSTORE POP DUP2 PUSH20 0xFFFFFFFFFFFFFFFFFFFFFFFFFFFFFFFFFFFFFFFF AND DUP2 PUSH20 0xFFFFFFFFFFFFFFFFFFFFFFFFFFFFFFFFFFFFFFFF AND PUSH32 0x8BE0079C531659141344CD1FD0A4F28419497F9722A3DAAFE3B4186F6B6457E0 PUSH1 0x40 MLOAD PUSH1 0x40 MLOAD DUP1 SWAP2 SUB SWAP1 LOG3 POP POP JUMP JUMPDEST PUSH0 DUP1 PUSH2 0xB2F PUSH2 0x994 JUMP JUMPDEST SWAP1 POP PUSH2 0xB3C DUP2 DUP6 DUP6 PUSH2 0xEA6 JUMP JUMPDEST PUSH1 0x1 SWAP2 POP POP SWAP3 SWAP2 POP POP JUMP JUMPDEST PUSH0 PUSH20 0xFFFFFFFFFFFFFFFFFFFFFFFFFFFFFFFFFFFFFFFF AND DUP3 PUSH20 0xFFFFFFFFFFFFFFFFFFFFFFFFFFFFFFFFFFFFFFFF AND SUB PUSH2 0xBB7 JUMPI PUSH0 PUSH1 0x40 MLOAD PUSH32 0x96C6FD1E00000000000000000000000000000000000000000000000000000000 DUP2 MSTORE PUSH1 0x4 ADD PUSH2 0xBAE SWAP2 SWAP1 PUSH2 0x1441 JUMP JUMPDEST PUSH1 0x40 MLOAD DUP1 SWAP2 SUB SWAP1 REVERT JUMPDEST PUSH2 0xBC2 DUP3 PUSH0 DUP4 PUSH2 0xF96 JUMP JUMPDEST POP POP JUMP JUMPDEST PUSH0 PUSH20 0xFFFFFFFFFFFFFFFFFFFFFFFFFFFFFFFFFFFFFFFF AND DUP3 PUSH20 0xFFFFFFFFFFFFFFFFFFFFFFFFFFFFFFFFFFFFFFFF AND SUB PUSH2 0xC36 JUMPI PUSH0 PUSH1 0x40 MLOAD PUSH32 0xEC442F0500000000000000000000000000000000000000000000000000000000 DUP2 MSTORE PUSH1 0x4 ADD PUSH2 0xC2D SWAP2 SWAP1 PUSH2 0x1441 JUMP JUMPDEST PUSH1 0x40 MLOAD DUP1 SWAP2 SUB SWAP1 REVERT JUMPDEST PUSH2 0xC41 PUSH0 DUP4 DUP4 PUSH2 0xF96 JUMP JUMPDEST POP POP JUMP JUMPDEST PUSH0 PUSH20 0xFFFFFFFFFFFFFFFFFFFFFFFFFFFFFFFFFFFFFFFF AND DUP5 PUSH20 0xFFFFFFFFFFFFFFFFFFFFFFFFFFFFFFFFFFFFFFFF AND SUB PUSH2 0xCB5 JUMPI PUSH0 PUSH1 0x40 MLOAD PUSH32 0xE602DF0500000000000000000000000000000000000000000000000000000000 DUP2 MSTORE PUSH1 0x4 ADD PUSH2 0xCAC SWAP2 SWAP1 PUSH2 0x1441 JUMP JUMPDEST PUSH1 0x40 MLOAD DUP1 SWAP2 SUB SWAP1 REVERT JUMPDEST PUSH0 PUSH20 0xFFFFFFFFFFFFFFFFFFFFFFFFFFFFFFFFFFFFFFFF AND DUP4 PUSH20 0xFFFFFFFFFFFFFFFFFFFFFFFFFFFFFFFFFFFFFFFF AND SUB PUSH2 0xD25 JUMPI PUSH0 PUSH1 0x40 MLOAD PUSH32 0x94280D6200000000000000000000000000000000000000000000000000000000 DUP2 MSTORE PUSH1 0x4 ADD PUSH2 0xD1C SWAP2 SWAP1 PUSH2 0x1441 JUMP JUMPDEST PUSH1 0x40 MLOAD DUP1 SWAP2 SUB SWAP1 REVERT JUMPDEST DUP2 PUSH1 0x1 PUSH0 DUP7 PUSH20 0xFFFFFFFFFFFFFFFFFFFFFFFFFFFFFFFFFFFFFFFF AND PUSH20 0xFFFFFFFFFFFFFFFFFFFFFFFFFFFFFFFFFFFFFFFF AND DUP2 MSTORE PUSH1 0x20 ADD SWAP1 DUP2 MSTORE PUSH1 0x20 ADD PUSH0 KECCAK256 PUSH0 DUP6 PUSH20 0xFFFFFFFFFFFFFFFFFFFFFFFFFFFFFFFFFFFFFFFF AND PUSH20 0xFFFFFFFFFFFFFFFFFFFFFFFFFFFFFFFFFFFFFFFF AND DUP2 MSTORE PUSH1 0x20 ADD SWAP1 DUP2 MSTORE PUSH1 0x20 ADD PUSH0 KECCAK256 DUP2 SWAP1 SSTORE POP DUP1 ISZERO PUSH2 0xE0E JUMPI DUP3 PUSH20 0xFFFFFFFFFFFFFFFFFFFFFFFFFFFFFFFFFFFFFFFF AND DUP5 PUSH20 0xFFFFFFFFFFFFFFFFFFFFFFFFFFFFFFFFFFFFFFFF AND PUSH32 0x8C5BE1E5EBEC7D5BD14F71427D1E84F3DD0314C0F7B2291E5B200AC8C7C3B925 DUP5 PUSH1 0x40 MLOAD PUSH2 0xE05 SWAP2 SWAP1 PUSH2 0x136A JUMP JUMPDEST PUSH1 0x40 MLOAD DUP1 SWAP2 SUB SWAP1 LOG3 JUMPDEST POP POP POP POP JUMP JUMPDEST PUSH0 PUSH2 0xE1F DUP5 DUP5 PUSH2 0x88E JUMP JUMPDEST SWAP1 POP PUSH32 0xFFFFFFFFFFFFFFFFFFFFFFFFFFFFFFFFFFFFFFFFFFFFFFFFFFFFFFFFFFFFFFFF DUP2 EQ PUSH2 0xEA0 JUMPI DUP2 DUP2 LT ISZERO PUSH2 0xE91 JUMPI DUP3 DUP2 DUP4 PUSH1 0x40 MLOAD PUSH32 0xFB8F41B200000000000000000000000000000000000000000000000000000000 DUP2 MSTORE PUSH1 0x4 ADD PUSH2 0xE88 SWAP4 SWAP3 SWAP2 SWAP1 PUSH2 0x1847 JUMP JUMPDEST PUSH1 0x40 MLOAD DUP1 SWAP2 SUB SWAP1 REVERT JUMPDEST PUSH2 0xE9F DUP5 DUP5 DUP5 DUP5 SUB PUSH0 PUSH2 0xC45 JUMP JUMPDEST JUMPDEST POP POP POP POP JUMP JUMPDEST PUSH0 PUSH20 0xFFFFFFFFFFFFFFFFFFFFFFFFFFFFFFFFFFFFFFFF AND DUP4 PUSH20 0xFFFFFFFFFFFFFFFFFFFFFFFFFFFFFFFFFFFFFFFF AND SUB PUSH2 0xF16 JUMPI PUSH0 PUSH1 0x40 MLOAD PUSH32 0x96C6FD1E00000000000000000000000000000000000000000000000000000000 DUP2 MSTORE PUSH1 0x4 ADD PUSH2 0xF0D SWAP2 SWAP1 PUSH2 0x1441 JUMP JUMPDEST PUSH1 0x40 MLOAD DUP1 SWAP2 SUB SWAP1 REVERT JUMPDEST PUSH0 PUSH20 0xFFFFFFFFFFFFFFFFFFFFFFFFFFFFFFFFFFFFFFFF AND DUP3 PUSH20 0xFFFFFFFFFFFFFFFFFFFFFFFFFFFFFFFFFFFFFFFF AND SUB PUSH2 0xF86 JUMPI PUSH0 PUSH1 0x40 MLOAD PUSH32 0xEC442F0500000000000000000000000000000000000000000000000000000000 DUP2 MSTORE PUSH1 0x4 ADD PUSH2 0xF7D SWAP2 SWAP1 PUSH2 0x1441 JUMP JUMPDEST PUSH1 0x40 MLOAD DUP1 SWAP2 SUB SWAP1 REVERT JUMPDEST PUSH2 0xF91 DUP4 DUP4 DUP4 PUSH2 0xF96 JUMP JUMPDEST POP POP POP JUMP JUMPDEST PUSH0 PUSH20 0xFFFFFFFFFFFFFFFFFFFFFFFFFFFFFFFFFFFFFFFF AND DUP4 PUSH20 0xFFFFFFFFFFFFFFFFFFFFFFFFFFFFFFFFFFFFFFFF AND SUB PUSH2 0xFE6 JUMPI DUP1 PUSH1 0x2 PUSH0 DUP3 DUP3 SLOAD PUSH2 0xFDA SWAP2 SWAP1 PUSH2 0x15F2 JUMP JUMPDEST SWAP3 POP POP DUP2 SWAP1 SSTORE POP PUSH2 0x10B4 JUMP JUMPDEST PUSH0 DUP1 PUSH0 DUP6 PUSH20 0xFFFFFFFFFFFFFFFFFFFFFFFFFFFFFFFFFFFFFFFF AND PUSH20 0xFFFFFFFFFFFFFFFFFFFFFFFFFFFFFFFFFFFFFFFF AND DUP2 MSTORE PUSH1 0x20 ADD SWAP1 DUP2 MSTORE PUSH1 0x20 ADD PUSH0 KECCAK256 SLOAD SWAP1 POP DUP2 DUP2 LT ISZERO PUSH2 0x106F JUMPI DUP4 DUP2 DUP4 PUSH1 0x40 MLOAD PUSH32 0xE450D38C00000000000000000000000000000000000000000000000000000000 DUP2 MSTORE PUSH1 0x4 ADD PUSH2 0x1066 SWAP4 SWAP3 SWAP2 SWAP1 PUSH2 0x1847 JUMP JUMPDEST PUSH1 0x40 MLOAD DUP1 SWAP2 SUB SWAP1 REVERT JUMPDEST DUP2 DUP2 SUB PUSH0 DUP1 DUP7 PUSH20 0xFFFFFFFFFFFFFFFFFFFFFFFFFFFFFFFFFFFFFFFF AND PUSH20 0xFFFFFFFFFFFFFFFFFFFFFFFFFFFFFFFFFFFFFFFF AND DUP2 MSTORE PUSH1 0x20 ADD SWAP1 DUP2 MSTORE PUSH1 0x20 ADD PUSH0 KECCAK256 DUP2 SWAP1 SSTORE POP POP JUMPDEST PUSH0 PUSH20 0xFFFFFFFFFFFFFFFFFFFFFFFFFFFFFFFFFFFFFFFF AND DUP3 PUSH20 0xFFFFFFFFFFFFFFFFFFFFFFFFFFFFFFFFFFFFFFFF AND SUB PUSH2 0x10FB JUMPI DUP1 PUSH1 0x2 PUSH0 DUP3 DUP3 SLOAD SUB SWAP3 POP POP DUP2 SWAP1 SSTORE POP PUSH2 0x1145 JUMP JUMPDEST DUP1 PUSH0 DUP1 DUP5 PUSH20 0xFFFFFFFFFFFFFFFFFFFFFFFFFFFFFFFFFFFFFFFF AND PUSH20 0xFFFFFFFFFFFFFFFFFFFFFFFFFFFFFFFFFFFFFFFF AND DUP2 MSTORE PUSH1 0x20 ADD SWAP1 DUP2 MSTORE PUSH1 0x20 ADD PUSH0 KECCAK256 PUSH0 DUP3 DUP3 SLOAD ADD SWAP3 POP POP DUP2 SWAP1 SSTORE POP JUMPDEST DUP2 PUSH20 0xFFFFFFFFFFFFFFFFFFFFFFFFFFFFFFFFFFFFFFFF AND DUP4 PUSH20 0xFFFFFFFFFFFFFFFFFFFFFFFFFFFFFFFFFFFFFFFF AND PUSH32 0xDDF252AD1BE2C89B69C2B068FC378DAA952BA7F163C4A11628F55A4DF523B3EF DUP4 PUSH1 0x40 MLOAD PUSH2 0x11A2 SWAP2 SWAP1 PUSH2 0x136A JUMP JUMPDEST PUSH1 0x40 MLOAD DUP1 SWAP2 SUB SWAP1 LOG3 POP POP POP JUMP JUMPDEST PUSH0 DUP2 MLOAD SWAP1 POP SWAP2 SWAP1 POP JUMP JUMPDEST PUSH0 DUP3 DUP3 MSTORE PUSH1 0x20 DUP3 ADD SWAP1 POP SWAP3 SWAP2 POP POP JUMP JUMPDEST PUSH0 JUMPDEST DUP4 DUP2 LT ISZERO PUSH2 0x11E6 JUMPI DUP1 DUP3 ADD MLOAD DUP2 DUP5 ADD MSTORE PUSH1 0x20 DUP2 ADD SWAP1 POP PUSH2 0x11CB JUMP JUMPDEST PUSH0 DUP5 DUP5 ADD MSTORE POP POP POP POP JUMP JUMPDEST PUSH0 PUSH1 0x1F NOT PUSH1 0x1F DUP4 ADD AND SWAP1 POP SWAP2 SWAP1 POP JUMP JUMPDEST PUSH0 PUSH2 0x120B DUP3 PUSH2 0x11AF JUMP JUMPDEST PUSH2 0x1215 DUP2 DUP6 PUSH2 0x11B9 JUMP JUMPDEST SWAP4 POP PUSH2 0x1225 DUP2 DUP6 PUSH1 0x20 DUP7 ADD PUSH2 0x11C9 JUMP JUMPDEST PUSH2 0x122E DUP2 PUSH2 0x11F1 JUMP JUMPDEST DUP5 ADD SWAP2 POP POP SWAP3 SWAP2 POP POP JUMP JUMPDEST PUSH0 PUSH1 0x20 DUP3 ADD SWAP1 POP DUP2 DUP2 SUB PUSH0 DUP4 ADD MSTORE PUSH2 0x1251 DUP2 DUP5 PUSH2 0x1201 JUMP JUMPDEST SWAP1 POP SWAP3 SWAP2 POP POP JUMP JUMPDEST PUSH0 DUP1 REVERT JUMPDEST PUSH0 PUSH20 0xFFFFFFFFFFFFFFFFFFFFFFFFFFFFFFFFFFFFFFFF DUP3 AND SWAP1 POP SWAP2 SWAP1 POP JUMP JUMPDEST PUSH0 PUSH2 0x1286 DUP3 PUSH2 0x125D JUMP JUMPDEST SWAP1 POP SWAP2 SWAP1 POP JUMP JUMPDEST PUSH2 0x1296 DUP2 PUSH2 0x127C JUMP JUMPDEST DUP2 EQ PUSH2 0x12A0 JUMPI PUSH0 DUP1 REVERT JUMPDEST POP JUMP JUMPDEST PUSH0 DUP2 CALLDATALOAD SWAP1 POP PUSH2 0x12B1 DUP2 PUSH2 0x128D JUMP JUMPDEST SWAP3 SWAP2 POP POP JUMP JUMPDEST PUSH0 DUP2 SWAP1 POP SWAP2 SWAP1 POP JUMP JUMPDEST PUSH2 0x12C9 DUP2 PUSH2 0x12B7 JUMP JUMPDEST DUP2 EQ PUSH2 0x12D3 JUMPI PUSH0 DUP1 REVERT JUMPDEST POP JUMP JUMPDEST PUSH0 DUP2 CALLDATALOAD SWAP1 POP PUSH2 0x12E4 DUP2 PUSH2 0x12C0 JUMP JUMPDEST SWAP3 SWAP2 POP POP JUMP JUMPDEST PUSH0 DUP1 PUSH1 0x40 DUP4 DUP6 SUB SLT ISZERO PUSH2 0x1300 JUMPI PUSH2 0x12FF PUSH2 0x1259 JUMP JUMPDEST JUMPDEST PUSH0 PUSH2 0x130D DUP6 DUP3 DUP7 ADD PUSH2 0x12A3 JUMP JUMPDEST SWAP3 POP POP PUSH1 0x20 PUSH2 0x131E DUP6 DUP3 DUP7 ADD PUSH2 0x12D6 JUMP JUMPDEST SWAP2 POP POP SWAP3 POP SWAP3 SWAP1 POP JUMP JUMPDEST PUSH0 DUP2 ISZERO ISZERO SWAP1 POP SWAP2 SWAP1 POP JUMP JUMPDEST PUSH2 0x133C DUP2 PUSH2 0x1328 JUMP JUMPDEST DUP3 MSTORE POP POP JUMP JUMPDEST PUSH0 PUSH1 0x20 DUP3 ADD SWAP1 POP PUSH2 0x1355 PUSH0 DUP4 ADD DUP5 PUSH2 0x1333 JUMP JUMPDEST SWAP3 SWAP2 POP POP JUMP JUMPDEST PUSH2 0x1364 DUP2 PUSH2 0x12B7 JUMP JUMPDEST DUP3 MSTORE POP POP JUMP JUMPDEST PUSH0 PUSH1 0x20 DUP3 ADD SWAP1 POP PUSH2 0x137D PUSH0 DUP4 ADD DUP5 PUSH2 0x135B JUMP JUMPDEST SWAP3 SWAP2 POP POP JUMP JUMPDEST PUSH0 DUP1 PUSH0 PUSH1 0x60 DUP5 DUP7 SUB SLT ISZERO PUSH2 0x139A JUMPI PUSH2 0x1399 PUSH2 0x1259 JUMP JUMPDEST JUMPDEST PUSH0 PUSH2 0x13A7 DUP7 DUP3 DUP8 ADD PUSH2 0x12A3 JUMP JUMPDEST SWAP4 POP POP PUSH1 0x20 PUSH2 0x13B8 DUP7 DUP3 DUP8 ADD PUSH2 0x12A3 JUMP JUMPDEST SWAP3 POP POP PUSH1 0x40 PUSH2 0x13C9 DUP7 DUP3 DUP8 ADD PUSH2 0x12D6 JUMP JUMPDEST SWAP2 POP POP SWAP3 POP SWAP3 POP SWAP3 JUMP JUMPDEST PUSH0 PUSH1 0xFF DUP3 AND SWAP1 POP SWAP2 SWAP1 POP JUMP JUMPDEST PUSH2 0x13E8 DUP2 PUSH2 0x13D3 JUMP JUMPDEST DUP3 MSTORE POP POP JUMP JUMPDEST PUSH0 PUSH1 0x20 DUP3 ADD SWAP1 POP PUSH2 0x1401 PUSH0 DUP4 ADD DUP5 PUSH2 0x13DF JUMP JUMPDEST SWAP3 SWAP2 POP POP JUMP JUMPDEST PUSH0 PUSH1 0x20 DUP3 DUP5 SUB SLT ISZERO PUSH2 0x141C JUMPI PUSH2 0x141B PUSH2 0x1259 JUMP JUMPDEST JUMPDEST PUSH0 PUSH2 0x1429 DUP5 DUP3 DUP6 ADD PUSH2 0x12A3 JUMP JUMPDEST SWAP2 POP POP SWAP3 SWAP2 POP POP JUMP JUMPDEST PUSH2 0x143B DUP2 PUSH2 0x127C JUMP JUMPDEST DUP3 MSTORE POP POP JUMP JUMPDEST PUSH0 PUSH1 0x20 DUP3 ADD SWAP1 POP PUSH2 0x1454 PUSH0 DUP4 ADD DUP5 PUSH2 0x1432 JUMP JUMPDEST SWAP3 SWAP2 POP POP JUMP JUMPDEST PUSH0 DUP1 PUSH1 0x40 DUP4 DUP6 SUB SLT ISZERO PUSH2 0x1470 JUMPI PUSH2 0x146F PUSH2 0x1259 JUMP JUMPDEST JUMPDEST PUSH0 PUSH2 0x147D DUP6 DUP3 DUP7 ADD PUSH2 0x12A3 JUMP JUMPDEST SWAP3 POP POP PUSH1 0x20 PUSH2 0x148E DUP6 DUP3 DUP7 ADD PUSH2 0x12A3 JUMP JUMPDEST SWAP2 POP POP SWAP3 POP SWAP3 SWAP1 POP JUMP JUMPDEST PUSH32 0x4E487B7100000000000000000000000000000000000000000000000000000000 PUSH0 MSTORE PUSH1 0x22 PUSH1 0x4 MSTORE PUSH1 0x24 PUSH0 REVERT JUMPDEST PUSH0 PUSH1 0x2 DUP3 DIV SWAP1 POP PUSH1 0x1 DUP3 AND DUP1 PUSH2 0x14DC JUMPI PUSH1 0x7F DUP3 AND SWAP2 POP JUMPDEST PUSH1 0x20 DUP3 LT DUP2 SUB PUSH2 0x14EF JUMPI PUSH2 0x14EE PUSH2 0x1498 JUMP JUMPDEST JUMPDEST POP SWAP2 SWAP1 POP JUMP JUMPDEST PUSH32 0x41646D696E277320746F6B656E7320617265206C6F636B656400000000000000 PUSH0 DUP3 ADD MSTORE POP JUMP JUMPDEST PUSH0 PUSH2 0x1529 PUSH1 0x19 DUP4 PUSH2 0x11B9 JUMP JUMPDEST SWAP2 POP PUSH2 0x1534 DUP3 PUSH2 0x14F5 JUMP JUMPDEST PUSH1 0x20 DUP3 ADD SWAP1 POP SWAP2 SWAP1 POP JUMP JUMPDEST PUSH0 PUSH1 0x20 DUP3 ADD SWAP1 POP DUP2 DUP2 SUB PUSH0 DUP4 ADD MSTORE PUSH2 0x1556 DUP2 PUSH2 0x151D JUMP JUMPDEST SWAP1 POP SWAP2 SWAP1 POP JUMP JUMPDEST PUSH32 0x546F6B656E7320617265206C6F636B6564000000000000000000000000000000 PUSH0 DUP3 ADD MSTORE POP JUMP JUMPDEST PUSH0 PUSH2 0x1591 PUSH1 0x11 DUP4 PUSH2 0x11B9 JUMP JUMPDEST SWAP2 POP PUSH2 0x159C DUP3 PUSH2 0x155D JUMP JUMPDEST PUSH1 0x20 DUP3 ADD SWAP1 POP SWAP2 SWAP1 POP JUMP JUMPDEST PUSH0 PUSH1 0x20 DUP3 ADD SWAP1 POP DUP2 DUP2 SUB PUSH0 DUP4 ADD MSTORE PUSH2 0x15BE DUP2 PUSH2 0x1585 JUMP JUMPDEST SWAP1 POP SWAP2 SWAP1 POP JUMP JUMPDEST PUSH32 0x4E487B7100000000000000000000000000000000000000000000000000000000 PUSH0 MSTORE PUSH1 0x11 PUSH1 0x4 MSTORE PUSH1 0x24 PUSH0 REVERT JUMPDEST PUSH0 PUSH2 0x15FC DUP3 PUSH2 0x12B7 JUMP JUMPDEST SWAP2 POP PUSH2 0x1607 DUP4 PUSH2 0x12B7 JUMP JUMPDEST SWAP3 POP DUP3 DUP3 ADD SWAP1 POP DUP1 DUP3 GT ISZERO PUSH2 0x161F JUMPI PUSH2 0x161E PUSH2 0x15C5 JUMP JUMPDEST JUMPDEST SWAP3 SWAP2 POP POP JUMP JUMPDEST PUSH0 PUSH2 0x162F DUP3 PUSH2 0x12B7 JUMP JUMPDEST SWAP2 POP PUSH2 0x163A DUP4 PUSH2 0x12B7 JUMP JUMPDEST SWAP3 POP DUP3 DUP3 MUL PUSH2 0x1648 DUP2 PUSH2 0x12B7 JUMP JUMPDEST SWAP2 POP DUP3 DUP3 DIV DUP5 EQ DUP4 ISZERO OR PUSH2 0x165F JUMPI PUSH2 0x165E PUSH2 0x15C5 JUMP JUMPDEST JUMPDEST POP SWAP3 SWAP2 POP POP JUMP JUMPDEST PUSH32 0x4E487B7100000000000000000000000000000000000000000000000000000000 PUSH0 MSTORE PUSH1 0x12 PUSH1 0x4 MSTORE PUSH1 0x24 PUSH0 REVERT JUMPDEST PUSH0 PUSH2 0x169D DUP3 PUSH2 0x12B7 JUMP JUMPDEST SWAP2 POP PUSH2 0x16A8 DUP4 PUSH2 0x12B7 JUMP JUMPDEST SWAP3 POP DUP3 PUSH2 0x16B8 JUMPI PUSH2 0x16B7 PUSH2 0x1666 JUMP JUMPDEST JUMPDEST DUP3 DUP3 DIV SWAP1 POP SWAP3 SWAP2 POP POP JUMP JUMPDEST PUSH32 0x4F776E657273686970206361707065642061742032302520746F20656E737572 PUSH0 DUP3 ADD MSTORE PUSH32 0x6520646563656E7472616C697A6174696F6E0000000000000000000000000000 PUSH1 0x20 DUP3 ADD MSTORE POP JUMP JUMPDEST PUSH0 PUSH2 0x171D PUSH1 0x32 DUP4 PUSH2 0x11B9 JUMP JUMPDEST SWAP2 POP PUSH2 0x1728 DUP3 PUSH2 0x16C3 JUMP JUMPDEST PUSH1 0x40 DUP3 ADD SWAP1 POP SWAP2 SWAP1 POP JUMP JUMPDEST PUSH0 PUSH1 0x20 DUP3 ADD SWAP1 POP DUP2 DUP2 SUB PUSH0 DUP4 ADD MSTORE PUSH2 0x174A DUP2 PUSH2 0x1711 JUMP JUMPDEST SWAP1 POP SWAP2 SWAP1 POP JUMP JUMPDEST PUSH32 0x61646D696E277320746F6B656E7320617265206C6F636B656420666F7220616E PUSH0 DUP3 ADD MSTORE PUSH32 0x2079656172000000000000000000000000000000000000000000000000000000 PUSH1 0x20 DUP3 ADD MSTORE POP JUMP JUMPDEST PUSH0 PUSH2 0x17AB PUSH1 0x25 DUP4 PUSH2 0x11B9 JUMP JUMPDEST SWAP2 POP PUSH2 0x17B6 DUP3 PUSH2 0x1751 JUMP JUMPDEST PUSH1 0x40 DUP3 ADD SWAP1 POP SWAP2 SWAP1 POP JUMP JUMPDEST PUSH0 PUSH1 0x20 DUP3 ADD SWAP1 POP DUP2 DUP2 SUB PUSH0 DUP4 ADD MSTORE PUSH2 0x17D8 DUP2 PUSH2 0x179F JUMP JUMPDEST SWAP1 POP SWAP2 SWAP1 POP JUMP JUMPDEST PUSH32 0x6E6F7420666F722073616C652079657400000000000000000000000000000000 PUSH0 DUP3 ADD MSTORE POP JUMP JUMPDEST PUSH0 PUSH2 0x1813 PUSH1 0x10 DUP4 PUSH2 0x11B9 JUMP JUMPDEST SWAP2 POP PUSH2 0x181E DUP3 PUSH2 0x17DF JUMP JUMPDEST PUSH1 0x20 DUP3 ADD SWAP1 POP SWAP2 SWAP1 POP JUMP JUMPDEST PUSH0 PUSH1 0x20 DUP3 ADD SWAP1 POP DUP2 DUP2 SUB PUSH0 DUP4 ADD MSTORE PUSH2 0x1840 DUP2 PUSH2 0x1807 JUMP JUMPDEST SWAP1 POP SWAP2 SWAP1 POP JUMP JUMPDEST PUSH0 PUSH1 0x60 DUP3 ADD SWAP1 POP PUSH2 0x185A PUSH0 DUP4 ADD DUP7 PUSH2 0x1432 JUMP JUMPDEST PUSH2 0x1867 PUSH1 0x20 DUP4 ADD DUP6 PUSH2 0x135B JUMP JUMPDEST PUSH2 0x1874 PUSH1 0x40 DUP4 ADD DUP5 PUSH2 0x135B JUMP JUMPDEST SWAP5 SWAP4 POP POP POP POP JUMP INVALID LOG2 PUSH5 0x6970667358 0x22 SLT KECCAK256 PUSH14 0xB3E6E5D6CD499890225B2505D93D ISZERO CODECOPY 0xCB SWAP16 PUSH8 0x1886DD8B12C8B746 0x4E 0xB9 0xDA 0xE6 PUSH5 0x736F6C6343 STOP ADDMOD EQ STOP CALLER "
				},
				"gasEstimates": {
					"creation": {
						"codeDepositCost": "1264400",
						"executionCost": "infinite",
						"totalCost": "infinite"
					},
					"external": {
						"ForceBurn(address,uint256)": "infinite",
						"ForceMint(address,uint256)": "infinite",
						"_adminLockTime()": "2470",
						"allowance(address,address)": "infinite",
						"approve(address,uint256)": "infinite",
						"balanceOf(address)": "2874",
						"decimals()": "353",
						"getDocumentURI()": "infinite",
						"getLockTime()": "2498",
						"name()": "infinite",
						"owner()": "2604",
						"renounceOwnership()": "infinite",
						"symbol()": "infinite",
						"totalSupply()": "2500",
						"transfer(address,uint256)": "infinite",
						"transferFrom(address,address,uint256)": "infinite",
						"transferOwnership(address)": "infinite"
					}
				},
				"methodIdentifiers": {
					"ForceBurn(address,uint256)": "ae84827a",
					"ForceMint(address,uint256)": "b93a5396",
					"_adminLockTime()": "9f3adb0e",
					"allowance(address,address)": "dd62ed3e",
					"approve(address,uint256)": "095ea7b3",
					"balanceOf(address)": "70a08231",
					"decimals()": "313ce567",
					"getDocumentURI()": "bd7dac92",
					"getLockTime()": "c0a4d64d",
					"name()": "06fdde03",
					"owner()": "8da5cb5b",
					"renounceOwnership()": "715018a6",
					"symbol()": "95d89b41",
					"totalSupply()": "18160ddd",
					"transfer(address,uint256)": "a9059cbb",
					"transferFrom(address,address,uint256)": "23b872dd",
					"transferOwnership(address)": "f2fde38b"
				}
			},
			"storageLayout": {
				"storage": [
					{
						"astId": 626,
						"contract": "contracts/ERC20subscription.sol:ERC20subscription",
						"label": "_balances",
						"offset": 0,
						"slot": "0",
						"type": "t_mapping(t_address,t_uint256)"
					},
					{
						"astId": 632,
						"contract": "contracts/ERC20subscription.sol:ERC20subscription",
						"label": "_allowances",
						"offset": 0,
						"slot": "1",
						"type": "t_mapping(t_address,t_mapping(t_address,t_uint256))"
					},
					{
						"astId": 634,
						"contract": "contracts/ERC20subscription.sol:ERC20subscription",
						"label": "_totalSupply",
						"offset": 0,
						"slot": "2",
						"type": "t_uint256"
					},
					{
						"astId": 636,
						"contract": "contracts/ERC20subscription.sol:ERC20subscription",
						"label": "_name",
						"offset": 0,
						"slot": "3",
						"type": "t_string_storage"
					},
					{
						"astId": 638,
						"contract": "contracts/ERC20subscription.sol:ERC20subscription",
						"label": "_symbol",
						"offset": 0,
						"slot": "4",
						"type": "t_string_storage"
					},
					{
						"astId": 327,
						"contract": "contracts/ERC20subscription.sol:ERC20subscription",
						"label": "_owner",
						"offset": 0,
						"slot": "5",
						"type": "t_address"
					},
					{
						"astId": 9,
						"contract": "contracts/ERC20subscription.sol:ERC20subscription",
						"label": "_totalMinted",
						"offset": 0,
						"slot": "6",
						"type": "t_uint256"
					},
					{
						"astId": 11,
						"contract": "contracts/ERC20subscription.sol:ERC20subscription",
						"label": "_totalSupply",
						"offset": 0,
						"slot": "7",
						"type": "t_uint256"
					},
					{
						"astId": 13,
						"contract": "contracts/ERC20subscription.sol:ERC20subscription",
						"label": "_lockTime",
						"offset": 0,
						"slot": "8",
						"type": "t_uint256"
					},
					{
						"astId": 15,
						"contract": "contracts/ERC20subscription.sol:ERC20subscription",
						"label": "_adminLockTime",
						"offset": 0,
						"slot": "9",
						"type": "t_uint256"
					},
					{
						"astId": 17,
						"contract": "contracts/ERC20subscription.sol:ERC20subscription",
						"label": "_documentURI",
						"offset": 0,
						"slot": "10",
						"type": "t_string_storage"
					}
				],
				"types": {
					"t_address": {
						"encoding": "inplace",
						"label": "address",
						"numberOfBytes": "20"
					},
					"t_mapping(t_address,t_mapping(t_address,t_uint256))": {
						"encoding": "mapping",
						"key": "t_address",
						"label": "mapping(address => mapping(address => uint256))",
						"numberOfBytes": "32",
						"value": "t_mapping(t_address,t_uint256)"
					},
					"t_mapping(t_address,t_uint256)": {
						"encoding": "mapping",
						"key": "t_address",
						"label": "mapping(address => uint256)",
						"numberOfBytes": "32",
						"value": "t_uint256"
					},
					"t_string_storage": {
						"encoding": "bytes",
						"label": "string",
						"numberOfBytes": "32"
					},
					"t_uint256": {
						"encoding": "inplace",
						"label": "uint256",
						"numberOfBytes": "32"
					}
				}
			},
			"userdoc": {
				"kind": "user",
				"methods": {},
				"version": 1
			}
		}
	}
}