{
	"data": {
		"bytecode": {
			"linkReferences": {},
			"object": "608060405234801562000010575f80fd5b506040516200294c3803806200294c8339818101604052810190620000369190620009ca565b87878781600390816200004a919062000d57565b5080600490816200005c919062000d57565b5050505f73ffffffffffffffffffffffffffffffffffffffff168173ffffffffffffffffffffffffffffffffffffffff1603620000d2575f6040517f1e4fbdf7000000000000000000000000000000000000000000000000000000008152600401620000c9919062000e4c565b60405180910390fd5b620000e3816200029160201b60201c565b5082518451146200012b576040517f08c379a0000000000000000000000000000000000000000000000000000000008152600401620001229062000eeb565b60405180910390fd5b84600781905550814262000140919062000f38565b60088190555080600a908162000157919062000d57565b505f5b8451811015620002385760075460065485838151811062000180576200017f62000f72565b5b602002602001015162000194919062000f38565b11156200019f575f80fd5b620001eb858281518110620001b957620001b862000f72565b5b6020026020010151858381518110620001d757620001d662000f72565b5b60200260200101516200035460201b60201c565b83818151811062000201576200020062000f72565b5b602002602001015160065f8282546200021b919062000f38565b9250508190555080806200022f9062000f9f565b9150506200015a565b505f6006546007546200024c919062000feb565b90505f81111562000282576200026989826200035460201b60201c565b6301e13380426200027b919062000f38565b6009819055505b5050505050505050506200108c565b5f60055f9054906101000a900473ffffffffffffffffffffffffffffffffffffffff1690508160055f6101000a81548173ffffffffffffffffffffffffffffffffffffffff021916908373ffffffffffffffffffffffffffffffffffffffff1602179055508173ffffffffffffffffffffffffffffffffffffffff168173ffffffffffffffffffffffffffffffffffffffff167f8be0079c531659141344cd1fd0a4f28419497f9722a3daafe3b4186f6b6457e060405160405180910390a35050565b5f73ffffffffffffffffffffffffffffffffffffffff168273ffffffffffffffffffffffffffffffffffffffff1603620003c7575f6040517fec442f05000000000000000000000000000000000000000000000000000000008152600401620003be919062000e4c565b60405180910390fd5b620003da5f8383620003de60201b60201c565b5050565b5f73ffffffffffffffffffffffffffffffffffffffff168373ffffffffffffffffffffffffffffffffffffffff160362000432578060025f82825462000425919062000f38565b9250508190555062000503565b5f805f8573ffffffffffffffffffffffffffffffffffffffff1673ffffffffffffffffffffffffffffffffffffffff1681526020019081526020015f2054905081811015620004be578381836040517fe450d38c000000000000000000000000000000000000000000000000000000008152600401620004b59392919062001036565b60405180910390fd5b8181035f808673ffffffffffffffffffffffffffffffffffffffff1673ffffffffffffffffffffffffffffffffffffffff1681526020019081526020015f2081905550505b5f73ffffffffffffffffffffffffffffffffffffffff168273ffffffffffffffffffffffffffffffffffffffff16036200054c578060025f828254039250508190555062000596565b805f808473ffffffffffffffffffffffffffffffffffffffff1673ffffffffffffffffffffffffffffffffffffffff1681526020019081526020015f205f82825401925050819055505b8173ffffffffffffffffffffffffffffffffffffffff168373ffffffffffffffffffffffffffffffffffffffff167fddf252ad1be2c89b69c2b068fc378daa952ba7f163c4a11628f55a4df523b3ef83604051620005f5919062001071565b60405180910390a3505050565b5f604051905090565b5f80fd5b5f80fd5b5f73ffffffffffffffffffffffffffffffffffffffff82169050919050565b5f6200063e8262000613565b9050919050565b620006508162000632565b81146200065b575f80fd5b50565b5f815190506200066e8162000645565b92915050565b5f80fd5b5f80fd5b5f601f19601f8301169050919050565b7f4e487b71000000000000000000000000000000000000000000000000000000005f52604160045260245ffd5b620006c4826200067c565b810181811067ffffffffffffffff82111715620006e657620006e56200068c565b5b80604052505050565b5f620006fa62000602565b9050620007088282620006b9565b919050565b5f67ffffffffffffffff8211156200072a57620007296200068c565b5b62000735826200067c565b9050602081019050919050565b5f5b838110156200076157808201518184015260208101905062000744565b5f8484015250505050565b5f620007826200077c846200070d565b620006ef565b905082815260208101848484011115620007a157620007a062000678565b5b620007ae84828562000742565b509392505050565b5f82601f830112620007cd57620007cc62000674565b5b8151620007df8482602086016200076c565b91505092915050565b5f819050919050565b620007fc81620007e8565b811462000807575f80fd5b50565b5f815190506200081a81620007f1565b92915050565b5f67ffffffffffffffff8211156200083d576200083c6200068c565b5b602082029050602081019050919050565b5f80fd5b5f62000868620008628462000820565b620006ef565b905080838252602082019050602084028301858111156200088e576200088d6200084e565b5b835b81811015620008bb5780620008a688826200065e565b84526020840193505060208101905062000890565b5050509392505050565b5f82601f830112620008dc57620008db62000674565b5b8151620008ee84826020860162000852565b91505092915050565b5f67ffffffffffffffff8211156200091457620009136200068c565b5b602082029050602081019050919050565b5f6200093b6200093584620008f7565b620006ef565b905080838252602082019050602084028301858111156200096157620009606200084e565b5b835b818110156200098e57806200097988826200080a565b84526020840193505060208101905062000963565b5050509392505050565b5f82601f830112620009af57620009ae62000674565b5b8151620009c184826020860162000925565b91505092915050565b5f805f805f805f80610100898b031215620009ea57620009e96200060b565b5b5f620009f98b828c016200065e565b985050602089015167ffffffffffffffff81111562000a1d5762000a1c6200060f565b5b62000a2b8b828c01620007b6565b975050604089015167ffffffffffffffff81111562000a4f5762000a4e6200060f565b5b62000a5d8b828c01620007b6565b965050606062000a708b828c016200080a565b955050608089015167ffffffffffffffff81111562000a945762000a936200060f565b5b62000aa28b828c01620008c5565b94505060a089015167ffffffffffffffff81111562000ac65762000ac56200060f565b5b62000ad48b828c0162000998565b93505060c062000ae78b828c016200080a565b92505060e089015167ffffffffffffffff81111562000b0b5762000b0a6200060f565b5b62000b198b828c01620007b6565b9150509295985092959890939650565b5f81519050919050565b7f4e487b71000000000000000000000000000000000000000000000000000000005f52602260045260245ffd5b5f600282049050600182168062000b7857607f821691505b60208210810362000b8e5762000b8d62000b33565b5b50919050565b5f819050815f5260205f209050919050565b5f6020601f8301049050919050565b5f82821b905092915050565b5f6008830262000bf27fffffffffffffffffffffffffffffffffffffffffffffffffffffffffffffffff8262000bb5565b62000bfe868362000bb5565b95508019841693508086168417925050509392505050565b5f819050919050565b5f62000c3f62000c3962000c3384620007e8565b62000c16565b620007e8565b9050919050565b5f819050919050565b62000c5a8362000c1f565b62000c7262000c698262000c46565b84845462000bc1565b825550505050565b5f90565b62000c8862000c7a565b62000c9581848462000c4f565b505050565b5b8181101562000cbc5762000cb05f8262000c7e565b60018101905062000c9b565b5050565b601f82111562000d0b5762000cd58162000b94565b62000ce08462000ba6565b8101602085101562000cf0578190505b62000d0862000cff8562000ba6565b83018262000c9a565b50505b505050565b5f82821c905092915050565b5f62000d2d5f198460080262000d10565b1980831691505092915050565b5f62000d47838362000d1c565b9150826002028217905092915050565b62000d628262000b29565b67ffffffffffffffff81111562000d7e5762000d7d6200068c565b5b62000d8a825462000b60565b62000d9782828562000cc0565b5f60209050601f83116001811462000dcd575f841562000db8578287015190505b62000dc4858262000d3a565b86555062000e33565b601f19841662000ddd8662000b94565b5f5b8281101562000e065784890151825560018201915060208501945060208101905062000ddf565b8683101562000e26578489015162000e22601f89168262000d1c565b8355505b6001600288020188555050505b505050505050565b62000e468162000632565b82525050565b5f60208201905062000e615f83018462000e3b565b92915050565b5f82825260208201905092915050565b7f737562736372696265727320616e6420746865697220616d6f756e747320646f5f8201527f206e6f74206d6174636800000000000000000000000000000000000000000000602082015250565b5f62000ed3602a8362000e67565b915062000ee08262000e77565b604082019050919050565b5f6020820190508181035f83015262000f048162000ec5565b9050919050565b7f4e487b71000000000000000000000000000000000000000000000000000000005f52601160045260245ffd5b5f62000f4482620007e8565b915062000f5183620007e8565b925082820190508082111562000f6c5762000f6b62000f0b565b5b92915050565b7f4e487b71000000000000000000000000000000000000000000000000000000005f52603260045260245ffd5b5f62000fab82620007e8565b91507fffffffffffffffffffffffffffffffffffffffffffffffffffffffffffffffff820362000fe05762000fdf62000f0b565b5b600182019050919050565b5f62000ff782620007e8565b91506200100483620007e8565b92508282039050818111156200101f576200101e62000f0b565b5b92915050565b6200103081620007e8565b82525050565b5f6060820190506200104b5f83018662000e3b565b6200105a602083018562001025565b62001069604083018462001025565b949350505050565b5f602082019050620010865f83018462001025565b92915050565b6118b2806200109a5f395ff3fe608060405234801561000f575f80fd5b5060043610610109575f3560e01c806395d89b41116100a0578063b93a53961161006f578063b93a5396146102a7578063bd7dac92146102c3578063c0a4d64d146102e1578063dd62ed3e146102ff578063f2fde38b1461032f57610109565b806395d89b411461021f5780639f3adb0e1461023d578063a9059cbb1461025b578063ae84827a1461028b57610109565b8063313ce567116100dc578063313ce567146101a957806370a08231146101c7578063715018a6146101f75780638da5cb5b1461020157610109565b806306fdde031461010d578063095ea7b31461012b57806318160ddd1461015b57806323b872dd14610179575b5f80fd5b61011561034b565b6040516101229190611239565b60405180910390f35b610145600480360381019061014091906112ea565b6103db565b6040516101529190611342565b60405180910390f35b6101636103fd565b604051610170919061136a565b60405180910390f35b610193600480360381019061018e9190611383565b610406565b6040516101a09190611342565b60405180910390f35b6101b161055e565b6040516101be91906113ee565b60405180910390f35b6101e160048036038101906101dc9190611407565b610562565b6040516101ee919061136a565b60405180910390f35b6101ff6105a7565b005b6102096105ba565b6040516102169190611441565b60405180910390f35b6102276105e2565b6040516102349190611239565b60405180910390f35b610245610672565b604051610252919061136a565b60405180910390f35b610275600480360381019061027091906112ea565b610678565b6040516102829190611342565b60405180910390f35b6102a560048036038101906102a091906112ea565b6107c9565b005b6102c160048036038101906102bc91906112ea565b6107df565b005b6102cb6107f5565b6040516102d89190611239565b60405180910390f35b6102e9610885565b6040516102f6919061136a565b60405180910390f35b6103196004803603810190610314919061145a565b61088e565b604051610326919061136a565b60405180910390f35b61034960048036038101906103449190611407565b610910565b005b60606003805461035a906114c5565b80601f0160208091040260200160405190810160405280929190818152602001828054610386906114c5565b80156103d15780601f106103a8576101008083540402835291602001916103d1565b820191905f5260205f20905b8154815290600101906020018083116103b457829003601f168201915b5050505050905090565b5f806103e5610994565b90506103f281858561099b565b600191505092915050565b5f600254905090565b5f61040f6105ba565b73ffffffffffffffffffffffffffffffffffffffff168473ffffffffffffffffffffffffffffffffffffffff160361048b57600954421015610486576040517f08c379a000000000000000000000000000000000000000000000000000000000815260040161047d9061153f565b60405180910390fd5b6104d1565b6008544210156104d0576040517f08c379a00000000000000000000000000000000000000000000000000000000081526004016104c7906115a7565b60405180910390fd5b5b5f826104dc85610562565b6104e691906115f2565b905060646104f26103fd565b60146104fe9190611625565b6105089190611693565b8110610549576040517f08c379a000000000000000000000000000000000000000000000000000000000815260040161054090611733565b60405180910390fd5b6105548585856109ad565b9150509392505050565b5f90565b5f805f8373ffffffffffffffffffffffffffffffffffffffff1673ffffffffffffffffffffffffffffffffffffffff1681526020019081526020015f20549050919050565b6105af6109db565b6105b85f610a62565b565b5f60055f9054906101000a900473ffffffffffffffffffffffffffffffffffffffff16905090565b6060600480546105f1906114c5565b80601f016020809104026020016040519081016040528092919081815260200182805461061d906114c5565b80156106685780601f1061063f57610100808354040283529160200191610668565b820191905f5260205f20905b81548152906001019060200180831161064b57829003601f168201915b5050505050905090565b60095481565b5f6106816105ba565b73ffffffffffffffffffffffffffffffffffffffff163373ffffffffffffffffffffffffffffffffffffffff16036106f9576009544210156106f8576040517f08c379a00000000000000000000000000000000000000000000000000000000081526004016106ef906117c1565b60405180910390fd5b5b60085442101561073e576040517f08c379a000000000000000000000000000000000000000000000000000000000815260040161073590611829565b60405180910390fd5b5f8261074985610562565b61075391906115f2565b9050606461075f6103fd565b601461076b9190611625565b6107759190611693565b81106107b6576040517f08c379a00000000000000000000000000000000000000000000000000000000081526004016107ad90611733565b60405180910390fd5b6107c08484610b25565b91505092915050565b6107d16109db565b6107db8282610b47565b5050565b6107e76109db565b6107f18282610bc6565b5050565b6060600a8054610804906114c5565b80601f0160208091040260200160405190810160405280929190818152602001828054610830906114c5565b801561087b5780601f106108525761010080835404028352916020019161087b565b820191905f5260205f20905b81548152906001019060200180831161085e57829003601f168201915b5050505050905090565b5f600854905090565b5f60015f8473ffffffffffffffffffffffffffffffffffffffff1673ffffffffffffffffffffffffffffffffffffffff1681526020019081526020015f205f8373ffffffffffffffffffffffffffffffffffffffff1673ffffffffffffffffffffffffffffffffffffffff1681526020019081526020015f2054905092915050565b6109186109db565b5f73ffffffffffffffffffffffffffffffffffffffff168173ffffffffffffffffffffffffffffffffffffffff1603610988575f6040517f1e4fbdf700000000000000000000000000000000000000000000000000000000815260040161097f9190611441565b60405180910390fd5b61099181610a62565b50565b5f33905090565b6109a88383836001610c45565b505050565b5f806109b7610994565b90506109c4858285610e14565b6109cf858585610ea6565b60019150509392505050565b6109e3610994565b73ffffffffffffffffffffffffffffffffffffffff16610a016105ba565b73ffffffffffffffffffffffffffffffffffffffff1614610a6057610a24610994565b6040517f118cdaa7000000000000000000000000000000000000000000000000000000008152600401610a579190611441565b60405180910390fd5b565b5f60055f9054906101000a900473ffffffffffffffffffffffffffffffffffffffff1690508160055f6101000a81548173ffffffffffffffffffffffffffffffffffffffff021916908373ffffffffffffffffffffffffffffffffffffffff1602179055508173ffffffffffffffffffffffffffffffffffffffff168173ffffffffffffffffffffffffffffffffffffffff167f8be0079c531659141344cd1fd0a4f28419497f9722a3daafe3b4186f6b6457e060405160405180910390a35050565b5f80610b2f610994565b9050610b3c818585610ea6565b600191505092915050565b5f73ffffffffffffffffffffffffffffffffffffffff168273ffffffffffffffffffffffffffffffffffffffff1603610bb7575f6040517f96c6fd1e000000000000000000000000000000000000000000000000000000008152600401610bae9190611441565b60405180910390fd5b610bc2825f83610f96565b5050565b5f73ffffffffffffffffffffffffffffffffffffffff168273ffffffffffffffffffffffffffffffffffffffff1603610c36575f6040517fec442f05000000000000000000000000000000000000000000000000000000008152600401610c2d9190611441565b60405180910390fd5b610c415f8383610f96565b5050565b5f73ffffffffffffffffffffffffffffffffffffffff168473ffffffffffffffffffffffffffffffffffffffff1603610cb5575f6040517fe602df05000000000000000000000000000000000000000000000000000000008152600401610cac9190611441565b60405180910390fd5b5f73ffffffffffffffffffffffffffffffffffffffff168373ffffffffffffffffffffffffffffffffffffffff1603610d25575f6040517f94280d62000000000000000000000000000000000000000000000000000000008152600401610d1c9190611441565b60405180910390fd5b8160015f8673ffffffffffffffffffffffffffffffffffffffff1673ffffffffffffffffffffffffffffffffffffffff1681526020019081526020015f205f8573ffffffffffffffffffffffffffffffffffffffff1673ffffffffffffffffffffffffffffffffffffffff1681526020019081526020015f20819055508015610e0e578273ffffffffffffffffffffffffffffffffffffffff168473ffffffffffffffffffffffffffffffffffffffff167f8c5be1e5ebec7d5bd14f71427d1e84f3dd0314c0f7b2291e5b200ac8c7c3b92584604051610e05919061136a565b60405180910390a35b50505050565b5f610e1f848461088e565b90507fffffffffffffffffffffffffffffffffffffffffffffffffffffffffffffffff8114610ea05781811015610e91578281836040517ffb8f41b2000000000000000000000000000000000000000000000000000000008152600401610e8893929190611847565b60405180910390fd5b610e9f84848484035f610c45565b5b50505050565b5f73ffffffffffffffffffffffffffffffffffffffff168373ffffffffffffffffffffffffffffffffffffffff1603610f16575f6040517f96c6fd1e000000000000000000000000000000000000000000000000000000008152600401610f0d9190611441565b60405180910390fd5b5f73ffffffffffffffffffffffffffffffffffffffff168273ffffffffffffffffffffffffffffffffffffffff1603610f86575f6040517fec442f05000000000000000000000000000000000000000000000000000000008152600401610f7d9190611441565b60405180910390fd5b610f91838383610f96565b505050565b5f73ffffffffffffffffffffffffffffffffffffffff168373ffffffffffffffffffffffffffffffffffffffff1603610fe6578060025f828254610fda91906115f2565b925050819055506110b4565b5f805f8573ffffffffffffffffffffffffffffffffffffffff1673ffffffffffffffffffffffffffffffffffffffff1681526020019081526020015f205490508181101561106f578381836040517fe450d38c00000000000000000000000000000000000000000000000000000000815260040161106693929190611847565b60405180910390fd5b8181035f808673ffffffffffffffffffffffffffffffffffffffff1673ffffffffffffffffffffffffffffffffffffffff1681526020019081526020015f2081905550505b5f73ffffffffffffffffffffffffffffffffffffffff168273ffffffffffffffffffffffffffffffffffffffff16036110fb578060025f8282540392505081905550611145565b805f808473ffffffffffffffffffffffffffffffffffffffff1673ffffffffffffffffffffffffffffffffffffffff1681526020019081526020015f205f82825401925050819055505b8173ffffffffffffffffffffffffffffffffffffffff168373ffffffffffffffffffffffffffffffffffffffff167fddf252ad1be2c89b69c2b068fc378daa952ba7f163c4a11628f55a4df523b3ef836040516111a2919061136a565b60405180910390a3505050565b5f81519050919050565b5f82825260208201905092915050565b5f5b838110156111e65780820151818401526020810190506111cb565b5f8484015250505050565b5f601f19601f8301169050919050565b5f61120b826111af565b61121581856111b9565b93506112258185602086016111c9565b61122e816111f1565b840191505092915050565b5f6020820190508181035f8301526112518184611201565b905092915050565b5f80fd5b5f73ffffffffffffffffffffffffffffffffffffffff82169050919050565b5f6112868261125d565b9050919050565b6112968161127c565b81146112a0575f80fd5b50565b5f813590506112b18161128d565b92915050565b5f819050919050565b6112c9816112b7565b81146112d3575f80fd5b50565b5f813590506112e4816112c0565b92915050565b5f8060408385031215611300576112ff611259565b5b5f61130d858286016112a3565b925050602061131e858286016112d6565b9150509250929050565b5f8115159050919050565b61133c81611328565b82525050565b5f6020820190506113555f830184611333565b92915050565b611364816112b7565b82525050565b5f60208201905061137d5f83018461135b565b92915050565b5f805f6060848603121561139a57611399611259565b5b5f6113a7868287016112a3565b93505060206113b8868287016112a3565b92505060406113c9868287016112d6565b9150509250925092565b5f60ff82169050919050565b6113e8816113d3565b82525050565b5f6020820190506114015f8301846113df565b92915050565b5f6020828403121561141c5761141b611259565b5b5f611429848285016112a3565b91505092915050565b61143b8161127c565b82525050565b5f6020820190506114545f830184611432565b92915050565b5f80604083850312156114705761146f611259565b5b5f61147d858286016112a3565b925050602061148e858286016112a3565b9150509250929050565b7f4e487b71000000000000000000000000000000000000000000000000000000005f52602260045260245ffd5b5f60028204905060018216806114dc57607f821691505b6020821081036114ef576114ee611498565b5b50919050565b7f41646d696e277320746f6b656e7320617265206c6f636b6564000000000000005f82015250565b5f6115296019836111b9565b9150611534826114f5565b602082019050919050565b5f6020820190508181035f8301526115568161151d565b9050919050565b7f546f6b656e7320617265206c6f636b65640000000000000000000000000000005f82015250565b5f6115916011836111b9565b915061159c8261155d565b602082019050919050565b5f6020820190508181035f8301526115be81611585565b9050919050565b7f4e487b71000000000000000000000000000000000000000000000000000000005f52601160045260245ffd5b5f6115fc826112b7565b9150611607836112b7565b925082820190508082111561161f5761161e6115c5565b5b92915050565b5f61162f826112b7565b915061163a836112b7565b9250828202611648816112b7565b9150828204841483151761165f5761165e6115c5565b5b5092915050565b7f4e487b71000000000000000000000000000000000000000000000000000000005f52601260045260245ffd5b5f61169d826112b7565b91506116a8836112b7565b9250826116b8576116b7611666565b5b828204905092915050565b7f4f776e657273686970206361707065642061742032302520746f20656e7375725f8201527f6520646563656e7472616c697a6174696f6e0000000000000000000000000000602082015250565b5f61171d6032836111b9565b9150611728826116c3565b604082019050919050565b5f6020820190508181035f83015261174a81611711565b9050919050565b7f61646d696e277320746f6b656e7320617265206c6f636b656420666f7220616e5f8201527f2079656172000000000000000000000000000000000000000000000000000000602082015250565b5f6117ab6025836111b9565b91506117b682611751565b604082019050919050565b5f6020820190508181035f8301526117d88161179f565b9050919050565b7f6e6f7420666f722073616c6520796574000000000000000000000000000000005f82015250565b5f6118136010836111b9565b915061181e826117df565b602082019050919050565b5f6020820190508181035f83015261184081611807565b9050919050565b5f60608201905061185a5f830186611432565b611867602083018561135b565b611874604083018461135b565b94935050505056fea26469706673582212206db3e6e5d6cd499890225b2505d93d1539cb9f671886dd8b12c8b7464eb9dae664736f6c63430008140033",
			"opcodes": "PUSH1 0x80 PUSH1 0x40 MSTORE CALLVALUE DUP1 ISZERO PUSH3 0x10 JUMPI PUSH0 DUP1 REVERT JUMPDEST POP PUSH1 0x40 MLOAD PUSH3 0x294C CODESIZE SUB DUP1 PUSH3 0x294C DUP4 CODECOPY DUP2 DUP2 ADD PUSH1 0x40 MSTORE DUP2 ADD SWAP1 PUSH3 0x36 SWAP2 SWAP1 PUSH3 0x9CA JUMP JUMPDEST DUP8 DUP8 DUP8 DUP2 PUSH1 0x3 SWAP1 DUP2 PUSH3 0x4A SWAP2 SWAP1 PUSH3 0xD57 JUMP JUMPDEST POP DUP1 PUSH1 0x4 SWAP1 DUP2 PUSH3 0x5C SWAP2 SWAP1 PUSH3 0xD57 JUMP JUMPDEST POP POP POP PUSH0 PUSH20 0xFFFFFFFFFFFFFFFFFFFFFFFFFFFFFFFFFFFFFFFF AND DUP2 PUSH20 0xFFFFFFFFFFFFFFFFFFFFFFFFFFFFFFFFFFFFFFFF AND SUB PUSH3 0xD2 JUMPI PUSH0 PUSH1 0x40 MLOAD PUSH32 0x1E4FBDF700000000000000000000000000000000000000000000000000000000 DUP2 MSTORE PUSH1 0x4 ADD PUSH3 0xC9 SWAP2 SWAP1 PUSH3 0xE4C JUMP JUMPDEST PUSH1 0x40 MLOAD DUP1 SWAP2 SUB SWAP1 REVERT JUMPDEST PUSH3 0xE3 DUP2 PUSH3 0x291 PUSH1 0x20 SHL PUSH1 0x20 SHR JUMP JUMPDEST POP DUP3 MLOAD DUP5 MLOAD EQ PUSH3 0x12B JUMPI PUSH1 0x40 MLOAD PUSH32 0x8C379A000000000000000000000000000000000000000000000000000000000 DUP2 MSTORE PUSH1 0x4 ADD PUSH3 0x122 SWAP1 PUSH3 0xEEB JUMP JUMPDEST PUSH1 0x40 MLOAD DUP1 SWAP2 SUB SWAP1 REVERT JUMPDEST DUP5 PUSH1 0x7 DUP2 SWAP1 SSTORE POP DUP2 TIMESTAMP PUSH3 0x140 SWAP2 SWAP1 PUSH3 0xF38 JUMP JUMPDEST PUSH1 0x8 DUP2 SWAP1 SSTORE POP DUP1 PUSH1 0xA SWAP1 DUP2 PUSH3 0x157 SWAP2 SWAP1 PUSH3 0xD57 JUMP JUMPDEST POP PUSH0 JUMPDEST DUP5 MLOAD DUP2 LT ISZERO PUSH3 0x238 JUMPI PUSH1 0x7 SLOAD PUSH1 0x6 SLOAD DUP6 DUP4 DUP2 MLOAD DUP2 LT PUSH3 0x180 JUMPI PUSH3 0x17F PUSH3 0xF72 JUMP JUMPDEST JUMPDEST PUSH1 0x20 MUL PUSH1 0x20 ADD ADD MLOAD PUSH3 0x194 SWAP2 SWAP1 PUSH3 0xF38 JUMP JUMPDEST GT ISZERO PUSH3 0x19F JUMPI PUSH0 DUP1 REVERT JUMPDEST PUSH3 0x1EB DUP6 DUP3 DUP2 MLOAD DUP2 LT PUSH3 0x1B9 JUMPI PUSH3 0x1B8 PUSH3 0xF72 JUMP JUMPDEST JUMPDEST PUSH1 0x20 MUL PUSH1 0x20 ADD ADD MLOAD DUP6 DUP4 DUP2 MLOAD DUP2 LT PUSH3 0x1D7 JUMPI PUSH3 0x1D6 PUSH3 0xF72 JUMP JUMPDEST JUMPDEST PUSH1 0x20 MUL PUSH1 0x20 ADD ADD MLOAD PUSH3 0x354 PUSH1 0x20 SHL PUSH1 0x20 SHR JUMP JUMPDEST DUP4 DUP2 DUP2 MLOAD DUP2 LT PUSH3 0x201 JUMPI PUSH3 0x200 PUSH3 0xF72 JUMP JUMPDEST JUMPDEST PUSH1 0x20 MUL PUSH1 0x20 ADD ADD MLOAD PUSH1 0x6 PUSH0 DUP3 DUP3 SLOAD PUSH3 0x21B SWAP2 SWAP1 PUSH3 0xF38 JUMP JUMPDEST SWAP3 POP POP DUP2 SWAP1 SSTORE POP DUP1 DUP1 PUSH3 0x22F SWAP1 PUSH3 0xF9F JUMP JUMPDEST SWAP2 POP POP PUSH3 0x15A JUMP JUMPDEST POP PUSH0 PUSH1 0x6 SLOAD PUSH1 0x7 SLOAD PUSH3 0x24C SWAP2 SWAP1 PUSH3 0xFEB JUMP JUMPDEST SWAP1 POP PUSH0 DUP2 GT ISZERO PUSH3 0x282 JUMPI PUSH3 0x269 DUP10 DUP3 PUSH3 0x354 PUSH1 0x20 SHL PUSH1 0x20 SHR JUMP JUMPDEST PUSH4 0x1E13380 TIMESTAMP PUSH3 0x27B SWAP2 SWAP1 PUSH3 0xF38 JUMP JUMPDEST PUSH1 0x9 DUP2 SWAP1 SSTORE POP JUMPDEST POP POP POP POP POP POP POP POP POP PUSH3 0x108C JUMP JUMPDEST PUSH0 PUSH1 0x5 PUSH0 SWAP1 SLOAD SWAP1 PUSH2 0x100 EXP SWAP1 DIV PUSH20 0xFFFFFFFFFFFFFFFFFFFFFFFFFFFFFFFFFFFFFFFF AND SWAP1 POP DUP2 PUSH1 0x5 PUSH0 PUSH2 0x100 EXP DUP2 SLOAD DUP2 PUSH20 0xFFFFFFFFFFFFFFFFFFFFFFFFFFFFFFFFFFFFFFFF MUL NOT AND SWAP1 DUP4 PUSH20 0xFFFFFFFFFFFFFFFFFFFFFFFFFFFFFFFFFFFFFFFF AND MUL OR SWAP1 SSTORE POP DUP2 PUSH20 0xFFFFFFFFFFFFFFFFFFFFFFFFFFFFFFFFFFFFFFFF AND DUP2 PUSH20 0xFFFFFFFFFFFFFFFFFFFFFFFFFFFFFFFFFFFFFFFF AND PUSH32 0x8BE0079C531659141344CD1FD0A4F28419497F9722A3DAAFE3B4186F6B6457E0 PUSH1 0x40 MLOAD PUSH1 0x40 MLOAD DUP1 SWAP2 SUB SWAP1 LOG3 POP POP JUMP JUMPDEST PUSH0 PUSH20 0xFFFFFFFFFFFFFFFFFFFFFFFFFFFFFFFFFFFFFFFF AND DUP3 PUSH20 0xFFFFFFFFFFFFFFFFFFFFFFFFFFFFFFFFFFFFFFFF AND SUB PUSH3 0x3C7 JUMPI PUSH0 PUSH1 0x40 MLOAD PUSH32 0xEC442F0500000000000000000000000000000000000000000000000000000000 DUP2 MSTORE PUSH1 0x4 ADD PUSH3 0x3BE SWAP2 SWAP1 PUSH3 0xE4C JUMP JUMPDEST PUSH1 0x40 MLOAD DUP1 SWAP2 SUB SWAP1 REVERT JUMPDEST PUSH3 0x3DA PUSH0 DUP4 DUP4 PUSH3 0x3DE PUSH1 0x20 SHL PUSH1 0x20 SHR JUMP JUMPDEST POP POP JUMP JUMPDEST PUSH0 PUSH20 0xFFFFFFFFFFFFFFFFFFFFFFFFFFFFFFFFFFFFFFFF AND DUP4 PUSH20 0xFFFFFFFFFFFFFFFFFFFFFFFFFFFFFFFFFFFFFFFF AND SUB PUSH3 0x432 JUMPI DUP1 PUSH1 0x2 PUSH0 DUP3 DUP3 SLOAD PUSH3 0x425 SWAP2 SWAP1 PUSH3 0xF38 JUMP JUMPDEST SWAP3 POP POP DUP2 SWAP1 SSTORE POP PUSH3 0x503 JUMP JUMPDEST PUSH0 DUP1 PUSH0 DUP6 PUSH20 0xFFFFFFFFFFFFFFFFFFFFFFFFFFFFFFFFFFFFFFFF AND PUSH20 0xFFFFFFFFFFFFFFFFFFFFFFFFFFFFFFFFFFFFFFFF AND DUP2 MSTORE PUSH1 0x20 ADD SWAP1 DUP2 MSTORE PUSH1 0x20 ADD PUSH0 KECCAK256 SLOAD SWAP1 POP DUP2 DUP2 LT ISZERO PUSH3 0x4BE JUMPI DUP4 DUP2 DUP4 PUSH1 0x40 MLOAD PUSH32 0xE450D38C00000000000000000000000000000000000000000000000000000000 DUP2 MSTORE PUSH1 0x4 ADD PUSH3 0x4B5 SWAP4 SWAP3 SWAP2 SWAP1 PUSH3 0x1036 JUMP JUMPDEST PUSH1 0x40 MLOAD DUP1 SWAP2 SUB SWAP1 REVERT JUMPDEST DUP2 DUP2 SUB PUSH0 DUP1 DUP7 PUSH20 0xFFFFFFFFFFFFFFFFFFFFFFFFFFFFFFFFFFFFFFFF AND PUSH20 0xFFFFFFFFFFFFFFFFFFFFFFFFFFFFFFFFFFFFFFFF AND DUP2 MSTORE PUSH1 0x20 ADD SWAP1 DUP2 MSTORE PUSH1 0x20 ADD PUSH0 KECCAK256 DUP2 SWAP1 SSTORE POP POP JUMPDEST PUSH0 PUSH20 0xFFFFFFFFFFFFFFFFFFFFFFFFFFFFFFFFFFFFFFFF AND DUP3 PUSH20 0xFFFFFFFFFFFFFFFFFFFFFFFFFFFFFFFFFFFFFFFF AND SUB PUSH3 0x54C JUMPI DUP1 PUSH1 0x2 PUSH0 DUP3 DUP3 SLOAD SUB SWAP3 POP POP DUP2 SWAP1 SSTORE POP PUSH3 0x596 JUMP JUMPDEST DUP1 PUSH0 DUP1 DUP5 PUSH20 0xFFFFFFFFFFFFFFFFFFFFFFFFFFFFFFFFFFFFFFFF AND PUSH20 0xFFFFFFFFFFFFFFFFFFFFFFFFFFFFFFFFFFFFFFFF AND DUP2 MSTORE PUSH1 0x20 ADD SWAP1 DUP2 MSTORE PUSH1 0x20 ADD PUSH0 KECCAK256 PUSH0 DUP3 DUP3 SLOAD ADD SWAP3 POP POP DUP2 SWAP1 SSTORE POP JUMPDEST DUP2 PUSH20 0xFFFFFFFFFFFFFFFFFFFFFFFFFFFFFFFFFFFFFFFF AND DUP4 PUSH20 0xFFFFFFFFFFFFFFFFFFFFFFFFFFFFFFFFFFFFFFFF AND PUSH32 0xDDF252AD1BE2C89B69C2B068FC378DAA952BA7F163C4A11628F55A4DF523B3EF DUP4 PUSH1 0x40 MLOAD PUSH3 0x5F5 SWAP2 SWAP1 PUSH3 0x1071 JUMP JUMPDEST PUSH1 0x40 MLOAD DUP1 SWAP2 SUB SWAP1 LOG3 POP POP POP JUMP JUMPDEST PUSH0 PUSH1 0x40 MLOAD SWAP1 POP SWAP1 JUMP JUMPDEST PUSH0 DUP1 REVERT JUMPDEST PUSH0 DUP1 REVERT JUMPDEST PUSH0 PUSH20 0xFFFFFFFFFFFFFFFFFFFFFFFFFFFFFFFFFFFFFFFF DUP3 AND SWAP1 POP SWAP2 SWAP1 POP JUMP JUMPDEST PUSH0 PUSH3 0x63E DUP3 PUSH3 0x613 JUMP JUMPDEST SWAP1 POP SWAP2 SWAP1 POP JUMP JUMPDEST PUSH3 0x650 DUP2 PUSH3 0x632 JUMP JUMPDEST DUP2 EQ PUSH3 0x65B JUMPI PUSH0 DUP1 REVERT JUMPDEST POP JUMP JUMPDEST PUSH0 DUP2 MLOAD SWAP1 POP PUSH3 0x66E DUP2 PUSH3 0x645 JUMP JUMPDEST SWAP3 SWAP2 POP POP JUMP JUMPDEST PUSH0 DUP1 REVERT JUMPDEST PUSH0 DUP1 REVERT JUMPDEST PUSH0 PUSH1 0x1F NOT PUSH1 0x1F DUP4 ADD AND SWAP1 POP SWAP2 SWAP1 POP JUMP JUMPDEST PUSH32 0x4E487B7100000000000000000000000000000000000000000000000000000000 PUSH0 MSTORE PUSH1 0x41 PUSH1 0x4 MSTORE PUSH1 0x24 PUSH0 REVERT JUMPDEST PUSH3 0x6C4 DUP3 PUSH3 0x67C JUMP JUMPDEST DUP2 ADD DUP2 DUP2 LT PUSH8 0xFFFFFFFFFFFFFFFF DUP3 GT OR ISZERO PUSH3 0x6E6 JUMPI PUSH3 0x6E5 PUSH3 0x68C JUMP JUMPDEST JUMPDEST DUP1 PUSH1 0x40 MSTORE POP POP POP JUMP JUMPDEST PUSH0 PUSH3 0x6FA PUSH3 0x602 JUMP JUMPDEST SWAP1 POP PUSH3 0x708 DUP3 DUP3 PUSH3 0x6B9 JUMP JUMPDEST SWAP2 SWAP1 POP JUMP JUMPDEST PUSH0 PUSH8 0xFFFFFFFFFFFFFFFF DUP3 GT ISZERO PUSH3 0x72A JUMPI PUSH3 0x729 PUSH3 0x68C JUMP JUMPDEST JUMPDEST PUSH3 0x735 DUP3 PUSH3 0x67C JUMP JUMPDEST SWAP1 POP PUSH1 0x20 DUP2 ADD SWAP1 POP SWAP2 SWAP1 POP JUMP JUMPDEST PUSH0 JUMPDEST DUP4 DUP2 LT ISZERO PUSH3 0x761 JUMPI DUP1 DUP3 ADD MLOAD DUP2 DUP5 ADD MSTORE PUSH1 0x20 DUP2 ADD SWAP1 POP PUSH3 0x744 JUMP JUMPDEST PUSH0 DUP5 DUP5 ADD MSTORE POP POP POP POP JUMP JUMPDEST PUSH0 PUSH3 0x782 PUSH3 0x77C DUP5 PUSH3 0x70D JUMP JUMPDEST PUSH3 0x6EF JUMP JUMPDEST SWAP1 POP DUP3 DUP2 MSTORE PUSH1 0x20 DUP2 ADD DUP5 DUP5 DUP5 ADD GT ISZERO PUSH3 0x7A1 JUMPI PUSH3 0x7A0 PUSH3 0x678 JUMP JUMPDEST JUMPDEST PUSH3 0x7AE DUP5 DUP3 DUP6 PUSH3 0x742 JUMP JUMPDEST POP SWAP4 SWAP3 POP POP POP JUMP JUMPDEST PUSH0 DUP3 PUSH1 0x1F DUP4 ADD SLT PUSH3 0x7CD JUMPI PUSH3 0x7CC PUSH3 0x674 JUMP JUMPDEST JUMPDEST DUP2 MLOAD PUSH3 0x7DF DUP5 DUP3 PUSH1 0x20 DUP7 ADD PUSH3 0x76C JUMP JUMPDEST SWAP2 POP POP SWAP3 SWAP2 POP POP JUMP JUMPDEST PUSH0 DUP2 SWAP1 POP SWAP2 SWAP1 POP JUMP JUMPDEST PUSH3 0x7FC DUP2 PUSH3 0x7E8 JUMP JUMPDEST DUP2 EQ PUSH3 0x807 JUMPI PUSH0 DUP1 REVERT JUMPDEST POP JUMP JUMPDEST PUSH0 DUP2 MLOAD SWAP1 POP PUSH3 0x81A DUP2 PUSH3 0x7F1 JUMP JUMPDEST SWAP3 SWAP2 POP POP JUMP JUMPDEST PUSH0 PUSH8 0xFFFFFFFFFFFFFFFF DUP3 GT ISZERO PUSH3 0x83D JUMPI PUSH3 0x83C PUSH3 0x68C JUMP JUMPDEST JUMPDEST PUSH1 0x20 DUP3 MUL SWAP1 POP PUSH1 0x20 DUP2 ADD SWAP1 POP SWAP2 SWAP1 POP JUMP JUMPDEST PUSH0 DUP1 REVERT JUMPDEST PUSH0 PUSH3 0x868 PUSH3 0x862 DUP5 PUSH3 0x820 JUMP JUMPDEST PUSH3 0x6EF JUMP JUMPDEST SWAP1 POP DUP1 DUP4 DUP3 MSTORE PUSH1 0x20 DUP3 ADD SWAP1 POP PUSH1 0x20 DUP5 MUL DUP4 ADD DUP6 DUP2 GT ISZERO PUSH3 0x88E JUMPI PUSH3 0x88D PUSH3 0x84E JUMP JUMPDEST JUMPDEST DUP4 JUMPDEST DUP2 DUP2 LT ISZERO PUSH3 0x8BB JUMPI DUP1 PUSH3 0x8A6 DUP9 DUP3 PUSH3 0x65E JUMP JUMPDEST DUP5 MSTORE PUSH1 0x20 DUP5 ADD SWAP4 POP POP PUSH1 0x20 DUP2 ADD SWAP1 POP PUSH3 0x890 JUMP JUMPDEST POP POP POP SWAP4 SWAP3 POP POP POP JUMP JUMPDEST PUSH0 DUP3 PUSH1 0x1F DUP4 ADD SLT PUSH3 0x8DC JUMPI PUSH3 0x8DB PUSH3 0x674 JUMP JUMPDEST JUMPDEST DUP2 MLOAD PUSH3 0x8EE DUP5 DUP3 PUSH1 0x20 DUP7 ADD PUSH3 0x852 JUMP JUMPDEST SWAP2 POP POP SWAP3 SWAP2 POP POP JUMP JUMPDEST PUSH0 PUSH8 0xFFFFFFFFFFFFFFFF DUP3 GT ISZERO PUSH3 0x914 JUMPI PUSH3 0x913 PUSH3 0x68C JUMP JUMPDEST JUMPDEST PUSH1 0x20 DUP3 MUL SWAP1 POP PUSH1 0x20 DUP2 ADD SWAP1 POP SWAP2 SWAP1 POP JUMP JUMPDEST PUSH0 PUSH3 0x93B PUSH3 0x935 DUP5 PUSH3 0x8F7 JUMP JUMPDEST PUSH3 0x6EF JUMP JUMPDEST SWAP1 POP DUP1 DUP4 DUP3 MSTORE PUSH1 0x20 DUP3 ADD SWAP1 POP PUSH1 0x20 DUP5 MUL DUP4 ADD DUP6 DUP2 GT ISZERO PUSH3 0x961 JUMPI PUSH3 0x960 PUSH3 0x84E JUMP JUMPDEST JUMPDEST DUP4 JUMPDEST DUP2 DUP2 LT ISZERO PUSH3 0x98E JUMPI DUP1 PUSH3 0x979 DUP9 DUP3 PUSH3 0x80A JUMP JUMPDEST DUP5 MSTORE PUSH1 0x20 DUP5 ADD SWAP4 POP POP PUSH1 0x20 DUP2 ADD SWAP1 POP PUSH3 0x963 JUMP JUMPDEST POP POP POP SWAP4 SWAP3 POP POP POP JUMP JUMPDEST PUSH0 DUP3 PUSH1 0x1F DUP4 ADD SLT PUSH3 0x9AF JUMPI PUSH3 0x9AE PUSH3 0x674 JUMP JUMPDEST JUMPDEST DUP2 MLOAD PUSH3 0x9C1 DUP5 DUP3 PUSH1 0x20 DUP7 ADD PUSH3 0x925 JUMP JUMPDEST SWAP2 POP POP SWAP3 SWAP2 POP POP JUMP JUMPDEST PUSH0 DUP1 PUSH0 DUP1 PUSH0 DUP1 PUSH0 DUP1 PUSH2 0x100 DUP10 DUP12 SUB SLT ISZERO PUSH3 0x9EA JUMPI PUSH3 0x9E9 PUSH3 0x60B JUMP JUMPDEST JUMPDEST PUSH0 PUSH3 0x9F9 DUP12 DUP3 DUP13 ADD PUSH3 0x65E JUMP JUMPDEST SWAP9 POP POP PUSH1 0x20 DUP10 ADD MLOAD PUSH8 0xFFFFFFFFFFFFFFFF DUP2 GT ISZERO PUSH3 0xA1D JUMPI PUSH3 0xA1C PUSH3 0x60F JUMP JUMPDEST JUMPDEST PUSH3 0xA2B DUP12 DUP3 DUP13 ADD PUSH3 0x7B6 JUMP JUMPDEST SWAP8 POP POP PUSH1 0x40 DUP10 ADD MLOAD PUSH8 0xFFFFFFFFFFFFFFFF DUP2 GT ISZERO PUSH3 0xA4F JUMPI PUSH3 0xA4E PUSH3 0x60F JUMP JUMPDEST JUMPDEST PUSH3 0xA5D DUP12 DUP3 DUP13 ADD PUSH3 0x7B6 JUMP JUMPDEST SWAP7 POP POP PUSH1 0x60 PUSH3 0xA70 DUP12 DUP3 DUP13 ADD PUSH3 0x80A JUMP JUMPDEST SWAP6 POP POP PUSH1 0x80 DUP10 ADD MLOAD PUSH8 0xFFFFFFFFFFFFFFFF DUP2 GT ISZERO PUSH3 0xA94 JUMPI PUSH3 0xA93 PUSH3 0x60F JUMP JUMPDEST JUMPDEST PUSH3 0xAA2 DUP12 DUP3 DUP13 ADD PUSH3 0x8C5 JUMP JUMPDEST SWAP5 POP POP PUSH1 0xA0 DUP10 ADD MLOAD PUSH8 0xFFFFFFFFFFFFFFFF DUP2 GT ISZERO PUSH3 0xAC6 JUMPI PUSH3 0xAC5 PUSH3 0x60F JUMP JUMPDEST JUMPDEST PUSH3 0xAD4 DUP12 DUP3 DUP13 ADD PUSH3 0x998 JUMP JUMPDEST SWAP4 POP POP PUSH1 0xC0 PUSH3 0xAE7 DUP12 DUP3 DUP13 ADD PUSH3 0x80A JUMP JUMPDEST SWAP3 POP POP PUSH1 0xE0 DUP10 ADD MLOAD PUSH8 0xFFFFFFFFFFFFFFFF DUP2 GT ISZERO PUSH3 0xB0B JUMPI PUSH3 0xB0A PUSH3 0x60F JUMP JUMPDEST JUMPDEST PUSH3 0xB19 DUP12 DUP3 DUP13 ADD PUSH3 0x7B6 JUMP JUMPDEST SWAP2 POP POP SWAP3 SWAP6 SWAP9 POP SWAP3 SWAP6 SWAP9 SWAP1 SWAP4 SWAP7 POP JUMP JUMPDEST PUSH0 DUP2 MLOAD SWAP1 POP SWAP2 SWAP1 POP JUMP JUMPDEST PUSH32 0x4E487B7100000000000000000000000000000000000000000000000000000000 PUSH0 MSTORE PUSH1 0x22 PUSH1 0x4 MSTORE PUSH1 0x24 PUSH0 REVERT JUMPDEST PUSH0 PUSH1 0x2 DUP3 DIV SWAP1 POP PUSH1 0x1 DUP3 AND DUP1 PUSH3 0xB78 JUMPI PUSH1 0x7F DUP3 AND SWAP2 POP JUMPDEST PUSH1 0x20 DUP3 LT DUP2 SUB PUSH3 0xB8E JUMPI PUSH3 0xB8D PUSH3 0xB33 JUMP JUMPDEST JUMPDEST POP SWAP2 SWAP1 POP JUMP JUMPDEST PUSH0 DUP2 SWAP1 POP DUP2 PUSH0 MSTORE PUSH1 0x20 PUSH0 KECCAK256 SWAP1 POP SWAP2 SWAP1 POP JUMP JUMPDEST PUSH0 PUSH1 0x20 PUSH1 0x1F DUP4 ADD DIV SWAP1 POP SWAP2 SWAP1 POP JUMP JUMPDEST PUSH0 DUP3 DUP3 SHL SWAP1 POP SWAP3 SWAP2 POP POP JUMP JUMPDEST PUSH0 PUSH1 0x8 DUP4 MUL PUSH3 0xBF2 PUSH32 0xFFFFFFFFFFFFFFFFFFFFFFFFFFFFFFFFFFFFFFFFFFFFFFFFFFFFFFFFFFFFFFFF DUP3 PUSH3 0xBB5 JUMP JUMPDEST PUSH3 0xBFE DUP7 DUP4 PUSH3 0xBB5 JUMP JUMPDEST SWAP6 POP DUP1 NOT DUP5 AND SWAP4 POP DUP1 DUP7 AND DUP5 OR SWAP3 POP POP POP SWAP4 SWAP3 POP POP POP JUMP JUMPDEST PUSH0 DUP2 SWAP1 POP SWAP2 SWAP1 POP JUMP JUMPDEST PUSH0 PUSH3 0xC3F PUSH3 0xC39 PUSH3 0xC33 DUP5 PUSH3 0x7E8 JUMP JUMPDEST PUSH3 0xC16 JUMP JUMPDEST PUSH3 0x7E8 JUMP JUMPDEST SWAP1 POP SWAP2 SWAP1 POP JUMP JUMPDEST PUSH0 DUP2 SWAP1 POP SWAP2 SWAP1 POP JUMP JUMPDEST PUSH3 0xC5A DUP4 PUSH3 0xC1F JUMP JUMPDEST PUSH3 0xC72 PUSH3 0xC69 DUP3 PUSH3 0xC46 JUMP JUMPDEST DUP5 DUP5 SLOAD PUSH3 0xBC1 JUMP JUMPDEST DUP3 SSTORE POP POP POP POP JUMP JUMPDEST PUSH0 SWAP1 JUMP JUMPDEST PUSH3 0xC88 PUSH3 0xC7A JUMP JUMPDEST PUSH3 0xC95 DUP2 DUP5 DUP5 PUSH3 0xC4F JUMP JUMPDEST POP POP POP JUMP JUMPDEST JUMPDEST DUP2 DUP2 LT ISZERO PUSH3 0xCBC JUMPI PUSH3 0xCB0 PUSH0 DUP3 PUSH3 0xC7E JUMP JUMPDEST PUSH1 0x1 DUP2 ADD SWAP1 POP PUSH3 0xC9B JUMP JUMPDEST POP POP JUMP JUMPDEST PUSH1 0x1F DUP3 GT ISZERO PUSH3 0xD0B JUMPI PUSH3 0xCD5 DUP2 PUSH3 0xB94 JUMP JUMPDEST PUSH3 0xCE0 DUP5 PUSH3 0xBA6 JUMP JUMPDEST DUP2 ADD PUSH1 0x20 DUP6 LT ISZERO PUSH3 0xCF0 JUMPI DUP2 SWAP1 POP JUMPDEST PUSH3 0xD08 PUSH3 0xCFF DUP6 PUSH3 0xBA6 JUMP JUMPDEST DUP4 ADD DUP3 PUSH3 0xC9A JUMP JUMPDEST POP POP JUMPDEST POP POP POP JUMP JUMPDEST PUSH0 DUP3 DUP3 SHR SWAP1 POP SWAP3 SWAP2 POP POP JUMP JUMPDEST PUSH0 PUSH3 0xD2D PUSH0 NOT DUP5 PUSH1 0x8 MUL PUSH3 0xD10 JUMP JUMPDEST NOT DUP1 DUP4 AND SWAP2 POP POP SWAP3 SWAP2 POP POP JUMP JUMPDEST PUSH0 PUSH3 0xD47 DUP4 DUP4 PUSH3 0xD1C JUMP JUMPDEST SWAP2 POP DUP3 PUSH1 0x2 MUL DUP3 OR SWAP1 POP SWAP3 SWAP2 POP POP JUMP JUMPDEST PUSH3 0xD62 DUP3 PUSH3 0xB29 JUMP JUMPDEST PUSH8 0xFFFFFFFFFFFFFFFF DUP2 GT ISZERO PUSH3 0xD7E JUMPI PUSH3 0xD7D PUSH3 0x68C JUMP JUMPDEST JUMPDEST PUSH3 0xD8A DUP3 SLOAD PUSH3 0xB60 JUMP JUMPDEST PUSH3 0xD97 DUP3 DUP3 DUP6 PUSH3 0xCC0 JUMP JUMPDEST PUSH0 PUSH1 0x20 SWAP1 POP PUSH1 0x1F DUP4 GT PUSH1 0x1 DUP2 EQ PUSH3 0xDCD JUMPI PUSH0 DUP5 ISZERO PUSH3 0xDB8 JUMPI DUP3 DUP8 ADD MLOAD SWAP1 POP JUMPDEST PUSH3 0xDC4 DUP6 DUP3 PUSH3 0xD3A JUMP JUMPDEST DUP7 SSTORE POP PUSH3 0xE33 JUMP JUMPDEST PUSH1 0x1F NOT DUP5 AND PUSH3 0xDDD DUP7 PUSH3 0xB94 JUMP JUMPDEST PUSH0 JUMPDEST DUP3 DUP2 LT ISZERO PUSH3 0xE06 JUMPI DUP5 DUP10 ADD MLOAD DUP3 SSTORE PUSH1 0x1 DUP3 ADD SWAP2 POP PUSH1 0x20 DUP6 ADD SWAP5 POP PUSH1 0x20 DUP2 ADD SWAP1 POP PUSH3 0xDDF JUMP JUMPDEST DUP7 DUP4 LT ISZERO PUSH3 0xE26 JUMPI DUP5 DUP10 ADD MLOAD PUSH3 0xE22 PUSH1 0x1F DUP10 AND DUP3 PUSH3 0xD1C JUMP JUMPDEST DUP4 SSTORE POP JUMPDEST PUSH1 0x1 PUSH1 0x2 DUP9 MUL ADD DUP9 SSTORE POP POP POP JUMPDEST POP POP POP POP POP POP JUMP JUMPDEST PUSH3 0xE46 DUP2 PUSH3 0x632 JUMP JUMPDEST DUP3 MSTORE POP POP JUMP JUMPDEST PUSH0 PUSH1 0x20 DUP3 ADD SWAP1 POP PUSH3 0xE61 PUSH0 DUP4 ADD DUP5 PUSH3 0xE3B JUMP JUMPDEST SWAP3 SWAP2 POP POP JUMP JUMPDEST PUSH0 DUP3 DUP3 MSTORE PUSH1 0x20 DUP3 ADD SWAP1 POP SWAP3 SWAP2 POP POP JUMP JUMPDEST PUSH32 0x737562736372696265727320616E6420746865697220616D6F756E747320646F PUSH0 DUP3 ADD MSTORE PUSH32 0x206E6F74206D6174636800000000000000000000000000000000000000000000 PUSH1 0x20 DUP3 ADD MSTORE POP JUMP JUMPDEST PUSH0 PUSH3 0xED3 PUSH1 0x2A DUP4 PUSH3 0xE67 JUMP JUMPDEST SWAP2 POP PUSH3 0xEE0 DUP3 PUSH3 0xE77 JUMP JUMPDEST PUSH1 0x40 DUP3 ADD SWAP1 POP SWAP2 SWAP1 POP JUMP JUMPDEST PUSH0 PUSH1 0x20 DUP3 ADD SWAP1 POP DUP2 DUP2 SUB PUSH0 DUP4 ADD MSTORE PUSH3 0xF04 DUP2 PUSH3 0xEC5 JUMP JUMPDEST SWAP1 POP SWAP2 SWAP1 POP JUMP JUMPDEST PUSH32 0x4E487B7100000000000000000000000000000000000000000000000000000000 PUSH0 MSTORE PUSH1 0x11 PUSH1 0x4 MSTORE PUSH1 0x24 PUSH0 REVERT JUMPDEST PUSH0 PUSH3 0xF44 DUP3 PUSH3 0x7E8 JUMP JUMPDEST SWAP2 POP PUSH3 0xF51 DUP4 PUSH3 0x7E8 JUMP JUMPDEST SWAP3 POP DUP3 DUP3 ADD SWAP1 POP DUP1 DUP3 GT ISZERO PUSH3 0xF6C JUMPI PUSH3 0xF6B PUSH3 0xF0B JUMP JUMPDEST JUMPDEST SWAP3 SWAP2 POP POP JUMP JUMPDEST PUSH32 0x4E487B7100000000000000000000000000000000000000000000000000000000 PUSH0 MSTORE PUSH1 0x32 PUSH1 0x4 MSTORE PUSH1 0x24 PUSH0 REVERT JUMPDEST PUSH0 PUSH3 0xFAB DUP3 PUSH3 0x7E8 JUMP JUMPDEST SWAP2 POP PUSH32 0xFFFFFFFFFFFFFFFFFFFFFFFFFFFFFFFFFFFFFFFFFFFFFFFFFFFFFFFFFFFFFFFF DUP3 SUB PUSH3 0xFE0 JUMPI PUSH3 0xFDF PUSH3 0xF0B JUMP JUMPDEST JUMPDEST PUSH1 0x1 DUP3 ADD SWAP1 POP SWAP2 SWAP1 POP JUMP JUMPDEST PUSH0 PUSH3 0xFF7 DUP3 PUSH3 0x7E8 JUMP JUMPDEST SWAP2 POP PUSH3 0x1004 DUP4 PUSH3 0x7E8 JUMP JUMPDEST SWAP3 POP DUP3 DUP3 SUB SWAP1 POP DUP2 DUP2 GT ISZERO PUSH3 0x101F JUMPI PUSH3 0x101E PUSH3 0xF0B JUMP JUMPDEST JUMPDEST SWAP3 SWAP2 POP POP JUMP JUMPDEST PUSH3 0x1030 DUP2 PUSH3 0x7E8 JUMP JUMPDEST DUP3 MSTORE POP POP JUMP JUMPDEST PUSH0 PUSH1 0x60 DUP3 ADD SWAP1 POP PUSH3 0x104B PUSH0 DUP4 ADD DUP7 PUSH3 0xE3B JUMP JUMPDEST PUSH3 0x105A PUSH1 0x20 DUP4 ADD DUP6 PUSH3 0x1025 JUMP JUMPDEST PUSH3 0x1069 PUSH1 0x40 DUP4 ADD DUP5 PUSH3 0x1025 JUMP JUMPDEST SWAP5 SWAP4 POP POP POP POP JUMP JUMPDEST PUSH0 PUSH1 0x20 DUP3 ADD SWAP1 POP PUSH3 0x1086 PUSH0 DUP4 ADD DUP5 PUSH3 0x1025 JUMP JUMPDEST SWAP3 SWAP2 POP POP JUMP JUMPDEST PUSH2 0x18B2 DUP1 PUSH3 0x109A PUSH0 CODECOPY PUSH0 RETURN INVALID PUSH1 0x80 PUSH1 0x40 MSTORE CALLVALUE DUP1 ISZERO PUSH2 0xF JUMPI PUSH0 DUP1 REVERT JUMPDEST POP PUSH1 0x4 CALLDATASIZE LT PUSH2 0x109 JUMPI PUSH0 CALLDATALOAD PUSH1 0xE0 SHR DUP1 PUSH4 0x95D89B41 GT PUSH2 0xA0 JUMPI DUP1 PUSH4 0xB93A5396 GT PUSH2 0x6F JUMPI DUP1 PUSH4 0xB93A5396 EQ PUSH2 0x2A7 JUMPI DUP1 PUSH4 0xBD7DAC92 EQ PUSH2 0x2C3 JUMPI DUP1 PUSH4 0xC0A4D64D EQ PUSH2 0x2E1 JUMPI DUP1 PUSH4 0xDD62ED3E EQ PUSH2 0x2FF JUMPI DUP1 PUSH4 0xF2FDE38B EQ PUSH2 0x32F JUMPI PUSH2 0x109 JUMP JUMPDEST DUP1 PUSH4 0x95D89B41 EQ PUSH2 0x21F JUMPI DUP1 PUSH4 0x9F3ADB0E EQ PUSH2 0x23D JUMPI DUP1 PUSH4 0xA9059CBB EQ PUSH2 0x25B JUMPI DUP1 PUSH4 0xAE84827A EQ PUSH2 0x28B JUMPI PUSH2 0x109 JUMP JUMPDEST DUP1 PUSH4 0x313CE567 GT PUSH2 0xDC JUMPI DUP1 PUSH4 0x313CE567 EQ PUSH2 0x1A9 JUMPI DUP1 PUSH4 0x70A08231 EQ PUSH2 0x1C7 JUMPI DUP1 PUSH4 0x715018A6 EQ PUSH2 0x1F7 JUMPI DUP1 PUSH4 0x8DA5CB5B EQ PUSH2 0x201 JUMPI PUSH2 0x109 JUMP JUMPDEST DUP1 PUSH4 0x6FDDE03 EQ PUSH2 0x10D JUMPI DUP1 PUSH4 0x95EA7B3 EQ PUSH2 0x12B JUMPI DUP1 PUSH4 0x18160DDD EQ PUSH2 0x15B JUMPI DUP1 PUSH4 0x23B872DD EQ PUSH2 0x179 JUMPI JUMPDEST PUSH0 DUP1 REVERT JUMPDEST PUSH2 0x115 PUSH2 0x34B JUMP JUMPDEST PUSH1 0x40 MLOAD PUSH2 0x122 SWAP2 SWAP1 PUSH2 0x1239 JUMP JUMPDEST PUSH1 0x40 MLOAD DUP1 SWAP2 SUB SWAP1 RETURN JUMPDEST PUSH2 0x145 PUSH1 0x4 DUP1 CALLDATASIZE SUB DUP2 ADD SWAP1 PUSH2 0x140 SWAP2 SWAP1 PUSH2 0x12EA JUMP JUMPDEST PUSH2 0x3DB JUMP JUMPDEST PUSH1 0x40 MLOAD PUSH2 0x152 SWAP2 SWAP1 PUSH2 0x1342 JUMP JUMPDEST PUSH1 0x40 MLOAD DUP1 SWAP2 SUB SWAP1 RETURN JUMPDEST PUSH2 0x163 PUSH2 0x3FD JUMP JUMPDEST PUSH1 0x40 MLOAD PUSH2 0x170 SWAP2 SWAP1 PUSH2 0x136A JUMP JUMPDEST PUSH1 0x40 MLOAD DUP1 SWAP2 SUB SWAP1 RETURN JUMPDEST PUSH2 0x193 PUSH1 0x4 DUP1 CALLDATASIZE SUB DUP2 ADD SWAP1 PUSH2 0x18E SWAP2 SWAP1 PUSH2 0x1383 JUMP JUMPDEST PUSH2 0x406 JUMP JUMPDEST PUSH1 0x40 MLOAD PUSH2 0x1A0 SWAP2 SWAP1 PUSH2 0x1342 JUMP JUMPDEST PUSH1 0x40 MLOAD DUP1 SWAP2 SUB SWAP1 RETURN JUMPDEST PUSH2 0x1B1 PUSH2 0x55E JUMP JUMPDEST PUSH1 0x40 MLOAD PUSH2 0x1BE SWAP2 SWAP1 PUSH2 0x13EE JUMP JUMPDEST PUSH1 0x40 MLOAD DUP1 SWAP2 SUB SWAP1 RETURN JUMPDEST PUSH2 0x1E1 PUSH1 0x4 DUP1 CALLDATASIZE SUB DUP2 ADD SWAP1 PUSH2 0x1DC SWAP2 SWAP1 PUSH2 0x1407 JUMP JUMPDEST PUSH2 0x562 JUMP JUMPDEST PUSH1 0x40 MLOAD PUSH2 0x1EE SWAP2 SWAP1 PUSH2 0x136A JUMP JUMPDEST PUSH1 0x40 MLOAD DUP1 SWAP2 SUB SWAP1 RETURN JUMPDEST PUSH2 0x1FF PUSH2 0x5A7 JUMP JUMPDEST STOP JUMPDEST PUSH2 0x209 PUSH2 0x5BA JUMP JUMPDEST PUSH1 0x40 MLOAD PUSH2 0x216 SWAP2 SWAP1 PUSH2 0x1441 JUMP JUMPDEST PUSH1 0x40 MLOAD DUP1 SWAP2 SUB SWAP1 RETURN JUMPDEST PUSH2 0x227 PUSH2 0x5E2 JUMP JUMPDEST PUSH1 0x40 MLOAD PUSH2 0x234 SWAP2 SWAP1 PUSH2 0x1239 JUMP JUMPDEST PUSH1 0x40 MLOAD DUP1 SWAP2 SUB SWAP1 RETURN JUMPDEST PUSH2 0x245 PUSH2 0x672 JUMP JUMPDEST PUSH1 0x40 MLOAD PUSH2 0x252 SWAP2 SWAP1 PUSH2 0x136A JUMP JUMPDEST PUSH1 0x40 MLOAD DUP1 SWAP2 SUB SWAP1 RETURN JUMPDEST PUSH2 0x275 PUSH1 0x4 DUP1 CALLDATASIZE SUB DUP2 ADD SWAP1 PUSH2 0x270 SWAP2 SWAP1 PUSH2 0x12EA JUMP JUMPDEST PUSH2 0x678 JUMP JUMPDEST PUSH1 0x40 MLOAD PUSH2 0x282 SWAP2 SWAP1 PUSH2 0x1342 JUMP JUMPDEST PUSH1 0x40 MLOAD DUP1 SWAP2 SUB SWAP1 RETURN JUMPDEST PUSH2 0x2A5 PUSH1 0x4 DUP1 CALLDATASIZE SUB DUP2 ADD SWAP1 PUSH2 0x2A0 SWAP2 SWAP1 PUSH2 0x12EA JUMP JUMPDEST PUSH2 0x7C9 JUMP JUMPDEST STOP JUMPDEST PUSH2 0x2C1 PUSH1 0x4 DUP1 CALLDATASIZE SUB DUP2 ADD SWAP1 PUSH2 0x2BC SWAP2 SWAP1 PUSH2 0x12EA JUMP JUMPDEST PUSH2 0x7DF JUMP JUMPDEST STOP JUMPDEST PUSH2 0x2CB PUSH2 0x7F5 JUMP JUMPDEST PUSH1 0x40 MLOAD PUSH2 0x2D8 SWAP2 SWAP1 PUSH2 0x1239 JUMP JUMPDEST PUSH1 0x40 MLOAD DUP1 SWAP2 SUB SWAP1 RETURN JUMPDEST PUSH2 0x2E9 PUSH2 0x885 JUMP JUMPDEST PUSH1 0x40 MLOAD PUSH2 0x2F6 SWAP2 SWAP1 PUSH2 0x136A JUMP JUMPDEST PUSH1 0x40 MLOAD DUP1 SWAP2 SUB SWAP1 RETURN JUMPDEST PUSH2 0x319 PUSH1 0x4 DUP1 CALLDATASIZE SUB DUP2 ADD SWAP1 PUSH2 0x314 SWAP2 SWAP1 PUSH2 0x145A JUMP JUMPDEST PUSH2 0x88E JUMP JUMPDEST PUSH1 0x40 MLOAD PUSH2 0x326 SWAP2 SWAP1 PUSH2 0x136A JUMP JUMPDEST PUSH1 0x40 MLOAD DUP1 SWAP2 SUB SWAP1 RETURN JUMPDEST PUSH2 0x349 PUSH1 0x4 DUP1 CALLDATASIZE SUB DUP2 ADD SWAP1 PUSH2 0x344 SWAP2 SWAP1 PUSH2 0x1407 JUMP JUMPDEST PUSH2 0x910 JUMP JUMPDEST STOP JUMPDEST PUSH1 0x60 PUSH1 0x3 DUP1 SLOAD PUSH2 0x35A SWAP1 PUSH2 0x14C5 JUMP JUMPDEST DUP1 PUSH1 0x1F ADD PUSH1 0x20 DUP1 SWAP2 DIV MUL PUSH1 0x20 ADD PUSH1 0x40 MLOAD SWAP1 DUP2 ADD PUSH1 0x40 MSTORE DUP1 SWAP3 SWAP2 SWAP1 DUP2 DUP2 MSTORE PUSH1 0x20 ADD DUP3 DUP1 SLOAD PUSH2 0x386 SWAP1 PUSH2 0x14C5 JUMP JUMPDEST DUP1 ISZERO PUSH2 0x3D1 JUMPI DUP1 PUSH1 0x1F LT PUSH2 0x3A8 JUMPI PUSH2 0x100 DUP1 DUP4 SLOAD DIV MUL DUP4 MSTORE SWAP2 PUSH1 0x20 ADD SWAP2 PUSH2 0x3D1 JUMP JUMPDEST DUP3 ADD SWAP2 SWAP1 PUSH0 MSTORE PUSH1 0x20 PUSH0 KECCAK256 SWAP1 JUMPDEST DUP2 SLOAD DUP2 MSTORE SWAP1 PUSH1 0x1 ADD SWAP1 PUSH1 0x20 ADD DUP1 DUP4 GT PUSH2 0x3B4 JUMPI DUP3 SWAP1 SUB PUSH1 0x1F AND DUP3 ADD SWAP2 JUMPDEST POP POP POP POP POP SWAP1 POP SWAP1 JUMP JUMPDEST PUSH0 DUP1 PUSH2 0x3E5 PUSH2 0x994 JUMP JUMPDEST SWAP1 POP PUSH2 0x3F2 DUP2 DUP6 DUP6 PUSH2 0x99B JUMP JUMPDEST PUSH1 0x1 SWAP2 POP POP SWAP3 SWAP2 POP POP JUMP JUMPDEST PUSH0 PUSH1 0x2 SLOAD SWAP1 POP SWAP1 JUMP JUMPDEST PUSH0 PUSH2 0x40F PUSH2 0x5BA JUMP JUMPDEST PUSH20 0xFFFFFFFFFFFFFFFFFFFFFFFFFFFFFFFFFFFFFFFF AND DUP5 PUSH20 0xFFFFFFFFFFFFFFFFFFFFFFFFFFFFFFFFFFFFFFFF AND SUB PUSH2 0x48B JUMPI PUSH1 0x9 SLOAD TIMESTAMP LT ISZERO PUSH2 0x486 JUMPI PUSH1 0x40 MLOAD PUSH32 0x8C379A000000000000000000000000000000000000000000000000000000000 DUP2 MSTORE PUSH1 0x4 ADD PUSH2 0x47D SWAP1 PUSH2 0x153F JUMP JUMPDEST PUSH1 0x40 MLOAD DUP1 SWAP2 SUB SWAP1 REVERT JUMPDEST PUSH2 0x4D1 JUMP JUMPDEST PUSH1 0x8 SLOAD TIMESTAMP LT ISZERO PUSH2 0x4D0 JUMPI PUSH1 0x40 MLOAD PUSH32 0x8C379A000000000000000000000000000000000000000000000000000000000 DUP2 MSTORE PUSH1 0x4 ADD PUSH2 0x4C7 SWAP1 PUSH2 0x15A7 JUMP JUMPDEST PUSH1 0x40 MLOAD DUP1 SWAP2 SUB SWAP1 REVERT JUMPDEST JUMPDEST PUSH0 DUP3 PUSH2 0x4DC DUP6 PUSH2 0x562 JUMP JUMPDEST PUSH2 0x4E6 SWAP2 SWAP1 PUSH2 0x15F2 JUMP JUMPDEST SWAP1 POP PUSH1 0x64 PUSH2 0x4F2 PUSH2 0x3FD JUMP JUMPDEST PUSH1 0x14 PUSH2 0x4FE SWAP2 SWAP1 PUSH2 0x1625 JUMP JUMPDEST PUSH2 0x508 SWAP2 SWAP1 PUSH2 0x1693 JUMP JUMPDEST DUP2 LT PUSH2 0x549 JUMPI PUSH1 0x40 MLOAD PUSH32 0x8C379A000000000000000000000000000000000000000000000000000000000 DUP2 MSTORE PUSH1 0x4 ADD PUSH2 0x540 SWAP1 PUSH2 0x1733 JUMP JUMPDEST PUSH1 0x40 MLOAD DUP1 SWAP2 SUB SWAP1 REVERT JUMPDEST PUSH2 0x554 DUP6 DUP6 DUP6 PUSH2 0x9AD JUMP JUMPDEST SWAP2 POP POP SWAP4 SWAP3 POP POP POP JUMP JUMPDEST PUSH0 SWAP1 JUMP JUMPDEST PUSH0 DUP1 PUSH0 DUP4 PUSH20 0xFFFFFFFFFFFFFFFFFFFFFFFFFFFFFFFFFFFFFFFF AND PUSH20 0xFFFFFFFFFFFFFFFFFFFFFFFFFFFFFFFFFFFFFFFF AND DUP2 MSTORE PUSH1 0x20 ADD SWAP1 DUP2 MSTORE PUSH1 0x20 ADD PUSH0 KECCAK256 SLOAD SWAP1 POP SWAP2 SWAP1 POP JUMP JUMPDEST PUSH2 0x5AF PUSH2 0x9DB JUMP JUMPDEST PUSH2 0x5B8 PUSH0 PUSH2 0xA62 JUMP JUMPDEST JUMP JUMPDEST PUSH0 PUSH1 0x5 PUSH0 SWAP1 SLOAD SWAP1 PUSH2 0x100 EXP SWAP1 DIV PUSH20 0xFFFFFFFFFFFFFFFFFFFFFFFFFFFFFFFFFFFFFFFF AND SWAP1 POP SWAP1 JUMP JUMPDEST PUSH1 0x60 PUSH1 0x4 DUP1 SLOAD PUSH2 0x5F1 SWAP1 PUSH2 0x14C5 JUMP JUMPDEST DUP1 PUSH1 0x1F ADD PUSH1 0x20 DUP1 SWAP2 DIV MUL PUSH1 0x20 ADD PUSH1 0x40 MLOAD SWAP1 DUP2 ADD PUSH1 0x40 MSTORE DUP1 SWAP3 SWAP2 SWAP1 DUP2 DUP2 MSTORE PUSH1 0x20 ADD DUP3 DUP1 SLOAD PUSH2 0x61D SWAP1 PUSH2 0x14C5 JUMP JUMPDEST DUP1 ISZERO PUSH2 0x668 JUMPI DUP1 PUSH1 0x1F LT PUSH2 0x63F JUMPI PUSH2 0x100 DUP1 DUP4 SLOAD DIV MUL DUP4 MSTORE SWAP2 PUSH1 0x20 ADD SWAP2 PUSH2 0x668 JUMP JUMPDEST DUP3 ADD SWAP2 SWAP1 PUSH0 MSTORE PUSH1 0x20 PUSH0 KECCAK256 SWAP1 JUMPDEST DUP2 SLOAD DUP2 MSTORE SWAP1 PUSH1 0x1 ADD SWAP1 PUSH1 0x20 ADD DUP1 DUP4 GT PUSH2 0x64B JUMPI DUP3 SWAP1 SUB PUSH1 0x1F AND DUP3 ADD SWAP2 JUMPDEST POP POP POP POP POP SWAP1 POP SWAP1 JUMP JUMPDEST PUSH1 0x9 SLOAD DUP2 JUMP JUMPDEST PUSH0 PUSH2 0x681 PUSH2 0x5BA JUMP JUMPDEST PUSH20 0xFFFFFFFFFFFFFFFFFFFFFFFFFFFFFFFFFFFFFFFF AND CALLER PUSH20 0xFFFFFFFFFFFFFFFFFFFFFFFFFFFFFFFFFFFFFFFF AND SUB PUSH2 0x6F9 JUMPI PUSH1 0x9 SLOAD TIMESTAMP LT ISZERO PUSH2 0x6F8 JUMPI PUSH1 0x40 MLOAD PUSH32 0x8C379A000000000000000000000000000000000000000000000000000000000 DUP2 MSTORE PUSH1 0x4 ADD PUSH2 0x6EF SWAP1 PUSH2 0x17C1 JUMP JUMPDEST PUSH1 0x40 MLOAD DUP1 SWAP2 SUB SWAP1 REVERT JUMPDEST JUMPDEST PUSH1 0x8 SLOAD TIMESTAMP LT ISZERO PUSH2 0x73E JUMPI PUSH1 0x40 MLOAD PUSH32 0x8C379A000000000000000000000000000000000000000000000000000000000 DUP2 MSTORE PUSH1 0x4 ADD PUSH2 0x735 SWAP1 PUSH2 0x1829 JUMP JUMPDEST PUSH1 0x40 MLOAD DUP1 SWAP2 SUB SWAP1 REVERT JUMPDEST PUSH0 DUP3 PUSH2 0x749 DUP6 PUSH2 0x562 JUMP JUMPDEST PUSH2 0x753 SWAP2 SWAP1 PUSH2 0x15F2 JUMP JUMPDEST SWAP1 POP PUSH1 0x64 PUSH2 0x75F PUSH2 0x3FD JUMP JUMPDEST PUSH1 0x14 PUSH2 0x76B SWAP2 SWAP1 PUSH2 0x1625 JUMP JUMPDEST PUSH2 0x775 SWAP2 SWAP1 PUSH2 0x1693 JUMP JUMPDEST DUP2 LT PUSH2 0x7B6 JUMPI PUSH1 0x40 MLOAD PUSH32 0x8C379A000000000000000000000000000000000000000000000000000000000 DUP2 MSTORE PUSH1 0x4 ADD PUSH2 0x7AD SWAP1 PUSH2 0x1733 JUMP JUMPDEST PUSH1 0x40 MLOAD DUP1 SWAP2 SUB SWAP1 REVERT JUMPDEST PUSH2 0x7C0 DUP5 DUP5 PUSH2 0xB25 JUMP JUMPDEST SWAP2 POP POP SWAP3 SWAP2 POP POP JUMP JUMPDEST PUSH2 0x7D1 PUSH2 0x9DB JUMP JUMPDEST PUSH2 0x7DB DUP3 DUP3 PUSH2 0xB47 JUMP JUMPDEST POP POP JUMP JUMPDEST PUSH2 0x7E7 PUSH2 0x9DB JUMP JUMPDEST PUSH2 0x7F1 DUP3 DUP3 PUSH2 0xBC6 JUMP JUMPDEST POP POP JUMP JUMPDEST PUSH1 0x60 PUSH1 0xA DUP1 SLOAD PUSH2 0x804 SWAP1 PUSH2 0x14C5 JUMP JUMPDEST DUP1 PUSH1 0x1F ADD PUSH1 0x20 DUP1 SWAP2 DIV MUL PUSH1 0x20 ADD PUSH1 0x40 MLOAD SWAP1 DUP2 ADD PUSH1 0x40 MSTORE DUP1 SWAP3 SWAP2 SWAP1 DUP2 DUP2 MSTORE PUSH1 0x20 ADD DUP3 DUP1 SLOAD PUSH2 0x830 SWAP1 PUSH2 0x14C5 JUMP JUMPDEST DUP1 ISZERO PUSH2 0x87B JUMPI DUP1 PUSH1 0x1F LT PUSH2 0x852 JUMPI PUSH2 0x100 DUP1 DUP4 SLOAD DIV MUL DUP4 MSTORE SWAP2 PUSH1 0x20 ADD SWAP2 PUSH2 0x87B JUMP JUMPDEST DUP3 ADD SWAP2 SWAP1 PUSH0 MSTORE PUSH1 0x20 PUSH0 KECCAK256 SWAP1 JUMPDEST DUP2 SLOAD DUP2 MSTORE SWAP1 PUSH1 0x1 ADD SWAP1 PUSH1 0x20 ADD DUP1 DUP4 GT PUSH2 0x85E JUMPI DUP3 SWAP1 SUB PUSH1 0x1F AND DUP3 ADD SWAP2 JUMPDEST POP POP POP POP POP SWAP1 POP SWAP1 JUMP JUMPDEST PUSH0 PUSH1 0x8 SLOAD SWAP1 POP SWAP1 JUMP JUMPDEST PUSH0 PUSH1 0x1 PUSH0 DUP5 PUSH20 0xFFFFFFFFFFFFFFFFFFFFFFFFFFFFFFFFFFFFFFFF AND PUSH20 0xFFFFFFFFFFFFFFFFFFFFFFFFFFFFFFFFFFFFFFFF AND DUP2 MSTORE PUSH1 0x20 ADD SWAP1 DUP2 MSTORE PUSH1 0x20 ADD PUSH0 KECCAK256 PUSH0 DUP4 PUSH20 0xFFFFFFFFFFFFFFFFFFFFFFFFFFFFFFFFFFFFFFFF AND PUSH20 0xFFFFFFFFFFFFFFFFFFFFFFFFFFFFFFFFFFFFFFFF AND DUP2 MSTORE PUSH1 0x20 ADD SWAP1 DUP2 MSTORE PUSH1 0x20 ADD PUSH0 KECCAK256 SLOAD SWAP1 POP SWAP3 SWAP2 POP POP JUMP JUMPDEST PUSH2 0x918 PUSH2 0x9DB JUMP JUMPDEST PUSH0 PUSH20 0xFFFFFFFFFFFFFFFFFFFFFFFFFFFFFFFFFFFFFFFF AND DUP2 PUSH20 0xFFFFFFFFFFFFFFFFFFFFFFFFFFFFFFFFFFFFFFFF AND SUB PUSH2 0x988 JUMPI PUSH0 PUSH1 0x40 MLOAD PUSH32 0x1E4FBDF700000000000000000000000000000000000000000000000000000000 DUP2 MSTORE PUSH1 0x4 ADD PUSH2 0x97F SWAP2 SWAP1 PUSH2 0x1441 JUMP JUMPDEST PUSH1 0x40 MLOAD DUP1 SWAP2 SUB SWAP1 REVERT JUMPDEST PUSH2 0x991 DUP2 PUSH2 0xA62 JUMP JUMPDEST POP JUMP JUMPDEST PUSH0 CALLER SWAP1 POP SWAP1 JUMP JUMPDEST PUSH2 0x9A8 DUP4 DUP4 DUP4 PUSH1 0x1 PUSH2 0xC45 JUMP JUMPDEST POP POP POP JUMP JUMPDEST PUSH0 DUP1 PUSH2 0x9B7 PUSH2 0x994 JUMP JUMPDEST SWAP1 POP PUSH2 0x9C4 DUP6 DUP3 DUP6 PUSH2 0xE14 JUMP JUMPDEST PUSH2 0x9CF DUP6 DUP6 DUP6 PUSH2 0xEA6 JUMP JUMPDEST PUSH1 0x1 SWAP2 POP POP SWAP4 SWAP3 POP POP POP JUMP JUMPDEST PUSH2 0x9E3 PUSH2 0x994 JUMP JUMPDEST PUSH20 0xFFFFFFFFFFFFFFFFFFFFFFFFFFFFFFFFFFFFFFFF AND PUSH2 0xA01 PUSH2 0x5BA JUMP JUMPDEST PUSH20 0xFFFFFFFFFFFFFFFFFFFFFFFFFFFFFFFFFFFFFFFF AND EQ PUSH2 0xA60 JUMPI PUSH2 0xA24 PUSH2 0x994 JUMP JUMPDEST PUSH1 0x40 MLOAD PUSH32 0x118CDAA700000000000000000000000000000000000000000000000000000000 DUP2 MSTORE PUSH1 0x4 ADD PUSH2 0xA57 SWAP2 SWAP1 PUSH2 0x1441 JUMP JUMPDEST PUSH1 0x40 MLOAD DUP1 SWAP2 SUB SWAP1 REVERT JUMPDEST JUMP JUMPDEST PUSH0 PUSH1 0x5 PUSH0 SWAP1 SLOAD SWAP1 PUSH2 0x100 EXP SWAP1 DIV PUSH20 0xFFFFFFFFFFFFFFFFFFFFFFFFFFFFFFFFFFFFFFFF AND SWAP1 POP DUP2 PUSH1 0x5 PUSH0 PUSH2 0x100 EXP DUP2 SLOAD DUP2 PUSH20 0xFFFFFFFFFFFFFFFFFFFFFFFFFFFFFFFFFFFFFFFF MUL NOT AND SWAP1 DUP4 PUSH20 0xFFFFFFFFFFFFFFFFFFFFFFFFFFFFFFFFFFFFFFFF AND MUL OR SWAP1 SSTORE POP DUP2 PUSH20 0xFFFFFFFFFFFFFFFFFFFFFFFFFFFFFFFFFFFFFFFF AND DUP2 PUSH20 0xFFFFFFFFFFFFFFFFFFFFFFFFFFFFFFFFFFFFFFFF AND PUSH32 0x8BE0079C531659141344CD1FD0A4F28419497F9722A3DAAFE3B4186F6B6457E0 PUSH1 0x40 MLOAD PUSH1 0x40 MLOAD DUP1 SWAP2 SUB SWAP1 LOG3 POP POP JUMP JUMPDEST PUSH0 DUP1 PUSH2 0xB2F PUSH2 0x994 JUMP JUMPDEST SWAP1 POP PUSH2 0xB3C DUP2 DUP6 DUP6 PUSH2 0xEA6 JUMP JUMPDEST PUSH1 0x1 SWAP2 POP POP SWAP3 SWAP2 POP POP JUMP JUMPDEST PUSH0 PUSH20 0xFFFFFFFFFFFFFFFFFFFFFFFFFFFFFFFFFFFFFFFF AND DUP3 PUSH20 0xFFFFFFFFFFFFFFFFFFFFFFFFFFFFFFFFFFFFFFFF AND SUB PUSH2 0xBB7 JUMPI PUSH0 PUSH1 0x40 MLOAD PUSH32 0x96C6FD1E00000000000000000000000000000000000000000000000000000000 DUP2 MSTORE PUSH1 0x4 ADD PUSH2 0xBAE SWAP2 SWAP1 PUSH2 0x1441 JUMP JUMPDEST PUSH1 0x40 MLOAD DUP1 SWAP2 SUB SWAP1 REVERT JUMPDEST PUSH2 0xBC2 DUP3 PUSH0 DUP4 PUSH2 0xF96 JUMP JUMPDEST POP POP JUMP JUMPDEST PUSH0 PUSH20 0xFFFFFFFFFFFFFFFFFFFFFFFFFFFFFFFFFFFFFFFF AND DUP3 PUSH20 0xFFFFFFFFFFFFFFFFFFFFFFFFFFFFFFFFFFFFFFFF AND SUB PUSH2 0xC36 JUMPI PUSH0 PUSH1 0x40 MLOAD PUSH32 0xEC442F0500000000000000000000000000000000000000000000000000000000 DUP2 MSTORE PUSH1 0x4 ADD PUSH2 0xC2D SWAP2 SWAP1 PUSH2 0x1441 JUMP JUMPDEST PUSH1 0x40 MLOAD DUP1 SWAP2 SUB SWAP1 REVERT JUMPDEST PUSH2 0xC41 PUSH0 DUP4 DUP4 PUSH2 0xF96 JUMP JUMPDEST POP POP JUMP JUMPDEST PUSH0 PUSH20 0xFFFFFFFFFFFFFFFFFFFFFFFFFFFFFFFFFFFFFFFF AND DUP5 PUSH20 0xFFFFFFFFFFFFFFFFFFFFFFFFFFFFFFFFFFFFFFFF AND SUB PUSH2 0xCB5 JUMPI PUSH0 PUSH1 0x40 MLOAD PUSH32 0xE602DF0500000000000000000000000000000000000000000000000000000000 DUP2 MSTORE PUSH1 0x4 ADD PUSH2 0xCAC SWAP2 SWAP1 PUSH2 0x1441 JUMP JUMPDEST PUSH1 0x40 MLOAD DUP1 SWAP2 SUB SWAP1 REVERT JUMPDEST PUSH0 PUSH20 0xFFFFFFFFFFFFFFFFFFFFFFFFFFFFFFFFFFFFFFFF AND DUP4 PUSH20 0xFFFFFFFFFFFFFFFFFFFFFFFFFFFFFFFFFFFFFFFF AND SUB PUSH2 0xD25 JUMPI PUSH0 PUSH1 0x40 MLOAD PUSH32 0x94280D6200000000000000000000000000000000000000000000000000000000 DUP2 MSTORE PUSH1 0x4 ADD PUSH2 0xD1C SWAP2 SWAP1 PUSH2 0x1441 JUMP JUMPDEST PUSH1 0x40 MLOAD DUP1 SWAP2 SUB SWAP1 REVERT JUMPDEST DUP2 PUSH1 0x1 PUSH0 DUP7 PUSH20 0xFFFFFFFFFFFFFFFFFFFFFFFFFFFFFFFFFFFFFFFF AND PUSH20 0xFFFFFFFFFFFFFFFFFFFFFFFFFFFFFFFFFFFFFFFF AND DUP2 MSTORE PUSH1 0x20 ADD SWAP1 DUP2 MSTORE PUSH1 0x20 ADD PUSH0 KECCAK256 PUSH0 DUP6 PUSH20 0xFFFFFFFFFFFFFFFFFFFFFFFFFFFFFFFFFFFFFFFF AND PUSH20 0xFFFFFFFFFFFFFFFFFFFFFFFFFFFFFFFFFFFFFFFF AND DUP2 MSTORE PUSH1 0x20 ADD SWAP1 DUP2 MSTORE PUSH1 0x20 ADD PUSH0 KECCAK256 DUP2 SWAP1 SSTORE POP DUP1 ISZERO PUSH2 0xE0E JUMPI DUP3 PUSH20 0xFFFFFFFFFFFFFFFFFFFFFFFFFFFFFFFFFFFFFFFF AND DUP5 PUSH20 0xFFFFFFFFFFFFFFFFFFFFFFFFFFFFFFFFFFFFFFFF AND PUSH32 0x8C5BE1E5EBEC7D5BD14F71427D1E84F3DD0314C0F7B2291E5B200AC8C7C3B925 DUP5 PUSH1 0x40 MLOAD PUSH2 0xE05 SWAP2 SWAP1 PUSH2 0x136A JUMP JUMPDEST PUSH1 0x40 MLOAD DUP1 SWAP2 SUB SWAP1 LOG3 JUMPDEST POP POP POP POP JUMP JUMPDEST PUSH0 PUSH2 0xE1F DUP5 DUP5 PUSH2 0x88E JUMP JUMPDEST SWAP1 POP PUSH32 0xFFFFFFFFFFFFFFFFFFFFFFFFFFFFFFFFFFFFFFFFFFFFFFFFFFFFFFFFFFFFFFFF DUP2 EQ PUSH2 0xEA0 JUMPI DUP2 DUP2 LT ISZERO PUSH2 0xE91 JUMPI DUP3 DUP2 DUP4 PUSH1 0x40 MLOAD PUSH32 0xFB8F41B200000000000000000000000000000000000000000000000000000000 DUP2 MSTORE PUSH1 0x4 ADD PUSH2 0xE88 SWAP4 SWAP3 SWAP2 SWAP1 PUSH2 0x1847 JUMP JUMPDEST PUSH1 0x40 MLOAD DUP1 SWAP2 SUB SWAP1 REVERT JUMPDEST PUSH2 0xE9F DUP5 DUP5 DUP5 DUP5 SUB PUSH0 PUSH2 0xC45 JUMP JUMPDEST JUMPDEST POP POP POP POP JUMP JUMPDEST PUSH0 PUSH20 0xFFFFFFFFFFFFFFFFFFFFFFFFFFFFFFFFFFFFFFFF AND DUP4 PUSH20 0xFFFFFFFFFFFFFFFFFFFFFFFFFFFFFFFFFFFFFFFF AND SUB PUSH2 0xF16 JUMPI PUSH0 PUSH1 0x40 MLOAD PUSH32 0x96C6FD1E00000000000000000000000000000000000000000000000000000000 DUP2 MSTORE PUSH1 0x4 ADD PUSH2 0xF0D SWAP2 SWAP1 PUSH2 0x1441 JUMP JUMPDEST PUSH1 0x40 MLOAD DUP1 SWAP2 SUB SWAP1 REVERT JUMPDEST PUSH0 PUSH20 0xFFFFFFFFFFFFFFFFFFFFFFFFFFFFFFFFFFFFFFFF AND DUP3 PUSH20 0xFFFFFFFFFFFFFFFFFFFFFFFFFFFFFFFFFFFFFFFF AND SUB PUSH2 0xF86 JUMPI PUSH0 PUSH1 0x40 MLOAD PUSH32 0xEC442F0500000000000000000000000000000000000000000000000000000000 DUP2 MSTORE PUSH1 0x4 ADD PUSH2 0xF7D SWAP2 SWAP1 PUSH2 0x1441 JUMP JUMPDEST PUSH1 0x40 MLOAD DUP1 SWAP2 SUB SWAP1 REVERT JUMPDEST PUSH2 0xF91 DUP4 DUP4 DUP4 PUSH2 0xF96 JUMP JUMPDEST POP POP POP JUMP JUMPDEST PUSH0 PUSH20 0xFFFFFFFFFFFFFFFFFFFFFFFFFFFFFFFFFFFFFFFF AND DUP4 PUSH20 0xFFFFFFFFFFFFFFFFFFFFFFFFFFFFFFFFFFFFFFFF AND SUB PUSH2 0xFE6 JUMPI DUP1 PUSH1 0x2 PUSH0 DUP3 DUP3 SLOAD PUSH2 0xFDA SWAP2 SWAP1 PUSH2 0x15F2 JUMP JUMPDEST SWAP3 POP POP DUP2 SWAP1 SSTORE POP PUSH2 0x10B4 JUMP JUMPDEST PUSH0 DUP1 PUSH0 DUP6 PUSH20 0xFFFFFFFFFFFFFFFFFFFFFFFFFFFFFFFFFFFFFFFF AND PUSH20 0xFFFFFFFFFFFFFFFFFFFFFFFFFFFFFFFFFFFFFFFF AND DUP2 MSTORE PUSH1 0x20 ADD SWAP1 DUP2 MSTORE PUSH1 0x20 ADD PUSH0 KECCAK256 SLOAD SWAP1 POP DUP2 DUP2 LT ISZERO PUSH2 0x106F JUMPI DUP4 DUP2 DUP4 PUSH1 0x40 MLOAD PUSH32 0xE450D38C00000000000000000000000000000000000000000000000000000000 DUP2 MSTORE PUSH1 0x4 ADD PUSH2 0x1066 SWAP4 SWAP3 SWAP2 SWAP1 PUSH2 0x1847 JUMP JUMPDEST PUSH1 0x40 MLOAD DUP1 SWAP2 SUB SWAP1 REVERT JUMPDEST DUP2 DUP2 SUB PUSH0 DUP1 DUP7 PUSH20 0xFFFFFFFFFFFFFFFFFFFFFFFFFFFFFFFFFFFFFFFF AND PUSH20 0xFFFFFFFFFFFFFFFFFFFFFFFFFFFFFFFFFFFFFFFF AND DUP2 MSTORE PUSH1 0x20 ADD SWAP1 DUP2 MSTORE PUSH1 0x20 ADD PUSH0 KECCAK256 DUP2 SWAP1 SSTORE POP POP JUMPDEST PUSH0 PUSH20 0xFFFFFFFFFFFFFFFFFFFFFFFFFFFFFFFFFFFFFFFF AND DUP3 PUSH20 0xFFFFFFFFFFFFFFFFFFFFFFFFFFFFFFFFFFFFFFFF AND SUB PUSH2 0x10FB JUMPI DUP1 PUSH1 0x2 PUSH0 DUP3 DUP3 SLOAD SUB SWAP3 POP POP DUP2 SWAP1 SSTORE POP PUSH2 0x1145 JUMP JUMPDEST DUP1 PUSH0 DUP1 DUP5 PUSH20 0xFFFFFFFFFFFFFFFFFFFFFFFFFFFFFFFFFFFFFFFF AND PUSH20 0xFFFFFFFFFFFFFFFFFFFFFFFFFFFFFFFFFFFFFFFF AND DUP2 MSTORE PUSH1 0x20 ADD SWAP1 DUP2 MSTORE PUSH1 0x20 ADD PUSH0 KECCAK256 PUSH0 DUP3 DUP3 SLOAD ADD SWAP3 POP POP DUP2 SWAP1 SSTORE POP JUMPDEST DUP2 PUSH20 0xFFFFFFFFFFFFFFFFFFFFFFFFFFFFFFFFFFFFFFFF AND DUP4 PUSH20 0xFFFFFFFFFFFFFFFFFFFFFFFFFFFFFFFFFFFFFFFF AND PUSH32 0xDDF252AD1BE2C89B69C2B068FC378DAA952BA7F163C4A11628F55A4DF523B3EF DUP4 PUSH1 0x40 MLOAD PUSH2 0x11A2 SWAP2 SWAP1 PUSH2 0x136A JUMP JUMPDEST PUSH1 0x40 MLOAD DUP1 SWAP2 SUB SWAP1 LOG3 POP POP POP JUMP JUMPDEST PUSH0 DUP2 MLOAD SWAP1 POP SWAP2 SWAP1 POP JUMP JUMPDEST PUSH0 DUP3 DUP3 MSTORE PUSH1 0x20 DUP3 ADD SWAP1 POP SWAP3 SWAP2 POP POP JUMP JUMPDEST PUSH0 JUMPDEST DUP4 DUP2 LT ISZERO PUSH2 0x11E6 JUMPI DUP1 DUP3 ADD MLOAD DUP2 DUP5 ADD MSTORE PUSH1 0x20 DUP2 ADD SWAP1 POP PUSH2 0x11CB JUMP JUMPDEST PUSH0 DUP5 DUP5 ADD MSTORE POP POP POP POP JUMP JUMPDEST PUSH0 PUSH1 0x1F NOT PUSH1 0x1F DUP4 ADD AND SWAP1 POP SWAP2 SWAP1 POP JUMP JUMPDEST PUSH0 PUSH2 0x120B DUP3 PUSH2 0x11AF JUMP JUMPDEST PUSH2 0x1215 DUP2 DUP6 PUSH2 0x11B9 JUMP JUMPDEST SWAP4 POP PUSH2 0x1225 DUP2 DUP6 PUSH1 0x20 DUP7 ADD PUSH2 0x11C9 JUMP JUMPDEST PUSH2 0x122E DUP2 PUSH2 0x11F1 JUMP JUMPDEST DUP5 ADD SWAP2 POP POP SWAP3 SWAP2 POP POP JUMP JUMPDEST PUSH0 PUSH1 0x20 DUP3 ADD SWAP1 POP DUP2 DUP2 SUB PUSH0 DUP4 ADD MSTORE PUSH2 0x1251 DUP2 DUP5 PUSH2 0x1201 JUMP JUMPDEST SWAP1 POP SWAP3 SWAP2 POP POP JUMP JUMPDEST PUSH0 DUP1 REVERT JUMPDEST PUSH0 PUSH20 0xFFFFFFFFFFFFFFFFFFFFFFFFFFFFFFFFFFFFFFFF DUP3 AND SWAP1 POP SWAP2 SWAP1 POP JUMP JUMPDEST PUSH0 PUSH2 0x1286 DUP3 PUSH2 0x125D JUMP JUMPDEST SWAP1 POP SWAP2 SWAP1 POP JUMP JUMPDEST PUSH2 0x1296 DUP2 PUSH2 0x127C JUMP JUMPDEST DUP2 EQ PUSH2 0x12A0 JUMPI PUSH0 DUP1 REVERT JUMPDEST POP JUMP JUMPDEST PUSH0 DUP2 CALLDATALOAD SWAP1 POP PUSH2 0x12B1 DUP2 PUSH2 0x128D JUMP JUMPDEST SWAP3 SWAP2 POP POP JUMP JUMPDEST PUSH0 DUP2 SWAP1 POP SWAP2 SWAP1 POP JUMP JUMPDEST PUSH2 0x12C9 DUP2 PUSH2 0x12B7 JUMP JUMPDEST DUP2 EQ PUSH2 0x12D3 JUMPI PUSH0 DUP1 REVERT JUMPDEST POP JUMP JUMPDEST PUSH0 DUP2 CALLDATALOAD SWAP1 POP PUSH2 0x12E4 DUP2 PUSH2 0x12C0 JUMP JUMPDEST SWAP3 SWAP2 POP POP JUMP JUMPDEST PUSH0 DUP1 PUSH1 0x40 DUP4 DUP6 SUB SLT ISZERO PUSH2 0x1300 JUMPI PUSH2 0x12FF PUSH2 0x1259 JUMP JUMPDEST JUMPDEST PUSH0 PUSH2 0x130D DUP6 DUP3 DUP7 ADD PUSH2 0x12A3 JUMP JUMPDEST SWAP3 POP POP PUSH1 0x20 PUSH2 0x131E DUP6 DUP3 DUP7 ADD PUSH2 0x12D6 JUMP JUMPDEST SWAP2 POP POP SWAP3 POP SWAP3 SWAP1 POP JUMP JUMPDEST PUSH0 DUP2 ISZERO ISZERO SWAP1 POP SWAP2 SWAP1 POP JUMP JUMPDEST PUSH2 0x133C DUP2 PUSH2 0x1328 JUMP JUMPDEST DUP3 MSTORE POP POP JUMP JUMPDEST PUSH0 PUSH1 0x20 DUP3 ADD SWAP1 POP PUSH2 0x1355 PUSH0 DUP4 ADD DUP5 PUSH2 0x1333 JUMP JUMPDEST SWAP3 SWAP2 POP POP JUMP JUMPDEST PUSH2 0x1364 DUP2 PUSH2 0x12B7 JUMP JUMPDEST DUP3 MSTORE POP POP JUMP JUMPDEST PUSH0 PUSH1 0x20 DUP3 ADD SWAP1 POP PUSH2 0x137D PUSH0 DUP4 ADD DUP5 PUSH2 0x135B JUMP JUMPDEST SWAP3 SWAP2 POP POP JUMP JUMPDEST PUSH0 DUP1 PUSH0 PUSH1 0x60 DUP5 DUP7 SUB SLT ISZERO PUSH2 0x139A JUMPI PUSH2 0x1399 PUSH2 0x1259 JUMP JUMPDEST JUMPDEST PUSH0 PUSH2 0x13A7 DUP7 DUP3 DUP8 ADD PUSH2 0x12A3 JUMP JUMPDEST SWAP4 POP POP PUSH1 0x20 PUSH2 0x13B8 DUP7 DUP3 DUP8 ADD PUSH2 0x12A3 JUMP JUMPDEST SWAP3 POP POP PUSH1 0x40 PUSH2 0x13C9 DUP7 DUP3 DUP8 ADD PUSH2 0x12D6 JUMP JUMPDEST SWAP2 POP POP SWAP3 POP SWAP3 POP SWAP3 JUMP JUMPDEST PUSH0 PUSH1 0xFF DUP3 AND SWAP1 POP SWAP2 SWAP1 POP JUMP JUMPDEST PUSH2 0x13E8 DUP2 PUSH2 0x13D3 JUMP JUMPDEST DUP3 MSTORE POP POP JUMP JUMPDEST PUSH0 PUSH1 0x20 DUP3 ADD SWAP1 POP PUSH2 0x1401 PUSH0 DUP4 ADD DUP5 PUSH2 0x13DF JUMP JUMPDEST SWAP3 SWAP2 POP POP JUMP JUMPDEST PUSH0 PUSH1 0x20 DUP3 DUP5 SUB SLT ISZERO PUSH2 0x141C JUMPI PUSH2 0x141B PUSH2 0x1259 JUMP JUMPDEST JUMPDEST PUSH0 PUSH2 0x1429 DUP5 DUP3 DUP6 ADD PUSH2 0x12A3 JUMP JUMPDEST SWAP2 POP POP SWAP3 SWAP2 POP POP JUMP JUMPDEST PUSH2 0x143B DUP2 PUSH2 0x127C JUMP JUMPDEST DUP3 MSTORE POP POP JUMP JUMPDEST PUSH0 PUSH1 0x20 DUP3 ADD SWAP1 POP PUSH2 0x1454 PUSH0 DUP4 ADD DUP5 PUSH2 0x1432 JUMP JUMPDEST SWAP3 SWAP2 POP POP JUMP JUMPDEST PUSH0 DUP1 PUSH1 0x40 DUP4 DUP6 SUB SLT ISZERO PUSH2 0x1470 JUMPI PUSH2 0x146F PUSH2 0x1259 JUMP JUMPDEST JUMPDEST PUSH0 PUSH2 0x147D DUP6 DUP3 DUP7 ADD PUSH2 0x12A3 JUMP JUMPDEST SWAP3 POP POP PUSH1 0x20 PUSH2 0x148E DUP6 DUP3 DUP7 ADD PUSH2 0x12A3 JUMP JUMPDEST SWAP2 POP POP SWAP3 POP SWAP3 SWAP1 POP JUMP JUMPDEST PUSH32 0x4E487B7100000000000000000000000000000000000000000000000000000000 PUSH0 MSTORE PUSH1 0x22 PUSH1 0x4 MSTORE PUSH1 0x24 PUSH0 REVERT JUMPDEST PUSH0 PUSH1 0x2 DUP3 DIV SWAP1 POP PUSH1 0x1 DUP3 AND DUP1 PUSH2 0x14DC JUMPI PUSH1 0x7F DUP3 AND SWAP2 POP JUMPDEST PUSH1 0x20 DUP3 LT DUP2 SUB PUSH2 0x14EF JUMPI PUSH2 0x14EE PUSH2 0x1498 JUMP JUMPDEST JUMPDEST POP SWAP2 SWAP1 POP JUMP JUMPDEST PUSH32 0x41646D696E277320746F6B656E7320617265206C6F636B656400000000000000 PUSH0 DUP3 ADD MSTORE POP JUMP JUMPDEST PUSH0 PUSH2 0x1529 PUSH1 0x19 DUP4 PUSH2 0x11B9 JUMP JUMPDEST SWAP2 POP PUSH2 0x1534 DUP3 PUSH2 0x14F5 JUMP JUMPDEST PUSH1 0x20 DUP3 ADD SWAP1 POP SWAP2 SWAP1 POP JUMP JUMPDEST PUSH0 PUSH1 0x20 DUP3 ADD SWAP1 POP DUP2 DUP2 SUB PUSH0 DUP4 ADD MSTORE PUSH2 0x1556 DUP2 PUSH2 0x151D JUMP JUMPDEST SWAP1 POP SWAP2 SWAP1 POP JUMP JUMPDEST PUSH32 0x546F6B656E7320617265206C6F636B6564000000000000000000000000000000 PUSH0 DUP3 ADD MSTORE POP JUMP JUMPDEST PUSH0 PUSH2 0x1591 PUSH1 0x11 DUP4 PUSH2 0x11B9 JUMP JUMPDEST SWAP2 POP PUSH2 0x159C DUP3 PUSH2 0x155D JUMP JUMPDEST PUSH1 0x20 DUP3 ADD SWAP1 POP SWAP2 SWAP1 POP JUMP JUMPDEST PUSH0 PUSH1 0x20 DUP3 ADD SWAP1 POP DUP2 DUP2 SUB PUSH0 DUP4 ADD MSTORE PUSH2 0x15BE DUP2 PUSH2 0x1585 JUMP JUMPDEST SWAP1 POP SWAP2 SWAP1 POP JUMP JUMPDEST PUSH32 0x4E487B7100000000000000000000000000000000000000000000000000000000 PUSH0 MSTORE PUSH1 0x11 PUSH1 0x4 MSTORE PUSH1 0x24 PUSH0 REVERT JUMPDEST PUSH0 PUSH2 0x15FC DUP3 PUSH2 0x12B7 JUMP JUMPDEST SWAP2 POP PUSH2 0x1607 DUP4 PUSH2 0x12B7 JUMP JUMPDEST SWAP3 POP DUP3 DUP3 ADD SWAP1 POP DUP1 DUP3 GT ISZERO PUSH2 0x161F JUMPI PUSH2 0x161E PUSH2 0x15C5 JUMP JUMPDEST JUMPDEST SWAP3 SWAP2 POP POP JUMP JUMPDEST PUSH0 PUSH2 0x162F DUP3 PUSH2 0x12B7 JUMP JUMPDEST SWAP2 POP PUSH2 0x163A DUP4 PUSH2 0x12B7 JUMP JUMPDEST SWAP3 POP DUP3 DUP3 MUL PUSH2 0x1648 DUP2 PUSH2 0x12B7 JUMP JUMPDEST SWAP2 POP DUP3 DUP3 DIV DUP5 EQ DUP4 ISZERO OR PUSH2 0x165F JUMPI PUSH2 0x165E PUSH2 0x15C5 JUMP JUMPDEST JUMPDEST POP SWAP3 SWAP2 POP POP JUMP JUMPDEST PUSH32 0x4E487B7100000000000000000000000000000000000000000000000000000000 PUSH0 MSTORE PUSH1 0x12 PUSH1 0x4 MSTORE PUSH1 0x24 PUSH0 REVERT JUMPDEST PUSH0 PUSH2 0x169D DUP3 PUSH2 0x12B7 JUMP JUMPDEST SWAP2 POP PUSH2 0x16A8 DUP4 PUSH2 0x12B7 JUMP JUMPDEST SWAP3 POP DUP3 PUSH2 0x16B8 JUMPI PUSH2 0x16B7 PUSH2 0x1666 JUMP JUMPDEST JUMPDEST DUP3 DUP3 DIV SWAP1 POP SWAP3 SWAP2 POP POP JUMP JUMPDEST PUSH32 0x4F776E657273686970206361707065642061742032302520746F20656E737572 PUSH0 DUP3 ADD MSTORE PUSH32 0x6520646563656E7472616C697A6174696F6E0000000000000000000000000000 PUSH1 0x20 DUP3 ADD MSTORE POP JUMP JUMPDEST PUSH0 PUSH2 0x171D PUSH1 0x32 DUP4 PUSH2 0x11B9 JUMP JUMPDEST SWAP2 POP PUSH2 0x1728 DUP3 PUSH2 0x16C3 JUMP JUMPDEST PUSH1 0x40 DUP3 ADD SWAP1 POP SWAP2 SWAP1 POP JUMP JUMPDEST PUSH0 PUSH1 0x20 DUP3 ADD SWAP1 POP DUP2 DUP2 SUB PUSH0 DUP4 ADD MSTORE PUSH2 0x174A DUP2 PUSH2 0x1711 JUMP JUMPDEST SWAP1 POP SWAP2 SWAP1 POP JUMP JUMPDEST PUSH32 0x61646D696E277320746F6B656E7320617265206C6F636B656420666F7220616E PUSH0 DUP3 ADD MSTORE PUSH32 0x2079656172000000000000000000000000000000000000000000000000000000 PUSH1 0x20 DUP3 ADD MSTORE POP JUMP JUMPDEST PUSH0 PUSH2 0x17AB PUSH1 0x25 DUP4 PUSH2 0x11B9 JUMP JUMPDEST SWAP2 POP PUSH2 0x17B6 DUP3 PUSH2 0x1751 JUMP JUMPDEST PUSH1 0x40 DUP3 ADD SWAP1 POP SWAP2 SWAP1 POP JUMP JUMPDEST PUSH0 PUSH1 0x20 DUP3 ADD SWAP1 POP DUP2 DUP2 SUB PUSH0 DUP4 ADD MSTORE PUSH2 0x17D8 DUP2 PUSH2 0x179F JUMP JUMPDEST SWAP1 POP SWAP2 SWAP1 POP JUMP JUMPDEST PUSH32 0x6E6F7420666F722073616C652079657400000000000000000000000000000000 PUSH0 DUP3 ADD MSTORE POP JUMP JUMPDEST PUSH0 PUSH2 0x1813 PUSH1 0x10 DUP4 PUSH2 0x11B9 JUMP JUMPDEST SWAP2 POP PUSH2 0x181E DUP3 PUSH2 0x17DF JUMP JUMPDEST PUSH1 0x20 DUP3 ADD SWAP1 POP SWAP2 SWAP1 POP JUMP JUMPDEST PUSH0 PUSH1 0x20 DUP3 ADD SWAP1 POP DUP2 DUP2 SUB PUSH0 DUP4 ADD MSTORE PUSH2 0x1840 DUP2 PUSH2 0x1807 JUMP JUMPDEST SWAP1 POP SWAP2 SWAP1 POP JUMP JUMPDEST PUSH0 PUSH1 0x60 DUP3 ADD SWAP1 POP PUSH2 0x185A PUSH0 DUP4 ADD DUP7 PUSH2 0x1432 JUMP JUMPDEST PUSH2 0x1867 PUSH1 0x20 DUP4 ADD DUP6 PUSH2 0x135B JUMP JUMPDEST PUSH2 0x1874 PUSH1 0x40 DUP4 ADD DUP5 PUSH2 0x135B JUMP JUMPDEST SWAP5 SWAP4 POP POP POP POP JUMP INVALID LOG2 PUSH5 0x6970667358 0x22 SLT KECCAK256 PUSH14 0xB3E6E5D6CD499890225B2505D93D ISZERO CODECOPY 0xCB SWAP16 PUSH8 0x1886DD8B12C8B746 0x4E 0xB9 0xDA 0xE6 PUSH5 0x736F6C6343 STOP ADDMOD EQ STOP CALLER "
		},
		"gasEstimates": {
			"creation": {
				"codeDepositCost": "1264400",
				"executionCost": "infinite",
				"totalCost": "infinite"
			},
			"external": {
				"ForceBurn(address,uint256)": "infinite",
				"ForceMint(address,uint256)": "infinite",
				"_adminLockTime()": "2470",
				"allowance(address,address)": "infinite",
				"approve(address,uint256)": "infinite",
				"balanceOf(address)": "2874",
				"decimals()": "353",
				"getDocumentURI()": "infinite",
				"getLockTime()": "2498",
				"name()": "infinite",
				"owner()": "2604",
				"renounceOwnership()": "infinite",
				"symbol()": "infinite",
				"totalSupply()": "2500",
				"transfer(address,uint256)": "infinite",
				"transferFrom(address,address,uint256)": "infinite",
				"transferOwnership(address)": "infinite"
			}
		},
		"methodIdentifiers": {
			"ForceBurn(address,uint256)": "ae84827a",
			"ForceMint(address,uint256)": "b93a5396",
			"_adminLockTime()": "9f3adb0e",
			"allowance(address,address)": "dd62ed3e",
			"approve(address,uint256)": "095ea7b3",
			"balanceOf(address)": "70a08231",
			"decimals()": "313ce567",
			"getDocumentURI()": "bd7dac92",
			"getLockTime()": "c0a4d64d",
			"name()": "06fdde03",
			"owner()": "8da5cb5b",
			"renounceOwnership()": "715018a6",
			"symbol()": "95d89b41",
			"totalSupply()": "18160ddd",
			"transfer(address,uint256)": "a9059cbb",
			"transferFrom(address,address,uint256)": "23b872dd",
			"transferOwnership(address)": "f2fde38b"
		}
	},
	"abi": [
		{
			"inputs": [
				{
					"internalType": "address",
					"name": "_owner",
					"type": "address"
				},
				{
					"internalType": "string",
					"name": "_name",
					"type": "string"
				},
				{
					"internalType": "string",
					"name": "_symbol",
					"type": "string"
				},
				{
					"internalType": "uint256",
					"name": "__totalSupply",
					"type": "uint256"
				},
				{
					"internalType": "address[]",
					"name": "subscribers",
					"type": "address[]"
				},
				{
					"internalType": "uint256[]",
					"name": "amounts",
					"type": "uint256[]"
				},
				{
					"internalType": "uint256",
					"name": "__lockTime",
					"type": "uint256"
				},
				{
					"internalType": "string",
					"name": "__documentURI",
					"type": "string"
				}
			],
			"stateMutability": "nonpayable",
			"type": "constructor"
		},
		{
			"inputs": [
				{
					"internalType": "address",
					"name": "spender",
					"type": "address"
				},
				{
					"internalType": "uint256",
					"name": "allowance",
					"type": "uint256"
				},
				{
					"internalType": "uint256",
					"name": "needed",
					"type": "uint256"
				}
			],
			"name": "ERC20InsufficientAllowance",
			"type": "error"
		},
		{
			"inputs": [
				{
					"internalType": "address",
					"name": "sender",
					"type": "address"
				},
				{
					"internalType": "uint256",
					"name": "balance",
					"type": "uint256"
				},
				{
					"internalType": "uint256",
					"name": "needed",
					"type": "uint256"
				}
			],
			"name": "ERC20InsufficientBalance",
			"type": "error"
		},
		{
			"inputs": [
				{
					"internalType": "address",
					"name": "approver",
					"type": "address"
				}
			],
			"name": "ERC20InvalidApprover",
			"type": "error"
		},
		{
			"inputs": [
				{
					"internalType": "address",
					"name": "receiver",
					"type": "address"
				}
			],
			"name": "ERC20InvalidReceiver",
			"type": "error"
		},
		{
			"inputs": [
				{
					"internalType": "address",
					"name": "sender",
					"type": "address"
				}
			],
			"name": "ERC20InvalidSender",
			"type": "error"
		},
		{
			"inputs": [
				{
					"internalType": "address",
					"name": "spender",
					"type": "address"
				}
			],
			"name": "ERC20InvalidSpender",
			"type": "error"
		},
		{
			"inputs": [
				{
					"internalType": "address",
					"name": "owner",
					"type": "address"
				}
			],
			"name": "OwnableInvalidOwner",
			"type": "error"
		},
		{
			"inputs": [
				{
					"internalType": "address",
					"name": "account",
					"type": "address"
				}
			],
			"name": "OwnableUnauthorizedAccount",
			"type": "error"
		},
		{
			"anonymous": false,
			"inputs": [
				{
					"indexed": true,
					"internalType": "address",
					"name": "owner",
					"type": "address"
				},
				{
					"indexed": true,
					"internalType": "address",
					"name": "spender",
					"type": "address"
				},
				{
					"indexed": false,
					"internalType": "uint256",
					"name": "value",
					"type": "uint256"
				}
			],
			"name": "Approval",
			"type": "event"
		},
		{
			"anonymous": false,
			"inputs": [
				{
					"indexed": true,
					"internalType": "address",
					"name": "previousOwner",
					"type": "address"
				},
				{
					"indexed": true,
					"internalType": "address",
					"name": "newOwner",
					"type": "address"
				}
			],
			"name": "OwnershipTransferred",
			"type": "event"
		},
		{
			"anonymous": false,
			"inputs": [
				{
					"indexed": true,
					"internalType": "address",
					"name": "from",
					"type": "address"
				},
				{
					"indexed": true,
					"internalType": "address",
					"name": "to",
					"type": "address"
				},
				{
					"indexed": false,
					"internalType": "uint256",
					"name": "value",
					"type": "uint256"
				}
			],
			"name": "Transfer",
			"type": "event"
		},
		{
			"inputs": [
				{
					"internalType": "address",
					"name": "_useraddress",
					"type": "address"
				},
				{
					"internalType": "uint256",
					"name": "amount",
					"type": "uint256"
				}
			],
			"name": "ForceBurn",
			"outputs": [],
			"stateMutability": "nonpayable",
			"type": "function"
		},
		{
			"inputs": [
				{
					"internalType": "address",
					"name": "_useraddress",
					"type": "address"
				},
				{
					"internalType": "uint256",
					"name": "amount",
					"type": "uint256"
				}
			],
			"name": "ForceMint",
			"outputs": [],
			"stateMutability": "nonpayable",
			"type": "function"
		},
		{
			"inputs": [],
			"name": "_adminLockTime",
			"outputs": [
				{
					"internalType": "uint256",
					"name": "",
					"type": "uint256"
				}
			],
			"stateMutability": "view",
			"type": "function"
		},
		{
			"inputs": [
				{
					"internalType": "address",
					"name": "owner",
					"type": "address"
				},
				{
					"internalType": "address",
					"name": "spender",
					"type": "address"
				}
			],
			"name": "allowance",
			"outputs": [
				{
					"internalType": "uint256",
					"name": "",
					"type": "uint256"
				}
			],
			"stateMutability": "view",
			"type": "function"
		},
		{
			"inputs": [
				{
					"internalType": "address",
					"name": "spender",
					"type": "address"
				},
				{
					"internalType": "uint256",
					"name": "value",
					"type": "uint256"
				}
			],
			"name": "approve",
			"outputs": [
				{
					"internalType": "bool",
					"name": "",
					"type": "bool"
				}
			],
			"stateMutability": "nonpayable",
			"type": "function"
		},
		{
			"inputs": [
				{
					"internalType": "address",
					"name": "account",
					"type": "address"
				}
			],
			"name": "balanceOf",
			"outputs": [
				{
					"internalType": "uint256",
					"name": "",
					"type": "uint256"
				}
			],
			"stateMutability": "view",
			"type": "function"
		},
		{
			"inputs": [],
			"name": "decimals",
			"outputs": [
				{
					"internalType": "uint8",
					"name": "",
					"type": "uint8"
				}
			],
			"stateMutability": "pure",
			"type": "function"
		},
		{
			"inputs": [],
			"name": "getDocumentURI",
			"outputs": [
				{
					"internalType": "string",
					"name": "",
					"type": "string"
				}
			],
			"stateMutability": "view",
			"type": "function"
		},
		{
			"inputs": [],
			"name": "getLockTime",
			"outputs": [
				{
					"internalType": "uint256",
					"name": "",
					"type": "uint256"
				}
			],
			"stateMutability": "view",
			"type": "function"
		},
		{
			"inputs": [],
			"name": "name",
			"outputs": [
				{
					"internalType": "string",
					"name": "",
					"type": "string"
				}
			],
			"stateMutability": "view",
			"type": "function"
		},
		{
			"inputs": [],
			"name": "owner",
			"outputs": [
				{
					"internalType": "address",
					"name": "",
					"type": "address"
				}
			],
			"stateMutability": "view",
			"type": "function"
		},
		{
			"inputs": [],
			"name": "renounceOwnership",
			"outputs": [],
			"stateMutability": "nonpayable",
			"type": "function"
		},
		{
			"inputs": [],
			"name": "symbol",
			"outputs": [
				{
					"internalType": "string",
					"name": "",
					"type": "string"
				}
			],
			"stateMutability": "view",
			"type": "function"
		},
		{
			"inputs": [],
			"name": "totalSupply",
			"outputs": [
				{
					"internalType": "uint256",
					"name": "",
					"type": "uint256"
				}
			],
			"stateMutability": "view",
			"type": "function"
		},
		{
			"inputs": [
				{
					"internalType": "address",
					"name": "to",
					"type": "address"
				},
				{
					"internalType": "uint256",
					"name": "amount",
					"type": "uint256"
				}
			],
			"name": "transfer",
			"outputs": [
				{
					"internalType": "bool",
					"name": "",
					"type": "bool"
				}
			],
			"stateMutability": "nonpayable",
			"type": "function"
		},
		{
			"inputs": [
				{
					"internalType": "address",
					"name": "from",
					"type": "address"
				},
				{
					"internalType": "address",
					"name": "to",
					"type": "address"
				},
				{
					"internalType": "uint256",
					"name": "amount",
					"type": "uint256"
				}
			],
			"name": "transferFrom",
			"outputs": [
				{
					"internalType": "bool",
					"name": "",
					"type": "bool"
				}
			],
			"stateMutability": "nonpayable",
			"type": "function"
		},
		{
			"inputs": [
				{
					"internalType": "address",
					"name": "newOwner",
					"type": "address"
				}
			],
			"name": "transferOwnership",
			"outputs": [],
			"stateMutability": "nonpayable",
			"type": "function"
		}
	]
}