{
	"data": {
		"bytecode": {
			"linkReferences": {},
			"object": "608060405234801561000f575f80fd5b50613a348061001d5f395ff3fe608060405234801562000010575f80fd5b506004361062000044575f3560e01c806329919df914620000485780638f1d5d5b146200006a578063d70f83c2146200008a575b5f80fd5b62000052620000c0565b604051620000619190620003b8565b60405180910390f35b62000088600480360381019062000082919062000767565b6200014c565b005b620000a86004803603810190620000a2919062000891565b62000233565b604051620000b79190620008d2565b60405180910390f35b60605f8054806020026020016040519081016040528092919081815260200182805480156200014257602002820191905f5260205f20905b815f9054906101000a900473ffffffffffffffffffffffffffffffffffffffff1673ffffffffffffffffffffffffffffffffffffffff1681526020019060010190808311620000f8575b5050505050905090565b5f8787878787878760405162000162906200026e565b62000174979695949392919062000b11565b604051809103905ff0801580156200018e573d5f803e3d5ffd5b5090505f81908060018154018082558091505060019003905f5260205f20015f9091909190916101000a81548173ffffffffffffffffffffffffffffffffffffffff021916908373ffffffffffffffffffffffffffffffffffffffff1602179055507f27a605bd6f3b3c78eadb81a0a33b42fb71a8ecf1e6933ef798380fac05b459658160405162000221919062000ba8565b60405180910390a15050505050505050565b5f818154811062000242575f80fd5b905f5260205f20015f915054906101000a900473ffffffffffffffffffffffffffffffffffffffff1681565b612e3b8062000bc483390190565b5f81519050919050565b5f82825260208201905092915050565b5f819050602082019050919050565b5f73ffffffffffffffffffffffffffffffffffffffff82169050919050565b5f819050919050565b5f620002ed620002e7620002e184620002a5565b620002c4565b620002a5565b9050919050565b5f6200030082620002cd565b9050919050565b5f6200031382620002f4565b9050919050565b620003258162000307565b82525050565b5f6200033883836200031a565b60208301905092915050565b5f602082019050919050565b5f6200035c826200027c565b62000368818562000286565b9350620003758362000296565b805f5b83811015620003ab5781516200038f88826200032b565b97506200039c8362000344565b92505060018101905062000378565b5085935050505092915050565b5f6020820190508181035f830152620003d2818462000350565b905092915050565b5f604051905090565b5f80fd5b5f80fd5b5f620003f782620002a5565b9050919050565b6200040981620003eb565b811462000414575f80fd5b50565b5f813590506200042781620003fe565b92915050565b5f80fd5b5f80fd5b5f601f19601f8301169050919050565b7f4e487b71000000000000000000000000000000000000000000000000000000005f52604160045260245ffd5b6200047d8262000435565b810181811067ffffffffffffffff821117156200049f576200049e62000445565b5b80604052505050565b5f620004b3620003da565b9050620004c1828262000472565b919050565b5f67ffffffffffffffff821115620004e357620004e262000445565b5b620004ee8262000435565b9050602081019050919050565b828183375f83830152505050565b5f6200051f6200051984620004c6565b620004a8565b9050828152602081018484840111156200053e576200053d62000431565b5b6200054b848285620004fb565b509392505050565b5f82601f8301126200056a57620005696200042d565b5b81356200057c84826020860162000509565b91505092915050565b5f819050919050565b620005998162000585565b8114620005a4575f80fd5b50565b5f81359050620005b7816200058e565b92915050565b5f67ffffffffffffffff821115620005da57620005d962000445565b5b602082029050602081019050919050565b5f80fd5b5f62000605620005ff84620005bd565b620004a8565b905080838252602082019050602084028301858111156200062b576200062a620005eb565b5b835b8181101562000658578062000643888262000417565b8452602084019350506020810190506200062d565b5050509392505050565b5f82601f8301126200067957620006786200042d565b5b81356200068b848260208601620005ef565b91505092915050565b5f67ffffffffffffffff821115620006b157620006b062000445565b5b602082029050602081019050919050565b5f620006d8620006d28462000694565b620004a8565b90508083825260208201905060208402830185811115620006fe57620006fd620005eb565b5b835b818110156200072b5780620007168882620005a7565b84526020840193505060208101905062000700565b5050509392505050565b5f82601f8301126200074c576200074b6200042d565b5b81356200075e848260208601620006c2565b91505092915050565b5f805f805f805f60e0888a031215620007855762000784620003e3565b5b5f620007948a828b0162000417565b975050602088013567ffffffffffffffff811115620007b857620007b7620003e7565b5b620007c68a828b0162000553565b965050604088013567ffffffffffffffff811115620007ea57620007e9620003e7565b5b620007f88a828b0162000553565b95505060606200080b8a828b01620005a7565b945050608088013567ffffffffffffffff8111156200082f576200082e620003e7565b5b6200083d8a828b0162000662565b93505060a088013567ffffffffffffffff811115620008615762000860620003e7565b5b6200086f8a828b0162000735565b92505060c0620008828a828b01620005a7565b91505092959891949750929550565b5f60208284031215620008a957620008a8620003e3565b5b5f620008b884828501620005a7565b91505092915050565b620008cc8162000307565b82525050565b5f602082019050620008e75f830184620008c1565b92915050565b620008f881620003eb565b82525050565b5f81519050919050565b5f82825260208201905092915050565b5f5b83811015620009375780820151818401526020810190506200091a565b5f8484015250505050565b5f6200094e82620008fe565b6200095a818562000908565b93506200096c81856020860162000918565b620009778162000435565b840191505092915050565b6200098d8162000585565b82525050565b5f81519050919050565b5f819050602082019050919050565b620009b781620003eb565b82525050565b5f620009ca8383620009ac565b60208301905092915050565b5f602082019050919050565b5f620009ee8262000993565b620009fa818562000286565b935062000a07836200099d565b805f5b8381101562000a3d57815162000a218882620009bd565b975062000a2e83620009d6565b92505060018101905062000a0a565b5085935050505092915050565b5f81519050919050565b5f82825260208201905092915050565b5f819050602082019050919050565b62000a7e8162000585565b82525050565b5f62000a91838362000a73565b60208301905092915050565b5f602082019050919050565b5f62000ab58262000a4a565b62000ac1818562000a54565b935062000ace8362000a64565b805f5b8381101562000b0457815162000ae8888262000a84565b975062000af58362000a9d565b92505060018101905062000ad1565b5085935050505092915050565b5f60e08201905062000b265f83018a620008ed565b818103602083015262000b3a818962000942565b9050818103604083015262000b50818862000942565b905062000b61606083018762000982565b818103608083015262000b758186620009e2565b905081810360a083015262000b8b818562000aa9565b905062000b9c60c083018462000982565b98975050505050505050565b5f60208201905062000bbd5f830184620008ed565b9291505056fe608060405234801562000010575f80fd5b5060405162002e3b38038062002e3b8339818101604052810190620000369190620009b7565b86868681600390816200004a919062000d0f565b5080600490816200005c919062000d0f565b5050505f73ffffffffffffffffffffffffffffffffffffffff168173ffffffffffffffffffffffffffffffffffffffff1603620000d2575f6040517f1e4fbdf7000000000000000000000000000000000000000000000000000000008152600401620000c9919062000e04565b60405180910390fd5b620000e3816200027e60201b60201c565b5081518351146200012b576040517f08c379a0000000000000000000000000000000000000000000000000000000008152600401620001229062000ea3565b60405180910390fd5b83600781905550804262000140919062000ef0565b6008819055505f5b835181101562000226576007546006548483815181106200016e576200016d62000f2a565b5b602002602001015162000182919062000ef0565b11156200018d575f80fd5b620001d9848281518110620001a757620001a662000f2a565b5b6020026020010151848381518110620001c557620001c462000f2a565b5b60200260200101516200034160201b60201c565b828181518110620001ef57620001ee62000f2a565b5b602002602001015160065f82825462000209919062000ef0565b9250508190555080806200021d9062000f57565b91505062000148565b505f6006546007546200023a919062000fa3565b90505f81111562000270576200025788826200034160201b60201c565b6301e133804262000269919062000ef0565b6009819055505b505050505050505062001044565b5f60055f9054906101000a900473ffffffffffffffffffffffffffffffffffffffff1690508160055f6101000a81548173ffffffffffffffffffffffffffffffffffffffff021916908373ffffffffffffffffffffffffffffffffffffffff1602179055508173ffffffffffffffffffffffffffffffffffffffff168173ffffffffffffffffffffffffffffffffffffffff167f8be0079c531659141344cd1fd0a4f28419497f9722a3daafe3b4186f6b6457e060405160405180910390a35050565b5f73ffffffffffffffffffffffffffffffffffffffff168273ffffffffffffffffffffffffffffffffffffffff1603620003b4575f6040517fec442f05000000000000000000000000000000000000000000000000000000008152600401620003ab919062000e04565b60405180910390fd5b620003c75f8383620003cb60201b60201c565b5050565b5f73ffffffffffffffffffffffffffffffffffffffff168373ffffffffffffffffffffffffffffffffffffffff16036200041f578060025f82825462000412919062000ef0565b92505081905550620004f0565b5f805f8573ffffffffffffffffffffffffffffffffffffffff1673ffffffffffffffffffffffffffffffffffffffff1681526020019081526020015f2054905081811015620004ab578381836040517fe450d38c000000000000000000000000000000000000000000000000000000008152600401620004a29392919062000fee565b60405180910390fd5b8181035f808673ffffffffffffffffffffffffffffffffffffffff1673ffffffffffffffffffffffffffffffffffffffff1681526020019081526020015f2081905550505b5f73ffffffffffffffffffffffffffffffffffffffff168273ffffffffffffffffffffffffffffffffffffffff160362000539578060025f828254039250508190555062000583565b805f808473ffffffffffffffffffffffffffffffffffffffff1673ffffffffffffffffffffffffffffffffffffffff1681526020019081526020015f205f82825401925050819055505b8173ffffffffffffffffffffffffffffffffffffffff168373ffffffffffffffffffffffffffffffffffffffff167fddf252ad1be2c89b69c2b068fc378daa952ba7f163c4a11628f55a4df523b3ef83604051620005e2919062001029565b60405180910390a3505050565b5f604051905090565b5f80fd5b5f80fd5b5f73ffffffffffffffffffffffffffffffffffffffff82169050919050565b5f6200062b8262000600565b9050919050565b6200063d816200061f565b811462000648575f80fd5b50565b5f815190506200065b8162000632565b92915050565b5f80fd5b5f80fd5b5f601f19601f8301169050919050565b7f4e487b71000000000000000000000000000000000000000000000000000000005f52604160045260245ffd5b620006b18262000669565b810181811067ffffffffffffffff82111715620006d357620006d262000679565b5b80604052505050565b5f620006e7620005ef565b9050620006f58282620006a6565b919050565b5f67ffffffffffffffff82111562000717576200071662000679565b5b620007228262000669565b9050602081019050919050565b5f5b838110156200074e57808201518184015260208101905062000731565b5f8484015250505050565b5f6200076f6200076984620006fa565b620006dc565b9050828152602081018484840111156200078e576200078d62000665565b5b6200079b8482856200072f565b509392505050565b5f82601f830112620007ba57620007b962000661565b5b8151620007cc84826020860162000759565b91505092915050565b5f819050919050565b620007e981620007d5565b8114620007f4575f80fd5b50565b5f815190506200080781620007de565b92915050565b5f67ffffffffffffffff8211156200082a576200082962000679565b5b602082029050602081019050919050565b5f80fd5b5f620008556200084f846200080d565b620006dc565b905080838252602082019050602084028301858111156200087b576200087a6200083b565b5b835b81811015620008a857806200089388826200064b565b8452602084019350506020810190506200087d565b5050509392505050565b5f82601f830112620008c957620008c862000661565b5b8151620008db8482602086016200083f565b91505092915050565b5f67ffffffffffffffff82111562000901576200090062000679565b5b602082029050602081019050919050565b5f620009286200092284620008e4565b620006dc565b905080838252602082019050602084028301858111156200094e576200094d6200083b565b5b835b818110156200097b5780620009668882620007f7565b84526020840193505060208101905062000950565b5050509392505050565b5f82601f8301126200099c576200099b62000661565b5b8151620009ae84826020860162000912565b91505092915050565b5f805f805f805f60e0888a031215620009d557620009d4620005f8565b5b5f620009e48a828b016200064b565b975050602088015167ffffffffffffffff81111562000a085762000a07620005fc565b5b62000a168a828b01620007a3565b965050604088015167ffffffffffffffff81111562000a3a5762000a39620005fc565b5b62000a488a828b01620007a3565b955050606062000a5b8a828b01620007f7565b945050608088015167ffffffffffffffff81111562000a7f5762000a7e620005fc565b5b62000a8d8a828b01620008b2565b93505060a088015167ffffffffffffffff81111562000ab15762000ab0620005fc565b5b62000abf8a828b0162000985565b92505060c062000ad28a828b01620007f7565b91505092959891949750929550565b5f81519050919050565b7f4e487b71000000000000000000000000000000000000000000000000000000005f52602260045260245ffd5b5f600282049050600182168062000b3057607f821691505b60208210810362000b465762000b4562000aeb565b5b50919050565b5f819050815f5260205f209050919050565b5f6020601f8301049050919050565b5f82821b905092915050565b5f6008830262000baa7fffffffffffffffffffffffffffffffffffffffffffffffffffffffffffffffff8262000b6d565b62000bb6868362000b6d565b95508019841693508086168417925050509392505050565b5f819050919050565b5f62000bf762000bf162000beb84620007d5565b62000bce565b620007d5565b9050919050565b5f819050919050565b62000c128362000bd7565b62000c2a62000c218262000bfe565b84845462000b79565b825550505050565b5f90565b62000c4062000c32565b62000c4d81848462000c07565b505050565b5b8181101562000c745762000c685f8262000c36565b60018101905062000c53565b5050565b601f82111562000cc35762000c8d8162000b4c565b62000c988462000b5e565b8101602085101562000ca8578190505b62000cc062000cb78562000b5e565b83018262000c52565b50505b505050565b5f82821c905092915050565b5f62000ce55f198460080262000cc8565b1980831691505092915050565b5f62000cff838362000cd4565b9150826002028217905092915050565b62000d1a8262000ae1565b67ffffffffffffffff81111562000d365762000d3562000679565b5b62000d42825462000b18565b62000d4f82828562000c78565b5f60209050601f83116001811462000d85575f841562000d70578287015190505b62000d7c858262000cf2565b86555062000deb565b601f19841662000d958662000b4c565b5f5b8281101562000dbe5784890151825560018201915060208501945060208101905062000d97565b8683101562000dde578489015162000dda601f89168262000cd4565b8355505b6001600288020188555050505b505050505050565b62000dfe816200061f565b82525050565b5f60208201905062000e195f83018462000df3565b92915050565b5f82825260208201905092915050565b7f737562736372696265727320616e6420746865697220616d6f756e747320646f5f8201527f206e6f74206d6174636800000000000000000000000000000000000000000000602082015250565b5f62000e8b602a8362000e1f565b915062000e988262000e2f565b604082019050919050565b5f6020820190508181035f83015262000ebc8162000e7d565b9050919050565b7f4e487b71000000000000000000000000000000000000000000000000000000005f52601160045260245ffd5b5f62000efc82620007d5565b915062000f0983620007d5565b925082820190508082111562000f245762000f2362000ec3565b5b92915050565b7f4e487b71000000000000000000000000000000000000000000000000000000005f52603260045260245ffd5b5f62000f6382620007d5565b91507fffffffffffffffffffffffffffffffffffffffffffffffffffffffffffffffff820362000f985762000f9762000ec3565b5b600182019050919050565b5f62000faf82620007d5565b915062000fbc83620007d5565b925082820390508181111562000fd75762000fd662000ec3565b5b92915050565b62000fe881620007d5565b82525050565b5f606082019050620010035f83018662000df3565b62001012602083018562000fdd565b62001021604083018462000fdd565b949350505050565b5f6020820190506200103e5f83018462000fdd565b92915050565b611de980620010525f395ff3fe608060405234801561000f575f80fd5b5060043610610114575f3560e01c806395d89b41116100a0578063b93a53961161006f578063b93a5396146102ce578063bd7dac92146102ea578063c0a4d64d14610308578063dd62ed3e14610326578063f2fde38b1461035657610114565b806395d89b41146102465780639f3adb0e14610264578063a9059cbb14610282578063ae84827a146102b257610114565b806323b872dd116100e757806323b872dd146101a0578063313ce567146101d057806370a08231146101ee578063715018a61461021e5780638da5cb5b1461022857610114565b806306fdde0314610118578063095ea7b3146101365780630de65a441461016657806318160ddd14610182575b5f80fd5b610120610372565b60405161012d91906112b9565b60405180910390f35b610150600480360381019061014b9190611377565b610402565b60405161015d91906113cf565b60405180910390f35b610180600480360381019061017b9190611514565b610424565b005b61018a61043f565b604051610197919061156a565b60405180910390f35b6101ba60048036038101906101b59190611583565b610448565b6040516101c791906113cf565b60405180910390f35b6101d86105a0565b6040516101e591906115ee565b60405180910390f35b61020860048036038101906102039190611607565b6105a4565b604051610215919061156a565b60405180910390f35b6102266105e9565b005b6102306105fc565b60405161023d9190611641565b60405180910390f35b61024e610624565b60405161025b91906112b9565b60405180910390f35b61026c6106b4565b604051610279919061156a565b60405180910390f35b61029c60048036038101906102979190611377565b6106ba565b6040516102a991906113cf565b60405180910390f35b6102cc60048036038101906102c79190611377565b610849565b005b6102e860048036038101906102e39190611377565b61085f565b005b6102f2610875565b6040516102ff91906112b9565b60405180910390f35b610310610905565b60405161031d919061156a565b60405180910390f35b610340600480360381019061033b919061165a565b61090e565b60405161034d919061156a565b60405180910390f35b610370600480360381019061036b9190611607565b610990565b005b606060038054610381906116c5565b80601f01602080910402602001604051908101604052809291908181526020018280546103ad906116c5565b80156103f85780601f106103cf576101008083540402835291602001916103f8565b820191905f5260205f20905b8154815290600101906020018083116103db57829003601f168201915b5050505050905090565b5f8061040c610a14565b9050610419818585610a1b565b600191505092915050565b61042c610a2d565b80600a908161043b9190611892565b5050565b5f600254905090565b5f6104516105fc565b73ffffffffffffffffffffffffffffffffffffffff168473ffffffffffffffffffffffffffffffffffffffff16036104cd576009544210156104c8576040517f08c379a00000000000000000000000000000000000000000000000000000000081526004016104bf906119ab565b60405180910390fd5b610513565b600854421015610512576040517f08c379a000000000000000000000000000000000000000000000000000000000815260040161050990611a13565b60405180910390fd5b5b5f8261051e856105a4565b6105289190611a5e565b9050606461053461043f565b60146105409190611a91565b61054a9190611aff565b811061058b576040517f08c379a000000000000000000000000000000000000000000000000000000000815260040161058290611b9f565b60405180910390fd5b610596858585610ab4565b9150509392505050565b5f90565b5f805f8373ffffffffffffffffffffffffffffffffffffffff1673ffffffffffffffffffffffffffffffffffffffff1681526020019081526020015f20549050919050565b6105f1610a2d565b6105fa5f610ae2565b565b5f60055f9054906101000a900473ffffffffffffffffffffffffffffffffffffffff16905090565b606060048054610633906116c5565b80601f016020809104026020016040519081016040528092919081815260200182805461065f906116c5565b80156106aa5780601f10610681576101008083540402835291602001916106aa565b820191905f5260205f20905b81548152906001019060200180831161068d57829003601f168201915b5050505050905090565b60095481565b5f6106c36105fc565b73ffffffffffffffffffffffffffffffffffffffff163373ffffffffffffffffffffffffffffffffffffffff160361073b5760095442101561073a576040517f08c379a000000000000000000000000000000000000000000000000000000000815260040161073190611c2d565b60405180910390fd5b5b600854421015610780576040517f08c379a000000000000000000000000000000000000000000000000000000000815260040161077790611c95565b60405180910390fd5b5f8261078b856105a4565b6107959190611a5e565b905060646107a161043f565b60146107ad9190611a91565b6107b79190611aff565b81106107f8576040517f08c379a00000000000000000000000000000000000000000000000000000000081526004016107ef90611b9f565b60405180910390fd5b7f8519cdb8ad47f1f5f5bc583d2063d1fc1ffed7dac0cab9e8b1f6492aa60cbd7f338585600b60405161082e9493929190611d34565b60405180910390a16108408484610ba5565b91505092915050565b610851610a2d565b61085b8282610bc7565b5050565b610867610a2d565b6108718282610c46565b5050565b6060600a8054610884906116c5565b80601f01602080910402602001604051908101604052809291908181526020018280546108b0906116c5565b80156108fb5780601f106108d2576101008083540402835291602001916108fb565b820191905f5260205f20905b8154815290600101906020018083116108de57829003601f168201915b5050505050905090565b5f600854905090565b5f60015f8473ffffffffffffffffffffffffffffffffffffffff1673ffffffffffffffffffffffffffffffffffffffff1681526020019081526020015f205f8373ffffffffffffffffffffffffffffffffffffffff1673ffffffffffffffffffffffffffffffffffffffff1681526020019081526020015f2054905092915050565b610998610a2d565b5f73ffffffffffffffffffffffffffffffffffffffff168173ffffffffffffffffffffffffffffffffffffffff1603610a08575f6040517f1e4fbdf70000000000000000000000000000000000000000000000000000000081526004016109ff9190611641565b60405180910390fd5b610a1181610ae2565b50565b5f33905090565b610a288383836001610cc5565b505050565b610a35610a14565b73ffffffffffffffffffffffffffffffffffffffff16610a536105fc565b73ffffffffffffffffffffffffffffffffffffffff1614610ab257610a76610a14565b6040517f118cdaa7000000000000000000000000000000000000000000000000000000008152600401610aa99190611641565b60405180910390fd5b565b5f80610abe610a14565b9050610acb858285610e94565b610ad6858585610f26565b60019150509392505050565b5f60055f9054906101000a900473ffffffffffffffffffffffffffffffffffffffff1690508160055f6101000a81548173ffffffffffffffffffffffffffffffffffffffff021916908373ffffffffffffffffffffffffffffffffffffffff1602179055508173ffffffffffffffffffffffffffffffffffffffff168173ffffffffffffffffffffffffffffffffffffffff167f8be0079c531659141344cd1fd0a4f28419497f9722a3daafe3b4186f6b6457e060405160405180910390a35050565b5f80610baf610a14565b9050610bbc818585610f26565b600191505092915050565b5f73ffffffffffffffffffffffffffffffffffffffff168273ffffffffffffffffffffffffffffffffffffffff1603610c37575f6040517f96c6fd1e000000000000000000000000000000000000000000000000000000008152600401610c2e9190611641565b60405180910390fd5b610c42825f83611016565b5050565b5f73ffffffffffffffffffffffffffffffffffffffff168273ffffffffffffffffffffffffffffffffffffffff1603610cb6575f6040517fec442f05000000000000000000000000000000000000000000000000000000008152600401610cad9190611641565b60405180910390fd5b610cc15f8383611016565b5050565b5f73ffffffffffffffffffffffffffffffffffffffff168473ffffffffffffffffffffffffffffffffffffffff1603610d35575f6040517fe602df05000000000000000000000000000000000000000000000000000000008152600401610d2c9190611641565b60405180910390fd5b5f73ffffffffffffffffffffffffffffffffffffffff168373ffffffffffffffffffffffffffffffffffffffff1603610da5575f6040517f94280d62000000000000000000000000000000000000000000000000000000008152600401610d9c9190611641565b60405180910390fd5b8160015f8673ffffffffffffffffffffffffffffffffffffffff1673ffffffffffffffffffffffffffffffffffffffff1681526020019081526020015f205f8573ffffffffffffffffffffffffffffffffffffffff1673ffffffffffffffffffffffffffffffffffffffff1681526020019081526020015f20819055508015610e8e578273ffffffffffffffffffffffffffffffffffffffff168473ffffffffffffffffffffffffffffffffffffffff167f8c5be1e5ebec7d5bd14f71427d1e84f3dd0314c0f7b2291e5b200ac8c7c3b92584604051610e85919061156a565b60405180910390a35b50505050565b5f610e9f848461090e565b90507fffffffffffffffffffffffffffffffffffffffffffffffffffffffffffffffff8114610f205781811015610f11578281836040517ffb8f41b2000000000000000000000000000000000000000000000000000000008152600401610f0893929190611d7e565b60405180910390fd5b610f1f84848484035f610cc5565b5b50505050565b5f73ffffffffffffffffffffffffffffffffffffffff168373ffffffffffffffffffffffffffffffffffffffff1603610f96575f6040517f96c6fd1e000000000000000000000000000000000000000000000000000000008152600401610f8d9190611641565b60405180910390fd5b5f73ffffffffffffffffffffffffffffffffffffffff168273ffffffffffffffffffffffffffffffffffffffff1603611006575f6040517fec442f05000000000000000000000000000000000000000000000000000000008152600401610ffd9190611641565b60405180910390fd5b611011838383611016565b505050565b5f73ffffffffffffffffffffffffffffffffffffffff168373ffffffffffffffffffffffffffffffffffffffff1603611066578060025f82825461105a9190611a5e565b92505081905550611134565b5f805f8573ffffffffffffffffffffffffffffffffffffffff1673ffffffffffffffffffffffffffffffffffffffff1681526020019081526020015f20549050818110156110ef578381836040517fe450d38c0000000000000000000000000000000000000000000000000000000081526004016110e693929190611d7e565b60405180910390fd5b8181035f808673ffffffffffffffffffffffffffffffffffffffff1673ffffffffffffffffffffffffffffffffffffffff1681526020019081526020015f2081905550505b5f73ffffffffffffffffffffffffffffffffffffffff168273ffffffffffffffffffffffffffffffffffffffff160361117b578060025f82825403925050819055506111c5565b805f808473ffffffffffffffffffffffffffffffffffffffff1673ffffffffffffffffffffffffffffffffffffffff1681526020019081526020015f205f82825401925050819055505b8173ffffffffffffffffffffffffffffffffffffffff168373ffffffffffffffffffffffffffffffffffffffff167fddf252ad1be2c89b69c2b068fc378daa952ba7f163c4a11628f55a4df523b3ef83604051611222919061156a565b60405180910390a3505050565b5f81519050919050565b5f82825260208201905092915050565b5f5b8381101561126657808201518184015260208101905061124b565b5f8484015250505050565b5f601f19601f8301169050919050565b5f61128b8261122f565b6112958185611239565b93506112a5818560208601611249565b6112ae81611271565b840191505092915050565b5f6020820190508181035f8301526112d18184611281565b905092915050565b5f604051905090565b5f80fd5b5f80fd5b5f73ffffffffffffffffffffffffffffffffffffffff82169050919050565b5f611313826112ea565b9050919050565b61132381611309565b811461132d575f80fd5b50565b5f8135905061133e8161131a565b92915050565b5f819050919050565b61135681611344565b8114611360575f80fd5b50565b5f813590506113718161134d565b92915050565b5f806040838503121561138d5761138c6112e2565b5b5f61139a85828601611330565b92505060206113ab85828601611363565b9150509250929050565b5f8115159050919050565b6113c9816113b5565b82525050565b5f6020820190506113e25f8301846113c0565b92915050565b5f80fd5b5f80fd5b7f4e487b71000000000000000000000000000000000000000000000000000000005f52604160045260245ffd5b61142682611271565b810181811067ffffffffffffffff82111715611445576114446113f0565b5b80604052505050565b5f6114576112d9565b9050611463828261141d565b919050565b5f67ffffffffffffffff821115611482576114816113f0565b5b61148b82611271565b9050602081019050919050565b828183375f83830152505050565b5f6114b86114b384611468565b61144e565b9050828152602081018484840111156114d4576114d36113ec565b5b6114df848285611498565b509392505050565b5f82601f8301126114fb576114fa6113e8565b5b813561150b8482602086016114a6565b91505092915050565b5f60208284031215611529576115286112e2565b5b5f82013567ffffffffffffffff811115611546576115456112e6565b5b611552848285016114e7565b91505092915050565b61156481611344565b82525050565b5f60208201905061157d5f83018461155b565b92915050565b5f805f6060848603121561159a576115996112e2565b5b5f6115a786828701611330565b93505060206115b886828701611330565b92505060406115c986828701611363565b9150509250925092565b5f60ff82169050919050565b6115e8816115d3565b82525050565b5f6020820190506116015f8301846115df565b92915050565b5f6020828403121561161c5761161b6112e2565b5b5f61162984828501611330565b91505092915050565b61163b81611309565b82525050565b5f6020820190506116545f830184611632565b92915050565b5f80604083850312156116705761166f6112e2565b5b5f61167d85828601611330565b925050602061168e85828601611330565b9150509250929050565b7f4e487b71000000000000000000000000000000000000000000000000000000005f52602260045260245ffd5b5f60028204905060018216806116dc57607f821691505b6020821081036116ef576116ee611698565b5b50919050565b5f819050815f5260205f209050919050565b5f6020601f8301049050919050565b5f82821b905092915050565b5f600883026117517fffffffffffffffffffffffffffffffffffffffffffffffffffffffffffffffff82611716565b61175b8683611716565b95508019841693508086168417925050509392505050565b5f819050919050565b5f61179661179161178c84611344565b611773565b611344565b9050919050565b5f819050919050565b6117af8361177c565b6117c36117bb8261179d565b848454611722565b825550505050565b5f90565b6117d76117cb565b6117e28184846117a6565b505050565b5b81811015611805576117fa5f826117cf565b6001810190506117e8565b5050565b601f82111561184a5761181b816116f5565b61182484611707565b81016020851015611833578190505b61184761183f85611707565b8301826117e7565b50505b505050565b5f82821c905092915050565b5f61186a5f198460080261184f565b1980831691505092915050565b5f611882838361185b565b9150826002028217905092915050565b61189b8261122f565b67ffffffffffffffff8111156118b4576118b36113f0565b5b6118be82546116c5565b6118c9828285611809565b5f60209050601f8311600181146118fa575f84156118e8578287015190505b6118f28582611877565b865550611959565b601f198416611908866116f5565b5f5b8281101561192f5784890151825560018201915060208501945060208101905061190a565b8683101561194c5784890151611948601f89168261185b565b8355505b6001600288020188555050505b505050505050565b7f41646d696e277320746f6b656e7320617265206c6f636b6564000000000000005f82015250565b5f611995601983611239565b91506119a082611961565b602082019050919050565b5f6020820190508181035f8301526119c281611989565b9050919050565b7f546f6b656e7320617265206c6f636b65640000000000000000000000000000005f82015250565b5f6119fd601183611239565b9150611a08826119c9565b602082019050919050565b5f6020820190508181035f830152611a2a816119f1565b9050919050565b7f4e487b71000000000000000000000000000000000000000000000000000000005f52601160045260245ffd5b5f611a6882611344565b9150611a7383611344565b9250828201905080821115611a8b57611a8a611a31565b5b92915050565b5f611a9b82611344565b9150611aa683611344565b9250828202611ab481611344565b91508282048414831517611acb57611aca611a31565b5b5092915050565b7f4e487b71000000000000000000000000000000000000000000000000000000005f52601260045260245ffd5b5f611b0982611344565b9150611b1483611344565b925082611b2457611b23611ad2565b5b828204905092915050565b7f4f776e657273686970206361707065642061742032302520746f20656e7375725f8201527f6520646563656e7472616c697a6174696f6e0000000000000000000000000000602082015250565b5f611b89603283611239565b9150611b9482611b2f565b604082019050919050565b5f6020820190508181035f830152611bb681611b7d565b9050919050565b7f61646d696e277320746f6b656e7320617265206c6f636b656420666f7220616e5f8201527f2079656172000000000000000000000000000000000000000000000000000000602082015250565b5f611c17602583611239565b9150611c2282611bbd565b604082019050919050565b5f6020820190508181035f830152611c4481611c0b565b9050919050565b7f6e6f7420666f722073616c6520796574000000000000000000000000000000005f82015250565b5f611c7f601083611239565b9150611c8a82611c4b565b602082019050919050565b5f6020820190508181035f830152611cac81611c73565b9050919050565b5f8154611cbf816116c5565b611cc98186611239565b9450600182165f8114611ce35760018114611cf957611d2b565b60ff198316865281151560200286019350611d2b565b611d02856116f5565b5f5b83811015611d2357815481890152600182019150602081019050611d04565b808801955050505b50505092915050565b5f608082019050611d475f830187611632565b611d546020830186611632565b611d61604083018561155b565b8181036060830152611d738184611cb3565b905095945050505050565b5f606082019050611d915f830186611632565b611d9e602083018561155b565b611dab604083018461155b565b94935050505056fea264697066735822122092c21c1613c4c8d5c79efa6880d314e07baba0952e9f6db648517cb9cf6882bc64736f6c63430008140033a26469706673582212209ec9f1e05b38c34113a63bd57d816b3eced4c0ade5d474fd32e1f88e572b420064736f6c63430008140033",
			"opcodes": "PUSH1 0x80 PUSH1 0x40 MSTORE CALLVALUE DUP1 ISZERO PUSH2 0xF JUMPI PUSH0 DUP1 REVERT JUMPDEST POP PUSH2 0x3A34 DUP1 PUSH2 0x1D PUSH0 CODECOPY PUSH0 RETURN INVALID PUSH1 0x80 PUSH1 0x40 MSTORE CALLVALUE DUP1 ISZERO PUSH3 0x10 JUMPI PUSH0 DUP1 REVERT JUMPDEST POP PUSH1 0x4 CALLDATASIZE LT PUSH3 0x44 JUMPI PUSH0 CALLDATALOAD PUSH1 0xE0 SHR DUP1 PUSH4 0x29919DF9 EQ PUSH3 0x48 JUMPI DUP1 PUSH4 0x8F1D5D5B EQ PUSH3 0x6A JUMPI DUP1 PUSH4 0xD70F83C2 EQ PUSH3 0x8A JUMPI JUMPDEST PUSH0 DUP1 REVERT JUMPDEST PUSH3 0x52 PUSH3 0xC0 JUMP JUMPDEST PUSH1 0x40 MLOAD PUSH3 0x61 SWAP2 SWAP1 PUSH3 0x3B8 JUMP JUMPDEST PUSH1 0x40 MLOAD DUP1 SWAP2 SUB SWAP1 RETURN JUMPDEST PUSH3 0x88 PUSH1 0x4 DUP1 CALLDATASIZE SUB DUP2 ADD SWAP1 PUSH3 0x82 SWAP2 SWAP1 PUSH3 0x767 JUMP JUMPDEST PUSH3 0x14C JUMP JUMPDEST STOP JUMPDEST PUSH3 0xA8 PUSH1 0x4 DUP1 CALLDATASIZE SUB DUP2 ADD SWAP1 PUSH3 0xA2 SWAP2 SWAP1 PUSH3 0x891 JUMP JUMPDEST PUSH3 0x233 JUMP JUMPDEST PUSH1 0x40 MLOAD PUSH3 0xB7 SWAP2 SWAP1 PUSH3 0x8D2 JUMP JUMPDEST PUSH1 0x40 MLOAD DUP1 SWAP2 SUB SWAP1 RETURN JUMPDEST PUSH1 0x60 PUSH0 DUP1 SLOAD DUP1 PUSH1 0x20 MUL PUSH1 0x20 ADD PUSH1 0x40 MLOAD SWAP1 DUP2 ADD PUSH1 0x40 MSTORE DUP1 SWAP3 SWAP2 SWAP1 DUP2 DUP2 MSTORE PUSH1 0x20 ADD DUP3 DUP1 SLOAD DUP1 ISZERO PUSH3 0x142 JUMPI PUSH1 0x20 MUL DUP3 ADD SWAP2 SWAP1 PUSH0 MSTORE PUSH1 0x20 PUSH0 KECCAK256 SWAP1 JUMPDEST DUP2 PUSH0 SWAP1 SLOAD SWAP1 PUSH2 0x100 EXP SWAP1 DIV PUSH20 0xFFFFFFFFFFFFFFFFFFFFFFFFFFFFFFFFFFFFFFFF AND PUSH20 0xFFFFFFFFFFFFFFFFFFFFFFFFFFFFFFFFFFFFFFFF AND DUP2 MSTORE PUSH1 0x20 ADD SWAP1 PUSH1 0x1 ADD SWAP1 DUP1 DUP4 GT PUSH3 0xF8 JUMPI JUMPDEST POP POP POP POP POP SWAP1 POP SWAP1 JUMP JUMPDEST PUSH0 DUP8 DUP8 DUP8 DUP8 DUP8 DUP8 DUP8 PUSH1 0x40 MLOAD PUSH3 0x162 SWAP1 PUSH3 0x26E JUMP JUMPDEST PUSH3 0x174 SWAP8 SWAP7 SWAP6 SWAP5 SWAP4 SWAP3 SWAP2 SWAP1 PUSH3 0xB11 JUMP JUMPDEST PUSH1 0x40 MLOAD DUP1 SWAP2 SUB SWAP1 PUSH0 CREATE DUP1 ISZERO DUP1 ISZERO PUSH3 0x18E JUMPI RETURNDATASIZE PUSH0 DUP1 RETURNDATACOPY RETURNDATASIZE PUSH0 REVERT JUMPDEST POP SWAP1 POP PUSH0 DUP2 SWAP1 DUP1 PUSH1 0x1 DUP2 SLOAD ADD DUP1 DUP3 SSTORE DUP1 SWAP2 POP POP PUSH1 0x1 SWAP1 SUB SWAP1 PUSH0 MSTORE PUSH1 0x20 PUSH0 KECCAK256 ADD PUSH0 SWAP1 SWAP2 SWAP1 SWAP2 SWAP1 SWAP2 PUSH2 0x100 EXP DUP2 SLOAD DUP2 PUSH20 0xFFFFFFFFFFFFFFFFFFFFFFFFFFFFFFFFFFFFFFFF MUL NOT AND SWAP1 DUP4 PUSH20 0xFFFFFFFFFFFFFFFFFFFFFFFFFFFFFFFFFFFFFFFF AND MUL OR SWAP1 SSTORE POP PUSH32 0x27A605BD6F3B3C78EADB81A0A33B42FB71A8ECF1E6933EF798380FAC05B45965 DUP2 PUSH1 0x40 MLOAD PUSH3 0x221 SWAP2 SWAP1 PUSH3 0xBA8 JUMP JUMPDEST PUSH1 0x40 MLOAD DUP1 SWAP2 SUB SWAP1 LOG1 POP POP POP POP POP POP POP POP JUMP JUMPDEST PUSH0 DUP2 DUP2 SLOAD DUP2 LT PUSH3 0x242 JUMPI PUSH0 DUP1 REVERT JUMPDEST SWAP1 PUSH0 MSTORE PUSH1 0x20 PUSH0 KECCAK256 ADD PUSH0 SWAP2 POP SLOAD SWAP1 PUSH2 0x100 EXP SWAP1 DIV PUSH20 0xFFFFFFFFFFFFFFFFFFFFFFFFFFFFFFFFFFFFFFFF AND DUP2 JUMP JUMPDEST PUSH2 0x2E3B DUP1 PUSH3 0xBC4 DUP4 CODECOPY ADD SWAP1 JUMP JUMPDEST PUSH0 DUP2 MLOAD SWAP1 POP SWAP2 SWAP1 POP JUMP JUMPDEST PUSH0 DUP3 DUP3 MSTORE PUSH1 0x20 DUP3 ADD SWAP1 POP SWAP3 SWAP2 POP POP JUMP JUMPDEST PUSH0 DUP2 SWAP1 POP PUSH1 0x20 DUP3 ADD SWAP1 POP SWAP2 SWAP1 POP JUMP JUMPDEST PUSH0 PUSH20 0xFFFFFFFFFFFFFFFFFFFFFFFFFFFFFFFFFFFFFFFF DUP3 AND SWAP1 POP SWAP2 SWAP1 POP JUMP JUMPDEST PUSH0 DUP2 SWAP1 POP SWAP2 SWAP1 POP JUMP JUMPDEST PUSH0 PUSH3 0x2ED PUSH3 0x2E7 PUSH3 0x2E1 DUP5 PUSH3 0x2A5 JUMP JUMPDEST PUSH3 0x2C4 JUMP JUMPDEST PUSH3 0x2A5 JUMP JUMPDEST SWAP1 POP SWAP2 SWAP1 POP JUMP JUMPDEST PUSH0 PUSH3 0x300 DUP3 PUSH3 0x2CD JUMP JUMPDEST SWAP1 POP SWAP2 SWAP1 POP JUMP JUMPDEST PUSH0 PUSH3 0x313 DUP3 PUSH3 0x2F4 JUMP JUMPDEST SWAP1 POP SWAP2 SWAP1 POP JUMP JUMPDEST PUSH3 0x325 DUP2 PUSH3 0x307 JUMP JUMPDEST DUP3 MSTORE POP POP JUMP JUMPDEST PUSH0 PUSH3 0x338 DUP4 DUP4 PUSH3 0x31A JUMP JUMPDEST PUSH1 0x20 DUP4 ADD SWAP1 POP SWAP3 SWAP2 POP POP JUMP JUMPDEST PUSH0 PUSH1 0x20 DUP3 ADD SWAP1 POP SWAP2 SWAP1 POP JUMP JUMPDEST PUSH0 PUSH3 0x35C DUP3 PUSH3 0x27C JUMP JUMPDEST PUSH3 0x368 DUP2 DUP6 PUSH3 0x286 JUMP JUMPDEST SWAP4 POP PUSH3 0x375 DUP4 PUSH3 0x296 JUMP JUMPDEST DUP1 PUSH0 JUMPDEST DUP4 DUP2 LT ISZERO PUSH3 0x3AB JUMPI DUP2 MLOAD PUSH3 0x38F DUP9 DUP3 PUSH3 0x32B JUMP JUMPDEST SWAP8 POP PUSH3 0x39C DUP4 PUSH3 0x344 JUMP JUMPDEST SWAP3 POP POP PUSH1 0x1 DUP2 ADD SWAP1 POP PUSH3 0x378 JUMP JUMPDEST POP DUP6 SWAP4 POP POP POP POP SWAP3 SWAP2 POP POP JUMP JUMPDEST PUSH0 PUSH1 0x20 DUP3 ADD SWAP1 POP DUP2 DUP2 SUB PUSH0 DUP4 ADD MSTORE PUSH3 0x3D2 DUP2 DUP5 PUSH3 0x350 JUMP JUMPDEST SWAP1 POP SWAP3 SWAP2 POP POP JUMP JUMPDEST PUSH0 PUSH1 0x40 MLOAD SWAP1 POP SWAP1 JUMP JUMPDEST PUSH0 DUP1 REVERT JUMPDEST PUSH0 DUP1 REVERT JUMPDEST PUSH0 PUSH3 0x3F7 DUP3 PUSH3 0x2A5 JUMP JUMPDEST SWAP1 POP SWAP2 SWAP1 POP JUMP JUMPDEST PUSH3 0x409 DUP2 PUSH3 0x3EB JUMP JUMPDEST DUP2 EQ PUSH3 0x414 JUMPI PUSH0 DUP1 REVERT JUMPDEST POP JUMP JUMPDEST PUSH0 DUP2 CALLDATALOAD SWAP1 POP PUSH3 0x427 DUP2 PUSH3 0x3FE JUMP JUMPDEST SWAP3 SWAP2 POP POP JUMP JUMPDEST PUSH0 DUP1 REVERT JUMPDEST PUSH0 DUP1 REVERT JUMPDEST PUSH0 PUSH1 0x1F NOT PUSH1 0x1F DUP4 ADD AND SWAP1 POP SWAP2 SWAP1 POP JUMP JUMPDEST PUSH32 0x4E487B7100000000000000000000000000000000000000000000000000000000 PUSH0 MSTORE PUSH1 0x41 PUSH1 0x4 MSTORE PUSH1 0x24 PUSH0 REVERT JUMPDEST PUSH3 0x47D DUP3 PUSH3 0x435 JUMP JUMPDEST DUP2 ADD DUP2 DUP2 LT PUSH8 0xFFFFFFFFFFFFFFFF DUP3 GT OR ISZERO PUSH3 0x49F JUMPI PUSH3 0x49E PUSH3 0x445 JUMP JUMPDEST JUMPDEST DUP1 PUSH1 0x40 MSTORE POP POP POP JUMP JUMPDEST PUSH0 PUSH3 0x4B3 PUSH3 0x3DA JUMP JUMPDEST SWAP1 POP PUSH3 0x4C1 DUP3 DUP3 PUSH3 0x472 JUMP JUMPDEST SWAP2 SWAP1 POP JUMP JUMPDEST PUSH0 PUSH8 0xFFFFFFFFFFFFFFFF DUP3 GT ISZERO PUSH3 0x4E3 JUMPI PUSH3 0x4E2 PUSH3 0x445 JUMP JUMPDEST JUMPDEST PUSH3 0x4EE DUP3 PUSH3 0x435 JUMP JUMPDEST SWAP1 POP PUSH1 0x20 DUP2 ADD SWAP1 POP SWAP2 SWAP1 POP JUMP JUMPDEST DUP3 DUP2 DUP4 CALLDATACOPY PUSH0 DUP4 DUP4 ADD MSTORE POP POP POP JUMP JUMPDEST PUSH0 PUSH3 0x51F PUSH3 0x519 DUP5 PUSH3 0x4C6 JUMP JUMPDEST PUSH3 0x4A8 JUMP JUMPDEST SWAP1 POP DUP3 DUP2 MSTORE PUSH1 0x20 DUP2 ADD DUP5 DUP5 DUP5 ADD GT ISZERO PUSH3 0x53E JUMPI PUSH3 0x53D PUSH3 0x431 JUMP JUMPDEST JUMPDEST PUSH3 0x54B DUP5 DUP3 DUP6 PUSH3 0x4FB JUMP JUMPDEST POP SWAP4 SWAP3 POP POP POP JUMP JUMPDEST PUSH0 DUP3 PUSH1 0x1F DUP4 ADD SLT PUSH3 0x56A JUMPI PUSH3 0x569 PUSH3 0x42D JUMP JUMPDEST JUMPDEST DUP2 CALLDATALOAD PUSH3 0x57C DUP5 DUP3 PUSH1 0x20 DUP7 ADD PUSH3 0x509 JUMP JUMPDEST SWAP2 POP POP SWAP3 SWAP2 POP POP JUMP JUMPDEST PUSH0 DUP2 SWAP1 POP SWAP2 SWAP1 POP JUMP JUMPDEST PUSH3 0x599 DUP2 PUSH3 0x585 JUMP JUMPDEST DUP2 EQ PUSH3 0x5A4 JUMPI PUSH0 DUP1 REVERT JUMPDEST POP JUMP JUMPDEST PUSH0 DUP2 CALLDATALOAD SWAP1 POP PUSH3 0x5B7 DUP2 PUSH3 0x58E JUMP JUMPDEST SWAP3 SWAP2 POP POP JUMP JUMPDEST PUSH0 PUSH8 0xFFFFFFFFFFFFFFFF DUP3 GT ISZERO PUSH3 0x5DA JUMPI PUSH3 0x5D9 PUSH3 0x445 JUMP JUMPDEST JUMPDEST PUSH1 0x20 DUP3 MUL SWAP1 POP PUSH1 0x20 DUP2 ADD SWAP1 POP SWAP2 SWAP1 POP JUMP JUMPDEST PUSH0 DUP1 REVERT JUMPDEST PUSH0 PUSH3 0x605 PUSH3 0x5FF DUP5 PUSH3 0x5BD JUMP JUMPDEST PUSH3 0x4A8 JUMP JUMPDEST SWAP1 POP DUP1 DUP4 DUP3 MSTORE PUSH1 0x20 DUP3 ADD SWAP1 POP PUSH1 0x20 DUP5 MUL DUP4 ADD DUP6 DUP2 GT ISZERO PUSH3 0x62B JUMPI PUSH3 0x62A PUSH3 0x5EB JUMP JUMPDEST JUMPDEST DUP4 JUMPDEST DUP2 DUP2 LT ISZERO PUSH3 0x658 JUMPI DUP1 PUSH3 0x643 DUP9 DUP3 PUSH3 0x417 JUMP JUMPDEST DUP5 MSTORE PUSH1 0x20 DUP5 ADD SWAP4 POP POP PUSH1 0x20 DUP2 ADD SWAP1 POP PUSH3 0x62D JUMP JUMPDEST POP POP POP SWAP4 SWAP3 POP POP POP JUMP JUMPDEST PUSH0 DUP3 PUSH1 0x1F DUP4 ADD SLT PUSH3 0x679 JUMPI PUSH3 0x678 PUSH3 0x42D JUMP JUMPDEST JUMPDEST DUP2 CALLDATALOAD PUSH3 0x68B DUP5 DUP3 PUSH1 0x20 DUP7 ADD PUSH3 0x5EF JUMP JUMPDEST SWAP2 POP POP SWAP3 SWAP2 POP POP JUMP JUMPDEST PUSH0 PUSH8 0xFFFFFFFFFFFFFFFF DUP3 GT ISZERO PUSH3 0x6B1 JUMPI PUSH3 0x6B0 PUSH3 0x445 JUMP JUMPDEST JUMPDEST PUSH1 0x20 DUP3 MUL SWAP1 POP PUSH1 0x20 DUP2 ADD SWAP1 POP SWAP2 SWAP1 POP JUMP JUMPDEST PUSH0 PUSH3 0x6D8 PUSH3 0x6D2 DUP5 PUSH3 0x694 JUMP JUMPDEST PUSH3 0x4A8 JUMP JUMPDEST SWAP1 POP DUP1 DUP4 DUP3 MSTORE PUSH1 0x20 DUP3 ADD SWAP1 POP PUSH1 0x20 DUP5 MUL DUP4 ADD DUP6 DUP2 GT ISZERO PUSH3 0x6FE JUMPI PUSH3 0x6FD PUSH3 0x5EB JUMP JUMPDEST JUMPDEST DUP4 JUMPDEST DUP2 DUP2 LT ISZERO PUSH3 0x72B JUMPI DUP1 PUSH3 0x716 DUP9 DUP3 PUSH3 0x5A7 JUMP JUMPDEST DUP5 MSTORE PUSH1 0x20 DUP5 ADD SWAP4 POP POP PUSH1 0x20 DUP2 ADD SWAP1 POP PUSH3 0x700 JUMP JUMPDEST POP POP POP SWAP4 SWAP3 POP POP POP JUMP JUMPDEST PUSH0 DUP3 PUSH1 0x1F DUP4 ADD SLT PUSH3 0x74C JUMPI PUSH3 0x74B PUSH3 0x42D JUMP JUMPDEST JUMPDEST DUP2 CALLDATALOAD PUSH3 0x75E DUP5 DUP3 PUSH1 0x20 DUP7 ADD PUSH3 0x6C2 JUMP JUMPDEST SWAP2 POP POP SWAP3 SWAP2 POP POP JUMP JUMPDEST PUSH0 DUP1 PUSH0 DUP1 PUSH0 DUP1 PUSH0 PUSH1 0xE0 DUP9 DUP11 SUB SLT ISZERO PUSH3 0x785 JUMPI PUSH3 0x784 PUSH3 0x3E3 JUMP JUMPDEST JUMPDEST PUSH0 PUSH3 0x794 DUP11 DUP3 DUP12 ADD PUSH3 0x417 JUMP JUMPDEST SWAP8 POP POP PUSH1 0x20 DUP9 ADD CALLDATALOAD PUSH8 0xFFFFFFFFFFFFFFFF DUP2 GT ISZERO PUSH3 0x7B8 JUMPI PUSH3 0x7B7 PUSH3 0x3E7 JUMP JUMPDEST JUMPDEST PUSH3 0x7C6 DUP11 DUP3 DUP12 ADD PUSH3 0x553 JUMP JUMPDEST SWAP7 POP POP PUSH1 0x40 DUP9 ADD CALLDATALOAD PUSH8 0xFFFFFFFFFFFFFFFF DUP2 GT ISZERO PUSH3 0x7EA JUMPI PUSH3 0x7E9 PUSH3 0x3E7 JUMP JUMPDEST JUMPDEST PUSH3 0x7F8 DUP11 DUP3 DUP12 ADD PUSH3 0x553 JUMP JUMPDEST SWAP6 POP POP PUSH1 0x60 PUSH3 0x80B DUP11 DUP3 DUP12 ADD PUSH3 0x5A7 JUMP JUMPDEST SWAP5 POP POP PUSH1 0x80 DUP9 ADD CALLDATALOAD PUSH8 0xFFFFFFFFFFFFFFFF DUP2 GT ISZERO PUSH3 0x82F JUMPI PUSH3 0x82E PUSH3 0x3E7 JUMP JUMPDEST JUMPDEST PUSH3 0x83D DUP11 DUP3 DUP12 ADD PUSH3 0x662 JUMP JUMPDEST SWAP4 POP POP PUSH1 0xA0 DUP9 ADD CALLDATALOAD PUSH8 0xFFFFFFFFFFFFFFFF DUP2 GT ISZERO PUSH3 0x861 JUMPI PUSH3 0x860 PUSH3 0x3E7 JUMP JUMPDEST JUMPDEST PUSH3 0x86F DUP11 DUP3 DUP12 ADD PUSH3 0x735 JUMP JUMPDEST SWAP3 POP POP PUSH1 0xC0 PUSH3 0x882 DUP11 DUP3 DUP12 ADD PUSH3 0x5A7 JUMP JUMPDEST SWAP2 POP POP SWAP3 SWAP6 SWAP9 SWAP2 SWAP5 SWAP8 POP SWAP3 SWAP6 POP JUMP JUMPDEST PUSH0 PUSH1 0x20 DUP3 DUP5 SUB SLT ISZERO PUSH3 0x8A9 JUMPI PUSH3 0x8A8 PUSH3 0x3E3 JUMP JUMPDEST JUMPDEST PUSH0 PUSH3 0x8B8 DUP5 DUP3 DUP6 ADD PUSH3 0x5A7 JUMP JUMPDEST SWAP2 POP POP SWAP3 SWAP2 POP POP JUMP JUMPDEST PUSH3 0x8CC DUP2 PUSH3 0x307 JUMP JUMPDEST DUP3 MSTORE POP POP JUMP JUMPDEST PUSH0 PUSH1 0x20 DUP3 ADD SWAP1 POP PUSH3 0x8E7 PUSH0 DUP4 ADD DUP5 PUSH3 0x8C1 JUMP JUMPDEST SWAP3 SWAP2 POP POP JUMP JUMPDEST PUSH3 0x8F8 DUP2 PUSH3 0x3EB JUMP JUMPDEST DUP3 MSTORE POP POP JUMP JUMPDEST PUSH0 DUP2 MLOAD SWAP1 POP SWAP2 SWAP1 POP JUMP JUMPDEST PUSH0 DUP3 DUP3 MSTORE PUSH1 0x20 DUP3 ADD SWAP1 POP SWAP3 SWAP2 POP POP JUMP JUMPDEST PUSH0 JUMPDEST DUP4 DUP2 LT ISZERO PUSH3 0x937 JUMPI DUP1 DUP3 ADD MLOAD DUP2 DUP5 ADD MSTORE PUSH1 0x20 DUP2 ADD SWAP1 POP PUSH3 0x91A JUMP JUMPDEST PUSH0 DUP5 DUP5 ADD MSTORE POP POP POP POP JUMP JUMPDEST PUSH0 PUSH3 0x94E DUP3 PUSH3 0x8FE JUMP JUMPDEST PUSH3 0x95A DUP2 DUP6 PUSH3 0x908 JUMP JUMPDEST SWAP4 POP PUSH3 0x96C DUP2 DUP6 PUSH1 0x20 DUP7 ADD PUSH3 0x918 JUMP JUMPDEST PUSH3 0x977 DUP2 PUSH3 0x435 JUMP JUMPDEST DUP5 ADD SWAP2 POP POP SWAP3 SWAP2 POP POP JUMP JUMPDEST PUSH3 0x98D DUP2 PUSH3 0x585 JUMP JUMPDEST DUP3 MSTORE POP POP JUMP JUMPDEST PUSH0 DUP2 MLOAD SWAP1 POP SWAP2 SWAP1 POP JUMP JUMPDEST PUSH0 DUP2 SWAP1 POP PUSH1 0x20 DUP3 ADD SWAP1 POP SWAP2 SWAP1 POP JUMP JUMPDEST PUSH3 0x9B7 DUP2 PUSH3 0x3EB JUMP JUMPDEST DUP3 MSTORE POP POP JUMP JUMPDEST PUSH0 PUSH3 0x9CA DUP4 DUP4 PUSH3 0x9AC JUMP JUMPDEST PUSH1 0x20 DUP4 ADD SWAP1 POP SWAP3 SWAP2 POP POP JUMP JUMPDEST PUSH0 PUSH1 0x20 DUP3 ADD SWAP1 POP SWAP2 SWAP1 POP JUMP JUMPDEST PUSH0 PUSH3 0x9EE DUP3 PUSH3 0x993 JUMP JUMPDEST PUSH3 0x9FA DUP2 DUP6 PUSH3 0x286 JUMP JUMPDEST SWAP4 POP PUSH3 0xA07 DUP4 PUSH3 0x99D JUMP JUMPDEST DUP1 PUSH0 JUMPDEST DUP4 DUP2 LT ISZERO PUSH3 0xA3D JUMPI DUP2 MLOAD PUSH3 0xA21 DUP9 DUP3 PUSH3 0x9BD JUMP JUMPDEST SWAP8 POP PUSH3 0xA2E DUP4 PUSH3 0x9D6 JUMP JUMPDEST SWAP3 POP POP PUSH1 0x1 DUP2 ADD SWAP1 POP PUSH3 0xA0A JUMP JUMPDEST POP DUP6 SWAP4 POP POP POP POP SWAP3 SWAP2 POP POP JUMP JUMPDEST PUSH0 DUP2 MLOAD SWAP1 POP SWAP2 SWAP1 POP JUMP JUMPDEST PUSH0 DUP3 DUP3 MSTORE PUSH1 0x20 DUP3 ADD SWAP1 POP SWAP3 SWAP2 POP POP JUMP JUMPDEST PUSH0 DUP2 SWAP1 POP PUSH1 0x20 DUP3 ADD SWAP1 POP SWAP2 SWAP1 POP JUMP JUMPDEST PUSH3 0xA7E DUP2 PUSH3 0x585 JUMP JUMPDEST DUP3 MSTORE POP POP JUMP JUMPDEST PUSH0 PUSH3 0xA91 DUP4 DUP4 PUSH3 0xA73 JUMP JUMPDEST PUSH1 0x20 DUP4 ADD SWAP1 POP SWAP3 SWAP2 POP POP JUMP JUMPDEST PUSH0 PUSH1 0x20 DUP3 ADD SWAP1 POP SWAP2 SWAP1 POP JUMP JUMPDEST PUSH0 PUSH3 0xAB5 DUP3 PUSH3 0xA4A JUMP JUMPDEST PUSH3 0xAC1 DUP2 DUP6 PUSH3 0xA54 JUMP JUMPDEST SWAP4 POP PUSH3 0xACE DUP4 PUSH3 0xA64 JUMP JUMPDEST DUP1 PUSH0 JUMPDEST DUP4 DUP2 LT ISZERO PUSH3 0xB04 JUMPI DUP2 MLOAD PUSH3 0xAE8 DUP9 DUP3 PUSH3 0xA84 JUMP JUMPDEST SWAP8 POP PUSH3 0xAF5 DUP4 PUSH3 0xA9D JUMP JUMPDEST SWAP3 POP POP PUSH1 0x1 DUP2 ADD SWAP1 POP PUSH3 0xAD1 JUMP JUMPDEST POP DUP6 SWAP4 POP POP POP POP SWAP3 SWAP2 POP POP JUMP JUMPDEST PUSH0 PUSH1 0xE0 DUP3 ADD SWAP1 POP PUSH3 0xB26 PUSH0 DUP4 ADD DUP11 PUSH3 0x8ED JUMP JUMPDEST DUP2 DUP2 SUB PUSH1 0x20 DUP4 ADD MSTORE PUSH3 0xB3A DUP2 DUP10 PUSH3 0x942 JUMP JUMPDEST SWAP1 POP DUP2 DUP2 SUB PUSH1 0x40 DUP4 ADD MSTORE PUSH3 0xB50 DUP2 DUP9 PUSH3 0x942 JUMP JUMPDEST SWAP1 POP PUSH3 0xB61 PUSH1 0x60 DUP4 ADD DUP8 PUSH3 0x982 JUMP JUMPDEST DUP2 DUP2 SUB PUSH1 0x80 DUP4 ADD MSTORE PUSH3 0xB75 DUP2 DUP7 PUSH3 0x9E2 JUMP JUMPDEST SWAP1 POP DUP2 DUP2 SUB PUSH1 0xA0 DUP4 ADD MSTORE PUSH3 0xB8B DUP2 DUP6 PUSH3 0xAA9 JUMP JUMPDEST SWAP1 POP PUSH3 0xB9C PUSH1 0xC0 DUP4 ADD DUP5 PUSH3 0x982 JUMP JUMPDEST SWAP9 SWAP8 POP POP POP POP POP POP POP POP JUMP JUMPDEST PUSH0 PUSH1 0x20 DUP3 ADD SWAP1 POP PUSH3 0xBBD PUSH0 DUP4 ADD DUP5 PUSH3 0x8ED JUMP JUMPDEST SWAP3 SWAP2 POP POP JUMP INVALID PUSH1 0x80 PUSH1 0x40 MSTORE CALLVALUE DUP1 ISZERO PUSH3 0x10 JUMPI PUSH0 DUP1 REVERT JUMPDEST POP PUSH1 0x40 MLOAD PUSH3 0x2E3B CODESIZE SUB DUP1 PUSH3 0x2E3B DUP4 CODECOPY DUP2 DUP2 ADD PUSH1 0x40 MSTORE DUP2 ADD SWAP1 PUSH3 0x36 SWAP2 SWAP1 PUSH3 0x9B7 JUMP JUMPDEST DUP7 DUP7 DUP7 DUP2 PUSH1 0x3 SWAP1 DUP2 PUSH3 0x4A SWAP2 SWAP1 PUSH3 0xD0F JUMP JUMPDEST POP DUP1 PUSH1 0x4 SWAP1 DUP2 PUSH3 0x5C SWAP2 SWAP1 PUSH3 0xD0F JUMP JUMPDEST POP POP POP PUSH0 PUSH20 0xFFFFFFFFFFFFFFFFFFFFFFFFFFFFFFFFFFFFFFFF AND DUP2 PUSH20 0xFFFFFFFFFFFFFFFFFFFFFFFFFFFFFFFFFFFFFFFF AND SUB PUSH3 0xD2 JUMPI PUSH0 PUSH1 0x40 MLOAD PUSH32 0x1E4FBDF700000000000000000000000000000000000000000000000000000000 DUP2 MSTORE PUSH1 0x4 ADD PUSH3 0xC9 SWAP2 SWAP1 PUSH3 0xE04 JUMP JUMPDEST PUSH1 0x40 MLOAD DUP1 SWAP2 SUB SWAP1 REVERT JUMPDEST PUSH3 0xE3 DUP2 PUSH3 0x27E PUSH1 0x20 SHL PUSH1 0x20 SHR JUMP JUMPDEST POP DUP2 MLOAD DUP4 MLOAD EQ PUSH3 0x12B JUMPI PUSH1 0x40 MLOAD PUSH32 0x8C379A000000000000000000000000000000000000000000000000000000000 DUP2 MSTORE PUSH1 0x4 ADD PUSH3 0x122 SWAP1 PUSH3 0xEA3 JUMP JUMPDEST PUSH1 0x40 MLOAD DUP1 SWAP2 SUB SWAP1 REVERT JUMPDEST DUP4 PUSH1 0x7 DUP2 SWAP1 SSTORE POP DUP1 TIMESTAMP PUSH3 0x140 SWAP2 SWAP1 PUSH3 0xEF0 JUMP JUMPDEST PUSH1 0x8 DUP2 SWAP1 SSTORE POP PUSH0 JUMPDEST DUP4 MLOAD DUP2 LT ISZERO PUSH3 0x226 JUMPI PUSH1 0x7 SLOAD PUSH1 0x6 SLOAD DUP5 DUP4 DUP2 MLOAD DUP2 LT PUSH3 0x16E JUMPI PUSH3 0x16D PUSH3 0xF2A JUMP JUMPDEST JUMPDEST PUSH1 0x20 MUL PUSH1 0x20 ADD ADD MLOAD PUSH3 0x182 SWAP2 SWAP1 PUSH3 0xEF0 JUMP JUMPDEST GT ISZERO PUSH3 0x18D JUMPI PUSH0 DUP1 REVERT JUMPDEST PUSH3 0x1D9 DUP5 DUP3 DUP2 MLOAD DUP2 LT PUSH3 0x1A7 JUMPI PUSH3 0x1A6 PUSH3 0xF2A JUMP JUMPDEST JUMPDEST PUSH1 0x20 MUL PUSH1 0x20 ADD ADD MLOAD DUP5 DUP4 DUP2 MLOAD DUP2 LT PUSH3 0x1C5 JUMPI PUSH3 0x1C4 PUSH3 0xF2A JUMP JUMPDEST JUMPDEST PUSH1 0x20 MUL PUSH1 0x20 ADD ADD MLOAD PUSH3 0x341 PUSH1 0x20 SHL PUSH1 0x20 SHR JUMP JUMPDEST DUP3 DUP2 DUP2 MLOAD DUP2 LT PUSH3 0x1EF JUMPI PUSH3 0x1EE PUSH3 0xF2A JUMP JUMPDEST JUMPDEST PUSH1 0x20 MUL PUSH1 0x20 ADD ADD MLOAD PUSH1 0x6 PUSH0 DUP3 DUP3 SLOAD PUSH3 0x209 SWAP2 SWAP1 PUSH3 0xEF0 JUMP JUMPDEST SWAP3 POP POP DUP2 SWAP1 SSTORE POP DUP1 DUP1 PUSH3 0x21D SWAP1 PUSH3 0xF57 JUMP JUMPDEST SWAP2 POP POP PUSH3 0x148 JUMP JUMPDEST POP PUSH0 PUSH1 0x6 SLOAD PUSH1 0x7 SLOAD PUSH3 0x23A SWAP2 SWAP1 PUSH3 0xFA3 JUMP JUMPDEST SWAP1 POP PUSH0 DUP2 GT ISZERO PUSH3 0x270 JUMPI PUSH3 0x257 DUP9 DUP3 PUSH3 0x341 PUSH1 0x20 SHL PUSH1 0x20 SHR JUMP JUMPDEST PUSH4 0x1E13380 TIMESTAMP PUSH3 0x269 SWAP2 SWAP1 PUSH3 0xEF0 JUMP JUMPDEST PUSH1 0x9 DUP2 SWAP1 SSTORE POP JUMPDEST POP POP POP POP POP POP POP POP PUSH3 0x1044 JUMP JUMPDEST PUSH0 PUSH1 0x5 PUSH0 SWAP1 SLOAD SWAP1 PUSH2 0x100 EXP SWAP1 DIV PUSH20 0xFFFFFFFFFFFFFFFFFFFFFFFFFFFFFFFFFFFFFFFF AND SWAP1 POP DUP2 PUSH1 0x5 PUSH0 PUSH2 0x100 EXP DUP2 SLOAD DUP2 PUSH20 0xFFFFFFFFFFFFFFFFFFFFFFFFFFFFFFFFFFFFFFFF MUL NOT AND SWAP1 DUP4 PUSH20 0xFFFFFFFFFFFFFFFFFFFFFFFFFFFFFFFFFFFFFFFF AND MUL OR SWAP1 SSTORE POP DUP2 PUSH20 0xFFFFFFFFFFFFFFFFFFFFFFFFFFFFFFFFFFFFFFFF AND DUP2 PUSH20 0xFFFFFFFFFFFFFFFFFFFFFFFFFFFFFFFFFFFFFFFF AND PUSH32 0x8BE0079C531659141344CD1FD0A4F28419497F9722A3DAAFE3B4186F6B6457E0 PUSH1 0x40 MLOAD PUSH1 0x40 MLOAD DUP1 SWAP2 SUB SWAP1 LOG3 POP POP JUMP JUMPDEST PUSH0 PUSH20 0xFFFFFFFFFFFFFFFFFFFFFFFFFFFFFFFFFFFFFFFF AND DUP3 PUSH20 0xFFFFFFFFFFFFFFFFFFFFFFFFFFFFFFFFFFFFFFFF AND SUB PUSH3 0x3B4 JUMPI PUSH0 PUSH1 0x40 MLOAD PUSH32 0xEC442F0500000000000000000000000000000000000000000000000000000000 DUP2 MSTORE PUSH1 0x4 ADD PUSH3 0x3AB SWAP2 SWAP1 PUSH3 0xE04 JUMP JUMPDEST PUSH1 0x40 MLOAD DUP1 SWAP2 SUB SWAP1 REVERT JUMPDEST PUSH3 0x3C7 PUSH0 DUP4 DUP4 PUSH3 0x3CB PUSH1 0x20 SHL PUSH1 0x20 SHR JUMP JUMPDEST POP POP JUMP JUMPDEST PUSH0 PUSH20 0xFFFFFFFFFFFFFFFFFFFFFFFFFFFFFFFFFFFFFFFF AND DUP4 PUSH20 0xFFFFFFFFFFFFFFFFFFFFFFFFFFFFFFFFFFFFFFFF AND SUB PUSH3 0x41F JUMPI DUP1 PUSH1 0x2 PUSH0 DUP3 DUP3 SLOAD PUSH3 0x412 SWAP2 SWAP1 PUSH3 0xEF0 JUMP JUMPDEST SWAP3 POP POP DUP2 SWAP1 SSTORE POP PUSH3 0x4F0 JUMP JUMPDEST PUSH0 DUP1 PUSH0 DUP6 PUSH20 0xFFFFFFFFFFFFFFFFFFFFFFFFFFFFFFFFFFFFFFFF AND PUSH20 0xFFFFFFFFFFFFFFFFFFFFFFFFFFFFFFFFFFFFFFFF AND DUP2 MSTORE PUSH1 0x20 ADD SWAP1 DUP2 MSTORE PUSH1 0x20 ADD PUSH0 KECCAK256 SLOAD SWAP1 POP DUP2 DUP2 LT ISZERO PUSH3 0x4AB JUMPI DUP4 DUP2 DUP4 PUSH1 0x40 MLOAD PUSH32 0xE450D38C00000000000000000000000000000000000000000000000000000000 DUP2 MSTORE PUSH1 0x4 ADD PUSH3 0x4A2 SWAP4 SWAP3 SWAP2 SWAP1 PUSH3 0xFEE JUMP JUMPDEST PUSH1 0x40 MLOAD DUP1 SWAP2 SUB SWAP1 REVERT JUMPDEST DUP2 DUP2 SUB PUSH0 DUP1 DUP7 PUSH20 0xFFFFFFFFFFFFFFFFFFFFFFFFFFFFFFFFFFFFFFFF AND PUSH20 0xFFFFFFFFFFFFFFFFFFFFFFFFFFFFFFFFFFFFFFFF AND DUP2 MSTORE PUSH1 0x20 ADD SWAP1 DUP2 MSTORE PUSH1 0x20 ADD PUSH0 KECCAK256 DUP2 SWAP1 SSTORE POP POP JUMPDEST PUSH0 PUSH20 0xFFFFFFFFFFFFFFFFFFFFFFFFFFFFFFFFFFFFFFFF AND DUP3 PUSH20 0xFFFFFFFFFFFFFFFFFFFFFFFFFFFFFFFFFFFFFFFF AND SUB PUSH3 0x539 JUMPI DUP1 PUSH1 0x2 PUSH0 DUP3 DUP3 SLOAD SUB SWAP3 POP POP DUP2 SWAP1 SSTORE POP PUSH3 0x583 JUMP JUMPDEST DUP1 PUSH0 DUP1 DUP5 PUSH20 0xFFFFFFFFFFFFFFFFFFFFFFFFFFFFFFFFFFFFFFFF AND PUSH20 0xFFFFFFFFFFFFFFFFFFFFFFFFFFFFFFFFFFFFFFFF AND DUP2 MSTORE PUSH1 0x20 ADD SWAP1 DUP2 MSTORE PUSH1 0x20 ADD PUSH0 KECCAK256 PUSH0 DUP3 DUP3 SLOAD ADD SWAP3 POP POP DUP2 SWAP1 SSTORE POP JUMPDEST DUP2 PUSH20 0xFFFFFFFFFFFFFFFFFFFFFFFFFFFFFFFFFFFFFFFF AND DUP4 PUSH20 0xFFFFFFFFFFFFFFFFFFFFFFFFFFFFFFFFFFFFFFFF AND PUSH32 0xDDF252AD1BE2C89B69C2B068FC378DAA952BA7F163C4A11628F55A4DF523B3EF DUP4 PUSH1 0x40 MLOAD PUSH3 0x5E2 SWAP2 SWAP1 PUSH3 0x1029 JUMP JUMPDEST PUSH1 0x40 MLOAD DUP1 SWAP2 SUB SWAP1 LOG3 POP POP POP JUMP JUMPDEST PUSH0 PUSH1 0x40 MLOAD SWAP1 POP SWAP1 JUMP JUMPDEST PUSH0 DUP1 REVERT JUMPDEST PUSH0 DUP1 REVERT JUMPDEST PUSH0 PUSH20 0xFFFFFFFFFFFFFFFFFFFFFFFFFFFFFFFFFFFFFFFF DUP3 AND SWAP1 POP SWAP2 SWAP1 POP JUMP JUMPDEST PUSH0 PUSH3 0x62B DUP3 PUSH3 0x600 JUMP JUMPDEST SWAP1 POP SWAP2 SWAP1 POP JUMP JUMPDEST PUSH3 0x63D DUP2 PUSH3 0x61F JUMP JUMPDEST DUP2 EQ PUSH3 0x648 JUMPI PUSH0 DUP1 REVERT JUMPDEST POP JUMP JUMPDEST PUSH0 DUP2 MLOAD SWAP1 POP PUSH3 0x65B DUP2 PUSH3 0x632 JUMP JUMPDEST SWAP3 SWAP2 POP POP JUMP JUMPDEST PUSH0 DUP1 REVERT JUMPDEST PUSH0 DUP1 REVERT JUMPDEST PUSH0 PUSH1 0x1F NOT PUSH1 0x1F DUP4 ADD AND SWAP1 POP SWAP2 SWAP1 POP JUMP JUMPDEST PUSH32 0x4E487B7100000000000000000000000000000000000000000000000000000000 PUSH0 MSTORE PUSH1 0x41 PUSH1 0x4 MSTORE PUSH1 0x24 PUSH0 REVERT JUMPDEST PUSH3 0x6B1 DUP3 PUSH3 0x669 JUMP JUMPDEST DUP2 ADD DUP2 DUP2 LT PUSH8 0xFFFFFFFFFFFFFFFF DUP3 GT OR ISZERO PUSH3 0x6D3 JUMPI PUSH3 0x6D2 PUSH3 0x679 JUMP JUMPDEST JUMPDEST DUP1 PUSH1 0x40 MSTORE POP POP POP JUMP JUMPDEST PUSH0 PUSH3 0x6E7 PUSH3 0x5EF JUMP JUMPDEST SWAP1 POP PUSH3 0x6F5 DUP3 DUP3 PUSH3 0x6A6 JUMP JUMPDEST SWAP2 SWAP1 POP JUMP JUMPDEST PUSH0 PUSH8 0xFFFFFFFFFFFFFFFF DUP3 GT ISZERO PUSH3 0x717 JUMPI PUSH3 0x716 PUSH3 0x679 JUMP JUMPDEST JUMPDEST PUSH3 0x722 DUP3 PUSH3 0x669 JUMP JUMPDEST SWAP1 POP PUSH1 0x20 DUP2 ADD SWAP1 POP SWAP2 SWAP1 POP JUMP JUMPDEST PUSH0 JUMPDEST DUP4 DUP2 LT ISZERO PUSH3 0x74E JUMPI DUP1 DUP3 ADD MLOAD DUP2 DUP5 ADD MSTORE PUSH1 0x20 DUP2 ADD SWAP1 POP PUSH3 0x731 JUMP JUMPDEST PUSH0 DUP5 DUP5 ADD MSTORE POP POP POP POP JUMP JUMPDEST PUSH0 PUSH3 0x76F PUSH3 0x769 DUP5 PUSH3 0x6FA JUMP JUMPDEST PUSH3 0x6DC JUMP JUMPDEST SWAP1 POP DUP3 DUP2 MSTORE PUSH1 0x20 DUP2 ADD DUP5 DUP5 DUP5 ADD GT ISZERO PUSH3 0x78E JUMPI PUSH3 0x78D PUSH3 0x665 JUMP JUMPDEST JUMPDEST PUSH3 0x79B DUP5 DUP3 DUP6 PUSH3 0x72F JUMP JUMPDEST POP SWAP4 SWAP3 POP POP POP JUMP JUMPDEST PUSH0 DUP3 PUSH1 0x1F DUP4 ADD SLT PUSH3 0x7BA JUMPI PUSH3 0x7B9 PUSH3 0x661 JUMP JUMPDEST JUMPDEST DUP2 MLOAD PUSH3 0x7CC DUP5 DUP3 PUSH1 0x20 DUP7 ADD PUSH3 0x759 JUMP JUMPDEST SWAP2 POP POP SWAP3 SWAP2 POP POP JUMP JUMPDEST PUSH0 DUP2 SWAP1 POP SWAP2 SWAP1 POP JUMP JUMPDEST PUSH3 0x7E9 DUP2 PUSH3 0x7D5 JUMP JUMPDEST DUP2 EQ PUSH3 0x7F4 JUMPI PUSH0 DUP1 REVERT JUMPDEST POP JUMP JUMPDEST PUSH0 DUP2 MLOAD SWAP1 POP PUSH3 0x807 DUP2 PUSH3 0x7DE JUMP JUMPDEST SWAP3 SWAP2 POP POP JUMP JUMPDEST PUSH0 PUSH8 0xFFFFFFFFFFFFFFFF DUP3 GT ISZERO PUSH3 0x82A JUMPI PUSH3 0x829 PUSH3 0x679 JUMP JUMPDEST JUMPDEST PUSH1 0x20 DUP3 MUL SWAP1 POP PUSH1 0x20 DUP2 ADD SWAP1 POP SWAP2 SWAP1 POP JUMP JUMPDEST PUSH0 DUP1 REVERT JUMPDEST PUSH0 PUSH3 0x855 PUSH3 0x84F DUP5 PUSH3 0x80D JUMP JUMPDEST PUSH3 0x6DC JUMP JUMPDEST SWAP1 POP DUP1 DUP4 DUP3 MSTORE PUSH1 0x20 DUP3 ADD SWAP1 POP PUSH1 0x20 DUP5 MUL DUP4 ADD DUP6 DUP2 GT ISZERO PUSH3 0x87B JUMPI PUSH3 0x87A PUSH3 0x83B JUMP JUMPDEST JUMPDEST DUP4 JUMPDEST DUP2 DUP2 LT ISZERO PUSH3 0x8A8 JUMPI DUP1 PUSH3 0x893 DUP9 DUP3 PUSH3 0x64B JUMP JUMPDEST DUP5 MSTORE PUSH1 0x20 DUP5 ADD SWAP4 POP POP PUSH1 0x20 DUP2 ADD SWAP1 POP PUSH3 0x87D JUMP JUMPDEST POP POP POP SWAP4 SWAP3 POP POP POP JUMP JUMPDEST PUSH0 DUP3 PUSH1 0x1F DUP4 ADD SLT PUSH3 0x8C9 JUMPI PUSH3 0x8C8 PUSH3 0x661 JUMP JUMPDEST JUMPDEST DUP2 MLOAD PUSH3 0x8DB DUP5 DUP3 PUSH1 0x20 DUP7 ADD PUSH3 0x83F JUMP JUMPDEST SWAP2 POP POP SWAP3 SWAP2 POP POP JUMP JUMPDEST PUSH0 PUSH8 0xFFFFFFFFFFFFFFFF DUP3 GT ISZERO PUSH3 0x901 JUMPI PUSH3 0x900 PUSH3 0x679 JUMP JUMPDEST JUMPDEST PUSH1 0x20 DUP3 MUL SWAP1 POP PUSH1 0x20 DUP2 ADD SWAP1 POP SWAP2 SWAP1 POP JUMP JUMPDEST PUSH0 PUSH3 0x928 PUSH3 0x922 DUP5 PUSH3 0x8E4 JUMP JUMPDEST PUSH3 0x6DC JUMP JUMPDEST SWAP1 POP DUP1 DUP4 DUP3 MSTORE PUSH1 0x20 DUP3 ADD SWAP1 POP PUSH1 0x20 DUP5 MUL DUP4 ADD DUP6 DUP2 GT ISZERO PUSH3 0x94E JUMPI PUSH3 0x94D PUSH3 0x83B JUMP JUMPDEST JUMPDEST DUP4 JUMPDEST DUP2 DUP2 LT ISZERO PUSH3 0x97B JUMPI DUP1 PUSH3 0x966 DUP9 DUP3 PUSH3 0x7F7 JUMP JUMPDEST DUP5 MSTORE PUSH1 0x20 DUP5 ADD SWAP4 POP POP PUSH1 0x20 DUP2 ADD SWAP1 POP PUSH3 0x950 JUMP JUMPDEST POP POP POP SWAP4 SWAP3 POP POP POP JUMP JUMPDEST PUSH0 DUP3 PUSH1 0x1F DUP4 ADD SLT PUSH3 0x99C JUMPI PUSH3 0x99B PUSH3 0x661 JUMP JUMPDEST JUMPDEST DUP2 MLOAD PUSH3 0x9AE DUP5 DUP3 PUSH1 0x20 DUP7 ADD PUSH3 0x912 JUMP JUMPDEST SWAP2 POP POP SWAP3 SWAP2 POP POP JUMP JUMPDEST PUSH0 DUP1 PUSH0 DUP1 PUSH0 DUP1 PUSH0 PUSH1 0xE0 DUP9 DUP11 SUB SLT ISZERO PUSH3 0x9D5 JUMPI PUSH3 0x9D4 PUSH3 0x5F8 JUMP JUMPDEST JUMPDEST PUSH0 PUSH3 0x9E4 DUP11 DUP3 DUP12 ADD PUSH3 0x64B JUMP JUMPDEST SWAP8 POP POP PUSH1 0x20 DUP9 ADD MLOAD PUSH8 0xFFFFFFFFFFFFFFFF DUP2 GT ISZERO PUSH3 0xA08 JUMPI PUSH3 0xA07 PUSH3 0x5FC JUMP JUMPDEST JUMPDEST PUSH3 0xA16 DUP11 DUP3 DUP12 ADD PUSH3 0x7A3 JUMP JUMPDEST SWAP7 POP POP PUSH1 0x40 DUP9 ADD MLOAD PUSH8 0xFFFFFFFFFFFFFFFF DUP2 GT ISZERO PUSH3 0xA3A JUMPI PUSH3 0xA39 PUSH3 0x5FC JUMP JUMPDEST JUMPDEST PUSH3 0xA48 DUP11 DUP3 DUP12 ADD PUSH3 0x7A3 JUMP JUMPDEST SWAP6 POP POP PUSH1 0x60 PUSH3 0xA5B DUP11 DUP3 DUP12 ADD PUSH3 0x7F7 JUMP JUMPDEST SWAP5 POP POP PUSH1 0x80 DUP9 ADD MLOAD PUSH8 0xFFFFFFFFFFFFFFFF DUP2 GT ISZERO PUSH3 0xA7F JUMPI PUSH3 0xA7E PUSH3 0x5FC JUMP JUMPDEST JUMPDEST PUSH3 0xA8D DUP11 DUP3 DUP12 ADD PUSH3 0x8B2 JUMP JUMPDEST SWAP4 POP POP PUSH1 0xA0 DUP9 ADD MLOAD PUSH8 0xFFFFFFFFFFFFFFFF DUP2 GT ISZERO PUSH3 0xAB1 JUMPI PUSH3 0xAB0 PUSH3 0x5FC JUMP JUMPDEST JUMPDEST PUSH3 0xABF DUP11 DUP3 DUP12 ADD PUSH3 0x985 JUMP JUMPDEST SWAP3 POP POP PUSH1 0xC0 PUSH3 0xAD2 DUP11 DUP3 DUP12 ADD PUSH3 0x7F7 JUMP JUMPDEST SWAP2 POP POP SWAP3 SWAP6 SWAP9 SWAP2 SWAP5 SWAP8 POP SWAP3 SWAP6 POP JUMP JUMPDEST PUSH0 DUP2 MLOAD SWAP1 POP SWAP2 SWAP1 POP JUMP JUMPDEST PUSH32 0x4E487B7100000000000000000000000000000000000000000000000000000000 PUSH0 MSTORE PUSH1 0x22 PUSH1 0x4 MSTORE PUSH1 0x24 PUSH0 REVERT JUMPDEST PUSH0 PUSH1 0x2 DUP3 DIV SWAP1 POP PUSH1 0x1 DUP3 AND DUP1 PUSH3 0xB30 JUMPI PUSH1 0x7F DUP3 AND SWAP2 POP JUMPDEST PUSH1 0x20 DUP3 LT DUP2 SUB PUSH3 0xB46 JUMPI PUSH3 0xB45 PUSH3 0xAEB JUMP JUMPDEST JUMPDEST POP SWAP2 SWAP1 POP JUMP JUMPDEST PUSH0 DUP2 SWAP1 POP DUP2 PUSH0 MSTORE PUSH1 0x20 PUSH0 KECCAK256 SWAP1 POP SWAP2 SWAP1 POP JUMP JUMPDEST PUSH0 PUSH1 0x20 PUSH1 0x1F DUP4 ADD DIV SWAP1 POP SWAP2 SWAP1 POP JUMP JUMPDEST PUSH0 DUP3 DUP3 SHL SWAP1 POP SWAP3 SWAP2 POP POP JUMP JUMPDEST PUSH0 PUSH1 0x8 DUP4 MUL PUSH3 0xBAA PUSH32 0xFFFFFFFFFFFFFFFFFFFFFFFFFFFFFFFFFFFFFFFFFFFFFFFFFFFFFFFFFFFFFFFF DUP3 PUSH3 0xB6D JUMP JUMPDEST PUSH3 0xBB6 DUP7 DUP4 PUSH3 0xB6D JUMP JUMPDEST SWAP6 POP DUP1 NOT DUP5 AND SWAP4 POP DUP1 DUP7 AND DUP5 OR SWAP3 POP POP POP SWAP4 SWAP3 POP POP POP JUMP JUMPDEST PUSH0 DUP2 SWAP1 POP SWAP2 SWAP1 POP JUMP JUMPDEST PUSH0 PUSH3 0xBF7 PUSH3 0xBF1 PUSH3 0xBEB DUP5 PUSH3 0x7D5 JUMP JUMPDEST PUSH3 0xBCE JUMP JUMPDEST PUSH3 0x7D5 JUMP JUMPDEST SWAP1 POP SWAP2 SWAP1 POP JUMP JUMPDEST PUSH0 DUP2 SWAP1 POP SWAP2 SWAP1 POP JUMP JUMPDEST PUSH3 0xC12 DUP4 PUSH3 0xBD7 JUMP JUMPDEST PUSH3 0xC2A PUSH3 0xC21 DUP3 PUSH3 0xBFE JUMP JUMPDEST DUP5 DUP5 SLOAD PUSH3 0xB79 JUMP JUMPDEST DUP3 SSTORE POP POP POP POP JUMP JUMPDEST PUSH0 SWAP1 JUMP JUMPDEST PUSH3 0xC40 PUSH3 0xC32 JUMP JUMPDEST PUSH3 0xC4D DUP2 DUP5 DUP5 PUSH3 0xC07 JUMP JUMPDEST POP POP POP JUMP JUMPDEST JUMPDEST DUP2 DUP2 LT ISZERO PUSH3 0xC74 JUMPI PUSH3 0xC68 PUSH0 DUP3 PUSH3 0xC36 JUMP JUMPDEST PUSH1 0x1 DUP2 ADD SWAP1 POP PUSH3 0xC53 JUMP JUMPDEST POP POP JUMP JUMPDEST PUSH1 0x1F DUP3 GT ISZERO PUSH3 0xCC3 JUMPI PUSH3 0xC8D DUP2 PUSH3 0xB4C JUMP JUMPDEST PUSH3 0xC98 DUP5 PUSH3 0xB5E JUMP JUMPDEST DUP2 ADD PUSH1 0x20 DUP6 LT ISZERO PUSH3 0xCA8 JUMPI DUP2 SWAP1 POP JUMPDEST PUSH3 0xCC0 PUSH3 0xCB7 DUP6 PUSH3 0xB5E JUMP JUMPDEST DUP4 ADD DUP3 PUSH3 0xC52 JUMP JUMPDEST POP POP JUMPDEST POP POP POP JUMP JUMPDEST PUSH0 DUP3 DUP3 SHR SWAP1 POP SWAP3 SWAP2 POP POP JUMP JUMPDEST PUSH0 PUSH3 0xCE5 PUSH0 NOT DUP5 PUSH1 0x8 MUL PUSH3 0xCC8 JUMP JUMPDEST NOT DUP1 DUP4 AND SWAP2 POP POP SWAP3 SWAP2 POP POP JUMP JUMPDEST PUSH0 PUSH3 0xCFF DUP4 DUP4 PUSH3 0xCD4 JUMP JUMPDEST SWAP2 POP DUP3 PUSH1 0x2 MUL DUP3 OR SWAP1 POP SWAP3 SWAP2 POP POP JUMP JUMPDEST PUSH3 0xD1A DUP3 PUSH3 0xAE1 JUMP JUMPDEST PUSH8 0xFFFFFFFFFFFFFFFF DUP2 GT ISZERO PUSH3 0xD36 JUMPI PUSH3 0xD35 PUSH3 0x679 JUMP JUMPDEST JUMPDEST PUSH3 0xD42 DUP3 SLOAD PUSH3 0xB18 JUMP JUMPDEST PUSH3 0xD4F DUP3 DUP3 DUP6 PUSH3 0xC78 JUMP JUMPDEST PUSH0 PUSH1 0x20 SWAP1 POP PUSH1 0x1F DUP4 GT PUSH1 0x1 DUP2 EQ PUSH3 0xD85 JUMPI PUSH0 DUP5 ISZERO PUSH3 0xD70 JUMPI DUP3 DUP8 ADD MLOAD SWAP1 POP JUMPDEST PUSH3 0xD7C DUP6 DUP3 PUSH3 0xCF2 JUMP JUMPDEST DUP7 SSTORE POP PUSH3 0xDEB JUMP JUMPDEST PUSH1 0x1F NOT DUP5 AND PUSH3 0xD95 DUP7 PUSH3 0xB4C JUMP JUMPDEST PUSH0 JUMPDEST DUP3 DUP2 LT ISZERO PUSH3 0xDBE JUMPI DUP5 DUP10 ADD MLOAD DUP3 SSTORE PUSH1 0x1 DUP3 ADD SWAP2 POP PUSH1 0x20 DUP6 ADD SWAP5 POP PUSH1 0x20 DUP2 ADD SWAP1 POP PUSH3 0xD97 JUMP JUMPDEST DUP7 DUP4 LT ISZERO PUSH3 0xDDE JUMPI DUP5 DUP10 ADD MLOAD PUSH3 0xDDA PUSH1 0x1F DUP10 AND DUP3 PUSH3 0xCD4 JUMP JUMPDEST DUP4 SSTORE POP JUMPDEST PUSH1 0x1 PUSH1 0x2 DUP9 MUL ADD DUP9 SSTORE POP POP POP JUMPDEST POP POP POP POP POP POP JUMP JUMPDEST PUSH3 0xDFE DUP2 PUSH3 0x61F JUMP JUMPDEST DUP3 MSTORE POP POP JUMP JUMPDEST PUSH0 PUSH1 0x20 DUP3 ADD SWAP1 POP PUSH3 0xE19 PUSH0 DUP4 ADD DUP5 PUSH3 0xDF3 JUMP JUMPDEST SWAP3 SWAP2 POP POP JUMP JUMPDEST PUSH0 DUP3 DUP3 MSTORE PUSH1 0x20 DUP3 ADD SWAP1 POP SWAP3 SWAP2 POP POP JUMP JUMPDEST PUSH32 0x737562736372696265727320616E6420746865697220616D6F756E747320646F PUSH0 DUP3 ADD MSTORE PUSH32 0x206E6F74206D6174636800000000000000000000000000000000000000000000 PUSH1 0x20 DUP3 ADD MSTORE POP JUMP JUMPDEST PUSH0 PUSH3 0xE8B PUSH1 0x2A DUP4 PUSH3 0xE1F JUMP JUMPDEST SWAP2 POP PUSH3 0xE98 DUP3 PUSH3 0xE2F JUMP JUMPDEST PUSH1 0x40 DUP3 ADD SWAP1 POP SWAP2 SWAP1 POP JUMP JUMPDEST PUSH0 PUSH1 0x20 DUP3 ADD SWAP1 POP DUP2 DUP2 SUB PUSH0 DUP4 ADD MSTORE PUSH3 0xEBC DUP2 PUSH3 0xE7D JUMP JUMPDEST SWAP1 POP SWAP2 SWAP1 POP JUMP JUMPDEST PUSH32 0x4E487B7100000000000000000000000000000000000000000000000000000000 PUSH0 MSTORE PUSH1 0x11 PUSH1 0x4 MSTORE PUSH1 0x24 PUSH0 REVERT JUMPDEST PUSH0 PUSH3 0xEFC DUP3 PUSH3 0x7D5 JUMP JUMPDEST SWAP2 POP PUSH3 0xF09 DUP4 PUSH3 0x7D5 JUMP JUMPDEST SWAP3 POP DUP3 DUP3 ADD SWAP1 POP DUP1 DUP3 GT ISZERO PUSH3 0xF24 JUMPI PUSH3 0xF23 PUSH3 0xEC3 JUMP JUMPDEST JUMPDEST SWAP3 SWAP2 POP POP JUMP JUMPDEST PUSH32 0x4E487B7100000000000000000000000000000000000000000000000000000000 PUSH0 MSTORE PUSH1 0x32 PUSH1 0x4 MSTORE PUSH1 0x24 PUSH0 REVERT JUMPDEST PUSH0 PUSH3 0xF63 DUP3 PUSH3 0x7D5 JUMP JUMPDEST SWAP2 POP PUSH32 0xFFFFFFFFFFFFFFFFFFFFFFFFFFFFFFFFFFFFFFFFFFFFFFFFFFFFFFFFFFFFFFFF DUP3 SUB PUSH3 0xF98 JUMPI PUSH3 0xF97 PUSH3 0xEC3 JUMP JUMPDEST JUMPDEST PUSH1 0x1 DUP3 ADD SWAP1 POP SWAP2 SWAP1 POP JUMP JUMPDEST PUSH0 PUSH3 0xFAF DUP3 PUSH3 0x7D5 JUMP JUMPDEST SWAP2 POP PUSH3 0xFBC DUP4 PUSH3 0x7D5 JUMP JUMPDEST SWAP3 POP DUP3 DUP3 SUB SWAP1 POP DUP2 DUP2 GT ISZERO PUSH3 0xFD7 JUMPI PUSH3 0xFD6 PUSH3 0xEC3 JUMP JUMPDEST JUMPDEST SWAP3 SWAP2 POP POP JUMP JUMPDEST PUSH3 0xFE8 DUP2 PUSH3 0x7D5 JUMP JUMPDEST DUP3 MSTORE POP POP JUMP JUMPDEST PUSH0 PUSH1 0x60 DUP3 ADD SWAP1 POP PUSH3 0x1003 PUSH0 DUP4 ADD DUP7 PUSH3 0xDF3 JUMP JUMPDEST PUSH3 0x1012 PUSH1 0x20 DUP4 ADD DUP6 PUSH3 0xFDD JUMP JUMPDEST PUSH3 0x1021 PUSH1 0x40 DUP4 ADD DUP5 PUSH3 0xFDD JUMP JUMPDEST SWAP5 SWAP4 POP POP POP POP JUMP JUMPDEST PUSH0 PUSH1 0x20 DUP3 ADD SWAP1 POP PUSH3 0x103E PUSH0 DUP4 ADD DUP5 PUSH3 0xFDD JUMP JUMPDEST SWAP3 SWAP2 POP POP JUMP JUMPDEST PUSH2 0x1DE9 DUP1 PUSH3 0x1052 PUSH0 CODECOPY PUSH0 RETURN INVALID PUSH1 0x80 PUSH1 0x40 MSTORE CALLVALUE DUP1 ISZERO PUSH2 0xF JUMPI PUSH0 DUP1 REVERT JUMPDEST POP PUSH1 0x4 CALLDATASIZE LT PUSH2 0x114 JUMPI PUSH0 CALLDATALOAD PUSH1 0xE0 SHR DUP1 PUSH4 0x95D89B41 GT PUSH2 0xA0 JUMPI DUP1 PUSH4 0xB93A5396 GT PUSH2 0x6F JUMPI DUP1 PUSH4 0xB93A5396 EQ PUSH2 0x2CE JUMPI DUP1 PUSH4 0xBD7DAC92 EQ PUSH2 0x2EA JUMPI DUP1 PUSH4 0xC0A4D64D EQ PUSH2 0x308 JUMPI DUP1 PUSH4 0xDD62ED3E EQ PUSH2 0x326 JUMPI DUP1 PUSH4 0xF2FDE38B EQ PUSH2 0x356 JUMPI PUSH2 0x114 JUMP JUMPDEST DUP1 PUSH4 0x95D89B41 EQ PUSH2 0x246 JUMPI DUP1 PUSH4 0x9F3ADB0E EQ PUSH2 0x264 JUMPI DUP1 PUSH4 0xA9059CBB EQ PUSH2 0x282 JUMPI DUP1 PUSH4 0xAE84827A EQ PUSH2 0x2B2 JUMPI PUSH2 0x114 JUMP JUMPDEST DUP1 PUSH4 0x23B872DD GT PUSH2 0xE7 JUMPI DUP1 PUSH4 0x23B872DD EQ PUSH2 0x1A0 JUMPI DUP1 PUSH4 0x313CE567 EQ PUSH2 0x1D0 JUMPI DUP1 PUSH4 0x70A08231 EQ PUSH2 0x1EE JUMPI DUP1 PUSH4 0x715018A6 EQ PUSH2 0x21E JUMPI DUP1 PUSH4 0x8DA5CB5B EQ PUSH2 0x228 JUMPI PUSH2 0x114 JUMP JUMPDEST DUP1 PUSH4 0x6FDDE03 EQ PUSH2 0x118 JUMPI DUP1 PUSH4 0x95EA7B3 EQ PUSH2 0x136 JUMPI DUP1 PUSH4 0xDE65A44 EQ PUSH2 0x166 JUMPI DUP1 PUSH4 0x18160DDD EQ PUSH2 0x182 JUMPI JUMPDEST PUSH0 DUP1 REVERT JUMPDEST PUSH2 0x120 PUSH2 0x372 JUMP JUMPDEST PUSH1 0x40 MLOAD PUSH2 0x12D SWAP2 SWAP1 PUSH2 0x12B9 JUMP JUMPDEST PUSH1 0x40 MLOAD DUP1 SWAP2 SUB SWAP1 RETURN JUMPDEST PUSH2 0x150 PUSH1 0x4 DUP1 CALLDATASIZE SUB DUP2 ADD SWAP1 PUSH2 0x14B SWAP2 SWAP1 PUSH2 0x1377 JUMP JUMPDEST PUSH2 0x402 JUMP JUMPDEST PUSH1 0x40 MLOAD PUSH2 0x15D SWAP2 SWAP1 PUSH2 0x13CF JUMP JUMPDEST PUSH1 0x40 MLOAD DUP1 SWAP2 SUB SWAP1 RETURN JUMPDEST PUSH2 0x180 PUSH1 0x4 DUP1 CALLDATASIZE SUB DUP2 ADD SWAP1 PUSH2 0x17B SWAP2 SWAP1 PUSH2 0x1514 JUMP JUMPDEST PUSH2 0x424 JUMP JUMPDEST STOP JUMPDEST PUSH2 0x18A PUSH2 0x43F JUMP JUMPDEST PUSH1 0x40 MLOAD PUSH2 0x197 SWAP2 SWAP1 PUSH2 0x156A JUMP JUMPDEST PUSH1 0x40 MLOAD DUP1 SWAP2 SUB SWAP1 RETURN JUMPDEST PUSH2 0x1BA PUSH1 0x4 DUP1 CALLDATASIZE SUB DUP2 ADD SWAP1 PUSH2 0x1B5 SWAP2 SWAP1 PUSH2 0x1583 JUMP JUMPDEST PUSH2 0x448 JUMP JUMPDEST PUSH1 0x40 MLOAD PUSH2 0x1C7 SWAP2 SWAP1 PUSH2 0x13CF JUMP JUMPDEST PUSH1 0x40 MLOAD DUP1 SWAP2 SUB SWAP1 RETURN JUMPDEST PUSH2 0x1D8 PUSH2 0x5A0 JUMP JUMPDEST PUSH1 0x40 MLOAD PUSH2 0x1E5 SWAP2 SWAP1 PUSH2 0x15EE JUMP JUMPDEST PUSH1 0x40 MLOAD DUP1 SWAP2 SUB SWAP1 RETURN JUMPDEST PUSH2 0x208 PUSH1 0x4 DUP1 CALLDATASIZE SUB DUP2 ADD SWAP1 PUSH2 0x203 SWAP2 SWAP1 PUSH2 0x1607 JUMP JUMPDEST PUSH2 0x5A4 JUMP JUMPDEST PUSH1 0x40 MLOAD PUSH2 0x215 SWAP2 SWAP1 PUSH2 0x156A JUMP JUMPDEST PUSH1 0x40 MLOAD DUP1 SWAP2 SUB SWAP1 RETURN JUMPDEST PUSH2 0x226 PUSH2 0x5E9 JUMP JUMPDEST STOP JUMPDEST PUSH2 0x230 PUSH2 0x5FC JUMP JUMPDEST PUSH1 0x40 MLOAD PUSH2 0x23D SWAP2 SWAP1 PUSH2 0x1641 JUMP JUMPDEST PUSH1 0x40 MLOAD DUP1 SWAP2 SUB SWAP1 RETURN JUMPDEST PUSH2 0x24E PUSH2 0x624 JUMP JUMPDEST PUSH1 0x40 MLOAD PUSH2 0x25B SWAP2 SWAP1 PUSH2 0x12B9 JUMP JUMPDEST PUSH1 0x40 MLOAD DUP1 SWAP2 SUB SWAP1 RETURN JUMPDEST PUSH2 0x26C PUSH2 0x6B4 JUMP JUMPDEST PUSH1 0x40 MLOAD PUSH2 0x279 SWAP2 SWAP1 PUSH2 0x156A JUMP JUMPDEST PUSH1 0x40 MLOAD DUP1 SWAP2 SUB SWAP1 RETURN JUMPDEST PUSH2 0x29C PUSH1 0x4 DUP1 CALLDATASIZE SUB DUP2 ADD SWAP1 PUSH2 0x297 SWAP2 SWAP1 PUSH2 0x1377 JUMP JUMPDEST PUSH2 0x6BA JUMP JUMPDEST PUSH1 0x40 MLOAD PUSH2 0x2A9 SWAP2 SWAP1 PUSH2 0x13CF JUMP JUMPDEST PUSH1 0x40 MLOAD DUP1 SWAP2 SUB SWAP1 RETURN JUMPDEST PUSH2 0x2CC PUSH1 0x4 DUP1 CALLDATASIZE SUB DUP2 ADD SWAP1 PUSH2 0x2C7 SWAP2 SWAP1 PUSH2 0x1377 JUMP JUMPDEST PUSH2 0x849 JUMP JUMPDEST STOP JUMPDEST PUSH2 0x2E8 PUSH1 0x4 DUP1 CALLDATASIZE SUB DUP2 ADD SWAP1 PUSH2 0x2E3 SWAP2 SWAP1 PUSH2 0x1377 JUMP JUMPDEST PUSH2 0x85F JUMP JUMPDEST STOP JUMPDEST PUSH2 0x2F2 PUSH2 0x875 JUMP JUMPDEST PUSH1 0x40 MLOAD PUSH2 0x2FF SWAP2 SWAP1 PUSH2 0x12B9 JUMP JUMPDEST PUSH1 0x40 MLOAD DUP1 SWAP2 SUB SWAP1 RETURN JUMPDEST PUSH2 0x310 PUSH2 0x905 JUMP JUMPDEST PUSH1 0x40 MLOAD PUSH2 0x31D SWAP2 SWAP1 PUSH2 0x156A JUMP JUMPDEST PUSH1 0x40 MLOAD DUP1 SWAP2 SUB SWAP1 RETURN JUMPDEST PUSH2 0x340 PUSH1 0x4 DUP1 CALLDATASIZE SUB DUP2 ADD SWAP1 PUSH2 0x33B SWAP2 SWAP1 PUSH2 0x165A JUMP JUMPDEST PUSH2 0x90E JUMP JUMPDEST PUSH1 0x40 MLOAD PUSH2 0x34D SWAP2 SWAP1 PUSH2 0x156A JUMP JUMPDEST PUSH1 0x40 MLOAD DUP1 SWAP2 SUB SWAP1 RETURN JUMPDEST PUSH2 0x370 PUSH1 0x4 DUP1 CALLDATASIZE SUB DUP2 ADD SWAP1 PUSH2 0x36B SWAP2 SWAP1 PUSH2 0x1607 JUMP JUMPDEST PUSH2 0x990 JUMP JUMPDEST STOP JUMPDEST PUSH1 0x60 PUSH1 0x3 DUP1 SLOAD PUSH2 0x381 SWAP1 PUSH2 0x16C5 JUMP JUMPDEST DUP1 PUSH1 0x1F ADD PUSH1 0x20 DUP1 SWAP2 DIV MUL PUSH1 0x20 ADD PUSH1 0x40 MLOAD SWAP1 DUP2 ADD PUSH1 0x40 MSTORE DUP1 SWAP3 SWAP2 SWAP1 DUP2 DUP2 MSTORE PUSH1 0x20 ADD DUP3 DUP1 SLOAD PUSH2 0x3AD SWAP1 PUSH2 0x16C5 JUMP JUMPDEST DUP1 ISZERO PUSH2 0x3F8 JUMPI DUP1 PUSH1 0x1F LT PUSH2 0x3CF JUMPI PUSH2 0x100 DUP1 DUP4 SLOAD DIV MUL DUP4 MSTORE SWAP2 PUSH1 0x20 ADD SWAP2 PUSH2 0x3F8 JUMP JUMPDEST DUP3 ADD SWAP2 SWAP1 PUSH0 MSTORE PUSH1 0x20 PUSH0 KECCAK256 SWAP1 JUMPDEST DUP2 SLOAD DUP2 MSTORE SWAP1 PUSH1 0x1 ADD SWAP1 PUSH1 0x20 ADD DUP1 DUP4 GT PUSH2 0x3DB JUMPI DUP3 SWAP1 SUB PUSH1 0x1F AND DUP3 ADD SWAP2 JUMPDEST POP POP POP POP POP SWAP1 POP SWAP1 JUMP JUMPDEST PUSH0 DUP1 PUSH2 0x40C PUSH2 0xA14 JUMP JUMPDEST SWAP1 POP PUSH2 0x419 DUP2 DUP6 DUP6 PUSH2 0xA1B JUMP JUMPDEST PUSH1 0x1 SWAP2 POP POP SWAP3 SWAP2 POP POP JUMP JUMPDEST PUSH2 0x42C PUSH2 0xA2D JUMP JUMPDEST DUP1 PUSH1 0xA SWAP1 DUP2 PUSH2 0x43B SWAP2 SWAP1 PUSH2 0x1892 JUMP JUMPDEST POP POP JUMP JUMPDEST PUSH0 PUSH1 0x2 SLOAD SWAP1 POP SWAP1 JUMP JUMPDEST PUSH0 PUSH2 0x451 PUSH2 0x5FC JUMP JUMPDEST PUSH20 0xFFFFFFFFFFFFFFFFFFFFFFFFFFFFFFFFFFFFFFFF AND DUP5 PUSH20 0xFFFFFFFFFFFFFFFFFFFFFFFFFFFFFFFFFFFFFFFF AND SUB PUSH2 0x4CD JUMPI PUSH1 0x9 SLOAD TIMESTAMP LT ISZERO PUSH2 0x4C8 JUMPI PUSH1 0x40 MLOAD PUSH32 0x8C379A000000000000000000000000000000000000000000000000000000000 DUP2 MSTORE PUSH1 0x4 ADD PUSH2 0x4BF SWAP1 PUSH2 0x19AB JUMP JUMPDEST PUSH1 0x40 MLOAD DUP1 SWAP2 SUB SWAP1 REVERT JUMPDEST PUSH2 0x513 JUMP JUMPDEST PUSH1 0x8 SLOAD TIMESTAMP LT ISZERO PUSH2 0x512 JUMPI PUSH1 0x40 MLOAD PUSH32 0x8C379A000000000000000000000000000000000000000000000000000000000 DUP2 MSTORE PUSH1 0x4 ADD PUSH2 0x509 SWAP1 PUSH2 0x1A13 JUMP JUMPDEST PUSH1 0x40 MLOAD DUP1 SWAP2 SUB SWAP1 REVERT JUMPDEST JUMPDEST PUSH0 DUP3 PUSH2 0x51E DUP6 PUSH2 0x5A4 JUMP JUMPDEST PUSH2 0x528 SWAP2 SWAP1 PUSH2 0x1A5E JUMP JUMPDEST SWAP1 POP PUSH1 0x64 PUSH2 0x534 PUSH2 0x43F JUMP JUMPDEST PUSH1 0x14 PUSH2 0x540 SWAP2 SWAP1 PUSH2 0x1A91 JUMP JUMPDEST PUSH2 0x54A SWAP2 SWAP1 PUSH2 0x1AFF JUMP JUMPDEST DUP2 LT PUSH2 0x58B JUMPI PUSH1 0x40 MLOAD PUSH32 0x8C379A000000000000000000000000000000000000000000000000000000000 DUP2 MSTORE PUSH1 0x4 ADD PUSH2 0x582 SWAP1 PUSH2 0x1B9F JUMP JUMPDEST PUSH1 0x40 MLOAD DUP1 SWAP2 SUB SWAP1 REVERT JUMPDEST PUSH2 0x596 DUP6 DUP6 DUP6 PUSH2 0xAB4 JUMP JUMPDEST SWAP2 POP POP SWAP4 SWAP3 POP POP POP JUMP JUMPDEST PUSH0 SWAP1 JUMP JUMPDEST PUSH0 DUP1 PUSH0 DUP4 PUSH20 0xFFFFFFFFFFFFFFFFFFFFFFFFFFFFFFFFFFFFFFFF AND PUSH20 0xFFFFFFFFFFFFFFFFFFFFFFFFFFFFFFFFFFFFFFFF AND DUP2 MSTORE PUSH1 0x20 ADD SWAP1 DUP2 MSTORE PUSH1 0x20 ADD PUSH0 KECCAK256 SLOAD SWAP1 POP SWAP2 SWAP1 POP JUMP JUMPDEST PUSH2 0x5F1 PUSH2 0xA2D JUMP JUMPDEST PUSH2 0x5FA PUSH0 PUSH2 0xAE2 JUMP JUMPDEST JUMP JUMPDEST PUSH0 PUSH1 0x5 PUSH0 SWAP1 SLOAD SWAP1 PUSH2 0x100 EXP SWAP1 DIV PUSH20 0xFFFFFFFFFFFFFFFFFFFFFFFFFFFFFFFFFFFFFFFF AND SWAP1 POP SWAP1 JUMP JUMPDEST PUSH1 0x60 PUSH1 0x4 DUP1 SLOAD PUSH2 0x633 SWAP1 PUSH2 0x16C5 JUMP JUMPDEST DUP1 PUSH1 0x1F ADD PUSH1 0x20 DUP1 SWAP2 DIV MUL PUSH1 0x20 ADD PUSH1 0x40 MLOAD SWAP1 DUP2 ADD PUSH1 0x40 MSTORE DUP1 SWAP3 SWAP2 SWAP1 DUP2 DUP2 MSTORE PUSH1 0x20 ADD DUP3 DUP1 SLOAD PUSH2 0x65F SWAP1 PUSH2 0x16C5 JUMP JUMPDEST DUP1 ISZERO PUSH2 0x6AA JUMPI DUP1 PUSH1 0x1F LT PUSH2 0x681 JUMPI PUSH2 0x100 DUP1 DUP4 SLOAD DIV MUL DUP4 MSTORE SWAP2 PUSH1 0x20 ADD SWAP2 PUSH2 0x6AA JUMP JUMPDEST DUP3 ADD SWAP2 SWAP1 PUSH0 MSTORE PUSH1 0x20 PUSH0 KECCAK256 SWAP1 JUMPDEST DUP2 SLOAD DUP2 MSTORE SWAP1 PUSH1 0x1 ADD SWAP1 PUSH1 0x20 ADD DUP1 DUP4 GT PUSH2 0x68D JUMPI DUP3 SWAP1 SUB PUSH1 0x1F AND DUP3 ADD SWAP2 JUMPDEST POP POP POP POP POP SWAP1 POP SWAP1 JUMP JUMPDEST PUSH1 0x9 SLOAD DUP2 JUMP JUMPDEST PUSH0 PUSH2 0x6C3 PUSH2 0x5FC JUMP JUMPDEST PUSH20 0xFFFFFFFFFFFFFFFFFFFFFFFFFFFFFFFFFFFFFFFF AND CALLER PUSH20 0xFFFFFFFFFFFFFFFFFFFFFFFFFFFFFFFFFFFFFFFF AND SUB PUSH2 0x73B JUMPI PUSH1 0x9 SLOAD TIMESTAMP LT ISZERO PUSH2 0x73A JUMPI PUSH1 0x40 MLOAD PUSH32 0x8C379A000000000000000000000000000000000000000000000000000000000 DUP2 MSTORE PUSH1 0x4 ADD PUSH2 0x731 SWAP1 PUSH2 0x1C2D JUMP JUMPDEST PUSH1 0x40 MLOAD DUP1 SWAP2 SUB SWAP1 REVERT JUMPDEST JUMPDEST PUSH1 0x8 SLOAD TIMESTAMP LT ISZERO PUSH2 0x780 JUMPI PUSH1 0x40 MLOAD PUSH32 0x8C379A000000000000000000000000000000000000000000000000000000000 DUP2 MSTORE PUSH1 0x4 ADD PUSH2 0x777 SWAP1 PUSH2 0x1C95 JUMP JUMPDEST PUSH1 0x40 MLOAD DUP1 SWAP2 SUB SWAP1 REVERT JUMPDEST PUSH0 DUP3 PUSH2 0x78B DUP6 PUSH2 0x5A4 JUMP JUMPDEST PUSH2 0x795 SWAP2 SWAP1 PUSH2 0x1A5E JUMP JUMPDEST SWAP1 POP PUSH1 0x64 PUSH2 0x7A1 PUSH2 0x43F JUMP JUMPDEST PUSH1 0x14 PUSH2 0x7AD SWAP2 SWAP1 PUSH2 0x1A91 JUMP JUMPDEST PUSH2 0x7B7 SWAP2 SWAP1 PUSH2 0x1AFF JUMP JUMPDEST DUP2 LT PUSH2 0x7F8 JUMPI PUSH1 0x40 MLOAD PUSH32 0x8C379A000000000000000000000000000000000000000000000000000000000 DUP2 MSTORE PUSH1 0x4 ADD PUSH2 0x7EF SWAP1 PUSH2 0x1B9F JUMP JUMPDEST PUSH1 0x40 MLOAD DUP1 SWAP2 SUB SWAP1 REVERT JUMPDEST PUSH32 0x8519CDB8AD47F1F5F5BC583D2063D1FC1FFED7DAC0CAB9E8B1F6492AA60CBD7F CALLER DUP6 DUP6 PUSH1 0xB PUSH1 0x40 MLOAD PUSH2 0x82E SWAP5 SWAP4 SWAP3 SWAP2 SWAP1 PUSH2 0x1D34 JUMP JUMPDEST PUSH1 0x40 MLOAD DUP1 SWAP2 SUB SWAP1 LOG1 PUSH2 0x840 DUP5 DUP5 PUSH2 0xBA5 JUMP JUMPDEST SWAP2 POP POP SWAP3 SWAP2 POP POP JUMP JUMPDEST PUSH2 0x851 PUSH2 0xA2D JUMP JUMPDEST PUSH2 0x85B DUP3 DUP3 PUSH2 0xBC7 JUMP JUMPDEST POP POP JUMP JUMPDEST PUSH2 0x867 PUSH2 0xA2D JUMP JUMPDEST PUSH2 0x871 DUP3 DUP3 PUSH2 0xC46 JUMP JUMPDEST POP POP JUMP JUMPDEST PUSH1 0x60 PUSH1 0xA DUP1 SLOAD PUSH2 0x884 SWAP1 PUSH2 0x16C5 JUMP JUMPDEST DUP1 PUSH1 0x1F ADD PUSH1 0x20 DUP1 SWAP2 DIV MUL PUSH1 0x20 ADD PUSH1 0x40 MLOAD SWAP1 DUP2 ADD PUSH1 0x40 MSTORE DUP1 SWAP3 SWAP2 SWAP1 DUP2 DUP2 MSTORE PUSH1 0x20 ADD DUP3 DUP1 SLOAD PUSH2 0x8B0 SWAP1 PUSH2 0x16C5 JUMP JUMPDEST DUP1 ISZERO PUSH2 0x8FB JUMPI DUP1 PUSH1 0x1F LT PUSH2 0x8D2 JUMPI PUSH2 0x100 DUP1 DUP4 SLOAD DIV MUL DUP4 MSTORE SWAP2 PUSH1 0x20 ADD SWAP2 PUSH2 0x8FB JUMP JUMPDEST DUP3 ADD SWAP2 SWAP1 PUSH0 MSTORE PUSH1 0x20 PUSH0 KECCAK256 SWAP1 JUMPDEST DUP2 SLOAD DUP2 MSTORE SWAP1 PUSH1 0x1 ADD SWAP1 PUSH1 0x20 ADD DUP1 DUP4 GT PUSH2 0x8DE JUMPI DUP3 SWAP1 SUB PUSH1 0x1F AND DUP3 ADD SWAP2 JUMPDEST POP POP POP POP POP SWAP1 POP SWAP1 JUMP JUMPDEST PUSH0 PUSH1 0x8 SLOAD SWAP1 POP SWAP1 JUMP JUMPDEST PUSH0 PUSH1 0x1 PUSH0 DUP5 PUSH20 0xFFFFFFFFFFFFFFFFFFFFFFFFFFFFFFFFFFFFFFFF AND PUSH20 0xFFFFFFFFFFFFFFFFFFFFFFFFFFFFFFFFFFFFFFFF AND DUP2 MSTORE PUSH1 0x20 ADD SWAP1 DUP2 MSTORE PUSH1 0x20 ADD PUSH0 KECCAK256 PUSH0 DUP4 PUSH20 0xFFFFFFFFFFFFFFFFFFFFFFFFFFFFFFFFFFFFFFFF AND PUSH20 0xFFFFFFFFFFFFFFFFFFFFFFFFFFFFFFFFFFFFFFFF AND DUP2 MSTORE PUSH1 0x20 ADD SWAP1 DUP2 MSTORE PUSH1 0x20 ADD PUSH0 KECCAK256 SLOAD SWAP1 POP SWAP3 SWAP2 POP POP JUMP JUMPDEST PUSH2 0x998 PUSH2 0xA2D JUMP JUMPDEST PUSH0 PUSH20 0xFFFFFFFFFFFFFFFFFFFFFFFFFFFFFFFFFFFFFFFF AND DUP2 PUSH20 0xFFFFFFFFFFFFFFFFFFFFFFFFFFFFFFFFFFFFFFFF AND SUB PUSH2 0xA08 JUMPI PUSH0 PUSH1 0x40 MLOAD PUSH32 0x1E4FBDF700000000000000000000000000000000000000000000000000000000 DUP2 MSTORE PUSH1 0x4 ADD PUSH2 0x9FF SWAP2 SWAP1 PUSH2 0x1641 JUMP JUMPDEST PUSH1 0x40 MLOAD DUP1 SWAP2 SUB SWAP1 REVERT JUMPDEST PUSH2 0xA11 DUP2 PUSH2 0xAE2 JUMP JUMPDEST POP JUMP JUMPDEST PUSH0 CALLER SWAP1 POP SWAP1 JUMP JUMPDEST PUSH2 0xA28 DUP4 DUP4 DUP4 PUSH1 0x1 PUSH2 0xCC5 JUMP JUMPDEST POP POP POP JUMP JUMPDEST PUSH2 0xA35 PUSH2 0xA14 JUMP JUMPDEST PUSH20 0xFFFFFFFFFFFFFFFFFFFFFFFFFFFFFFFFFFFFFFFF AND PUSH2 0xA53 PUSH2 0x5FC JUMP JUMPDEST PUSH20 0xFFFFFFFFFFFFFFFFFFFFFFFFFFFFFFFFFFFFFFFF AND EQ PUSH2 0xAB2 JUMPI PUSH2 0xA76 PUSH2 0xA14 JUMP JUMPDEST PUSH1 0x40 MLOAD PUSH32 0x118CDAA700000000000000000000000000000000000000000000000000000000 DUP2 MSTORE PUSH1 0x4 ADD PUSH2 0xAA9 SWAP2 SWAP1 PUSH2 0x1641 JUMP JUMPDEST PUSH1 0x40 MLOAD DUP1 SWAP2 SUB SWAP1 REVERT JUMPDEST JUMP JUMPDEST PUSH0 DUP1 PUSH2 0xABE PUSH2 0xA14 JUMP JUMPDEST SWAP1 POP PUSH2 0xACB DUP6 DUP3 DUP6 PUSH2 0xE94 JUMP JUMPDEST PUSH2 0xAD6 DUP6 DUP6 DUP6 PUSH2 0xF26 JUMP JUMPDEST PUSH1 0x1 SWAP2 POP POP SWAP4 SWAP3 POP POP POP JUMP JUMPDEST PUSH0 PUSH1 0x5 PUSH0 SWAP1 SLOAD SWAP1 PUSH2 0x100 EXP SWAP1 DIV PUSH20 0xFFFFFFFFFFFFFFFFFFFFFFFFFFFFFFFFFFFFFFFF AND SWAP1 POP DUP2 PUSH1 0x5 PUSH0 PUSH2 0x100 EXP DUP2 SLOAD DUP2 PUSH20 0xFFFFFFFFFFFFFFFFFFFFFFFFFFFFFFFFFFFFFFFF MUL NOT AND SWAP1 DUP4 PUSH20 0xFFFFFFFFFFFFFFFFFFFFFFFFFFFFFFFFFFFFFFFF AND MUL OR SWAP1 SSTORE POP DUP2 PUSH20 0xFFFFFFFFFFFFFFFFFFFFFFFFFFFFFFFFFFFFFFFF AND DUP2 PUSH20 0xFFFFFFFFFFFFFFFFFFFFFFFFFFFFFFFFFFFFFFFF AND PUSH32 0x8BE0079C531659141344CD1FD0A4F28419497F9722A3DAAFE3B4186F6B6457E0 PUSH1 0x40 MLOAD PUSH1 0x40 MLOAD DUP1 SWAP2 SUB SWAP1 LOG3 POP POP JUMP JUMPDEST PUSH0 DUP1 PUSH2 0xBAF PUSH2 0xA14 JUMP JUMPDEST SWAP1 POP PUSH2 0xBBC DUP2 DUP6 DUP6 PUSH2 0xF26 JUMP JUMPDEST PUSH1 0x1 SWAP2 POP POP SWAP3 SWAP2 POP POP JUMP JUMPDEST PUSH0 PUSH20 0xFFFFFFFFFFFFFFFFFFFFFFFFFFFFFFFFFFFFFFFF AND DUP3 PUSH20 0xFFFFFFFFFFFFFFFFFFFFFFFFFFFFFFFFFFFFFFFF AND SUB PUSH2 0xC37 JUMPI PUSH0 PUSH1 0x40 MLOAD PUSH32 0x96C6FD1E00000000000000000000000000000000000000000000000000000000 DUP2 MSTORE PUSH1 0x4 ADD PUSH2 0xC2E SWAP2 SWAP1 PUSH2 0x1641 JUMP JUMPDEST PUSH1 0x40 MLOAD DUP1 SWAP2 SUB SWAP1 REVERT JUMPDEST PUSH2 0xC42 DUP3 PUSH0 DUP4 PUSH2 0x1016 JUMP JUMPDEST POP POP JUMP JUMPDEST PUSH0 PUSH20 0xFFFFFFFFFFFFFFFFFFFFFFFFFFFFFFFFFFFFFFFF AND DUP3 PUSH20 0xFFFFFFFFFFFFFFFFFFFFFFFFFFFFFFFFFFFFFFFF AND SUB PUSH2 0xCB6 JUMPI PUSH0 PUSH1 0x40 MLOAD PUSH32 0xEC442F0500000000000000000000000000000000000000000000000000000000 DUP2 MSTORE PUSH1 0x4 ADD PUSH2 0xCAD SWAP2 SWAP1 PUSH2 0x1641 JUMP JUMPDEST PUSH1 0x40 MLOAD DUP1 SWAP2 SUB SWAP1 REVERT JUMPDEST PUSH2 0xCC1 PUSH0 DUP4 DUP4 PUSH2 0x1016 JUMP JUMPDEST POP POP JUMP JUMPDEST PUSH0 PUSH20 0xFFFFFFFFFFFFFFFFFFFFFFFFFFFFFFFFFFFFFFFF AND DUP5 PUSH20 0xFFFFFFFFFFFFFFFFFFFFFFFFFFFFFFFFFFFFFFFF AND SUB PUSH2 0xD35 JUMPI PUSH0 PUSH1 0x40 MLOAD PUSH32 0xE602DF0500000000000000000000000000000000000000000000000000000000 DUP2 MSTORE PUSH1 0x4 ADD PUSH2 0xD2C SWAP2 SWAP1 PUSH2 0x1641 JUMP JUMPDEST PUSH1 0x40 MLOAD DUP1 SWAP2 SUB SWAP1 REVERT JUMPDEST PUSH0 PUSH20 0xFFFFFFFFFFFFFFFFFFFFFFFFFFFFFFFFFFFFFFFF AND DUP4 PUSH20 0xFFFFFFFFFFFFFFFFFFFFFFFFFFFFFFFFFFFFFFFF AND SUB PUSH2 0xDA5 JUMPI PUSH0 PUSH1 0x40 MLOAD PUSH32 0x94280D6200000000000000000000000000000000000000000000000000000000 DUP2 MSTORE PUSH1 0x4 ADD PUSH2 0xD9C SWAP2 SWAP1 PUSH2 0x1641 JUMP JUMPDEST PUSH1 0x40 MLOAD DUP1 SWAP2 SUB SWAP1 REVERT JUMPDEST DUP2 PUSH1 0x1 PUSH0 DUP7 PUSH20 0xFFFFFFFFFFFFFFFFFFFFFFFFFFFFFFFFFFFFFFFF AND PUSH20 0xFFFFFFFFFFFFFFFFFFFFFFFFFFFFFFFFFFFFFFFF AND DUP2 MSTORE PUSH1 0x20 ADD SWAP1 DUP2 MSTORE PUSH1 0x20 ADD PUSH0 KECCAK256 PUSH0 DUP6 PUSH20 0xFFFFFFFFFFFFFFFFFFFFFFFFFFFFFFFFFFFFFFFF AND PUSH20 0xFFFFFFFFFFFFFFFFFFFFFFFFFFFFFFFFFFFFFFFF AND DUP2 MSTORE PUSH1 0x20 ADD SWAP1 DUP2 MSTORE PUSH1 0x20 ADD PUSH0 KECCAK256 DUP2 SWAP1 SSTORE POP DUP1 ISZERO PUSH2 0xE8E JUMPI DUP3 PUSH20 0xFFFFFFFFFFFFFFFFFFFFFFFFFFFFFFFFFFFFFFFF AND DUP5 PUSH20 0xFFFFFFFFFFFFFFFFFFFFFFFFFFFFFFFFFFFFFFFF AND PUSH32 0x8C5BE1E5EBEC7D5BD14F71427D1E84F3DD0314C0F7B2291E5B200AC8C7C3B925 DUP5 PUSH1 0x40 MLOAD PUSH2 0xE85 SWAP2 SWAP1 PUSH2 0x156A JUMP JUMPDEST PUSH1 0x40 MLOAD DUP1 SWAP2 SUB SWAP1 LOG3 JUMPDEST POP POP POP POP JUMP JUMPDEST PUSH0 PUSH2 0xE9F DUP5 DUP5 PUSH2 0x90E JUMP JUMPDEST SWAP1 POP PUSH32 0xFFFFFFFFFFFFFFFFFFFFFFFFFFFFFFFFFFFFFFFFFFFFFFFFFFFFFFFFFFFFFFFF DUP2 EQ PUSH2 0xF20 JUMPI DUP2 DUP2 LT ISZERO PUSH2 0xF11 JUMPI DUP3 DUP2 DUP4 PUSH1 0x40 MLOAD PUSH32 0xFB8F41B200000000000000000000000000000000000000000000000000000000 DUP2 MSTORE PUSH1 0x4 ADD PUSH2 0xF08 SWAP4 SWAP3 SWAP2 SWAP1 PUSH2 0x1D7E JUMP JUMPDEST PUSH1 0x40 MLOAD DUP1 SWAP2 SUB SWAP1 REVERT JUMPDEST PUSH2 0xF1F DUP5 DUP5 DUP5 DUP5 SUB PUSH0 PUSH2 0xCC5 JUMP JUMPDEST JUMPDEST POP POP POP POP JUMP JUMPDEST PUSH0 PUSH20 0xFFFFFFFFFFFFFFFFFFFFFFFFFFFFFFFFFFFFFFFF AND DUP4 PUSH20 0xFFFFFFFFFFFFFFFFFFFFFFFFFFFFFFFFFFFFFFFF AND SUB PUSH2 0xF96 JUMPI PUSH0 PUSH1 0x40 MLOAD PUSH32 0x96C6FD1E00000000000000000000000000000000000000000000000000000000 DUP2 MSTORE PUSH1 0x4 ADD PUSH2 0xF8D SWAP2 SWAP1 PUSH2 0x1641 JUMP JUMPDEST PUSH1 0x40 MLOAD DUP1 SWAP2 SUB SWAP1 REVERT JUMPDEST PUSH0 PUSH20 0xFFFFFFFFFFFFFFFFFFFFFFFFFFFFFFFFFFFFFFFF AND DUP3 PUSH20 0xFFFFFFFFFFFFFFFFFFFFFFFFFFFFFFFFFFFFFFFF AND SUB PUSH2 0x1006 JUMPI PUSH0 PUSH1 0x40 MLOAD PUSH32 0xEC442F0500000000000000000000000000000000000000000000000000000000 DUP2 MSTORE PUSH1 0x4 ADD PUSH2 0xFFD SWAP2 SWAP1 PUSH2 0x1641 JUMP JUMPDEST PUSH1 0x40 MLOAD DUP1 SWAP2 SUB SWAP1 REVERT JUMPDEST PUSH2 0x1011 DUP4 DUP4 DUP4 PUSH2 0x1016 JUMP JUMPDEST POP POP POP JUMP JUMPDEST PUSH0 PUSH20 0xFFFFFFFFFFFFFFFFFFFFFFFFFFFFFFFFFFFFFFFF AND DUP4 PUSH20 0xFFFFFFFFFFFFFFFFFFFFFFFFFFFFFFFFFFFFFFFF AND SUB PUSH2 0x1066 JUMPI DUP1 PUSH1 0x2 PUSH0 DUP3 DUP3 SLOAD PUSH2 0x105A SWAP2 SWAP1 PUSH2 0x1A5E JUMP JUMPDEST SWAP3 POP POP DUP2 SWAP1 SSTORE POP PUSH2 0x1134 JUMP JUMPDEST PUSH0 DUP1 PUSH0 DUP6 PUSH20 0xFFFFFFFFFFFFFFFFFFFFFFFFFFFFFFFFFFFFFFFF AND PUSH20 0xFFFFFFFFFFFFFFFFFFFFFFFFFFFFFFFFFFFFFFFF AND DUP2 MSTORE PUSH1 0x20 ADD SWAP1 DUP2 MSTORE PUSH1 0x20 ADD PUSH0 KECCAK256 SLOAD SWAP1 POP DUP2 DUP2 LT ISZERO PUSH2 0x10EF JUMPI DUP4 DUP2 DUP4 PUSH1 0x40 MLOAD PUSH32 0xE450D38C00000000000000000000000000000000000000000000000000000000 DUP2 MSTORE PUSH1 0x4 ADD PUSH2 0x10E6 SWAP4 SWAP3 SWAP2 SWAP1 PUSH2 0x1D7E JUMP JUMPDEST PUSH1 0x40 MLOAD DUP1 SWAP2 SUB SWAP1 REVERT JUMPDEST DUP2 DUP2 SUB PUSH0 DUP1 DUP7 PUSH20 0xFFFFFFFFFFFFFFFFFFFFFFFFFFFFFFFFFFFFFFFF AND PUSH20 0xFFFFFFFFFFFFFFFFFFFFFFFFFFFFFFFFFFFFFFFF AND DUP2 MSTORE PUSH1 0x20 ADD SWAP1 DUP2 MSTORE PUSH1 0x20 ADD PUSH0 KECCAK256 DUP2 SWAP1 SSTORE POP POP JUMPDEST PUSH0 PUSH20 0xFFFFFFFFFFFFFFFFFFFFFFFFFFFFFFFFFFFFFFFF AND DUP3 PUSH20 0xFFFFFFFFFFFFFFFFFFFFFFFFFFFFFFFFFFFFFFFF AND SUB PUSH2 0x117B JUMPI DUP1 PUSH1 0x2 PUSH0 DUP3 DUP3 SLOAD SUB SWAP3 POP POP DUP2 SWAP1 SSTORE POP PUSH2 0x11C5 JUMP JUMPDEST DUP1 PUSH0 DUP1 DUP5 PUSH20 0xFFFFFFFFFFFFFFFFFFFFFFFFFFFFFFFFFFFFFFFF AND PUSH20 0xFFFFFFFFFFFFFFFFFFFFFFFFFFFFFFFFFFFFFFFF AND DUP2 MSTORE PUSH1 0x20 ADD SWAP1 DUP2 MSTORE PUSH1 0x20 ADD PUSH0 KECCAK256 PUSH0 DUP3 DUP3 SLOAD ADD SWAP3 POP POP DUP2 SWAP1 SSTORE POP JUMPDEST DUP2 PUSH20 0xFFFFFFFFFFFFFFFFFFFFFFFFFFFFFFFFFFFFFFFF AND DUP4 PUSH20 0xFFFFFFFFFFFFFFFFFFFFFFFFFFFFFFFFFFFFFFFF AND PUSH32 0xDDF252AD1BE2C89B69C2B068FC378DAA952BA7F163C4A11628F55A4DF523B3EF DUP4 PUSH1 0x40 MLOAD PUSH2 0x1222 SWAP2 SWAP1 PUSH2 0x156A JUMP JUMPDEST PUSH1 0x40 MLOAD DUP1 SWAP2 SUB SWAP1 LOG3 POP POP POP JUMP JUMPDEST PUSH0 DUP2 MLOAD SWAP1 POP SWAP2 SWAP1 POP JUMP JUMPDEST PUSH0 DUP3 DUP3 MSTORE PUSH1 0x20 DUP3 ADD SWAP1 POP SWAP3 SWAP2 POP POP JUMP JUMPDEST PUSH0 JUMPDEST DUP4 DUP2 LT ISZERO PUSH2 0x1266 JUMPI DUP1 DUP3 ADD MLOAD DUP2 DUP5 ADD MSTORE PUSH1 0x20 DUP2 ADD SWAP1 POP PUSH2 0x124B JUMP JUMPDEST PUSH0 DUP5 DUP5 ADD MSTORE POP POP POP POP JUMP JUMPDEST PUSH0 PUSH1 0x1F NOT PUSH1 0x1F DUP4 ADD AND SWAP1 POP SWAP2 SWAP1 POP JUMP JUMPDEST PUSH0 PUSH2 0x128B DUP3 PUSH2 0x122F JUMP JUMPDEST PUSH2 0x1295 DUP2 DUP6 PUSH2 0x1239 JUMP JUMPDEST SWAP4 POP PUSH2 0x12A5 DUP2 DUP6 PUSH1 0x20 DUP7 ADD PUSH2 0x1249 JUMP JUMPDEST PUSH2 0x12AE DUP2 PUSH2 0x1271 JUMP JUMPDEST DUP5 ADD SWAP2 POP POP SWAP3 SWAP2 POP POP JUMP JUMPDEST PUSH0 PUSH1 0x20 DUP3 ADD SWAP1 POP DUP2 DUP2 SUB PUSH0 DUP4 ADD MSTORE PUSH2 0x12D1 DUP2 DUP5 PUSH2 0x1281 JUMP JUMPDEST SWAP1 POP SWAP3 SWAP2 POP POP JUMP JUMPDEST PUSH0 PUSH1 0x40 MLOAD SWAP1 POP SWAP1 JUMP JUMPDEST PUSH0 DUP1 REVERT JUMPDEST PUSH0 DUP1 REVERT JUMPDEST PUSH0 PUSH20 0xFFFFFFFFFFFFFFFFFFFFFFFFFFFFFFFFFFFFFFFF DUP3 AND SWAP1 POP SWAP2 SWAP1 POP JUMP JUMPDEST PUSH0 PUSH2 0x1313 DUP3 PUSH2 0x12EA JUMP JUMPDEST SWAP1 POP SWAP2 SWAP1 POP JUMP JUMPDEST PUSH2 0x1323 DUP2 PUSH2 0x1309 JUMP JUMPDEST DUP2 EQ PUSH2 0x132D JUMPI PUSH0 DUP1 REVERT JUMPDEST POP JUMP JUMPDEST PUSH0 DUP2 CALLDATALOAD SWAP1 POP PUSH2 0x133E DUP2 PUSH2 0x131A JUMP JUMPDEST SWAP3 SWAP2 POP POP JUMP JUMPDEST PUSH0 DUP2 SWAP1 POP SWAP2 SWAP1 POP JUMP JUMPDEST PUSH2 0x1356 DUP2 PUSH2 0x1344 JUMP JUMPDEST DUP2 EQ PUSH2 0x1360 JUMPI PUSH0 DUP1 REVERT JUMPDEST POP JUMP JUMPDEST PUSH0 DUP2 CALLDATALOAD SWAP1 POP PUSH2 0x1371 DUP2 PUSH2 0x134D JUMP JUMPDEST SWAP3 SWAP2 POP POP JUMP JUMPDEST PUSH0 DUP1 PUSH1 0x40 DUP4 DUP6 SUB SLT ISZERO PUSH2 0x138D JUMPI PUSH2 0x138C PUSH2 0x12E2 JUMP JUMPDEST JUMPDEST PUSH0 PUSH2 0x139A DUP6 DUP3 DUP7 ADD PUSH2 0x1330 JUMP JUMPDEST SWAP3 POP POP PUSH1 0x20 PUSH2 0x13AB DUP6 DUP3 DUP7 ADD PUSH2 0x1363 JUMP JUMPDEST SWAP2 POP POP SWAP3 POP SWAP3 SWAP1 POP JUMP JUMPDEST PUSH0 DUP2 ISZERO ISZERO SWAP1 POP SWAP2 SWAP1 POP JUMP JUMPDEST PUSH2 0x13C9 DUP2 PUSH2 0x13B5 JUMP JUMPDEST DUP3 MSTORE POP POP JUMP JUMPDEST PUSH0 PUSH1 0x20 DUP3 ADD SWAP1 POP PUSH2 0x13E2 PUSH0 DUP4 ADD DUP5 PUSH2 0x13C0 JUMP JUMPDEST SWAP3 SWAP2 POP POP JUMP JUMPDEST PUSH0 DUP1 REVERT JUMPDEST PUSH0 DUP1 REVERT JUMPDEST PUSH32 0x4E487B7100000000000000000000000000000000000000000000000000000000 PUSH0 MSTORE PUSH1 0x41 PUSH1 0x4 MSTORE PUSH1 0x24 PUSH0 REVERT JUMPDEST PUSH2 0x1426 DUP3 PUSH2 0x1271 JUMP JUMPDEST DUP2 ADD DUP2 DUP2 LT PUSH8 0xFFFFFFFFFFFFFFFF DUP3 GT OR ISZERO PUSH2 0x1445 JUMPI PUSH2 0x1444 PUSH2 0x13F0 JUMP JUMPDEST JUMPDEST DUP1 PUSH1 0x40 MSTORE POP POP POP JUMP JUMPDEST PUSH0 PUSH2 0x1457 PUSH2 0x12D9 JUMP JUMPDEST SWAP1 POP PUSH2 0x1463 DUP3 DUP3 PUSH2 0x141D JUMP JUMPDEST SWAP2 SWAP1 POP JUMP JUMPDEST PUSH0 PUSH8 0xFFFFFFFFFFFFFFFF DUP3 GT ISZERO PUSH2 0x1482 JUMPI PUSH2 0x1481 PUSH2 0x13F0 JUMP JUMPDEST JUMPDEST PUSH2 0x148B DUP3 PUSH2 0x1271 JUMP JUMPDEST SWAP1 POP PUSH1 0x20 DUP2 ADD SWAP1 POP SWAP2 SWAP1 POP JUMP JUMPDEST DUP3 DUP2 DUP4 CALLDATACOPY PUSH0 DUP4 DUP4 ADD MSTORE POP POP POP JUMP JUMPDEST PUSH0 PUSH2 0x14B8 PUSH2 0x14B3 DUP5 PUSH2 0x1468 JUMP JUMPDEST PUSH2 0x144E JUMP JUMPDEST SWAP1 POP DUP3 DUP2 MSTORE PUSH1 0x20 DUP2 ADD DUP5 DUP5 DUP5 ADD GT ISZERO PUSH2 0x14D4 JUMPI PUSH2 0x14D3 PUSH2 0x13EC JUMP JUMPDEST JUMPDEST PUSH2 0x14DF DUP5 DUP3 DUP6 PUSH2 0x1498 JUMP JUMPDEST POP SWAP4 SWAP3 POP POP POP JUMP JUMPDEST PUSH0 DUP3 PUSH1 0x1F DUP4 ADD SLT PUSH2 0x14FB JUMPI PUSH2 0x14FA PUSH2 0x13E8 JUMP JUMPDEST JUMPDEST DUP2 CALLDATALOAD PUSH2 0x150B DUP5 DUP3 PUSH1 0x20 DUP7 ADD PUSH2 0x14A6 JUMP JUMPDEST SWAP2 POP POP SWAP3 SWAP2 POP POP JUMP JUMPDEST PUSH0 PUSH1 0x20 DUP3 DUP5 SUB SLT ISZERO PUSH2 0x1529 JUMPI PUSH2 0x1528 PUSH2 0x12E2 JUMP JUMPDEST JUMPDEST PUSH0 DUP3 ADD CALLDATALOAD PUSH8 0xFFFFFFFFFFFFFFFF DUP2 GT ISZERO PUSH2 0x1546 JUMPI PUSH2 0x1545 PUSH2 0x12E6 JUMP JUMPDEST JUMPDEST PUSH2 0x1552 DUP5 DUP3 DUP6 ADD PUSH2 0x14E7 JUMP JUMPDEST SWAP2 POP POP SWAP3 SWAP2 POP POP JUMP JUMPDEST PUSH2 0x1564 DUP2 PUSH2 0x1344 JUMP JUMPDEST DUP3 MSTORE POP POP JUMP JUMPDEST PUSH0 PUSH1 0x20 DUP3 ADD SWAP1 POP PUSH2 0x157D PUSH0 DUP4 ADD DUP5 PUSH2 0x155B JUMP JUMPDEST SWAP3 SWAP2 POP POP JUMP JUMPDEST PUSH0 DUP1 PUSH0 PUSH1 0x60 DUP5 DUP7 SUB SLT ISZERO PUSH2 0x159A JUMPI PUSH2 0x1599 PUSH2 0x12E2 JUMP JUMPDEST JUMPDEST PUSH0 PUSH2 0x15A7 DUP7 DUP3 DUP8 ADD PUSH2 0x1330 JUMP JUMPDEST SWAP4 POP POP PUSH1 0x20 PUSH2 0x15B8 DUP7 DUP3 DUP8 ADD PUSH2 0x1330 JUMP JUMPDEST SWAP3 POP POP PUSH1 0x40 PUSH2 0x15C9 DUP7 DUP3 DUP8 ADD PUSH2 0x1363 JUMP JUMPDEST SWAP2 POP POP SWAP3 POP SWAP3 POP SWAP3 JUMP JUMPDEST PUSH0 PUSH1 0xFF DUP3 AND SWAP1 POP SWAP2 SWAP1 POP JUMP JUMPDEST PUSH2 0x15E8 DUP2 PUSH2 0x15D3 JUMP JUMPDEST DUP3 MSTORE POP POP JUMP JUMPDEST PUSH0 PUSH1 0x20 DUP3 ADD SWAP1 POP PUSH2 0x1601 PUSH0 DUP4 ADD DUP5 PUSH2 0x15DF JUMP JUMPDEST SWAP3 SWAP2 POP POP JUMP JUMPDEST PUSH0 PUSH1 0x20 DUP3 DUP5 SUB SLT ISZERO PUSH2 0x161C JUMPI PUSH2 0x161B PUSH2 0x12E2 JUMP JUMPDEST JUMPDEST PUSH0 PUSH2 0x1629 DUP5 DUP3 DUP6 ADD PUSH2 0x1330 JUMP JUMPDEST SWAP2 POP POP SWAP3 SWAP2 POP POP JUMP JUMPDEST PUSH2 0x163B DUP2 PUSH2 0x1309 JUMP JUMPDEST DUP3 MSTORE POP POP JUMP JUMPDEST PUSH0 PUSH1 0x20 DUP3 ADD SWAP1 POP PUSH2 0x1654 PUSH0 DUP4 ADD DUP5 PUSH2 0x1632 JUMP JUMPDEST SWAP3 SWAP2 POP POP JUMP JUMPDEST PUSH0 DUP1 PUSH1 0x40 DUP4 DUP6 SUB SLT ISZERO PUSH2 0x1670 JUMPI PUSH2 0x166F PUSH2 0x12E2 JUMP JUMPDEST JUMPDEST PUSH0 PUSH2 0x167D DUP6 DUP3 DUP7 ADD PUSH2 0x1330 JUMP JUMPDEST SWAP3 POP POP PUSH1 0x20 PUSH2 0x168E DUP6 DUP3 DUP7 ADD PUSH2 0x1330 JUMP JUMPDEST SWAP2 POP POP SWAP3 POP SWAP3 SWAP1 POP JUMP JUMPDEST PUSH32 0x4E487B7100000000000000000000000000000000000000000000000000000000 PUSH0 MSTORE PUSH1 0x22 PUSH1 0x4 MSTORE PUSH1 0x24 PUSH0 REVERT JUMPDEST PUSH0 PUSH1 0x2 DUP3 DIV SWAP1 POP PUSH1 0x1 DUP3 AND DUP1 PUSH2 0x16DC JUMPI PUSH1 0x7F DUP3 AND SWAP2 POP JUMPDEST PUSH1 0x20 DUP3 LT DUP2 SUB PUSH2 0x16EF JUMPI PUSH2 0x16EE PUSH2 0x1698 JUMP JUMPDEST JUMPDEST POP SWAP2 SWAP1 POP JUMP JUMPDEST PUSH0 DUP2 SWAP1 POP DUP2 PUSH0 MSTORE PUSH1 0x20 PUSH0 KECCAK256 SWAP1 POP SWAP2 SWAP1 POP JUMP JUMPDEST PUSH0 PUSH1 0x20 PUSH1 0x1F DUP4 ADD DIV SWAP1 POP SWAP2 SWAP1 POP JUMP JUMPDEST PUSH0 DUP3 DUP3 SHL SWAP1 POP SWAP3 SWAP2 POP POP JUMP JUMPDEST PUSH0 PUSH1 0x8 DUP4 MUL PUSH2 0x1751 PUSH32 0xFFFFFFFFFFFFFFFFFFFFFFFFFFFFFFFFFFFFFFFFFFFFFFFFFFFFFFFFFFFFFFFF DUP3 PUSH2 0x1716 JUMP JUMPDEST PUSH2 0x175B DUP7 DUP4 PUSH2 0x1716 JUMP JUMPDEST SWAP6 POP DUP1 NOT DUP5 AND SWAP4 POP DUP1 DUP7 AND DUP5 OR SWAP3 POP POP POP SWAP4 SWAP3 POP POP POP JUMP JUMPDEST PUSH0 DUP2 SWAP1 POP SWAP2 SWAP1 POP JUMP JUMPDEST PUSH0 PUSH2 0x1796 PUSH2 0x1791 PUSH2 0x178C DUP5 PUSH2 0x1344 JUMP JUMPDEST PUSH2 0x1773 JUMP JUMPDEST PUSH2 0x1344 JUMP JUMPDEST SWAP1 POP SWAP2 SWAP1 POP JUMP JUMPDEST PUSH0 DUP2 SWAP1 POP SWAP2 SWAP1 POP JUMP JUMPDEST PUSH2 0x17AF DUP4 PUSH2 0x177C JUMP JUMPDEST PUSH2 0x17C3 PUSH2 0x17BB DUP3 PUSH2 0x179D JUMP JUMPDEST DUP5 DUP5 SLOAD PUSH2 0x1722 JUMP JUMPDEST DUP3 SSTORE POP POP POP POP JUMP JUMPDEST PUSH0 SWAP1 JUMP JUMPDEST PUSH2 0x17D7 PUSH2 0x17CB JUMP JUMPDEST PUSH2 0x17E2 DUP2 DUP5 DUP5 PUSH2 0x17A6 JUMP JUMPDEST POP POP POP JUMP JUMPDEST JUMPDEST DUP2 DUP2 LT ISZERO PUSH2 0x1805 JUMPI PUSH2 0x17FA PUSH0 DUP3 PUSH2 0x17CF JUMP JUMPDEST PUSH1 0x1 DUP2 ADD SWAP1 POP PUSH2 0x17E8 JUMP JUMPDEST POP POP JUMP JUMPDEST PUSH1 0x1F DUP3 GT ISZERO PUSH2 0x184A JUMPI PUSH2 0x181B DUP2 PUSH2 0x16F5 JUMP JUMPDEST PUSH2 0x1824 DUP5 PUSH2 0x1707 JUMP JUMPDEST DUP2 ADD PUSH1 0x20 DUP6 LT ISZERO PUSH2 0x1833 JUMPI DUP2 SWAP1 POP JUMPDEST PUSH2 0x1847 PUSH2 0x183F DUP6 PUSH2 0x1707 JUMP JUMPDEST DUP4 ADD DUP3 PUSH2 0x17E7 JUMP JUMPDEST POP POP JUMPDEST POP POP POP JUMP JUMPDEST PUSH0 DUP3 DUP3 SHR SWAP1 POP SWAP3 SWAP2 POP POP JUMP JUMPDEST PUSH0 PUSH2 0x186A PUSH0 NOT DUP5 PUSH1 0x8 MUL PUSH2 0x184F JUMP JUMPDEST NOT DUP1 DUP4 AND SWAP2 POP POP SWAP3 SWAP2 POP POP JUMP JUMPDEST PUSH0 PUSH2 0x1882 DUP4 DUP4 PUSH2 0x185B JUMP JUMPDEST SWAP2 POP DUP3 PUSH1 0x2 MUL DUP3 OR SWAP1 POP SWAP3 SWAP2 POP POP JUMP JUMPDEST PUSH2 0x189B DUP3 PUSH2 0x122F JUMP JUMPDEST PUSH8 0xFFFFFFFFFFFFFFFF DUP2 GT ISZERO PUSH2 0x18B4 JUMPI PUSH2 0x18B3 PUSH2 0x13F0 JUMP JUMPDEST JUMPDEST PUSH2 0x18BE DUP3 SLOAD PUSH2 0x16C5 JUMP JUMPDEST PUSH2 0x18C9 DUP3 DUP3 DUP6 PUSH2 0x1809 JUMP JUMPDEST PUSH0 PUSH1 0x20 SWAP1 POP PUSH1 0x1F DUP4 GT PUSH1 0x1 DUP2 EQ PUSH2 0x18FA JUMPI PUSH0 DUP5 ISZERO PUSH2 0x18E8 JUMPI DUP3 DUP8 ADD MLOAD SWAP1 POP JUMPDEST PUSH2 0x18F2 DUP6 DUP3 PUSH2 0x1877 JUMP JUMPDEST DUP7 SSTORE POP PUSH2 0x1959 JUMP JUMPDEST PUSH1 0x1F NOT DUP5 AND PUSH2 0x1908 DUP7 PUSH2 0x16F5 JUMP JUMPDEST PUSH0 JUMPDEST DUP3 DUP2 LT ISZERO PUSH2 0x192F JUMPI DUP5 DUP10 ADD MLOAD DUP3 SSTORE PUSH1 0x1 DUP3 ADD SWAP2 POP PUSH1 0x20 DUP6 ADD SWAP5 POP PUSH1 0x20 DUP2 ADD SWAP1 POP PUSH2 0x190A JUMP JUMPDEST DUP7 DUP4 LT ISZERO PUSH2 0x194C JUMPI DUP5 DUP10 ADD MLOAD PUSH2 0x1948 PUSH1 0x1F DUP10 AND DUP3 PUSH2 0x185B JUMP JUMPDEST DUP4 SSTORE POP JUMPDEST PUSH1 0x1 PUSH1 0x2 DUP9 MUL ADD DUP9 SSTORE POP POP POP JUMPDEST POP POP POP POP POP POP JUMP JUMPDEST PUSH32 0x41646D696E277320746F6B656E7320617265206C6F636B656400000000000000 PUSH0 DUP3 ADD MSTORE POP JUMP JUMPDEST PUSH0 PUSH2 0x1995 PUSH1 0x19 DUP4 PUSH2 0x1239 JUMP JUMPDEST SWAP2 POP PUSH2 0x19A0 DUP3 PUSH2 0x1961 JUMP JUMPDEST PUSH1 0x20 DUP3 ADD SWAP1 POP SWAP2 SWAP1 POP JUMP JUMPDEST PUSH0 PUSH1 0x20 DUP3 ADD SWAP1 POP DUP2 DUP2 SUB PUSH0 DUP4 ADD MSTORE PUSH2 0x19C2 DUP2 PUSH2 0x1989 JUMP JUMPDEST SWAP1 POP SWAP2 SWAP1 POP JUMP JUMPDEST PUSH32 0x546F6B656E7320617265206C6F636B6564000000000000000000000000000000 PUSH0 DUP3 ADD MSTORE POP JUMP JUMPDEST PUSH0 PUSH2 0x19FD PUSH1 0x11 DUP4 PUSH2 0x1239 JUMP JUMPDEST SWAP2 POP PUSH2 0x1A08 DUP3 PUSH2 0x19C9 JUMP JUMPDEST PUSH1 0x20 DUP3 ADD SWAP1 POP SWAP2 SWAP1 POP JUMP JUMPDEST PUSH0 PUSH1 0x20 DUP3 ADD SWAP1 POP DUP2 DUP2 SUB PUSH0 DUP4 ADD MSTORE PUSH2 0x1A2A DUP2 PUSH2 0x19F1 JUMP JUMPDEST SWAP1 POP SWAP2 SWAP1 POP JUMP JUMPDEST PUSH32 0x4E487B7100000000000000000000000000000000000000000000000000000000 PUSH0 MSTORE PUSH1 0x11 PUSH1 0x4 MSTORE PUSH1 0x24 PUSH0 REVERT JUMPDEST PUSH0 PUSH2 0x1A68 DUP3 PUSH2 0x1344 JUMP JUMPDEST SWAP2 POP PUSH2 0x1A73 DUP4 PUSH2 0x1344 JUMP JUMPDEST SWAP3 POP DUP3 DUP3 ADD SWAP1 POP DUP1 DUP3 GT ISZERO PUSH2 0x1A8B JUMPI PUSH2 0x1A8A PUSH2 0x1A31 JUMP JUMPDEST JUMPDEST SWAP3 SWAP2 POP POP JUMP JUMPDEST PUSH0 PUSH2 0x1A9B DUP3 PUSH2 0x1344 JUMP JUMPDEST SWAP2 POP PUSH2 0x1AA6 DUP4 PUSH2 0x1344 JUMP JUMPDEST SWAP3 POP DUP3 DUP3 MUL PUSH2 0x1AB4 DUP2 PUSH2 0x1344 JUMP JUMPDEST SWAP2 POP DUP3 DUP3 DIV DUP5 EQ DUP4 ISZERO OR PUSH2 0x1ACB JUMPI PUSH2 0x1ACA PUSH2 0x1A31 JUMP JUMPDEST JUMPDEST POP SWAP3 SWAP2 POP POP JUMP JUMPDEST PUSH32 0x4E487B7100000000000000000000000000000000000000000000000000000000 PUSH0 MSTORE PUSH1 0x12 PUSH1 0x4 MSTORE PUSH1 0x24 PUSH0 REVERT JUMPDEST PUSH0 PUSH2 0x1B09 DUP3 PUSH2 0x1344 JUMP JUMPDEST SWAP2 POP PUSH2 0x1B14 DUP4 PUSH2 0x1344 JUMP JUMPDEST SWAP3 POP DUP3 PUSH2 0x1B24 JUMPI PUSH2 0x1B23 PUSH2 0x1AD2 JUMP JUMPDEST JUMPDEST DUP3 DUP3 DIV SWAP1 POP SWAP3 SWAP2 POP POP JUMP JUMPDEST PUSH32 0x4F776E657273686970206361707065642061742032302520746F20656E737572 PUSH0 DUP3 ADD MSTORE PUSH32 0x6520646563656E7472616C697A6174696F6E0000000000000000000000000000 PUSH1 0x20 DUP3 ADD MSTORE POP JUMP JUMPDEST PUSH0 PUSH2 0x1B89 PUSH1 0x32 DUP4 PUSH2 0x1239 JUMP JUMPDEST SWAP2 POP PUSH2 0x1B94 DUP3 PUSH2 0x1B2F JUMP JUMPDEST PUSH1 0x40 DUP3 ADD SWAP1 POP SWAP2 SWAP1 POP JUMP JUMPDEST PUSH0 PUSH1 0x20 DUP3 ADD SWAP1 POP DUP2 DUP2 SUB PUSH0 DUP4 ADD MSTORE PUSH2 0x1BB6 DUP2 PUSH2 0x1B7D JUMP JUMPDEST SWAP1 POP SWAP2 SWAP1 POP JUMP JUMPDEST PUSH32 0x61646D696E277320746F6B656E7320617265206C6F636B656420666F7220616E PUSH0 DUP3 ADD MSTORE PUSH32 0x2079656172000000000000000000000000000000000000000000000000000000 PUSH1 0x20 DUP3 ADD MSTORE POP JUMP JUMPDEST PUSH0 PUSH2 0x1C17 PUSH1 0x25 DUP4 PUSH2 0x1239 JUMP JUMPDEST SWAP2 POP PUSH2 0x1C22 DUP3 PUSH2 0x1BBD JUMP JUMPDEST PUSH1 0x40 DUP3 ADD SWAP1 POP SWAP2 SWAP1 POP JUMP JUMPDEST PUSH0 PUSH1 0x20 DUP3 ADD SWAP1 POP DUP2 DUP2 SUB PUSH0 DUP4 ADD MSTORE PUSH2 0x1C44 DUP2 PUSH2 0x1C0B JUMP JUMPDEST SWAP1 POP SWAP2 SWAP1 POP JUMP JUMPDEST PUSH32 0x6E6F7420666F722073616C652079657400000000000000000000000000000000 PUSH0 DUP3 ADD MSTORE POP JUMP JUMPDEST PUSH0 PUSH2 0x1C7F PUSH1 0x10 DUP4 PUSH2 0x1239 JUMP JUMPDEST SWAP2 POP PUSH2 0x1C8A DUP3 PUSH2 0x1C4B JUMP JUMPDEST PUSH1 0x20 DUP3 ADD SWAP1 POP SWAP2 SWAP1 POP JUMP JUMPDEST PUSH0 PUSH1 0x20 DUP3 ADD SWAP1 POP DUP2 DUP2 SUB PUSH0 DUP4 ADD MSTORE PUSH2 0x1CAC DUP2 PUSH2 0x1C73 JUMP JUMPDEST SWAP1 POP SWAP2 SWAP1 POP JUMP JUMPDEST PUSH0 DUP2 SLOAD PUSH2 0x1CBF DUP2 PUSH2 0x16C5 JUMP JUMPDEST PUSH2 0x1CC9 DUP2 DUP7 PUSH2 0x1239 JUMP JUMPDEST SWAP5 POP PUSH1 0x1 DUP3 AND PUSH0 DUP2 EQ PUSH2 0x1CE3 JUMPI PUSH1 0x1 DUP2 EQ PUSH2 0x1CF9 JUMPI PUSH2 0x1D2B JUMP JUMPDEST PUSH1 0xFF NOT DUP4 AND DUP7 MSTORE DUP2 ISZERO ISZERO PUSH1 0x20 MUL DUP7 ADD SWAP4 POP PUSH2 0x1D2B JUMP JUMPDEST PUSH2 0x1D02 DUP6 PUSH2 0x16F5 JUMP JUMPDEST PUSH0 JUMPDEST DUP4 DUP2 LT ISZERO PUSH2 0x1D23 JUMPI DUP2 SLOAD DUP2 DUP10 ADD MSTORE PUSH1 0x1 DUP3 ADD SWAP2 POP PUSH1 0x20 DUP2 ADD SWAP1 POP PUSH2 0x1D04 JUMP JUMPDEST DUP1 DUP9 ADD SWAP6 POP POP POP JUMPDEST POP POP POP SWAP3 SWAP2 POP POP JUMP JUMPDEST PUSH0 PUSH1 0x80 DUP3 ADD SWAP1 POP PUSH2 0x1D47 PUSH0 DUP4 ADD DUP8 PUSH2 0x1632 JUMP JUMPDEST PUSH2 0x1D54 PUSH1 0x20 DUP4 ADD DUP7 PUSH2 0x1632 JUMP JUMPDEST PUSH2 0x1D61 PUSH1 0x40 DUP4 ADD DUP6 PUSH2 0x155B JUMP JUMPDEST DUP2 DUP2 SUB PUSH1 0x60 DUP4 ADD MSTORE PUSH2 0x1D73 DUP2 DUP5 PUSH2 0x1CB3 JUMP JUMPDEST SWAP1 POP SWAP6 SWAP5 POP POP POP POP POP JUMP JUMPDEST PUSH0 PUSH1 0x60 DUP3 ADD SWAP1 POP PUSH2 0x1D91 PUSH0 DUP4 ADD DUP7 PUSH2 0x1632 JUMP JUMPDEST PUSH2 0x1D9E PUSH1 0x20 DUP4 ADD DUP6 PUSH2 0x155B JUMP JUMPDEST PUSH2 0x1DAB PUSH1 0x40 DUP4 ADD DUP5 PUSH2 0x155B JUMP JUMPDEST SWAP5 SWAP4 POP POP POP POP JUMP INVALID LOG2 PUSH5 0x6970667358 0x22 SLT KECCAK256 SWAP3 0xC2 SHR AND SGT 0xC4 0xC8 0xD5 0xC7 SWAP15 STATICCALL PUSH9 0x80D314E07BABA0952E SWAP16 PUSH14 0xB648517CB9CF6882BC64736F6C63 NUMBER STOP ADDMOD EQ STOP CALLER LOG2 PUSH5 0x6970667358 0x22 SLT KECCAK256 SWAP15 0xC9 CALL 0xE0 JUMPDEST CODESIZE 0xC3 COINBASE SGT 0xA6 EXTCODESIZE 0xD5 PUSH30 0x816B3ECED4C0ADE5D474FD32E1F88E572B420064736F6C63430008140033 "
		},
		"gasEstimates": {
			"creation": {
				"codeDepositCost": "2980000",
				"executionCost": "3269",
				"totalCost": "2983269"
			},
			"external": {
				"callCA()": "infinite",
				"createCA(address,string,string,uint256,address[],uint256[],uint256)": "infinite",
				"estates(uint256)": "infinite"
			}
		},
		"methodIdentifiers": {
			"callCA()": "29919df9",
			"createCA(address,string,string,uint256,address[],uint256[],uint256)": "8f1d5d5b",
			"estates(uint256)": "d70f83c2"
		}
	},
	"abi": [
		{
			"anonymous": false,
			"inputs": [
				{
					"indexed": false,
					"internalType": "string",
					"name": "message",
					"type": "string"
				}
			],
			"name": "DebugLog",
			"type": "event"
		},
		{
			"anonymous": false,
			"inputs": [
				{
					"indexed": false,
					"internalType": "address",
					"name": "",
					"type": "address"
				}
			],
			"name": "EstateCreated",
			"type": "event"
		},
		{
			"inputs": [],
			"name": "callCA",
			"outputs": [
				{
					"internalType": "contract ERC20subscription[]",
					"name": "",
					"type": "address[]"
				}
			],
			"stateMutability": "view",
			"type": "function"
		},
		{
			"inputs": [
				{
					"internalType": "address",
					"name": "_owner",
					"type": "address"
				},
				{
					"internalType": "string",
					"name": "_name",
					"type": "string"
				},
				{
					"internalType": "string",
					"name": "_symbol",
					"type": "string"
				},
				{
					"internalType": "uint256",
					"name": "_totalsupply",
					"type": "uint256"
				},
				{
					"internalType": "address[]",
					"name": "subscribers",
					"type": "address[]"
				},
				{
					"internalType": "uint256[]",
					"name": "amounts",
					"type": "uint256[]"
				},
				{
					"internalType": "uint256",
					"name": "_lockTime",
					"type": "uint256"
				}
			],
			"name": "createCA",
			"outputs": [],
			"stateMutability": "nonpayable",
			"type": "function"
		},
		{
			"inputs": [
				{
					"internalType": "uint256",
					"name": "",
					"type": "uint256"
				}
			],
			"name": "estates",
			"outputs": [
				{
					"internalType": "contract ERC20subscription",
					"name": "",
					"type": "address"
				}
			],
			"stateMutability": "view",
			"type": "function"
		}
	]
}